:020000040800F2
:10000000C816002029020008073A0008AD2F000892
:10001000053A000849050008F54C000800000000FA
:100020000000000000000000000000000143000884
:100030002106000800000000093A000803430008F8
:10004000430200084302000843020008430200087C
:10005000430200084302000843020008430200086C
:100060004302000843020008430200084D0500084F
:10007000430200084302000843020008430200084C
:1000800059050008650500084302000843020008FE
:10009000430200084302000843020008430200082C
:1000A000430200084302000843020008430200081C
:1000B000430200084302000843020008430200080C
:1000C00043020008430200084302000843020008FC
:1000D00043020008594A0008654A0008714A0008AE
:1000E00043020008430200084302000843020008DC
:1000F000430200084302000843020008710500089B
:1001000043020008430200084302000843020008BB
:1001100043020008430200084302000843020008AB
:10012000430200084302000843020008430200089B
:10013000430200084302000843020008430200088B
:10014000430200084302000843020008430200087B
:100150004302000843020008430200087D4A0008E9
:10016000430200084302000843020008430200085B
:100170004302000843020008430200080000000098
:10018000430200084302000800F002F800F03CF8C7
:100190000AA090E8000C82448344AAF10107DA45E2
:1001A00001D100F031F8AFF2090EBAE80F0013F0F8
:1001B000010F18BFFB1A43F001031847904C0000D1
:1001C000B04C0000103A24BF78C878C1FAD8520762
:1001D00024BF30C830C144BF04680C6070470000C1
:1001E0000023002400250026103A28BF78C1FBD840
:1001F000520728BF30C148BF0B6070471FB504F0DD
:100200000FFE1FBD10B510BD00F0D4F81146FFF76A
:10021000F5FF04F081FD00F0F2F803B4FFF7F2FF00
:1002200003BC00F0F5F80000094880470948004782
:10023000FEE7FEE7FEE7FEE7FEE7FEE7FEE7FEE796
:10024000FEE7FEE704480549054A064B70470000F3
:10025000A143000889010008C8100020C81600202A
:10026000C8120020C812002053EA020C00F0698076
:100270002DE9F04B4FF00006002B1FBFB3FA83F5BA
:1002800003FA05F424FA05F65E4012BF1643B2FAEB
:1002900082F502FA05F4C5F120051EBF22FA05FC1D
:1002A00044EA0C04203556EA044C4FEA144418BFC3
:1002B000641C4FF000084FF00009904271EB030CF2
:1002C00039D3002919BFB1FA81F701FA07F6B0FA5C
:1002D00080F700FA07F6C7F120071EBF20FA07FCD7
:1002E00046EA0C062037B6FBF4FCA7EB0507103FE7
:1002F00007F01F0BCBF120060CFA0BFB2CFA06F6CD
:1003000044BFB3460026202FA4BF5E464FF0000B2B
:100310005BEA060C08BF4FF0010B19EB0B09ABFBB6
:10032000027C48EB0608C01B06FB02CC0BFB03CC8F
:1003300071EB0C01C1E70B46024641464846BDE859
:10034000F08B13B54FF000004FF00001AFF30080C9
:10035000BDE81C4070474FF0000200B513469446BC
:100360009646203922BFA0E80C50A0E80C50B1F10D
:100370002001BFF4F7AF090728BFA0E80C5048BF21
:100380000CC05DF804EB890028BF40F8042B08BFBF
:10039000704748BF20F8022B11F0804F18BF00F8BB
:1003A000012B704770477047704700000048704746
:1003B000681000207546FFF7F9FFAE460500694654
:1003C000534620F00700854618B020B5FFF73AFFE6
:1003D000BDE820404FF000064FF000074FF0000846
:1003E0004FF0000B21F00701AC46ACE8C009ACE8C7
:1003F000C009ACE8C009ACE8C0098D46704710B52B
:100400000446AFF300802046BDE81040FFF705BF6B
:1004100001491820ABBEFEE726000200704700002D
:10042000464910B54A6822F440324A604A68436837
:100430001A434A6001684A6822F480724A6001687F
:100440004A68036942EA03224A6001684A6822F066
:1004500040724A6001684A6883681A434A600168CA
:100460008A6822F400628A6001688A68C3681A4355
:100470008A60816A6FF07062D14201688A6822F0F6
:1004800070628A6001688A680CD0836A1A438A6045
:1004900001688A6822F040528A6001688A68C36AEB
:1004A0001A4301E022F040528A6001688A6822F013
:1004B00002028A6001688A68037E42EA43028A6017
:1004C00090F82010002901684A680FD042F40062B9
:1004D0004A6001684A6822F460424A6001684A68DA
:1004E000174C436A04EB43331A4301E022F40062E1
:1004F0004A600168CA6A22F47002CA620168CA6A64
:10050000838B104C04EB03531A43CA6201688A6858
:1005100022F400728A6001688A6890F8303042EAFA
:1005200043228A6001688A6822F480628A600168D6
:100530008A68406942EA8020886010BD002301403B
:1005400000E0FFFF0000F0FFFEE70000014800F0C0
:10055000C7B9000008020020014800F0C1B900003E
:1005600084060020014800F0BBB90000E40600202A
:10057000014800F0B5B900006802002001681823A6
:10058000CAB2103AB2FBF3F2054B6FF30901032A2A
:100590009B5CC36500D9091D816508467047000052
:1005A0002A4E000810B5014600208B698A6A4FF078
:1005B000C07453B1B3F5005F15D072B1012A0CD0ED
:1005C000022A0AD0032A09D104E01AB1012A06D06E
:1005D000022A03D1C96AC90100D5012010BDC96A28
:1005E000A142FAD010BD002AF7D0012AF2D0022A87
:1005F000F3D0032AF3D010BD30B50468256825F484
:1006000080252560046863608368402B036803D0FD
:1006100099600068C26030BD9A600068C16030BDFA
:10062000704772B6FEE7000078B50024009490F899
:100630003C20012A19D0012280F83C200A680723B7
:100640000568092A13D9EE680A3A02EB4202934080
:100650009E43EE600B788A680A3B03EB43039A40A3
:100660000368DD682A43DA6010E0022078BD2E6955
:1006700002EB420293409E432E610B788A6803EBA3
:1006800043039A4003681D692A431A614A681F237D
:10069000072A13D205686E6B521E02EB820293404A
:1006A0009E436E630B790A885B1E92B203EB830351
:1006B0009A4003685D6B2A435A6327E005680D2A58
:1006C00012D22E6BD21F02EB820293409E432E6306
:1006D0000B790A88DB1F92B203EB83039A4003680D
:1006E0001D6B2A431A6311E0EE6A0D3A02EB820297
:1006F00093409E43EE620B790A880D3B92B203EB66
:1007000083039A400368DD6A2A43DA62164B056860
:10071000144A9D4206D10D68122D03D1556845F447
:100720008005556005689D4218D10B68102B01D0DB
:10073000112B13D1536843F4000353600968102947
:100740000CD10A490A4A0968B1FBF2F101EB8101B7
:10075000490000E0491E00910029FBD180F83C408F
:10076000002078BD00230140002001400C00002043
:1007700040420F0070B504004FF0000503D0206C1C
:10078000002610B107E0012070BD204600F01CF8E3
:10079000666484F83C60206CC00610D4206C20F4A1
:1007A000885040F0020020642046FFF739FE66645E
:1007B000206C20F0020040F00100206400E00125E0
:1007C00084F83C60284670BD10B586B004461421FC
:1007D0006846FFF7C0FD1149206888421BD11048C8
:1007E0000021026842F480720260006800F48070A8
:1007F00005900B481438026842F00102026000685C
:1008000000F00100059003200090CDE90101694648
:10081000044800F0E9F906B010BD000000200140D6
:1008200044380240000002402DE9F0410446876D43
:1008300000F0D8FA064694F835000025022806D0C4
:100840008020606584F834500120BDE8F081206884
:10085000016821F0160101602068416921F08001E2
:100860004161206C08B9A06C20B12068016821F0BA
:10087000080101602068016821F0010101600CE0BD
:1008800000F0B0FA801B052807D9202060650320FE
:1008900084F8350084F83450D7E720680068C00732
:1008A000EED194F85C103F208840B860012084F8B5
:1008B000350084F834500020C7E790F8351002293D
:1008C00003D08021416501207047052180F8351053
:1008D0000068016821F001010160002070470000FC
:1008E0002DE9F84304464FF00009CDF80090634825
:1008F0004FF41651A56D0068B0FBF1F72E6894F81F
:100900005C10082000FA01F131420FD021680A681A
:1009100052070BD50A6822F004020A6094F85C10B2
:100920008840A860606D40F00100606594F85C103C
:100930004FF0010808FA01F0304208D021684969F7
:10094000090604D5A860606D40F00200606594F867
:100950005C1004208840304208D02168096889076B
:1009600004D5A860606D40F00400606594F85C10E8
:1009700010208840304218D021680968090714D532
:10098000A86020680168490304D50068000308D501
:10099000A16C07E00168C90503D4016821F00801D2
:1009A0000160216C09B12046884794F85C10202032
:1009B0008840304231D021680968C9062DD5A86029
:1009C00094F8350005282068016806D0490347D50A
:1009D000006800031DD4616C1CE021F01601016069
:1009E0002068416921F080014161206C08B9A06C48
:1009F00020B12068016821F00801016094F85C10C2
:100A00003F208840A86084F8358084F83490216DB8
:100A10001FE0E16B09B120468847606D00282BD0AC
:100A2000606DC00714D0052084F835002068016887
:100A300021F0010101600098401C0090B84203D8E9
:100A400020680068C007F6D184F8358084F83490B7
:100A5000E16C002910D001B02046BDE8F043084702
:100A60000168C905D5D4016821F01001016084F83E
:100A7000358084F83490CCE7BDE8F8830C00002082
:100A80002DE9F041044600F0ADF906465CB10220C4
:100A900084F83500002584F834502068016821F07E
:100AA000010101600DE00120BDE8F08100F09AF93C
:100AB000801B052805D920206065032084F83500B7
:100AC000F2E720680068C007F0D12268116820486A
:100AD0000140D4E901031843D4E9033633431843F2
:100AE00063691843A3691843E3691843236A1843E9
:100AF0000843616A042903D1D4E90B13194308435D
:100B0000106020684069666A20F0070130460E4395
:100B1000012704280CD1A06A0643E06A40B12046B0
:100B2000FFF740FD20B14020606584F83570BAE7DA
:100B3000206846612046FFF721FD94F85C203F21A4
:100B400091408160656584F835700020ACE7000055
:100B50003F8010F02DE9F0410446866D90F8340096
:100B6000002501280DD0012084F8340094F8357058
:100B70000020012F07D084F8340002252846BDE864
:100B8000F0810220FBE7022784F83570606520467B
:100B9000FFF732FD94F85C103F208840B060206879
:100BA000016841F016010160206C20B120680168E5
:100BB00041F0080101602068016841F00101016015
:100BC000DCE7000070B5044600F00CF90546601C37
:100BD00002D004480078044400F004F9401BA0420D
:100BE000FAD370BD000000202DE9F84FDFF8BCA15A
:100BF0000022012503264FF00F090AF1040BAAF188
:100C0000040E00BF0B6805FA02F42340A34270D122
:100C10000F7907F00307012F01D0022F16D1876843
:100C20004FEA420806FA08FC27EA0C07D1F80CC084
:100C30000CFA08FC4CEA070CC0F808C04768A74348
:100C40000C79C4F3001494403C4344600C79E443B1
:100C5000A4070AD0C4684FEA420C06FA0CF7BC435A
:100C60008F6807FA0CF72743C7600C7904F0030478
:100C7000022C12D1D40800EB840CDCF8204057077A
:100C8000FF0E09FA07F824EA0804D1F8108008FAE0
:100C900007F848EA0408CCF8208004684FEA420CC0
:100CA00006FA0CF7BC430F7907F0030707FA0CF7B5
:100CB000274307604C6814F4403F70D03C4C2768D1
:100CC00047F480472760246822F0030704F4804437
:100CD0000094384C07EB040CDCF8084897074FEAFF
:100CE000177809FA08F7BC43334FB84202D10027FE
:100CF00024E054E0314FB84201D101271EE0304FCB
:100D0000B84201D1022719E02E4FB84201D1032782
:100D100014E02D4FB84201D104270FE02B4FB84209
:100D200001D105270AE02A4FB84201D1062705E084
:100D3000284FB84201D1072700E0082707FA08F733
:100D40002743CCF80878DAF800405746D1F804C0B9
:100D50009C435FEACC2C00D51C433C60DBF8004090
:100D60005F46D1F804C09C435FEA8C2C00D51C433D
:100D70003C60DEF800407746D1F804C09C435FEA4F
:100D80008C3C00D51C433C60084F083F3C68D1F8C0
:100D900004C09C435FEACC3C00D51C433C60521C21
:100DA000102AFFF42FAFBDE8F88F0000083C014087
:100DB000443802400030014000000240000402407C
:100DC00000080240000C02400010024000140240E3
:100DD00000180240001C02400AB1816170470904FA
:100DE000FBE7000001488068704700000000002019
:100DF000F8B5040005D094F8D5032568002610B195
:100E000006E00120F8BD84F8D463204600F028F8FD
:100E1000032084F8D503B5F1A04F00D1A671206856
:100E200003F092FE207C8DF8000094E80F0003F0A0
:100E30002BFE022560B90121206803F02DFF38B98F
:100E4000207C8DF8000094E80F0003F0BDFE10B187
:100E500084F8D553D5E7012084F8D5030020F8BDE8
:100E600010B586B0044614216846FFF774FA20686E
:100E7000B0F1A04F27D115480021026842F00102CD
:100E80000260006800F0010005904FF4C05000902F
:100E90000220CDE90101032003900A200490694655
:100EA0000B48FFF7A1FE0948001D016841F08001D1
:100EB000016006481430016841F480410160006817
:100EC00000F48040059006B010BD000030380240AC
:100ED0000000024070B5040025D094F83D000025C4
:100EE00020B984F83C50204600F0B8F8242084F85B
:100EF0003D002068016821F001010160206801685F
:100F000041F4004101602068016821F40041016062
:100F100000F066FA4D4A6168914201D84C4900E000
:100F20004C49884201D2012070BD4B492368B0FB77
:100F3000F1F15E6826F03F060E435E6063689342FF
:100F400006D94FF4967359434FF47A73B1FBF3F11A
:100F50002368491C1E6A26F03F0631431962616806
:100F6000914210D84900401EB0FBF1F2521CC2F36E
:100F70000B02042A01D2042022E0B0FBF1F0401C55
:100F8000C0F30B001CE0A268F2B301EBC10303EB5A
:100F90000116431EB3FBF6F35B1C43F480431B05B1
:100FA00049D092B301EBC10202EB0111401EB0FB2C
:100FB000F1F0401CC0F30B0040F4804040F40040CE
:100FC0002168CA694CF6FF739A431043C861D4E99B
:100FD000071001432068026822F0C002114301603B
:100FE000D4E9030101432068826848F2FF339A4341
:100FF00011438160D4E9050108432168CA6822F0E1
:10100000FF021043C86001E00EE016E020680168AE
:1010100041F0010101602564202084F83D00256332
:1010200084F83E50002070BD01EB4106431EB3FB27
:10103000F6F35B1CB3E70120C2E701EB4101401E60
:10104000B0FBF1F0401CC0F30B00B7E7A086010035
:1010500080841E0000093D0040420F002DE9F04150
:1010600086B0064614216846FFF775F93D4DDFF856
:10107000F080D6F800C03B481221032204273A4BE7
:1010800010350024C4454CD1D0F800C04CF0020CFF
:10109000C0F800C0006800F00200059010028DE862
:1010A0001300CDE9032769461846FFF79DFD286820
:1010B00040F40010286028682D4D00F400100590C1
:1010C0002A4828604705C5E901744FF48068C5E9DE
:1010D00003486C61AC61EC612C6228466C62FFF7DE
:1010E000CFFC08B1FFF79DFAB563AE63204D1F48F2
:1010F0006035A830E5E802074020A5E811011C484A
:1011000045F814496030AC61EC612C626C62FFF709
:10111000B7FC08B1FFF785FA7563AE6306B0BDE8AA
:10112000F081144EB445F9D1066846F00206066017
:10113000006800F0020005904FF440608DE8130055
:10114000CDE9032769461846FFF74EFD286840F4AD
:1011500080002860286800F480000590DEE7000029
:101160000054004030380240000402401060024049
:1011700008020020005800400248816802781144AB
:1011800081607047000000200B4810B5016841F4F1
:1011900000710160016841F480610160016841F4FF
:1011A00080710160032000F06FF80F2000F006F856
:1011B00000F024F8002010BD003C024070B50D4D39
:1011C00004464FF47A712878B1FBF0F00A490968B7
:1011D000B1FBF0F000F085FE48B9102C07D20022D8
:1011E0002146501E00F030F800206C6070BD0120D8
:1011F00070BD0000000000200C0000200A4808B567
:10120000016841F480410160006800F48040009072
:101210000548001F016841F080510160006800F03E
:101220008050009008BD000044380240002809DBCF
:1012300000F01F02012191404009800000F1E020F0
:10124000C0F8001170470000F0B40E4B1B680C464C
:10125000C3F30223C3F10705042D00D90425191D8A
:10126000072901D2002300E0DB1E012606FA05F162
:10127000491E214099409E40761E16403143F0BCE5
:1012800003F039BD0CED00E0064900F007020868E4
:101290004FF6FF03184040EA0220034A104308605B
:1012A000704700000CED00E00000FA052DE9F04762
:1012B0000E46050065D0DFF81481D8F80000F7B2BB
:1012C00000F00700B04207D288F80070D8F800009C
:1012D00000F00700B04254D128683D4C810712D578
:1012E000400703D5206840F4E050206028780007CC
:1012F00003D5206840F4604020602068A96820F091
:10130000F000084320602878C0072DD03049686875
:101310000839012812D0022813D0032811D00968F7
:10132000890700292DDA216821F00301014321609A
:10133000FFF758FD814641F2883A0EE009688903BB
:10134000EFE709688901ECE7FFF74CFDA0EB090125
:10135000514502D90320BDE8F0872068696800F094
:101360000C00B0EB810FEFD1D8F80010404601F02F
:101370000701B14207D90770006800F00700B042CA
:1013800001D00120E7E72878400705D52068E96803
:1013900020F4E050084320602878000706D5206834
:1013A000296920F4604040EAC100206000F038F86C
:1013B0002168084AC1F30311515CC840064908601E
:1013C00006480068FFF7FAFE0020C4E7003C024030
:1013D00008380240324E00080C00002004000020B3
:1013E0000448054900680968044AC1F38221515C38
:1013F000C84070470C00002008380240424E0008E8
:101400000448054900680968044AC1F34231515C47
:10141000C84070470C00002008380240424E0008C7
:10142000154810B5006810F00C02144813D0144988
:10143000042A0FD0082A0ED10F4C241F22682368DB
:1014400002F03F025B0207D52068C0F38810A0FBC2
:10145000010106E0084610BD2168C1F38811A1FB17
:1014600000010023FEF700FF2168C1F30141491C80
:101470004900B0FBF1F010BD083802400024F40030
:1014800040787D012DE9F84F04006ED02078DFF818
:101490004C93C007A9F104054AD009F10400016882
:1014A000C1F38101012908D00068C0F3810002283E
:1014B0000AD1D9F80000400206D52868800337D544
:1014C00060680028E1D033E06068B0F5803F10D05C
:1014D000B0F5A02F286810D020F48030286028684C
:1014E00020F4802028606068A8B1FFF77BFC0646E6
:1014F0000DE0286840F48030F4E740F48020286054
:10150000F7E700BFFFF76EFC801B642873D82868DC
:101510008003F7D50CE0FFF765FC064605E000BF49
:10152000FFF760FC801B6428F0D828688003F7D49C
:101530002078DFF8AC8280074FF0000A3ED5A7483C
:10154000001D016811F00C0F08D00068C0F3810085
:1015500002280BD1D9F80000400207D42868800780
:1015600016D5E068012800D112E033E1E068B8B197
:101570000120C8F80000FFF735FC064605E000BF73
:10158000FFF730FC801B0228C0D828688007F7D5F9
:101590002868216920F0F80040EAC10028600DE0C9
:1015A000C8F800A0FFF71EFC064604E0FFF71AFC8F
:1015B000801B02281FD828688007F7D420780007EE
:1015C00022D5864F87486169703771B1012101606A
:1015D000FFF708FC064604E0FFF704FC801B022826
:1015E00009D838688007F7D50EE0C0F800A0FFF7EB
:1015F000F9FB064605E082E0FFF7F4FB801B0228BA
:101600007DD838688007F7D42078400768D5DFF8A0
:10161000CCB100270BF13C0BDBF80000C0000BD471
:10162000DBF8001041F08051CBF80010DBF800002F
:10163000012700F0805000906B4E3068C00510D438
:10164000306840F480703060FFF7CCFB009005E01C
:10165000FFF7C8FB0099401A022850D83068C0052F
:10166000F6D55E4EA0686C3601280FD0052830688C
:1016700010D020F001003060306820F004003060AD
:10168000A068B8B1FFF7AEFB00900FE0306840F003
:101690000100F4E740F004003060F7E7FFF7A2FB39
:1016A0000099411A41F28830814266D8306880073B
:1016B000F4D50EE0FFF796FB009007E0FFF792FBF2
:1016C0000099411A41F28830814256D8306880072B
:1016D000F4D42FB1DBF8001021F08051CBF80010CA
:1016E000A069C8B33D49091D0968C1F381010229F8
:1016F0004AD00228504607D0C8F8600000E03CE01D
:10170000FFF770FB04463BE04746C8F86000FFF770
:1017100069FB064605E000BFFFF764FB801B02285B
:101720002BD828688001F7D4D4E907010843A16ABF
:101730002E4A490802EB0141626A41EA82110843DC
:1017400094F82C1040EA0161C9F8001001203866B5
:10175000FFF748FB044606E03EE000BFFFF742FB10
:10176000001B022809D828688001F7D534E000BFA3
:10177000FFF738FB001B022802D90320BDE8F88FD1
:1017800028688001F4D427E00128F7D0D9F80000B8
:10179000E26900F4800191421CD1226A00F03F010D
:1017A000914217D147F6C071626A0140B1EB821FC6
:1017B00010D1A26A4FF0FF3300F4403103EB520224
:1017C000B1EB024F06D194F82C1000F07060B0EB32
:1017D000016F01D00120D1E70020CFE7043802409B
:1017E00000004742800E4742007000400000FFFFAB
:1017F0002DE9FE430446002603200D4684F83400FC
:10180000606C03285ED0B5F5805F5BD04FF4006755
:1018100000204FF08068BD421FD1814600900190AA
:101820000021206802F007F9800113D469462046A0
:1018300002F092FB07000DD10198400334D5B4F8B3
:1018400050000104206802F022F9070002D10221B1
:10185000206823E0A06B384328E01DB1A06B40F066
:10186000006023E08146009001900021206802F092
:10187000E2F88001EED46946204602F06DFB0700D5
:10188000E8D10198C0030FD5B4F8500001042068D6
:1018900002F0FDF80700DDD10021206802F043F9D5
:1018A0000700D7D14F46D5E74746D3E7A063A06BE3
:1018B000144F4FF0010848B12068876384F83480E2
:1018C00001260EE0A06B40F08050EFE7211DD4E927
:1018D000050C0EC9CDE90050CDF808C0206802F013
:1018E000ADF84FF40071206802F004F928B12168C6
:1018F0008F63A16B0143A163012684F834803046D5
:10190000BDE8FE83FF054000F0B5426E920F0A70FD
:10191000426EC2F383624A70426EC2F301628A7001
:10192000426E120CCA70B0F86420120A0A7190F864
:1019300064204A71826E120DCA80826EC2F3034225
:101940000A72B0F86820C2F3C0324A72B0F8682058
:10195000C2F380328A72B0F86820C2F34032CA7291
:10196000B0F86820C2F300320A7300264E73426C4E
:101970004FF40075012462B1012A3AD00268474948
:101980009163816B41F08051816380F83440012084
:10199000F0BDB0F86820C36E9205120D42EA937252
:1019A0000A61C26EC2F3C2620A75C26EC2F30262FB
:1019B0004A75C26EC2F342528A75C26EC2F3824247
:1019C000CA75C26EC2F3C2320A760A69521C4265F7
:1019D0000B7E03F007039B1C9A4042650B7A03F0D1
:1019E0000F0704FA07F383655B0A5A43C0E917251A
:1019F0000EE090F86820C36E9206920A42EA134203
:101A00000A610A69521C92024265C0E916520566D3
:101A100030F86C2FC2F3803201F8192F0288C2F31C
:101A2000C6124A70027802F07F028A704268D20FB2
:101A3000CA704268C2F341720A714268C2F382629C
:101A40004A714268C2F383528A714268C2F34052BB
:101A5000CA710E724268C2F300424A728288C2F3AF
:101A6000C0328A728288C2F38032CA728288C2F31C
:101A700040320A738288C2F300324A738288C2F30A
:101A800081228A738288C2F30122CA730079C0F36B
:101A9000460008744C740020F0BD0000FF054000B3
:101AA00070B504000ED094F83400002518B92577DD
:101AB000204600F04FF8032084F83400204600F060
:101AC0000BF808B1012070BDA5632563012084F8DF
:101AD0003400002070BD0000FEB5002504467620CD
:101AE0000095CDE9015029460B460A46206801F0D1
:101AF000A5FF48BB154E46F8A05F206801F0B0FF77
:101B0000012535600220FFF75DF8204602F00CFB4E
:101B100030B100BF84F83450A16B0143A16313E0DE
:101B2000204602F089FA0028F4D14FF400712068B1
:101B300001F0E0FF002808D0226805499163A16BFD
:101B40000143A16384F834500120FEBD008025428A
:101B5000FF054000F0B587B0044614216846FEF743
:101B6000FAFB1D492068884233D11C4800240168D3
:101B700041F400610160006800F4006005901748BE
:101B80001438016841F004010160016801F00401AA
:101B90000591016841F0080101600068022500F02C
:101BA000080005904FF4F850CDE9000502AA03267D
:101BB0000C2782E8D00069460948FFF715F8042091
:101BC000CDE9000502AA694682E8D0000548FFF782
:101BD0000BF807B0F0BD0000002C01404438024073
:101BE00000080240000C024070B5040009D0606A91
:101BF000002540B125616561A56294F8510040B1AE
:101C00000CE0012070BD6068B0F5827FF4D0E56122
:101C1000F2E784F85050204600F044F8022084F89F
:101C200051002068016821F040010160A0882189ED
:101C300000F4827001F404410843A18901F40061B9
:101C40000843217C01F002010843217D01F00101DC
:101C50000843218B01F400710843217F01F0380112
:101C6000084394F8201001F080010843218D01F40D
:101C70000051084321680860A069042101EA10406E
:101C800094F8241001F0100108432168486020688E
:101C9000C16921F40061C1616565012084F85100CA
:101CA000002070BDF0B587B0044614216846FEF7E9
:101CB00052FB2A4A216800242948022503260527C9
:101CC000914217D1264914310A6842F480520A60C1
:101CD000096801F480510591016841F0010101603A
:101CE0000068694600F001000590E020CDE900059C
:101CF0001C482CE01C4A91422ED1194910310A6827
:101D000042F480420A60096801F48041059101684B
:101D100041F004010160016801F0040105910168CE
:101D200041F002010160006802AA00F00200059083
:101D30000C20CDE9000582E8D00069460B48FEF78B
:101D400053FF4FF40050CDE900050948694602AA47
:101D500082E8D000FEF748FF07B0F0BD0030014038
:101D600030380240000002400038004000080240C5
:101D7000000402402DE9F84F044690F85000002678
:101D8000984615468A4601280CD0012784F85070E1
:101D9000FFF728F8814694F85100B346012804D093
:101DA00002269AE00220BDE8F88FBAF1000F6FD04A
:101DB000002D6DD0032084F85100C4F854B0C4F84D
:101DC00030A0A586E586C4F838B0A4F83CB0A4F8E5
:101DD0003EB0C4F844B0C4F840B0A068B0F5004FBD
:101DE00009D12068016821F0400101602068016884
:101DF00041F48041016020680168490603D401680C
:101E000041F040010160E068B0F5006F606803D008
:101E100058B3012D29D049E008B1012D1FD1206B05
:101E200021680088C86006E020688168890709D5B4
:101E3000216B0988C160206B801C2063E08E401EEE
:101E4000E0860CE0FEF7CEFFA0EB0901414503D38D
:101E5000B8F1FF3F03D006E0B8F1000F03D0E08EE9
:101E60000028E1D125E0032635E0206B21680078C9
:101E7000087306E02068816889070AD5216B097814
:101E80000173206B401C2063E08E401EE0860DE055
:101E90001FE0FEF7A7FFA0EB0901414503D3B8F10E
:101EA000FF3F03D0DFE7B8F1000FDCD0E08E002861
:101EB000E0D14A464146204602F090F908B1202080
:101EC0006065A06818B92068C16880680090606D7E
:101ED00008B1012601E084F8517084F850B0304612
:101EE00061E710B5401EB0F1807F01D3012010BD25
:101EF0004FF0E02460610F21601702F0FCFE00202B
:101F0000A06107202061002010BD10B590F83C2092
:101F1000012A22D0012280F83C20CA688C6822F471
:101F2000407222434C6822F4806222430C6822F4FF
:101F3000006222430C6922F4805222434C6922F44D
:101F400000522243C969002322F480420A430168F7
:101F50004A6480F83C30002010BD022010BD000013
:101F600070B590F83C20012A32D0012480F83C4022
:101F7000022280F83D2003685A689D6822F07006AE
:101F80000A6832435A60134B02689A4214D0B2F185
:101F9000804F11D0104B9A420ED0104B9A420BD06A
:101FA0000F4B9A4208D00F4B9A4205D00E4B9A42E3
:101FB00002D00E4B9A4204D1496825F080031943A0
:101FC000916080F83D40002180F83C10084670BDCB
:101FD000022070BD000001400004004000080040E5
:101FE000000C004000040140004001400018004087
:101FF00010B5040003D094F83D0010B107E00120B3
:1020000010BD002084F83C00204600F01FF802209C
:1020100084F83D00211D206802F0CAF9012084F8EF
:10202000460084F83E0084F83F0084F8400084F8BD
:10203000410084F8420084F8430084F8440084F8A6
:10204000450084F83D00002010BD000008B5006880
:102050000C49884208D10C48016841F00101016037
:10206000006800F001000BE00849884209D10648E9
:10207000001F016841F008010160006800F00800DD
:10208000009008BD0000014044380240000C0040B0
:1020900090F83D10012901D001207047022180F8FD
:1020A0003D100168CA6842F00102CA600068114927
:1020B000884214D0B0F1804F11D00F4988420ED021
:1020C0000E4988420BD00E49884208D00D498842FB
:1020D00005D00D49884202D00C49884204D181685C
:1020E00001F00701062903D0016841F001010160F8
:1020F000002070470000014000040040000800403C
:10210000000C004000040140004001400018004065
:1021100070B5044690F83C000025012817D0012630
:1021200084F83C60022084F83D002068826822F038
:10213000770222F47F4282600868502838D00DDC94
:1021400020284FD005DC90B3102811D14AE002209E
:1021500070BD302846D040280AD13BE060282FD0FF
:1021600070280DD0B0F5805F03D0B0F5005F12D0BD
:10217000012584F83D60002084F83C00284670BDAD
:10218000CB68D1E90121206802F08BF920688168D1
:1021900041F0770109E0CB68D1E90121206802F024
:1021A00080F92068816841F480418160E1E719E0AD
:1021B000CA684968206802F049FA5021206806E0A0
:1021C000CA684968206802F052FA6021206802F06B
:1021D00072F9CEE7CA684968206802F037FA4021F0
:1021E0002068F4E7226801461046F0E72DE9F04147
:1021F0000D46040003D094F83D0018B108E001201A
:10220000BDE8F081002084F83C00204600F040F852
:10221000022084F83D002068816844F2070291435F
:102220008160211D206802F0C3F8226890689169DE
:10223000166A2B68AF69034340F20330814341EAD9
:102240000721A868EF6908434FF6FC418843E96815
:1022500040EA0720014328692F6A000140EA07305D
:10226000084369686D6926F0AA0646EA0515294300
:1022700093602268906154F8460B0162012004F8D3
:102280001F09E0752076E0762077A0750020B7E77B
:10229000F0B587B0044614216846FEF75CF82B4978
:1022A00022680024294810390225294EB2F1804FB6
:1022B0001ED0284B9A4219D1026842F002020260F5
:1022C000006800F002000590086840F00200086015
:1022D0000868694600F00200059030200090CDE9C2
:1022E00001543046CDE90345FEF77EFC07B0F0BD52
:1022F000026842F001020260006800F001000590EF
:10230000086840F001000860086800F001000590CE
:10231000086840F0020008600868012700F0020029
:1023200005904FF400400090CDE90154CDE90347FA
:1023300069460948FEF758FC08200090CDE9015491
:10234000CDE9034769463046CEE7000040380240F9
:1023500000040240000400400000024070B590F804
:102360003E60044690F83F5090F8423090F8432089
:10237000022021B104290ED0012E1BD114E0012E20
:1023800018D1012B16D184F83E0084F842000122B6
:102390000021206820E0012D0CD1012A0AD184F807
:1023A0003F0084F8430014E0012D03D1012B01D13B
:1023B000012A01D0012070BD84F83E0084F83F005E
:1023C00084F8420084F8430001220021206802F0D2
:1023D0005BF801220421206802F056F820680168A9
:1023E00041F001010160002070BD000010B586B011
:1023F000044614216846FDF7AEFF2368184C0021FF
:1024000018480222A34212D1036843F0100303606C
:10241000006800F0100005904FF4D4400090CDE922
:1024200001210120CDE9031069460F4813E00F4C4C
:10243000A34212D1036843F008030360006800F070
:10244000080005904FF470400090CDE90121CDE9DE
:10245000031269460648FEF7C7FB06B010BD000030
:1024600000000140303802400010024000080040E7
:10247000000C024070B5044690F83C0000260D4662
:1024800001280FD0012084F83C006AB1042A1DD035
:10249000082A2FD00C2A3FD00126002084F83C00C7
:1024A000304670BD022070BD206802F00DF8206833
:1024B000816941F0080181612068816921F004018E
:1024C0008161206881692A69114311E0206802F066
:1024D0002BF82068816941F400618161206881697D
:1024E00021F480618161206881692A6941EA0221C1
:1024F0008161D2E7206802F04DF82068C16941F09F
:102500000801C1612068C16921F00401C16120682E
:10251000C1692A69114311E0206802F06FF8206850
:10252000C16941F40061C1612068C16921F4806121
:10253000C1612068C1692A6941EA0221C161ACE731
:1025400010B5040003D094F83D0010B107E001205D
:1025500010BD002084F83C00204600F01FF8022047
:1025600084F83D00211D206801F022FF012084F83D
:10257000460084F83E0084F83F0084F8400084F868
:10258000410084F8420084F8430084F8440084F851
:10259000450084F83D00002010BD000008B500682B
:1025A0000649884208D10648016841F004010160EB
:1025B000006800F00400009008BD00000008004022
:1025C0004038024010B50446022249B104290ED019
:1025D000082913D094F84100012816D0012010BD1D
:1025E00094F83E000128F9D184F83E200FE094F8D9
:1025F0003F000128F2D184F83F2008E094F8400021
:102600000128EBD184F8402001E084F84120012228
:10261000206801F039FF16492068164A884201D027
:10262000904203D1436C43F40043436420688842E2
:1026300013D0B0F1804F10D00F4988420DD00F4910
:1026400088420AD00E49884207D0904205D00D49F1
:10265000884202D00C49884204D1816801F0070108
:10266000062903D0016841F001010160002010BD7E
:102670000000014000040140000400400008004048
:10268000000C0040004001400018004070477047B7
:10269000F8B5016804460868CA684B6910F00F0F66
:1026A0004FF0000559D003F0010602F4907737434C
:1026B00065D0C10705D0D10503D5616C41F001019A
:1026C0006164410705D5D90703D0616C41F002016F
:1026D0006164810705D5D90703D0616C41F004011D
:1026E0006164010707D502F02001314303D0616C1A
:1026F00041F008016164616C00293AD0800604D57C
:10270000900602D5204602F078F820684069616C96
:10271000C0F38010090700D460B3204602F038F8F7
:1027200020684069400621D52068143050E8001F19
:1027300021F0400140E80012002AF5D1E06BA8B179
:102740006E490165E06BFEF7B8F8002811D0E06B28
:10275000016D01B0BDE8F040084783060FD5930630
:102760000DD52046BDE8F84002F047B82046FFF7F7
:102770008EFFF8BD2046FFF78AFF6564F8BD266B23
:102780002023012E7DD1C6067BD5D60679D50868D3
:102790004868009048694FF00206400641D5E16B59
:1027A000086840680004000CE8D0A28D8242E5D998
:1027B000E085C869B0F5807F2DD020680C3050E8E6
:1027C000001F21F4807140E80012002AF5D1206832
:1027D000143050E8001F21F0010140E80012002AE7
:1027E000F5D12068143050E8001F21F0400140E886
:1027F0000012002AF5D184F84230256320680C309D
:1028000050E8001F21F0100140E80012002AF5D125
:10281000E06BFEF709F86663A08DE18D401A81B286
:102820002AE0A08DE18D401A81B2E08D0028A5D06C
:102830000029A3D022680C3252E8000F20F49070D7
:1028400042E80007002FF5D12068143050E8002F2F
:1028500022F0010240E80027002FF5D184F8423031
:10286000256320680C3050E8002F22F0100240E869
:102870000023002BF5D166632046FFF707FFF8BD64
:10288000FFE705062BD5150629D594F84100212828
:10289000F5D1A068B0F5805F01D12069B0B1206AA0
:1028A000411C2162216800784860E08C401E0004D1
:1028B000000CE084E3D12068C16821F08001C16090
:1028C0002068C16841F04001C160D8E7206A0088F3
:1028D000C0F308004860206A801C2062E5E74006DB
:1028E000CDD55006CBD5CA68204622F04002CA603A
:1028F00084F8413000F059FBC1E70000934600081E
:1029000070B5040004D094F84100002510B106E031
:10291000012070BD84F84050204600F023F82420A8
:1029200084F841002068C16821F40051C16020464C
:1029300001F0C4FF2068016921F490410161206821
:10294000416921F02A0141612068C16841F40051C8
:10295000C1606564202084F8410084F8420065630A
:10296000002070BD2DE9F04387B00646142168466B
:10297000FDF7F1FC65486449D6F800C0634A143895
:10298000022303250727DFF8889100248C451DD1F9
:10299000116841F010011160116801F010010591FA
:1029A000016841F0010101600068694600F0010022
:1029B000059068028DE8B9004846FEF715F9002237
:1029C00011462520FEF740FC252052E04F49DFF854
:1029D0004481091FC44551D10A6842F400320A609B
:1029E000096801F400310591016841F001010160BD
:1029F0000068694600F0010005900C208DE8B900E0
:102A00004846FEF7F1F8454D43484FF0006728600F
:102A1000C5E901744FF48068C5E903486C61AC6195
:102A2000EC612C6228466C62FEF72AF808B1FDF7CB
:102A3000F8FDF563AE63394D374860351830E5E889
:102A400002074020A5E81101344845F814496030D8
:102A5000AC61EC612C626C62FEF712F808B1FDF714
:102A6000E0FDB563002211462620AE63FEF7ECFBC5
:102A70002620FEF7DBFB07B0BDE8F083284EB44507
:102A80001ED10A6842F480220A60096801F480219C
:102A90000591016841F0080101600068694600F095
:102AA000080005904FF440708DE8B9001D48FEF70E
:102AB0009BF8002211462720FEF7C6FB2720D8E707
:102AC00019498C45D7D1116841F020011160116876
:102AD00001F020010591016841F0040101600068E6
:102AE000694600F004000590C0208DE839000820F8
:102AF00004900E48FEF778F8002211464720FEF7B2
:102B0000A3FB4720B5E70000001001404438024015
:102B1000000002400044004088600240840600201B
:102B200000480040000C0240001401400008024030
:102B300090F84230202B01D00220704721B11AB109
:102B40000023036301F040BF012070472DE9F047E7
:102B50000746F84802260024DFF8DC834FF0030A1A
:102B60002DED028B4FF0010987427DD198ED060AC9
:102B7000D8ED080A4046B4EE600AF1EE10FA0AD128
:102B800090ED070AD0ED090AB4EE600AF1EE10FAF2
:102B900001D1C0F84090057985714571D8F84000A1
:102BA000002873D1E44898F80020DFF890C38189A9
:102BB00043464AB18089401C80B2012A0BD0022AC8
:102BC00010D0032A5AD056E01A2D54D10CF80150D7
:102BD00083F800904FE02B2D4DD10CF801509881D7
:102BE0001E7048E00CF801509881604410F8011CF8
:102BF0003C2940D110F8091D00EE101AF8EE400AE9
:102C0000C3ED060A417800EE101AB8EE400A83EDD3
:102C1000070A817801EE101AB8EE411A83ED0A1AFC
:102C2000C17801EE101AB8EE411A83ED0B1A017942
:102C300001EE101AB8EE411A83ED0C1A417901EE3B
:102C4000101AB8EE411A83ED0D1A817901EE101AAF
:102C5000B8EE411A83ED0E1AC07901EE100AB8EEF3
:102C6000411A83ED0F1A00E0A3E0C3ED080A83EDDB
:102C7000090A83F800A09889C72807D9A8F80C404A
:102C8000C821AE48FDF767FB88F80040AA49AB4869
:102C900098F80130CA89C830B0EE008A53B1C989AA
:102CA000C446491C89B2012B0AD0022B10D0032B39
:102CB0002FD02AE02B2D28D1855488F8019024E0CC
:102CC0002C2D22D18554ACF80E1088F801601CE040
:102CD00085540844ACF80E1010F8011C252914D1B5
:102CE00010F8031D00EE101AB8EE400A20EE080A94
:102CF0008CED130A407800EE100AB8EE400A20EE80
:102D0000080A8CED140A88F801A0B8F80E10C7293B
:102D100008D98A48A8F80E40C821C830FDF71BFB27
:102D200088F80140844998F8023085480A8A4BB1F6
:102D3000098A491C89B2012B0AD0022B10D0032B1F
:102D40002FD02AE03A2D28D1855488F8029024E02B
:102D50004C2D22D18554A8F8101088F802601CE090
:102D600085540844A8F8101010F8011C5D2914D1EE
:102D700010F8031D00EE101AB8EE400A20EE080A03
:102D800088ED150A407800EE100AB8EE400A20EEF1
:102D9000080A88ED160A88F802A0B8F81000C728BB
:102DA00007D9A8F81040C8216548FDF7D4FA88F87B
:102DB00002406448874237D15F4898F808C04546CA
:102DC000C379408A411C8AB25D49C831BCF1000F09
:102DD00003D0BCF1010F0ED003E00B546A8285F8DA
:102DE0000890688AC72815D95548C821C830FDF70A
:102DF000B2FA6C8218E00B546A821AB911F8010C0D
:102E0000122811D14E486C82C821C830FDF7A3FAB0
:102E10002E7202E0287A022806D149486C82C82125
:102E2000C830FDF798FA2C724748874234D142499E
:102E300098F80AC0454A487A8B8A4546BCF1000F8B
:102E40000CD0898A491C89B2BCF1010F0CD0BCF1AD
:102E5000020F0FD0BCF1030F18D014E02C2812D1B0
:102E6000D05485F80A900EE012280CD1D054A982D3
:102E7000AE7208E0D0545018A98210F8010C5B28FB
:102E800001D185F80AA0A88AC72805D9AC82C82133
:102E90002E48FDF760FAAC722D4887426FD198F842
:102EA00003004546411C88F803104FF48071FF2849
:102EB00006D3264888F80340C830FDF74CFA5EE098
:102EC000244A286EEB7A1354401C28660A2B52D1F0
:102ED000EE659FED210AF2EE040A85ED1F0A401E01
:102EE0000AE0935D303B01EE103A761CB8EEC11A51
:102EF00000EE201AB0EE410A8642F2DB85ED1F0A91
:102F0000C5E9176450783A2835D1107844280FD095
:102F100006DC412828D0422828D043282BD127E09E
:102F2000492803D0502826D10C4822E00C4820E044
:102F30000C481EE06405002010000020240B002037
:102F4000B40C0020AC050020F4050020440E002045
:102F50003C0600200C10002000000000980000201B
:102F60009C000020A0000020094802E0094800E081
:102F7000094880ED000A0948FDF7EDF9EC700122DF
:102F8000BDEC028B0649BDE8F0470648FFF7D0BD0F
:102F9000A4000020A8000020AC0000200C0F00209E
:102FA000140000206405002070477047FEE72DE9FB
:102FB000F04107461C4615460E462A2000F044F90B
:102FC000BF1CB8B200F036F9AD1CA8B200F032F95F
:102FD0002B2000F039F9761CB0B200F02BF9641CFC
:102FE000A0B200F027F9BDE8F0412C2000F02CB988
:102FF0002DE9F04780461F46581E83B21646501EE4
:1030000082B20C464046DDF82090FFF7D0FF0AE080
:10301000454604E0484600F00DF96D1CADB2B542DE
:10302000F8D3641CA4B2BC42F2D3BDE8F087000020
:1030300010B57E4C002210212046FDF7CDFE642005
:10304000FDF7C0FD012210212046FDF7C5FE6420DA
:10305000FDF7B8FD012280217548FDF7BDFE642013
:10306000FDF7B0FD112000F0EFF87820FDF7AAFD84
:10307000B12000F0E9F8052000F0FAF83C2000F05B
:10308000F7F83C2000F0F4F8B22000F0DDF805205D
:1030900000F0EEF83C2000F0EBF83C2000F0E8F8FF
:1030A000B32000F0D1F8052000F0E2F83C2000F059
:1030B000DFF83C2000F0DCF8052000F0D9F83C20D7
:1030C00000F0D6F83C2000F0D3F8B42000F0BCF8B3
:1030D000032000F0CDF8C02000F0B6F8282000F062
:1030E000C7F8082000F0C4F8042000F0C1F8C1209F
:1030F00000F0AAF8C02000F0BBF8C22000F0A4F84D
:103100000D2000F0B5F8002000F0B2F8C32000F068
:103110009BF88D2000F0ACF82A2000F0A9F8C4201C
:1031200000F092F88D2000F0A3F8EE2000F0A0F857
:10313000C52000F089F81A2000F09AF8362000F037
:1031400083F8C02000F094F8E02000F07DF804201F
:1031500000F08EF8222000F08BF8072000F088F8AD
:103160000A2000F085F82E2000F082F8302000F0D0
:103170007FF8252000F07CF82A2000F079F828203C
:1031800000F076F8262000F073F82E2000F070F89A
:103190003A2000F06DF8002000F06AF8012000F0FD
:1031A00067F8032000F064F8132000F061F8E120D4
:1031B00000F04AF8042000F05BF8162000F058F800
:1031C000062000F055F80D2000F052F82D2000F0F8
:1031D0004FF8262000F04CF8232000F049F8272073
:1031E00000F046F8272000F043F8252000F040F8D2
:1031F0002D2000F03DF83B2000F03AF8002000F0D0
:1032000037F8012000F034F8042000F031F81320E2
:1032100000F02EF83A2000F017F8052000F028F80A
:10322000BDE81040292000F00FB80000000802405F
:103230000010024010B50446000A00F019F8E0B290
:10324000BDE8104000F014B870B5084C05460022E7
:1032500020212046FDF7C0FD284600F009F8204651
:10326000BDE8704001222021FDF7B6BD00080240F4
:1032700031B5094C002210212046FDF7ADFD4FF479
:103280007A73012269460548FEF774FD0122102178
:103290002046FDF7A1FD38BD000002404C03002090
:1032A0007FB50024154800940194029412490394B8
:1032B00001604FF48031C0E901140461047680F8A4
:1032C00020400F49C0E90A140125C561C46080F897
:1032D00030404561FDF74EFA08B1FDF7A2F9CDE99E
:1032E0000045694605480294FDF79EF9002801D083
:1032F000FDF797F97FBD0000002001401801002074
:103300000100000F154808B5016841F40011016083
:103310000068002200F40010009011460B20FDF719
:1033200093FF0B20FDF782FF002211461020FDF7CE
:103330008BFF1020FDF77AFF002211461120FDF7C8
:1033400083FF1120FDF772FF002211462F20FDF7A9
:103350007BFFBDE808402F20FDF768BF30380240F2
:103360002DE9F04F87B014216846FCF7F4FF52486E
:103370000024016841F010010160016801F01001B2
:103380000591016841F004010160016801F0040148
:103390000591016841F080010160016801F0800140
:1033A0000591016841F001010160016801F001012E
:1033B0000591016841F002010160016801F002011C
:1033C0000591016841F0080101600068DFF8EC80B8
:1033D00000F008004FF400550590002229464046B1
:1033E000FDF7FAFCDFF8D890012210214846FDF7DE
:1033F000F3FC012230214046FDF7EEFCDFF8C4A0CB
:10340000002280215046FDF7E7FCDFF8BCB04FF406
:103410008657002239465846FDF7DEFC002270210F
:103420002A48FDF7D9FC7C20CDE9000469465046C6
:103430000294FDF7D9FB00950125CDE901546946B9
:1034400040460394FDF7D0FB1020CDE9000502268D
:10345000CDE9025669464846FDF7C6FB3020CDE966
:103460000005CDE9025669464046FDF7BDFB8020C8
:103470000090CDE90154694650460394FDF7B4FB32
:103480000097CDE90154694658460394FDF7ACFB1B
:103490000820CDE9000469460C480294FDF7A4FB1E
:1034A00070200090CDE90154694608480394FDF767
:1034B0009BFB07B0BDE8F08F3038024000080240A7
:1034C000000002400010024000040240000C0240D4
:1034D0000D4810B50B4901600C49416000214FF4C3
:1034E00080428160C0E9031241618161C161016272
:1034F000FDF7F0FC002803D0BDE81040FDF791B8BF
:1035000010BD00000054004060010020A0860100B2
:103510000D4810B50B4901600C49416000214FF482
:1035200080428160C0E9031241618161C161016231
:10353000FDF7D0FC002803D0BDE81040FDF771B8BE
:1035400010BD000000580040B4010020A08601001A
:1035500010B50E480C490022C0E90012CC1482605C
:10356000C0E9032442618261FEF79AFA08B1FDF7CF
:1035700058F821460548FEF73BF9002803D0BDE87E
:103580001040FDF74EB810BD002C0140C8020020CD
:10359000104810B50E4901604FF48271416000215E
:1035A0008160C1604FF400720161C0E90512082218
:1035B000C0E90721416281620A21C162FEF714FB62
:1035C000002803D0BDE81040FDF72BB810BD000067
:1035D000003001404C030020104810B50E49016036
:1035E0004FF48271416000218160C1604FF400722C
:1035F0000161C0E905120822C0E907214162816228
:103600000A21C162FEF7F0FA002803D0BDE810409D
:10361000FDF707B810BD000000380040A4030020EB
:1036200010B596B000240F94109411941294139432
:103630001C2168461494FCF78EFE202107A8FCF795
:103640008AFE344832490160A721C0E9011442F2E0
:103650000F71C0E9031444618461FEF7C9FC08B12D
:10366000FCF7DFFF4FF480500F900FA92948FEF7B9
:103670004FFD08B1FCF7D5FF2648FEF761FF08B102
:10368000FCF7CFFF139413A922481494FEF768FCAB
:1036900008B1FCF7C6FF6020CDE900040294039452
:1036A00004940594002269461A480694FEF7E2FE47
:1036B00008B1FCF7B6FF042269461648FEF7DAFEA9
:1036C00008B1FCF7AEFF082269461248FEF7D2FEA9
:1036D00008B1FCF7A6FF0C2269460E48FEF7CAFEA9
:1036E00008B1FCF79EFF0794089409944FF400502A
:1036F0000A94CDE90B4007A906480E94FEF705FC95
:1037000008B1FCF78EFF0348FEF770FE16B010BD3F
:1037100000000140FC03002010B58CB02421684655
:10372000FCF719FE0024154809944FF080410A94D3
:10373000C0E900144FF6FF71C0E9024104618461E1
:103740000120CDE90004CDE902040494CDE905404F
:103750000794694609480894FEF748FD08B1FCF74C
:1037600060FF099409A905480A94FEF7F9FB0028AF
:1037700001D0FCF756FF0CB010BD0000440400203F
:1037800010B58CB024216846FCF7E5FD00241548EF
:10379000099413490A94C0E900144FF6FF71C0E977
:1037A0000241046184610120CDE90004CDE90204F5
:1037B0000494CDE90540079469460A480894FEF749
:1037C00015FD08B1FCF72DFF099409A905480A94D5
:1037D000FEF7C6FB002801D0FCF723FF0CB010BD9C
:1037E000000400408C04002010B58AB00024079427
:1037F0001C2168460894FCF7AEFD22482049016070
:103800005321C0E9011442F20F71C0E9031484612D
:10381000FEF796FE08B1FCF704FF079407A91948C4
:103820000894FEF79DFB08B1FCF7FBFE6020CDE994
:10383000000402940022694612480494FEF71AFE1E
:1038400008B1FCF7EEFE042269460E48FEF712FEB0
:1038500008B1FCF7E6FE082269460A48FEF70AFEB0
:1038600008B1FCF7DEFE0C2269460648FEF702FEB0
:1038700008B1FCF7D6FE0348FEF7B8FD0AB010BD4C
:1038800000080040D404002010B586B0002417487A
:1038900000940194029403940494134905940160E4
:1038A0005321C0E9011442F20F71C0E9031484618D
:1038B000FEF79EFB08B1FCF7B4FE4FF48050009079
:1038C00069460A48FEF724FC08B1FCF7AAFE0494F6
:1038D00004A906480594FEF743FB002801D0FCF735
:1038E000A0FE06B010BD0000000C00401C0500202A
:1038F0000C4810B50A4901604FF4E13141600021E4
:1039000081600C22C160C0E904128161C161FEF7CF
:10391000F7FF002803D0BDE81040FCF782BE10BDC1
:1039200000100140640500200C4810B50A490160F0
:103930004FF4E1314160002181600C22C160C0E997
:1039400004128161C161FEF7DBFF002803D0BDE8EE
:103950001040FCF766BE10BD00440040AC050020DE
:103960000C4810B50A4901604FF4E1314160002173
:1039700081600C22C160C0E904128161C161FEF75F
:10398000BFFF002803D0BDE81040FCF74ABE10BDC1
:1039900000480040F40500200C4810B50A490160B9
:1039A0004FF4E1314160002181600C22C160C0E927
:1039B00004128161C161FEF7A3FF002803D0BDE8B6
:1039C0001040FCF72EBE10BD001401403C06002044
:1039D0000B4810B54FF0A041016008214171012151
:1039E000C17100218171022242728172FDF700FAD9
:1039F000002803D0BDE81040FCF713BE10BD000046
:103A000044070020FEE7FEE770470A6842624A6802
:103A10008262D1E902231A43D1E904310B43C16A1E
:103A20001A4321F0F7011143C1620020704700687A
:103A300000F00300704708444069704770B50DF10D
:103A4000100C11439CE8700023431943294342683A
:103A5000314347F6FF639A430A434260002070BD3A
:103A60000321016000207047D0F8800070470A6889
:103A70008260D1E901231A43D1E903310B43C168C4
:103A80001A436FF30B011143C1600020704710B55A
:103A900085B004463720CDE9001040200290002078
:103AA00003904FF48060049069462046FFF7DFFFE3
:103AB00041F288323721204600F004F905B010BDEC
:103AC00010B504460A4885B001432920CDE900100D
:103AD00040200290002003904FF4806004906946DB
:103AE0002046FFF7C4FF204600F0A4F905B010BD42
:103AF0000000108010B585B004461020CDE90010FC
:103B000040200290002003904FF4806004906946AA
:103B10002046FFF7ACFF41F288321021204600F02A
:103B2000D1F805B010BD10B585B004460620CDE92A
:103B3000001040200290002003904FF48060049019
:103B400069462046FFF793FF41F28832062120465E
:103B500000F0B8F805B010BD30B585B000240546BA
:103B6000009401944FF480600294CDE903406946CB
:103B70002846FFF77CFF0B484FF4FA510068B0FB72
:103B8000F1F041F288314843401E03D24FF000402B
:103B900005B030BD696B0906F6D5C520A86320467F
:103BA000F6E700000C00002010B585B004464FF485
:103BB000D5700090082001904020029000200390D2
:103BC0004FF48060049069462046FFF750FF20467E
:103BD00000F096F905B010BD10B585B00446072079
:103BE000CDE9002040200290002003904FF4806037
:103BF000049069462046FFF73AFF41F288320721D8
:103C0000204600F05FF805B010BD10B585B0044641
:103C100000210220CDE90010C020CDE902014FF4BF
:103C20008060049069462046FFF721FF204600F09F
:103C3000D9F805B010BD10B585B004460920CDE90E
:103C40000010C0200290002003904FF48060049088
:103C500069462046FFF70BFF204600F0C3F805B089
:103C600010BD10B585B0044600213320CDE9001009
:103C70004020CDE902010001049069462046FFF78B
:103C8000F6FE41F288323321204600F01BF805B0E1
:103C900010BD30B585B00C46054600210320CDE9A6
:103CA00000104020CDE90201000104906946284639
:103CB000FFF7DDFE22460321284600F0DDF805B0BF
:103CC00030BD0000454B10B51B684FF4FA54B3FBF0
:103CD000F4F353435B1E02D24FF0004010BD426B21
:103CE00012F0450FF6D01205F4D4426B520703D5FB
:103CF00004218163084610BD426BD20702D0012126
:103D0000816305E0C52282630269D2B28A4201D092
:103D1000012010BD0021FFF78EFE3149084201D17C
:103D2000002010BD002802DA4FF0007010BD4100E5
:103D300001D5402010BD810001D5802010BDC100FB
:103D400002D54FF4807010BD010102D54FF4007010
:103D500010BD410102D54FF4806010BDC10102D5F4
:103D60004FF4006010BD010202D54FF4805010BD29
:103D7000410202D54FF4005010BD810202D54FF42C
:103D8000804010BDC10202D54FF4004010BD410378
:103D900002D54FF4003010BD810302D54FF48020CE
:103DA00010BDC10302D54FF4002010BD010402D59F
:103DB0004FF4801010BD410402D54FF4001010BD27
:103DC000810402D54FF4800010BD000702D54FF4E6
:103DD000000010BD4FF4803010BD00000C0000202A
:103DE00008E0FFFD12494FF4FA520968B1FBF2F105
:103DF00041F288325143491E02D24FF000407047D1
:103E0000426B12F0450FF6D01205F4D4416B49070E
:103E100003D50421816308467047416BC90703D06D
:103E20000121816308467047C521816300207047E6
:103E30000C0000200F494FF4FA520968B1FBF2F16F
:103E400041F288325143491E02D24FF00040704780
:103E5000426B12F0450FF6D01205F4D4416B4907BE
:103E600003D50421816308467047C5218163002082
:103E7000704700000C00002030B5204B4FF4FA547E
:103E80001B68B3FBF4F341F2883463435B1E02D238
:103E90004FF0004030BD446B14F0450FF6D02405C0
:103EA000F4D4436B5B0703D504218163084630BD1E
:103EB000436BDB0702D00121816303E00369DBB2BE
:103EC0008B4201D0012030BDC52181630021FFF765
:103ED000B2FD10F4604F04D0410406D54FF40050F9
:103EE00030BD000C1080002030BD000402D54FF41E
:103EF000805030BD4FF4803030BD00000C000020F9
:103F000014494FF4FA520968B1FBF2F141F28832D8
:103F10005143491E02D24FF000407047426B12F0ED
:103F2000450FF6D01205F4D4416B490703D504219F
:103F3000816308467047416BC90703D00121816343
:103F400008467047416B490601D540218163002036
:103F5000704700000C0000202DE9F04788B00D46A6
:103F60000446FCF73FFF002682460096019637463E
:103F700008212068FFF7BEFD00282CD1B4F85000BE
:103F800001042068FFF783FD002824D1401E4FF074
:103F90000808CDE9020830204FF00209CDE90409F4
:103FA0000120CDE9067002A92068FFF72EFD2068E8
:103FB000FFF757FE00280ED16F462068416B11F0C5
:103FC0002A0F0BD0416B090702D4416B89051AD522
:103FD000C0F83880082008B0BDE8F087416B89023E
:103FE00005D5FFF741FD47F82600761C02E0416B3E
:103FF0008904E7D5FCF7F6FEA0EB0A00401CDCD1F3
:104000004FF00040E7E7416B890703D5C0F83890CF
:104010000220E0E7416B890603D520218163084631
:10402000D9E740F23A518163019800BA28600098BC
:1040300000BA68600020CEE710B590B004460120B9
:10404000ADF838002068FFF7F2FC002854D0606C0F
:10405000032842D02068FFF7D8FD00284AD100216C
:104060002068FFF7E8FC606704212068FFF7E3FCA5
:10407000A06708212068FFF7DEFCE0670C212068BC
:10408000FFF7D9FCC4F88000606C032825D00EA986
:104090002068FFF7FEFD00282CD1606C03281CD09F
:1040A000BDF83800206501042068FFF7C4FD002832
:1040B00020D100212068FFF7BEFC60660421206843
:1040C000FFF7B9FCA06608212068FFF7B4FCE066A2
:1040D0000C212068FFF7AFFC206704212068FFF760
:1040E000AAFC000DE06403A92046FDF70DFC30B1E9
:1040F0004FF0805010B010BD4FF08060FAE7B4F878
:104100005000002302042068FFF766FD0028F1D16B
:1041100004F1100007C88DE8070094E80F00FFF7CE
:104120008DFC0020E6E700002DE9F84F002604464C
:1041300000963546B0460068FFF70EFD002827D1EF
:104140002068FFF731FD4FF0805B4FF001094FF61B
:10415000FF7748B1A6642068FFF7FEFC002817D15E
:10416000A06C012802D020E0C4F84890002120680B
:10417000FFF78DFC58B918E000212068FFF787FC95
:10418000002805D151462068FFF79AFC10B1584627
:10419000BDE8F88F00212068FFF74DFC05464FEA87
:1041A000D0780098401C009002E0DFF82CA0009826
:1041B000B84202D2B8F1000FDED00098B84202D364
:1041C0004FF08070E4E7680002D5C4F8449000E046
:1041D00066640020DCE70000000010C1F8B5154659
:1041E0000E460B46009204460122022100F02CF8F4
:1041F000A0B9134813490068B0FBF1F04FF47A718D
:10420000484300906068B0F5827F0DD133460022AC
:1042100080212046009500F017F870B1606D40F0E5
:10422000200060650320F8BD009830B1401E00906A
:1042300020688068C0430006F6D50020F8BD000065
:104240000C00002000366E012DE9F8431E46914611
:1042500088460446089DFCF7C5FD401B351AFCF74F
:10426000C1FD074625480068C0F3CB30684338E0FD
:10427000701C37D0FCF7B6FDC01BA84203D215B1A5
:10428000009860B32CE02068416821F0E0014160B3
:104290006068B0F5827F0BD1A068B0F5004F02D006
:1042A000B0F5806F04D12068016821F04001016001
:1042B000A06AB0F5005F09D12068016821F40051BF
:1042C00001602068016841F400510160012084F818
:1042D0005100002084F850000320BDE8F883002539
:1042E000401E00902068816838EA010004D0002157
:1042F0004945BDD10020F0E70121F9E70C0000207D
:104300007047FCF739BF000030B593B030216846E4
:10431000FCF721F814210CA8FCF71DF81E48002515
:10432000016841F080510160006800F080501190F8
:104330001A48016841F4804101600068022400F4D9
:104340008040119001200090000401908001CDE98F
:104350000640192008904FF4A870CDE90904072001
:104360000B906846FDF78EF808B172B6FEE70CA90F
:104370000F2081E831004FF4A0500F904FF480508F
:10438000109005210CA8FCF791FF002801D072B60F
:10439000FEE713B030BD000040380240007000401E
:1043A0000248016841F470010160704788ED00E047
:1043B000F0B50268294C2A4D2A4E2B4F2B4B4FF05B
:1043C000804CA04209D0604507D0A84205D0B04239
:1043D00003D0B84201D0984204D122F0700E4A684E
:1043E00042EA0E02A0421BD0604519D0A84217D065
:1043F000B04215D0B84213D0984211D01C4DA842FB
:104400000ED01C4DA8420BD01B4DA84208D01B4D0E
:10441000A84205D01A4DA84202D01A4DA84203D195
:1044200022F44075CA682A434D6922F080022A436B
:1044300002608A68C2620A688262A04201D0984221
:1044400001D109690163012141610169C90703D0F3
:10445000016921F001010161F0BD0000000001408F
:104460000004004000080040000C0040000401402F
:104470000040014000440140004801400018004055
:10448000001C00400020004010B501F01F03012176
:10449000046A99408C430462016A9A4011430162A4
:1044A00010BD10B5846842EA032224F47F440A4315
:1044B0002243826010BD826822F070020A4342F0FB
:1044C0000701816070470000F0B5036A026A22F0BC
:1044D0000102026242688469124E24F073050C687E
:1044E0002C4323F002058B682B430D4DA84201D0CD
:1044F000B04205D123F00807CB683B4323F0040307
:10450000A84201D0B04205D14D6922F44072154352
:104510008A692A4342608461496841630362F0BD4D
:104520000000014000040140F0B5026A036A23F074
:1045300010030362436884690D6824F4E64444EA86
:1045400005248D6822F0200242EA05120F4D104E1C
:10455000A84201D0B04206D1CF6822F0800242EAE0
:10456000071222F04002A84201D0B04207D14D69A3
:1045700023F4406343EA85038D6943EA850343607E
:104580008461496881630262F0BD0000000001405F
:1045900000040140F0B5026A036A23F480730362E9
:1045A0004368C46922F4007224F073050C68124E4B
:1045B0002C438D6842EA05220E4DA84201D0B0423C
:1045C00006D1CF6822F4006242EA072222F4806218
:1045D000A84201D0B04207D14D6923F4405343EAC9
:1045E00005138D6943EA05134360C4614968C163DB
:1045F0000262F0BD000001400004014030B5046AD1
:10460000026A22F4805202624268C3690D6823F490
:10461000E64343EA05238D6824F4005444EA053454
:10462000084DA84202D0084DA84204D14D6922F499
:10463000804242EA85124260C361496801640462B3
:1046400030BD0000000001400004014010B5036AC5
:10465000046A24F001040462846924F0F00444EA4A
:10466000021423F00A020A438461026210BD10B5ED
:10467000036A046A24F010040462846923F0A0032E
:1046800024F4704444EA023243EA01118261016277
:1046900010BD10B5806B0021C185C184FDF7F7FF07
:1046A00010BD70B5846B2068406994F84110C0F368
:1046B000C0100025212904D118B1E584204600F05E
:1046C0008EF82068406994F84210C0F380102229C7
:1046D00004D118B1E585204600F05AF8606C40F02E
:1046E000100060642046FDF7D2FF70BD10B5014692
:1046F000806B096809684FF00002C9052ED4C28595
:1047000001680C3151E8003F23F4807341E8003424
:10471000002CF5D10168143151E8003F23F001036A
:1047200041E80034002CF5D10168143151E8003F14
:1047300023F0400341E80034002CF5D1202180F81B
:104740004210016B012909D101680C3151E8003F89
:1047500023F0100341E80034002CF5D14263016BD3
:10476000012902D0FEF7F2F910BD818DFDF78EFF11
:1047700010BD10B5806B01214163016B012902D08E
:10478000FEF712FC10BD818D4908FDF77FFF10BDBB
:1047900001680C3151E8002F22F4907241E80023A7
:1047A000002BF5D10168143151E8002F22F00102ED
:1047B00041E80023002BF5D1016B012909D10168E3
:1047C0000C3151E8002F22F0100241E80023002BA9
:1047D000F5D1202180F84210002101637047016863
:1047E0000C3151E8002F22F0C00241E80023002BD9
:1047F000F5D1202180F84110704708B590F842109B
:10480000222901D0022008BD82684FF480539A42C9
:1048100001D1016921B1816A9A421BD04AB10AE0F3
:104820000268816A5268C2F308020A80816A891CA0
:1048300008E0026972B10268526802F07F020A70F1
:10484000816A491C8162C18D491E0904090CC18518
:1048500003D01BE002685268F1E70168CA6822F0E1
:104860002002CA600168CA6822F48072CA600168C6
:104870004A6922F001024A61202180F84210002199
:104880004163026B012A03D0FEF760F9002008BDE6
:10489000016301680C3151E8002F22F0100241E859
:1048A0000023002BF5D101680A68D20602D50A68F8
:1048B00049680091818DFDF7E9FEE7E770B5044690
:1048C00000680169E26821F44051114301612169E6
:1048D000A068E26908436169114308432168CA6816
:1048E00049F20C639A430243CA6020684169A26995
:1048F00021F440711143416131492068884202D05E
:104900003049884202D1FCF77BFD01E0FCF768FDED
:10491000E2690023192164253226B2F5004F62684E
:1049200028D0A0FB0101930F9200FBF79DFC0146EC
:10493000B0FBF5F06FF01802504301EB800006EB7E
:104940000010B0FBF5F000F0F002B1FBF5F002EB67
:104950000012B1FBF5F06FF01803584301EB800033
:1049600006EB0010B0FBF5F000F00F0021681044DA
:10497000886070BDA0FB010192185B41FBF774FCDD
:104980000146B0FBF5F00201B1FBF5F06FF0180342
:10499000584301EB800006EBC000B0FBF5F000F0DF
:1049A000F80002EB4002B1FBF5F0584301EB800048
:1049B00006EBC000B0FBF5F000F00700D6E7000002
:1049C000001001400014014038B581620446828520
:1049D000002013466064222284F84220E56B1B4AC3
:1049E000EA63E56B1A4A2A64E56B1A4AEA64E26BE9
:1049F00010650A462168E06B091DFCF7ABF82068DA
:104A0000016840680090206948B120680C3050E887
:104A1000001F41F4807140E80012002AF5D120689F
:104A2000143050E8001F41F0010140E80012002A54
:104A3000F5D12068143050E8001F41F0400140E8F3
:104A40000012002AF5D1002038BD0000ED46000814
:104A500073470008A34600080148FDF719BE00008F
:104A6000640500200148FDF713BE0000AC050020DE
:104A70000148FDF70DBE0000F40500200148FDF7D8
:104A800007BE00003C06002070B50D460446C2F388
:104A9000072104981E4601291BD0E06840F0400021
:104AA000E060204600F032F8C6F307210029A16B30
:104AB00026D021F48031A163C5F30741012907D134
:104AC000A16841F00601A160A16841F02001A16048
:104AD00070BDA16B21F48031A163E1680A4A1140E5
:104AE000E160E16821F44011E160C0B2012803D126
:104AF000E06840F48010E060204600F007F8DBE753
:104B000041F48031D7E70000BFFFBDFF08B50021A9
:104B10004FF070620091009B5B1C009393420CD895
:104B20000369002BF7DA0091016941F0010101618D
:104B30000099491C0091914201D9032008BD0169E7
:104B4000C907F5D1002008BD816821F0010181600D
:104B50000020704708B500214FF070620091009B63
:104B60005B1C009393420AD80369002BF7DA00918B
:104B7000102101610099491C0091914201D9032043
:104B800008BD0169C906F5D4002008BD18B500228A
:104B90004FF070630092009C641C00949C420CD8FF
:104BA0000469002CF7DA0092202242EA81110161A7
:104BB0000099491C0091994201D9032018BD01694F
:104BC0008906F5D4002018BDF0B500250E46044630
:104BD0002F46C0F8005E806B40F40010A063A06B0D
:104BE00020F40020A063A06B20F48020A063E06884
:104BF000400602D4300E012804D0D4F8000420F07E
:104C0000040103E0D4F8000440F004012046C4F895
:104C100000141021FFF7BAFF00B101252046FFF76D
:104C200099FF00B101250020411EC6F3072206E0CE
:104C300004EB4013C3F80815C3F80C75401C8242FE
:104C4000F6D8A76161610E48844205D140156062C3
:104C50000C48A0620C4804E0802060620B48A0620F
:104C60000B48C4F80001C6F3074018B9A06940F02A
:104C70001000A061A06907490843A0612846F0BD63
:104C800000000440000200010003E000800060001A
:104C9000E0004000080020A370B50446C06800256D
:104CA00020F0C040E060012901D079B120E0E06847
:104CB00040F00050E0600A20FBF784FF60690A358D
:104CC00010F0010F10D1C82DF5D30DE0E06840F0D1
:104CD0008040E0600A20FBF775FF60690A3510F03C
:104CE000010F01D0C82DF5D3C82D01D0002070BD13
:104CF000012070BDFEE70907090E002804DB00F162
:104D0000E02080F80014704700F00F0000F1E02070
:104D100080F8141D7047000008B5FCF735FAFFF75E
:104D2000F3FAFEF71DFBFEF7EDFAFEF7D1FBFEF7F7
:104D3000EFFBFEF72DFCFEF7DBFDFEF7F5FDFEF7C2
:104D40006FFCFEF7E9FCFEF71BFDFEF74DFDFEF7DD
:104D50009BFDFEF705FEFEF73BFEFEF7F9FBFEF7B7
:104D60003BFCFEF79DFAFEF717FE3C212648FDF7B7
:104D7000F5FA3C212548FDF7F1FA234943F698203E
:104D80000968486221490968486200212048FDF706
:104D900019FC04211E48FDF715FC08211C48FDF7ED
:104DA00011FC0C211A48FDF70DFCFEF741F94FF6F6
:104DB000FF7000210090A02380220846FEF718F91A
:104DC000134840F2492102685163036840F2A91276
:104DD0009A630368D963006802640E48FDF758F9C6
:104DE0000D48FDF755F90D4C002210212046FBF728
:104DF000F3FF002220212046FBF7EEFF0022402196
:104E00002046FBF7E9FFEFE7440400208C04002074
:104E1000FC030020D40400201C050020000C0240EC
:104E20004FF04070E1EE100A7047000610160006C1
:104E30001016000000000000000001020304060735
:104E40000809000000000102030400006C4E000885
:104E50000000002018010000C4010008844F000871
:104E600018010020B0150000E0010008010000005A
:104E700010000000000000000024F400000000000A
:104E80000000000000000000000000000000000022
:104E90000000000000000000000000000000803F53
:104EA0000000803F0000803F0000803F0000803F06
:104EB0000000803F0000803F0000803F00000000B5
:104EC00000000000000000000000803F0000803F64
:104ED00000000000000000000000000000000000D2
:104EE00003000000000000000000000002000000BD
:104EF00000000000000000000000000000000000B2
:104F0000000000000000003F0AD7233C0000000022
:104F10000AD7233C6F12833A6F12833A0000004095
:104F2000CDCC4C3E0000000000000000000000005E
:104F30000000000000000000000000000000000071
:104F40000000000000000000000000000000000061
:104F50000000000000000000000000000000000051
:104F60000000000000000000000000000000000041
:104F70000000000000000000000000000000000031
:044F8000000000002D
:040000050800018965
:00000001FF
