:020000040800F2
:10000000D007002089010008E9090008E507000879
:10001000110900082D0500083F1E0008000000001F
:10002000000000000000000000000000491100086E
:100030003105000800000000E30E00089D120008D2
:10004000A3010008A3010008A3010008A301000800
:10005000A3010008A3010008A3010008A3010008F0
:10006000A3010008A3010008A3010008A3010008E0
:10007000A3010008A3010008A3010008A3010008D0
:10008000A3010008A3010008A3010008A3010008C0
:10009000A3010008A3010008A3010008A3010008B0
:1000A000A301000841150008A3010008A3010008EE
:1000B000A3010008A30100088D180008A30100088F
:1000C000A3010008A3010008A3010008A301000880
:1000D000A30100081D1C0008A3010008A3010008DB
:1000E00035050008A3010008A301000800F002F88C
:1000F00000F03AF80AA090E8000C82448344AAF188
:100100000107DA4501D100F02FF8AFF2090EBAE885
:100110000F0013F0010F18BFFB1A43F0010318473B
:10012000C02F0000E02F0000103A24BF78C878C12B
:10013000FAD8520724BF30C830C144BF04680C60ED
:10014000704700000023002400250026103A28BF35
:1001500078C1FBD8520728BF30C148BF0B60704739
:100160001FB51FBD10B510BD00F033F81146FFF7E5
:10017000F7FF01F0EBFE00F051F803B4FFF7F2FFD8
:1001800003BC01F073FE000009488047094800479E
:10019000FEE7FEE7FEE7FEE7FEE7FEE7FEE7FEE737
:1001A000FEE7FEE704480549054A064B7047000094
:1001B000A1120008ED000008D0010020D0070020A7
:1001C000D0030020D003002070477047704770476D
:1001D0007047754600F02CF8AE4605006946534658
:1001E00020F00700854618B020B5FFF7DBFFBDE81B
:1001F00020404FF000064FF000074FF000084FF08E
:10020000000B21F00701AC46ACE8C009ACE8C0091E
:10021000ACE8C009ACE8C0098D46704710B504468B
:10022000AFF300802046BDE81040FFF7A6BF0000F6
:10023000004870477001002021B1826842F001023D
:10024000826003E0826822F0010282607047000051
:1002500010B504461248844208D10121401500F02F
:10026000DBFE0021601500F0D7FE17E00D48844248
:1002700008D10121001500F0CFFE0021201500F06B
:10028000CBFE0BE00848844208D10121C80300F0EE
:10029000C3FE00214FF4004000F0BEFE10BD000080
:1002A0000024014000280140003C0140014600209C
:1002B0008A6802F004020AB1012000E000207047C1
:1002C0000146C86C80B270470246002013680B409C
:1002D0000BB1012000E000207047014600208A6831
:1002E00002F008020AB1012000E00020704700007F
:1002F00030B502460020002350680F4C20400D7995
:100300000C6844EA05242043506090680B4C204060
:10031000D1E902542C434D7944EA450420439060CE
:10032000D06A20F470000C7C641EE4B2234340EADF
:100330000350D06230BD0000FFFEF0FFFDF7F1FF7B
:10034000F0B504460D4600200021092D11DDE068BE
:10035000A5F10A0606EB4607072606FA07F18843C9
:10036000A5F10A0606EB460603FA06F10843E0602B
:100370000CE0206905EB4507072606FA07F18843DC
:1003800005EB450603FA06F108432061072A0FDA58
:10039000606B561E06EB86071F2606FA07F1884398
:1003A000561E06EB860605FA06F10843606322E056
:1003B0000D2A0FDA206BD61F06EB86071F2606FADA
:1003C00007F18843D61F06EB860605FA06F10843B7
:1003D000206310E0E06AA2F10D0606EB86071F26F7
:1003E00006FA07F18843A2F10D0606EB860605FA28
:1003F00006F10843E062F0BD816841F008018160C8
:10040000704721B1826842F4A002826003E08268F2
:1004100022F4A00282607047816841F0040181608B
:100420007047000000B587B001214FF4017000F063
:10043000E3FD4FF4004000F0C3FD4820ADF8040098
:1004400000208DF8070001A9174800F0D3F81748DD
:10045000FFF7FEFE002002908DF80C008DF80D00D5
:100460004FF4602004900020059001208DF81800C2
:1004700002A90E48FFF73CFF01210C48FFF7DCFE04
:100480000A48FFF7B9FF00BF0848FFF726FF00281A
:10049000FAD10648FFF7C0FF00BF0448FFF706FF88
:1004A0000028FAD107B000BD000801400024014037
:1004B0002DE9F04104461649204602F09BFA154901
:1004C0000860154801681348006802F093FA134960
:1004D0000860134801681148006802F08DF906466B
:1004E0000C4801680F48006802F086F9074631465B
:1004F00002F098F8054602F003F90B490860054838
:1005000000680549086008480068BDE8F0810000FF
:1005100000C069456C0000207000002074000020BD
:1005200094000020900000207800002000BFFEE72B
:100530007047000010B5034800684FF4804000F099
:1005400003F810BD380122420149086070470000DD
:100550001404014000B587B00121042000F03CFDE7
:100560000121082000F048FDC020ADF80000042063
:100570008DF8030069461D4800F03CF804A801F01E
:1005800015FB0020ADF810004FF6FF70ADF8140019
:100590000020ADF81600ADF8120004A9144801F0CF
:1005A000B3FA00231A460321114801F099F901A872
:1005B00001F01EFA0A20ADF80C0001A90C4801F068
:1005C000C1F901210A4801F079F9012211460848D0
:1005D00001F017FA42F21071054801F066FA0121A4
:1005E000034801F071F907B000BD0000000C0140A4
:1005F000000800402DE9F0410246002500260020B9
:1006000000230024002791F803C00CF00F0591F897
:1006100003C00CF0100CBCF1000F03D091F802C025
:100620004CEA050591F800C0BCF1000F31D0146808
:1006300000202BE04FF0010C0CFA00F3B1F800C0E1
:100640000CEA03069E4220D183004FF00F0C0CFAF7
:1006500003F7BC4305FA03FC4CEA040491F803C019
:10066000BCF1280F06D14FF0010C0CFA00FCC2F8C7
:1006700014C00AE091F803C0BCF1480F05D14FF057
:10068000010C0CFA00FCC2F810C0401C0828D1D3A1
:100690001460B1F800C0BCF1FF0F34DD54680020D5
:1006A0002EE000F1080C4FF0010808FA0CF3B1F845
:1006B00000C00CEA03069E4221D183004FF00F0CCC
:1006C0000CFA03F7BC4305FA03FC4CEA040491F866
:1006D00003C0BCF1280F05D100F1080C08FA0CF892
:1006E000C2F8148091F803C0BCF1480F07D100F1A3
:1006F000080C4FF0010808FA0CF8C2F81080401CF2
:100700000828CED35460BDE8F081024600209368EB
:100710000B400BB1012000E00020704741617047A1
:100720000AB1016100E041617047000010B5044664
:100730000723012221460948FFF702FE012107484D
:10074000FFF75FFE00BF02210448FFF7BDFD002850
:10075000F9D00248FFF7B4FD10BD000000240140AD
:100760002DE9F04107460C460025002608E03846F2
:10077000FFF7DCFF0544C82001F0C2FB701CC6B2C5
:10078000A642F4DBB5FBF4F080B2BDE8F0810000D6
:1007900070B510480068401C0E490860052817DD38
:1007A0000D4801680D48006802F024F9064601F082
:1007B000A7FF054600F084F8044601F0BDFF084994
:1007C0000860064800680449086000200149086084
:1007D00070BD00006400002068000020440000207C
:1007E0006000002000BFFEE708B50121102000F0E6
:1007F00003FC4FF48040ADF8000048208DF8030062
:1008000069460248FFF7F6FE08BD000000100140EF
:1008100010B54FF480411B48FFF777FF10B11A481D
:10082000006868B318480068401C174908604FF416
:1008300080411448FFF769FF012808D11348006878
:1008400028B90020104908600220114908700E489C
:100850000068502814D100200B4908600B4800683C
:10086000401C0A4908604FF480410648FFF74DFFDD
:10087000012802D1002005490860012004490870C0
:1008800010BD0000001001404C000020500000206E
:100890004800002008B50121102000F0ADFB102019
:1008A0008DF80300C002ADF8000003208DF80200AF
:1008B00069460248FFF79EFE08BD00000010014097
:1008C00070B503460022012108E0104830F81150AD
:1008D000481E0E4E26F81050481CC1B20429F4DB05
:1008E00018B20A4DE880002105E0084830F91100EF
:1008F0000244481CC1B20429F7DB1046D51702EBAD
:100900009575AD102CB2204670BD0000A0000020EF
:1009100000BFFEE708B50121082000F06DFB4FF491
:100920004050ADF8000010208DF8030003208DF832
:10093000020069460448FFF75DFE4FF4405102484B
:10094000FFF7ECFE08BD0000000C014030B589B097
:1009500005460C46FFF7DEFF0121022000F03CFBBC
:100960000121082000F048FB0220ADF820001820EB
:100970008DF8230003208DF8220008A91848FFF7FE
:1009800039FEADF81850ADF814400120ADF81A004A
:100990000020ADF8160005A9124801F0B5F8602056
:1009A000ADF804000120ADF806000020ADF80A0003
:1009B000ADF80C004FF40070ADF8120001A9094821
:1009C00001F028F80821074801F062F801210548E4
:1009D00000F068FF0121034800F076FF09B030BD48
:1009E000000C0140000400407047000070B5002179
:1009F00000230F22C47804B3154C246804F4E06487
:100A0000C4F5E064210AC1F10403CA40447804FA41
:100A100003F184781440214309010E4C0678A15556
:100A2000047804F01F050124AC4005786D11AD0079
:100A300005F1E025C5F8004109E0047804F01F0540
:100A40000124AC40044D0678761145F8264070BD6F
:100A50000CED00E000E400E080E100E00249014329
:100A6000024A1160704700000000FA050CED00E03A
:100A700070B500240EE00021204600F0F0F80025BB
:100A800004E0002000F01DFA681CC5B2802DF8DBE0
:100A9000601CC4B2082CEEDB70BD000008B501215B
:100AA000082000F0A9FA14208DF8030003208DF827
:100AB00002004FF48070ADF8000069460A48FFF765
:100AC00099FD4FF40070ADF8000069460648FFF745
:100AD00091FD012211020448FFF722FE012251027A
:100AE0000148FFF71DFE08BD000C014070B505462A
:100AF000002415E08020204100EA05024FF4007137
:100B00000E48FFF70DFE012211020C48FFF708FE08
:100B100000224FF480710948FFF702FE601CC4B246
:100B2000082CE7DB012211020448FFF7F9FD00223F
:100B30004FF480710148FFF7F3FD70BD000C0140D8
:100B400010B5012251020A48FFF7EAFD0122110205
:100B50000748FFF7E5FD00224FF400710448FFF756
:100B6000DFFD00224FF480710148FFF7D9FD10BD71
:100B7000000C014010B500224FF400710648FFF749
:100B8000CFFD012211020448FFF7CAFD01225102E4
:100B90000148FFF7C5FD10BD000C014070B50024F1
:100BA00006E0002500E06D1CB5F57A7FFBD3641CE0
:100BB000B4F57A7FF5D3FFF771FFAE2000F071F93D
:100BC000D52000F06EF9802000F06BF9A82000F02D
:100BD00068F93F2000F065F9D32000F062F90020A9
:100BE00000F05FF9402000F05CF9A12000F059F915
:100BF000C82000F056F9DA2000F053F9122000F076
:100C000050F9812000F04DF9CF2000F04AF9D920A9
:100C100000F047F9F12000F044F9DB2000F041F941
:100C2000302000F03EF9A42000F03BF9A62000F0AF
:100C300038F98D2000F035F9142000F032F9AF209A
:100C400000F02FF9FFF714FF70BD10B50246012028
:100C500000E050430B1EA1F10101FAD110BD70B5A7
:100C600005460C4645F0B00000F01BF9102141EAA2
:100C7000141000F016F904F00F0000F012F970BD26
:100C800010B52CA20521012000F0F7F801232B4814
:100C900002780B21184600F09BF82948006801F003
:100CA0002FFD0446032322460221084600F090F857
:100CB0002448006801F024FD04460323224606214F
:100CC000022000F085F82048006801F019FD044674
:100CD000022322460A21184600F07AF81B480068D1
:100CE00001F00EFD0446032322460D21022000F0F0
:100CF0006FF8042340F69C620321084600F068F870
:100D00001348006801F0FCFC0446042322460B2132
:100D1000032000F05DF805230E480321026804203B
:100D200000F056F804230C480A210268184600F027
:100D300071F810BD4D4F44453A00000048000020B6
:100D40009000002094000020980000209C000020CB
:100D500044000020340000203C0000202DE9F04138
:100D600005460E461746721ED206110E6A1E520620
:100D7000100EFFF774FF002409E0A7F12001134AC9
:100D800002EB0111085D00F09CF8601CC4B2082C55
:100D9000F3DB721ED206110E6A1E012303EB420220
:100DA000D0B2FFF75CFF00240BE0A7F12001074A57
:100DB00002EB011204F10801505C00F082F8601CA3
:100DC000C4B2082CF1DBBDE8F0810000DE2A000887
:100DD0002DE9F04780460E4617461D46002415E0D3
:100DE000281B411E0A20FFF730FFB7FBF0F00A2155
:100DF000B0FBF1F201FB120000F130093019C1B271
:100E00004A464046FFF7AAFF601CC4B2AC42E7DB8B
:100E1000BDE8F0872DE9F0478146884615461E4615
:100E2000002D06DB2B2241464846FFF797FF2F4651
:100E300005E02D2241464846FFF790FF6F4200240F
:100E400017E0301B411E0A20FFF7FFFEB7FBF0F052
:100E50000A21B0FBF1F201FB120000F1300A08EBAD
:100E60000400401CC1B252464846FFF777FF601CA1
:100E7000C4B2B442E5DBBDE8F0872DE9F041074696
:100E80000E461546002407E02A5D3019C1B23846E7
:100E9000FFF764FF601CC4B2285D0028F4D1BDE8F0
:100EA000F08110B50446FFF74BFE7820FFF71EFED9
:100EB0000020FFF71BFE2046FFF718FEFFF75AFE43
:100EC00010BD10B50446FFF73BFE7820FFF70EFE7D
:100ED0004020FFF70BFE2046FFF708FEFFF74AFE13
:100EE00010BD70472DE9FC4782462A490968AAEBE4
:100EF000010001F021FC284908602848006801F041
:100F000065FB0446264A274B01F078F9064601F0B6
:100F10009BF8224908602048006801F057FB06460C
:100F20001F4A214B01F06AF904460D461B48006830
:100F300001F04CFB804622462B4601F0B7F8CDE984
:100F4000000101F081F8154908601848016813484C
:100F5000006801F04FFD1649086010480068134909
:100F60000860144801681248006801F045FC044616
:100F7000114801680948006801F03EFC0546214619
:100F800001F050FB0D4908600846006801F0B8FB0D
:100F9000BDE8FC87380000208C0000208400002081
:100FA0009A9999999999E93F9999C93F80000020A8
:100FB000880000209C000020980000207C00002079
:100FC00001460020034A506820F440400843506026
:100FD000704700000010024029B1064AD26902435E
:100FE000044BDA6104E0034AD2698243014BDA61BF
:100FF000704700000010024029B1064A926902437E
:10100000044B9A6104E0034A92698243014B9A615E
:10101000704700000010024029B1064AD26802431E
:10102000044BDA6004E0034AD2688243014BDA6081
:10103000704700000010024030B50021002200245B
:1010400000232D4D6D6805F00C0121B1042905D058
:10105000082923D105E0294D056022E0274D0560D0
:101060001FE0254D6D6805F47012234D6D6805F481
:101070008034022505EB92421CB9214D5543056091
:101080000BE01D4D6D6805F400351DB11C4D554339
:10109000056002E0194D5543056002E0174D0560FB
:1010A00000BF00BF144D6D6805F0F0010909154D32
:1010B0006B5C0568DD4045600F4D6D6805F4E061CF
:1010C000090A104D6B5C4568DD4085600A4D6D680E
:1010D00005F46051C90A0B4D6B5C4568DD40C56085
:1010E000054D6D6805F44041890B074D6B5CC56883
:1010F000B5FBF3F5056130BD0010024000127A0027
:1011000000093D00000000201000002001460229D7
:1011100004D0032907D004290DD108E04FF0804204
:10112000928C10B209E0064A128810B205E0054A16
:10113000128810B201E0002000BF00BF704700001D
:101140002404004024080040704710B500F002F865
:1011500010BD00000CB500200190009033480068DD
:1011600040F480303149086000BF3048006800F426
:10117000003000900198401C0190009818B9019827
:10118000B0F5A06FF1D12948006800F4003010B12B
:101190000120009001E0002000900098012843D138
:1011A0002348006840F010002149086008460068A4
:1011B00020F0030008600846006840F00200086064
:1011C0001A4840681949486008464068486008461F
:1011D000406840F4806048600846406820F47C1015
:1011E00048600846406840F4E810486008460068D7
:1011F00040F08070086000BF0C48006800F000708C
:101200000028F9D00948406820F0030007494860E9
:101210000846406840F00200486000BF034840684C
:1012200000F00C000828F9D10CBD000000100240AD
:101230000020024000B50246002A07DA01200A49D0
:10124000086000200949C1F8B40106E00020064901
:10125000086001200549C1F8B401104600F09CFE69
:101260000349088000BD0000B08121420080214276
:1012700040040040042808D14FF0E021096941F002
:1012800004014FF0E022116107E04FF0E02109690D
:1012900021F004014FF0E022116170477047000017
:1012A00010B51348006840F0010011490860084675
:1012B0004068104908400E494860084600680E49D9
:1012C00008400B4908600846006820F48020086048
:1012D0000846406820F4FE0048604FF41F00886014
:1012E000FFF733FF4FF000600449086010BD0000B5
:1012F000001002400000FFF8FFFFF6FE08ED00E0DE
:10130000F0B50C46154600220021068C4FF6FE77FC
:101310003E400684028B018C4FF60C7632407E1CD8
:1013200006EA03162E433243104EB0420ED0104E42
:10133000B0420BD0B0F1804F08D00E4EB04205D075
:101340000D4EB04202D00D4EB04206D14FF6FD76A2
:10135000314044F00106314305E04FF6F576314067
:1013600044F00106314302830184F0BD002C0140AA
:10137000003401400004004000080040000C004020
:10138000F0B50C461546002200210026078C4FF6CA
:10139000EF7C07EA0C070784028B018C4FF6FF777E
:1013A00007EA041640F6FF473A404FF6FF7707EA90
:1013B00003373A434FF6FF7707EA05273A43114FC1
:1013C000B8420ED0104FB8420BD0B0F1804F08D0C9
:1013D0000E4FB84205D00E4FB84202D00D4FB84262
:1013E00006D14FF6DF77394046F01007394305E064
:1013F0004FF65F77394044F0100739430283018488
:10140000F0BD0000002C0140003401400004004009
:1014100000080040000C0040F0B50C4615460022C4
:1014200000210026078C4FF6FF6C07EA0C070784A3
:10143000828B018C4FF6FF7707EA04264FF60C7774
:101440003A404FF6FF7707EA03172F433A43114F0D
:10145000B8420ED0104FB8420BD0B0F1804F08D038
:101460000E4FB84205D00E4FB84202D00D4FB842D1
:1014700006D14FF6FF57394046F48077394305E0EF
:101480004FF2FF57394044F4807739438283018417
:10149000F0BD0000002C0140003401400004004079
:1014A00000080040000C0040F0B50C461546002234
:1014B00000210026078C4EF6FF7C07EA0C07078404
:1014C000828B018C4FF6FF7707EA043640F6FF4720
:1014D0003A404FF6FF7707EA05273A434FF6FF7782
:1014E00007EA03373A43114FB8420ED0104FB842C3
:1014F0000BD0B0F1804F08D00E4FB84205D00E4F40
:10150000B84202D00D4FB84206D14DF6FF773940B0
:1015100046F48057394305E047F6FF57394044F415
:101520008057394382830184F0BD0000002C0140C4
:10153000003401400004004000080040000C00405E
:1015400070B50121B94800F0ECF900287ED00121E6
:10155000B64800F0B6F90420FFF7D8FDB44908609A
:101560000A210620FFF7FCF8044601F0FDF8B14916
:101570000860FFF70DF9B0480078012867D1AF483F
:10158000007848B9AA48006842F6F821884203DC8E
:10159000AB48AC49086005E00020AA49086001207A
:1015A000A6490870A548007801281ED1A048006807
:1015B00042F60411884218DA9E480168A24801F0F8
:1015C00019FA04464FF0804101F0E2F909D39F492E
:1015D0009848006801F00EFA04469D4901F0D8F9D8
:1015E00003D297489749086022E094480078012880
:1015F0001ED18F48006842F21C51884218DD924982
:101600008C48006801F0F6F904464FF0804101F083
:10161000BFF90DD28D498748006801F0EBF9044607
:101620008C4901F0B5F803D240F6B830854908601E
:1016300086498048006801F0DDF90446864901F0DA
:10164000A7F811D281497B48006801E0EBE02CE06B
:1016500001F0D0F90446814901F09AF904D2022040
:10166000764908707449087074480078022802D1DD
:101670000020744908606E48006842F6E0618842C4
:1016800001DD012000E0002069490968B1F5FA5F39
:1016900001DA012100E00021084310B1002069496E
:1016A000086068480068FFF7C5FD634800780228B5
:1016B00074D160480068FEF7FBFE6949086069481C
:1016C0000078401CC0B267490870042808DD5848FB
:1016D0000068FFF707FC6449086000206149087052
:1016E0005F48006860490968401A5649086000F080
:1016F000A9FB56494F48006801F07CF904465B4954
:1017000001F046F901D2012500E000254F49494882
:10171000006801F06FF90446554901F039F801D22B
:10172000012000E0002045EA00044B4951480068D0
:1017300001F02EF901D2012000E0002004434749C6
:101740004C48006801F024F801D2012000E000209C
:1017500004432CB100203B4908600320364908703F
:101760003348006842F61861884201DD012000E03C
:1017700000202F49096842F20802914201DA012152
:1017800000E00021084328B100202E490860032012
:10179000294908702B480068FFF74CFD264800785F
:1017A00003283ED129492348006801F023F9044663
:1017B000314900F0EDFF18D224491E48006801F0BD
:1017C00019F904462D4901F0E3F80ED22C492948B5
:1017D000006800F0DDFF08D22A492648006801F0C1
:1017E000D7F802D20220144908701148006842F26A
:1017F0002831884204DA40F21450124908600CE0A3
:101800000B48006842F6F821884203DD1E480D4966
:10181000086002E000200B4908600A480068FFF7F2
:1018200009FDFEF7F5FF002070BD0000002C01400F
:10183000340000204400002048000020490000201F
:1018400048F4FFFF3C0000200040CC4400C0694544
:1018500000002F4400002FC40000C8420000C8C28E
:10186000540000205C000020580000200000C84305
:101870000000C8C3600000200000FA430000FAC363
:1018800000007042000070C2ECFAFFFF04480088BC
:101890000348008820F001000149088070470000DB
:1018A0001008004021B1028842F08002028004E06A
:1018B00002884FF67F731A4002807047CA43028243
:1018C0007047CA430282704721B1028842F0010288
:1018D000028004E002884FF6FE731A4002807047CF
:1018E000F0B50C4615461E46002100220023018952
:1018F000028B038C4FF6F877394021434FF6FC47B3
:101900003A4040F201173A434FF6DD773B404FF63D
:10191000FF7707EA06172F433B43018102830384C5
:10192000F0BD30B50246002000230024158A05EAE8
:101930000103958905EA010413B10CB1012000E00F
:10194000002030BD70B505460C46244885420ED0B7
:10195000234885420BD0B5F1804F08D021488542FD
:1019600005D02148854202D02048854200D100E0C0
:1019700000BF208850B92389A28861882846FFF7D4
:10198000BFFCE188284600F092F825E02088042872
:101990000AD12389A28861882846FFF7F1FCE188F3
:1019A000284600F08DF817E0208808280AD12389FE
:1019B000A28861882846FFF72FFDE188284600F0BD
:1019C0008CF809E02389A28861882846FFF76CFD1E
:1019D000E188284600F08AF870BD0000002C014024
:1019E000003401400004004000080040000C0040AA
:1019F000002101804180012181800021C18001817D
:101A000070471AB183890B43838102E083898B433A
:101A10008381704770B5002200230024058C4EF6A8
:101A2000FF7635400584038C8488828B48F6FF75E9
:101A30002A404FF6FF452A400D884FF6FF7606EA0A
:101A400005252A434DF6FF752B400D8906EA05351D
:101A50002B434D8806EA05352B430B4DA84202D097
:101A60000A4DA84208D14BF6FF752C408D894FF6E0
:101A7000FF7606EA85152C4384808283CD88A0F802
:101A80004050038470BD0000002C01400034014030
:101A90000A460021818B4FF2FF7319404FF6FF7306
:101AA00003EA022319438183704781847047028BC4
:101AB0004FF6F3731A400283028B0A430283704786
:101AC000028B4FF2FF331A400283028B4FF6FF73F3
:101AD00003EA01231A4302837047828B4FF6F373A4
:101AE0001A408283828B0A4382837047828B4FF233
:101AF000FF331A408283828B4FF6FF7303EA012380
:101B00001A43828370470000002202881D4B9842CE
:101B10000ED01D4B98420BD0B0F1804F08D01B4B1C
:101B2000984205D01A4B984202D01A4B984204D1E1
:101B30004FF68F731A404B881A43174B984207D0C1
:101B4000164B984204D04FF6FF431A40CB881A43F5
:101B500002808B8883850B8803850A4B98420BD0C3
:101B6000094B984208D00E4B984205D00D4B984235
:101B700002D00D4B984201D10B7A03860123838258
:101B800070470000002C0140003401400004004078
:101B900000080040000C004000100040001400400D
:101BA0000040014000440140004801404FF6FF71F1
:101BB000818000210180C180418001727047000056
:101BC0007FB505460C460121C802FFF715FAADF8AE
:101BD0000850ADF804400020ADF80A00ADF806004A
:101BE00001A90D48FFF790FF012211460A48FFF7AF
:101BF00008FF19208DF8000001208DF803008DF8F2
:101C0000010003208DF802006846FEF7EFFE012177
:101C10000148FFF759FE7FBD002C014010B540F28E
:101C200025511D4800F04AF810B31B4800F002F996
:101C3000C4B21A48008800F40040C8B917480088A8
:101C400000F4804060B10A2C03D0002013490880C2
:101C500020E01248008840F400401049088019E054
:101C60000D2C06D10D48008840F480400B490880B7
:101C700010E00A480088C0F30D0009490C540748D9
:101C80000088401C0549088008460088C72801DDF7
:101C90000020088010BD0000003801401C0000201A
:101CA000A800002021B1828942F40052828104E020
:101CB00082894DF6FF731A408281704770B50246E3
:101CC000002400230025002040F66A16B14200D10E
:101CD00000BFC1F3421501F01F03012606FA03F30A
:101CE000012D02D19689334006E0022D02D1168AD9
:101CF000334001E0968A33400C12012606FA04F4C0
:101D00001688344013B10CB1012000E0002070BDF2
:101D1000F0B50346002400260025002040F66A178F
:101D2000B94200D100BF1846C1F3421401F01F06AA
:101D3000012707FA06F5012C01D10C3004E0022C32
:101D400001D1103000E014301AB107682F4307604A
:101D500002E00768AF430760F0BD00002DE9F047DF
:101D600086B005460E460024A24600BFA1460027C5
:101D7000B08900B100BF2F462C8A4CF6FF7004409A
:101D8000F08804432C82AC894EF6F3100440B088EE
:101D900031890843718908430443AC81AC8A4FF60A
:101DA000FF400440B0890443AC8201A8FFF744F926
:101DB0001F48874202D1DDF810A001E0DDF80CA039
:101DC000A88900F4004040B10AEBCA0000EB0A10F9
:101DD00031684900B0FBF1F807E00AEBCA0000EBFC
:101DE0000A1031688900B0FBF1F86420B8FBF0F00C
:101DF00004012009642101FB1089A88900F4004036
:101E000040B1322000EBC900B0FBF1F000F0070058
:101E1000044308E0322000EB09106421B0FBF1F02C
:101E200000F00F0004432C8106B0BDE8F0870000ED
:101E30000038014001468888C0F30800704700BFA1
:101E4000FEE7000041F6F42007490968424291424A
:101E500002DA4142044A116003490968814201DD06
:101E600001490860704700003C00002000BF704737
:101E700010B56FF00400FFF7FDF90A4800680A4941
:101E8000B0FBF1F0094908700846007800EB40010A
:101E9000C1EBC0104FF6FF7101EAC0000449088091
:101EA00010BD00002000002000127A001400002065
:101EB000160000200146114A12884A434FF0E023E1
:101EC0005A6100229A611A46126942F001021A61AF
:101ED00000BF4FF0E022106900F001021AB100F4D7
:101EE0008032002AF5D04FF0E022126922F0010280
:101EF0004FF0E0231A6100229A617047160000201B
:101F00000146114A12784A434FF0E0235A610022F9
:101F10009A611A46126942F001021A6100BF4FF03D
:101F2000E022106900F001021AB100F48032002AA8
:101F3000F5D04FF0E022126922F001024FF0E023C9
:101F40001A6100229A617047140000204FF4A060CB
:101F5000FEF784FDFFF78CFF4FF47A70FFF7AAFFBE
:101F6000FEF798FCFEF740FCFEF718FE4FF4E13058
:101F700000F01AF8002141F61F40FEF7E7FCFEF7DB
:101F8000E9FAFEF74FFA41F61F413120FFF718FE3C
:101F900001E0FEF775FEFCE70146002901DA484240
:101FA00000E008467047000010B586B004460121E5
:101FB00044F20400FFF720F84FF40070ADF814006D
:101FC00003208DF8160018208DF8170005A91C486D
:101FD000FEF710FB4FF48060ADF8140004208DF87C
:101FE000170005A91648FEF705FB25208DF800000F
:101FF00003208DF801008DF8020001208DF8030008
:102000006846FEF7F3FC01940020ADF80800ADF837
:102010000A00ADF80C00ADF810000C20ADF80E0071
:1020200001A90848FFF79AFE012240F22551054810
:10203000FFF76EFE01210348FFF734FE06B010BD26
:10204000000801400038014021F00042A2F1605236
:10205000B2F5801F01F0004328BFD2F17F6C0BD98D
:102060005FEA001C43EAC20242EB507018BF70479F
:1020700028BF20F001007047B2F5801FBCBF184692
:1020800070474FEA410C1CF5001F02D2084600F0D1
:102090007ABC70B500F05CF900000089FFF7F6BF6C
:1020A0004FF00040A0F580007047000010B591EAA5
:1020B000030F48BF83F0004300F1A681841A71EB3F
:1020C000030C05D2121943EB0C03001B61EB0C014E
:1020D000DFF824E14FEA1154A4EB135C1EEA430F2E
:1020E00018BF9EEA445F73D023EA0E03DCF1200E92
:1020F00021EA045143F4801332D322FA0CFE10EB90
:102100000E0023FA0CFE41EB0E01CCF1200E03FA77
:102110000EFE10EB0E0051F10001B1F5801FCCF165
:10212000200E32D201EB045112FA0EF2BDE810403B
:1021300058BF7047401C38BF5FEA420218BF704763
:10214000002814BF20F0010041F100014FEA4103D3
:1021500013F5001F38BF7047A1F1C04100F046B928
:10216000012A43EB0302ACF1200CDCF11F0E32BF5D
:102170004FF0000E23FA0CF310EB030041EB045177
:10218000B4EB115FD0D0A1EB045101F580114908E7
:102190005FEA300001EB04510ED350F1000038BF6C
:1021A00012FA0EFE08D1BDE81040C9E7401C38BF46
:1021B0005FEA4202CAD1C3E7BDE810404FEA4103DB
:1021C00013F5001F38BF7047A1F1C04100F00EB9F0
:1021D0009EEA445F08D011EA5E0FBDE8104004BFDC
:1021E00001F0004100207047BDE8104070B500F0DC
:1021F000AFF800BF64FBBE3E0000E0FFDFF848C15F
:1022000070B51CEA111E1EBF1CEA13159EEA0C0FC6
:1022100095EA0C0F00F06F8081EA030423EA4C1367
:102220004EEAD47E21EA4C1141F4801143F480132C
:10223000AE44A1FB024CA0FB0365AEF17F7E3619D4
:1022400055EB0C05A1FB034C4CF10003A0FB021C59
:1022500016EB0C06654153F10003094218BF46F026
:10226000010613F4007F0BD14FEA03314FEA05302A
:10227000340341EA155140EA16506FF003020AE0B8
:102280004FEAC3214FEAC520F40241EA555140EA22
:1022900056506FF0020202EB2E4201EB025585EA26
:1022A000CE710AD05FEA440C18BF24F0004450F10C
:1022B000000041F1000120EAD47040F2FE7C62454A
:1022C00000D270BDA84214BF4FF080444FF040448C
:1022D000002E08BF0024BEF1806FA8BFA1F1C0414D
:1022E000BDE8704080F282804FF0000001F1C041F3
:1022F00001F0004170479EEA0C0F0CEA131518BF5D
:1023000095EA0C0F06D04FF0000081EA030E0EF0A4
:10231000004170BD00F01CF88900013E00F007B8D4
:1023200000F009B84FEA430C5FEA5C5C08D081EA30
:10233000030100F05BB84FEA410C5FEA5C5CF6D148
:102340004FF00000014970470000FF070000F87FD0
:102350000EF1020E2EF0030E5EF8046B364205D429
:10236000012A43EB030515F5001F12D8012841EBA4
:10237000010C1CF5001F0CD80ED14FEAD17C15F5CD
:10238000001F0CEB4C0C0CF1020C08BF4CEBD37C87
:1023900004E04FF0080C01E04FEAD37C0CEB4C0555
:1023A00026FA05F606F00706B6F1040C06D20EEB87
:1023B000860CBDE870404CF0010C6047DFE80CF083
:1023C000090B02024FF000414FF00000A1F500217F
:1023D00070BD19461046012851EB010418BFD4F511
:1023E000001484BF002001F0004170BD0808A0F572
:1023F00000114FEA3101704710B591EA030F48BF51
:1024000083F000433FF55AAE841A71EB030C07D2F8
:1024100012198CF0004C43EB0C03001B61EB0C0118
:10242000DFF8A4E14FEA1154A4EB135C1EEA430F5A
:1024300018BF9EEA445F00F0B08023EA6E03524268
:1024400021EA0451C3EB6E0338BF5B1EDCF1200EA2
:1024500025D322FA0CFE10EB0E0043FA0CFE41EBE2
:102460000E01CCF1200E03FA0EFE10EB0E0051F11E
:102470000001CCF1200E29D412FA0EF201EB045126
:10248000BDE8104058BF7047401C1CBFB2F1004F60
:10249000704700280CBF491C20F00100704712EB68
:1024A000020E43EB030218BF4FF0010E4EEA420248
:1024B000ACF1200CDCF11E0E54D943FA0CFE10EBEB
:1024C0000E0051F1FF31CCF11E0ED5D50EF1010EEB
:1024D00012FA0EFE404141EB010101EB445C5FEA60
:1024E0005C5C10D910EBDE7001EB045138BFBEF11B
:1024F000004FBDE8104018BF704700280CBF491CB2
:1025000020F00100704730D24FEAD42C11F50011B1
:1025100024F400641BD0B1FA81F20B3AA41AA41E71
:10252000D2F12003914030FA03F31943904001EBBC
:10253000CC71002C01EB0451BDE81040A8BF7047DE
:1025400001F1C0414FF0000001F000417047B0FAC6
:1025500080F310FA03F100D110BDE41A173C4805CE
:10256000C90AE4E701EB045110BD491001EB045125
:10257000BDE810404FEA300002E04FF00001704724
:102580004A0008BF0042F8D0B2F5001F28BF7047CC
:1025900001F000414FF0000070479EEA445F07D011
:1025A00011EA5E0FBDE8104004BF00210020704713
:1025B000BDE8104070B5FFF7CBFE00BF40DFF63E30
:1025C00083F00041104670470000E0FF43004FEAEF
:1025D000D30C4FEA3C0C43401FBF40070CF1605145
:1025E00013F0FE4F70471CF0006F03D100200CF079
:1025F000004170470CF0004343EA507010B540EAC8
:10260000CC0000F07AF900BF000000924FEA000110
:10261000FFF7ECBE4FF000414FF00000A1F50021A4
:102620007047000090EA010F48BF81F0004100F1BF
:10263000E881421A3CBF801A89184FEAD0524FF005
:102640007F4C1CEA410FA2EBD15318BF9CEA026FEA
:1026500000F03B804FF0004C4CEA00204CEA012196
:1026600021FA03FC10EB0C0C1ED202F1FF325FEAE0
:102670001C2040EBC25038BF70471CF07F0F4FEA60
:10268000400C18BFBCF17F4F38BF7047C3F1200327
:10269000994008BF20F00100BCF17F4F38BF704760
:1026A000A0F1C04000F06FB94FEA3C00000A40EBD7
:1026B000C25028BF1CF0FF0F4FEA400CE6D018BFF5
:1026C000BCF17F4F38BF7047EAE79CEA026F05D044
:1026D00010EA5C0F08BF00F00040704710B500F032
:1026E0000CF900BF64FBBE3E401058BFC0F1404033
:1026F000491058BFC1F140418142EFF3008070475B
:1027000041000B0ED3F19E0208D950F400034FEAAA
:10271000032323FA02F048BF4042704710B500F08F
:10272000ECF800BF49922480002070476FF000420F
:1027300082EA20007047000010F0004148BF40428C
:10274000B0FA80F310FA03F2C3F19D030BD051EA03
:10275000C35101EB1220530638BF704700F101004E
:1027600008BF20F001007047B0FA80F310FA03F2BE
:10277000C3F19D030AD0D90501EB1220530638BFDF
:10278000704700F1010008BF20F001007047000011
:1027900050EA010C00F113801CF5000F58BFBCF586
:1027A000000F01D48842704707D710F5000F58BFBB
:1027B00011F5000F15D488427047894270471CF507
:1027C000000F04D5BCF5000FF7D5814270474FF0DC
:1027D000807C1CEB400F38BF1CEB410F01D28142C3
:1027E000704710B500F089F8922449004FF000506E
:1027F0004FF08051FFF778BF4FF47F0C1CEAD012E6
:102800001EBF1CEAD11392EA0C0F93EA0C0F00F0E2
:10281000478090EA010F48BF42F480724FF0004CAD
:102820004CEA00204CEA012102EB0302A0FB011359
:10283000A2F50002002918BF43F001035B0028BF86
:102840004FEA330342EB22425FEA132C4CEBC250B7
:102850002EBFBCEB436FB2F57C0F70474FEA036CA1
:10286000BCF1004F08BF20F00100B2F57C0F38BF6B
:1028700070470BD582F0FF0212F5803FC8BF70474A
:1028800000F1C040D8BF00F00040704700F5000CD8
:102890005FEA4C0C48BF7047B0F1C04000F073B81D
:1028A00090EA010F0CEAD11348BF42F480726245EE
:1028B00038BF634504D280EA010000F00040704751
:1028C00010B500F01AF800BF8900013E00F007B80B
:1028D00000F009B85FEA410C5FEA1C6C08D080EA9E
:1028E000010000F050B85FEA400C5FEA1C6CF6D1C2
:1028F0004FF00040A0F5800070470EF1020E2EF060
:10290000030E5EF8044B244204D44FEA4102B2F1B4
:102910007F4F11D84FEA4003B3F17F4F0CD80ED14F
:102920004FEAD07CB2F17F4F0CEB4C0C0CF1020C57
:1029300008BF4CEBD17C04E04FF0080C01E04FEAFB
:10294000D17C0CEB4C0324FA03F404F00704B4F13B
:10295000040C06D20EEB840CBDE810404CF0010CC8
:102960006047DFE80CF0070802024FF00040A0F5D6
:10297000800010BD0846420018BFD2F1807288BFA7
:1029800000F0004010BDFF2141EAD050C005704763
:1029900051EA000C00F113801CF5000F58BFBCF584
:1029A000000F01D48142704707D711F5000F58BFBF
:1029B00010F5000F15D481427047894270471CF50D
:1029C000000F04D5BCF5000FF7D5884270474FF0D3
:1029D000807C1CEB410F38BF1CEB400F01D28842BA
:1029E000704780EA010081EA000180EA0100FFF7F8
:1029F000F8BE000090EA010F48BF81F000413FF5AA
:102A000018AE421A04D882F00042A0EB0200114432
:102A10004FEAD0524FF07F4C1CEA410FA2EBD1534A
:102A200018BF9CEA026F4AD04FF0004C4CEA0020DD
:102A30004CEA012121FA03FCB0EB0C0C0FD412F08C
:102A4000FE0F36D05FEA4C001DD5001240EBC2509D
:102A500038BF70471CF03F0F18BF70470BE0A2F162
:102A600001025FEA1C2040EBC25038BF70471CF0E7
:102A70007F0F18BF7047C3F12003994014BF401E59
:102A800020F00100704780084FEA122308BF70470A
:102A9000B0FA80FCA2EB0C02CCF1280C60FA0CF02E
:102AA00093EA122F04BF00EBC25070474FEAC37085
:102AB0007047130A5FEADC1008BF7047F6E79CEA2C
:102AC000026F04D010EA5C0F08BF0020704710B5F9
:102AD000FFF713FF40DFF63E81F000407047000033
:102AE00000000000000000000000000000000000E6
:102AF00000F800000000000000333000000000106B
:102B00000C06100C0600000000000000000040C091
:102B10007840C0784000043F04043F040400007083
:102B200088FC08300000001820FF211E0000F0087B
:102B3000F000E018000000211C031E211E0000F020
:102B40000888700000001E21232419272110101668
:102B50000E00000000000000000000000000000067
:102B600000E01804020000000007182040000002E6
:102B70000418E0000000004020180700000040405A
:102B800080F0804040000202010F010202000000BC
:102B900000F0000000000101011F01010100000020
:102BA00000000000000080B0700000000000000085
:102BB000000000000000000101010101010100000E
:102BC00000000000000000303000000000000000A5
:102BD000000080601804006018060100000000E09A
:102BE00010080810E000000F102020100F00001047
:102BF00010F8000000000020203F2020000000709E
:102C00000808088870000030282422213000003095
:102C10000888884830000018202020110E0000008D
:102C2000C02010F8000000070424243F240000F80E
:102C30000888880808000019212020110E0000E0F3
:102C4000108888180000000F112020110E00003895
:102C50000808C83808000000003F000000000070AD
:102C6000880808887000001C222121221C0000E036
:102C700010080810E0000000312222110F000000AF
:102C800000C0C00000000000003030000000000064
:102C900000800000000000008060000000000000D4
:102CA000804020100800000102040810200040406D
:102CB00040404040400004040404040404000008B0
:102CC0001020408000000020100804020100007065
:102CD00048080808F0000000003036010000C0304D
:102CE000C828E810E0000718272423140B00000070
:102CF000C038E0000000203C23020227382008F8FA
:102D0000888888700000203F202020110E00C030ED
:102D1000080808083800071820202010080008F8C4
:102D200008080810E000203F202020100F0008F8BD
:102D30008888E8081000203F20202320180008F889
:102D40008888E8081000203F200003000000C03001
:102D500008080838000007182020221E020008F882
:102D600008000008F808203F210101213F20000849
:102D700008F8080800000020203F20200000000084
:102D80000808F8080800C08080807F00000008F86C
:102D900088C028180800203F20012638200008F8A5
:102DA000080000000000203F20202020300008F80C
:102DB000F800F8F80800203F003F003F200008F826
:102DC00030C00008F808203F200007183F00E0103E
:102DD00008080810E0000F10202020100F0008F84D
:102DE00008080808F000203F210101010000E01060
:102DF00008080810E0000F18242438504F0008F885
:102E0000888888887000203F2000030C30200070E4
:102E10008808080838000038202121221C001808E2
:102E200008F8080818000000203F2000000008F8FB
:102E300008000008F808001F202020201F00087844
:102E4000880000C83808000007380E010000F808A4
:102E500000F80008F800033C0700073C03000818CE
:102E600068808068180820302C03032C3020083834
:102E7000C800C83808000000203F200000001008EB
:102E80000808C83808002038262120201800000033
:102E900000FE020202000000007F40404000000CE3
:102EA00030C000000000000000010638C000000231
:102EB0000202FE000000004040407F0000000000D1
:102EC00004020202040000000000000000000000F4
:102ED00000000000000080808080808080800002F0
:102EE00002040000000000000000000000000000DC
:102EF0008080808000000019242222223F2008F8D0
:102F0000008080000000003F112020110E00000012
:102F1000008080800000000E1120202011000000A1
:102F200000808088F800000E112020103F20000053
:102F3000808080800000001F222222221300008057
:102F400080F0888888180020203F202000000000A2
:102F5000808080808000006B94949493600008F8D7
:102F6000008080800000203F210000203F20008062
:102F70009898000000000020203F20200000000062
:102F800000809898000000C08080807F000008F8D2
:102F9000000080808000203F24022D3020000008A7
:102FA00008F8000000000020203F20200000808062
:102FB000808080808000203F20003F20003F808074
:102FC000008080800000203F210000203F20000082
:102FD000808080800000001F202020201F00808033
:102FE00000808000000080FFA12020110E00000062
:102FF000008080808000000E112020A0FF80808053
:1030000080008080800020203F21200001000000FF
:1030100080808080800000332424242419000080D4
:1030200080E0808000000000001F202000008080E1
:10303000000000808000001F202020103F208080A2
:1030400080000080808000010E3008060100808032
:103050000080008080800F300C030C300F00008057
:103060008000808080000020312E0E312000808082
:1030700080000080808080818E70180601000080B2
:103080008080808080000021302C222130000000D0
:103090000000807C020200000000003F4040000071
:1030A0000000FF00000000000000FF000000000220
:1030B000027C800000000040403F0000000000064D
:1030C00001010202040400000000000000000102EF
:1030D00004081020408000000000000000000000F4
:1030E0000031000800000020A800000028010008AE
:1030F000A8310008A80000202807000044010008AB
:10310000000000000102030401020304060708098D
:10311000020406080000000000000000000000009B
:1031200000A24A04000000000000000001020304A5
:10313000060708090000000010270000000000003A
:10314000000000000000000000000000000000007F
:10315000000000000000000000000000000000006F
:10316000000000000000000000000000000000005F
:10317000000000000000000000000000000000004F
:10318000000000000000000000000000000000003F
:1031900000002A4300002A430000C04000002043F2
:0831A000000000000000000027
:04000005080000ED02
:00000001FF
