:020000040800F2
:10000000200F002049020008EB390008C72600082D
:10001000E939000849060008C14300080000000053
:100020000000000000000000000000001D3C00086F
:100030004B06000800000000913B0008FD3C000852
:1000400063020008630200086302000863020008FC
:1000500063020008630200086302000863020008EC
:1000600063020008630200086302000863020008DC
:1000700063020008630200086302000863020008CC
:1000800063020008630200086302000863020008BC
:1000900063020008630200086302000863020008AC
:1000A000A93D00086302000863020008630200081B
:1000B000B53D0008C13D0008630200086302000866
:1000C000630200086302000863020008630200087C
:1000D000630200089D430008A9430008B5430008D7
:1000E000630200086302000863020008CD3D0008B7
:1000F000D93D00086302000863020008630200089B
:10010000630200086302000863020008630200083B
:10011000630200086302000863020008630200082B
:10012000630200086302000863020008630200081B
:10013000630200086302000863020008630200080B
:1001400063020008630200086302000863020008FB
:1001500063020008630200086302000863020008EB
:1001600063020008630200086302000863020008DB
:100170006302000863020008630200080000000038
:10018000630200086302000800F002F800F04CF877
:100190000AA090E8000C82448344AAF10107DA45E2
:1001A00001D100F041F8AFF2090EBAE80F0013F0E8
:1001B000010F18BFFB1A43F001031847DC8D000044
:1001C000FC8D00000A4410F8014B14F00F0508BF25
:1001D00010F8015B240908BF10F8014B6D1E05D013
:1001E00010F8013B6D1E01F8013BF9D1641E03D0EC
:1001F000641E01F8015BFBD19142E4D3704700001B
:100200000023002400250026103A28BF78C1FBD81F
:10021000520728BF30C148BF0B6070471FB506F0BA
:10022000A6FA1FBD10B510BD00F004F91146FFF786
:10023000F5FF04F063FE00F022F903B4FFF7F2FFCC
:1002400003BC00F025F90000094880470948004731
:10025000FEE7FEE7FEE7FEE7FEE7FEE7FEE7FEE776
:10026000FEE7FEE704480549054A064B70470000D3
:10027000993D00088901000820090020200F002076
:10028000200B0020200B002053EA020C00F06980B4
:100290002DE9F04B4FF00006002B1FBFB3FA83F59A
:1002A00003FA05F424FA05F65E4012BF1643B2FACB
:1002B00082F502FA05F4C5F120051EBF22FA05FCFD
:1002C00044EA0C04203556EA044C4FEA144418BFA3
:1002D000641C4FF000084FF00009904271EB030CD2
:1002E00039D3002919BFB1FA81F701FA07F6B0FA3C
:1002F00080F700FA07F6C7F120071EBF20FA07FCB7
:1003000046EA0C062037B6FBF4FCA7EB0507103FC6
:1003100007F01F0BCBF120060CFA0BFB2CFA06F6AC
:1003200044BFB3460026202FA4BF5E464FF0000B0B
:100330005BEA060C08BF4FF0010B19EB0B09ABFB96
:10034000027C48EB0608C01B06FB02CC0BFB03CC6F
:1003500071EB0C01C1E70B46024641464846BDE839
:10036000F08B13B54FF000004FF00001AFF30080A9
:10037000BDE81C4070474FF000020429C0F0128015
:1003800010F0030C00F01B80CCF1040CBCF1020F48
:1003900018BF00F8012BA8BF20F8022BA1EB0C011D
:1003A00000F00DB85FEAC17C24BF00F8012B00F813
:1003B000012B48BF00F8012B70474FF0000200B539
:1003C000134694469646203922BFA0E80C50A0E878
:1003D0000C50B1F12001BFF4F7AF090728BFA0E826
:1003E0000C5048BF0CC05DF804EB890028BF40F8F2
:1003F000042B08BF704748BF20F8022B11F0804F34
:1004000018BF00F8012B704770477047704710B550
:1004100000F008F8006810BD10B5044600F002F8BE
:10042000046010BD00487047C008002000487047B5
:10043000C00800207546FFF7F9FFAE460500694683
:10044000534620F00700854618B020B5FFF70AFF95
:10045000BDE820404FF000064FF000074FF00008C5
:100460004FF0000B21F00701AC46ACE8C009ACE846
:10047000C009ACE8C009ACE8C0098D46704710B5AA
:100480000446AFF300802046BDE81040FFF7D5BE1C
:1004900001491820ABBEFEE72600020070470000AD
:1004A00070B52DED088B02F079FA594C04F140003B
:1004B00094ED031AD4ED140A94ED130AD0EC031A48
:1004C00002F03AFB94ED1F0AB8EE009AD4ED0C0A44
:1004D00020EE090AB0EE008A04F1800620EE200A20
:1004E000D4ED0B0A96ED001A60EE880A00EE810A40
:1004F00010EE100A06F0CAF841EC100B03F0F0FF02
:100500009FED441B51EC100B53EC112B05F0FEFD3D
:1005100005F03EFB414DF7EE009A2860D4ED1F8AAE
:1005200028EE890A60EE280A96ED000A20EE08BA45
:100530004BEE400A30EEA90A10EE100A06F0A6F8BB
:1005400094ED0C0AD4ED0B0A41EC1A0B2BEE000AC9
:1005500060EE880A00EEA80A10EE100A06F096F87F
:1005600041EC100BB0EE4A1AF0EE6A1A04F0D4FA1D
:100570009FED2BBB51EC100B53EC1B2B05F0C6FD74
:1005800005F006FB6860D6ED008A94ED0CAA28EE13
:10059000890A6AEE080A20EE280A00EECA0A30EE3E
:1005A000290A10EE100A06F071F894ED1F0AD4ED36
:1005B0000B0A41EC190B20EE080A60EE880A20EEC7
:1005C000280A00EE8A0A10EE100A06F05FF841ECE5
:1005D000100BB0EE491AF0EE691A04F09DFA53ECD4
:1005E0001B2B51EC100B05F091FD05F0D1FAA86022
:1005F00095ED000AA5F10C0181ED000A95ED010AC7
:1006000081ED010A886000EE100ABDEC088B70BD18
:10061000640000206666666666A64CC05005002031
:100620006666666666A64C4010B5064C0122114609
:10063000204600F0A2F920460122BDE81040082122
:1006400000F09BB900080240FEE7704772B6FEE773
:1006500010EE101A01700A0A42700A0C8270090E1C
:10066000C170704710B5064C01220221204600F0EF
:1006700084F920460122BDE81040042100F07DB934
:1006800000080240064A10B5911E881E02F046FC82
:10069000034ABDE81040921D911E881E02F057BC0F
:1006A000680000202DE9F0410446876D00F06AF9EA
:1006B000064694F835000025022806D080206065A3
:1006C00084F834500120BDE8F0812068016821F0F1
:1006D000160101602068416921F080014161206CB0
:1006E00008B9A06C20B12068016821F00801016000
:1006F0002068016821F0010101600CE000F042F97E
:10070000801B052807D920206065032084F8350068
:1007100084F83450D7E720680068C007EED194F819
:100720005C103F208840B860012084F8350084F8D0
:1007300034500020C7E790F83510022903D08021FB
:10074000416501207047052180F835100068016877
:1007500021F00101016000207047000070B50446DF
:1007600000F010F90546601C02D0044800780444EB
:1007700000F008F9401BA042FAD370BD54000020DD
:100780002DE9F84FDFF8BCA10022012503264FF028
:100790000F090AF1040BAAF1040E00BF0B6805FA59
:1007A00002F42340A34270D10F7907F00307012F11
:1007B00001D0022F16D187684FEA420806FA08FCDA
:1007C00027EA0C07D1F80CC00CFA08FC4CEA070C1D
:1007D000C0F808C04768A7430C79C4F300149440DC
:1007E0003C4344600C79E443A4070AD0C4684FEA50
:1007F000420C06FA0CF7BC438F6807FA0CF7274344
:10080000C7600C7904F00304022C12D1D40800EB69
:10081000840CDCF820405707FF0E09FA07F824EA99
:100820000804D1F8108008FA07F848EA0408CCF860
:10083000208004684FEA420C06FA0CF7BC430F799B
:1008400007F0030707FA0CF7274307604C6814F416
:10085000403F70D03C4C276847F4804727602468AD
:1008600022F0030704F480440094384C07EB040C96
:10087000DCF8084897074FEA177809FA08F7BC43ED
:10088000334FB84202D1002724E054E0314FB84240
:1008900001D101271EE0304FB84201D1022719E0F3
:1008A0002E4FB84201D1032714E02D4FB84201D199
:1008B00004270FE02B4FB84201D105270AE02A4F49
:1008C000B84201D1062705E0284FB84201D10727D9
:1008D00000E0082707FA08F72743CCF80878DAF889
:1008E00000405746D1F804C09C435FEACC2C00D5A9
:1008F0001C433C60DBF800405F46D1F804C09C43D9
:100900005FEA8C2C00D51C433C60DEF80040774643
:10091000D1F804C09C435FEA8C3C00D51C433C608A
:10092000084F083F3C68D1F804C09C435FEACC3CC8
:1009300000D51C433C60521C102AFFF42FAFBDE8C9
:10094000F88F0000083C014044380240003001406C
:10095000000002400004024000080240000C024077
:10096000001002400014024000180240001C024027
:100970000069084000D0012070470AB181617047CA
:100980000904FBE70148806870470000540000201C
:1009900070B5040025D094F83D00002520B984F8F6
:1009A0003C50204600F050F9242084F83D00206897
:1009B000016821F0010101602068016841F40041F3
:1009C00001602068016821F40041016000F0E4FA50
:1009D0004D4A6168914201D84C4900E04C49884237
:1009E00001D2012070BD4B492368B0FBF1F15E6874
:1009F00026F03F060E435E606368934206D94FF4CB
:100A0000967359434FF47A73B1FBF3F12368491C91
:100A10001E6A26F03F06314319626168914210D880
:100A20004900401EB0FBF1F2521CC2F30B02042A33
:100A300001D2042022E0B0FBF1F0401CC0F30B0017
:100A40001CE0A268F2B301EBC10303EB0116431EE5
:100A5000B3FBF6F35B1C43F480431B0549D092B310
:100A600001EBC10202EB0111401EB0FBF1F0401C92
:100A7000C0F30B0040F4804040F400402168CA6994
:100A80004CF6FF739A431043C861D4E90710014341
:100A90002068026822F0C00211430160D4E903011A
:100AA00001432068826848F2FF339A431143816012
:100AB000D4E9050108432168CA6822F0FF02104307
:100AC000C86001E00EE016E02068016841F0010115
:100AD00001602564202084F83D00256384F83E50A1
:100AE000002070BD01EB4106431EB3FBF6F35B1C17
:100AF000B3E70120C2E701EB4101401EB0FBF1F07A
:100B0000401CC0F30B00B7E7A086010080841E00E4
:100B100000093D0040420F002DE9FF4F83B09A4687
:100B2000DDE9119793460446DDF84080FFF72AFF80
:100B3000054694F83D0020287FD119230122404921
:100B40002046009501F058FE002876D194F83C002C
:100B5000012872D0012084F83C0020680168C90790
:100B600003D1016841F0010101602068016821F4AE
:100B700000610160212084F83D00402084F83E009F
:100B800000262664C4F82480A4F82A90608D20856D
:100B90002C48E062CDE9007553465A462046049938
:100BA00001F0AAFD70B930E02A463946204601F02E
:100BB000C9FE58B1206C042804D12068016841F4B2
:100BC00000710160012007B0BDE8F08F606A216804
:100BD00000780861606A401C6062218D491E89B2FC
:100BE0002185628D521E628522685369DB435B0753
:100BF0000BD469B100781061606A401C6062208D7E
:100C0000401E2085608D401E6085208D0028CBD140
:100C10002A463946204601F0C3FD0028CAD154F8BF
:100C20003D0B016841F400710160202004F81E09A9
:100C3000E67766770020C6E7FFE70220C3E70000FB
:100C4000020010000000FFFF2DE9F04186B00446CD
:100C500014216846FFF7B1FB2F4A2168DFF8BC80FA
:100C600000242E4812250326042708F1100891427B
:100C70001CD1016841F002010160006802AA00F085
:100C8000020005903002CDE9000582E8D0006946F7
:100C90002348FFF775FDD8F8001041F40011C8F89B
:100CA0000010D8F8000000F4001031E01D4A914215
:100CB0002FD1016841F004010160016801F00401D5
:100CC0000591016841F0010101600068694600F08A
:100CD000010005905015CDE9000502AA124882E8EE
:100CE000D000FFF74DFD4FF48070CDE9000502AA5A
:100CF000694682E8D0000D48FFF742FDD8F80010A1
:100D000041F40001C8F80010D8F8000000F4000019
:100D1000059006B0BDE8F081005400403038024034
:100D200000040240005C0040000802400000024055
:100D300002488168027811448160704754000020A5
:100D40000B4810B5016841F400710160016841F47D
:100D500080610160016841F480710160032000F04E
:100D60006FF80F2000F006F800F024F8002010BD06
:100D7000003C024070B50D4D04464FF47A7128785E
:100D8000B1FBF0F00A490968B1FBF0F000F00AFB92
:100D900048B9102C07D200222146501E00F030F82E
:100DA00000206C6070BD012070BD00005400002068
:100DB000600000200A4808B5016841F480410160E4
:100DC000006800F4804000900548001F016841F071
:100DD00080510160006800F08050009008BD000064
:100DE00044380240002809DB00F01F020121914035
:100DF0004009800000F1E020C0F8001170470000B9
:100E0000F0B40E4B1B680C46C3F30223C3F1070575
:100E1000042D00D90425191D072901D2002300E063
:100E2000DB1E012606FA05F1491E214099409E402D
:100E3000761E16403143F0BC03F042BB0CED00E0DF
:100E4000064900F0070208684FF6FF03184040EA21
:100E50000220034A10430860704700000CED00E0D8
:100E60000000FA052DE9F0470E46050065D0DFF8D1
:100E70001481D8F80000F7B200F00700B04207D2A2
:100E800088F80070D8F8000000F00700B04254D194
:100E900028683D4C810712D5400703D5206840F4EF
:100EA000E05020602878000703D5206840F46040B7
:100EB00020602068A96820F0F000084320602878AE
:100EC000C0072DD0304968680839012812D002289F
:100ED00013D0032811D00968890700292DDA216869
:100EE00021F0030101432160FFF74CFD814641F2EF
:100EF000883A0EE009688903EFE709688901ECE7A1
:100F0000FFF740FDA0EB0901514502D90320BDE8E0
:100F1000F0872068696800F00C00B0EB810FEFD11A
:100F2000D8F80010404601F00701B14207D9077018
:100F3000006800F00700B04201D00120E7E7287800
:100F4000400705D52068E96820F4E0500843206098
:100F50002878000706D52068296920F4604040EA17
:100F6000C100206000F038F82168084AC1F303117D
:100F7000515CC8400649086006480068FFF7FAFE61
:100F80000020C4E7003C02400838024082670008A5
:100F900060000020580000200448054900680968E6
:100FA000044AC1F38221515CC840704760000020B0
:100FB000083802409267000804480549006809683B
:100FC000044AC1F34231515CC840704760000020C0
:100FD0000838024092670008154810B5006810F004
:100FE0000C02144813D04110042A0FD0082A0ED145
:100FF0000F4C241F2268236802F03F025B0207D5D2
:101000002068C0F38810A0FB010106E0084610BD6F
:101010002168C1F38811A1FB00010023FFF734F917
:101020002168C1F30141491C4900B0FBF1F010BD3A
:10103000083802400024F4002DE9F84F04006ED077
:101040002078DFF84C93C007A9F104054AD009F1D4
:1010500004000168C1F38101012908D00068C0F3D0
:10106000810002280AD1D9F80000400206D528687C
:10107000800337D560680028E1D033E06068B0F5C0
:10108000803F10D0B0F5A02F286810D020F4803019
:101090002860286820F4802028606068A8B1FFF7E5
:1010A00071FC06460DE0286840F48030F4E740F417
:1010B00080202860F7E700BFFFF764FC801B6428EE
:1010C00073D828688003F7D50CE0FFF75BFC064671
:1010D00005E000BFFFF756FC801B6428F0D82868A5
:1010E0008003F7D42078DFF8AC8280074FF0000A45
:1010F0003ED5A748001D016811F00C0F08D000680C
:10110000C0F3810002280BD1D9F80000400207D4B7
:101110002868800716D5E068012800D112E033E185
:10112000E068B8B10120C8F80000FFF72BFC0646C4
:1011300005E000BFFFF726FC801B0228C0D8286806
:101140008007F7D52868216920F0F80040EAC1003F
:1011500028600DE0C8F800A0FFF714FC064604E084
:10116000FFF710FC801B02281FD828688007F7D4DF
:101170002078000722D5864F87486169703771B1A2
:1011800001210160FFF7FEFB064604E0FFF7FAFBD2
:10119000801B022809D838688007F7D50EE0C0F810
:1011A00000A0FFF7EFFB064605E082E0FFF7EAFB51
:1011B000801B02287DD838688007F7D42078400744
:1011C00068D5DFF8CCB100270BF13C0BDBF8000051
:1011D000C0000BD4DBF8001041F08051CBF80010B8
:1011E000DBF80000012700F0805000906B4E306863
:1011F000C00510D4306840F480703060FFF7C2FB47
:10120000009005E0FFF7BEFB0099401A022850D875
:101210003068C005F6D55E4EA0686C3601280FD048
:101220000528306810D020F001003060306820F0D0
:1012300004003060A068B8B1FFF7A4FB00900FE095
:10124000306840F00100F4E740F004003060F7E758
:10125000FFF798FB0099411A41F28830814266D825
:1012600030688007F4D50EE0FFF78CFB009007E0B4
:10127000FFF788FB0099411A41F28830814256D825
:1012800030688007F4D42FB1DBF8001021F08051D2
:10129000CBF80010A069C8B33D49091D0968C1F326
:1012A000810102294AD00228504607D0C8F86000C0
:1012B00000E03CE0FFF766FB04463BE04746C8F829
:1012C0006000FFF75FFB064605E000BFFFF75AFB33
:1012D000801B02282BD828688001F7D4D4E90701A5
:1012E0000843A16A2E4A490802EB0141626A41EAB9
:1012F0008211084394F82C1040EA0161C9F80010EB
:1013000001203866FFF73EFB044606E03EE000BFE2
:10131000FFF738FB001B022809D828688001F7D5A1
:1013200034E000BFFFF72EFB001B022802D9032088
:10133000BDE8F88F28688001F4D427E00128F7D0B1
:10134000D9F80000E26900F4800191421CD1226AC0
:1013500000F03F01914217D147F6C071626A014027
:10136000B1EB821F10D1A26A4FF0FF3300F440317D
:1013700003EB5202B1EB024F06D194F82C1000F0AF
:101380007060B0EB016F01D00120D1E70020CFE702
:101390000438024000004742800E4742007000407F
:1013A0000000FFFF10B5401EB0F1807F01D3012087
:1013B00010BD4FF0E02460610F21601703F080F84A
:1013C0000020A06107202061002010BD70477047F9
:1013D00070B590F83C20012A32D0012480F83C40BE
:1013E000022280F83D2003685A689D6822F070064A
:1013F0000A6832435A60134B02689A4214D0B2F121
:10140000804F11D0104B9A420ED0104B9A420BD005
:101410000F4B9A4208D00F4B9A4205D00E4B9A427E
:1014200002D00E4B9A4204D1496825F0800319433B
:10143000916080F83D40002180F83C10084670BD66
:10144000022070BD00000140000400400008004080
:10145000000C004000040140004001400018004022
:1014600010B5040003D094F83D0010B107E001204E
:1014700010BD002084F83C00204600F01FF8022038
:1014800084F83D00211D206802F0ACFC012084F8A6
:10149000460084F83E0084F83F0084F8400084F859
:1014A000410084F8420084F8430084F8440084F842
:1014B000450084F83D00002010BD000008B501681B
:1014C0002B48B1F1804F11D02A4A91421DD10168B9
:1014D00041F0020101600068002200F0020000906B
:1014E00011461D20FFF78CFC1D203BE0016841F0F8
:1014F000010101600068002200F001000090114627
:101500001C20FFF77DFC1C202CE019481A4A001D06
:10151000914216D1016841F0020101600068002289
:1015200000F00200009011462B20FFF769FC2B20F1
:10153000FFF758FC002211462C20FFF761FC2C20FD
:1015400010E00E4A914211D1016841F480310160EE
:101550000068002200F48030009011461820FFF748
:101560004FFC1820BDE80840FFF73CBC08BD000058
:1015700040380240000400400004014000400140A7
:1015800090F83D10012901D001207047022180F818
:101590003D1000681149884214D0B0F1804F11D03D
:1015A0000F4988420ED00F4988420BD00E4988421D
:1015B00008D00E49884205D00D49884202D00D4915
:1015C000884204D1816801F00701062903D001682F
:1015D00041F001010160002070470000000001405F
:1015E0000004004000080040000C004000040140DE
:1015F000004001400018004090F83D10012901D042
:1016000001207047022180F83D100168CA6842F04D
:101610000102CA6000681149884214D0B0F1804FBD
:1016200011D00F4988420ED00E4988420BD00E4986
:10163000884208D00D49884205D00D49884202D021
:101640000C49884204D1816801F00701062903D0C2
:10165000016841F001010160002070470000014075
:101660000004004000080040000C0040000401405D
:10167000004001400018004001680A6A41F211135D
:101680001A4207D10A6A9B101A4203D10A6822F053
:1016900001020A60012180F83D100020704770B5FA
:1016A000044690F83C000025012817D0012684F854
:1016B0003C60022084F83D002068826822F07702B6
:1016C00022F47F4282600868502838D00DDC202840
:1016D0004FD005DC90B3102811D14AE0022070BD34
:1016E000302846D040280AD13BE060282FD070280F
:1016F0000DD0B0F5805F03D0B0F5005F12D00125AA
:1017000084F83D60002084F83C00284670BDCB681A
:10171000D1E90121206802F0DEFB2068816841F0F8
:10172000770109E0CB68D1E90121206802F0D3FB01
:101730002068816841F480418160E1E719E0CA686E
:101740004968206802F09CFC5021206806E0CA68C5
:101750004968206802F0A5FC6021206802F0C5FB02
:10176000CEE7CA684968206802F08AFC40212068F8
:10177000F4E7226801461046F0E72DE9F0410D46F6
:10178000040003D094F83D0018B108E00120BDE842
:10179000F081002084F83C00204600F041F802204F
:1017A00084F83D002068816844F20702914381601B
:1017B000211D206802F016FB226890689169166A64
:1017C0002B68AF69034340F20330814341EA0721AC
:1017D000A868EF6908434FF6FC418843E96840EA8E
:1017E0000720014328692F6A000140EA07300843B7
:1017F00069686D6926F0AA0646EA051529439360D3
:101800002268906154F8460B0162012004F81F0918
:10181000E0752076E0762077A0750020B7E700001D
:1018200030B587B0044614216846FEF7C6FD21484E
:1018300024681F4D00221F4910380223AC4217D1E3
:101840000C6844F004040C60096801F0040105917F
:10185000016841F0080101600068694600F0080075
:1018600005904FF440500090CDE90132124818E045
:10187000124DAC4219D10C6844F008040C600968A0
:1018800001F008010591016841F001010160006863
:10189000694600F00100059003200090CDE9013277
:1018A0000748CDE90323FEF76BFF07B030BD00000A
:1018B0000008004040380240000C0240000C00408C
:1018C0000000024070B590F83E60044690F83F502A
:1018D00090F8423090F84320022021B104290ED024
:1018E000012E1BD114E0012E18D1012B16D184F842
:1018F0003E0084F8420001220021206820E0012DF2
:101900000CD1012A0AD184F83F0084F8430014E086
:10191000012D03D1012B01D1012A01D0012070BD7D
:1019200084F83E0084F83F0084F8420084F84300C5
:1019300001220021206802F0C1FA0122042120685E
:1019400002F0BCFA2068016841F00101016000204A
:1019500070BD70472DE9F04104460068C66805690E
:101960004FF00007A90713D5B10711D5F91E016182
:1019700001202077206880698007204602D0FFF789
:10198000E8FF04E000F0A6F8204600F038F92777D9
:10199000680716D5700714D521686FF00400086138
:1019A000022020772068806910F4407F204602D012
:1019B000FFF7CFFF04E000F08DF8204600F01FF99C
:1019C0002777280715D5300713D521686FF0080051
:1019D0000861042020772068C0698007204602D073
:1019E000FFF7B7FF04E000F075F8204600F007F9B4
:1019F0002777E80616D5F00614D521686FF0100099
:101A00000861082020772068C06910F4407F2046D4
:101A100002D0FFF79EFF04E000F05CF8204600F0E3
:101A2000EEF82777E80708D0F00706D021686FF0B6
:101A300001000861204600F047F9280608D5300665
:101A400006D521686FF0800008612046FFF7BEFCD4
:101A5000680608D5700606D521686FF04000086159
:101A6000204600F055FAA8060AD5B00608D5216828
:101A70006FF0200008612046BDE8F041FFF7A7BCE9
:101A8000BDE8F08110B586B0044614216846FEF723
:101A900094FC0D492068884214D10C48002102684A
:101AA00042F002020260006800F00200059003208C
:101AB00000900220CDE90101CDE9031069460448F8
:101AC000FEF75EFE06B010BD000400403038024054
:101AD00000040240704770B5044690F83C000026B0
:101AE0000D4601280FD0012084F83C006AB1042A79
:101AF0001DD0082A2FD00C2A3FD00126002084F8C0
:101B00003C00304670BD022070BD206802F0F6F93E
:101B10002068816941F0080181612068816921F0B4
:101B200004018161206881692A69114311E02068FC
:101B300002F014FA2068816941F400618161206833
:101B4000816921F480618161206881692A6941EAA3
:101B500002218161D2E7206802F036FA2068C1696B
:101B600041F00801C1612068C16921F00401C1612F
:101B70002068C1692A69114311E0206802F058FA0F
:101B80002068C16941F40061C1612068C16921F424
:101B90008061C1612068C1692A6941EA0221C1618D
:101BA000ACE710B5040003D094F83D0010B107E095
:101BB000012010BD002084F83C00204600F01EF8F3
:101BC000022084F83D00211D206802F00BF901205D
:101BD00084F8460084F83E0084F83F0084F8400012
:101BE00084F8410084F8420084F8430084F84400FB
:101BF00084F8450084F83D00002010BD7047704710
:101C000010B50446022249B104290ED0082913D088
:101C100094F84100012816D0012010BD94F83E0030
:101C20000128F9D184F83E200FE094F83F00012804
:101C3000F2D184F83F2008E094F840000128EBD16D
:101C400084F8402001E084F841200122206802F05D
:101C500035F916492068164A884201D0904203D1CE
:101C6000436C43F4004343642068884213D0B0F1CE
:101C7000804F10D00F4988420DD00F4988420AD0BA
:101C80000E49884207D0904205D00D49884202D0C3
:101C90000C49884204D1816801F00701062903D06C
:101CA000016841F001010160002010BD0000014009
:101CB000000401400004004000080040000C004007
:101CC00000400140001800402DE9F0410646006840
:101CD0007049DFF8C481714D714C884212D10021E6
:101CE000206903F059FD6F4F386801280AD101F0CF
:101CF00051FF00206C493860C8F8000008606B494B
:101D0000286008606A49306888427DD16948006867
:101D1000406A606568480068406AA06528680128D4
:101D200001D0022802D10121C8F8001094ED110A57
:101D3000F8EEC00A9FED610A02F05EFB6049E065C3
:101D4000F0EE000A09689FED5F1A9FED5F0A5F4D94
:101D50005F4A632903D05F4B1B68022B01D11368D4
:101D60003BB15D4B012927D00A2925D0062923D074
:101D700056E0122952D0A26C216C891A2166C4ED5A
:101D8000070A84ED081A84ED090A04F0A8F90E4642
:101D900046EC100B04469FED511B51EC100B53EC1D
:101DA000112B03F027FF04F06DF92968086446EC55
:101DB000104B9FED4C1B24E0166836BB1E68022EAC
:101DC0002EDDF1EE000AC4ED070ADFED480AC4ED8E
:101DD000080A84ED090A04F082F90E4646EC100B5D
:101DE00004469FED431B51EC100B53EC112B03F0F9
:101DF00001FF04F047F92968086446EC104B9FED99
:101E00003E1B53EC112B01E008E009E051EC100BF4
:101E100004F07AFA04F036F92968C863BDE8F08165
:101E2000012903D00A2901D0062921D11268FAB963
:101E30001A68022A1CDCC4ED070A84ED081A84ED36
:101E4000090A04F04CF90E4646EC100B9FED2C1BD2
:101E5000044653EC112B51EC100B03F0CBFE04F0B5
:101E600011F92968086446EC104B9FED271BC8E761
:101E70001229D3D00629D1D0C4ED070A84ED081A5F
:101E800084ED090A296840F6AC00086440F6241085
:101E9000C2E70000000401404C00002018000020B0
:101EA000E800002054010020240000200C00002045
:101EB000004001404C0300200403002000000043C8
:101EC00004000020CDCC4C3E00000000BC020020ED
:101ED0005C010020580100202800002000000000C4
:101EE0000004AA4000000000006CAB40CDCCCC3E0A
:101EF000000000000011B24000000000000BB340E1
:101F00000000000000AEA5400000000000DAA6407E
:101F100070477047704710F8411F4078084370477A
:101F2000F8B5016804460868CA684B6910F00F0FDD
:101F30004FF0000559D003F0010602F490773743C3
:101F400065D0C10705D0D10503D5616C41F0010111
:101F50006164410705D5D90703D0616C41F00201E6
:101F60006164810705D5D90703D0616C41F0040194
:101F70006164010707D502F02001314303D0616C91
:101F800041F008016164616C00293AD0800604D5F3
:101F9000900602D5204602F0C5F820684069616CC1
:101FA000C0F38010090700D460B3204602F093F814
:101FB00020684069400621D52068143050E8001F91
:101FC00021F0400140E80012002AF5D1E06BA8B1F1
:101FD0006E490165E06BFEF7AEFB002811D0E06BA7
:101FE000016D01B0BDE8F040084783060FD59306A8
:101FF0000DD52046BDE8F84002F094B82046FFF722
:1020000089FFF8BD2046FFF785FF6564F8BD266BA4
:102010002023012E7DD1C6067BD5D60679D508684A
:102020004868009048694FF00206400641D5E16BD0
:10203000086840680004000CE8D0A28D8242E5D90F
:10204000E085C869B0F5807F2DD020680C3050E85D
:10205000001F21F4807140E80012002AF5D12068A9
:10206000143050E8001F21F0010140E80012002A5E
:10207000F5D12068143050E8001F21F0400140E8FD
:102080000012002AF5D184F84230256320680C3014
:1020900050E8001F21F0100140E80012002AF5D19D
:1020A000E06BFEF7FFFA6663A08DE18D401A81B206
:1020B0002AE0A08DE18D401A81B2E08D0028A5D0E4
:1020C0000029A3D022680C3252E8000F20F490704F
:1020D00042E80007002FF5D12068143050E8002FA7
:1020E00022F0010240E80027002FF5D184F84230A9
:1020F000256320680C3050E8002F22F0100240E8E1
:102100000023002BF5D166632046FFF702FFF8BDE0
:10211000FFE705062BD5150629D594F8410021289F
:10212000F5D1A068B0F5805F01D12069B0B1206A17
:10213000411C2162216800784860E08C401E000448
:10214000000CE084E3D12068C16821F08001C16007
:102150002068C16841F04001C160D8E7206A00886A
:10216000C0F308004860206A801C2062E5E7400652
:10217000CDD55006CBD5CA68204622F04002CA60B1
:1021800084F8413000F09EFAC1E70000C740000823
:1021900070B5040004D094F84100002510B106E0A9
:1021A000012070BD84F84050204600F023F8242020
:1021B00084F841002068C16821F40051C1602046C4
:1021C00002F012F82068016921F490410161206851
:1021D000416921F02A0141612068C16841F4005140
:1021E000C1606564202084F8410084F84200656382
:1021F000002070BDF0B587B0044614216846FEF794
:10220000DCF84F484D4B266800214D4A1438022413
:10221000032507274FF0C00C9E421FD1136843F0DF
:1022200010031360126802F010020592026842F077
:1022300002020260006802AB00F00200059083E831
:10224000A200CDE900C469463E48FEF799FA002293
:1022500011462520FEF7D4FD252025E0384BDFF878
:10226000E8E01B1F764523D11A6842F400321A6059
:102270001A6802F400320592026842F0010202601C
:10228000006802AA00F00100059082E8A2000C207C
:10229000CDE9000469462D48FEF772FA0022114686
:1022A0002620FEF7ADFD2620FEF79CFD07B0F0BD11
:1022B000DFF89CE0764521D11A6842F480221A604A
:1022C0001A6802F480220592026842F00802026055
:1022D000006802AA00F00800059082E8A2004FF40E
:1022E0004070CDE9000469461A48FEF749FA002219
:1022F00011462720FEF784FD2720D5E7164B9E4286
:10230000D4D1136843F020031360126802F0200256
:102310000592026842F0040202600068CDF800C035
:1023200000F004000590CDE901410820CDE90350FB
:1023300069460A48FEF724FAB8E700000010014099
:1023400044380240000402400044004000000240C3
:1023500000480040000C0240001401400008024008
:1023600090F84230202B01D00220704721B11AB1E1
:102370000023036301F0BEBF012070472DE9F04741
:1023800007469C48022600259B4C4FF003094FF05E
:102390000108874239D1214623780879DFF85CC2E9
:1023A0000A894BB10989491C89B2012B0BD0022B38
:1023B00010D0032B23D01FE0F3281DD10CF802000E
:1023C00084F8008018E0F42816D10CF8020021816E
:1023D000267011E00CF802000CEB0100218110F8CE
:1023E000011CF52908D1864A10F8031D11608549A2
:1023F0004078086084F800902089C72805D9258195
:10240000C8217E48FDF7B7FF25707F4887423BD142
:1024100079487A4A94F801C041894379481CC83206
:1024200080B2BCF1000F03D0BCF1010F0ED003E06D
:102430005354608184F801806089C7281AD96F4895
:10244000C821C830FDF797FF65811DE053546081B6
:1024500018B912F8011C122916D11044C82110F81D
:10246000020C3038206165486581C830FDF783FF74
:10247000667002E06078022806D160486581C82154
:10248000C830FDF778FF6570604887423CD15A49F3
:10249000A378DFF87CC188798A894BB18989491C86
:1024A00089B2012B0BD0022B10D0032B26D022E0B7
:1024B0002C2820D10CF8020084F802801BE012289E
:1024C00019D10CF80200A181A67014E00CF80200EA
:1024D0000CEB0100A18110F8011C5B290BD110F855
:1024E000051D61644178A1648178E1644949C0783F
:1024F000086084F80290A089C72805D9A581C82161
:102500004348FDF738FFA5704348874258D1E0782B
:10251000411CE1704FF48071FF2805D33C48E57001
:10252000C830FDF728FF4BE03C4AA069E37913541B
:10253000401CA0610A2B3ED166619FED390AF2EE84
:10254000040A84ED140A401E0CE0935DF0EE401A7C
:10255000303B01EE103A761CB8EEC11AB0EE410ADB
:1025600001EEA00A8642F0DB84ED140AC4E9056599
:1025700050783A281FD11078442811D006DC412821
:1025800011D0422812D0432815D112E0492804D096
:10259000502810D184ED0A0A0DE084ED0B0A0AE000
:1025A00084ED0C0A07E084ED0D0A04E084ED0E0AC8
:1025B00001E084ED0F0A1648C830FDF7DCFEE57037
:1025C0000D490122091D0B48FFF7CAFE0A490122E5
:1025D000491D0D48FFF7C4FE07490122891D0B481C
:1025E000FFF7BEFEBDE8F04703490122C91D0A48B6
:1025F000FFF7B6BE24040020E80000205C050020A0
:10260000400000203C0000206C040020B4040020A6
:10261000EC06002018000020FC040020B408002074
:10262000000000002DE9F843044690F84100984668
:1026300016460D46202802D00220BDE8F88385B159
:102640007EB100206064212084F84100FEF79AF9F1
:10265000A6848146E684A0682027B0F5805F02D07A
:1026600003E00120E9E7206910B12E4600250EE0C5
:1026700000260CE08021204601F057FEA8B9C6B123
:1026800016F8010B21684860E08C401EE084E08C65
:102690004B464FF00002CDF800800028EAD14FF001
:1026A0004001204601F041FE40B184F84170032012
:1026B000C3E735F8020BC0F30800E3E784F8417084
:1026C0000020BAE77047FEE701684A69D243520525
:1026D0000FD46FF480624A61002140F8301F20223D
:1026E00042738173026942F00402026101730120A6
:1026F00070470020704700002DE9F8430446006849
:102700000D46DDE9089701689846164641F4807148
:1027100001604B4600224FF001112046009700F067
:102720006BF848B120680068C00502D54FF400700E
:1027300020640320BDE8F883216805F0FE000861ED
:102740003B464A461549204600F09EF888B9206865
:102750004169806900903A464946204600F0F2F807
:1027600048B1206C042804D12068016841F400714C
:1027700001600120DEE7F5B2B8F1010F09D0216850
:10278000300A08613A464946204600F0DBF8002846
:10279000E7D1206805610020CCE7000002000100BD
:1027A00070B516460D4604461EE02046FFF78CFF26
:1027B00008B1012070BD681C16D0FEF7E3F8801B3D
:1027C000A84200D885B920684069C04340070BD5AE
:1027D000002044F8300F20216173A073216941F07B
:1027E000200121612073E4E720684069C04340076D
:1027F000DBD4002070BD00002DE9F0479846174655
:102800000D460446C1F30746DDF820902AE000BFDC
:10281000B8F1FF3F26D0FEF7B5F8A0EB090141451E
:1028200002D8B8F1000F1DD12068012E16D08069A2
:1028300025EA00000004000C12D00020B84211D19B
:10284000002044F8300F20216173A073216941F00A
:102850002001216120730120BDE8F0874069E7E78E
:102860000120EBE72068012E0AD0806925EA0000EC
:102870000004000C06D00020B842C9D00020EBE7CD
:102880004069F3E70120F7E72DE9F047984616463F
:102890000D4604464FF000094FF0200AC1F30747E8
:1028A00023E020684069C043400515D420680168D2
:1028B00041F40071016021686FF480604861C4F8E0
:1028C000309084F83DA084F83E90216C41F00401E2
:1028D000216484F83C9021E0701C06D0FEF752F889
:1028E000A0EB0800B04203D816B1012F1FD021E0A1
:1028F0002068012F15D0806925EA00000004000C33
:1029000018D000BF44F8309F84F80DA084F80E90D2
:10291000216941F02001216184F80C900120BDE87B
:10292000F087406925EA00000004000CEAD1206825
:10293000406901E02068806925EA00000004000C7D
:10294000AFD1ECE770B516460D4604461EE02046B2
:10295000FFF7BAFE08B1012070BD681C16D0FEF763
:1029600011F8801BA84200D885B920684069C0438F
:1029700000060BD5002044F8300F20216173A073AE
:10298000216941F0200121612073E4E7206840695A
:10299000C0430006DBD4002070BD00002DE9F05FCD
:1029A0000024A146C84646463546DFF87CB1AA4613
:1029B000274600BFFDF766FEBBF9001000EE104A87
:1029C00000EE901ABBF902105846F8EEE00A7F1CA0
:1029D000032F30EE200A00EE901ABBF9041010EE1F
:1029E000104AF8EEE00A00EE109A30EE200A00EEEF
:1029F000901AB0F9061010EE109AF8EEE00A00EE08
:102A0000108A30EE200A00EE901AB0F9081010EE8D
:102A1000108AF8EEE00A00EE106ABBF90A0030EE08
:102A2000200A00EE901A10EE106AF8EEE00A00EEAE
:102A3000105A30EE200A00EE900A10EE105AF8EE0E
:102A4000E00A00EE10AA30EE200A10EE10AAB1DB68
:102A500000EE906AB0EE080A01EE904A80EE803AED
:102A600000EE905A02EE109A03EE908A584680EEDD
:102A7000801A00EE90AA8BED0D3AC0EE802A8BED05
:102A80000E1AC1EE800ACBED0F2AC2EE001ACBED72
:102A9000150A83EE802ACBED161A8BED172A90EDDE
:102AA000060A33EE403A80ED183A90ED070A31EE0F
:102AB000401A80ED191A90ED080A72EEC02A9FEDB7
:102AC0001B0AC0ED042A23EE003A21EE001A22EE82
:102AD000800A80ED133A80ED141A80ED030A9FED11
:102AE000140AD0ED1A2A20EE801ADFED120A61EEE8
:102AF000801A22EE000A02EEA01A80ED101AD0ED24
:102B00001B2A42EEA01AC0ED111A90ED052A02EE22
:102B1000200A80ED120A80ED1A1AC0ED1B1A8BED07
:102B2000050ABDE8F09F000064000020616B8B3A4D
:102B30006666263F3333B33E00B5B0EE414A2DED15
:102B4000048BF0EE603AB0EE403ADFED604A604A46
:102B500002F1800392ED0B0A92ED1F1AD3ED000AE9
:102B600020EE005A60EE018A20EE206A92ED0C0AF7
:102B700061EE017A20EEA08A21EE009A60EE805A82
:102B800020EE007A21EEA10A02EE020A02EEA20A6B
:102B900002F09EF939EE461A61EE806A22EE002AB2
:102BA00062EE800AB0EE000A61EE001A38EEA51A55
:102BB00021EE001A35EE670A92ED1C5A30EE480AF3
:102BC00070EE072A22EE220A00EEC10A26EE811AD2
:102BD00060EEA10A02EE611ADFED3E1A46EEE20A4D
:102BE00000EE215A82ED1C5A92ED1D2A00EEA12A18
:102BF00082ED1D2AD2ED1E2A41EE212AC2ED1E2AA7
:102C0000D2ED091A01EE803A92ED0A0A41EEA03A9D
:102C1000D2ED1F0A01EE814A93ED001A00EE053A4B
:102C2000D2ED0C1A40EE023A00EE224A92ED0B0A67
:102C300020EEC32A01EE632A01EEC42A02EE240A22
:102C400082ED0B0A20EE032A01EE042A01EEE32AAC
:102C500042EE240A20EE232AC2ED1F0A00EEC42A07
:102C600001EE832A02EE241A20EE042A20EE000A46
:102C700000EEA32A00EEA00A83ED001A01EE432A1B
:102C800001EE010A42EE241AC2ED0C1A01EEA10A6D
:102C900002F01EF9D2ED0B0A60EE800AC2ED0B0ABB
:102CA000D2ED1F0A60EE800AC2ED1F0AD3ED000AC2
:102CB00060EE800AC3ED000AD2ED0C0A20EE800A15
:102CC00082ED0C0ABDEC048B00BD00000AD7A33BCB
:102CD000640000200AD7233C10B5064C00220121D5
:102CE0002046FDF74AFE20460122BDE8104004219F
:102CF000FDF743BE0008024010B50B4C0022012135
:102D00002046FDF73AFE012202212046FDF735FE5E
:102D1000002204212046FDF730FE20460022BDE8B7
:102D200010400821FDF729BE0008024010B5064CEE
:102D3000012211462046FDF720FE20460022BDE874
:102D400010400421FDF719BE000802402DE9F05F94
:102D5000DFF8AC916B480126C9F8086000680128CB
:102D60007ED1694D694F00202860694C396809B9E6
:102D700020603E60DFF89C81D8F80000012803D075
:102D8000032801D016280AD12068012802DB386800
:102D9000012812D0FDF766FC2068401C2060DFF897
:102DA00078A14FF4926BDAF800001F3858456CD8C0
:102DB000D8F80000052816D029E000F005FFC8204B
:102DC000FDF7CCFC002105202E6002F0E5FCD8F8D0
:102DD0000010162905D00329E1D10421C8F80010FC
:102DE000DDE70221FAE72068072802DB38680128BE
:102DF00012D02868002848D1FDF734FC2068401C18
:102E0000C4F80000DAF800001F3858453DD8D8F85B
:102E100000000D2812D026E000F0D6FEC820FDF7F5
:102E20009DFC002105202E6002F0B6FCD8F80010B1
:102E30000529E7D10621C8F80010E3E72068032838
:102E400002DB3868012822D0286800281DD1FDF750
:102E500009FC2068401C2060DAF800001F3800E000
:102E600013E0584511D8D8F800000F280DD120687C
:102E7000022802DB3868012826D02868002804D1FF
:102E8000FDF7F0FB2068401C2060BDE8F09F00F0DB
:102E90009BFEC820FDF762FC002105202E6002F099
:102EA0007BFCD8F800000D2806D10E20C8F80000E1
:102EB0000021052002F070FCD8F800000F28CBD1CB
:102EC0000720C9F80400C7E700F07EFEC820FDF720
:102ED00045FC002105202E6002F05EFCD8F80000C1
:102EE00044460D2805D10E2020600021052002F067
:102EF00053FC20680F28C8D10720C9F80400C4E794
:102F0000540100204C0000201C0000202400002060
:102F10005000002004000020440000207CB514462E
:102F20000D4606466B4606223B21682000F032FA29
:102F300000280BD1BDF8001049BA3180BDF802104D
:102F400049BA2980BDF8041049BA21807CBD7CB5FE
:102F500014460D4606466B4606224321682000F0C3
:102F600019FA00280BD1BDF8001049BA3180BDF81C
:102F7000021049BA2980BDF8041049BA21807CBDED
:102F800008B56B4602224121682000F003FABDF823
:102F9000000040BA00B203F0A2F89FED0D1B53EC05
:102FA000112B02F0DBFE9FED0C1B53EC112B02F0FA
:102FB00021FE02F0EDFD00EE100ADFED090A20EE21
:102FC000200ABDEEC00A10EE100A00B208BD0000D3
:102FD0000000000000407540A4703D0AD743424005
:102FE0000000C8422DE9F041134D4FF40074002257
:102FF00021462846FDF7C1FC022001F045FF0122D1
:103000000E4F160231463846FDF7B7FC022001F09C
:103010003BFF002231463846FDF7AFFC022001F0AD
:1030200033FF012221462846FDF7A7FCBDE8F04109
:10303000022001F029BF0000000802400000024009
:1030400000B587B014216846FDF7B7F91448016848
:1030500041F002010160016801F00201059101687F
:1030600041F0020101600068694600F0020005902D
:103070004FF4807000900120019002900220039094
:103080000848FDF77DFB4FF400700090112001907F
:1030900069460548FDF774FB00F0C2F807B000BDB3
:1030A00030380240000002400008024070B50122A2
:1030B00051020D48FDF761FC022001F0E5FE0122FE
:1030C0000A4D140221462846FDF757FC022001F064
:1030D000DBFE002221462846FDF74FFCBDE870408C
:1030E000022001F0D1BE00000008024000000240B2
:1030F0002DE9F0470024DFF860A0184F80462546F0
:103100004FF400794FF480766006040E01223146B8
:103110003846FDF732FC022001F0B6FE4946504623
:10312000FDF726FC08B1641CE4B2002231463846A3
:10313000FDF723FC022001F0A7FE6D1CEDB2082D67
:10314000E2D3B8F1000F04D0FFF74CFF2046BDE8F2
:10315000F087FFF7ABFFF9E70008024000000240EC
:103160002DE9F047DFF85C90174F054600244FF437
:1031700000784FF48076280601D5012200E0002275
:1031800041464846FDF7F9FB022001F07DFE012291
:1031900031463846FDF7F1FB022001F075FE0022B2
:1031A00031463846FDF7E9FB6806641C050EE4B2BB
:1031B000082CE0D341464846BDE8F0470122FDF720
:1031C000DCBB000000080240000002402DE9F04195
:1031D0000122114D540221462846FDF7CEFB012263
:1031E0000E4F160231463846FDF7C7FB022001F0AC
:1031F0004BFE002221462846FDF7BFFB022001F0CE
:1032000043FE002231463846FDF7B7FBBDE8F041EA
:10321000022001F039BE0000000802400000024018
:1032200070B50E4D4FF40074002221462846FDF77C
:10323000A4FB022001F028FE012211020848FDF73C
:103240009CFB022001F020FE012221462846FDF7CA
:1032500094FBBDE87040022001F016BE0008024059
:10326000000002402DE9F0470122184F00245602C9
:10327000254631463846FDF780FB022001F004FE6A
:10328000DFF84C904FF48078012241464846FDF724
:1032900074FB022001F0F8FD07E0641CE4B2FA2C94
:1032A00003D9FFF7BDFF012505E031463846FDF79C
:1032B0005FFB0028F1D1002241464846FDF75DFB47
:1032C000022001F0E1FD2846BDE8F0870008024039
:1032D0000000024010B50122D1021E48FDF74DFB4F
:1032E000FFF7AEFE80216B2000F0C3F86420FDF7ED
:1032F00035FA00216B2000F0BCF8032000F085F8BF
:10330000002000F07DF8322000F09CF800213820E9
:1033100000F0AFF800216A2000F0ABF80021232074
:1033200000F0A7F88021372000F0A3F8752000F006
:1033300013F8682801D0012010BD01216B2000F096
:1033400098F800216C2000F094F8322000F07AF810
:10335000002010BD0004024010B50446FFF736FF00
:10336000D020FFF7FDFEFFF77DFF2046FFF7F8FEB8
:10337000FFF778FFFFF72AFFD120FFF7F1FEFFF7F5
:1033800071FF0020FFF7B4FE0446FFF749FF204617
:1033900010BD00002DE9F0411D4614460F460646BB
:1033A000FFF714FF7006000EFFF7DAFEFFF75AFF73
:1033B00020B1FFF735FF0120BDE8F0813846FFF767
:1033C000CFFEFFF74FFFFFF701FF012000EB4600A4
:1033D000C0B2FFF7C5FEFFF745FF09E0012C0DD095
:1033E0005FF00100FFF784FE641E05F8010BE4B2F4
:1033F000002CF3D1FFF714FF0020DDE70020F1E7F8
:10340000C006010E1C2000F034B8C006010E1B20BF
:1034100000F02FB8BC2801D3012110E0622801D3AD
:1034200002210CE02A2801D3032108E0142801D34B
:10343000042104E00A2801D3052100E006211A2016
:1034400000F017B810B504464FF47A70844201D9E1
:10345000044602E0042C00D20424B0FBF4F0401E29
:10346000C1B2192000F005F86008BDE81040FFF770
:10347000D1BF70B50C460546FFF7A8FED020FFF778
:103480006FFEFFF7EFFE50B92846FFF769FEFFF722
:10349000E9FE2046FFF764FEFFF7E4FE18B1FFF7F0
:1034A000BFFE012070BDFFF7BBFE002070BD000015
:1034B0002DE9F04F87B014216846FCF77EFF47489E
:1034C0000024016841F010010160016801F0100161
:1034D0000591016841F080010160016801F08001FF
:1034E0000591016841F004010160016801F00401E7
:1034F0000591016841F001010160016801F00101DD
:103500000591016841F002010160016801F00201CA
:103510000591016841F0080101600068DFF8C08092
:1035200000F00800059000220F214046FDF725FA23
:10353000DFF8B0904FF4FF46002231464846FDF7D1
:103540001CFADFF8A4A04FF4406700223946504629
:10355000FDF713FADFF894B00022F0215846FDF78A
:103560000CFA0F2000900125CDE901546946404630
:103570000394FDF705F90096CDE9015469464846E4
:103580000394FDF7FDF80097CDE9015469465046D4
:103590000394FDF7F5F8CDE90054694658460294C6
:1035A000FDF7EEF80E208DE8310069465846FDF72C
:1035B000E7F81020CDE90005CDE9025469465846E8
:1035C000FDF7DEF8E0200090CDE901546946584649
:1035D0000394FDF7D5F807B0BDE8F08F303802400E
:1035E000000802400010024000040240000C0240AB
:1035F0000D4810B50B4901600C49416000214FF4A2
:1036000080428160C0E9031241618161C161016250
:10361000FDF7BEF9002803D0BDE81040FDF716B84D
:1036200010BD000000540040CC010020A086010025
:103630000D4810B50B4901600C49416000214FF461
:1036400080428160C0E9031241618161C161016210
:10365000FDF79EF9002803D0BDE81040FCF7F6BF47
:1036600010BD0000005C004020020020A086010088
:1036700010B586B000241648009401940294039477
:1036800004944FF08041059401605321C0E9011476
:1036900042F21071C0E903148461FDF7E1FE08B144
:1036A000FCF7D4FF4FF48050009069460848FDF7BE
:1036B000F6FF08B1FCF7CAFF049404A90448059476
:1036C000FDF786FE002801D0FCF7C0FF06B010BD54
:1036D0007402002010B58EB0002407940894099459
:1036E0000A940B941C2168460C94FCF766FE224851
:1036F000204901605321C0E9011442F20F71C0E971
:1037000003148461FDF7ACFE08B1FCF79FFF4FF492
:103710008050079007A91848FDF7C1FF08B1FCF7D2
:1037200095FF1548FEF73DFA08B1FCF78FFF0B94A3
:103730000BA911480C94FDF74BFE08B1FCF786FF6E
:103740006020CDE900040294082269460A480494E6
:10375000FEF7C1F908B1FCF779FF0C22694606486B
:10376000FEF7B9F908B1FCF771FF0348FEF78AF9D3
:103770000EB010BD00040040BC02002010B58CB09B
:1037800024216846FCF719FE0024164809941449C0
:103790000A94C0E900144FF6FF71C0E902410461C8
:1037A00084610320CDE900040120CDE902040494E2
:1037B000CDE90540079469460A480894FDF7DDFF06
:1037C00008B1FCF743FF099409A906480A94FDF7DC
:1037D000FFFD002801D0FCF739FF0CB010BD000040
:1037E000000800400403002010B58CB02421684676
:1037F000FCF7E3FD00241648099414490A94C0E933
:1038000000144FF6FF71C0E9024104618461032096
:10381000CDE900040120CDE902040494CDE905407E
:10382000079469460A480894FDF7A7FF08B1FCF71A
:103830000DFF099409A906480A94FDF7C9FD00285F
:1038400001D0FCF703FF0CB010BD0000000C0040DD
:103850004C03002010B586B0002417480094019452
:103860000294039404941349059401605321C0E920
:10387000011440F2E731C0E9031444618461FDF7AB
:10388000EFFD08B1FCF7E2FE4FF48050009069466E
:103890000948FDF704FF08B1FCF7D8FE049404A919
:1038A00005480594FDF794FD002801D0FCF7CEFEF5
:1038B00006B010BD00040140940300201FB5002194
:1038C00010480091019102910D4A03910260532228
:1038D000C0E901216322C0E903218161FDF7C0FD38
:1038E00008B1FCF7B3FE4FF48050009069460548DC
:1038F000FDF7D5FE002801D0FCF7A8FE1FBD000093
:1039000000400140DC0300200C4810B50A4901606A
:103910004FF4E1314160002181600C22C160C0E9B7
:1039200004128161C161FEF733FC002803D0BDE8B9
:103930001040FCF78BBE10BD001001402404002095
:103940000C4810B50A4901604FF41651416000213E
:1039500081600C22C160C0E904128161C161FEF77F
:1039600017FC002803D0BDE81040FCF76FBE10BD67
:10397000004400406C0400200C4810B50A49016066
:103980004FF4E1314160002181600C22C160C0E947
:1039900004128161C161FEF7FBFB002803D0BDE882
:1039A0001040FCF753BE10BD00480040B404002096
:1039B0000C4810B50A4901604FF4E1314160002123
:1039C00081600C22C160C0E904128161C161FEF70F
:1039D000DFFB002803D0BDE81040FCF737BE10BD68
:1039E00000140140FC040020FEE7FEE770B500244F
:1039F00004F1B000C0B200F0A7F8002000F0A4F875
:103A0000102000F0A1F80025002000F0AFF86D1C98
:103A1000EDB2802DF8D3641CE4B2082CE8D370BD5D
:103A200010B5C820FCF79AFEBDE8104000F0CABCF3
:103A300010B50446B031C8B200F086F8102040EA54
:103A4000141000F081F804F00F00BDE8104000F001
:103A50007BB800002DE9F041203A00240D46804655
:103A6000D6B27F2803D900208D1C8046EDB2102BE2
:103A700029460FD0FFF7DCFF164906EB460001EBA5
:103A80004005285D00F072F8641CE4B2062CF8D3FF
:103A9000BDE8F081FFF7CCFF0F4F00BF04EB06102D
:103AA000385C00F063F8641CE4B2082CF6D36D1C9B
:103AB000E9B24046FFF7BCFF5FF0000404EB0610DC
:103AC0003844007A00F052F8641CE4B2082CF5D3B4
:103AD000DEE700009A670008C26900082DE9F05F80
:103AE0000026DDF828901D4692468B4680463446D7
:103AF0004FEA590723E0281B401EC1B20A2001F0FB
:103B0000A3FFBAFBF0F00A21B0FBF1F201FB1200B7
:103B100026B9691E8C4201DA38B101263030C2B2B2
:103B200007FB0480C0B24B4604E007FB0480C0B230
:103B30004B4620225946FFF78DFF641CE4B2AC428D
:103B4000D9D3BDE8F09F000001B584B001214FF446
:103B5000807204A88DE807000B46002278210248F5
:103B6000FCF7DAFF05B000BDCC01002001B584B040
:103B700001214FF4807204A88DE807000B46402213
:103B800078210248FCF7C8FF05B000BDCC01002039
:103B90007047000010B50B4C002201212046FCF7B5
:103BA000ECFE002202212046FCF7E7FE0022042161
:103BB0002046FCF7E2FE20460022BDE81040082126
:103BC000FCF7DBBE0008024010B50B4C0122114689
:103BD0002046FCF7D2FE012202212046FCF7CDFE52
:103BE000012204212046FCF7C8FE20460122BDE840
:103BF00010400821FCF7C1BE0008024010B5064C79
:103C0000012202212046FCF7B8FE20460022BDE832
:103C100010400821FCF7B1BE000802407047F8B51B
:103C20000646002000906846FCF712FD4FF6FF752F
:103C30002B46012269463046FEF7F4FC3046FEF77B
:103C40006AF92128FAD06C462B4601223046611CC5
:103C5000FEF7E8FC3046FEF75EF92128FAD02B4645
:103C60000122A11C3046FEF7DDFC3046FEF753F979
:103C70002128FAD02B460122E11C3046FEF7D2FC67
:103C80003046FEF748F92128FAD0F8BDF8B50646C7
:103C900019A04FF6FF75006800902B460122694677
:103CA0003046FEF7BFFC3046FEF735F92128FAD042
:103CB0006C462B4601223046611CFEF7B3FC3046B1
:103CC000FEF729F92128FAD02B460122A11C304603
:103CD000FEF7A8FC3046FEF71EF92128FAD02B4645
:103CE0000122E11C3046FEF79DFC3046FEF713F939
:103CF0002128FAD0F8BD00000000807FFDF718B839
:103D000030B593B030216846FCF757FB14210CA85E
:103D1000FCF753FB1E480025016841F0805101600B
:103D2000006800F0805011901A48016841F4804109
:103D300001600068022400F480401190012000908E
:103D4000000401908001CDE90640082008904FF45E
:103D5000A870CDE9090404200B906846FDF76CF9C2
:103D600008B172B6FEE70CA90F2081E831004FF4CC
:103D7000A0500F904FF48050109005210CA8FDF733
:103D800071F8002801D072B6FEE713B030BD000014
:103D900040380240007000400248016841F4700160
:103DA0000160704788ED00E00148FDF7D3BD0000D9
:103DB000DC0300200148FDF7CDBD000074020020A7
:103DC0000148FDF7C7BD0000BC0200200148FDF717
:103DD000C1BD0000940300200148FDF7BBBD0000F9
:103DE00094030020F0B50268294C2A4D2A4E2B4F2F
:103DF0002B4B4FF0804CA04209D0604507D0A84221
:103E000005D0B04203D0B84201D0984204D122F08C
:103E1000700E4A6842EA0E02A0421BD0604519D0DB
:103E2000A84217D0B04215D0B84213D0984211D052
:103E30001C4DA8420ED01C4DA8420BD01B4DA842D1
:103E400008D01B4DA84205D01A4DA84202D01A4DE9
:103E5000A84203D122F44075CA682A434D6922F072
:103E600080022A4302608A68C2620A688262A042B3
:103E700001D0984201D109690163012141610169C1
:103E8000C90703D0016921F001010161F0BD000003
:103E9000000001400004004000080040000C004009
:103EA000000401400040014000440140004801403E
:103EB00000180040001C00400020004010B501F038
:103EC0001F030121046A99408C430462016A9A40ED
:103ED0001143016210BD10B5846842EA032224F444
:103EE0007F440A432243826010BD826822F0700240
:103EF0000A4342F00701816070470000F0B5036A91
:103F0000026A22F00102026242688469124E24F0C1
:103F100073050C682C4323F002058B682B430D4D71
:103F2000A84201D0B04205D123F00807CB683B433B
:103F300023F00403A84201D0B04205D14D6922F418
:103F4000407215438A692A4342608461496841632B
:103F50000362F0BD0000014000040140F0B5026AB8
:103F6000036A23F010030362436884690D6824F434
:103F7000E64444EA05248D6822F0200242EA051254
:103F80000F4D104EA84201D0B04206D1CF6822F0AA
:103F9000800242EA071222F04002A84201D0B04259
:103FA00007D14D6923F4406343EA85038D6943EAF1
:103FB000850343608461496881630262F0BD00004B
:103FC0000000014000040140F0B5026A036A23F4D6
:103FD000807303624368C46922F4007224F073059D
:103FE0000C68124E2C438D6842EA05220E4DA84201
:103FF00001D0B04206D1CF6822F4006242EA072223
:1040000022F48062A84201D0B04207D14D6923F466
:10401000405343EA05138D6943EA05134360C461C5
:104020004968C1630262F0BD000001400004014024
:1040300030B5046A026A22F4805202624268C3699F
:104040000D6823F4E64343EA05238D6824F4005405
:1040500044EA0534084DA84202D0084DA84204D1D4
:104060004D6922F4804242EA85124260C361496888
:104070000164046230BD0000000001400004014002
:1040800010B5036A046A24F001040462846924F010
:10409000F00444EA021423F00A020A438461026233
:1040A00010BD10B5036A046A24F010040462846928
:1040B00023F0A00324F4704444EA023243EA0111DD
:1040C0008261016210BD10B5806B0021C185C18481
:1040D000FDF720FF10BD01680C3151E8002F22F4DC
:1040E000907241E80023002BF5D10168143151E8AA
:1040F000002F22F0010241E80023002BF5D1016BD3
:10410000012909D101680C3151E8002F22F0100279
:1041100041E80023002BF5D1202180F84210002136
:104120000163704708B590F84210222901D002209F
:1041300008BD82684FF480539A4201D1016921B1D0
:10414000816A9A421BD04AB10AE00268816A5268C9
:10415000C2F308020A80816A891C08E0026972B110
:104160000268526802F07F020A70816A491C81620B
:10417000C18D491E0904090CC18503D01BE00268EA
:104180005268F1E70168CA6822F02002CA6001683B
:10419000CA6822F48072CA6001684A6922F001028A
:1041A0004A61202180F8421000214163026B012AFC
:1041B00003D0FEF7E3F8002008BD016301680C316D
:1041C00051E8002F22F0100241E80023002BF5D126
:1041D00001680A68D20602D50A6849680091818D93
:1041E000FDF797FEE7E7000070B504460068016937
:1041F000E26821F44051114301612169A068E2693C
:1042000008436169114308432168CA6849F20C6395
:104210009A430243CA6020684169A26921F440714F
:104220001143416131492068884202D030498842B7
:1042300002D1FCF7C1FE01E0FCF7AEFEE26900230B
:10424000192164253226B2F5004F626828D0A0FB00
:104250000101930F9200FCF717F80146B0FBF5F04F
:104260006FF01802504301EB800006EB0010B0FB2A
:10427000F5F000F0F002B1FBF5F002EB0012B1FB3B
:10428000F5F06FF01803584301EB800006EB0010C7
:10429000B0FBF5F000F00F0021681044886070BD9D
:1042A000A0FB010192185B41FBF7EEFF0146B0FB5A
:1042B000F5F00201B1FBF5F06FF01803584301EB84
:1042C000800006EBC000B0FBF5F000F0F80002EB58
:1042D0004002B1FBF5F0584301EB800006EBC00053
:1042E000B0FBF5F000F00700D6E700000010014039
:1042F0000014014081628285C2850021416422212F
:1043000080F84210016921B10168CA6842F48072E4
:10431000CA6001684A6942F001024A610068C168E6
:1043200041F02001C160002070472DE9F843984614
:1043300017460D460446089E24E0701C22D0FCF768
:1043400021FBA0EB0800B0421AD8CEB12068C168AA
:10435000490717D5802D15D0402D13D00168C943CA
:1043600009070FD401680025406800902046FFF738
:10437000B2FE0820606484F840500120BDE8F88354
:104380000320FBE72068006835EA000004D0002025
:10439000B842D2D00020F1E70120F9E70148FDF74B
:1043A000BFBD0000240400200148FDF7B9BD000096
:1043B0006C0400200148FDF7B3BD0000B4040020E8
:1043C000FEE70000FEB50024094F4FF4807501267A
:1043D0003819CDE90006012300227821029505480D
:1043E000FCF79AFB641CE4B21B2CF1D3FEBD000069
:1043F00060010020CC01002030EE600A1C481D4AFC
:1044000080ED000AD0ED020A70EE800A10EE901ADC
:10441000C0ED020A914202DDDFED170A06E010EE60
:10442000901A164A914203D9DFED150AC0ED020A2F
:10443000D0ED010A134930EE601A80ED101AD1ED6B
:10444000000A114960EE800AD1ED001A0F4941EED1
:10445000810A91ED001AD0ED021A41EE210AC0ED59
:104460000C0A80ED010ABDEEE00A10EE100A70475A
:104470007C01002000007A4400007A4400007AC4E5
:1044800000007AC4040100200C0100200801002073
:1044900003B401984100009850EAC12018BF0420DD
:1044A0004A0D18BF40F0010040F2FF72B2EB515FBD
:1044B00008BF40F00200012808BF052002B0704785
:1044C0000907090E002804DB00F1E02080F8001441
:1044D000704700F00F0000F1E02080F8141D7047D5
:1044E00070B5C1482DED020B2DED0E8B82B0119DE4
:1044F00025F000449FEDBEDB9FEDBFEB84423EDB29
:10450000A4F140511098A1F17F6108430FD0BC483D
:10451000844202DC28D1109830B39DED100B02B01C
:10452000BDEC0E8B02B0BDE8704000F071BC9DED9B
:10453000100B53EC1D2B51EC100B01F0E7FD9DED22
:10454000100B41EC180B53EC1E2B51EC100B01F02F
:10455000DDFD53EC182B01F04DFB41EC100B02B0CC
:10456000BDEC0E8B02B070BD0120FBF755FF02B011
:10457000BDEC0E8B02B0BDE8704000F05DBCA14800
:104580009FEDA18B844256DA9DED100BB4F1795F5B
:104590000ADA51EC100BFFF77BFF042808BF00F08C
:1045A0005BFC9DED100BDAE753EC102B51EC100B7C
:1045B00001F0ACFD41EC190B95480621B0EE490A1B
:1045C000F0EE690A784400F0A7FB53EC192B51EC8C
:1045D000100B01F09BFD41EC1A0B8E48B0EE490A1E
:1045E000F0EE690A0421784400F096FB53EC192B95
:1045F00051EC100B01F08AFD53EC182B01F0FAFA84
:1046000041EC100B51EC1A0B53EC102B01F0A6FBF4
:10461000CDE900019DED000B53EC102B9DED100B2F
:1046200051EC100B01F072FD9DED101B53EC112BA2
:1046300001F0E0FAD2E09DED100B51EC100B00F010
:104640003BFC53EC182B01F05FFE9FED730BCDE9A3
:10465000000153EC102B9DED000B51EC100B01F001
:1046600055FD41EC190B6E480621B0EE490AF0EEFB
:10467000690A784400F050FB53EC192B51EC100BF5
:1046800001F044FD41EC1B0B6648B0EE490AF0EE28
:10469000690A0421784400F03FFB53EC192B51ECDC
:1046A000100B01F033FD53EC182B01F0A3FA41EC91
:1046B0001C0B51EC190B01F0CFF941EC180B5A48C7
:1046C0009FED5BABA04222DC53EC1C2B51EC1B0B8F
:1046D00001F044FBCDE900019DED000B51EC180BFE
:1046E00053EC102B01F012FD53EC182B01F082FA61
:1046F00053EC1A2B01F00AFD53EC1D2B01F0DCFEEC
:1047000053EC1E2B01F000FE41EC100B5FE08DED31
:10471000008B002000909DED000B51EC180B53EC2A
:10472000102B01F067FA9DED000B41EC1E0B53ECD2
:10473000102B51EC100B01F0E9FC53EC192B01F09C
:10474000E3FD53EC1E2B01F009FB41EC190B53EC7C
:104750001C2B51EC1B0B01F001FB41EC1B0B53EC30
:104760001A2B51EC190B01F0D1FC53EC1D2B01F06D
:10477000CBFD41EC190B53EC1A2B51EC180B01F04B
:10478000C5FC53EC1B2B01F0C1FC53EC192B01F0C1
:1047900093FE9DED000B41EC180B53EC1A2B51ECE2
:1047A000100B01F0B3FC9FED249B53EC192B01F08F
:1047B000ABFD41EC100B51EC180B53EC102B01F03E
:1047C0007BFE53EC192B01F09FFD41EC100B002DEB
:1047D0003FF7C5AE51EC100B01F0CEF941EC100BD8
:1047E000BDE60000000000000000F03F00000000F7
:1047F000075C143326A6913C182D4454FB21F93F45
:104800000000F07F0000E03F000000000000F03FEB
:10481000E0480000EE480000000000000000E03F1B
:1048200032480000404800003333EF3F00000000F2
:104830000000000000000040182D4454FB21E93F17
:1048400070B59B482DED020B2DED068B079D25F0D5
:104850000044A04218DC9748844202DC0AD1069842
:1048600040B19DED060BBDEC068B02B0BDE870407B
:1048700000F0CEBA002DCCBF9FED8F0B9FED900BBB
:10488000BDEC068B02B070BD8F48A04215DD8F488D
:10489000A042D8BF4FF0FF3458DD9DED060B51EC20
:1048A000100BFFF7F5FD042808BF00F0D5FA9DEDC9
:1048B000060BBDEC068B02B070BD9DED060B51ECF6
:1048C000100B00F0F9FACDE9060181489FED828BCB
:1048D000A0423CDD8248A0421FDD00249FED82AB58
:1048E0009DED060B53EC1A2B51EC100B01F082F9E5
:1048F0009DED060B41EC190B53EC1A2B51EC100BF0
:1049000001F004FC53EC182B01F0D6FD53EC192BED
:1049100001F024FACDE9060149E09DED060B0124E2
:1049200053EC182B51EC100B01F064F99DED060BC4
:1049300041EC190B53EC182B51EC100B01F0BCFDA2
:1049400053EC192B01F00AFACDE906012FE0684873
:10495000A0421FDD02249FED689B9DED060B53ECEA
:10496000192B51EC100B01F0D1FB53EC182B01F07B
:1049700041F99DED060B41EC180B53EC192B51EC52
:10498000100B01F099FD53EC182B01F0E7F9CDE97C
:1049900006010CE09DED060B032453EC102B9FED5C
:1049A000580B51EC100B01F0D9F9CDE906019DED42
:1049B000060B53EC102B51EC100B01F0A7FB41EC54
:1049C000180B53EC182B01F0A1FB41EC190B4E48CE
:1049D0000621B0EE490AF0EE690A784400F09CF92D
:1049E00053EC182B51EC100B01F090FB41EC180B21
:1049F0004648B0EE490AF0EE690A0521784400F015
:104A00008BF953EC192B51EC100B01F07FFB41ECAF
:104A1000100B51EC180B53EC102B002C0EDA01F09C
:104A2000E9F89DED061B53EC112B01F06FFB9DED9A
:104A3000061B53EC112B01F067FC35E001F0DAF8AE
:104A40009DED061B53EC112B01F060FB41EC100BAC
:104A50002F48784400EBC40090ED001B51EC100B84
:104A600053EC112B01F028FD9DED061B53EC112B8F
:104A700001F022FD41EC100B2648784400EBC40005
:104A800090ED001B51EC100B53EC112B01F03CFC92
:104A900041EC100B002DA2BFBDEC068B02B070BD27
:104AA00051EC100B01F068F841EC100B01E700002D
:104AB000000010440000F07F182D4454FB21F93F02
:104AC000182D4454FB21F9BF0000DC3F0000203EBC
:104AD0000000F33F00000000000000000000F03F75
:104AE0000000E63F00000000000000000000004061
:104AF0000080034000000000000000000000F83FBC
:104B0000000000000000F0BF8245000038450000B2
:104B1000C24400007A44000070B56F4E2DED040BC6
:104B20002DED048B82B0DDF824C0DDE907235C4263
:104B30002CF000411C4341EAD474069D22F0004051
:104B4000B44205D86C422C4340EAD474B4420BD929
:104B50009DED081B9DED060B02B0BDEC048B04B06F
:104B6000BDE8704000F05EB9ACF14054A4F17F6440
:104B70001C430BD0022404EAAC7444EAD27405430B
:104B80009FED578B9FED582B07D015E09DED060B41
:104B900051EC100B00F070F942E0002C11BF012C19
:104BA0009DED060B02B0BDEC048B04BF04B070BDDC
:104BB000022C38D0032C3BD00B439FED4D1B9FEDB7
:104BC0004E0B0AD0B14218D1B04209D121F0804138
:104BD00020F08040099107900FE0002A15DA10E0DC
:104BE000474B7B44002C08BF93ED000B0DD0012CEC
:104BF00010D0022C17D0032C1AD0B0421DD1002A9D
:104C000003DAB0EE410AF0EE610A02B0BDEC048BAB
:104C100004B070BD93ED000B51EC100B00F0ACFF35
:104C200041EC100BF1E7B0EE480AF0EE680AECE751
:104C3000B0EE420AF0EE620AE7E7401A00159FED77
:104C4000329B3C28C8BF8DED000B17DCBCF1000F78
:104C5000BCBF10F13C0F8DED009B0FDB9DED080BF1
:104C600053EC102B9DED060B51EC100B01F076F878
:104C700000F022F900F000F9CDE90001B4B1012CF7
:104C800010D0022C9FED220B53EC102B9DED000B4E
:104C900051EC100B19D001F00FFC53EC182B01F064
:104CA0000BFCBDE7019880F0004001909DED000BEA
:104CB00053EC192B51EC100B01F0A8F904BF0220A2
:104CC000FBF7AAFB9DED000B9FE701F0F5FB53EC12
:104CD000182B01F019FBA3E70000F07F0000000093
:104CE000182D4454FB210940182D4454FB2109C0C0
:104CF000182D4454FB21F9BF182D4454FB21F93FD2
:104D0000AA430000000000000000000000000000B6
:104D1000075C143326A6A13C70B504462DED028B2A
:104D20004D1E00EBC500B0EE408AF0EE608A90EDBB
:104D3000000B35F0060017D053EC182B51EC100B7C
:104D400001F0E4F941EC100B6D1E04EBC50090ED91
:104D5000001B51EC100B53EC112B00F04BFF41ECFE
:104D6000100B35F00600E7D1022D36D0042D1CD0F3
:104D7000062D1CBFBDEC028B70BD53EC182B51EC03
:104D8000100B01F0C3F994ED0A1B53EC112B00F04A
:104D900031FF53EC182B01F0B9F994ED081B53ECDB
:104DA000112B00F027FF41EC100B53EC182B51ECAA
:104DB000100B01F0ABF994ED061B53EC112B00F036
:104DC00019FF53EC182B01F0A1F994ED040B53ECEF
:104DD000102B00F00FFF41EC100B53EC182B51EC93
:104DE000100B01F093F994ED021B53EC112B00F022
:104DF00001FF53EC182B01F089F994ED001B53ECE3
:104E0000112B00F0F7FEBDEC028B41EC100B70BDD6
:104E100010B553EC102B51EC100B00F0EBFE41ECF5
:104E2000100B10BD10B553EC112B51EC100B00F012
:104E3000E1FE41EC100B10BD9FED050B10B553ECDE
:104E4000102B51EC100B00F089FF41EC100B10BD42
:104E500000000000000000009FED050B10B553ECB2
:104E6000102B51EC100B01F051F941EC100B10BD5F
:104E7000000000000000001010B541EC100BFFF71F
:104E8000DFFC51EC100B10BD70B54FF6FA75094EF2
:104E9000281A84B2306844623046FCF771FB3068EF
:104EA00001E0416A8CB2AC42FBD3BDE870400148DE
:104EB000FCF7E2BB7402002082B0CDE9000121F0D2
:104EC000004001909DED000B02B051EC100B7047BB
:104ED00010EE100AF6EE000A074960EE200AA1EB78
:104EE000600000EE100A20EE801AF7EE080A41EE8C
:104EF000400A20EE800A7047DF59375F1CB5FBF788
:104F00001FFFFEF7FDFEFEF7D3FAFEF771FBFEF77B
:104F10008FFBFEF7ADFBFEF7DDFBFEF72FFCFEF788
:104F200063FCFEF7F1FCFEF70BFDFEF725FDFEF737
:104F30003FFDFEF78FFCFEF7C1FCFEF7CBF9FEF755
:104F40006FFD0122FD49FE48FDF70AFA0122FD49E5
:104F5000FD48FDF705FA0122FC49FD48FDF700FA7E
:104F6000FC48FCF749FB0821FB48FCF749FE0C21F3
:104F7000F948FCF745FE3C21F848FCF7A3FC3C212E
:104F8000F748FCF79FFCDFF8D4A343F69820DAF843
:104F900000104862DFF8C8B3DBF800104862F1483F
:104FA000FCF72AFBF048FCF727FBEB4840F23A718C
:104FB0000268D163006840F26C710164FEF716FD6F
:104FC0004FF47A70FBF7CAFB1026E84CE84F4FF01D
:104FD00000094FF00108E74DFBF762FA85ED050A7D
:104FE000FDF7CEFF00EE100AE3480021B8EEC00A3C
:104FF000012385ED040A009602680846FEF76EFD5F
:105000000096012300211020AA6AFEF767FD009692
:10501000012300212020EA6AFEF760FD0121D74824
:10502000FBF7A6FC02460123002130200096FEF784
:1050300055FD0096012302210020AA69FEF74EFDCE
:1050400002230096194610206A68FEF747FD009675
:105050000123022130202A6BFEF740FD0096012338
:10506000022140206A6BFEF739FD009605230421DA
:1050700000203A68FEF732FDC14800960523026819
:1050800004214020FEF72AFD00960523062100207A
:105090006A6CFEF723FDBB480096052302680621D3
:1050A0005420FEF71BFDA86C012801D1C5F8308003
:1050B000A86B40B9E86B30B1C5F83880A8624FF0F2
:1050C000FF30686006E06868632801D1FBF7CAFA20
:1050D000686810B1686C401C6864E86BE8626968D5
:1050E000491C14D100287DD1A86A012801D00228CA
:1050F00001D1C5F8048003280DD004280BD0052861
:1051000009D0072807D0062805D0082803D06868EA
:10511000012803D00CE00A2068606AE0012197486A
:10512000FBF726FC20B94EF66021012000F034FB8D
:10513000686816281ED1A86A012802D0022807D064
:105140000EE0286C32280BDC4046C5F80C8005E0E8
:10515000286C462804DD0220C5F80C80286302E094
:10516000E8680128BFD18848006808B9FBF77AFAD7
:10517000FDF7ECFD6868022817D1286B012808D1DB
:10518000206802287ED003287DD00021072000F06F
:1051900003FB286B022808D12068022805D00328C9
:1051A00003D00021092000F0F7FA6868032804D131
:1051B0004FF47A41012000F0EFFA6868042815D115
:1051C000286B012806D120680228DBD000210920A5
:1051D00000F0E2FA286B022808D12068022805D0E6
:1051E000002100E06AE1072000F0D6FA68680A288A
:1051F0000CD101216148FBF7BBFB38B920680B28B3
:1052000004D04DF6C021012000F0C6FA68680528D8
:105210001DD1D5E90A01884204D12A6C322A01DC69
:10522000C5F83080884204D1286C462801DD022070
:105230002863686CC82804DD4FF21861012000F073
:10524000ABFA286B18B1FBF70DFAFDF77FFD686824
:10525000062813D1286B012806D12068022891D096
:105260000021072000F098FA286B022806D1206858
:10527000022803D00021092000F08EFA68680B286C
:1052800023D101E0C6E0C6E0A86818B9FEF782FCA9
:10529000C5F8088020680B280CD02F4840F6AC01D8
:1052A00002681164006840F62411C16300210A20DD
:1052B00000F072FAD5E90A01884204D1C5F83080BD
:1052C000C5F8488001E00220286368680C280ED1E8
:1052D000D5E90A01884204D1C5F83080C5F8488074
:1052E00001E00220286300210B2000F055FA6868D5
:1052F0000D2805D10021022000F04EFAFDF726FD11
:1053000068680E2819D1C5F80890286B012808D1C3
:10531000206802287ED003287DD00021072000F0DD
:105320003BFA286B022808D12068022805D0032800
:1053300003D00021092000F02FFA27E0EC00002024
:1053400024040020ED0000206C040020EE0000206A
:10535000B404002074020020BC02002004030020DA
:105360004C03002094030020DC030020580100209F
:105370003C01002000000020F8000020000C02404A
:10538000400100202C0100205C01002068680F28EB
:1053900036D1A86820B94FF6C821012000F0FCF9E9
:1053A000D5E90A10814202D12A6C322A13DD8142EA
:1053B00002D12A6C462A04DC814207D02A6C322AA8
:1053C00004DC0220C5F80C8068630BE0814206D043
:1053D000286C322803DD4046C5F80C80F4E7E86805
:1053E00001280DD1686C50280ADDA8680B2803D16C
:1053F0000C20A860FEF7CEFBFBF734F9FDF7A6FC06
:10540000686810281AD1686B01280BD1206802281F
:105410005CD001E05AE072E0032870D00021072040
:1054200000F0BAF9686B022808D12068022805D07C
:10543000032803D00021092000F0AEF96868112884
:1054400021D1A86820B94FF61741012000F0A4F936
:10545000A868012817D1686B012808D120680228A4
:1054600011D003280FD00021092000F095F9686BB6
:10547000022808D12068022805D0032803D0002183
:10548000072000F089F96868122817D1286B0128D5
:1054900008D12068022819D007286DD000210920E2
:1054A00000F07AF9286B022808D1206802280DD074
:1054B000072861D00021072000F06EF9206801283C
:1054C00001D1FBF7CFF8206802287DD1C5F81C90E8
:1054D00068680E2814D0022815D0062813D0042896
:1054E00014D00F2815D010280DD0112814D0122850
:1054F00015D04AF210402862686AE0B34FE097E0A6
:1055000049F63460F7E74AF22800F4E74FF6FF70F7
:10551000F1E74AF2F870EEE74AF6D450EBE74FF6BF
:10552000FF7028628D48B1EE000A80ED000A9FED01
:105530008C0A8C4880ED000A9FED8B0A8B4880ED29
:10554000000A8B48006800F0CAFDCDE900019FED1C
:10555000891B53EC112B00F04DFB00F093FD8749A4
:1055600009680864DDE900019FED851B53EC112BF0
:1055700000F0CAFE01E006E094E000F083FD7F4900
:105580000968C863B8E7FEF705FBDAF8001049F6CA
:1055900040404862DBF800104862C5F82480386853
:1055A000296A88423DDB6A6A012A3AD101F5FA711B
:1055B000884236DCFEF7EEFA00210520C5F81C8093
:1055C00000F0EAF8686800E02FE0022801D0062821
:1055D0000CD1A86830B9FEF7F7FAC820FBF7BEF87F
:1055E000C5F80880FEF7D6FA032020606868042812
:1055F00004D00E2804D0102805D00CE0052000E0CF
:105600000F20686011E00320031F206001225E4923
:105610005E48FDF707F86868112806D1072020606A
:1056200040E0E86908B9FBF71DF8206803281FD19E
:1056300001215748FBF79CF9012819D1C5F81C90A6
:10564000686A58B9DAF8001047F230504862DBF85F
:1056500000104862C5F80890C5F82480396846F6FD
:105660007C70814202DC686A012805D000F074FA7F
:105670002068072816D044E0FEF78CFA00210520A8
:10568000C5F81C8000F088F86868022807D0062852
:1056900005D01028ECD11120C5E90109E8E7032065
:1056A0006860E5E7C5F81C90686A48B9DAF8001048
:1056B00047F230504862DBF800104862C5F8248099
:1056C000386847F24811884219DB696A012916D106
:1056D00047F61811884212DCFEF75CFA002105201B
:1056E000C5F81C8000F058F868680F2802D011280F
:1056F00002D006E06E6004E01220686001E0FEF770
:1057000063FA20680B2825D1C5F81C90686A58B93F
:10571000FEF740FADAF8001047F230504862DBF842
:1057200000104862C5F82480396847F2224081425F
:1057300002DC686A012802D0E86948B10AE0002169
:10574000052000F029F8C5F82490C5F81C8001E078
:10575000FDF7ECFA0F4800F0B7F93DE40401002032
:10576000CDCCCC3E08010020000000000C01002040
:1057700044010020000000000011B240BC020020E3
:1057800000000000000BB340000000206C0400206B
:10579000000C0240FC0400202DE9F05F9F4C9C4F60
:1057A000DFF870920026DFF870820125DFF870A222
:1057B0002268012816D0022859D008285BD0DFF8CB
:1057C00064B205285BD0072867D009287ED047F24D
:1057D000305B0A287BD00B283AD1C8F80060002A39
:1057E00076D0E8E0C8F800603AB93A684FF6FF7042
:1057F0005062D9F80020506225608B4800688842CA
:1058000035DC2268012A32D1A1F57A7188422EDB7B
:10581000FEF7DAF9C820FAF7A1FF00210520FFF70B
:10582000BBFF2660C8F80050DAF80000012811D04C
:10583000032811D00B22052810D00A2811D07B494B
:105840000F2812D0112803D10868002800D10D605C
:10585000BDE8F09F162005E0042003E0CAF8002010
:10586000F6E70520CAF80000F2E70A60F0E7BDE8B5
:10587000F05FFAF7F7BEBDE8F05FFAF7D5BEFEF7C6
:1058800089F96B486C4906606A4826600660CBF867
:1058900004600E60CBF80860DAE742F6E06AC8F808
:1058A00000604AB9FEF776F93968C1F824A0D9F842
:1058B0000010C1F824A025605B480168AAEB010034
:1058C000B0F5BE6F06DB2068012802E00AE034E094
:1058D00067E027D0D8F800000028B9D1BDE8F05F14
:1058E000FDF7FAB9C8F800604AB9FEF753F939680C
:1058F0004CF250304862D9F80010486225604F4899
:105900000068A0F543405038B0F5AF6F02DB206867
:10591000012807D0D8F80000002899D1BDE8F05F31
:10592000FEF76CB9FEF750F9CBF800502660022163
:10593000C8F80050CBF804108AE7C8F800604AB9EC
:10594000FEF728F93968C1F824B0D9F80010C1F879
:1059500024B02560394847F2B8410068884218DC15
:105960002168012915D147F25A31884211DB002103
:105970000520FFF711FF2660C8F80050DAF8001084
:105980000B2989D10C21CAF80010BDE8F05FFEF7A1
:1059900001B9D8F800000028CED1BDE8F05FFDF7CE
:1059A000C5B9FEF7F7F83968C1F824B0D9F8001086
:1059B000C1F824B02560214847F2DA5100688842D6
:1059C00015DB2168012912D147F2247188420EDCCF
:1059D00000210520FFF7E0FE2660C8F80050DAF845
:1059E00000100C29A8D10D21CAF8001030E7D8F812
:1059F00000000028A0D112480068412803DC1148AB
:105A00000068012898D1BDE8F05FFDF775B9000086
:105A1000040300204C0300201C0000202400002070
:105A20000400002054010020400100200800002054
:105A30004C000020180000200C0000203C01002039
:105A400044000020480000200246012000E05043AE
:105A5000491EC9B2FBD2704700B52DED048B83B04F
:105A600041EC190B00F05CFC41EC180B18EE100A2D
:105A700018EE901A8DED008B002818BF0120084306
:105A800020F00040C0F17F6000F1E040C00F14D072
:105A900019EE101A19EE900A8DED009B002918BF1F
:105AA0000121084320F00040C0F17F6000F1E04098
:105AB000C00F04BF0120FAF7AFFC51EC180B03B084
:105AC000BDEC048B00BD000010B504461A4890EDF3
:105AD000000A2046FEF7A3F8184890ED000A204679
