:020000040800F2
:1000000008090020CD0100080F230008B51F0008D3
:100010000D230008D3020008112B00080000000087
:100020000000000000000000000000005324000851
:100030003303000800000000512400085524000884
:10004000E7010008E7010008E7010008E7010008F0
:10005000E7010008E7010008E7010008E7010008E0
:10006000E7010008E7010008E7010008E7010008D0
:10007000FD020008E7010008E7010008E7010008A9
:10008000E7010008E7010008E7010008E7010008B0
:10009000E7010008E7010008E7010008E7010008A0
:1000A000E7010008E7010008E7010008E701000890
:1000B000E7010008E7010008E7010008E701000880
:1000C000E7010008E7010008E7010008E701000870
:1000D000E7010008E7010008F92A0008052B0008DD
:1000E000E7010008E7010008E7010008E701000850
:1000F000E7010008E7010008E7010008E701000840
:10010000E7010008E7010008B9240008E70100083A
:10011000E7010008E7010008E7010008E70100081F
:10012000E7010008E7010008E7010008E70100080F
:1001300000F002F800F03AF80AA090E8000C8244BF
:100140008344AAF10107DA4501D100F02FF8AFF29C
:10015000090EBAE80F0013F0010F18BFFB1A43F0A5
:10016000010318472830000048300000103A24BF2F
:1001700078C878C1FAD8520724BF30C830C144BF0C
:1001800004680C607047000000230024002500264E
:10019000103A28BF78C1FBD8520728BF30C148BFEA
:1001A0000B6070471FB51FBD10B510BD00F058F8AB
:1001B0001146FFF7F7FF02F003FD00F076F803B4F5
:1001C000FFF7F2FF03BC00F07DF80000094880470C
:1001D00009480047FEE7FEE7FEE7FEE7FEE7FEE729
:1001E000FEE7FEE7FEE7FEE704480549054A064B41
:1001F00070470000B7240008310100080803002000
:100200000809002008050020080500204FF0000222
:1002100000B5134694469646203922BFA0E80C50FC
:10022000A0E80C50B1F12001BFF4F7AF090728BFD7
:10023000A0E80C5048BF0CC05DF804EB890028BF53
:1002400040F8042B08BF704748BF20F8022B11F07C
:10025000804F18BF00F8012B7047704770477047F8
:10026000754600F02BF8AE4605006946534620F06F
:100270000700854618B020B5FFF7B6FFBDE820405F
:100280004FF000064FF000074FF000084FF0000B52
:1002900021F00701AC46ACE8C009ACE8C009ACE805
:1002A000C009ACE8C0098D46704710B50446AFF3ED
:1002B00000802046BDE81040FFF781BF004870472E
:1002C000A802002001491820ABBEFEE7260002006C
:1002D0007047FEE7074810B5C06802F03BFD0649CD
:1002E000086004481430C06802F034FD0249091D5A
:1002F000086010BD7401002034040040014800F083
:10030000D7B800002C02002030B590F840500124EE
:10031000AC40C56B6C60046863604368102B036875
:1003200003D099600068C26030BD9A600068C16007
:1003300030BD704772B6FEE710B590F8211000226C
:10034000022905D00421816380F82020012010BDFE
:1003500001680B6823F00E030B6001680B6823F043
:1003600001030B6090F84030C46B012101FA03F3E4
:10037000636080F8211080F82020104610BD000036
:100380002DE9F05F90F821100024022903D0042108
:100390008163012485E001680A6822F00E020A6088
:1003A00001680A6822F001020A603F4E3E4FB21512
:1003B000DFF8F4C0DFF8F090DFF8ECA0DFF8E8B089
:1003C000DFF8E4E00168783F13011502ACF1640C3A
:1003D000A9F15009AAF13C0AABF1280BAEF1140EB9
:1003E0004FF48018B14227D9B9420ED0614512D0DE
:1003F00049451DD0514518D0594518D0714501D1F6
:10040000424615E0294EB14201D1012210E0274EAB
:100410001436B14201D110220AE0244E2836B142EE
:1004200006D0224A3C32914201D11A4600E02A46C7
:100430001E49091F0A602BE0B94213D0614517D04D
:10044000494522D051451DD059451DD0714501D196
:1004500042461AE0B14202D14FF0807215E0134ECD
:10046000B14201D1012210E0104E1436B14201D147
:1004700010220AE00D4E2836B14206D00B4A3C321B
:10048000914201D11A4600E02A46074980394A6064
:10049000012180F82110002180F82010416B01B16A
:1004A00088472046BDE8F09F8000024008040240D3
:1004B0002DE9F05FC16B0A6801680B68046C4FF0AE
:1004C000040808FA04F8844D844E854FDFF814C2FE
:1004D000DFF81492DFF814A2DFF814B2DFF814E2A8
:1004E00018EA020F65D05FEA437862D50A6892067F
:1004F00003D40A6822F004020A60DFF8F0814FF4A6
:100500008062016808F1140813011402414524D9DE
:10051000A9420DD0B1420FD0B9421AD0614515D0D1
:10052000494515D0514501D1120312E0594501D179
:1005300004220EE0714501D140220AE06D4D1435D0
:10054000A94206D06B4A2832914201D11A4600E0F6
:1005500022466749091F0A6029E0A94213D0B14227
:1005600015D0B94220D061451BD049451BD051451B
:1005700002D14FF4800217E0414502D14FF0806272
:1005800012E0594501D104220EE0714501D140220B
:100590000AE0584D1435A94206D0564A28329142F5
:1005A00001D11A4600E022464B4908394A60C16A27
:1005B00071E04FF0020808FA04F818EA020F70D050
:1005C0005FEA83786DD50A68920606D40A6822F03D
:1005D0000A020A60012180F82110DFF810814FF42F
:1005E0000072016808F1140813011402414524D96E
:1005F000A9420DD0B1420FD0B9421AD0614515D0F1
:10060000494515D0514501D1120312E0594501D198
:1006100002220EE0714501D120220AE0354D143549
:10062000A94206D0334A2832914201D11A4600E04D
:1006300022462F49091F0A6029E0A94213D0B1427E
:1006400015D0B94220D061451BD049451BD051453A
:1006500002D14FF4001217E0414502D14FF0007271
:1006600012E0594501D102220EE0714501D120224C
:100670000AE0204D1435A94206D01E4A2832914284
:1006800001D11A4600E02246134908394A60002188
:1006900080F82010816A00291CD0BDE8F05F08476F
:1006A000FFE70825A540154214D01A0712D50A689D
:1006B00022F00E020A6090F84020C36B012101FA7B
:1006C00002F25A60816380F82110002180F8201026
:1006D000016BE0E7BDE8F09F080002401C0002400B
:1006E0003000024044000240580002406C000240CA
:1006F000080402401C04024030B560B11A4B026885
:1007000014219A4209D2194B1344B3FBF1F1890029
:10071000016417490AE0012030BD134B5B421344CA
:10072000B3FBF1F1890001640F490839C16302216B
:1007300080F82110136843F6F0718B43F0E901143F
:100740002143D0E902452C432143046921434469F4
:10075000214384692143194311600021416301222F
:1007600042770177084630BD08040240F8FFFDBF1C
:100770000000024070B5044690F8200000250128D2
:100780000CD0012084F8200094F821600020012E74
:1007900006D084F820000225284670BD022070BDD6
:1007A000022684F82160A0632068066826F001060E
:1007B00006602046FFF7A8FDE06A0028206801686F
:1007C00002D041F00E0106E021F004010160206832
:1007D000016841F00A0101602068016841F00101EF
:1007E0000160D9E72DE9F84FDFF8C8910024A9F19D
:1007F000040B23460F2709F1040AABF1040ED1E0E4
:100800000125A54006EA0502AA4276D1DFF8A8C173
:100810004E68A6EB0C0866452BD00DDC032E34D0B9
:1008200005DC36B3012E19D0022E2FD11BE0112E7C
:1008300016D0122E2AD119E0B8F5881F19D006DC7F
:10084000B8F5803F15D0B8F5801F1FD111E0B8F57D
:10085000001F0ED0B8F5041F18D10AE0CB6815E0D0
:10086000CB681B1D12E0CB6808330FE0CB680C335C
:100870000CE08B682BB1012B4FF0080303D04561CE
:1008800004E0042302E0056100E00023FF2A01D810
:10089000064601E000F104064FEA840501D9A5F1FE
:1008A0002005D6F8008007FA05FC28EA0C0803FAB0
:1008B00005F548EA0508C6F800804D68ED0070D5DA
:1008C0003E4DAE6946F00106AE61AD6924F0030607
:1008D00005F0010500953A4D06EB050CDCF80850D3
:1008E000A607360F07FA06F825EA0805DFF8D480D0
:1008F000404503D14FF0000825E052E0DFF8C88002
:10090000404502D14FF001081DE0DFF8C0804045AE
:1009100002D14FF0020816E0DFF8B480404502D162
:100920004FF003080FE0DFF8AC80404502D14FF0F4
:10093000040808E0DFF8A080404502D14FF0050828
:1009400001E04FF0060808FA06F848EA0508CCF876
:1009500008804D68D9F80060ED024D4601D5164378
:1009600000E096432E604D68DAF80060AD0255460F
:1009700001D5164300E096432E604D68DBF8006019
:10098000AD035D4601D5164300E096432E604D68E9
:10099000DEF80060ED03754601D5164300E096438E
:1009A0002E60641C0A681646E2407FF429AFBDE859
:1009B000F88F0000080401400000111000100240F0
:1009C0000000014000080140000C014000100140FF
:1009D0000014014000180140001C014080680840DC
:1009E00000D0012070470AB1016170470904FBE79C
:1009F00001488068704700003800002070B504008E
:100A000025D094F83D00002520B984F83C502046BC
:100A100000F0B8F8242084F83D002068016821F037
:100A2000010101602068016841F400410160206813
:100A3000016821F40041016000F000FA4D4A61684C
:100A4000914201D84C4900E04C49884201D2012032
:100A500070BD4B492368B0FBF1F15E6826F03F069C
:100A60000E435E606368934206D94FF49673594310
:100A70004FF47A73B1FBF3F12368491C1E6A26F028
:100A80003F06314319626168914210D84900401E07
:100A9000B0FBF1F2521CC2F30B02042A01D2042073
:100AA00022E0B0FBF1F0401CC0F30B001CE0A26898
:100AB000F2B301EBC10303EB0116431EB3FBF6F3E4
:100AC0005B1C43F480431B0549D092B301EBC10288
:100AD00002EB0111401EB0FBF1F0401CC0F30B0013
:100AE00040F4804040F400402168CA694CF6FF732E
:100AF0009A431043C861D4E9071001432068026893
:100B000022F0C00211430160D4E9030101432068CF
:100B1000826848F2FF339A4311438160D4E90501AA
:100B200008432168CA6822F0FF021043C86001E050
:100B30000EE016E02068016841F0010101602564C3
:100B4000202084F83D00256384F83E50002070BDCD
:100B500001EB4106431EB3FBF6F35B1CB3E7012038
:100B6000C2E701EB4101401EB0FBF1F0401CC0F3B5
:100B70000B00B7E7A086010080841E0000093D003D
:100B800040420F0010B586B0002100910191029102
:100B9000039100680F4988421AD10F4CA06940F0B8
:100BA0000800A061A069694600F008000490C02018
:100BB000009012200190032003900848FFF712FED6
:100BC000E06940F40010E061E06900F40010049076
:100BD00006B010BD0054004000100240000C01405F
:100BE0000248816802781144816070473800002013
:100BF000074810B5016841F010010160032000F0C2
:100C000075F80F2000F006F800F024F8002010BD61
:100C10000020024070B50D4D04464FF47A712878DB
:100C2000B1FBF0F00A490968B1FBF0F000F0DCFA22
:100C300048B9102C07D200222146501E00F036F889
:100C400000206C6070BD012070BD000038000020E5
:100C5000440000200C4808B5816941F00101816120
:100C6000816901F001010091C16941F08051C161C8
:100C7000C06900F0805000900448416821F0E061B4
:100C800041F00071416008BD0010024000000140C9
:100C9000002809DB00F01F0201219140400980007B
:100CA00000F1E020C0F8001170470000F0B40E4BD6
:100CB0001B680C46C3F30223C3F10705042D00D9BA
:100CC0000425191D072901D2002300E0DB1E01269F
:100CD00006FA05F1491E214099409E40761E1640B5
:100CE0003143F0BC01F05CBF0CED00E0064900F0C0
:100CF000070208684FF6FF03184040EA0220034A43
:100D000010430860704700000CED00E00000FA0599
:100D10002DE9F0470F46050061D0434E306800F0E2
:100D20000700B84209D2306820F00700384330602D
:100D3000306800F00700B84251D128683B4C810769
:100D400012D5400703D5606840F4E0606060287801
:100D5000000703D5606840F4605060606068A9686F
:100D600020F0F000084360602878C00728D0686849
:100D7000012810D02168022810D0890700292EDA16
:100D8000616821F0030101436160FFF731FE804695
:100D900041F288390DE021688903EFE78901EDE729
:100DA000FFF726FEA0EB0801494502D90320BDE864
:100DB000F0876068696800F00C00B0EB810FEFD13C
:100DC000306800F00700B8420BD9306820F0070007
:100DD00038433060306800F00700B84201D001208D
:100DE000E5E72878400705D56068E96820F4E06009
:100DF000084360602878000706D56068296920F4F8
:100E0000605040EAC100606000F038F86168084A4C
:100E1000C1F30311515CC8400649086006480068E8
:100E2000FFF7F8FE0020C2E7002002400010024059
:100E300074310008440000203C00002004480549AB
:100E400000684968044AC1F30221515CC8407047F8
:100E50004400002000100240843100080448054985
:100E600000684968044AC1F3C221515CC840704718
:100E70004400002000100240843100080E4A5168EE
:100E80000E4801F00C03042B11D0082B0FD10C4895
:100E9000C1F38343C903C05C0AD55168084AC1F352
:100EA0004041921E515C054A5043B0FBF1F070473F
:100EB00004494843704700000010024000127A00C5
:100EC0006431000800093D002DE9F84F040070D09E
:100ED0002078C04DC00749D06868C0F38100012860
:100EE00007D06868C0F38100022809D16868C00390
:100EF00006D52868800339D560680028E7D035E03A
:100F00006068B0F5803F0BD010B1B0F5A02F11D0C4
:100F1000286820F480302860286820F4802002E0CF
:100F2000286840F480302860606890B1FFF760FD69
:100F300006460AE0286840F480202860F0E700BFF9
:100F4000FFF756FD801B642873D828688003F7D507
:100F50000CE0FFF74DFD064605E000BFFFF748FD3A
:100F6000801B6428F0D828688003F7D420789A4E34
:100F700080074FF001094FF0000839D5686810F07C
:100F80000C0F07D06868C0F38100022809D1686897
:100F9000C00306D42868800714D52069012808D129
:100FA00010E02069B0B1C6F80090FFF721FD0746B8
:100FB00005E00AE1FFF71CFDC01B0228C4D8286821
:100FC0008007F7D52868616920F0F80040EAC10081
:100FD00028600DE0C6F80080FFF70AFD074604E030
:100FE000FFF706FDC01B022823D828688007F7D426
:100FF000207800072CD57948A169D9B1C0F80090B4
:10100000FFF7F6FC074604E0FFF7F2FCC01B0228DE
:101010000FD8686A8007F7D571484FF4FA51006815
:10102000B0FBF1F0009000BF0098411E0091FAD291
:101030000EE080E0C0F80080FFF7DAFC074604E02D
:10104000FFF7D6FCC01B022875D8686A8007F7D462
:101050002078400760D5E8690027C00008D4E86917
:1010600040F08050E861E869012700F0805000906E
:101070005C480168C90513D40168834641F4807156
:101080000160FFF7B5FC824606E000BFFFF7B0FC49
:10109000A0EB0A0064284ED8DBF80000C005F5D5A7
:1010A000E06801280AD008B1052813D0286A20F08A
:1010B00001002862286A20F0040002E0286A40F05B
:1010C00001002862E06841F2883B98B1FFF790FC8C
:1010D00082460BE0286A40F004002862EEE700BF79
:1010E000FFF786FCA0EB0A0159455AD8286A800709
:1010F000F6D50CE0FFF77CFC824605E0FFF778FCB4
:10110000A0EB0A0159454CD8286A8007F6D41FB1D4
:10111000E86920F08050E861E06988B36968C1F34C
:101120008101022944D00228C6F8608004D0FFF76C
:101130005FFC044638E034E0FFF75AFC074604E061
:10114000FFF756FCC01B02282BD828688001F7D473
:10115000206AB0F5803F05D16868A16820F40030AE
:1011600008436860D4E908010843696821F47411F0
:1011700008436860C6F86090FFF73AFC044606E052
:1011800025E000BFFFF734FC001B022809D82868BF
:101190008001F7D51BE000BFFFF72AFC001B0228E7
:1011A00002D90320BDE8F88F28688001F4D40EE04E
:1011B0000128F7D06868226A00F48031914204D196
:1011C000616A00F47010884201D00120EAE7002033
:1011D000E8E7000000100240000042428004424262
:1011E000440000200070004010B5401EB0F1807F28
:1011F00001D3012010BD4FF0E02460610F21601782
:1012000001F0CEFC0020A06107202061002010BD6D
:101210007047704770B590F83C20012A2CD001240B
:1012200080F83C40022280F83D2003685A689D689F
:1012300022F070060A6832435A60104B02689A42E4
:101240000ED00F4B9A420BD0B2F1804F08D00D4B0D
:101250009A4205D00C4B9A4202D00C4B9A4204D1D0
:10126000496825F080031943916080F83D400021D2
:1012700080F83C10084670BD022070BD002C014073
:10128000003401400004004000080040000C004011
:1012900010B5040003D094F83D0010B107E0012020
:1012A00010BD002084F83C00204600F01FF802200A
:1012B00084F83D00211D206801F004F9012084F824
:1012C000460084F83E0084F83F0084F8400084F82B
:1012D000410084F8420084F8430084F8440084F814
:1012E000450084F83D00002010BD000008B50068EE
:1012F0000B49884212D10B48C16941F00801C16114
:10130000C069002200F00800009011463220FFF76B
:10131000CDFCBDE808403220FFF7BABC08BD000094
:10132000000C00400010024090F83D10012901D04F
:1013300001207047022180F83D100168CA6842F020
:101340000102CA6000680E4988420ED00D498842E9
:101350000BD0B0F1804F08D00B49884205D00B4923
:10136000884202D00A49884204D1816801F007010D
:10137000062903D0016841F0010101600020704797
:10138000002C0140003401400004004000080040EF
:10139000000C004070B5044690F83C000025012880
:1013A00017D0012684F83C60022084F83D002068B4
:1013B000826822F0770222F47F4282600868502817
:1013C00038D00DDC20284FD005DC90B3102811D187
:1013D0004AE0022070BD302846D040280AD13BE0C8
:1013E00060282FD070280DD0B0F5805F03D0B0F505
:1013F000005F12D0012584F83D60002084F83C0095
:10140000284670BDCB68D1E90121206801F0ADF814
:101410002068816841F0770109E0CB68D1E90121BA
:10142000206801F0A2F82068816841F48041816061
:10143000E1E719E0CA684968206801F06BF95021BA
:10144000206806E0CA684968206801F0ABF96021AD
:10145000206801F094F8CEE7CA684968206801F076
:1014600059F940212068F4E7226801461046F0E768
:1014700070472DE9F041054690F83C0000260C46E7
:10148000012810D0012085F83C0072B1042A1CD03C
:10149000082A2CD00C2A50D00126002085F83C00C8
:1014A0003046BDE8F0810220FBE7D4E90012E36892
:1014B000286801F041F92868816921F00C018161F7
:1014C00028688169A26811430FE0D4E90012E3683B
:1014D000286801F079F92868816921F44061816107
:1014E00028688169A26841EA02218161D5E72868FC
:1014F000D4E9002C277B036A016A21F48071016220
:10150000C16923F4007321F0030141EA0C0121F0C9
:10151000F00C39074FF400774CEA116107EA022218
:101520001A43C16102622868C16921F00C01C161DE
:101530002868C169A26811432BE02868D4E900211A
:10154000E768036AD0F820C02CF4805CC0F820C0A3
:10155000D0F81CC023F400532CF4407C4CEA012149
:1015600021F4704C4FF6FF7101EA07314FF4005738
:1015700041EA0C0107EA02321A43C161026228689B
:10158000C16921F44061C1612868C169A26841EA6A
:101590000221C16181E710B5040003D094F83D0039
:1015A00010B107E0012010BD002084F83C00204667
:1015B00000F01EF8022084F83D00211D206800F094
:1015C00081FF012084F8460084F83E0084F83F0043
:1015D00084F8400084F8410084F8420084F8430015
:1015E00084F8440084F8450084F83D00002010BDD4
:1015F00000B585B00021009101910291039100682E
:101600001249884220D11248816941F40061816108
:10161000816901F400610491816941F040018161B7
:101620008069694600F0400004904FF480400090CB
:101630000848FFF7D7F80848416821F0C00141F099
:10164000E06141F0C001416005B000BD002C0140E7
:1016500000100240001801400000014070B504462F
:10166000006801694FF00005C943890715D4C168B6
:10167000C943890711D4E91E016101202077206840
:1016800080698007204602D0FFF7F2FE04E000F0F8
:10169000BFF8204600F064F9257720680169C94346
:1016A000490717D4C168C943490713D46FF004012F
:1016B0000161022020772068806910F4407F204675
:1016C00002D0FFF7D5FE04E000F0A2F8204600F0BB
:1016D00047F9257720680169C943090716D4C1680D
:1016E000C943090712D46FF0080101610420207773
:1016F0002068C0698007204602D0FFF7B9FE04E0E9
:1017000000F086F8204600F02BF925772068016963
:10171000C943C90617D4C168C943C90613D46FF0B9
:1017200010010161082020772068C06910F4407F13
:10173000204602D0FFF79CFE04E000F069F8204646
:1017400000F00EF9257720680169C943C90708D15F
:10175000C168C943C90704D1891E0161204600F050
:101760005BF920680169C943090609D4C168C94306
:10177000090605D46FF0800101612046FFF748FD9E
:1017800020680169C943490609D4C168C9434906AB
:1017900005D46FF040010161204600F08DF920680A
:1017A0000169C94389060BD4C168C943890607D4B6
:1017B0006FF0200101612046BDE87040FFF729BDB0
:1017C00070BD000000B585B000210091019102912B
:1017D000039100680B49884211D10B48816941F09F
:1017E000040181618069694600F004000490C02012
:1017F00000900220019003900448FEF7F3FF05B02B
:1018000000BD00000004004000100240000801403C
:10181000704770B5044690F83C0000260D4601283C
:101820000FD0012084F83C006AB1042A1DD0082A98
:101830002FD00C2A3FD00126002084F83C003046EF
:1018400070BD022070BD206800F0A2FE2068816992
:1018500041F0080181612068816921F00401816102
:10186000206881692A69114311E0206800F0C0FEF8
:101870002068816941F4006181612068816921F4F7
:1018800080618161206881692A6941EA0221816160
:10189000D2E7206800F0E2FE2068C16941F008014B
:1018A000C1612068C16921F00401C1612068C1697A
:1018B0002A69114311E0206800F004FF2068C16923
:1018C00041F40061C1612068C16921F48061C16196
:1018D0002068C1692A6941EA0221C161ACE710B5FB
:1018E000040003D094F83D0010B107E0012010BDC2
:1018F000002084F83C00204600F01EF8022084F806
:101900003D00211D206800F0DDFD012084F8460027
:1019100084F83E0084F83F0084F8400084F84100D9
:1019200084F8420084F8430084F8440084F84500B9
:1019300084F83D00002010BD08B5006806498842C3
:1019400008D10648C16941F00201C161C06900F0D7
:101950000200009008BD000000040040001002409A
:101960007047000010B50446022249B104290ED088
:10197000082913D094F84100012816D0012010BD89
:1019800094F83E000128F9D184F83E200FE094F845
:101990003F000128F2D184F83F2008E094F840008D
:1019A0000128EBD184F8402001E084F84120012295
:1019B000206800F0CDFD13492068134A884201D009
:1019C000904203D1436C43F400434364206888424F
:1019D0000DD090420BD0B0F1804F08D00B49884217
:1019E00005D00B49884202D00A49884204D1816857
:1019F00001F00701062903D0016841F001010160EF
:101A0000002010BD002C01400034014000040040C3
:101A100000080040000C00402DE9F041224C002657
:101A20002068401C2060282800D126601F4D1E48D9
:101A30002A7841681E48463A4F2A0AD26A78563AAE
:101A4000282A06DA12F1280F03DD1A4A1268012A41
:101A50000DD0A660C1B1491C616000220421074677
:101A6000FEF7C1FF2068142804DD002203E00122F4
:101A7000A260F0E7012220213846FEF7B4FF60683B
:101A8000642805D1666003E001220421FEF7ABFF64
:101A900029786D2000F03CFC6978562000F088FC25
:101AA000BDE8F041FEF716BC000000202500002034
:101AB000000C01402C000020704770477047000068
:101AC000F8B5016804460868CA684B6910F00F0F42
:101AD0004FF0000559D003F0010602F49077374328
:101AE00065D0C10705D0D10503D5616C41F0010176
:101AF0006164410705D5D90703D0616C41F002014B
:101B00006164810705D5D90703D0616C41F00401F8
:101B10006164010707D502F02001314303D0616CF5
:101B200041F008016164616C00293AD0800604D557
:101B3000900602D5204600F005FF20684069616CE0
:101B4000C0F38010090700D460B3204600F0C5FE42
:101B500020684069400621D52068143050E8001FF5
:101B600021F0400140E80012002AF5D1E06BA8B155
:101B70006D494163E06BFEF703FC002811D0E06B78
:101B8000416B01B0BDE8F040084783060FD59306CE
:101B90000DD52046BDE8F84000F0D4BE2046FFF742
:101BA0008DFFF8BD2046FFF789FF6564F8BD266B01
:101BB0002023012E7CD1C6067AD5D60678D50868B2
:101BC0004868009048694FF00206400640D5E16B36
:101BD000086840680004000CE8D0A28D8242E5D974
:101BE000E085886920282DD020680C3050E8001F3F
:101BF00021F4807140E80012002AF5D120681430E9
:101C000050E8001F21F0010140E80012002AF5D140
:101C10002068143050E8001F21F0400140E8001215
:101C2000002AF5D184F84230256320680C3050E852
:101C3000001F21F0100140E80012002AF5D1E06BEE
:101C4000FEF77AFB6663A08DE18D401A81B22AE02F
:101C5000A08DE18D401A81B2E08D0028A6D0002928
:101C6000A4D022680C3252E8000F20F4907042E8B1
:101C70000007002FF5D12068143050E8002F22F023
:101C8000010240E80027002FF5D184F84230256397
:101C900020680C3050E8002F22F0100240E80023AA
:101CA000002BF5D166632046FFF707FFF8BDFFE77D
:101CB00005062BD5150629D594F841002128F5D124
:101CC000A068B0F5805F01D12069B0B1206A411CE5
:101CD0002162216800784860E08C401E0004000CFE
:101CE000E084E3D12068C16821F08001C1602068F0
:101CF000C16841F04001C160D8E7206A0088C0F3A4
:101D000008004860206A801C2062E5E74006CDD5C7
:101D10005006CBD5CA68204622F04002CA6084F83B
:101D2000413000F045F9C1E73528000870B50400DE
:101D300004D094F84100002510B106E0012070BDE8
:101D400084F84050204600F023F8242084F8410015
:101D50002068C16821F40051C160204600F054FEA3
:101D60002068016921F4904101612068416921F0F6
:101D70002A0141612068C16841F40051C160656475
:101D8000202084F8410084F842006563002070BD83
:101D900070B586B000240094019402940394064622
:101DA000384D0368384902200322AB4227D1CB6962
:101DB00043F40033CB61CB6903F4003304938B69A4
:101DC00043F004038B618969304D01F004010491F3
:101DD0000421CDE90010039269462846FEF702FD72
:101DE0000820CDE90004694628460294FEF7FAFC73
:101DF000002211462620FEF759FF26203DE0244D03
:101E0000AB423CD1CB6943F48023CB61CB6903F473
:101E1000802304938B6943F008038B6189690392E3
:101E200001F0080104912915CDE90010194D69460A
:101E30002846FEF7D7FCE814CDE900046946284699
:101E40000294FEF7CFFC154D134828601020C5E919
:101E500001048020C5E903046C61AC612846EC6193
:101E6000FEF74AFC08B1FEF765FAB5630022114699
:101E700027206E62FEF71AFF2720FEF709FF06B043
:101E800070BD000000440040001002400008014006
:101E900000480040000C01401C0002402C020020C1
:101EA00090F84230202B01D00220704721B11AB1A6
:101EB0000023036300F004BE012070471C4830B4C7
:101EC0000123436001460478CA6800212C2C02D00B
:101ED000122C03D004E01AB9C3601EE0012A02D01C
:101EE000022A04D00FE00222C0E9032115E0104DC0
:101EF0006D1C6A1E5B2C126907D0022A03DAAC54EF
:101F0000521C026109E0C16007E0C160022A0AD0E8
:101F10006D21297056216970836030BC012204490B
:101F20000448FFF7BDBF4160816030BC70470000CE
:101F3000240000209C01002070B5044690F8410068
:101F4000202801D0022070BD49B342B32162A2848F
:101F5000E28400206064212384F84130A56B114B9A
:101F6000AB62A56B104BEB62A56B104B2B63A36BA5
:101F70005863256813462A1DA06BFEF7FBFB2168FA
:101F80006FF0400008602068143050E8001F41F0F6
:101F9000800140E80012002AF5D1002070BD012028
:101FA00070BD00008F280008D128000845280008CF
:101FB00070477047FEE70000094808B5416941F0E5
:101FC000010141614069002200F0010000901146CA
:101FD0000C20FEF76BFEBDE808400C20FEF758BE53
:101FE000001002402DE9F04F85B0002540480095D3
:101FF000019502950395816941F0400181618169F4
:1020000001F040010491816941F010018161816911
:1020100001F010010491816941F0800181618169C1
:1020200001F080010491816941F0040181618169BD
:1020300001F004010491816941F008018161806926
:10204000DFF8B08000F00800049000220F21404625
:10205000FEF7C9FCDFF8A090002220214846FEF7D9
:10206000C2FCDFF898A0002224215046FEF7BBFCFA
:10207000DFF88CB04FF48057002239465846FEF7FF
:10208000B2FC1820CDE900050124694602945846A7
:10209000FEF7A8FB0F2002268DE871006946404636
:1020A000FEF7A0FBF020CDE900056946029440460A
:1020B000FEF798FB20208DE85100694648460396BC
:1020C000FEF790FB2420CDE90004CDE902466946E5
:1020D0005046FEF787FB0320CDE90250CDE900749E
:1020E00069465846FEF77EFB05B0BDE8F08F00005C
:1020F00000100240001C014000080140000C01409B
:10210000001801400D4810B50B4901600C494160B1
:1021100000214FF480428160C0E903124161816176
:10212000C1610162FEF76AFC002803D0BDE81040DF
:10213000FEF700B910BD0000005400404800002028
:10214000A086010010B586B00024194805940494B7
:102150000094019402941549039401604721C0E959
:1021600001144FF6FF71C0E9031444618461FFF765
:1021700012FA08B1FEF7DEF8049404A90C4805949D
:10218000FFF748F808B1FEF7D5F80120CDE9004087
:1021900002940C22694606480394FFF76AF9002866
:1021A00001D0FEF7C7F806B010BD0000002C0140BA
:1021B0009C00002010B58AB0002407941C216846BA
:1021C0000894FEF723F81A48184901604721C0E92E
:1021D000011444F61F61C0E903148461FFF77FFB1B
:1021E00008B1FEF7A7F8079407A911480894FFF76C
:1021F00011F808B1FEF79EF86020CDE900040294C2
:10220000002269460A480494FFF703FB08B1FEF771
:1022100091F8042269460648FFF7FBFA08B1FEF779
:1022200089F80348FFF7CEFA0AB010BD0004004059
:10223000E400002010B586B00024174800940194F3
:102240000294039404941349059401604721C0E962
:10225000011442F20F71C0E9031480218161FFF77C
:1022600017F808B1FEF766F84FF480500090694601
:102270000948FFF78FF808B1FEF75CF8049404A949
:1022800005480594FEF7C6FF002801D0FEF752F876
:1022900006B010BD000C00402C0100200C4810B509
:1022A0000A4901604FF4E1314160002181600C2254
:1022B000C160C0E904128161C161FFF737FD0028E8
:1022C00003D0BDE81040FEF735B810BD0044004013
:1022D0009C0100200C4810B50A4901604FF4E1311F
:1022E0004160002181600C22C160C0E9041281615B
:1022F000C161FFF71BFD002803D0BDE81040FEF7C9
:1023000019B810BD00480040E4010020FEE7FEE7D8
:102310002DE9F047204C401AD4E90378276100F0FA
:1023200039FD06463946E06000F036FE1B4D29684F
:1023300000F05CFD81463146686800F057FD0446B8
:102340000121384600F0CFFE314600F01BFE414629
:1023500000F098FCA96800F049FD1149114A0646B1
:102360008C4201DD0C4602E0944200D9144621461D
:10237000484600F087FC314600F084FCE96800F034
:1023800081FC0949E860884202DC0849884200DA99
:10239000E960BDE8F0870000000000207401002023
:1023A0000000A0400000A0C00000E14400009644EE
:1023B0002DE9F047204C401AD4E90678E76100F097
:1023C000E9FC06463946A06100F0E6FD1B4D296890
:1023D00000F00CFD81463146686800F007FD0446B8
:1023E0000121384600F07FFE314600F0CBFD41462A
:1023F00000F048FCA96800F0F9FC1149114A0646B2
:102400008C4201DD0C4602E0944200D9144621467C
:10241000484600F037FC314600F034FCE96800F033
:1024200031FC0949E860884202DC0849884200DA48
:10243000E960BDE8F087000000000020880100206E
:102440000000A0400000A0C00080ED440000AF44A8
:1024500070477047FEF7C4BB30B58FB0282168467F
:10246000FDF7D4FE14210AA8FDF7D0FE01210804CF
:10247000CDE900100024029402250491CDE9075013
:102480004FF4E01009906846FEF71EFD08B172B6E1
:10249000FEE70F20CDE90A054FF48060CDE90C403E
:1024A00002210AA80E94FEF733FC002801D072B670
:1024B000FEE70FB030BD70470148FFF7CFB800000E
:1024C0002C010020F0B502681C4B1D4D1D4E1E4F07
:1024D0001E4C4FF0804C984209D0A04207D0604576
:1024E00005D0A84203D0B04201D0B84204D122F0B6
:1024F000700E4A6842EA0E02984209D0A04207D004
:10250000604505D0A84203D0B04201D0B84203D103
:1025100022F44075CA682A434D6922F080022A439A
:1025200002608A68C2620A688262984201D0A04250
:1025300001D10969016301214161F0BD002C014015
:102540000004004000080040000C0040003401403E
:1025500010B501F01F030121046A99408C43046205
:10256000016A9A401143016210BD10B5846842EAC5
:10257000032224F47F440A432243826010BD826810
:1025800022F070020A4342F00701816070470000A8
:10259000F0B5036A026A22F00102026242688469AD
:1025A000124E24F073050C682C4323F002058B684F
:1025B0002B430D4DA84201D0B04205D123F00807AE
:1025C000CB683B4323F00403A84201D0B04205D1BD
:1025D0004D6922F4407215438A692A43426084613E
:1025E000496841630362F0BD002C014000340140A2
:1025F000F0B5026A036A23F010030362436884693A
:102600000D6824F4E64444EA05248D6822F0200293
:1026100042EA05120F4D104EA84201D0B04206D139
:10262000CF6822F0800242EA071222F04002A8425C
:1026300001D0B04207D14D6923F4406343EA8503DA
:102640008D6943EA8503436084614968816302625E
:10265000F0BD0000002C014000340140F0B5026ADA
:10266000036A23F4807303624368C46922F400722E
:1026700024F073050C68124E2C438D6842EA052243
:102680000E4DA84201D0B04206D1CF6822F40062BC
:1026900042EA072222F48062A84201D0B04207D168
:1026A0004D6923F4405343EA05138D6943EA05134A
:1026B0004360C4614968C1630262F0BD002C0140FF
:1026C0000034014030B5046A026A22F4805202628A
:1026D0004268C3690D6823F4E64343EA05238D6825
:1026E00024F4005444EA0534084DA84202D0084DB1
:1026F000A84204D14D6922F4804242EA8512426028
:10270000C36149680164046230BD0000002C0140CF
:102710000034014010B5036A046A24F00104046225
:10272000846924F0F00444EA021423F00A020A4304
:102730008461026210BD000070B5056A046A24F06D
:10274000010404628469124EB0420ED0114EB042B0
:102750000BD0B0F1804F08D00F4EB04205D00F4ED5
:10276000B04202D00E4EB04203D124F00304144311
:1027700001E044F001041A0724F0F00444EA126274
:1027800025F00A0301F00A0119438261016270BD5C
:10279000002C0140003401400004004000080040CB
:1027A000000C004010B5036A046A24F010040462AF
:1027B000846923F0A00324F4704444EA023243EA1B
:1027C00001118261016210BD30B5046A056A25F00D
:1027D00010050562856925F4407545EA022222F458
:1027E00070454FF6FF7202EA033224F0A0032A4339
:1027F000A02404EA011119438261016230BD000086
:1028000010B50A4C08212046FEF7E8F810B9084830
:10281000FEF78AFD10212046FEF7E0F8002804D1DB
:10282000BDE810400248FEF77FBD10BD0018014012
:102830002C01002010B5406A0021C185C184FFF73A
:102840003DF910BD70B5446A2068406994F84110A4
:10285000C0F3C0100025212904D118B1E584204619
:1028600000F062F82068406994F84210C0F38010CC
:10287000222904D118B1E585204600F02EF8606CBD
:1028800040F0100060642046FFF718F970BD10B5E5
:102890000146406A09680968890616D40021C18486
:1028A0000168143151E8002F22F0800241E8002332
:1028B000002BF5D101680C3151E8002F42F04002A5
:1028C00041E80023002BF5D110BDFFF771FB10BDCF
:1028D00010B5406AFFF76DFB10BD01680C3151E87F
:1028E000002F22F4907241E80023002BF5D10168FB
:1028F000143151E8002F22F0010241E80023002B9F
:10290000F5D1016B012909D101680C3151E8002F83
:1029100022F0100241E80023002BF5D1202180F89D
:10292000421000210163704701680C3151E8002F0B
:1029300022F0C00241E80023002BF5D1202180F8CD
:102940004110704708B590F84210222901D00220AA
:1029500008BD82684FF480539A4201D1016921B1C8
:10296000816A9A421BD04AB10AE00268816A5268C1
:10297000C2F308020A80816A891C08E0026972B108
:102980000268526802F07F020A70816A491C816203
:10299000C18D491E0904090CC18503D01BE00268E2
:1029A0005268F1E70168CA6822F02002CA60016833
:1029B000CA6822F48072CA6001684A6922F0010282
:1029C0004A61202180F8421000214163026B012AF4
:1029D00003D0FFF773FA002008BD016301680C31D2
:1029E00051E8002F22F0100241E80023002BF5D11E
:1029F00001680A68D20602D50A6849680091818D8B
:102A0000FFF75BF8E7E7000070B50446006801696E
:102A1000E26821F44051114301612169A068084333
:102A2000616908432168CA6841F20C639A43024312
:102A3000CA6020684169A26921F440711143416173
:102A40001E492068884202D1FEF708FA01E0FEF72D
:102A5000F5F900EBC00101EB001260686421800011
:102A6000B2FBF0F3B3FBF1F36FF018067343B2FB64
:102A7000F0F5B2FBF0F605EB8305322303EB051509
:102A8000B5FBF1F5B6FBF1F605F0F00505EB061523
:102A9000B2FBF0F6B2FBF0F0B0FBF1F06FF0180211
:102AA000504306EB800003EB0010B0FBF1F021680F
:102AB00000F00F002844886070BD0000003801401D
:102AC00081628285C28500214164222180F8421002
:102AD000016921B10168CA6842F48072CA60016864
:102AE0004A6942F001024A610068C16841F0200170
:102AF000C1600020704700000148FEF7E1BF000000
:102B00009C0100200148FEF7DBBF0000E40100202B
:102B1000FEE79200030A88541144020C4B708A703D
:102B2000000EC8707047890000224254084480217A
:102B3000427081707F21C1707047000010B5134C46
:102B4000207800F03FF900221149FFF7E2FF60789A
:102B500000F038F901220E49FFF7DBFF0D480B2288
:102B60000B49C068FFF7D5FF0B480C220849C06825
:102B7000FFF7CFFF0D210648FFF7D5FFBDE8104056
:102B8000382203490548FFF7D7B900002500002087
:102B9000700200207401002088010020E401002060
:102BA0000907090E002804DB00F1E02080F800147A
:102BB000704700F00F0000F1E02080F8141D70470E
:102BC000FEF716F8FFF748FCFFF70CFAFFF7F4F9E9
:102BD000FFF7F0FAFFF762FBFFF72CFBFFF792FA23
:102BE000FFF7B0FAFFF776FB00211848FEF7BAFEB0
:102BF00004211648FEF7B6FE012204211448FDF711
:102C0000F2FE15481349012201601449416014493C
:102C1000C160154813490160144941601449C160FD
:102C200014486D2101705621417013491348FFF774
:102C300037F9134C206820B901220F490F48FFF7DC
:102C40002FF9FFF7DDFDFFF779FFF3E7E400002040
:102C5000000C0140CDCCCC3D74010020CDCC4C3DCE
:102C600000C0B1440AD7233D880100200AD7A33C05
:102C70000080BB4425000020240000209C0100208F
:102C80002800002090EA010F48BF81F0004100F1C8
:102C90008A81421A3CBF801A89184FEAD0524FF0FD
:102CA0007F4C1CEA410FA2EBD15318BF9CEA026F84
:102CB00000F03B804FF0004C4CEA00204CEA012130
:102CC00021FA03FC10EB0C0C1ED202F1FF325FEA7A
:102CD0001C2040EBC25038BF70471CF07F0F4FEAFA
:102CE000400C18BFBCF17F4F38BF7047C3F12003C1
:102CF000994008BF20F00100BCF17F4F38BF7047FA
:102D0000A0F1C04000F039B94FEA3C00000A40EBA6
:102D1000C25028BF1CF0FF0F4FEA400CE6D018BF8E
:102D2000BCF17F4F38BF7047EAE79CEA026F05D0DD
:102D300010EA5C0F08BF00F00040704710B500F0CB
:102D4000D6F800BF64FBBE3E014800F09AB900BF50
:102D50000000C07FC10DD1F19E0206DB4FEA0023C7
:102D600043F0004323FA02F07047004207D54FEAD0
:102D70004001B1F1FE4F02D24FF00000704710B594
:102D800000F0B5F849922480002070476FEA2000D7
:102D90007047000010F0004148BF4042B0FA80F395
:102DA00010FA03F2C3F19D030BD051EAC35101EBBA
:102DB0001220530638BF704700F1010008BF20F011
:102DC00001007047B0FA80F310FA03F2C3F19D03DB
:102DD0000AD0D90501EB1220530638BF704700F125
:102DE000010008BF20F00100704700004FF47F0C85
:102DF0001CEAD0121EBF1CEAD11392EA0C0F93EA10
:102E00000C0F00F0478090EA010F48BF42F4807237
:102E10004FF0004C4CEA00204CEA012102EB030287
:102E2000A0FB0113A2F50002002918BF43F0010323
:102E30005B0028BF4FEA330342EB22425FEA132CC8
:102E40004CEBC2502EBFBCEB436FB2F57C0F70470A
:102E50004FEA036CBCF1004F08BF20F00100B2F54F
:102E60007C0F38BF70470BD582F0FF0212F5803F10
:102E7000C8BF704700F1C040D8BF00F000407047A5
:102E800000F5000C5FEA4C0C48BF7047B0F1C04041
:102E900000F073B890EA010F0CEAD11348BF42F476
:102EA0008072624538BF634504D280EA010000F0B9
:102EB0000040704710B500F01AF800BF8900013ECD
:102EC00000F007B800F009B85FEA410C5FEA1C6C3B
:102ED00008D080EA010000F050B85FEA400C5FEAD9
:102EE0001C6CF6D14FF00040A0F5800070470EF149
:102EF000020E2EF0030E5EF8044B244204D44FEA77
:102F00004102B2F17F4F11D84FEA4003B3F17F4F36
:102F10000CD80ED14FEAD07CB2F17F4F0CEB4C0CA9
:102F20000CF1020C08BF4CEBD17C04E04FF0080C14
:102F300001E04FEAD17C0CEB4C0324FA03F404F0DB
:102F40000704B4F1040C06D20EEB840CBDE810406B
:102F50004CF0010C6047DFE80CF0070802024FF06C
:102F60000040A0F5800010BD0846420018BFD2F115
:102F7000807288BF00F0004010BDFF2141EAD050B0
:102F8000C005704780F0004090EA010F7FF581AEE8
:102F900081F0004100F007B890EA010F48BF81F0CE
:102FA00000413FF576AE421A04D882F00042A0EB11
:102FB000020011444FEAD0524FF07F4C1CEA410FFF
:102FC000A2EBD15318BF9CEA026F4AD04FF0004CDD
:102FD0004CEA00204CEA012121FA03FCB0EB0C0C76
:102FE0000FD412F0FE0F36D05FEA4C001DD5001250
:102FF00040EBC25038BF70471CF03F0F18BF7047FE
:103000000BE0A2F101025FEA1C2040EBC25038BF86
:1030100070471CF07F0F18BF7047C3F12003994021
:1030200014BF401E20F00100704780084FEA1223B1
:1030300008BF7047B0FA80FCA2EB0C02CCF1280C60
:1030400060FA0CF093EA122F04BF00EBC2507047F5
:103050004FEAC3707047130A5FEADC1008BF70477D
:10306000F6E79CEA026F04D010EA5C0F08BF00206C
:10307000704710B5FFF73BFF40DFF63E81F00040A0
:1030800070470CF00F03092B08BF082000F0518097
:103090000A2B0BD0082B18BF704708BF1CF0400F3D
:1030A0000AD04FF000004FF0000170471CF0400FB5
:1030B00018BF4FF0004070471CF0100F08D020F0F0
:1030C000704300F07F4242EAD3014FEA43707047F9
:1030D00000F0604021F07F4242EA000201F07F40B0
:1030E00040EA727070474FF0FF0212EAD0521CBFE4
:1030F00092F0FF038B42C2BFD14200EBC150704738
:10310000002A0AD0002B0BD0002900F00040A4BFF9
:1031100040F0FE4040F40000704700F0004070476F
:1031200043024FF00B0C18BF4CF0806C7FF40CAED8
:1031300070471CF4801F11D01CF4E02F03D06FEAFD
:10314000CC31490070474FF04050EFF3008222F03D
:10315000704242EA000282F3008870474FF000009C
:103160007047010202030405060708090A0B0C0D4B
:103170000E0F101000000000000000000102030408
:10318000060708090000000001020304AC31000832
:1031900000000020480000006C010008F431000825
:1031A00048000020C008000088010008000000005E
:1031B000000000000000000000000000000000000F
:1031C00000000000000000000000000000000000FF
:1031D00030000000010000000000000000000000BE
:1031E00000000000010000001000000000000000CE
:0431F0000024F400C3
:0400000508000131BD
:00000001FF
