:020000040800F2
:10000000E006002005010008612C0008DD2500083D
:10001000412C0008090900086F33000800000000A7
:10002000000000000000000000000000BD2F0008DC
:100030000B09000800000000952F0008BF2F0008E2
:100040001F0100081F0100081F0100081F01000810
:100050001F0100081F0100081F0100081F01000800
:100060001F0100081F0100081F0100081F010008F0
:100070001F0100081F0100081F0100081F010008E0
:100080001F0100081F010008190800081F010008CF
:100090001F0100081F0100081F0100081F010008C0
:1000A0001F0100081F0100081F0100081F010008B0
:1000B0001F0100083D3000081F0100081F01000853
:1000C0001F0100081F0100081F0100081F01000890
:1000D0001F0100081F0100081F0100081F01000880
:1000E0001F0100081F0100081F010008DFF810D0E1
:1000F00000F080FB00480047E5330008AFF30080C4
:10010000E00600200648804706480047FEE7FEE775
:10011000FEE7FEE7FEE7FEE7FEE7FEE7FEE7FEE7B7
:100120003B300008ED000008202A04DB203A21FAC9
:1001300002F00021704721FA02F3D040C2F1200200
:100140009140084319467047D2B201E000F8012BF4
:10015000491EFBD270470022F6E710B513460A4647
:1001600004461946FFF7F0FF204610BDF0B480EAC0
:100170000102D40F4200B2EB410F02D20246084600
:1001800011464A0042D0C30DDDB2C1F3C752AD1AC9
:10019000202D35DAC1F3160141F4000204B15242B8
:1001A000C5F1200602FA06F12A411044B3EBD05FF4
:1001B00023D0C4B1012DA0EBC35009DCF0BC4FF03B
:1001C000004202EAC352DBB200F5000000F086BA3A
:1001D000400000F1807000EBC350A0F1807040EA55
:1001E000D170490009E0490841EAC071A0EBC35051
:1001F00000F50000400800EBC350F0BC00F065BA09
:100200006142012202EB4101001BF6E7F0BC70479E
:1002100081F00041AAE780F00040A7E780EA0102F0
:1002200010B502F00043400022D04A001FD0010E5A
:1002300001EB1261C0F35600C2F3560240F4000015
:1002400042F40002A0FB022000047F39140400D015
:10025000401C50EA124001D44000491EC2B20C06B4
:1002600004EBD010401C4008802A02D003E000209C
:1002700010BD20F00100002900DA0020184310BD55
:100280002DE9FE4F804681EA0300C00F0C46009026
:1002900021F0004123F00045B8EB0200A94105D24E
:1002A0004046214690461C460B46024623F000403D
:1002B000104347D0270DC7F30A00C3F30A51029039
:1002C000401A019040286BDAC3F3130040F4801BFE
:1002D0000098924620B10023D2EB030A63EB0B0B8C
:1002E00001985946C0F14002504600F0CDF906464B
:1002F0000D4650465946019A00F0D5F910EB08001A
:100300006141002487EA115284EAE7731A4340D01E
:10031000009A62B3019A012A4FEA075215DC001BCA
:1003200061EB02014FF0004202EA0752CDE90042C0
:10033000001C41F5801132462B4600F00CFA03B048
:10034000BDE8F08F40462146F9E7001B61EB020152
:10035000001C41F5801300185B412018A2F500171E
:1003600047EB030140EAD570B6196D4111E06D0805
:100370004FEA360645EAC0754FEA0752001B61EBAB
:100380000201001C41F5801149084FEA30000019B4
:10039000514132462B4603B0BDE8F04F00F0CCB9D6
:1003A0000098012240000023D0EB020263EBE073CF
:1003B000009821464FEAE074B8EB000061EB0401BD
:1003C000E9E783F000435BE781F0004158E72DE95E
:1003D000FE4F81EA030404F0004421F00041009440
:1003E0004FF0000B23F0004350EA01045ED052EAC4
:1003F00003045BD0C3F30A54C1F30A552C44A4F29E
:10040000F3340194A0FB0254C1F3130141F48011B1
:10041000C3F3130343F4801301FB024400FB034EB8
:10042000840A970A44EA815447EA8357A4FB076881
:1004300002958D0A05FB07854FEA932C04FB0C54AB
:100440002705029D4FEA065847EA1637B5EB08051F
:100450006EEB070C870E920E47EA811742EA831271
:10046000A7FB0201B6EB0B0164EB00042B0D43EA82
:100470000C335E1844EB1C50DA465146E7FB020190
:10048000C5F313044FEA0B3343EA14534FEA043223
:10049000019C43EA0603A4F10C040294009CCDE9FC
:1004A00000B400F058F903B0BDE8F08F0020014619
:1004B000F9E72DE9F04D81EA030404F0004B21F047
:1004C000004514464FF0000A23F0004150EA0502AF
:1004D00020D054EA01021DD0C5F30A570246C5F3E5
:1004E0001303C1F31300C1F30A5640F4801543F41B
:1004F0008013A7EB0608101BD64608F2FD3873EBF5
:10050000050002D308F1010801E092185B41B8F13F
:10051000000F03DA00200146BDE8F08D00204FF403
:100520008011064684460EE0171B73EB050705D3C2
:10053000121B63EB050306434CEA010C49084FEA22
:10054000300092185B4150EA0107EDD152EA0300F6
:1005500012D082EA040083EA0501084305D0101B8B
:10056000AB4106D20122002306E000224FF00043F7
:1005700002E06FF0010253101AEB06004CEB085139
:1005800010EB0A0041EB0B01BDE8F04D00F0D4B8D0
:10059000C10F80EAE0700844CA079623002100F0EA
:1005A0009DB896230022114600F098B80EB540F28F
:1005B000334102910021CDE900110A460B4600F0BB
:1005C000CAF803B000BD00F0004220F00040C10DA9
:1005D000C0F3160040F400007F2901DA00207047C4
:1005E000962903DCC1F19601C84001E096398840A4
:1005F000002AF4D040427047C1F30A5210B5C1F34B
:10060000130140F2FF3341F480119A4201DA0020D5
:1006100010BD40F233439A42A2F2334203DC52420D
:10062000FFF782FD10BD904010BD00F0004230F099
:1006300000400AD0C10D01F56071C0F3160042EA16
:100640000151C2084007114370470020014670471E
:1006500001F0004330B421F0004150EA010206D01D
:100660000A0DA2F56072C1F31301002A02DC30BC4E
:1006700000207047440F44EAC104C100E01830BCB8
:1006800000EBC25000F021B8202A04DB203A00FA27
:1006900002F1002070479140C2F1200320FA03F3D9
:1006A000194390407047202A06DBCB17203A41FAC5
:1006B00002F043EAE07306E041FA02F3D040C2F1EF
:1006C000200291400843194670470029A8BF70478F
:1006D000401C490008BF20F00100704710B4B0FA78
:1006E00080FC00FA0CF050EA010404BF10BC704713
:1006F00049B1CCF1200421FA04F411FA0CF118BF2D
:10070000012121430843A3EB0C01CB1D4FEA0061FB
:100710004FEA102042BF002010BC704700EBC350CE
:1007200010440029A4BF10BC7047401C490008BFFA
:1007300020F0010010BC704710B5141E73F10004C6
:1007400008DA401C41F1000192185B411A4301D1C3
:1007500020F0010010BD2DE9F04D92469B4611B1ED
:10076000B1FA81F202E0B0FA80F220329046FFF74F
:100770008BFF04460F4640EA0A0041EA0B0153464C
:100780005A46084313D0114653EA010019D0C8F164
:1007900040025046FFF7C8FC05460E4650465946F3
:1007A0004246FFF771FF084305D0012004E02046D0
:1007B0003946BDE8F08D0020054346EAE0762C433B
:1007C00037430A986305E40AA0EB08000022FD0AFB
:1007D00044EA47540A3002D500200146E9E7010502
:1007E00010196941DDE9084500196941BDE8F04D7E
:1007F000A2E70000064C074D06E0E06840F0010368
:1008000094E8070098471034AC42F6D3FFF772FC27
:10081000B85E0008D85E000810B5044800F07EF904
:10082000BDE81040024800F079B90000080100203E
:100830003801002070B5044600688168C943C907C3
:1008400017D1816821F00101816000F0BBFC0546F1
:100850000AE000BF00F0B6FC401B022804D9206863
:100860008068C043C00706D020688068C043C007C6
:10087000F0D0002070BDA06A40F01000A062E06AD5
:1008800040F00100E062012070BD0000F8B50026D4
:100890000446009600688168C943C9072DD0816865
:1008A00041F001018160164816490068B0FBF1F083
:1008B00000E0401E00900028FBD100F083FC0546BC
:1008C00016E000BF00F07EFC401B022810D9206813
:1008D0008068C043C0070BD0A06A40F01000A0623F
:1008E000E06A40F00100E06284F824600120F8BD75
:1008F00020688068C043C007E4D10020F8BD000034
:10090000A400002040420F00FEE7704710B5094CDC
:10091000E069A061052002F0FFFEA068FFF753FE2A
:10092000E061A169401A052801DD002010BD012009
:1009300010BD00005C00002072B6FEE7F8B500258F
:100940000446009590F8240001280BD0012084F87B
:1009500024002046FFF76EFF2046FFF797FF0600B2
:1009600002D050E00220F8BDA06A20F4885040F088
:100970000200A062022000F057FE25490968B1FB81
:10098000F0F0400000E0401E00900028FBD12068FD
:10099000816841F00801816000F014FC074608E01E
:1009A00000F010FCC01B0A2803D9206880680007EB
:1009B00015D4206880680007F2D42068816841F06F
:1009C0000401816000F0FEFB074612E000F0FAFB34
:1009D000C01B0A280DD920688068400709D5A06A85
:1009E00020F0020040F01000A06284F824500120A2
:1009F000F8BD206880684007E8D4A06A20F00200B3
:100A000040F00100A06284F824503046F8BD000098
:100A1000A400002070470000F8B50024009490F86E
:100A200024202546012A12D0012280F824204A6879
:100A30001F23072A0DD20668776B521E02EB820233
:100A400093409F430B6893401F43776319E0022054
:100A5000F8BD06680D2A0AD2376BD21F02EB82025C
:100A600093409F430B6893401F43376309E0F76A45
:100A70000D3A02EB820293409F430B6893401F4361
:100A8000F7620A68072306680A2A0AD3F7680A3A4F
:100A900002EB420293409F438B6893401F43F760F1
:100AA00008E0376902EB420293409F438B68934012
:100AB0001F4337610A68102A01D0112A20D1124B36
:100AC00002689A4217D193681B0219D4936843F4C1
:100AD000000393600968102912D10C490C4A096877
:100AE000B1FBF2F101EB8101490000E0491E0091E8
:100AF0000029FBD104E0816A41F0200181620124D8
:100B000080F824502046F8BD00240140A4000020B5
:100B100040420F0070470068C06C704770B50446D3
:100B2000006806684568A90625D5B10723D5A16ADE
:100B3000C90603D4A16A41F40071A1628168C1F3BE
:100B40004241072910D1217B71B9416821F0200170
:100B50004160A06A20F48070A062A06AC00403D43F
:100B6000A06A40F00100A0622046FFF7D3FF216891
:100B70006FF01200086028062ED570072CD5A06AE9
:100B8000C00603D4A06A40F40050A06220688168C7
:100B9000C1F30231072909D04168490515D481689C
:100BA000C1F34241072910D1217B71B9416821F07D
:100BB00080014160A06A20F48050A062A06AC00554
:100BC00003D4A06A40F00100A0622046FFF722FF94
:100BD00021686FF00C00086068060CD5F0070AD099
:100BE000A06A40F48030A062204600F093F82168AB
:100BF0006FF00100086070BD2DE9F0414FF0000773
:100C000004003D467ED0A06A002628B9E66284F83A
:100C10002460204600F080F82046FFF70BFEA16A12
:100C2000C90600D420B1A06A40F01000A06269E0BB
:100C3000A16A21F4885141F00201A1626268E16970
:100C4000237B0A4347EA43010A43A1684FF48077B4
:100C5000B94209D0012907D05FF0000194F814C00F
:100C6000BCF1010F02D00AE03946F7E7F3B1A36AFD
:100C700043F02003A362E36A43F00103E3622368C5
:100C8000D3F804C02CF4694C4CEA010CC3F804C03E
:100C900021688B68DFF870C003EA0C0313438B6094
:100CA000A168B9420BD0012909D00CE0DFF85CC083
:100CB000A3690CEB43330B4343F40061DFE7218A64
:100CC0000D05A5F580152168CB6A23F470032B432D
:100CD000CB62216889680E4B1940914208D1E662C7
:100CE000A16A21F0020141F00101A162BDE8F08199
:100CF000A06A20F0020040F01000A062E06A40F01C
:100D00000100E0620120F1E7FDF7E1FF00E0FFFFF5
:100D1000FE0E1FFF7047000010B586B00021009145
:100D20000191029103911E4C03681E4903221E4843
:100D3000A34211D18B6943F400738B618B6903F477
:100D4000007304938B6943F004038B61896901F09C
:100D500004010491042113E0144CA3421DD18B69BA
:100D600043F480638B618B6903F4806304938B6924
:100D700043F004038B61896901F0040104910821A7
:100D8000CDE90012694600F023F900220E2112205D
:100D900000F018FC122000F007FC06B010BD0000A7
:100DA00000240140001002400008014000280140DA
:100DB0002DE9F84300270D460446009700F002FA9B
:100DC000804620688168C90508D5A06A40F02000E7
:100DD000A06284F824700120BDE8F8834168C90549
:100DE00003D4C06A10F4700F2AD0022000F01CFC5B
:100DF0003B490968B1FBF0F62068036939490B42A9
:100E00004FEA61014FEAA1121FD1C3684FEA611C8A
:100E100013EA0C0F19D103690B4225D1C0681042A7
:100E200022D1142023E0681C0AD02DB100F0CAF9A9
:100E3000A0EB0800A84203D920680068800725D5E8
:100E4000206800688007EED52DE003690B4202D1CF
:100E5000C168114206D0026923490A4206D1C0681E
:100E6000084203D1542002E0292000E0FC20464340
:100E7000009816E0681C11D02DB100F0A3F9A0EB8A
:100E80000800A8420AD90098B04207D2A06A40F0F0
:100E90000400A06284F8247003209DE70098401CA1
:100EA0000090B042E6D321686FF012000860A06A9B
:100EB00040F40070A06220688068C0F342400728B8
:100EC0000CD1207B50B9A06A20F48070A062A06A87
:100ED000C00403D4A06A40F00100A06200207BE7B8
:100EE000A4000020244992244992240070B50446AD
:100EF00090F8240001280DD0012084F82400204619
:100F0000FFF7C4FC02004FF0000005D084F8240075
:100F1000104670BD022070BDA16A40F201239943C2
:100F200041F48071A1621F4D23681F49AB4218D163
:100F30000E6816F4702F14D0A66A46F48016A662C6
:100F40000E68760505D5A66A26F4005646F4805646
:100F5000A662A66AF6040AD5E66A26F00606E662E6
:100F600006E0A66A26F48016A6625E68E9E7E062FB
:100F700084F824006FF00200186020688368C3F3CF
:100F80004243072B05D1A84208D1096811F4702FFC
:100F900004D0816841F480118160B9E7816841F42F
:100FA000A001F9E7002801400424014070B504467F
:100FB00000F008F90546601C02D00448007804449B
:100FC00000F000F9401BA042FAD370BD9800002049
:100FD0002DE9F84FDFF8B8910024A9F1040B23465E
:100FE0000F2709F1040AABF1040EC9E00125A54061
:100FF0002A40AA427DD1674ED1F804C0ACEB060866
:10100000B44532D014DCBCF1030F3AD009DCBCF19A
:10101000000F2AD0BCF1010F1CD0BCF1020F31D15E
:101020001DE0BCF1110F17D0BCF1120F2AD119E04D
:10103000B8F5881F19D006DCB8F5803F15D0B8F593
:10104000801F1FD111E0B8F5001F0ED0B8F5041FA6
:1010500018D10AE0CB6815E0CB681B1D12E0CB6805
:1010600008330FE0CB680C330CE08B682BB1012BFD
:101070004FF0080303D0456104E0042302E005615A
:1010800000E00023FF2A01D8064601E000F1040633
:101090004FEA840501D9A5F12005D6F8008007FAAA
:1010A00005FC28EA0C0803FA05F548EA0508C6F825
:1010B00000804D68ED0062D5374DAE6946F00106FF
:1010C000AE61AD6924F0030605F001050095334DCE
:1010D00006EB050CDCF80850A607360F07FA06F8F1
:1010E00025EA0805DFF8B880404503D14FF0000835
:1010F00017E044E0DFF8AC80404502D14FF0010832
:101100000FE0DFF8A480404502D14FF0020808E06C
:10111000DFF89880404502D14FF0030801E04FF01E
:10112000040808FA06F848EA0508CCF808804D6873
:10113000D9F80060ED024D4601D5164300E0964314
:101140002E604D68DAF80060AD02554601D51643B1
:1011500000E096432E604D68DBF80060AD035D460D
:1011600001D5164300E096432E604D68DEF800601E
:10117000ED03754601D5164300E096432E60641CCE
:101180000D682A46E5407FF431AFBDE8F88F0000D6
:10119000080401400000111000100240000001404E
:1011A00000080140000C0140001001400014014003
:1011B0008068084000D0012070470AB10161704783
:1011C0000904FBE701488068704700009800002090
:1011D00070B5040025D094F83D00002520B984F8AE
:1011E0003C50204600F050F9242084F83D0020684F
:1011F000016821F0010101602068016841F40041AB
:1012000001602068016821F40041016000F06AFB80
:101210004D4A6168914201D84C4900E04C498842EE
:1012200001D2012070BD4B492368B0FBF1F15E682B
:1012300026F03F060E435E606368934206D94FF482
:10124000967359434FF47A73B1FBF3F12368491C49
:101250001E6A26F03F06314319626168914210D838
:101260004900401EB0FBF1F2521CC2F30B02042AEB
:1012700001D2042022E0B0FBF1F0401CC0F30B00CF
:101280001CE0A268F2B301EBC10303EB0116431E9D
:10129000B3FBF6F35B1C43F480431B0549D092B3C8
:1012A00001EBC10202EB0111401EB0FBF1F0401C4A
:1012B000C0F30B0040F4804040F400402168CA694C
:1012C0004CF6FF739A431043C861D4E907100143F9
:1012D0002068026822F0C00211430160D4E90301D2
:1012E00001432068826848F2FF339A4311438160CA
:1012F000D4E9050108432168CA6822F0FF021043BF
:10130000C86001E00EE016E02068016841F00101CC
:1013100001602564202084F83D00256384F83E5058
:10132000002070BD01EB4106431EB3FBF6F35B1CCE
:10133000B3E70120C2E701EB4101401EB0FBF1F031
:10134000401CC0F30B00B7E7A086010080841E009C
:1013500000093D0040420F002DE9FF4F83B09A463F
:10136000DDE9119793460446DDF84080FFF72AFF38
:10137000054694F83D0020287FD1192301224049D9
:101380002046009501F0C2F9002876D194F83C007F
:10139000012872D0012084F83C0020680168C90748
:1013A00003D1016841F0010101602068016821F466
:1013B00000610160212084F83D00402084F83E0057
:1013C00000262664C4F82480A4F82A90608D208525
:1013D0002C48E062CDE9007553465A4620460499F0
:1013E00001F014F970B930E02A463946204601F080
:1013F00033FA58B1206C042804D12068016841F404
:1014000000710160012007B0BDE8F08F606A2168BB
:1014100000780861606A401C6062218D491E89B2B3
:101420002185628D521E628522685369DB435B070A
:101430000BD469B100781061606A401C6062208D35
:10144000401E2085608D401E6085208D0028CBD1F8
:101450002A463946204601F02DF90028CAD154F811
:101460003D0B016841F400710160202004F81E0961
:10147000E67766770020C6E7FFE70220C3E70000B3
:10148000020010000000FFFF10B586B0002100919F
:1014900001910291039100681349884222D1134CB3
:1014A000A06940F00800A061A069694600F008004A
:1014B00004904FF44070009012200190032003909C
:1014C0000B48FFF785FD0B48416841F0E06141F0B2
:1014D00002014160E06940F40010E061E06900F45D
:1014E0000010049006B010BD0054004000100240EF
:1014F000000C01400000014002488168027811445C
:101500008160704798000020074810B5016841F0DD
:1015100010010160032000F075F80F2000F006F8BC
:1015200000F024F8002010BD0020024070B50D4DE1
:1015300004464FF47A712878B1FBF0F00A49096843
:10154000B1FBF0F000F0A4FB48B9102C07D2002248
:101550002146501E00F036F800206C6070BD01205E
:1015600070BD000098000020A40000200C4808B5C1
:10157000816941F001018161816901F001010091FE
:10158000C16941F08051C161C06900F08050009094
:101590000448416821F0E06141F00071416008BDFC
:1015A0000010024000000140002809DB00F01F028B
:1015B000012191404009800000F1E020C0F80011B5
:1015C00070470000F0B40E4B1B680C46C3F30223B7
:1015D000C3F10705042D00D90425191D072901D2DF
:1015E000002300E0DB1E012606FA05F1491E21401A
:1015F00099409E40761E16403143F0BC01F0D2BEA9
:101600000CED00E0064900F0070208684FF6FF0302
:10161000184040EA0220034A104308607047000067
:101620000CED00E00000FA0510B501460020234C47
:10163000012922D0022939D010291DD161682268E0
:10164000D20119D51E48C1F38342C903805C0AD573
:1016500061681B4AC1F34041921E515C194AB2FBBA
:10166000F1F1484301E0184948436168490203D455
:1016700040000321B0FBF1F010BD226AC2F301214A
:10168000012903D1920701D5C80310BD022905D154
:10169000626A920702D549F6404010BD0329FCD189
:1016A00021688903F9D54FF2244010BD00F02AF9D2
:1016B0006168C1F38131491C4900DBE70010024039
:1016C000905E000800127A0000093D002DE9F84301
:1016D00005460078354CC00754D0E0690026C000AC
:1016E00008D4E06940F08050E061E069012600F034
:1016F000805000902E480168C90512D401688046C8
:1017000041F480710160FFF75DFD074605E000BF11
:10171000FFF758FDC01B642823D8D8F80000C00587
:10172000F6D5206A10F4407021D0A98801F44071E8
:1017300081421CD0206A1F49012220F440700A60B7
:1017400000220A602062C00711D0FFF73BFD074668
:1017500041F2883808E000BFFFF734FDC11B414566
:1017600002D90320BDE8F883206A8007F4D5206AF7
:10177000696820F44070084320621EB1E06920F0DF
:101780008050E0612878800705D56068A96820F45A
:101790004040084360602878C00605D56068E96865
:1017A00020F48000084360600020DBE70010024066
:1017B00000700040400442422DE9F0470F4605000A
:1017C00061D0434E306800F00700B84209D230685B
:1017D00020F0070038433060306800F00700B8425E
:1017E00051D128683B4C810712D5400703D560686A
:1017F00040F4E06060602878000703D5606840F43A
:10180000605060606068A96820F0F0000843606084
:101810002878C00728D06868012810D021680228DD
:1018200010D0890700292EDA616821F003010143F5
:101830006160FFF7C7FC804641F288390DE02168FE
:101840008903EFE78901EDE7FFF7BCFCA0EB080196
:10185000494502D90320BDE8F0876068696800F057
:101860000C00B0EB810FEFD1306800F00700B842F8
:101870000BD9306820F0070038433060306800F042
:101880000700B84201D00120E5E72878400705D5D8
:101890006068E96820F4E060084360602878000729
:1018A00006D56068296920F4605040EAC100606094
:1018B00000F038F86168084AC1F30311515CC84070
:1018C0000649086006480068FFF730FE0020C2E7BE
:1018D0000020024000100240A05E0008A40000208A
:1018E0009C0000200448054900684968044AC1F387
:1018F0000221515CC8407047A40000200010024043
:10190000B05E00080448054900684968044AC1F30C
:10191000C221515CC8407047A40000200010024062
:10192000B05E00080E4A51680E4801F00C03042B0B
:1019300011D0082B0FD10C48C1F38343C903C05CFD
:101940000AD55168084AC1F34041921E515C054ACC
:101950005043B0FBF1F07047044948437047000022
:101960000010024000127A007E5E000800093D006F
:101970002DE9F84F040070D02078C04DC00749D041
:101980006868C0F38100012807D06868C0F381004F
:10199000022809D16868C00306D52868800339D5B4
:1019A00060680028E7D035E06068B0F5803F0BD074
:1019B00010B1B0F5A02F11D0286820F48030286035
:1019C000286820F4802002E0286840F480302860F5
:1019D000606890B1FFF7F6FB06460AE0286840F41D
:1019E00080202860F0E700BFFFF7ECFB801B642835
:1019F00073D828688003F7D50CE0FFF7E3FB0646B1
:101A000005E000BFFFF7DEFB801B6428F0D82868E4
:101A10008003F7D420789A4E80074FF001094FF0E9
:101A2000000839D5686810F00C0F07D06868C0F35B
:101A30008100022809D16868C00306D4286880079D
:101A400014D52069012808D110E02069B0B1C6F88A
:101A50000090FFF7B7FB074605E00AE1FFF7B2FB8E
:101A6000C01B0228C4D828688007F7D52868616998
:101A700020F0F80040EAC10028600DE0C6F80080C0
:101A8000FFF7A0FB074604E0FFF79CFBC01B022802
:101A900023D828688007F7D4207800072CD5794808
:101AA000A169D9B1C0F80090FFF78CFB074604E0AC
:101AB000FFF788FBC01B02280FD8686A8007F7D59C
:101AC00071484FF4FA510068B0FBF1F0009000BF8C
:101AD0000098411E0091FAD20EE080E0C0F800802C
:101AE000FFF770FB074604E0FFF76CFBC01B022802
:101AF00075D8686A8007F7D42078400760D5E86910
:101B00000027C00008D4E86940F08050E861E86927
:101B1000012700F0805000905C480168C90513D48B
:101B20000168834641F480710160FFF74BFB8246F8
:101B300006E000BFFFF746FBA0EB0A0064284ED882
:101B4000DBF80000C005F5D5E06801280AD008B12F
:101B5000052813D0286A20F001002862286A20F0A6
:101B6000040002E0286A40F001002862E06841F2C7
:101B7000883B98B1FFF726FB82460BE0286A40F0CD
:101B800004002862EEE700BFFFF71CFBA0EB0A0190
:101B900059455AD8286A8007F6D50CE0FFF712FBA2
:101BA000824605E0FFF70EFBA0EB0A0159454CD831
:101BB000286A8007F6D41FB1E86920F08050E861F8
:101BC000E06988B36968C1F38101022944D0022821
:101BD000C6F8608004D0FFF7F5FA044638E034E038
:101BE000FFF7F0FA074604E0FFF7ECFAC01B022803
:101BF0002BD828688001F7D4206AB0F5803F05D142
:101C00006868A16820F4003008436860D4E90801DE
:101C10000843696821F4741108436860C6F860904D
:101C2000FFF7D0FA044606E025E000BFFFF7CAFA46
:101C3000001B022809D828688001F7D51BE000BFE7
:101C4000FFF7C0FA001B022802D90320BDE8F88F75
:101C500028688001F4D40EE00128F7D06868226A71
:101C600000F48031914204D1616A00F4701088421E
:101C700001D00120EAE70020E8E700000010024060
:101C80000000424280044242A40000200070004054
:101C900010B5401EB0F1807F01D3012010BD4FF080
:101CA000E02460610F21601701F07CFB0020A0613F
:101CB00007202061002010BD7047704710B590F8D4
:101CC0003C20012A22D0012280F83C20CA688C687E
:101CD00022F4407222434C6822F4806222430C6852
:101CE00022F4006222430C6922F4805222434C69A0
:101CF00022F400522243C969002322F480420A439D
:101D000001684A6480F83C30002010BD022010BDFC
:101D100070B590F83C20012A26D0012480F83C4080
:101D2000022280F83D2003685A689D6822F0700600
:101D30000A6832435A600D4B02689A4208D0B2F1E9
:101D4000804F05D00A4B9A4202D00A4B9A4204D1E6
:101D5000496825F080031943916080F83D400021D7
:101D600080F83C10084670BD022070BD002C014078
:101D7000000400400008004010B5040003D094F8AF
:101D80003D0010B107E0012010BD002084F83C00A8
:101D9000204600F01FF8022084F83D00211D206835
:101DA00001F052F9012084F8460084F83E0084F8DE
:101DB0003F0084F8400084F8410084F8420084F831
:101DC000430084F8440084F8450084F83D00002076
:101DD00010BD000000B585B0002100910191029175
:101DE00003911A4A01681A48914209D1816941F464
:101DF00000618161806900F40060049005B000BD5D
:101E0000144A9142FAD1C16941F00201C161C1692C
:101E100001F002010491816941F00401816180694E
:101E2000694600F004000490C02000900220019058
:101E300003900948FFF7CCF8002201211D20FFF78D
:101E4000C1FB1D20FFF7B0FBD8E70000002C0140CC
:101E500000100240000400400008014090F83D10CE
:101E6000012901D001207047022180F83D1001684E
:101E7000CA6842F00102CA6000680B49884208D073
:101E8000B0F1804F05D00949884202D00849884204
:101E900004D1816801F00701062903D0016841F0EF
:101EA0000101016000207047002C01400004004047
:101EB0000008004070B5044690F83C000025012859
:101EC00017D0012684F83C60022084F83D00206889
:101ED000826822F0770222F47F42826008685028EC
:101EE00038D00DDC20284FD005DC90B3102811D15C
:101EF0004AE0022070BD302846D040280AD13BE09D
:101F000060282FD070280DD0B0F5805F03D0B0F5D9
:101F1000005F12D0012584F83D60002084F83C0069
:101F2000284670BDCB68D1E90121206801F0CFF8C7
:101F30002068816841F0770109E0CB68D1E901218F
:101F4000206801F0C4F82068816841F48041816014
:101F5000E1E719E0CA684968206801F06DF950218D
:101F6000206806E0CA684968206801F076F96021B7
:101F7000206801F0B6F8CEE7CA684968206801F029
:101F80005BF940212068F4E7226801461046F0E73B
:101F90002DE9F0410D46040003D094F83D0018B13E
:101FA00008E00120BDE8F081002084F83C002046D4
:101FB00000F040F8022084F83D002068816844F277
:101FC000070291438160211D206801F03DF82268DD
:101FD00090689169166A2B68AF69034340F2033039
:101FE000814341EA0721A868EF6908434FF6FC41A5
:101FF0008843E96840EA0720014328692F6A000105
:1020000040EA0730084369686D6926F0220646EA0F
:102010000515294393602268906154F8460B0162CC
:10202000012004F81F09E0752076E0762077A0757E
:102030000020B7E770B586B00025009501950295A0
:1020400003950068B0F1804F1FD11148C16941F07C
:102050000101C161C16901F001010491816941F08F
:102060000401816180690B4E00F00400012404909A
:10207000694600943046FEF7ABFF0220CDE900052B
:10208000694602943046FEF7A3FF06B070BD00001B
:102090000010024000080140704770B50446006817
:1020A00001694FF00005C943890715D4C168C943C8
:1020B000890711D4E91E0161012020772068806919
:1020C0008007204602D0FFF7E7FF04E000F0BEF8EB
:1020D000204600F050F9257720680169C943490777
:1020E00017D4C168C943490713D46FF004010161D3
:1020F000022020772068806910F4407F204602D0BB
:10210000FFF7CAFF04E000F0A1F8204600F033F921
:10211000257720680169C943090716D4C168C943F6
:10212000090712D46FF008010161042020772068AC
:10213000C0698007204602D0FFF7AEFF04E000F040
:1021400085F8204600F017F9257720680169C94312
:10215000C90617D4C168C943C90613D46FF010016A
:102160000161082020772068C06910F4407F204674
:1021700002D0FFF791FF04E000F068F8204600F07D
:10218000FAF8257720680169C943C90708D1C168F1
:10219000C943C90704D1891E0161204600F03AF9FC
:1021A00020680169C943090609D4C168C943090601
:1021B00005D46FF0800101612046FFF77DFD2068A6
:1021C0000169C943490609D4C168C943490605D410
:1021D0006FF040010161204600F086F92068016936
:1021E000C94389060BD4C168C943890607D46FF077
:1021F000200101612046BDE87040FFF75EBD70BD63
:1022000000B585B000210091019102910391006811
:102210000B49884212D10B48816941F00401816168
:102220008069694600F0040004904FF4407000900B
:102230000220019003900448FEF7CAFE05B000BDDD
:10224000002C01400010024000080140704770B5AA
:10225000044690F83C0000260D4601280FD00120CE
:1022600084F83C006AB1042A1DD0082A2FD00C2A19
:102270003FD00126002084F83C00304670BD02208B
:1022800070BD206800F036FF2068816941F00801C8
:1022900081612068816921F0040181612068816980
:1022A0002A69114311E0206800F04CFF2068816921
:1022B00041F4006181612068816921F4806181615C
:1022C000206881692A6941EA02218161D2E7206898
:1022D00000F064FF2068C16941F00801C161206815
:1022E000C16921F00401C1612068C1692A691143F3
:1022F00011E0206800F07EFF2068C16941F40061B0
:10230000C1612068C16921F48061C1612068C1692F
:102310002A6941EA0221C161ACE710B5040003D08B
:1023200094F83D0010B107E0012010BD002084F8B2
:102330003C00204600F01EF8022084F83D00211DDC
:10234000206800F081FE012084F8460084F83E00F9
:1023500084F83F0084F8400084F8410084F842008B
:1023600084F8430084F8440084F8450084F83D0074
:10237000002010BD7047704710B50446022249B1D5
:1023800004290ED0082913D094F84100012816D052
:10239000012010BD94F83E000128F9D184F83E20B8
:1023A0000FE094F83F000128F2D184F83F2008E0C4
:1023B00094F840000128EBD184F8402001E084F833
:1023C00041200122206800F075FE0F4920688842F4
:1023D00003D1426C42F4004242642068884208D033
:1023E000B0F1804F05D00949884202D0084988429F
:1023F00004D1816801F00701062903D0016841F08A
:1024000001010160002010BD002C014000040040CB
:102410000008004070B52A4D01682A4C2A68914294
:102420000FD1566A214642F21073B1F908109E424C
:1024300001D2491C03E0566A9E4201D3491E218104
:102440005362214900680968884238D128680168C8
:10245000C1F300112175416AB4F90820C06A02FB7A
:10246000001565602068281AFEF792F82560206143
:102470001648FEF763FA1548FEF738FD05211348A4
:10248000FEF796FC1148FEF746FB114C80B2208007
:10249000FEF78CF80F4A104BFDF799FF00220F4B07
:1024A000FEF707F8FEF7D4F8A0606068FEF7BDF805
:1024B0000B4A0C4BFDF7E4FEFEF7CAF8606070BDF6
:1024C00004020020C80000204C0200200801002067
:1024D0005C0000209A9999999981764000FEAF405E
:1024E0007B14AE47E17A843F704770B5040004D096
:1024F00094F84100002510B106E0012070BD84F879
:102500004050204600F024F8242084F84100206840
:10251000C16821F40051C160204600F0B1FE20687E
:10252000016921F4904101612068416921F02A018B
:1025300041612068C16841F40051C1606564202098
:1025400084F8410084F842006563002070BD0000FB
:1025500030B585B00024009401940294039400687F
:102560001449884224D11448C16941F48021C161D1
:10257000C16901F480210491816941F00801816100
:1025800080690E4D00F0080004904FF480600090C8
:10259000022001900320039069462846FEF718FDAB
:1025A000E814CDE90004694628460294FEF710FDC0
:1025B00005B030BD0048004000100240000C014052
:1025C00090F84230202B01D00220704721B11AB17F
:1025D0000023036300F0B0BE01207047FEE70168EE
:1025E0004A69D24352050FD46FF480624A610021D8
:1025F00040F8301F202242738173026942F00402C6
:102600000261017301207047002070472DE9F843F3
:10261000044600680D46DDE90897016898461646AD
:1026200041F4807101604B4600224FF001112046B9
:10263000009700F06BF848B120680068C00502D52B
:102640004FF4007020640320BDE8F883216805F092
:10265000FE0008613B464A461549204600F09EF8B8
:1026600088B920684169806900903A464946204609
:1026700000F0F2F848B1206C042804D12068016809
:1026800041F4007101600120DEE7F5B2B8F1010FFD
:1026900009D02168300A08613A464946204600F0D0
:1026A000DBF80028E7D1206805610020CCE70000B6
:1026B0000200010070B516460D4604461EE0204695
:1026C000FFF78DFF08B1012070BD681C16D0FEF722
:1026D00079FD801BA84200D885B920684069C043B5
:1026E00040070BD5002044F8300F20216173A07300
:1026F000216941F0200121612073E4E720684069ED
:10270000C0434007DBD4002070BD00002DE9F04736
:10271000984617460D460446C1F30746DDF820905B
:102720002AE000BFB8F1FF3F26D0FEF74BFDA0EB3B
:102730000901414502D8B8F1000F1DD12068012ED2
:1027400016D0806925EA00000004000C12D0002099
:10275000B84211D1002044F8300F20216173A073DA
:10276000216941F02001216120730120BDE8F0873B
:102770004069E7E70120EBE72068012E0AD0806975
:1027800025EA00000004000C06D00020B842C9D0A1
:102790000020EBE74069F3E70120F7E72DE9F04778
:1027A000984616460D4604464FF000094FF0200AA1
:1027B000C1F3074723E020684069C043400515D4B2
:1027C0002068016841F40071016021686FF4806045
:1027D0004861C4F8309084F83DA084F83E90216CA4
:1027E00041F00401216484F83C9021E0701C06D083
:1027F000FEF7E8FCA0EB0800B04203D816B1012FA9
:102800001FD021E02068012F15D0806925EA000043
:102810000004000C18D000BF44F8309F84F80DA0CD
:1028200084F80E90216941F02001216184F80C9018
:102830000120BDE8F087406925EA00000004000C93
:10284000EAD12068406901E02068806925EA00003B
:102850000004000CAFD1ECE770B516460D460446F7
:102860001EE02046FFF7BBFE08B1012070BD681CCA
:1028700016D0FEF7A7FC801BA84200D885B92068B7
:102880004069C04300060BD5002044F8300F2021DA
:102890006173A073216941F0200121612073E4E795
:1028A00020684069C0430006DBD4002070BD0000F2
:1028B00010B5074C00224FF480512046FEF77DFCF6
:1028C00020460122BDE810405103FEF776BC00000F
:1028D000000C01403EB5002411480094019402947C
:1028E0000E498460016001250573047505614FF48C
:1028F00060214460C161FEF77FF908B1FEF71CF862
:102900000220CDE90005694602940548FEF784F8E7
:10291000002801D0FEF710F83EBD00000024014061
:10292000080100203EB5002411480094019402944F
:102930000E498460016004730475012505614FF43C
:1029400060214460C161FEF757F908B1FDF7F4FF5B
:102950000320CDE90005694602940548FEF75CF8BE
:10296000002801D0FDF7E8FF3EBD0000002801402F
:10297000380100202DE9F04385B00024254800945B
:10298000019402940394816941F01001816181698D
:1029900001F010010491816941F020018161816998
:1029A00001F020010491816941F004018161816994
:1029B00001F004010491816941F00801816180699D
:1029C000DFF8548000F008004FF420450490002206
:1029D00029464046FEF7F1FBDFF840904FF2C00772
:1029E000002239464846FEF7E8FB009502260125FD
:1029F0000396CDE9015469464046FEF7E9FA00978F
:102A00000396CDE9015469464846FEF7E1FA05B060
:102A1000BDE8F0830010024000100140000C0140AE
:102A20000D4810B50B4901600C49416000214FF47D
:102A300080428160C0E9031241618161C16101622C
:102A4000FEF7C6FB002803D0BDE81040FDF774BFB9
:102A500010BD00000054004068010020A086010065
:102A600010B596B000240F941094119412941394FE
:102A70001C2168461494FDF76EFB202107A8FDF782
:102A80006AFB2C482A4901604721C0E9011442F23F
:102A90000F71C0E9031444618461FFF76DF908B157
:102AA000FDF74AFF4FF480500F900FA92148FFF720
:102AB00001FA08B1FDF740FF1E48FFF72EFC08B1F0
:102AC000FDF73AFF139413A91A481494FFF720F95D
:102AD00008B1FDF731FF6020CDE9000402940394B2
:102AE000049405940022694612480694FFF7AFFB50
:102AF00008B1FDF721FF042269460E48FFF7A7FB46
:102B000008B1FDF719FF0794089409944FF4005099
:102B10000A94CDE90B4007A906480E94FFF7CEF8BA
:102B200008B1FDF709FF0348FFF76AFB16B010BDB7
:102B3000002C0140BC01002010B58CB02421684657
:102B4000FDF709FB0024154809944FF080410A94D1
:102B5000C0E9001444F62061C0E9024104618461C7
:102B60000320CDE900040120CDE902040494CDE95D
:102B700005400794694609480894FFF709FA08B127
:102B8000FDF7DAFE099409A904480A94FFF7C0F892
:102B9000002801D0FDF7D0FE0CB010BD04020020CB
:102BA00010B586B000241748009401940294039451
:102BB00004941349059401604721C0E9011441F2CE
:102BC0008831C0E903148461FFF7D6F808B1FDF736
:102BD000B3FE4FF48050009069460A48FFF76AF947
:102BE00008B1FDF7A9FE049404A906480594FFF76F
:102BF0008FF8002801D0FDF79FFE06B010BD000041
:102C0000000400404C0200200C4810B50A49016045
:102C10004FF4E1314160002181600C22C160C0E9C4
:102C200004128161C161FFF760FC002803D0BDE898
:102C30001040FDF781BE10BD004800409402002006
:102C4000FEE7000010B50448FFF708F9BDE81040A2
:102C50000248FFF703B90000040200204C020020E4
:102C6000FEE770B5002404F1B000C0B200F0E4F853
:102C7000002000F0E1F8102000F0DEF80025002030
:102C800000F0ECF86D1CEDB2802DF8D3641CE4B2BA
:102C9000082CE8D370BD10B5C820FEF787F9BDE851
:102CA000104000F065BB10B50446B031C8B200F06A
:102CB000C3F8102040EA141000F0BEF804F00F0032
:102CC000BDE8104000F0B8B82DE9F041203A0024EA
:102CD0000D468046D6B27F2803D900208D1C804641
:102CE000EDB2102B29460FD0FFF7DDFF164906EB9A
:102CF000460001EB4005285D00F0B0F8641CE4B22A
:102D0000062CF8D3BDE8F081FFF7CDFF0F4F00BFD1
:102D100004EB0610385C00F0A1F8641CE4B2082C47
:102D2000F6D36D1CE9B24046FFF7BDFF5FF000042B
:102D300004EB06103844007A00F090F8641CE4B20A
:102D4000082CF5D3DEE70000743700089C39000832
:102D50002DE9FF5F05461E46DDF838800298FDF735
:102D600032FC81460F9800244FF00A0A470825E0FC
:102D7000301B401EC1B20A2000F0D4FCB9FBF0F1B8
:102D8000B1FBFAF20AFB1210BBF1000F05D1711E64
:102D90008C4202DA40B14FF0010B3030C2B207FB77
:102DA0000450C0B20F9B04E007FB04500F9BC0B25D
:102DB00020220199FFF788FF641CE4B2B442D7D304
:102DC00007FB0650C0B22E220F9B0199FFF77CFF34
:102DD00041460A2000F0A6FCFDF7E3FB0446484606
:102DE000FDF7D6FB0299FDF716FA2146FDF716FA14
:102DF000FDF7E9FB002481466D1D18E0A8EB0400F7
:102E0000401EC1B20A2000F08DFCB9FBF0F1B1FB0D
:102E1000FAF20AFB1211A01907FB00503031CAB2B6
:102E2000C0B20F9B0199FFF74FFF641CE4B2444509
:102E3000E4D3BDE8FF9F000001B584B001214FF449
:102E4000807204A88DE807000B4600227821024812
:102E5000FEF782FA05B000BD6801002001B584B01C
:102E600001214FF4807204A88DE807000B46402230
:102E700078210248FEF770FA05B000BD6801002015
:102E8000084909480A6A4260C969016000218160F5
:102E9000C16001614FF07E51416104498161044983
:102EA000C161704738000020A800002000002841C0
:102EB000CDCC4C3D2DE9F0411E469046069FFDF7D6
:102EC000A7F9154C054601462060A068FDF74EF9AC
:102ED0001249A060884202DC1149884200D9A160F1
:102EE00028462169FDF794F93946FDF797F9074619
:102EF0003046A168FDF792F9064629464046FDF79F
:102F00008DF93146FDF732F93946FDF72FF9256184
:102F1000A061BDE8F08100003800002000007A4484
:102F200000007AC42DE9F0411E469046069FFDF749
:102F30006FF9154C054601466060E068FDF716F92B
:102F40001249E060884202DC1149884200D9E16000
:102F500028466169FDF75CF93946FDF75FF90746D8
:102F60003046E168FDF75AF9064629464046FDF726
:102F700055F93146FDF7FAF83946FDF7F7F8C4E997
:102F80000550BDE8F08100003800002000007A44C0
:102F900000007AC47047000010B5074C00224FF4BF
:102FA00000512046FEF709F920460122BDE81040F5
:102FB0001103FEF702B90000000C01407047FEF754
:102FC0009BBA30B593B028216846FDF7C4F81421A8
:102FD0000AA8FDF7C0F8002501200F95109511955E
:102FE000010412958DE8230004904FF4E010CDE920
:102FF0000810022407946846FEF7BAFC08B172B6BE
:10300000FEE70AA90F2081E831004FF48060CDE986
:103010000D0502210AA8FEF7CFFB08B172B6FEE744
:103020004FF4004011900F940FA8FEF74FFB0028BB
:1030300001D072B6FEE713B030BD70470148FFF70C
:103040002CB800004C020020F0B50268164B174C5B
:10305000174D4FF08047984205D0B84203D0A042A8
:1030600001D0A84203D122F070064A683243984248
:1030700005D0B84203D0A04201D0A84203D122F427
:103080004074CA6822434C6922F0800222430260E5
:103090008A68C2620A688262984201D10969016342
:1030A00001214161F0BD0000002C014000040040FE
:1030B0000008004010B501F01F030121046A994087
:1030C0008C430462016A9A401143016210BD10B53D
:1030D000846842EA032224F47F440A432243826044
:1030E00010BD826822F070020A4342F0070181603D
:1030F0007047000030B5036A026A22F001020262E2
:103100004268846924F073050C682C4323F002059F
:103110008B682B430A4DA8420BD123F00805CB68DE
:1031200022F440722B434D6923F0040315438A694E
:103130002A434260846149684163036230BD0000F4
:10314000002C014030B5026A036A23F010030362C9
:10315000436884690D6824F4E64444EA05248D68D4
:1031600022F0200242EA05120B4DA8420ED1CD6892
:1031700022F0800242EA05124D6923F4406343EADB
:1031800085038D6922F0400243EA85034360846130
:1031900049688163026230BD002C014030B5036A8A
:1031A000026A22F4807202624268C46923F40073E6
:1031B00024F073050C682C438D6843EA05230C4DFD
:1031C000A8420ED1CD6823F4006343EA05234D697C
:1031D00022F4405242EA05128D6923F4806342EAE8
:1031E00005124260C4614968C163036230BD0000DA
:1031F000002C014030B5046A026A22F48052026257
:103200004268C3690D6823F4E64343EA05238D68E9
:1032100024F4005444EA0534064DA84204D14D6913
:1032200022F4804242EA85124260C3614968016427
:10323000046230BD002C014010B5036A046A24F01A
:1032400001040462846924F0F00444EA021423F0C7
:103250000A020A438461026210BD10B5036A046A5F
:1032600024F010040462846923F0A00324F4704461
:1032700044EA023243EA01118261016210BD00009A
:1032800070B5044600680169E26821F440511143B9
:1032900001612169A0680843616908432168CA681F
:1032A00041F20C639A430243CA6020684169A269F3
:1032B00021F44071114341611E492068884202D1C6
:1032C000FEF720FB01E0FEF70DFB00EBC00101EB78
:1032D0000012606864218000B2FBF0F3B3FBF1F3ED
:1032E0006FF018067343B2FBF0F5B2FBF0F605EB96
:1032F0008305322303EB0515B5FBF1F5B6FBF1F6BB
:1033000005F0F00505EB0615B2FBF0F6B2FBF0F0A8
:10331000B0FBF1F06FF01802504306EB800003EBB6
:103320000010B0FBF1F0216800F00F002844886025
:1033300070BD00000038014081628285C285002195
:103340004164222180F84210016921B10168CA68F4
:1033500042F48072CA6001684A6942F001024A611F
:103360000068C16841F02001C16000207047FEE79D
:10337000FEB50024094F4FF4807501263819CDE9B8
:10338000000601230022782102950548FDF7E4FF9D
:10339000641CE4B21B2CF1D3FEBD00000000002031
:1033A000680100200907090E002804DB00F1E02075
:1033B00080F80014704700F00F0000F1E02080F862
:1033C000141D704702E008C8121F08C1002AFAD174
:1033D00070477047002001E001C1121F002AFBD195
:1033E000704700001CB5FEF78FF8FFF7EAFDFFF706
:1033F000C1FAFFF7A1FBFFF7D3FBFFF711FBFFF7C4
:1034000069FAFFF78FFAFFF72BFBFFF7FDFBFFF7DA
:1034100019FCFFF740FCFFF733FD0122A549A64840
:10342000FFF7CEF8FFF71DFC0021A448FEF7A4FF2C
:103430000421A248FEF7A0FFDFF880824FF4FA5182
:10344000D8F800004163C810FDF7B0FD9C48FEF7B6
:1034500005FD9C48FEF702FD9B4FDFF870924FF090
:10346000010B0026D9F80000FDF792F81024CDE9F1
:1034700000B40246002101230846FFF769FCFDF76E
:1034800045FAFDF78EF8CDE90064024601230221DA
:103490000020FFF75DFC00F04DF9FDF782F8CDE963
:1034A00000640246012302212020FFF751FC042082
:1034B000CDE90004864D0346014600202A68FFF747
:1034C00047FC4FF0030ACDE900A453460621002033
:1034D0003A68FFF73DFCCDE900A4DFF8F8A103232B
:1034E00006212020DAF80020FFF732FCD9F800008E
:1034F000411C03D028B1012803D007E0C9F80060BF
:103500002E60D8F8001042F228304863D9F8000045
:103510004C46032801D0042804D1D8F8001042F208
:103520001C524A63052801D0062804D1D8F800208F
:1035300042F228315163A8B967492868884204DDFE
:103540006648C4F800B0286001E0FFF725FD644933
:10355000386801446348814204D2032020600A2075
:10356000FDF724FD2068012813D12868B0F17C5FA5
:1035700002DD26602E6001E0FFF79AF95A483968AB
:1035800001445A48814204D2042020600A20FDF7F9
:103590000DFD206804281AD1606838B154492868A4
:1035A000884206DB032020602E6004E02E60C4F811
:1035B00004B0FFF7F1FC4F493868014449488142A3
:1035C00005D205202E6020600A20FDF7EFFC206860
:1035D00003281AD1606838B147482968814206DB60
:1035E000042020602E6004E02E60C4F804B0FFF7D1
:1035F0005FF94249386801443C48814205D20620BF
:103600002E6020600A20FDF7D1FC2068062806D134
:10361000394829688142BFF625AFFFF7BDFC206815
:10362000052805D1364928688842F4DAFFF740F9C1
:10363000206807287FF416AF00F08AF82068072872
:10364000F8D1002300961A462E48DAF80010FFF74A
:1036500069FCE0602C4D002300961A462846396824
:10366000FFF728FCA0603968A94211DDFCF7DDFFF7
:10367000264A274BFCF7ABFE0022264BFCF7A4FEA4
:10368000FCF7BAFFD8F800104863FFF785FCE9E6BD
:10369000FCF7CBFF1D4A1E4BFCF799FE00221D4B89
:1036A000FCF7EEFDFCF7A8FFD8F800104863FFF721
:1036B000FFF8D7E62100002094020020BC01002082
:1036C000040200204C02002064000020880000203A
:1036D00060000020840000206666863F9A99193EAB
:1036E000FFFF5FBCFFFF0400FFFFD5BCFFFF090029
:1036F0009A99993FFFFF73BC9A99193FFFFFB7BC96
:10370000CDCCCC3D0000FA430000F0429A99999943
:103710009999B93F0040BF4040F637414843401EA9
:10372000FDD270470246012000E05043491EC9B255
:10373000FBD2704710B54FF400510448FDF738FD37
:10374000012801D0012010BD002010BD000C014057
:1037500010B5074C00224FF400512046FDF72DFD17
:103760000022A1142046BDE81040FDF726BD000050
:10377000000C01400000000000000000002F0000CD
:1037800000000700070000147F147F1400242A7F24
:103790002A120062640813230036495522500000A3
:1037A0000503000000001C224100000041221C0013
:1037B0000014083E08140008083E0808000000A095
:1037C0006000000808080808000060600000002091
:1037D00010080402003E5149453E0000427F40006F
:1037E000004261514946002141454B3100181412F5
:1037F0007F10002745454539003C4A4949300001C2
:103800007109050300364949493600064949291E10
:103810000000363600000000563600000008142272
:103820004100001414141414000041221408000272
:103830000151090600324959513E007C1211127C97
:10384000007F49494936003E41414122007F4141C4
:10385000221C007F49494941007F09090901003EB6
:103860004149497A007F0808087F0000417F4100F4
:10387000002040413F01007F08142241007F40406A
:103880004040007F020C027F007F0408107F003E52
:103890004141413E007F09090906003E4151215E38
:1038A000007F091929460046494949310001017F35
:1038B0000101003F4040403F001F2040201F003FCB
:1038C0004038403F0063140814630007087008077D
:1038D00000615149454300007F41410000552A5590
:1038E0002A55000041417F0000040201020400400B
:1038F000404040400000010204000020545454782D
:10390000007F48444438003844444420003844444C
:10391000487F00385454541800087E0901020018EA
:10392000A4A4A47C007F080404780000447D400027
:10393000004080847D00007F102844000000417F0B
:103940004000007C04180478007C080404780038E7
:103950004444443800FC242424180018242418FC6F
:10396000007C0804040800485454542000043F44D8
:103970004020003C4040207C001C2040201C003C9B
:103980004030403C004428102844001CA0A0A07CEB
:10399000004464544C441414141414140000000023
:1039A000000000000000000000000000000000F81F
:1039B00000000000000000333000000000100C0682
:1039C000100C0600000000000000000040C078401D
:1039D000C0784000043F04043F040400007088FCE9
:1039E00008300000001820FF211E0000F008F00041
:1039F000E018000000211C031E211E0000F00888B2
:103A0000700000001E2123241927211010160E001B
:103A1000000000000000000000000000000000E0C6
:103A200018040200000000071820400000020418DB
:103A3000E00000000040201807000000404080F037
:103A4000804040000202010F01020200000000F06D
:103A5000000000000101011F010101000000000041
:103A60000000000080B070000000000000000000B6
:103A7000000000000001010101010101000000003F
:103A800000000000003030000000000000000000D6
:103A900080601804006018060100000000E01008B3
:103AA0000810E000000F102020100F00001010F888
:103AB000000000000020203F2020000000700808C7
:103AC0000888700000302824222130000030088847
:103AD000884830000018202020110E000000C0206F
:103AE00010F8000000070424243F240000F8088890
:103AF000880808000019212020110E0000E010881D
:103B000088180000000F112020110E00003808084E
:103B1000C83808000000003F00000000007088085E
:103B200008887000001C222121221C0000E01008DF
:103B30000810E0000000312222110F00000000C038
:103B4000C0000000000000303000000000000080D5
:103B500000000000000080600000000000008040C5
:103B600020100800000102040810200040404040DE
:103B70004040400004040404040404000008102031
:103B80004080000000201008040201000070480876
:103B90000808F0000000003036010000C030C828DE
:103BA000E810E0000718272423140B000000C03899
:103BB000E0000000203C23020227382008F8888813
:103BC00088700000203F202020110E00C03008081F
:103BD00008083800071820202010080008F80808F6
:103BE0000810E000203F202020100F0008F88888EF
:103BF000E8081000203F20202320180008F88888BB
:103C0000E8081000203F200003000000C030080832
:103C10000838000007182020221E020008F80800BB
:103C20000008F808203F210101213F20000808F882
:103C3000080800000020203F2020000000000808A5
:103C4000F8080800C08080807F00000008F888C065
:103C500028180800203F20012638200008F8080016
:103C600000000000203F20202020300008F8F8004D
:103C7000F8F80800203F003F003F200008F830C05F
:103C80000008F808203F200007183F00E01008084F
:103C90000810E0000F10202020100F0008F808087E
:103CA0000808F000203F210101010000E010080891
:103CB0000810E0000F18242438504F0008F88888B6
:103CC00088887000203F2000030C30200070880896
:103CD000080838000038202121221C00180808F8A4
:103CE000080818000000203F2000000008F8080025
:103CF0000008F808001F202020201F0008788800F6
:103D000000C83808000007380E010000F80800F865
:103D10000008F800033C0700073C0300081868800F
:103D20008068180820302C03032C30200838C80085
:103D3000C83808000000203F2000000010080808D4
:103D4000C83808002038262120201800000000FE76
:103D5000020202000000007F40404000000C30C022
:103D600000000000000000010638C000000202024E
:103D7000FE000000004040407F0000000000040200
:103D8000020204000000000000000000000000002B
:103D9000000000008080808080808080000202041B
:103DA0000000000000000000000000000000808013
:103DB000808000000019242222223F2008F8008081
:103DC00080000000003F112020110E000000008044
:103DD00080800000000E11202020110000000080D3
:103DE0008088F800000E112020103F200000808005
:103DF00080800000001F222222221300008080F019
:103E0000888888180020203F202000000000808043
:103E100080808000006B94949493600008F8008088
:103E200080800000203F210000203F2000809898E3
:103E3000000000000020203F202000000000008043
:103E40009898000000C08080807F000008F8000083
:103E500080808000203F24022D302000000808F8D8
:103E6000000000000020203F202000008080808093
:103E700080808000203F20003F20003F8080008025
:103E800080800000203F210000203F200000808033
:103E900080800000001F202020201F0080800080E4
:103EA0008000000080FFA12020110E000000008093
:103EB00080808000000E112020A0FF808080800084
:103EC0008080800020203F212000010000008080B1
:103ED000808080000033242424241900008080E0A6
:103EE000808000000000001F202000008080000073
:103EF00000808000001F202020103F208080800054
:103F00000080808000010E30080601008080008063
:103F1000008080800F300C030C300F000080800088
:103F2000808080000020312E0E31200080808000B3
:103F30000080808080818E70180601000080808063
:103F4000808080000021302C222130000000000001
:103F5000807C020200000000003F40400002027C22
:103F6000800000000040403F000000000000000012
:103F7000FF00000000000000FF000000000080E0E3
:103F8000F83840707CEC60A0606000000000000029
:103F90000000000000000000000000000001001F01
:103FA0003F00040E303F3F00000E04000000000000
:103FB0000000000000000000000000000080808081
:103FC000F8F8C0C01090D8F8B89880000000000041
:103FD0000000000000000000000000000001010BD4
:103FE0000D060F181111393F0000010000000000FC
:103FF00000000000000000000000000000000000C1
:1040000000000000000000000000000000000000B0
:104010000000000000000000000000000000005848
:104020007800000000000000000000000000000018
:10403000000000000000000000000000000020B0B0
:10404000D8C800F8F8A8ECFC8800000000000000C8
:104050000000000000000000000000000002033F1C
:104060003F00003F3F1B060D0D0C08000000000044
:1040700000000000000000000000000000002030F0
:1040800030F0D0DCBCF05010101000000000000038
:104090000000000000000000000000000000003EE2
:1040A0003E021E1F1D0D25793F0E0000000000007E
:1040B00000000000000000000000000000000020E0
:1040C00060E01830B0C0F8B8908000000000000038
:1040D00000000000000000000000000000000203DB
:1040E000131F0D0501051D19190302000000000032
:1040F000000000000000000000000000000000F8C8
:10410000F838E8E80CFCF8000000000000000000AF
:104110000000000000000000000000000000101976
:104120000D0F071F1E31303030381C00000000001A
:10413000000000000000000000000000000080C837
:10414000F8B8D848C800E000FCF800000000000003
:10415000000000000000000000000000000010103F
:10416000161F0F0A080003103F3F00000000000068
:10417000000000000000000000000000000080E0DF
:10418000F83840707CEC60A0606000000000000027
:104190000000000000000000000000000001001FFF
:1041A0003F00040E303F3F00000E040000000000FE
:1041B000000000000000000000000000000000F807
:1041C000F8000000000000000000000000000000F7
:1041D0000000000000000000000000000000001BC4
:1041E0001B000000000000000000000000000000B4
:1041F0000000000000000000000000001010F01F90
:1042000010F000808282E2928A8680000000000026
:10421000000000000000000000000000402215081F
:104220001661000040807F000000000000000000D8
:104230000000000000000000000000001010D0FF8F
:10424000901000FE020202FE0000000000000000CC
:10425000000000000000000000000000040300FF58
:104260000083601F0000003F404078000000000015
:10427000000000000000000000000000404020207E
:104280005048444344485020204040000000000073
:10429000000000000000000000000000000242E2F8
:1042A000524A464242425262C202000000000000EE
:1042B00000000000000000000000000088681FC827
:1042C0000810C85452D1129408D010000000000009
:1042D000000000000000000000000000091909FFB4
:1042E0000500FF1292FF005F807F000000000000C9
:1042F00000000000000000000000000000000000BE
:104300000001E21CE00000000000000000000000CE
:1043100000000000000000000000000080402010AD
:104320000C03000000030C304080800000000000FF
:10433000000000000000000000000000108C440499
:10434000E40495A64424148444940C000000000066
:1043500000000000000000000000000002027A419E
:104360004143427E42424243F80000000000000008
:104370000000000000000000000000000484E45C75
:1043800044C40002F2828282FE80800000000000AD
:1043900000000000000000000000000002017F108B
:1043A000103F00080808084888403F00000000004F
:1043B00000000000000000000000000080828282F7
:1043C000FE8282828282FE82828280000000000061
:1043D00000000000000000000000000000804030ED
:1043E0000F0000000000FF000000000000000000BF
:1043F0000000000000000000000000001010D0FFCE
:10440000901000FE020202FE00000000000000000A
:10441000000000000000000000000000040300FF96
:104420000083601F0000003F404078000000000053
:1044300000000000000000000000000000FC848478
:1044400084FC001010101010FF101000000000007D
:10445000000000000000000000000000003F1010FD
:10446000103F0000010640807F00000000000000B7
:1044700000000000000000000000000000F801063D
:1044800000F0121212F2020202FE00000000000010
:1044900000000000000000000000000000FF00001D
:1044A000001F1111111F0040807F0000000000005C
:1044B000000000000000000000000000000000FEFE
:1044C00092929292929292FE0000000000000000F0
:1044D00000000000000000000000000040424458BE
:1044E000407F4040407F4050484640000000000070
:1044F00000000000000000000000000040404242B8
:10450000424242C242424242424040000000000059
:10451000000000000000000000000000201008065D
:104520000040807F0000000204083000000000000E
:10453000000000000000000000000000000000FE7D
:10454000929292FE929292FE000000000000000003
:1045500000000000000000000000000008080484C3
:10456000621E010001FE02040408080000000000B1
:104570000000000000000000000000000202E22233
:1045800022F22E2222E22222E20202000000000099
:104590000000000000000000000000000000FF40DC
:1045A000407F4949497F4040FF0000000000000073
:1045B00000000000000000000000000090523410D5
:1045C000FF10345280708F0808F8080000000000C7
:1045D000000000000000000000000000829A566306
:1045E00022528E008040330C3340800000000000D7
:1045F0000000000000000000000000001010FF108C
:104600009000FE929292F292929E80000000000032
:1046100000000000000000000000000042827F0156
:1046200080601F00FC44474444FC00000000000080
:104630000000000000000000000000000080609FFB
:104640000808F80000FF1020408000000000000073
:104650000000000000000000000000008140201366
:104660000C132020405F404040414000000000000B
:10467000000000000000000000000000048484FC32
:10468000848400FE9292FE9292FE000000000000E0
:104690000000000000000000000000002060201F5B
:1046A0001010404444447F44444440000000000053
:1046B000000000000000000000000000404042CC6C
:1046C0000040404040FF40404040400000000000AB
:1046D0000000000000000000000000000000007F5B
:1046E0002010000000FF000000000000000000009B
:1046F0000000000000000000000000000804F35269
:104700005652525054535256F2020200000000001A
:10471000000000000000000000000000101097558D
:104720003D1515151515FD1517101000000000009A
:1047300000000000000000000000000080809E9249
:1047400092929EE0809EB2D2929E80000000000075
:104750000000000000000000000000000808F494C1
:104760009292F10001F2929494F808000000000087
:10477000000000000000000000000000404042CCAB
:104780000040A09E8282829EA020200000000000A7
:104790000000000000000000000000000000003FDA
:1047A000908840432C102846418080000000000083
:1047B000000000000000000000000000001715D5F8
:1047C0005557557D555755D5151700000000000069
:1047D0000000000000000000000000004040407F9A
:1047E000555555555555557F404040000000000037
:1047F00000000000000000000000000000FC8484B5
:1048000084FC001010101010FF10100000000000B9
:10481000000000000000000000000000003F101039
:10482000103F0000010640807F00000000000000F3
:1048300000000000000000000000000000F8010679
:1048400000F0121212F2020202FE0000000000004C
:1048500000000000000000000000000000FF000059
:10486000001F1111111F0040807F00000000000098
:104870000000000000000000000000001010D0FF49
:104880009010804828090E08284888000000000081
:10489000000000000000000000000000040300FF12
:1048A00000018080432C102C438080000000000019
:1048B00000000000000000000000000000020CE00A
:1048C0004020F84F4849FE484848080000000000D2
:1048D00000000000000000000000000004047F0051
:1048E0000000FF2222223F2222222000000000009E
:1048F00000000000000000000000000000F801229D
:1049000020222AF22222222202FE000000000000C1
:1049100000000000000000000000000000FF000098
:104920001F01017F09110F40807F0000000000007F
:1049300000000000000000000000000020102CE734
:10494000242400F01010FF1010F000000000000000
:104950000000000000000000000000000101017FD5
:10496000211100070202FF02020700000000000000
:1049700000000000000000000000000000FC040433
:1049800004FC040404FC040404FC00000000000017
:10499000000000000000000000000000007F28244C
:1049A0002320202020212222227F0000000000005E
:1049B00000000000000000000000000000FE0202F5
:1049C000F20202FE0000F80000FF000000000000FC
:1049D00000000000000000000000000080472018D8
:1049E00007081027C0000F40807F00000000000073
:1049F000000000000000000000000000404042CC29
:104A000000202222A26222222220000000000000B8
:104A10000000000000000000000000000040201F17
:104A200020444E4544444445464C400000000000AC
:104A30000000000000000000000000000804F35225
:104A40005652525054535256F202020000000000D7
:104A5000000000000000000000000000101097554A
:104A60003D1515151515FD15171010000000000057
:104A7000000000000000000000000000404042CCA8
:104A800000808888FF8888FF8888800000000000F8
:104A90000000000000000000000000000040201F97
:104AA0002040504C4340405F404040000000000028
:104AB00000000000000000000000000040504E48D0
:104AC00048FF48484840F80000FF00000000000090
:104AD00000000000000000000000000000003E0296
:104AE00002FF12221E000F40807F00000000000025
:104AF000000000000000000000000000C8B88FE8BF
:104B00008888404848E85F48484840000000000066
:104B1000000000000000000000000000081808FF6E
:104B2000040400020B1222D20A060000000000005A
:104B3000000000000000000000000000101010FF46
:104B4000902010E82724E4342CE00000000000004E
:104B50000000000000000000000000000242817F11
:104B600000848447241C071C2447840000000000A4
:104B70000000000000000000000000000000C0383D
:104B8000E0000000203C2302022738200000000043
:104B90000000000000000000000000000000000015
:104BA0000000000000000000000000000000000005
:104BB00000000000000000000000000008F80808E5
:104BC0000810E000203F202020100F00000000000F
:104BD00000000000000000000000000000000000D5
:104BE00000000000000000000000000000000000C5
:104BF000000000000000000000000000C0300808B5
:104C000008083800071820202010080000000000C5
:104C10000000000000000000000000000000000094
:104C20000000000000000000000000000000000084
:104C30000000000000000000000000000000F888F4
:104C4000888888FF88888888F800000000000000B5
:104C500000000000000000000000000000001F082D
:104C60000808087F888888889F80F000000000007E
:104C70000000000000000000000000000000FE0234
:104C800082828282FA828282828202000000000096
:104C900000000000000000000000000080601F40D5
:104CA000404040407F4040445840400000000000E9
:104CB000000000000000000000000000008060F81C
:104CC0000704E4A4A4BFA4A4E404000000000000BE
:104CD000000000000000000000000000010000FFD4
:104CE00040407F4A4A4A4A4A7F4040000000000054
:104CF00000000000000000000000000040404244AE
:104D000058C0407F40C0504846404000000000006E
:104D10000000000000000000000000008080402033
:104D200018070000003F40404040780000000000AD
:104D300000000000000000000000000008F714540C
:104D40009414F40480708F0808F808000000000034
:104D50000000000000000000000000001D131155BD
:104D600099513F914120130C334080000000000016
:104D70000000000000000000000000000000F888B3
:104D8000888888FF88888888F80000000000000074
:104D900000000000000000000000000000001F08EC
:104DA0000808087F888888889F80F000000000003D
:104DB00000000000000000000000000000FE0222D1
:104DC000DA0600FE22222222FE000000000000007F
:104DD00000000000000000000000000000FF0810BC
:104DE0000847407F424242427F40400000000000AE
:104DF0000000000000000000000000000004047437
:104E000054545556545454740404000000000000D7
:104E10000000000000000000000000008483412129
:104E20001D05050505057D818185E3000000000065
:104E3000000000000000000000000000020282727A
:104E4000020202FE02028242320202000000000060
:104E500000000000000000000000000080814020F1
:104E6000100C0300030C10204080800000000000A4
:104E700000000000000000000000000040445465F5
:104E8000C664544400FC4444C44240000000000096
:104E900000000000000000000000000020124A8214
:104EA0007F020A92601F0000FF0000000000000067
:104EB00000000000000000000000000000F80C0BE3
:104EC0000808F840308F080808F8000000000000CB
:104ED000000000000000000000000000007F212111
:104EE00021217F0000004380403F000000000000BF
:104EF000000000000000000000000000108C4404CE
:104F0000E40495A64424148444940C00000000009A
:104F100000000000000000000000000002027A41D2
:104F20004143427E42424243F8000000000000003C
:104F30000000000000000000000000000484E45CA9
:104F400044C40002F2828282FE80800000000000E1
:104F500000000000000000000000000002017F10BF
:104F6000103F00080808084888403F000000000083
:104F70000000000000000000000000004042CC00E3
:104F800000445454547F54545444400000000000E2
:104F900000000000000000000000000000007F2072
:104FA0001000FF15151555957F000000000000004A
:104FB00000000000000000000000000088681FC81A
:104FC0000810C85452D1129408D0100000000000FC
:104FD000000000000000000000000000091909FFA7
:104FE0000500FF1292FF005F807F000000000000BC
:104FF00000000000000000000000000000000000B1
:105000000001E21CE00000000000000000000000C1
:1050100000000000000000000000000080402010A0
:105020000C03000000030C304080800000000000F2
:1050300000000000000000000000000000FC84846C
:1050400084FC001010101010FF1010000000000071
:10505000000000000000000000000000003F1010F1
:10506000103F0000010640807F00000000000000AB
:1050700000000000000000000000000000F8010631
:1050800000F0121212F2020202FE00000000000004
:1050900000000000000000000000000000FF000011
:1050A000001F1111111F0040807F00000000000050
:1050B00000000000000000000000000000000000F0
:1050C00000000000000000000000000000000000E0
:1050D00000000000000000000000000000000000D0
:1050E00000000000000000000000000000000000C0
:1050F00000000000000000000000000000000808A0
:105100000808080808080808080000000000000057
:10511000000000000000000000000000101010104F
:1051200010101010101010101010100000000000CF
:10513000000000000000000000000000404042CCE1
:1051400000808888FF8888FF888880000000000031
:105150000000000000000000000000000040201FD0
:105160002040504C4340405F404040000000000061
:1051700000000000000000000000000040504E4809
:1051800048FF48484840F80000FF000000000000C9
:1051900000000000000000000000000000003E02CF
:1051A00002FF12221E000F40807F0000000000005E
:1051B000000000000000000000000000C8B88FE8F8
:1051C0008888404848E85F484848400000000000A0
:1051D000000000000000000000000000081808FFA8
:1051E000040400020B1222D20A0600000000000094
:1051F000000000000000000000000000008060F8D7
:1052000007000000FF40201008040000000000001C
:10521000000000000000000000000000010000FF8E
:10522000000402013F404040404078000000000080
:10523000000000000000000000000000000000006E
:1052400000FC0000007E8000000000000000000064
:105250000000000000000000000000000080601856
:10526000070000000000030C304080000000000038
:10527000000000000000000000000000404042CCA0
:1052800000808888FF8888FF8888800000000000F0
:105290000000000000000000000000000040201F8F
:1052A0002040504C4340405F404040000000000020
:1052B00000000000000000000000000040504E48C8
:1052C00048FF48484840F80000FF00000000000088
:1052D00000000000000000000000000000003E028E
:1052E00002FF12221E000F40807F0000000000001D
:1052F000000000000000000000000000C8B88FE8B7
:105300008888404848E85F4848484000000000005E
:10531000000000000000000000000000081808FF66
:10532000040400020B1222D20A0600000000000052
:10533000000000000000000000000000008060F895
:1053400007000000FF4020100804000000000000DB
:10535000000000000000000000000000010000FF4D
:10536000000402013F40404040407800000000003F
:10537000000000000000000000000000404040402D
:10538000404040FF4040404040404000000000009E
:10539000000000000000000000000000000000000D
:1053A000000000FF000000000000000000000000FE
:1053B000000000000000000000000000202020206D
:1053C000202021222C20202020202000000000006E
:1053D000000000000000000000000000004020105D
:1053E0000C0300000001020418600000000000002F
:1053F000000000000000000000000000404042CC1F
:1054000000808888FF8888FF88888000000000006E
:105410000000000000000000000000000040201F0D
:105420002040504C4340405F40404000000000009E
:1054300000000000000000000000000040504E4846
:1054400048FF48484840F80000FF00000000000006
:1054500000000000000000000000000000003E020C
:1054600002FF12221E000F40807F0000000000009B
:10547000000000000000000000000000C8B88FE835
:105480008888404848E85F484848400000000000DD
:10549000000000000000000000000000081808FFE5
:1054A000040400020B1222D20A06000000000000D1
:1054B000000000000000000000000000008060F814
:1054C00007000000FF40201008040000000000005A
:1054D000000000000000000000000000010000FFCC
:1054E000000402013F4040404040780000000000BE
:1054F0000000000000000000000000000004047430
:1055000054545556545454740404000000000000D0
:105510000000000000000000000000008483412122
:105520001D05050505057D818185E300000000005E
:1055300000000000000000000000000000FC848467
:10554000FC4044546546446454444000000000005C
:10555000000000000000000000000000003F1010EC
:105560003F0000FF49494949FF00000000000000DA
:105570000000000000000000000000004020F807CC
:10558000F0A0904C5724A4544C80800000000000F0
:105590000000000000000000000000000000FF000C
:1055A0001F809252492924120800000000000000C8
:1055B000000000000000000000000000048484845B
:1055C00084FC4030CC0B0808F808080000000000FC
:1055D000000000000000000000000000007F20101C
:1055E00010088040211608162140800000000000AD
:1055F000000000000000000000000000108C4404C7
:10560000E40495A64424148444940C000000000093
:1056100000000000000000000000000002027A41CB
:105620004143427E42424243F80000000000000035
:105630000000000000000000000000000484E45CA2
:1056400044C40002F2828282FE80800000000000DA
:1056500000000000000000000000000002017F10B8
:10566000103F00080808084888403F00000000007C
:10567000000000000000000000000000000000002A
:10568000000000000000000000000000000000001A
:10569000000000000000000000000000000000000A
:1056A0000000000000008080C0C0C0C0C0E0E0F08A
:1056B000F0F0E0E0F0F0F0E0C0E0E0E0C0C08080BA
:1056C000800000000000000000000000000000005A
:1056D00000000000000000000000000000000000CA
:1056E00000000000000000000000000000000000BA
:1056F00000000000000000000000000000000000AA
:105700000000000000000000000000000000000099
:105710000000000000000000000000000000808089
:10572000FCF8FC7F3F1F0F07070303030101010182
:1057300001010101010101010101030303070F0F31
:105740001F3FFEFCF8F870000000000000000000A1
:105750000000000000000000000000000000000049
:105760000000000000000000000000000000000039
:105770000000000000000000000000000000000029
:105780000000000000000000000000000000000019
:1057900000000000000000000000000000B8FFFF53
:1057A000FFFF0300000000000000000000000000F8
:1057B0008080808000000000000000000080808069
:1057C00080000003FFFF3000000000000000000028
:1057D00000000000000000000000000000000000C9
:1057E00000000000000000000000000000000000B9
:1057F00000000000000000000000000000000000A9
:105800000000000000000000000000000000000098
:10581000000000000000000000000000003BFFFF4F
:10582000FFFF000000007EFEFCF8F8F0F0E0606092
:10583000E7EFEFEFE2E0E0E0E0E0E0606067777F75
:1058400037B89CDFE7E36060707070303070707064
:105850006060E0E0C0C080000000000000000000C8
:105860000000000000000000000000000000000038
:105870000000000000000000000000000000000028
:105880000000000000000000000000000000000018
:105890000000000000000000000000000000FFFF0A
:1058A000FFFF0000000000000001018181C0E060F6
:1058B00070303030333F3E3CF0E080000000C0FCF0
:1058C000FE0F0301000000000000000000000000C7
:1058D0000000000001010307FEFCF00000000000D2
:1058E00000000000000000000000000000000000B8
:1058F00000000000000000000000000000000000A8
:105900000000000000000000000000000000000097
:10591000000000000000000000C0E0F0F0F0FD7F9B
:105920007F3F000000000000000078FFFF070BCC65
:10593000CCCCCECECECECECECFC30FFFFCDF3F73CE
:10594000716060E0E0E0C0C0C0000000000000C086
:10595000C0C0E0E06070383C1F0F01000000000094
:105960000000000000000000000000000000000037
:105970000000000000000000000000000000000027
:105980000000000000000000000000000000000017
:10599000000000000000000000070F1E3C3874707B
:1059A00060606060E0E0E0E0E0E0C0C3CFFEF8F1FE
:1059B000F1E1E1E1E161606070707C7F3F03000034
:1059C00000000000A0AFAFB3F07070687838B8AFD7
:1059D000AF9EDC500000000000000000000000004E
:1059E00000000000000000000000000000000000B7
:1059F00000000000000000000000000000000000A7
:105A00000000000000000000000000000000000096
:105A10000000000000000000000000000000000086
:105A20000000000000000000000000000000000076
:105A30000000000000000000000000000000000066
:105A40000000000002020202020203030303030338
:105A5000030303010100000000000000000000003B
:105A60000000000000000000000000000000000036
:105A70000000000000000000000000000000000026
:105A80000000000000000000000000000000000016
:105A9000C0603010303070E0C0000000000080C0F6
:105AA000404040C0C00000000000000000000000B6
:105AB00000000000000000000000000000000000E6
:105AC00000000000000000000000000000000000D6
:105AD00000000000000000000000000000000000C6
