:020000040800F2
:10000000D807002005010008C1300008652A000853
:10001000A130000881090008C5390008000000006F
:10002000000000000000000000000000873300080E
:100030008309000800000000853300086D340008C3
:100040001F0100081F0100081F0100081F01000810
:100050001F0100081F0100081F0100081F01000800
:100060001F0100081F0100081F0100081F010008F0
:100070001F0100081F0100081F0100081F010008E0
:100080001F0100081F010008910800081F01000857
:100090001F0100081F0100081F0100081F010008C0
:1000A0001F0100081F0100081F0100081F010008B0
:1000B0001F010008ED3400081F0100081F0100089F
:1000C0001F0100081F0100081F0100081F01000890
:1000D0001F0100081F0100081F010008B9390008AE
:1000E0001F0100081F0100081F010008DFF810D0E1
:1000F00000F0BCFB00480047793A0008AFF30080ED
:10010000D80700200648804706480047FEE7FEE77C
:10011000FEE7FEE7FEE7FEE7FEE7FEE7FEE7FEE7B7
:10012000E9340008ED000008202A04DB203A21FA17
:1001300002F00021704721FA02F3D040C2F1200200
:100140009140084319467047D2B201E000F8012BF4
:10015000491EFBD270470022F6E710B513460A4647
:1001600004461946FFF7F0FF204610BDF0B480EAC0
:100170000102D40F4200B2EB410F02D20246084600
:1001800011464A0042D0C30DDDB2C1F3C752AD1AC9
:10019000202D35DAC1F3160141F4000204B15242B8
:1001A000C5F1200602FA06F12A411044B3EBD05FF4
:1001B00023D0C4B1012DA0EBC35009DCF0BC4FF03B
:1001C000004202EAC352DBB200F5000000F0C3BAFD
:1001D000400000F1807000EBC350A0F1807040EA55
:1001E000D170490009E0490841EAC071A0EBC35051
:1001F00000F50000400800EBC350F0BC00F0A2BACC
:100200006142012202EB4101001BF6E7F0BC70479E
:1002100081F00041AAE780F00040A7E780EA0102F0
:1002200010B502F00043400022D04A001FD0010E5A
:1002300001EB1261C0F35600C2F3560240F4000015
:1002400042F40002A0FB022000047F39140400D015
:10025000401C50EA124001D44000491EC2B20C06B4
:1002600004EBD010401C4008802A02D003E000209C
:1002700010BD20F00100002900DA0020184310BD55
:1002800030B480EA010202F0004530F0004221F073
:10029000004013D090B1C30DD40DC2F31601C0F3CA
:1002A0001600E41A41F4000140F400027D3491424A
:1002B00001D3641C00E04900002C02DA30BC0020AD
:1002C00070474FF400000023914201D3891A034381
:1002D00040084FEA4101F7D151B1914202D14FF0AC
:1002E000004105E002D24FF0010101E06FF0010191
:1002F00003EBC450284430BC00F024BA2DE9FE4F73
:10030000804681EA0300C00F0C46009021F00041B6
:1003100023F00045B8EB0200A94105D24046214632
:1003200090461C460B46024623F00040104347D03F
:10033000270DC7F30A00C3F30A510290401A019037
:1003400040286BDAC3F3130040F4801B00989246F8
:1003500020B10023D2EB030A63EB0B0B0198594643
:10036000C0F14002504600F0CCF906460D4650461A
:100370005946019A00F0D4F910EB080061410024BD
:1003800087EA115284EAE7731A4340D0009A62B3B5
:10039000019A012A4FEA075215DC001B61EB0201AA
:1003A0004FF0004202EA0752CDE90042001C41F53D
:1003B000801132462B4600F00BFA03B0BDE8F08FF7
:1003C00040462146F9E7001B61EB0201001C41F5A4
:1003D000801300185B412018A2F5001747EB0301BA
:1003E00040EAD570B6196D4111E06D084FEA360646
:1003F00045EAC0754FEA0752001B61EB0201001C81
:1004000041F5801149084FEA300000195141324648
:100410002B4603B0BDE8F04F00F0CBB900980122A5
:1004200040000023D0EB020263EBE073009821460A
:100430004FEAE074B8EB000061EB0401E9E783F0F8
:1004400000435BE781F0004158E72DE9FE4F81EA68
:10045000030404F0004421F0004100944FF0000B2D
:1004600023F0004350EA01045ED052EA03045BD05B
:10047000C3F30A54C1F30A552C44A4F2F334019493
:10048000A0FB0254C1F3130141F48011C3F3130321
:1004900043F4801301FB024400FB034E840A970AD5
:1004A00044EA815447EA8357A4FB076802958D0A02
:1004B00005FB07854FEA932C04FB0C542705029D8E
:1004C0004FEA065847EA1637B5EB08056EEB070CFE
:1004D000870E920E47EA811742EA8312A7FB0201B8
:1004E000B6EB0B0164EB00042B0D43EA0C335E18F2
:1004F00044EB1C50DA465146E7FB0201C5F31304F6
:100500004FEA0B3343EA14534FEA0432019C43EAA7
:100510000603A4F10C040294009CCDE900B400F0A1
:1005200057F903B0BDE8F08F00200146F9E72DE947
:10053000F04D81EA030404F0004B21F0004514461D
:100540004FF0000A23F0004150EA050220D054EA9F
:1005500001021DD0C5F30A570246C5F31303C1F3C8
:100560001300C1F30A5640F4801543F48013A7EB3F
:100570000608101BD64608F2FD3873EB050002D3BF
:1005800008F1010801E092185B41B8F1000F03DAAD
:1005900000200146BDE8F08D00204FF48011064692
:1005A00084460EE0171B73EB050705D3121B63EBA4
:1005B000050306434CEA010C49084FEA3000921843
:1005C0005B4150EA0107EDD152EA030012D082EA02
:1005D000040083EA0501084305D0101BAB4106D295
:1005E0000122002306E000224FF0004302E06FF0FA
:1005F000010253101AEB06004CEB085110EB0A00F5
:1006000041EB0B01BDE8F04D00F0D3B8C10F80EA1B
:10061000E0700844CA079623002100F09CB8962396
:100620000022114600F097B80EB5C10F80EAE070C5
:100630000844CA07002140F233438DE80E000A4601
:100640000B4600F0C5F803B000BD00F0004220F0FA
:100650000040C10DC0F3160040F400007F2901DA0C
:1006600000207047962903DCC1F19601C84001E0E3
:1006700096398840002AF4D04042704720F000406C
:10068000C10DC0F3160040F400007F2901DA0020FC
:100690007047962903DCC1F19601C840704796392E
:1006A0008840704700F0004230F000400AD0C10D91
:1006B00001F56071C0F3160042EA0151C20840071B
:1006C0001143704700200146704701F0004330B4E9
:1006D00021F0004150EA010206D00A0DA2F5607235
:1006E000C1F31301002A02DC30BC00207047440F24
:1006F00044EAC104C100E01830BC00EBC25000F075
:1007000021B8202A04DB203A00FA02F100207047C9
:100710009140C2F1200320FA03F31943904070473F
:10072000202A06DBCB17203A41FA02F043EAE073B5
:1007300006E041FA02F3D040C2F1200291400843A2
:10074000194670470029A8BF7047401C490008BFE0
:1007500020F00100704710B4B0FA80FC00FA0CF0F1
:1007600050EA010404BF10BC704749B1CCF1200429
:1007700021FA04F411FA0CF118BF012121430843B6
:10078000A3EB0C01CB1D4FEA00614FEA102042BFE2
:10079000002010BC704700EBC35010440029A4BFD8
:1007A00010BC7047401C490008BF20F0010010BC7D
:1007B000704710B5141E73F1000408DA401C41F1B3
:1007C000000192185B411A4301D120F0010010BDD5
:1007D0002DE9F04D92469B4611B1B1FA81F202E04B
:1007E000B0FA80F220329046FFF78BFF04460F46A6
:1007F00040EA0A0041EA0B0153465A46084313D027
:10080000114653EA010019D0C8F140025046FFF7E3
:100810008BFC05460E46504659464246FFF771FF8F
:10082000084305D0012004E020463946BDE8F08D9C
:100830000020054346EAE0762C4337430A986305D7
:10084000E40AA0EB08000022FD0A44EA47540A30FB
:1008500002D500200146E9E7010510196941DDE9EB
:10086000084500196941BDE8F04DA2E7064C074D67
:1008700006E0E06840F0010394E807009847103470
:10088000AC42F6D3FFF736FCE063000800640008D2
:1008900010B5044800F086F9BDE81040024800F0A9
:1008A00081B90000000200203002002070B504462B
:1008B00000688168C943C90717D1816821F0010127
:1008C000816000F033FD05460AE000BF00F02EFD18
:1008D000401B022804D920688068C043C00706D0A6
:1008E00020688068C043C007F0D0002070BDA06AB7
:1008F00040F01000A062E06A40F00100E0620120D8
:1009000070BD0000F8B500260446009600688168B6
:10091000C943C9072DD0816841F0010181601648A3
:1009200016490068B0FBF1F000E0401E009000287E
:10093000FBD100F0FBFC054616E000BF00F0F6FC22
:10094000401B022810D920688068C043C0070BD024
:10095000A06A40F01000A062E06A40F00100E0628E
:1009600084F824600120F8BD20688068C043C00777
:10097000E4D10020F8BD0000A800002040420F0094
:10098000FEE7704710B5094C206AE061052003F0CE
:1009900045F9A068FFF759FE2062E169401A052871
:1009A00001DD002010BD012010BD00005C00002012
:1009B00072B6FEE70870020A4A70020C8A70000ED6
:1009C000C8707047F8B500250446009590F82400DB
:1009D00001280BD0012084F824002046FFF766FF91
:1009E0002046FFF78FFF060002D050E00220F8BD3E
:1009F000A06A20F4885040F00200A062022000F0BB
:100A0000C7FE25490968B1FBF0F0400000E0401E38
:100A100000900028FBD12068816841F008018160C6
:100A200000F084FC074608E000F080FCC01B0A28A8
:100A300003D920688068000715D420688068000703
:100A4000F2D42068816841F00401816000F06EFCFE
:100A5000074612E000F06AFCC01B0A280DD9206886
:100A60008068400709D5A06A20F0020040F010001D
:100A7000A06284F824500120F8BD206880684007F7
:100A8000E8D4A06A20F0020040F00100A06284F8DF
:100A900024503046F8BD0000A80000207047000038
:100AA000F8B50024009490F824202546012A12D09D
:100AB000012280F824204A681F23072A0DD20668E5
:100AC000776B521E02EB820293409F430B68934068
:100AD0001F43776319E00220F8BD06680D2A0AD289
:100AE000376BD21F02EB820293409F430B68934007
:100AF0001F43376309E0F76A0D3A02EB8202934025
:100B00009F430B6893401F43F7620A6807230668F8
:100B10000A2A0AD3F7680A3A02EB420293409F433B
:100B20008B6893401F43F76008E0376902EB42028D
:100B300093409F438B6893401F4337610A68102A94
:100B400001D0112A20D1124B02689A4217D1936822
:100B50001B0219D4936843F40003936009681029B9
:100B600012D10C490C4A0968B1FBF2F101EB810189
:100B7000490000E0491E00910029FBD104E0816A90
:100B800041F020018162012480F824502046F8BD04
:100B900000240140A800002040420F007047006878
:100BA000C06C704770B50446006806684568A906C1
:100BB00025D5B10723D5A16AC90603D4A16A41F49A
:100BC0000071A1628168C1F34241072910D1217BE4
:100BD00071B9416821F020014160A06A20F4807061
:100BE000A062A06AC00403D4A06A40F00100A06221
:100BF0002046FFF7D3FF21686FF012000860280637
:100C00002ED570072CD5A06AC00603D4A06A40F484
:100C10000050A06220688168C1F30231072909D021
:100C20004168490515D48168C1F34241072910D1B3
:100C3000217B71B9416821F080014160A06A20F4F4
:100C40008050A062A06AC00503D4A06A40F00100F1
:100C5000A0622046FFF722FF21686FF00C000860B9
:100C600068060CD5F0070AD0A06A40F48030A06274
:100C7000204600F093F821686FF00100086070BD15
:100C80002DE9F0414FF0000704003D467ED0A06AF8
:100C9000002628B9E66284F82460204600F080F837
:100CA0002046FFF703FEA16AC90600D420B1A06A5E
:100CB00040F01000A06269E0A16A21F4885141F07F
:100CC0000201A1626268E169237B0A4347EA4301AA
:100CD0000A43A1684FF48077B94209D0012907D0AF
:100CE0005FF0000194F814C0BCF1010F02D00AE0DB
:100CF0003946F7E7F3B1A36A43F02003A362E36A3E
:100D000043F00103E3622368D3F804C02CF4694C78
:100D10004CEA010CC3F804C021688B68DFF870C08E
:100D200003EA0C0313438B60A168B9420BD001297D
:100D300009D00CE0DFF85CC0A3690CEB43330B4334
:100D400043F40061DFE7218A0D05A5F580152168D0
:100D5000CB6A23F470032B43CB62216889680E4B66
:100D60001940914208D1E662A16A21F0020141F0E6
:100D70000101A162BDE8F081A06A20F0020040F00C
:100D80001000A062E06A40F00100E0620120F1E79B
:100D9000FDF7E1FF00E0FFFFFE0E1FFF70470000C0
:100DA00010B586B0002100910191029103911E4C73
:100DB00003681E4903221E48A34211D18B6943F4E4
:100DC00000738B618B6903F4007304938B6943F0A8
:100DD00004038B61896901F004010491042113E08B
:100DE000144CA3421DD18B6943F480638B618B69E2
:100DF00003F4806304938B6943F004038B61896976
:100E000001F0040104910821CDE90012694600F0C7
:100E100093F900220E21122000F088FC122000F02D
:100E200077FC06B010BD0000002401400010024015
:100E300000080140002801402DE9F84300270D4635
:100E40000446009700F072FA804620688168C90560
:100E500008D5A06A40F02000A06284F82470012028
:100E6000BDE8F8834168C90503D4C06A10F4700F67
:100E70002AD0022000F08CFC3B490968B1FBF0F657
:100E80002068036939490B424FEA61014FEAA11218
:100E90001FD1C3684FEA611C13EA0C0F19D1036913
:100EA0000B4225D1C068104222D1142023E0681CD7
:100EB0000AD02DB100F03AFAA0EB0800A84203D9FD
:100EC00020680068800725D5206800688007EED577
:100ED0002DE003690B4202D1C168114206D00269BC
:100EE00023490A4206D1C068084203D1542002E0D7
:100EF000292000E0FC204643009816E0681C11D031
:100F00002DB100F013FAA0EB0800A8420AD900980E
:100F1000B04207D2A06A40F00400A06284F82470B6
:100F200003209DE70098401C0090B042E6D3216862
:100F30006FF012000860A06A40F40070A0622068A0
:100F40008068C0F3424007280CD1207B50B9A06ACA
:100F500020F48070A062A06AC00403D4A06A40F0AC
:100F60000100A06200207BE7A80000202449922411
:100F70004992240070B5044690F8240001280DD051
:100F8000012084F824002046FFF7BCFC02004FF04B
:100F9000000005D084F82400104670BD022070BD0A
:100FA000A16A40F20123994341F48071A1621F4D6F
:100FB00023681F49AB4218D10E6816F4702F14D065
:100FC000A66A46F48016A6620E68760505D5A66A5E
:100FD00026F4005646F48056A662A66AF6040AD5A0
:100FE000E66A26F00606E66206E0A66A26F48016A1
:100FF000A6625E68E9E7E06284F824006FF0020010
:10100000186020688368C3F34243072B05D1A842C8
:1010100008D1096811F4702F04D0816841F480115F
:101020008160B9E7816841F4A001F9E70028014037
:101030000424014010B590F821100022022905D0A7
:101040000421816380F82020012010BD01680B6815
:1010500023F00E030B6001680B6823F001030B60A3
:1010600090F84030C46B012101FA03F3636080F80B
:10107000211080F82020104610BD000010B590F817
:1010800021100024022903D00421816301243DE0C2
:1010900001680A6822F00E020A6001680A6822F0FC
:1010A00001020A601A4A0168914201D1012121E03E
:1010B000174A1432914201D110211BE0144A283200
:1010C000914201D1891515E0114A3C32914201D17A
:1010D00089140FE00E4A5032914202D14FF4803110
:1010E00008E00B4A6432914202D14FF4801101E0D2
:1010F0004FF08071064A083A5160012180F82110B2
:10110000002180F82010416B01B18847204610BDB6
:101110000800024070B5044600F008F90546601C5E
:1011200002D004480078044400F000F9401BA042BB
:10113000FAD370BD9C0000202DE9F84FDFF8B8917C
:101140000024A9F1040B23460F2709F1040AABF18F
:10115000040EC9E00125A5402A40AA427DD1674E70
:10116000D1F804C0ACEB0608B44532D014DCBCF1B5
:10117000030F3AD009DCBCF1000F2AD0BCF1010FFB
:101180001CD0BCF1020F31D11DE0BCF1110F17D002
:10119000BCF1120F2AD119E0B8F5881F19D006DC6E
:1011A000B8F5803F15D0B8F5801F1FD111E0B8F514
:1011B000001F0ED0B8F5041F18D10AE0CB6815E067
:1011C000CB681B1D12E0CB6808330FE0CB680C33F3
:1011D0000CE08B682BB1012B4FF0080303D0456165
:1011E00004E0042302E0056100E00023FF2A01D8A7
:1011F000064601E000F104064FEA840501D9A5F195
:101200002005D6F8008007FA05FC28EA0C0803FA46
:1012100005F548EA0508C6F800804D68ED0062D57E
:10122000374DAE6946F00106AE61AD6924F00306A4
:1012300005F001050095334D06EB050CDCF8085070
:10124000A607360F07FA06F825EA0805DFF8B88082
:10125000404503D14FF0000817E044E0DFF8AC80D0
:10126000404502D14FF001080FE0DFF8A48040456F
:1012700002D14FF0020808E0DFF89880404502D123
:101280004FF0030801E04FF0040808FA06F848EAB6
:101290000508CCF808804D68D9F80060ED024D468D
:1012A00001D5164300E096432E604D68DAF80060E1
:1012B000AD02554601D5164300E096432E604D68B9
:1012C000DBF80060AD035D4601D5164300E09643B0
:1012D0002E604D68DEF80060ED03754601D51643BB
:1012E00000E096432E60641C0D682A46E5407FF4BA
:1012F00031AFBDE8F88F0000080401400000111074
:10130000001002400000014000080140000C0140B4
:1013100000100140001401408068084000D0012006
:1013200070470AB1016170470904FBE70148806812
:10133000704700009C00002070B5040025D094F890
:101340003D00002520B984F83C50204600F050F9BB
:10135000242084F83D002068016821F0010101602B
:101360002068016841F4004101602068016821F4AF
:101370000041016000F06AFB4D4A6168914201D86A
:101380004C4900E04C49884201D2012070BD4B49D4
:101390002368B0FBF1F15E6826F03F060E435E6005
:1013A0006368934206D94FF4967359434FF47A73A6
:1013B000B1FBF3F12368491C1E6A26F03F06314356
:1013C00019626168914210D84900401EB0FBF1F2E9
:1013D000521CC2F30B02042A01D2042022E0B0FB0B
:1013E000F1F0401CC0F30B001CE0A268F2B301EB6B
:1013F000C10303EB0116431EB3FBF6F35B1C43F47E
:1014000080431B0549D092B301EBC10202EB0111ED
:10141000401EB0FBF1F0401CC0F30B0040F48040D4
:1014200040F400402168CA694CF6FF739A431043A8
:10143000C861D4E9071001432068026822F0C002A5
:1014400011430160D4E9030101432068826848F236
:10145000FF339A4311438160D4E9050108432168B1
:10146000CA6822F0FF021043C86001E00EE016E0F7
:101470002068016841F0010101602564202084F8A2
:101480003D00256384F83E50002070BD01EB41060D
:10149000431EB3FBF6F35B1CB3E70120C2E701EB8D
:1014A0004101401EB0FBF1F0401CC0F30B00B7E758
:1014B000A086010080841E0000093D0040420F000C
:1014C0002DE9FF4F83B09A46DDE911979346044614
:1014D000DDF84080FFF72AFF054694F83D002028FC
:1014E0007FD11923012240492046009501F052FB8B
:1014F000002876D194F83C00012872D0012084F8AD
:101500003C0020680168C90703D1016841F001016E
:1015100001602068016821F400610160212084F8E5
:101520003D00402084F83E0000262664C4F8248054
:10153000A4F82A90608D20852C48E062CDE90075E2
:1015400053465A462046049901F0A4FA70B930E097
:101550002A463946204601F0C3FB58B1206C0428C6
:1015600004D12068016841F400710160012007B0D6
:10157000BDE8F08F606A216800780861606A401CED
:101580006062218D491E89B22185628D521E62855D
:1015900022685369DB435B070BD469B100781061A3
:1015A000606A401C6062208D401E2085608D401E58
:1015B0006085208D0028CBD12A463946204601F08F
:1015C000BDFA0028CAD154F83D0B016841F40071FE
:1015D0000160202004F81E09E67766770020C6E740
:1015E000FFE70220C3E70000020010000000FFFF39
:1015F00010B586B00021009101910291039100681D
:101600001349884222D1134CA06940F00800A06120
:10161000A069694600F0080004904FF44070009003
:1016200012200190032003900B48FFF785FD0B4823
:10163000416841F0E06141F002014160E06940F43D
:101640000010E061E06900F40010049006B010BDE5
:101650000054004000100240000C01400000014016
:101660000248816802781144816070479C00002024
:10167000074810B5016841F010010160032000F037
:1016800075F80F2000F006F800F024F8002010BDD7
:101690000020024070B50D4D04464FF47A71287851
:1016A000B1FBF0F00A490968B1FBF0F000F0A4FBCF
:1016B00048B9102C07D200222146501E00F036F8FF
:1016C00000206C6070BD012070BD00009C000020F7
:1016D000A80000200C4808B5816941F00101816132
:1016E000816901F001010091C16941F08051C1613E
:1016F000C06900F0805000900448416821F0E0612A
:1017000041F00071416008BD00100240000001403E
:10171000002809DB00F01F020121914040098000F0
:1017200000F1E020C0F8001170470000F0B40E4B4B
:101730001B680C46C3F30223C3F10705042D00D92F
:101740000425191D072901D2002300E0DB1E012614
:1017500006FA05F1491E214099409E40761E16402A
:101760003143F0BC02F04AB90CED00E0064900F04C
:10177000070208684FF6FF03184040EA0220034AB8
:1017800010430860704700000CED00E00000FA050F
:1017900010B501460020234C012922D0022939D05E
:1017A00010291DD161682268D20119D51E48C1F3E4
:1017B0008342C903805C0AD561681B4AC1F340417A
:1017C000921E515C194AB2FBF1F1484301E01849FD
:1017D00048436168490203D440000321B0FBF1F0A3
:1017E00010BD226AC2F30121012903D1920701D55C
:1017F000C80310BD022905D1626A920702D549F6D5
:10180000404010BD0329FCD121688903F9D54FF26E
:10181000244010BD00F02AF96168C1F38131491CF0
:101820004900DBE700100240B863000800127A00AC
:1018300000093D002DE9F84305460078354CC00706
:1018400054D0E0690026C00008D4E06940F0805020
:10185000E061E069012600F0805000902E480168A8
:10186000C90512D40168804641F480710160FFF718
:101870005DFD074605E000BFFFF758FDC01B64286B
:1018800023D8D8F80000C005F6D5206A10F44070BF
:1018900021D0A98801F4407181421CD0206A1F49DF
:1018A000012220F440700A6000220A602062C00712
:1018B00011D0FFF73BFD074641F2883808E000BF32
:1018C000FFF734FDC11B414502D90320BDE8F88371
:1018D000206A8007F4D5206A696820F440700843C4
:1018E00020621EB1E06920F08050E0612878800716
:1018F00005D56068A96820F44040084360602878F6
:10190000C00605D56068E96820F48000084360607F
:101910000020DBE70010024000700040400442421B
:101920002DE9F0470F46050061D0434E306800F0C6
:101930000700B84209D2306820F007003843306011
:10194000306800F00700B84251D128683B4C81074D
:1019500012D5400703D5606840F4E06060602878E5
:10196000000703D5606840F4605060606068A96853
:1019700020F0F000084360602878C00728D068682D
:10198000012810D02168022810D0890700292EDAFA
:10199000616821F0030101436160FFF7C7FC8046E5
:1019A00041F288390DE021688903EFE78901EDE70D
:1019B000FFF7BCFCA0EB0801494502D90320BDE8B4
:1019C000F0876068696800F00C00B0EB810FEFD120
:1019D000306800F00700B8420BD9306820F00700EB
:1019E00038433060306800F00700B84201D0012071
:1019F000E5E72878400705D56068E96820F4E060ED
:101A0000084360602878000706D56068296920F4DB
:101A1000605040EAC100606000F038F86168084A30
:101A2000C1F30311515CC8400649086006480068CC
:101A3000FFF730FE0020C2E7002002400010024005
:101A4000C8630008A8000020A00000200448054941
:101A500000684968044AC1F30221515CC8407047DC
:101A6000A800002000100240D8630008044805497F
:101A700000684968044AC1F3C221515CC8407047FC
:101A8000A800002000100240D86300080E4A5168E8
:101A90000E4801F00C03042B11D0082B0FD10C4879
:101AA000C1F38343C903C05C0AD55168084AC1F336
:101AB0004041921E515C054A5043B0FBF1F0704723
:101AC00004494843704700000010024000127A00A9
:101AD000A663000800093D002DE9F84F040070D00E
:101AE0002078C04DC00749D06868C0F38100012844
:101AF00007D06868C0F38100022809D16868C00374
:101B000006D52868800339D560680028E7D035E01D
:101B10006068B0F5803F0BD010B1B0F5A02F11D0A8
:101B2000286820F480302860286820F4802002E0B3
:101B3000286840F480302860606890B1FFF7F6FBB9
:101B400006460AE0286840F480202860F0E700BFDD
:101B5000FFF7ECFB801B642873D828688003F7D557
:101B60000CE0FFF7E3FB064605E000BFFFF7DEFBF6
:101B7000801B6428F0D828688003F7D420789A4E18
:101B800080074FF001094FF0000839D5686810F060
:101B90000C0F07D06868C0F38100022809D168687B
:101BA000C00306D42868800714D52069012808D10D
:101BB00010E02069B0B1C6F80090FFF7B7FB074608
:101BC00005E00AE1FFF7B2FBC01B0228C4D8286871
:101BD0008007F7D52868616920F0F80040EAC10065
:101BE00028600DE0C6F80080FFF7A0FB074604E080
:101BF000FFF79CFBC01B022823D828688007F7D476
:101C0000207800072CD57948A169D9B1C0F8009097
:101C1000FFF78CFB074604E0FFF788FBC01B022898
:101C20000FD8686A8007F7D571484FF4FA510068F9
:101C3000B0FBF1F0009000BF0098411E0091FAD275
:101C40000EE080E0C0F80080FFF770FB074604E07C
:101C5000FFF76CFBC01B022875D8686A8007F7D4B1
:101C60002078400760D5E8690027C00008D4E869FB
:101C700040F08050E861E869012700F08050009052
:101C80005C480168C90513D40168834641F480713A
:101C90000160FFF74BFB824606E000BFFFF746FB03
:101CA000A0EB0A0064284ED8DBF80000C005F5D58B
:101CB000E06801280AD008B1052813D0286A20F06E
:101CC00001002862286A20F0040002E0286A40F03F
:101CD00001002862E06841F2883B98B1FFF726FBDB
:101CE00082460BE0286A40F004002862EEE700BF5D
:101CF000FFF71CFBA0EB0A0159455AD8286A800758
:101D0000F6D50CE0FFF712FB824605E0FFF70EFB6D
:101D1000A0EB0A0159454CD8286A8007F6D41FB1B8
:101D2000E86920F08050E861E06988B36968C1F330
:101D30008101022944D00228C6F8608004D0FFF750
:101D4000F5FA044638E034E0FFF7F0FA074604E01D
:101D5000FFF7ECFAC01B02282BD828688001F7D4C3
:101D6000206AB0F5803F05D16868A16820F4003092
:101D700008436860D4E908010843696821F47411D4
:101D800008436860C6F86090FFF7D0FA044606E0A2
:101D900025E000BFFFF7CAFA001B022809D828680F
:101DA0008001F7D51BE000BFFFF7C0FA001B022837
:101DB00002D90320BDE8F88F28688001F4D40EE032
:101DC0000128F7D06868226A00F48031914204D17A
:101DD000616A00F47010884201D00120EAE7002017
:101DE000E8E7000000100240000042428004424246
:101DF000A80000200070004010B5401EB0F1807FA8
:101E000001D3012010BD4FF0E02460610F21601765
:101E100001F0F4FD0020A06107202061002010BD2A
:101E20007047704710B590F83C20012A22D001225B
:101E300080F83C20CA688C6822F4407222434C68C7
:101E400022F4806222430C6822F4006222430C696F
:101E500022F4805222434C6922F400522243C96981
:101E6000002322F480420A4301684A6480F83C302F
:101E7000002010BD022010BD70B590F83C20012A52
:101E800026D0012480F83C40022280F83D200368DF
:101E90005A689D6822F070060A6832435A600D4BFA
:101EA00002689A4208D0B2F1804F05D00A4B9A429C
:101EB00002D00A4B9A4204D1496825F080031943A5
:101EC000916080F83D40002180F83C10084670BDCC
:101ED000022070BD002C01400004004000080040BA
:101EE00010B5040003D094F83D0010B107E00120C4
:101EF00010BD002084F83C00204600F01FF80220AE
:101F000084F83D00211D206801F0F6FA012084F8D4
:101F1000460084F83E0084F83F0084F8400084F8CE
:101F2000410084F8420084F8430084F8440084F8B7
:101F3000450084F83D00002010BD000030B585B09C
:101F40000021009101910291039102682A482B49D6
:101F5000824209D1886940F400608861886900F490
:101F60000060049005B030BD02242548B2F1804FD6
:101F700022D0244B9A42F5D1CA6942F00202CA61CA
:101F8000CA6902F0020204928A6942F004028A617C
:101F90008969039401F004010491C021CDE9001482
:101FA0006946FFF7C9F8002201211D20FFF7BEFB9B
:101FB0001D20FFF7ADFBD5E7CA6942F00102CA61F7
:101FC000CA6902F0010204928A6942F004028A613D
:101FD0008969054601F0040104910121CDE900144D
:101FE00069460394FFF7A8F80094019469462846CF
:101FF0000394FFF7A1F8B5E7002C01400010024060
:10200000000801400004004090F83D10012901D073
:1020100001207047022180F83D100168CA6842F033
:102020000102CA6000680B49884208D0B0F1804FB5
:1020300005D00949884202D00849884204D1816804
:1020400001F00701062903D0016841F00101016098
:1020500000207047002C01400004004000080040B0
:1020600070B5044690F83C000025012817D00126E1
:1020700084F83C60022084F83D002068826822F0E9
:10208000770222F47F4282600868502838D00DDC45
:1020900020284FD005DC90B3102811D14AE002204F
:1020A00070BD302846D040280AD13BE060282FD0B0
:1020B00070280DD0B0F5805F03D0B0F5005F12D06E
:1020C000012584F83D60002084F83C00284670BD5E
:1020D000CB68D1E90121206801F051FA20688168BC
:1020E00041F0770109E0CB68D1E90121206801F0D6
:1020F00046FA2068816841F480418160E1E719E097
:10210000CA684968206801F0EFFA5021206806E0AB
:10211000CA684968206801F0F8FA6021206801F077
:1021200038FACEE7CA684968206801F0DDFA402134
:102130002068F4E7226801461046F0E7704770B562
:102140000446006801694FF00005C943890715D4AA
:10215000C168C943890711D4E91E016101202077B4
:10216000206880698007204602D0FFF7E7FF04E07F
:1021700000F0BEF8204600F050F92577206801698C
:10218000C943490717D4C168C943490713D46FF03D
:1021900004010161022020772068806910F4407FEB
:1021A000204602D0FFF7CAFF04E000F0A1F8204665
:1021B00000F033F9257720680169C943090716D46F
:1021C000C168C943090712D46FF0080101610420F6
:1021D00020772068C0698007204602D0FFF7AEFF55
:1021E00004E000F085F8204600F017F92577206814
:1021F0000169C943C90617D4C168C943C90613D4C4
:102200006FF010010161082020772068C06910F488
:10221000407F204602D0FFF791FF04E000F068F80D
:10222000204600F0FAF8257720680169C943C907FC
:1022300008D1C168C943C90704D1891E016120467C
:1022400000F03AF920680169C943090609D4C16858
:10225000C943090605D46FF0800101612046FFF7EC
:10226000DFFD20680169C943490609D4C168C94333
:10227000490605D46FF040010161204600F062F983
:1022800020680169C94389060BD4C168C94389061E
:1022900007D46FF0200101612046BDE87040FFF7D0
:1022A000C0BD70BD00B585B00021009101910291C3
:1022B000039100680B49884212D10B48816941F0B3
:1022C000040181618069694600F0040004904FF4C4
:1022D000407000900220019003900448FEF72CFF0C
:1022E00005B000BD002C0140001002400008014074
:1022F000704770B5044690F83C0000260D46012852
:102300000FD0012084F83C006AB1042A1DD0082AAD
:102310002FD00C2A3FD00126002084F83C00304604
:1023200070BD022070BD206801F03CF92068816911
:1023300041F0080181612068816921F00401816117
:10234000206881692A69114311E0206801F052F97F
:102350002068816941F4006181612068816921F40C
:1023600080618161206881692A6941EA0221816175
:10237000D2E7206801F06AF92068C16941F00801DC
:10238000C1612068C16921F00401C1612068C1698F
:102390002A69114311E0206801F084F92068C169BD
:1023A00041F40061C1612068C16921F48061C161AB
:1023B0002068C1692A6941EA0221C161ACE710B510
:1023C000040003D094F83D0010B107E0012010BDD7
:1023D000002084F83C00204600F01EF8022084F81B
:1023E0003D00211D206801F087F8012084F8460097
:1023F00084F83E0084F83F0084F8400084F84100EF
:1024000084F8420084F8430084F8440084F84500CE
:1024100084F83D00002010BD7047704710B5044699
:10242000022249B104290ED0082913D094F84100A2
:10243000012816D0012010BD94F83E000128F9D1E2
:1024400084F83E200FE094F83F000128F2D184F890
:102450003F2008E094F840000128EBD184F84020A8
:1024600001E084F841200122206801F07BF80F4947
:102470002068884203D1426C42F4004242642068E2
:10248000884208D0B0F1804F05D00949884202D077
:102490000849884204D1816801F00701062903D068
:1024A000016841F001010160002010BD002C0140D5
:1024B000000400400008004070B51A49006809682F
:1024C00088422DD11848FEF77DFA1748FEF752FDD5
:1024D00005211548FEF7B0FC1348FEF760FB134CCE
:1024E00080B22080FEF79BF80546E0606068FEF74A
:1024F000D9F80F4A0F4BFDF701FFFEF7E6F86060D1
:10250000284601F09BFAFEF7CDF80B4A0B4BFDF77E
:102510009CFF00220A4BFEF70AF8FEF7D6F8A060EF
:1025200070BD000044030020000200205C00002079
:102530007B14AE47E17A843F9A99999999917040BA
:1025400000FEAF4070477047704710F8411F407859
:1025500008437047F8B5016804460868CA684B69C3
:1025600010F00F0F4FF0000559D003F0010602F4F0
:102570009077374365D0C10705D0D10503D5616C8D
:1025800041F001016164410705D5D90703D0616CB1
:1025900041F002016164810705D5D90703D0616C60
:1025A00041F004016164010707D502F020013143C5
:1025B00003D0616C41F008016164616C00293AD07C
:1025C000800604D5900602D5204601F0DFF8206889
:1025D0004069616CC0F38010090700D460B32046E5
:1025E00001F0ADF820684069400621D5206814301C
:1025F00050E8001F21F0400140E80012002AF5D108
:10260000E06BA8B16D494163E06BFEF737FD002830
:1026100011D0E06B416B01B0BDE8F0400847830684
:102620000FD593060DD52046BDE8F84001F0AEB8B1
:102630002046FFF789FFF8BD2046FFF785FF656458
:10264000F8BD266B2023012E7CD1C6067AD5D6068E
:1026500078D508684868009048694FF0020640063F
:1026600040D5E16B086840680004000CE8D0A28DFA
:102670008242E5D9E085886920282DD020680C3079
:1026800050E8001F21F4807140E80012002AF5D1C3
:102690002068143050E8001F21F0010140E80012CA
:1026A000002AF5D12068143050E8001F21F04001C5
:1026B00040E80012002AF5D184F8423025632068F2
:1026C0000C3050E8001F21F0100140E80012002AF1
:1026D000F5D1E06BFEF7AEFC6663A08DE18D401A8C
:1026E00081B22AE0A08DE18D401A81B2E08D0028F0
:1026F000A6D00029A4D022680C3252E8000F20F4A2
:10270000907042E80007002FF5D12068143050E89F
:10271000002F22F0010240E80027002FF5D184F8B5
:102720004230256320680C3050E8002F22F0100260
:1027300040E80023002BF5D166632046FFF703FF36
:10274000F8BDFFE705062BD5150629D594F84100FD
:102750002128F5D1A068B0F5805F01D12069B0B122
:10276000206A411C2162216800784860E08C401E8C
:102770000004000CE084E3D12068C16821F08001EE
:10278000C1602068C16841F04001C160D8E7206A9B
:102790000088C0F308004860206A801C2062E5E7DA
:1027A0004006CDD55006CBD5CA68204622F040025F
:1027B000CA6084F8413000F054F9C1E72F370008AF
:1027C00070B5040004D094F84100002510B106E073
:1027D000012070BD84F84050204600F023F82420EA
:1027E00084F841002068C16821F40051C16020468E
:1027F00001F02EF82068016921F490410161206800
:10280000416921F02A0141612068C16841F4005109
:10281000C1606564202084F8410084F8420065634B
:10282000002070BD30B585B000240094019402945E
:1028300003940068184988422CD11848C16941F4B2
:102840008021C161C16901F480210491816941F055
:10285000080181618069124D00F0080004904FF476
:102860008060009002200190032003906946284672
:10287000FEF762FCE814CDE900046946284602949C
:10288000FEF75AFC002211462720FEF74FFF2720B3
:10289000FEF73EFF05B030BD00480040001002408A
:1028A000000C014090F84230202B01D002207047EC
:1028B00021B11AB10023036301F026B8012070474B
:1028C0002DE9F05F374900680968884261D1364CCC
:1028D00000274FF4807B2078411C2170FF2805D30E
:1028E000277059463148FDF736FC52E03048A5685C
:1028F000617841556D1CA5600A2945D10226002248
:102900006660C4E9042282466D1E13E01AF80600D0
:102910003038FDF789FE80468946D4E9040100225B
:10292000244BFDF792FD42464B46FDF7E7FCC4E918
:102930000401761CAE42E9DBC4E901679AF8011094
:102940003A2921D19AF80000442817D049280FD0FD
:10295000502807D0512817D1D4E90401FDF7B5FE5E
:10296000154910E0D4E90401FDF7AFFE13490AE070
:10297000D4E90401FDF7A9FE114904E0D4E90401FA
:10298000FDF7A3FE0F49086059460848FDF7E3FB31
:102990002770BDE8F05F04490122491C0148FFF798
:1029A00081BF00008C03002020000020AC0000202C
:1029B000AC010020000024406400002088000020BA
:1029C0008C000020900000202DE9F843044690F888
:1029D00041001F4616460D46202802D00220BDE8C1
:1029E000F8837DB176B100206064212084F8410035
:1029F000FEF79CFCA6848046E684A068B0F5805F64
:102A000002D003E00120EAE7206910B12E4600253C
:102A10000EE000260CE08021204600F090FFA0B9D7
:102A2000AEB116F8010B21684860E08C401EE084CE
:102A3000E08C43464FF0000200970028EBD14FF0A6
:102A40004001204600F07BFF30B10320C7E735F896
:102A5000020BC0F30800E6E7202084F841000020C4
:102A6000BDE77047FEE701684A69D24352050FD4BB
:102A70006FF480624A61002140F8301F20224273C7
:102A80008173026942F00402026101730120704700
:102A9000002070472DE9F843044600680D46DDE943
:102AA000089701689846164641F4807101604B46CC
:102AB00000224FF001112046009700F06BF848B15A
:102AC00020680068C00502D54FF400702064032020
:102AD000BDE8F883216805F0FE0008613B464A46E0
:102AE0001549204600F09EF888B920684169806940
:102AF00000903A464946204600F0F2F848B1206C72
:102B0000042804D12068016841F4007101600120AB
:102B1000DEE7F5B2B8F1010F09D02168300A08618B
:102B20003A464946204600F0DBF80028E7D1206805
:102B300005610020CCE700000200010070B51646D8
:102B40000D4604461EE02046FFF78DFF08B1012028
:102B500070BD681C16D0FEF7E9FB801BA84200D8A8
:102B600085B920684069C04340070BD5002044F870
:102B7000300F20216173A073216941F02001216190
:102B80002073E4E720684069C0434007DBD400209D
:102B900070BD00002DE9F047984617460D460446E3
:102BA000C1F30746DDF820902AE000BFB8F1FF3FEF
:102BB00026D0FEF7BBFBA0EB0901414502D8B8F1D6
:102BC000000F1DD12068012E16D0806925EA000073
:102BD0000004000C12D00020B84211D1002044F8AB
:102BE000300F20216173A073216941F02001216120
:102BF00020730120BDE8F0874069E7E70120EBE79B
:102C00002068012E0AD0806925EA00000004000C2B
:102C100006D00020B842C9D00020EBE74069F3E7B6
:102C20000120F7E72DE9F047984616460D46044681
:102C30004FF000094FF0200AC1F3074723E0206856
:102C40004069C043400515D42068016841F4007113
:102C5000016021686FF480604861C4F8309084F8A6
:102C60003DA084F83E90216C41F00401216484F879
:102C70003C9021E0701C06D0FEF758FBA0EB08004A
:102C8000B04203D816B1012F1FD021E02068012FD8
:102C900015D0806925EA00000004000C18D000BFA0
:102CA00044F8309F84F80DA084F80E90216941F01B
:102CB0002001216184F80C900120BDE8F087406973
:102CC00025EA00000004000CEAD12068406901E018
:102CD0002068806925EA00000004000CAFD1ECE711
:102CE00070B516460D4604461EE02046FFF7BBFEB3
:102CF00008B1012070BD681C16D0FEF717FB801BC1
:102D0000A84200D885B920684069C04300060BD5A9
:102D1000002044F8300F20216173A073216941F035
:102D2000200121612073E4E720684069C043000668
:102D3000DBD4002070BD00003EB500241148009493
:102D4000019402940E4984600160012505730475A5
:102D500005614FF460214460C161FDF791FF08B146
:102D6000FDF726FE0220CDE90005694602940548DC
:102D7000FDF796FE002801D0FDF71AFE3EBD0000CB
:102D800000240140000200203EB5002411480094B8
:102D9000019402940E498460016004730475012556
:102DA00005614FF460214460C161FDF769FF08B11E
:102DB000FDF7FEFD0320CDE90005694602940548B4
:102DC000FDF76EFE002801D0FDF7F2FD3EBD0000CC
:102DD00000280140300200202DE9F04385B0002496
:102DE00025480094019402940394816941F01001F4
:102DF0008161816901F010010491816941F0200134
:102E00008161816901F020010491816941F004012F
:102E10008161816901F004010491816941F0080137
:102E200081618069DFF8548000F008004FF420458C
:102E30000490002229464046FEF773FADFF84090DE
:102E40004FF2C007002239464846FEF76AFA00955D
:102E5000022601250396CDE9015469464046FEF756
:102E60006BF900970396CDE9015469464846FEF791
:102E700063F905B0BDE8F083001002400010014086
:102E8000000C01400D4810B50B4901600C49416030
:102E900000214FF480428160C0E9031241618161E9
:102EA000C1610162FEF748FA002803D0BDE8104076
:102EB000FDF77EBD10BD0000005400406002002000
:102EC000A086010010B596B000240F9410941194C0
:102ED000129413941C2168461494FDF73CF92021A8
:102EE00007A8FDF738F92C482A4901604721C0E9B5
:102EF000011442F20F71C0E9031444618461FEF7CA
:102F0000EFFF08B1FDF754FD4FF480500F900FA96B
:102F10002148FFF7A5F808B1FDF74AFD1E48FFF765
:102F20004EFA08B1FDF744FD139413A91A481494FE
:102F3000FEF7A2FF08B1FDF73BFD6020CDE90004DC
:102F4000029403940494059400226946124806945E
:102F5000FFF7CFF908B1FDF72BFD042269460E48B3
:102F6000FFF7C7F908B1FDF723FD0794089409940A
:102F70004FF400500A94CDE90B4007A906480E947F
:102F8000FEF750FF08B1FDF713FD0348FFF78AF97C
:102F900016B010BD002C0140B402002010B586B060
:102FA00000241648009401940294039404944FF072
:102FB0008041059401604721C0E901144FF6FF717B
:102FC000C0E903148461FEF78BFF08B1FDF7F0FC44
:102FD0004FF48050009069460848FFF741F808B167
:102FE000FDF7E6FC049404A904480594FEF744FFA9
:102FF000002801D0FDF7DCFC06B010BDFC0200206B
:1030000010B586B0002417480094019402940394EC
:1030100004941349059401604721C0E9011442F268
:103020001071C0E903148461FEF75AFF08B1FDF77F
:10303000BFFC4FF48050009069460A48FFF710F833
:1030400008B1FDF7B5FC049404A906480594FEF701
:1030500013FF002801D0FDF7ABFC06B010BD000047
:1030600000040040440300200C4810B50A490160E8
:103070004FF4E1314160002181600C22C160C0E960
:1030800004128161C161FFF79BFB002803D0BDE8FA
:103090001040FDF78DBC10BD004800408C0300209F
:1030A000FEE7000010B50448FEF7AEFFBDE8104093
:1030B0000248FEF7A9BF0000FC02002044030020E4
:1030C000FEE770B5002404F1B000C0B200F0E4F8EF
:1030D000002000F0E1F8102000F0DEF800250020CC
:1030E00000F0ECF86D1CEDB2802DF8D3641CE4B256
:1030F000082CE8D370BD10B5C820FEF70BF8BDE86A
:10310000104000F061BC10B50446B031C8B200F008
:10311000C3F8102040EA141000F0BEF804F00F00CD
:10312000BDE8104000F0B8B82DE9F041203A002485
:103130000D468046D6B27F2803D900208D1C8046DC
:10314000EDB2102B29460FD0FFF7DDFF164906EB35
:10315000460001EB4005285D00F0B0F8641CE4B2C5
:10316000062CF8D3BDE8F081FFF7CDFF0F4F00BF6D
:1031700004EB0610385C00F0A1F8641CE4B2082CE3
:10318000F6D36D1CE9B24046FFF7BDFF5FF00004C7
:1031900004EB06103844007A00F090F8641CE4B2A6
:1031A000082CF5D3DEE700009C3C0008C43E000874
:1031B0002DE9FF5F05461E46DDF838800298FDF7D1
:1031C00044FA81460F9800244FF00A0A470825E088
:1031D000301B401EC1B20A2000F026FDB9FBF0F101
:1031E000B1FBFAF20AFB1210BBF1000F05D1711E00
:1031F0008C4202DA40B14FF0010B3030C2B207FB13
:103200000450C0B20F9B04E007FB04500F9BC0B2F8
:1032100020220199FFF788FF641CE4B2B442D7D39F
:1032200007FB0650C0B22E220F9B0199FFF77CFFCF
:1032300041460A2000F0F8FCFDF7F1F90446484643
:10324000FDF7E4F90299FCF7E6FF2146FCF7E6FFFB
:10325000FDF7FBF9002481466D1D18E0A8EB040082
:10326000401EC1B20A2000F0DFFCB9FBF0F1B1FB57
:10327000FAF20AFB1211A01907FB00503031CAB252
:10328000C0B20F9B0199FFF74FFF641CE4B24445A5
:10329000E4D3BDE8FF9F000001B584B001214FF4E5
:1032A000807204A88DE807000B46002278210248AE
:1032B000FEF706F905B000BD6002002001B584B03C
:1032C00001214FF4807204A88DE807000B464022CC
:1032D00078210248FEF7F4F805B000BD6002002036
:1032E000084909480A6A4260C96901600021816091
:1032F000C16001614FF07E5141610449816104491F
:10330000C161704738000020B8010020000028414A
:10331000CDCC4C3D2DE9F0411E469046069FFCF772
:1033200077FF154C054601462060A068FCF71EFF9C
:103330001249A060884202DC1149884200D9A1608C
:1033400028462169FCF764FF3946FCF767FF07460A
:103350003046A168FCF762FF064629464046FCF766
:103360005DFF3146FCF702FF3946FCF7FFFE2561A1
:10337000A061BDE8F08100003800002000007A4420
:1033800000007AC470477047F8B506460A46002028
:10339000009069461046FDF70DFB4FF6FF752B4672
:1033A000012269463046FFF70FFB3046FFF7CDF8A4
:1033B0002128FAD06C462B4601223046611CFFF7CB
:1033C00003FB3046FFF7C1F82128FAD02B46012233
:1033D000A11C3046FFF7F8FA3046FFF7B6F821286F
:1033E000FAD02B460122E11C3046FFF7EDFA3046B9
:1033F000FFF7ABF82128FAD0F8BD0000F8B5064673
:1034000019A04FF6FF75006800902B46012269460F
:103410003046FFF7D9FA3046FFF797F82128FAD05F
:103420006C462B4601223046611CFFF7CDFA304630
:10343000FFF78BF82128FAD02B460122A11C304639
:10344000FFF7C2FA3046FFF780F82128FAD02B4662
:103450000122E11C3046FFF7B7FA3046FFF775F856
:103460002128FAD0F8BD00000000807FFEF7F8B8F0
:1034700030B593B028216846FCF76DFE14210AA8E8
:10348000FCF769FE002501200F95109511950104A8
:1034900012958DE8230004904FF4E010CDE9081058
:1034A000022407946846FEF717FB08B172B6FEE7E0
:1034B0000AA90F2081E831004FF48060CDE90D05A5
:1034C00002210AA8FEF72CFA08B172B6FEE74FF403
:1034D000004011900F940FA8FEF7ACF9002801D01E
:1034E00072B6FEE713B030BD704700000148FEF72A
:1034F00026BE000044030020F0B50268164B174CAE
:10350000174D4FF08047984205D0B84203D0A042F3
:1035100001D0A84203D122F070064A683243984293
:1035200005D0B84203D0A04201D0A84203D122F472
:103530004074CA6822434C6922F080022243026030
:103540008A68C2620A688262984201D1096901638D
:1035500001214161F0BD0000002C01400004004049
:103560000008004010B501F01F030121046A9940D2
:103570008C430462016A9A401143016210BD10B588
:10358000846842EA032224F47F440A43224382608F
:1035900010BD826822F070020A4342F00701816088
:1035A0007047000030B5036A026A22F0010202622D
:1035B0004268846924F073050C682C4323F00205EB
:1035C0008B682B430A4DA8420BD123F00805CB682A
:1035D00022F440722B434D6923F0040315438A699A
:1035E0002A434260846149684163036230BD000040
:1035F000002C014030B5026A036A23F01003036215
:10360000436884690D6824F4E64444EA05248D681F
:1036100022F0200242EA05120B4DA8420ED1CD68DD
:1036200022F0800242EA05124D6923F4406343EA26
:1036300085038D6922F0400243EA8503436084617B
:1036400049688163026230BD002C014030B5036AD5
:10365000026A22F4807202624268C46923F4007331
:1036600024F073050C682C438D6843EA05230C4D48
:10367000A8420ED1CD6823F4006343EA05234D69C7
:1036800022F4405242EA05128D6923F4806342EA33
:1036900005124260C4614968C163036230BD000025
:1036A000002C014030B5046A026A22F480520262A2
:1036B0004268C3690D6823F4E64343EA05238D6835
:1036C00024F4005444EA0534064DA84204D14D695F
:1036D00022F4804242EA85124260C3614968016473
:1036E000046230BD002C014010B5036A046A24F066
:1036F00001040462846924F0F00444EA021423F013
:103700000A020A438461026210BD10B5036A046AAA
:1037100024F010040462846923F0A00324F47044AC
:1037200044EA023243EA01118261016210BD10B520
:10373000406A0021C185C184FEF706FF10BD016803
:103740000C3151E8002F22F4907241E80023002B45
:10375000F5D10168143151E8002F22F0010241E84F
:103760000023002BF5D1016B012909D101680C312F
:1037700051E8002F22F0100241E80023002BF5D180
:10378000202180F8421000210163704708B590F8AD
:103790004210222901D0022008BD82684FF48053D4
:1037A0009A4201D1016921B1816A9A421BD04AB182
:1037B0000AE00268816A5268C2F308020A80816ADC
:1037C000891C08E0026972B10268526802F07F0247
:1037D0000A70816A491C8162C18D491E0904090C65
:1037E000C18503D01BE002685268F1E70168CA682E
:1037F00022F02002CA600168CA6822F48072CA609E
:1038000001684A6922F001024A61202180F84210D1
:1038100000214163026B012A03D0FFF751F8002019
:1038200008BD016301680C3151E8002F22F010023D
:1038300041E80023002BF5D101680A68D20602D5C1
:103840000A6849680091818DFEF77DFEE7E7000078
:1038500070B5044600680169E26821F440511143E3
:1038600001612169A0680843616908432168CA6849
:1038700041F20C639A430243CA6020684169A2691D
:1038800021F44071114341611E492068884202D1F0
:10389000FEF7ECF801E0FEF7D9F800EBC00101EB10
:1038A0000012606864218000B2FBF0F3B3FBF1F317
:1038B0006FF018067343B2FBF0F5B2FBF0F605EBC0
:1038C0008305322303EB0515B5FBF1F5B6FBF1F6E5
:1038D00005F0F00505EB0615B2FBF0F6B2FBF0F0D3
:1038E000B0FBF1F06FF01802504306EB800003EBE1
:1038F0000010B0FBF1F0216800F00F002844886050
:1039000070BD00000038014081628285C2850021BF
:103910004164222180F84210016921B10168CA681E
:1039200042F48072CA6001684A6942F001024A6149
:103930000068C16841F02001C160002070472DE996
:10394000F041984617460E460446069D27E0681C3F
:1039500025D02DB1FDF7EAFCA0EB0800A8421ED946
:1039600020680C3050E8001F21F4D07140E80012AC
:10397000002AF5D12068143050E8001F21F0010121
:1039800040E80012002AF5D1202084F8410084F894
:103990004200002084F840000320BDE8F081206848
:1039A000006836EA000004D00020B842CFD00020E2
:1039B000F3E70120F9E700000148FEF7CBBD000066
:1039C0008C030020FEE70000FEB50024094F4FF4F1
:1039D000807501263819CDE90006012300227821DF
:1039E00002950548FDF76CFD641CE4B21B2CF1D375
:1039F000FEBD000000000020600200200907090E43
:103A0000002804DB00F1E02080F80014704700F08B
:103A10000F0000F1E02080F8141D704702E008C894
:103A2000121F08C1002AFAD170477047002001E038
:103A300001C1121F002AFBD17047000070B5064675
:103A400000200B4D044600BF05EB8401496845F892
:103A50002410FCF78BFB641C032CF5DB3146EE6075
:103A6000FCF784FBBDE870400249FCF709BC00008C
:103A7000D8010020000040401CB5FDF7F9FDFFF71C
:103A8000F7FCFFF7A9F9FFF789FAFFF7B9FAFFF793
:103A9000F9F9FFF751F9FFF777F9FFF713FAFFF795
:103AA000E3FAFFF7FFFAFFF726FBFFF719FC012205
:103AB0004B494C48FEF7F6FEFFF703FB00214A484E
:103AC000FEF7ACFC04214848FEF7A8FCDFF818918B
:103AD0004FF4FA51D9F800004163C810FDF71AFB02
:103AE0004248FEF791FA4248FEF78EFA424C4148AE
:103AF000444E2060414860604148DFF80C814FF03F
:103B0000010B4FF0100A0027A060E068FCF77EFD73
:103B1000CDE900BA02460021554601230846FFF7C9
:103B200047FBFCF72FFFFCF77AFDCDE90075024655
:103B3000012302210020FFF73BFB00F07DF8FCF79A
:103B40006EFDCDE900750246012302212020FFF71A
:103B50002FFB2E492069FCF761FB4146FCF706FB71
:103B600002460420CDE90005034601462020FFF768
:103B70001FFB0320CDE90005034606210020326823
:103B8000FFF716FBE068411C02D00A2804D023E0AE
:103B90000A20E0601E480760A0680090D4E9002376
:103BA0001C4D31682846FFF7B5FB20613168A942FA
:103BB00006DD1949FCF732FB4146FCF72CFB06E019
:103BC0000ADA1549FCF72AFB4146FCF7CFFAFCF765
:103BD00055FDD9F800104863024800F03BF894E71F
:103BE000210000208C030020B4020020FC020020F1
:103BF000440300200000A041880000200000704124
:103C00000000C0406400002000803B4500002041CF
:103C1000600000200000F4420000F04140F637410F
:103C20004843401EFDD270470246012000E0504349
:103C3000491EC9B2FBD2704710B54FF40051044879
:103C4000FDF76AFB012801D0012010BD002010BD46
:103C5000000C014010B504460C4801682046FFF7EF
:103C600093FB0B4801682046FFF78EFB094801686B
:103C70002046FFF789FB084801682046FFF784FBD0
:103C80002046BDE81040FFF7B9BB000088000020C7
:103C90008C00002090000020640000200000000044
:103CA00000000000002F00000000070007000014C3
:103CB0007F147F1400242A7F2A12006264081323D1
:103CC00000364955225000000503000000001C2268
:103CD0004100000041221C000014083E08140008A6
:103CE000083E0808000000A0600000080808080856
:103CF000000060600000002010080402003E5149EE
:103D0000453E0000427F400000426151494600218B
:103D100041454B31001814127F10002745454539A5
:103D2000003C4A4949300001710905030036494900
:103D3000493600064949291E0000363600000000B9
:103D40005636000000081422410000141414141404
:103D500000004122140800020151090600324959AD
:103D6000513E007C1211127C007F49494936003EC9
:103D700041414122007F4141221C007F4949494184
:103D8000007F09090901003E4149497A007F08087E
:103D9000087F0000417F4100002040413F01007F3B
:103DA00008142241007F40404040007F020C027F07
:103DB000007F0408107F003E4141413E007F090919
:103DC0000906003E4151215E007F0919294600463F
:103DD000494949310001017F0101003F4040403F16
:103DE000001F2040201F003F4038403F0063140860
:103DF000146300070870080700615149454300003B
:103E00007F41410000552A552A55000041417F005D
:103E10000004020102040040404040400000010252
:103E20000400002054545478007F4844443800383B
:103E30004444442000384444487F003854545418C3
:103E400000087E0901020018A4A4A47C007F0804D5
:103E500004780000447D4000004080847D00007FA5
:103E6000102844000000417F4000007C04180478C2
:103E7000007C0804047800384444443800FC2424BE
:103E800024180018242418FC007C080404080048A6
:103E90005454542000043F444020003C4040207CC7
:103EA000001C2040201C003C4030403C00442810B6
:103EB0002844001CA0A0A07C004464544C4414146A
:103EC00014141414000000000000000000000000A2
:103ED00000000000000000F80000000000000033B7
:103EE0003000000000100C06100C0600000000005E
:103EF0000000000040C07840C0784000043F040447
:103F00003F040400007088FC08300000001820FF07
:103F1000211E0000F008F000E018000000211C0342
:103F20001E211E0000F00888700000001E212324BE
:103F30001927211010160E000000000000000000DC
:103F400000000000000000E018040200000000076C
:103F50001820400000020418E00000000040201873
:103F600007000000404080F0804040000202010F46
:103F700001020200000000F0000000000101011F2A
:103F800001010100000000000000000080B070008E
:103F9000000000000000000000000000000101011E
:103FA00001010101000000000000000000303000AD
:103FB0000000000000000000806018040060180687
:103FC0000100000000E010080810E000000F1020C1
:103FD00020100F00001010F8000000000020203F0B
:103FE0002020000000700808088870000030282495
:103FF0002221300000300888884830000018202036
:1040000020110E000000C02010F80000000704245A
:10401000243F240000F8088888080800001921209F
:1040200020110E0000E0108888180000000F1120F9
:1040300020110E0000380808C83808000000003FB2
:10404000000000000070880808887000001C222111
:1040500021221C0000E010080810E00000003122BE
:1040600022110F00000000C0C0000000000000305E
:1040700030000000000000800000000000008060B0
:104080000000000000008040201008000001020431
:104090000810200040404040404040000404040418
:1040A00004040400000810204080000000201008D4
:1040B00004020100007048080808F0000000003009
:1040C00036010000C030C828E810E0000718272497
:1040D00023140B000000C038E0000000203C230245
:1040E0000227382008F8888888700000203F2020A8
:1040F00020110E00C03008080808380007182020DA
:104100002010080008F808080810E000203F2020D0
:1041100020100F0008F88888E8081000203F2020B1
:104120002320180008F88888E8081000203F2000A5
:1041300003000000C03008080838000007182020DD
:10414000221E020008F808000008F808203F21019C
:1041500001213F20000808F8080800000020203F47
:104160002020000000000808F8080800C0808080B7
:104170007F00000008F888C028180800203F2001B0
:104180002638200008F8080000000000203F20200A
:104190002020300008F8F800F8F80800203F003F21
:1041A000003F200008F830C00008F808203F200039
:1041B00007183F00E01008080810E0000F1020204A
:1041C00020100F0008F808080808F000203F21011F
:1041D00001010000E01008080810E0000F18242476
:1041E00038504F0008F8888888887000203F2000E9
:1041F000030C30200070880808083800003820219F
:1042000021221C00180808F8080818000000203FA8
:104210002000000008F808000008F808001F20200F
:1042200020201F000878880000C8380800000738E0
:104230000E010000F80800F80008F800033C070031
:10424000073C0300081868808068180820302C0399
:10425000032C30200838C800C83808000000203F70
:104260002000000010080808C8380800203826215F
:1042700020201800000000FE020202000000007F63
:1042800040404000000C30C0000000000000000171
:104290000638C00000020202FE000000004040405C
:1042A0007F00000000000402020204000000000081
:1042B00000000000000000000000000080808080FE
:1042C00080808080000202040000000000000000E6
:1042D000000000000000808080800000001924227F
:1042E00022223F2008F8008080000000003F1120BB
:1042F00020110E000000008080800000000E1120C0
:1043000020201100000000808088F800000E11209D
:1043100020103F200000808080800000001F2222AB
:1043200022221300008080F0888888180020203F17
:10433000202000000000808080808000006B94942A
:104340009493600008F8008080800000203F2100E6
:1043500000203F2000809898000000000020203FAF
:1043600020200000000000809898000000C080809D
:10437000807F000008F8000080808000203F240239
:104380002D302000000808F8000000000020203F29
:10439000202000008080808080808000203F2000DE
:1043A0003F20003F8080008080800000203F21006F
:1043B00000203F200000808080800000001F20201F
:1043C00020201F00808000808000000080FFA1204E
:1043D00020110E000000008080808000000E11205F
:1043E00020A0FF80808080008080800020203F21EE
:1043F00020000100000080808080800000332424A1
:1044000024241900008080E0808000000000001F4C
:10441000202000008080000000808000001F2020FD
:1044200020103F20808080000080808000010E30BE
:104430000806010080800080008080800F300C031F
:104440000C300F0000808000808080000020312E22
:104450000E312000808080000080808080818E70FE
:104460001806010000808080808080000021302CB0
:104470002221300000000000807C020200000000C9
:10448000003F40400002027C800000000040403FAE
:104490000000000000000000FF000000000000001D
:1044A000FF000000000080E0F83840707CEC60A065
:1044B000606000000000000000000000000000003C
:1044C000000000000001001F3F00040E303F3F00CD
:1044D000000E0400000000000000000000000000CA
:1044E0000000000000808080F8F8C0C01090D8F86C
:1044F000B8988000000000000000000000000000EC
:10450000000000000001010B0D060F181111393FCA
:10451000000001000000000000000000000000009A
:10452000000000000000000000000000000000008B
:10453000000000000000000000000000000000007B
:10454000000000000000005878000000000000009B
:10455000000000000000000000000000000000005B
:1045600000000000000020B0D8C800F8F8A8ECFC5B
:1045700088000000000000000000000000000000B3
:10458000000000000002033F3F00003F3F1B060DFC
:104590000D0C0800000000000000000000000000FA
:1045A000000000000000203030F0D0DCBCF05010E3
:1045B00010100000000000000000000000000000DB
:1045C000000000000000003E3E021E1F1D0D257968
:1045D0003F0E00000000000000000000000000008E
:1045E000000000000000002060E01830B0C0F8B803
:1045F00090800000000000000000000000000000AB
:104600000000000000000203131F0D0501051D1925
:10461000190302000000000000000000000000007C
:1046200000000000000000F8F838E8E80CFCF80092
:10463000000000000000000000000000000000007A
:1046400000000000000010190D0F071F1E31303050
:1046500030381C00000000000000000000000000D6
:1046600000000000000080C8F8B8D848C800E0008A
:10467000FCF8000000000000000000000000000046
:104680000000000000001010161F0F0A08000310A1
:104690003F3F00000000000000000000000000009C
:1046A00000000000000080E0F83840707CEC60A062
:1046B000606000000000000000000000000000003A
:1046C000000000000001001F3F00040E303F3F00CB
:1046D000000E0400000000000000000000000000C8
:1046E00000000000000000F8F800000000000000DA
:1046F00000000000000000000000000000000000BA
:10470000000000000000001B1B0000000000000073
:104710000000000000000000000000000000000099
:10472000000000001010F01F10F000808282E29262
:104730008A868000000000000000000000000000E9
:1047400000000000402215081661000040807F0034
:104750000000000000000000000000000000000059
:10476000000000001010D0FF901000FE020202FEB8
:104770000000000000000000000000000000000039
:1047800000000000040300FF0083601F0000003FE2
:104790004040780000000000000000000000000021
:1047A000000000004040202050484443444850202E
:1047B0002040400000000000000000000000000059
:1047C00000000000000242E2524A46424242526267
:1047D000C202000000000000000000000000000015
:1047E0000000000088681FC80810C85452D11294F5
:1047F00008D01000000000000000000000000000D1
:1048000000000000091909FF0500FF1292FF005F78
:10481000807F000000000000000000000000000099
:1048200000000000000000000001E21CE0000000A9
:104830000000000000000000000000000000000078
:1048400000000000804020100C03000000030C302A
:104850004080800000000000000000000000000018
:1048600000000000108C4404E40495A64424148441
:1048700044940C0000000000000000000000000054
:104880000000000002027A414143427E424242431C
:10489000F800000000000000000000000000000020
:1048A000000000000484E45C44C40002F2828282BE
:1048B000FE808000000000000000000000000000FA
:1048C0000000000002017F10103F0008080808489F
:1048D00088403F00000000000000000000000000D1
:1048E0000000000080828282FE8282828282FE82BA
:1048F0008282800000000000000000000000000034
:1049000000000000008040300F0000000000FF00A9
:104910000000000000000000000000000000000097
:10492000000000001010D0FF901000FE020202FEF6
:104930000000000000000000000000000000000077
:1049400000000000040300FF0083601F0000003F20
:10495000404078000000000000000000000000005F
:104960000000000000FC848484FC00101010101073
:10497000FF10100000000000000000000000000018
:1049800000000000003F1010103F000001064080B2
:104990007F00000000000000000000000000000098
:1049A0000000000000F8010600F0121212F20202EC
:1049B00002FE0000000000000000000000000000F7
:1049C0000000000000FF0000001F1111111F004037
:1049D000807F0000000000000000000000000000D8
:1049E00000000000000000FE92929292929292FECD
:1049F00000000000000000000000000000000000B7
:104A00000000000040424458407F4040407F4050FA
:104A100048464000000000000000000000000000C8
:104A20000000000040404242424242C242424242F2
:104A300042404000000000000000000000000000B4
:104A400000000000201008060040807F00000002E7
:104A5000040830000000000000000000000000001A
:104A600000000000000000FE929292FE929292FEE0
:104A70000000000000000000000000000000000036
:104A80000000000008080484621E010001FE020408
:104A90000408080000000000000000000000000002
:104AA000000000000202E22222F22E2222E2222252
:104AB000E202020000000000000000000000000010
:104AC000000000000000FF40407F4949497F40400E
:104AD000FF000000000000000000000000000000D7
:104AE0000000000090523410FF10345280708F0884
:104AF00008F80800000000000000000000000000AE
:104B000000000000829A566322528E008040330CCF
:104B100033408000000000000000000000000000A2
:104B2000000000001010FF109000FE929292F2928E
:104B3000929E8000000000000000000000000000C5
:104B40000000000042827F0180601F00FC44474457
:104B500044FC000000000000000000000000000015
:104B6000000000000080609F0808F80000FF10208F
:104B70004080000000000000000000000000000075
:104B800000000000814020130C132020405F4040B3
:104B90004041400000000000000000000000000054
:104BA00000000000048484FC848400FE9292FE9243
:104BB00092FE000000000000000000000000000065
:104BC000000000002060201F1010404444447F4437
:104BD000444440000000000000000000000000000D
:104BE00000000000404042CC0040404040FF4040B8
:104BF00040404000000000000000000000000000F5
:104C0000000000000000007F2010000000FF0000F6
:104C10000000000000000000000000000000000094
:104C2000000000000804F35256525250545352569A
:104C3000F20202000000000000000000000000007E
:104C400000000000101097553D1515151515FD15A0
:104C5000171010000000000000000000000000001D
:104C60000000000080809E9292929EE0809EB2D2D0
:104C7000929E800000000000000000000000000084
:104C8000000000000808F4949292F10001F292945E
:104C900094F8080000000000000000000000000080
:104CA00000000000404042CC0040A09E8282829ED4
:104CB000A020200000000000000000000000000014
:104CC000000000000000003F908840432C10284660
:104CD0004180800000000000000000000000000093
:104CE00000000000001715D55557557D555755D56F
:104CF0001517000000000000000000000000000088
:104D0000000000004040407F555555555555557F92
:104D100040404000000000000000000000000000D3
:104D20000000000000FC848484FC001010101010AF
:104D3000FF10100000000000000000000000000054
:104D400000000000003F1010103F000001064080EE
:104D50007F000000000000000000000000000000D4
:104D60000000000000F8010600F0121212F2020228
:104D700002FE000000000000000000000000000033
:104D80000000000000FF0000001F1111111F004073
:104D9000807F000000000000000000000000000014
:104DA000000000001010D0FF9010804828090E0865
:104DB00028488800000000000000000000000000FB
:104DC00000000000040300FF00018080432C102C31
:104DD0004380800000000000000000000000000090
:104DE0000000000000020CE04020F84F4849FE4857
:104DF000484808000000000000000000000000001B
:104E00000000000004047F000000FF2222223F2255
:104E1000222220000000000000000000000000002E
:104E20000000000000F8012220222AF22222222281
:104E300002FE000000000000000000000000000072
:104E40000000000000FF00001F01017F09110F405A
:104E5000807F000000000000000000000000000053
:104E60000000000020102CE7242400F01010FF1098
:104E700010F0000000000000000000000000000032
:104E8000000000000101017F211100070202FF0262
:104E90000207000000000000000000000000000009
:104EA0000000000000FC040404FC040404FC0404EE
:104EB00004FC0000000000000000000000000000F2
:104EC00000000000007F282423202020202122220F
:104ED000227F000000000000000000000000000031
:104EE0000000000000FE0202F20202FE0000F800D4
:104EF00000FF0000000000000000000000000000B3
:104F0000000000008047201807081027C0000F404D
:104F1000807F000000000000000000000000000092
:104F200000000000404042CC00202222A262222247
:104F3000222000000000000000000000000000002F
:104F4000000000000040201F20444E4544444445DA
:104F5000464C40000000000000000000000000007F
:104F6000000000000804F352565252505453525657
:104F7000F20202000000000000000000000000003B
:104F800000000000101097553D1515151515FD155D
:104F900017101000000000000000000000000000DA
:104FA00000000000404042CC00808888FF8888FFD5
:104FB0008888800000000000000000000000000061
:104FC000000000000040201F2040504C4340405F44
:104FD0004040400000000000000000000000000011
:104FE0000000000040504E4848FF48484840F80044
:104FF00000FF0000000000000000000000000000B2
:105000000000000000003E0202FF12221E000F40BE
:10501000807F000000000000000000000000000091
:1050200000000000C8B88FE88888404848E85F481A
:1050300048484000000000000000000000000000A0
:1050400000000000081808FF040400020B1222D21E
:105050000A06000000000000000000000000000040
:1050600000000000101010FF902010E82724E43406
:105070002CE0000000000000000000000000000024
:10508000000000000242817F00848447241C071C2A
:105090002447840000000000000000000000000021
:1050A000000000000000C038E0000000203C2302A7
:1050B000022738200000000000000000000000006F
:1050C00000000000000000000000000000000000E0
:1050D00000000000000000000000000000000000D0
:1050E0000000000008F808080810E000203F202019
:1050F00020100F0000000000000000000000000071
:10510000000000000000000000000000000000009F
:10511000000000000000000000000000000000008F
:1051200000000000C03008080808380007182020D8
:105130002010080000000000000000000000000037
:10514000000000000000000000000000000000005F
:10515000000000000000000000000000000000004F
:10516000000000000000F888888888FF8888888808
:10517000F800000000000000000000000000000037
:105180000000000000001F080808087F8888888841
:105190009F80F00000000000000000000000000000
:1051A000000000000000FE0282828282FA82828277
:1051B00082820200000000000000000000000000E9
:1051C0000000000080601F40404040407F4040445D
:1051D00058404000000000000000000000000000F7
:1051E00000000000008060F80704E4A4A4BFA4A4A9
:1051F000E4040000000000000000000000000000C7
:1052000000000000010000FF40407F4A4A4A4A4A2D
:105210007F4040000000000000000000000000008F
:10522000000000004040424458C0407F40C0504809
:1052300046404000000000000000000000000000A8
:10524000000000008080402018070000003F404020
:105250004040780000000000000000000000000056
:105260000000000008F714549414F40480708F08B0
:1052700008F8080000000000000000000000000026
:10528000000000001D13115599513F914120130C4E
:10529000334080000000000000000000000000001B
:1052A000000000000000F888888888FF88888888C7
:1052B000F8000000000000000000000000000000F6
:1052C0000000000000001F080808087F8888888800
:1052D0009F80F000000000000000000000000000BF
:1052E0000000000000FE0222DA0600FE2222222236
:1052F000FE000000000000000000000000000000B0
:105300000000000000FF08100847407F4242424270
:105310007F4040000000000000000000000000008E
:10532000000000000004047454545556545454743E
:105330000404000000000000000000000000000065
:1053400000000000848341211D05050505057D81C0
:105350008185E30000000000000000000000000064
:105360000000000002028272020202FE0202824279
:1053700032020200000000000000000000000000F7
:105380000000000080814020100C0300030C10205E
:1053900040808000000000000000000000000000CD
:1053A0000000000040445465C664544400FC44447A
:1053B000C4424000000000000000000000000000A7
:1053C0000000000020124A827F020A92601F000043
:1053D000FF000000000000000000000000000000CE
:1053E0000000000000F80C0B0808F840308F080897
:1053F00008F80000000000000000000000000000AD
:1054000000000000007F212121217F000000438057
:10541000403F00000000000000000000000000000D
:1054200000000000108C4404E40495A64424148475
:1054300044940C0000000000000000000000000088
:105440000000000002027A414143427E4242424350
:10545000F800000000000000000000000000000054
:10546000000000000484E45C44C40002F2828282F2
:10547000FE8080000000000000000000000000002E
:105480000000000002017F10103F000808080848D3
:1054900088403F0000000000000000000000000005
:1054A000000000004042CC0000445454547F545447
:1054B0005444400000000000000000000000000014
:1054C0000000000000007F201000FF151515559505
:1054D0007F0000000000000000000000000000004D
:1054E0000000000088681FC80810C85452D11294E8
:1054F00008D01000000000000000000000000000C4
:1055000000000000091909FF0500FF1292FF005F6B
:10551000807F00000000000000000000000000008C
:1055200000000000000000000001E21CE00000009C
:10553000000000000000000000000000000000006B
:1055400000000000804020100C03000000030C301D
:10555000408080000000000000000000000000000B
:105560000000000000FC848484FC00101010101067
:10557000FF1010000000000000000000000000000C
:1055800000000000003F1010103F000001064080A6
:105590007F0000000000000000000000000000008C
:1055A0000000000000F8010600F0121212F20202E0
:1055B00002FE0000000000000000000000000000EB
:1055C0000000000000FF0000001F1111111F00402B
:1055D000807F0000000000000000000000000000CC
:1055E00000000000000000000000000000000000BB
:1055F00000000000000000000000000000000000AB
:10560000000000000000000000000000000000009A
:10561000000000000000000000000000000000008A
:10562000000000000000080808080808080808082A
:105630000800000000000000000000000000000062
:10564000000000001010101010101010101010109A
:10565000101010000000000000000000000000001A
:1056600000000000404042CC00808888FF8888FF0E
:10567000888880000000000000000000000000009A
:10568000000000000040201F2040504C4340405F7D
:10569000404040000000000000000000000000004A
:1056A0000000000040504E4848FF48484840F8007D
:1056B00000FF0000000000000000000000000000EB
:1056C0000000000000003E0202FF12221E000F40F8
:1056D000807F0000000000000000000000000000CB
:1056E00000000000C8B88FE88888404848E85F4854
:1056F00048484000000000000000000000000000DA
:1057000000000000081808FF040400020B1222D257
:105710000A06000000000000000000000000000079
:1057200000000000008060F807000000FF4020102B
:10573000080400000000000000000000000000005D
:1057400000000000010000FF000402013F40404053
:105750004040780000000000000000000000000051
:10576000000000000000000000FC0000007E80003F
:105770000000000000000000000000000000000029
:105780000000000000806018070000000000030C0B
:105790003040800000000000000000000000000019
:1057A00000000000404042CC00808888FF8888FFCD
:1057B0008888800000000000000000000000000059
:1057C000000000000040201F2040504C4340405F3C
:1057D0004040400000000000000000000000000009
:1057E0000000000040504E4848FF48484840F8003C
:1057F00000FF0000000000000000000000000000AA
:105800000000000000003E0202FF12221E000F40B6
:10581000807F000000000000000000000000000089
:1058200000000000C8B88FE88888404848E85F4812
:105830004848400000000000000000000000000098
:1058400000000000081808FF040400020B1222D216
:105850000A06000000000000000000000000000038
:1058600000000000008060F807000000FF402010EA
:10587000080400000000000000000000000000001C
:1058800000000000010000FF000402013F40404012
:105890004040780000000000000000000000000010
:1058A0000000000040404040404040FF4040404039
:1058B0004040400000000000000000000000000028
:1058C0000000000000000000000000FF00000000D9
:1058D00000000000000000000000000000000000C8
:1058E0000000000020202020202021222C20202029
:1058F0002020200000000000000000000000000048
:1059000000000000004020100C0300000001020411
:10591000186000000000000000000000000000000F
:1059200000000000404042CC00808888FF8888FF4B
:1059300088888000000000000000000000000000D7
:10594000000000000040201F2040504C4340405FBA
:105950004040400000000000000000000000000087
:105960000000000040504E4848FF48484840F800BA
:1059700000FF000000000000000000000000000028
:105980000000000000003E0202FF12221E000F4035
:10599000807F000000000000000000000000000008
:1059A00000000000C8B88FE88888404848E85F4891
:1059B0004848400000000000000000000000000017
:1059C00000000000081808FF040400020B1222D295
:1059D0000A060000000000000000000000000000B7
:1059E00000000000008060F807000000FF40201069
:1059F000080400000000000000000000000000009B
:105A000000000000010000FF000402013F40404090
:105A1000404078000000000000000000000000008E
:105A20000000000000040474545455565454547437
:105A3000040400000000000000000000000000005E
:105A400000000000848341211D05050505057D81B9
:105A50008185E3000000000000000000000000005D
:105A60000000000000FC8484FC404454654644640B
:105A7000544440000000000000000000000000004E
:105A800000000000003F10103F0000FF4949494955
:105A9000FF00000000000000000000000000000007
:105AA000000000004020F807F0A0904C5724A454B8
:105AB0004C8080000000000000000000000000009A
:105AC000000000000000FF001F80925249292412AC
:105AD00008000000000000000000000000000000BE
