:020000040800F2
:10000000E0050020A10100087B1C0008DD170008A6
:10001000791C0008AD0200080D2300080000000054
:100020000000000000000000000000000B1D0008A0
:10003000AF02000800000000091D00080D1D0008A7
:10004000BB010008BB010008BB010008BB010008A0
:10005000BB010008BB010008BB010008BB01000890
:10006000BB010008BB010008BB010008BB01000880
:10007000BB010008BB010008BB010008BB01000870
:10008000BB010008BB010008BB010008BB01000860
:10009000BB010008BB010008BB010008BB01000850
:1000A000BB010008BB010008BB010008BB01000840
:1000B000BB010008BB010008BB010008BB01000830
:1000C000BB010008BB010008BB010008BB01000820
:1000D000BB010008BB01000801230008BB010008A8
:1000E000BB010008BB010008BB010008BB01000800
:1000F000BB010008BB010008BB010008BB010008F0
:10010000BB010008BB010008BB010008BB010008DF
:10011000BB010008BB010008BB010008BB010008CF
:10012000BB010008BB010008BB010008BB010008BF
:10013000BB010008BB010008BB010008BB010008AF
:10014000BB010008BB010008BB010008BB0100089F
:10015000BB010008BB010008BB010008BB0100088F
:10016000BB010008BB010008BB010008BB0100087F
:10017000BB010008BB010008BB0100080000000033
:10018000BB010008BB010008DFF810D000F07CF8CC
:100190000048004785230008AFF30080E0050020F9
:1001A0000648804706480047FEE7FEE7FEE7FEE711
:1001B000FEE7FEE7FEE7FEE7FEE7FEE7A91D000813
:1001C000890100082DE9F05F0546002092469B4614
:1001D00088460646814640241BE02846414647465D
:1001E000224600F041F853465A46C01A914110D3B6
:1001F00011461846224600F028F82D1A67EB010830
:100200004F4622460120002100F01FF817EB00099D
:100210004E41201EA4F10104DFDC484631462A4647
:100220004346BDE8F09FD2B201E000F8012B491E21
:10023000FBD270470022F6E710B513460A46044683
:100240001946FFF7F0FF204610BD202A04DB203AB4
:1002500000FA02F1002070479140C2F1200320FA19
:1002600003F3194390407047202A04DB203A21FA17
:1002700002F00021704721FA02F3D040C2F12002BF
:100280009140084319467047064C074D06E0E06868
:1002900040F0010394E8070098471034AC42F6D3CD
:1002A000FFF776FF0C2400082C240008FEE77047B7
:1002B00072B6FEE72DE9F0410446876D00F066F95D
:1002C000064694F835000025022806D08020606597
:1002D00084F834500120BDE8F0812068016821F0E5
:1002E000160101602068416921F080014161206CA4
:1002F00008B9A06C20B12068016821F008010160F4
:100300002068016821F0010101600CE000F03EF975
:10031000801B052807D920206065032084F835005C
:1003200084F83450D7E720680068C007EED194F80D
:100330005C103F208840B860012084F8350084F8C4
:1003400034500020C7E790F83510022903D08021EF
:10035000416501207047052180F83510006801686B
:1003600021F00101016000207047000070B50446D3
:1003700000F00CF90546601C02D0044800780444E3
:1003800000F004F9401BA042FAD370BD0000002029
:100390002DE9F84FDFF8BCA10022012503264FF01C
:1003A0000F090AF1040BAAF1040E00BF0B6805FA4D
:1003B00002F42340A34270D10F7907F00307012F05
:1003C00001D0022F16D187684FEA420806FA08FCCE
:1003D00027EA0C07D1F80CC00CFA08FC4CEA070C11
:1003E000C0F808C04768A7430C79C4F300149440D0
:1003F0003C4344600C79E443A4070AD0C4684FEA44
:10040000420C06FA0CF7BC438F6807FA0CF7274337
:10041000C7600C7904F00304022C12D1D40800EB5D
:10042000840CDCF820405707FF0E09FA07F824EA8D
:100430000804D1F8108008FA07F848EA0408CCF854
:10044000208004684FEA420C06FA0CF7BC430F798F
:1004500007F0030707FA0CF7274307604C6814F40A
:10046000403F70D03C4C276847F4804727602468A1
:1004700022F0030704F480440094384C07EB040C8A
:10048000DCF8084897074FEA177809FA08F7BC43E1
:10049000334FB84202D1002724E054E0314FB84234
:1004A00001D101271EE0304FB84201D1022719E0E7
:1004B0002E4FB84201D1032714E02D4FB84201D18D
:1004C00004270FE02B4FB84201D105270AE02A4F3D
:1004D000B84201D1062705E0284FB84201D10727CD
:1004E00000E0082707FA08F72743CCF80878DAF87D
:1004F00000405746D1F804C09C435FEACC2C00D59D
:100500001C433C60DBF800405F46D1F804C09C43CC
:100510005FEA8C2C00D51C433C60DEF80040774637
:10052000D1F804C09C435FEA8C3C00D51C433C607E
:10053000084F083F3C68D1F804C09C435FEACC3CBC
:1005400000D51C433C60521C102AFFF42FAFBDE8BD
:10055000F88F0000083C0140443802400030014060
:10056000000002400004024000080240000C02406B
:10057000001002400014024000180240001C02401B
:100580000AB1816170470904FBE7000001488068F7
:10059000704700000000002070B5040025D094F8DA
:1005A0003D00002520B984F83C50204600F050F969
:1005B000242084F83D002068016821F001010160D9
:1005C0002068016841F4004101602068016821F45D
:1005D0000041016000F0A4FA4D4A6168914201D8DF
:1005E0004C4900E04C49884201D2012070BD4B4982
:1005F0002368B0FBF1F15E6826F03F060E435E60B3
:100600006368934206D94FF4967359434FF47A7353
:10061000B1FBF3F12368491C1E6A26F03F06314303
:1006200019626168914210D84900401EB0FBF1F296
:10063000521CC2F30B02042A01D2042022E0B0FBB8
:10064000F1F0401CC0F30B001CE0A268F2B301EB18
:10065000C10303EB0116431EB3FBF6F35B1C43F42B
:1006600080431B0549D092B301EBC10202EB01119B
:10067000401EB0FBF1F0401CC0F30B0040F4804082
:1006800040F400402168CA694CF6FF739A43104356
:10069000C861D4E9071001432068026822F0C00253
:1006A00011430160D4E9030101432068826848F2E4
:1006B000FF339A4311438160D4E90501084321685F
:1006C000CA6822F0FF021043C86001E00EE016E0A5
:1006D0002068016841F0010101602564202084F850
:1006E0003D00256384F83E50002070BD01EB4106BB
:1006F000431EB3FBF6F35B1CB3E70120C2E701EB3B
:100700004101401EB0FBF1F0401CC0F30B00B7E705
:10071000A086010080841E0000093D0040420F00B9
:100720002DE9FF4F83B09A46DDE9119793460446C1
:10073000DDF84080FFF72AFF054694F83D002028A9
:100740007FD11923012240492046009501F0DEF8AF
:10075000002876D194F83C00012872D0012084F85A
:100760003C0020680168C90703D1016841F001011C
:1007700001602068016821F400610160212084F893
:100780003D00402084F83E0000262664C4F8248002
:10079000A4F82A90608D20852C48E062CDE9007590
:1007A00053465A462046049901F030F870B930E0BB
:1007B0002A463946204601F04FF958B1206C0428EA
:1007C00004D12068016841F400710160012007B084
:1007D000BDE8F08F606A216800780861606A401C9B
:1007E0006062218D491E89B22185628D521E62850B
:1007F00022685369DB435B070BD469B10078106151
:10080000606A401C6062208D401E2085608D401E05
:100810006085208D0028CBD12A463946204601F03C
:1008200049F80028CAD154F83D0B016841F4007121
:100830000160202004F81E09E67766770020C6E7ED
:10084000FFE70220C3E70000020010000000FFFFE6
:1008500010B586B0044614216846FFF7EBFC134937
:100860002068884220D112480021026842F002022A
:100870000260006800F002000590C0200090122085
:10088000CDE9010103200390042004906946094842
:10089000FFF77EFD06481030016841F40011016049
:1008A000006800F40010059006B010BD0054004030
:1008B0003038024000040240024881680278114446
:1008C00081607047000000200B4810B5016841F4BA
:1008D00000710160016841F480610160016841F4C8
:1008E00080710160032000F06FF80F2000F006F81F
:1008F00000F024F8002010BD003C024070B50D4D02
:1009000004464FF47A712878B1FBF0F00A4909687F
:10091000B1FBF0F000F00AFB48B9102C07D200221E
:100920002146501E00F030F800206C6070BD0120A0
:1009300070BD0000000000200C0000200A4808B52F
:10094000016841F480410160006800F4804000903B
:100950000548001F016841F080510160006800F007
:100960008050009008BD000044380240002809DB98
:1009700000F01F02012191404009800000F1E020B9
:10098000C0F8001170470000F0B40E4B1B680C4615
:10099000C3F30223C3F10705042D00D90425191D53
:1009A000072901D2002300E0DB1E012606FA05F12B
:1009B000491E214099409E40761E16403143F0BCAE
:1009C00001F0C0BC0CED00E0064900F00702086829
:1009D0004FF6FF03184040EA0220034A1043086024
:1009E000704700000CED00E00000FA052DE9F0472B
:1009F0000E46050065D0DFF81481D8F80000F7B284
:100A000000F00700B04207D288F80070D8F8000064
:100A100000F00700B04254D128683D4C810712D540
:100A2000400703D5206840F4E05020602878000794
:100A300003D5206840F4604020602068A96820F059
:100A4000F000084320602878C0072DD0304968683E
:100A50000839012812D0022813D0032811D00968C0
:100A6000890700292DDA216821F003010143216063
:100A7000FFF78CFD814641F2883A0EE00968890350
:100A8000EFE709688901ECE7FFF780FDA0EB0901BA
:100A9000514502D90320BDE8F0872068696800F05D
:100AA0000C00B0EB810FEFD1D8F80010404601F0F8
:100AB0000701B14207D90770006800F00700B04293
:100AC00001D00120E7E72878400705D52068E968CC
:100AD00020F4E050084320602878000706D52068FD
:100AE000296920F4604040EAC100206000F038F835
:100AF0002168084AC1F30311515CC84006490860E7
:100B000006480068FFF7FAFE0020C4E7003C0240F8
:100B100008380240F42300080C00002004000020E4
:100B20000448054900680968044AC1F38221515C00
:100B3000C84070470C000020083802400424000818
:100B40000448054900680968044AC1F34231515C10
:100B5000C84070470C0000200838024004240008F8
:100B6000154810B5006810F00C02144813D041105D
:100B7000042A0FD0082A0ED10F4C241F22682368A4
:100B800002F03F025B0207D52068C0F38810A0FB8B
:100B9000010106E0084610BD2168C1F38811A1FBE0
:100BA00000010023FFF70EFB2168C1F30141491C3E
:100BB0004900B0FBF1F010BD083802400024F400F9
:100BC0002DE9F84F04006ED02078DFF84C93C00771
:100BD000A9F104054AD009F104000168C1F38101BB
:100BE000012908D00068C0F3810002280AD1D9F891
:100BF0000000400206D52868800337D560680028C9
:100C0000E1D033E06068B0F5803F10D0B0F5A02FA0
:100C1000286810D020F480302860286820F48020D4
:100C200028606068A8B1FFF7B1FC06460DE02868AF
:100C300040F48030F4E740F480202860F7E700BFFC
:100C4000FFF7A4FC801B642873D828688003F7D5BD
:100C50000CE0FFF79BFC064605E000BFFFF796FCA3
:100C6000801B6428F0D828688003F7D42078DFF848
:100C7000AC8280074FF0000A3ED5A748001D0168EE
:100C800011F00C0F08D00068C0F3810002280BD1CE
:100C9000D9F80000400207D42868800716D5E0681C
:100CA000012800D112E033E1E068B8B10120C8F8B2
:100CB0000000FFF76BFC064605E000BFFFF766FC8F
:100CC000801B0228C0D828688007F7D528682169CA
:100CD00020F0F80040EAC10028600DE0C8F800A04C
:100CE000FFF754FC064604E0FFF750FC801B022887
:100CF0001FD828688007F7D42078000722D5864FB0
:100D000087486169703771B101210160FFF73EFCCE
:100D1000064604E0FFF73AFC801B022809D8386831
:100D20008007F7D50EE0C0F800A0FFF72FFC0646BD
:100D300005E082E0FFF72AFC801B02287DD8386896
:100D40008007F7D42078400768D5DFF8CCB10027BA
:100D50000BF13C0BDBF80000C0000BD4DBF80010FB
:100D600041F08051CBF80010DBF80000012700F0C3
:100D7000805000906B4E3068C00510D4306840F44D
:100D800080703060FFF702FC009005E0FFF7FEFB8B
:100D90000099401A022850D83068C005F6D55E4E3A
:100DA000A0686C3601280FD00528306810D020F0DC
:100DB00001003060306820F004003060A068B8B1F5
:100DC000FFF7E4FB00900FE0306840F00100F4E72B
:100DD00040F004003060F7E7FFF7D8FB0099411AB4
:100DE00041F28830814266D830688007F4D50EE041
:100DF000FFF7CCFB009007E0FFF7C8FB0099411A12
:100E000041F28830814256D830688007F4D42FB13F
:100E1000DBF8001021F08051CBF80010A069C8B3B6
:100E20003D49091D0968C1F3810102294AD0022800
:100E3000504607D0C8F8600000E03CE0FFF7A6FB92
:100E400004463BE04746C8F86000FFF79FFB0646B4
:100E500005E000BFFFF79AFB801B02282BD828680B
:100E60008001F7D4D4E907010843A16A2E4A490852
:100E700002EB0141626A41EA8211084394F82C10A6
:100E800040EA0161C9F8001001203866FFF77EFBD7
:100E9000044606E03EE000BFFFF778FB001B022897
:100EA00009D828688001F7D534E000BFFFF76EFB52
:100EB000001B022802D90320BDE8F88F28688001B2
:100EC000F4D427E00128F7D0D9F80000E26900F453
:100ED000800191421CD1226A00F03F01914217D15A
:100EE00047F6C071626A0140B1EB821F10D1A26A5D
:100EF0004FF0FF3300F4403103EB5202B1EB024FED
:100F000006D194F82C1000F07060B0EB016F01D0A6
:100F10000120D1E70020CFE704380240000047421B
:100F2000800E4742007000400000FFFF10B5401ED9
:100F3000B0F1807F01D3012010BD4FF0E02460614B
:100F40000F21601701F0FEF90020A0610720206149
:100F5000002010BD70B590F83C20012A32D0012449
:100F600080F83C40022280F83D2003685A689D6862
:100F700022F070060A6832435A60134B02689A42A4
:100F800014D0B2F1804F11D0104B9A420ED0104BBA
:100F90009A420BD00F4B9A4208D00F4B9A4205D081
:100FA0000E4B9A4202D00E4B9A4204D1496825F06A
:100FB00080031943916080F83D40002180F83C1087
:100FC000084670BD022070BD0000014000040040D2
:100FD00000080040000C00400004014000400140B7
:100FE0000018004010B5040003D094F83D0010B183
:100FF00007E0012010BD002084F83C00204600F0EE
:101000001FF8022084F83D00211D206800F0D4FE66
:10101000012084F8460084F83E0084F83F0084F8FC
:10102000400084F8410084F8420084F8430084F8CA
:10103000440084F8450084F83D00002010BD000005
:1010400008B50068B0F1804F08D10548016841F04B
:1010500001010160006800F00100009008BD00007F
:101060004038024070B5044690F83C000025012845
:1010700017D0012684F83C60022084F83D002068E7
:10108000826822F0770222F47F428260086850284A
:1010900038D00DDC20284FD005DC90B3102811D1BA
:1010A0004AE0022070BD302846D040280AD13BE0FB
:1010B00060282FD070280DD0B0F5805F03D0B0F538
:1010C000005F12D0012584F83D60002084F83C00C8
:1010D000284670BDCB68D1E90121206800F0E5FE0B
:1010E0002068816841F0770109E0CB68D1E90121EE
:1010F000206800F0DAFE2068816841F48041816058
:10110000E1E719E0CA684968206800F0A3FF5021B0
:10111000206806E0CA684968206800F0ACFF6021DA
:10112000206800F0CCFECEE7CA684968206800F06D
:1011300091FF40212068F4E7226801461046F0E75D
:1011400010B586B0044614216846FFF773F820688E
:10115000B0F1804F15D10C480021026842F0010225
:101160000260006800F0010005900320009002205A
:10117000CDE901010120CDE9031069460348FFF7DD
:1011800007F906B010BD00003038024000000240F0
:1011900070B5044690F83C0000260D4601280FD09B
:1011A000012084F83C006AB1042A1DD0082A2FD0FF
:1011B0000C2A3FD00126002084F83C00304670BD48
:1011C000022070BD206800F083FE2068816941F034
:1011D000080181612068816921F004018161206832
:1011E00081692A69114311E0206800F0A1FE20689E
:1011F000816941F4006181612068816921F4806125
:101200008161206881692A6941EA02218161D2E70E
:10121000206800F0C3FE2068C16941F00801C16187
:101220002068C16921F00401C1612068C1692A698F
:10123000114311E0206800F0E5FE2068C16941F427
:101240000061C1612068C16921F48061C1612068C9
:10125000C1692A6941EA0221C161ACE710B5040005
:1012600003D094F83D0010B107E0012010BD00202C
:1012700084F83C00204600F01EF8022084F83D006F
:10128000211D206800F098FD012084F8460084F8B4
:101290003E0084F83F0084F8400084F8410084F860
:1012A000420084F8430084F8440084F8450084F840
:1012B0003D00002010BD704710B50446022249B120
:1012C00004290ED0082913D094F84100012816D023
:1012D000012010BD94F83E000128F9D184F83E2089
:1012E0000FE094F83F000128F2D184F83F2008E095
:1012F00094F840000128EBD184F8402001E084F804
:1013000041200122206800F0C3FD16492068164ADA
:10131000884201D0904203D1436C43F400434364BC
:101320002068884213D0B0F1804F10D00F49884216
:101330000DD00F4988420AD00E49884207D090420A
:1013400005D00D49884202D00C49884204D18168F9
:1013500001F00701062903D0016841F00101016095
:10136000002010BD000001400004014000040040C6
:1013700000080040000C0040004001400018004000
:1013800070477047F8B5016804460868CA684B6939
:1013900010F00F0F4FF0000559D003F0010602F4D2
:1013A0009077374365D0C10705D0D10503D5616C6F
:1013B00041F001016164410705D5D90703D0616C93
:1013C00041F002016164810705D5D90703D0616C42
:1013D00041F004016164010707D502F020013143A7
:1013E00003D0616C41F008016164616C00293AD05E
:1013F000800604D5900602D5204600F07DFE2068C8
:101400004069616CC0F38010090700D460B32046C6
:1014100000F04BFE20684069400621D5206814305A
:1014200050E8001F21F0400140E80012002AF5D1E9
:10143000E06BA8B16E490165E06BFEF784FF002800
:1014400011D0E06B016D01B0BDE8F04008478306A4
:101450000FD593060DD52046BDE8F84000F04CBEF0
:101460002046FFF78EFFF8BD2046FFF78AFF656430
:10147000F8BD266B2023012E7DD1C6067BD5D6066E
:1014800079D508684868009048694FF00206400620
:1014900041D5E16B086840680004000CE8D0A28DDB
:1014A0008242E5D9E085C869B0F5807F2DD02068FB
:1014B0000C3050E8001F21F4807140E80012002A2F
:1014C000F5D12068143050E8001F21F0010140E8F8
:1014D0000012002AF5D12068143050E8001F21F0D6
:1014E000400140E80012002AF5D184F8423025631B
:1014F00020680C3050E8001F21F0100140E8001275
:10150000002AF5D1E06BFEF7D5FE6663A08DE18D74
:10151000401A81B22AE0A08DE18D401A81B2E08D9F
:101520000028A5D00029A3D022680C3252E8000F71
:1015300020F4907042E80007002FF5D120681430A5
:1015400050E8002F22F0010240E80027002FF5D1DB
:1015500084F84230256320680C3050E8002F22F0D8
:10156000100240E80023002BF5D166632046FFF708
:1015700007FFF8BDFFE705062BD5150629D594F81A
:1015800041002128F5D1A068B0F5805F01D1206924
:10159000B0B1206A411C2162216800784860E08C6B
:1015A000401E0004000CE084E3D12068C16821F0F3
:1015B0008001C1602068C16841F04001C160D8E786
:1015C000206A0088C0F308004860206A801C2062FE
:1015D000E5E74006CDD55006CBD5CA68204622F0B7
:1015E0004002CA6084F8413000F0CCF8C1E7000046
:1015F0009B20000870B5040004D094F84100002539
:1016000010B106E0012070BD84F84050204600F083
:1016100023F8242084F841002068C16821F4005197
:10162000C160204600F0CAFD2068016921F49041A4
:1016300001612068416921F02A0141612068C16887
:1016400041F40051C1606564202084F8410084F8B1
:1016500042006563002070BD10B586B004461421B9
:101660006846FEF7E7FD17492068884228D11648EA
:101670000021026842F400320260006800F4003089
:10168000059011481038026842F0010202600068BB
:1016900000F0010005900C2000900220CDE901012E
:1016A000032003900720049069460848FEF770FE67
:1016B000002211462620FFF767F92620FFF756F98A
:1016C00006B010BD00440040403802400000024017
:1016D00090F84230202B01D00220704721B11AB17E
:1016E0000023036300F0F0BD0120704770B522496C
:1016F000884239D1214C22480025217811B1012995
:1017000010D006E0618862784254491C6180012053
:1017100020706088C7281ED9C8211948FEF78AFDA5
:10172000658021E0618862784254491C0904090CF3
:10173000618003D110F8012C122A15D10844C82168
:1017400010F8020C3038606065800D48FEF772FDBD
:101750000220207002E02078022805D16580C8218F
:101760000748FEF767FD2570BDE870400349012278
:10177000491C0148FFF7ACBFD0000020100000203A
:10178000180100207047000030B587B0142168466A
:10179000FEF750FD0F480024016841F0010101608F
:1017A00000680D4D00F001000590402000900120E0
:1017B000CDE901040220039069462846FEF7E8FDC2
:1017C0008020CDE90004694628460294FEF7E0FD3A
:1017D00007B030BD3038024000000240FEE701682B
:1017E0004A69D24352050FD46FF480624A610021E6
:1017F00040F8301F202242738173026942F00402D4
:101800000261017301207047002070472DE9F84301
:10181000044600680D46DDE90897016898461646BB
:1018200041F4807101604B4600224FF001112046C7
:10183000009700F06BF848B120680068C00502D539
:101840004FF4007020640320BDE8F883216805F0A0
:10185000FE0008613B464A461549204600F09EF8C6
:1018600088B920684169806900903A464946204617
:1018700000F0F2F848B1206C042804D12068016817
:1018800041F4007101600120DEE7F5B2B8F1010F0B
:1018900009D02168300A08613A464946204600F0DE
:1018A000DBF80028E7D1206805610020CCE70000C4
:1018B0000200010070B516460D4604461EE02046A3
:1018C000FFF78DFF08B1012070BD681C16D0FEF730
:1018D0005DFE801BA84200D885B920684069C043DE
:1018E00040070BD5002044F8300F20216173A0730E
:1018F000216941F0200121612073E4E720684069FB
:10190000C0434007DBD4002070BD00002DE9F04744
:10191000984617460D460446C1F30746DDF8209069
:101920002AE000BFB8F1FF3F26D0FEF72FFEA0EB64
:101930000901414502D8B8F1000F1DD12068012EE0
:1019400016D0806925EA00000004000C12D00020A7
:10195000B84211D1002044F8300F20216173A073E8
:10196000216941F02001216120730120BDE8F08749
:101970004069E7E70120EBE72068012E0AD0806983
:1019800025EA00000004000C06D00020B842C9D0AF
:101990000020EBE74069F3E70120F7E72DE9F04786
:1019A000984616460D4604464FF000094FF0200AAF
:1019B000C1F3074723E020684069C043400515D4C0
:1019C0002068016841F40071016021686FF4806053
:1019D0004861C4F8309084F83DA084F83E90216CB2
:1019E00041F00401216484F83C9021E0701C06D091
:1019F000FEF7CCFDA0EB0800B04203D816B1012FD2
:101A00001FD021E02068012F15D0806925EA000051
:101A10000004000C18D000BF44F8309F84F80DA0DB
:101A200084F80E90216941F02001216184F80C9026
:101A30000120BDE8F087406925EA00000004000CA1
:101A4000EAD12068406901E02068806925EA000049
:101A50000004000CAFD1ECE770B516460D46044605
:101A60001EE02046FFF7BBFE08B1012070BD681CD8
:101A700016D0FEF78BFD801BA84200D885B92068E0
:101A80004069C04300060BD5002044F8300F2021E8
:101A90006173A073216941F0200121612073E4E7A3
:101AA00020684069C0430006DBD4002070BD000000
:101AB00070B586B014216846FEF7BCFB24480024AC
:101AC000016841F010010160016801F01001059109
:101AD000016841F080010160016801F08001059119
:101AE000016841F001010160016801F00101059107
:101AF000016841F0020101600068164E00F002002A
:101B00000590002241F270013046FEF739FD302089
:101B100000900125CDE90154694630460394FEF753
:101B200037FC4FF48250CDE900050220CDE9024098
:101B300069463046FEF72CFC4FF40860CDE90004FE
:101B4000694630460294FEF723FC06B070BD0000E3
:101B500030380240000002400D4810B50B490160CA
:101B60000C49416000214FF480428160C0E90312BA
:101B700041618161C1610162FEF70EFD002803D061
:101B8000BDE81040FEF794BB10BD000000540040BB
:101B900034000020A086010010B58EB00024079408
:101BA000089409940A940B941C2168460C94FEF73F
:101BB00041FB22484FF0804101604821C0E90114F7
:101BC00042F20F71C0E903148461FFF70BFA08B108
:101BD000FEF76EFB4FF48050079007A91748FFF7F8
:101BE00041FA08B1FEF764FB1448FFF737FB08B170
:101BF000FEF75EFB0B940BA910480C94FFF7AAF9B3
:101C000008B1FEF755FB6020CDE9000402940022E4
:101C100069460A480494FFF7BBFA08B1FEF748FB8F
:101C2000042269460548FFF7B3FA08B1FEF740FB06
:101C30000248FFF785FA0EB010BD000088000020B2
:101C40000C4810B50A4901604FF4E13141600021B0
:101C500081600C22C160C0E904128161C161FFF79B
:101C6000C9FC002803D0BDE81040FEF721BB10BD21
:101C700000440040D0000020FEE7FEE770B50024DD
:101C800004F1B000C0B200F01BF8002000F018F81A
:101C9000102000F015F80025002000F023F86D1C3E
:101CA000EDB2802DF8D3641CE4B2082CE8D370BDEB
:101CB00010B5C820FEF75AFBBDE8104000F028BB65
:101CC00001B584B001214FF4807204A88DE80700AB
:101CD0000B46002278210248FEF722FD05B000BD28
:101CE0003400002001B584B001214FF4807204A8B3
:101CF0008DE807000B46402278210248FEF710FDD0
:101D000005B000BD3400002070477047FEF7D4BD19
:101D100030B593B030216846FEF78CFA14210CA838
:101D2000FEF788FA1E480025016841F080510160E5
:101D3000006800F0805011901A48016841F4804119
:101D400001600068022400F480401190012000909E
:101D5000000401908001CDE90640082008904FF46E
:101D6000A870CDE9090404200B906846FEF728FF0F
:101D700008B172B6FEE70CA90F2081E831004FF4DC
:101D8000A0500F904FF48050109005210CA8FEF742
:101D90002DFE002801D072B6FEE713B030BD000062
:101DA00040380240007000400248016841F4700170
:101DB0000160704788ED00E0F0B50268294C2A4DBB
:101DC0002A4E2B4F2B4B4FF0804CA04209D0604540
:101DD00007D0A84205D0B04203D0B84201D0984203
:101DE00004D122F0700E4A6842EA0E02A0421BD0D3
:101DF000604519D0A84217D0B04215D0B84213D0D0
:101E0000984211D01C4DA8420ED01C4DA8420BD0B8
:101E10001B4DA84208D01B4DA84205D01A4DA84220
:101E200002D01A4DA84203D122F44075CA682A4351
:101E30004D6922F080022A4302608A68C2620A6801
:101E40008262A04201D0984201D109690163012157
:101E500041610169C90703D0016921F001010161F4
:101E6000F0BD0000000001400004004000080040F8
:101E7000000C0040000401400040014000440140CB
:101E80000048014000180040001C004000200040B5
:101E900010B501F01F030121046A99408C430462CC
:101EA000016A9A401143016210BD10B5846842EA8C
:101EB000032224F47F440A432243826010BD8268D7
:101EC00022F070020A4342F007018160704700006F
:101ED000F0B5036A026A22F0010202624268846974
:101EE000124E24F073050C682C4323F002058B6816
:101EF0002B430D4DA84201D0B04205D123F0080775
:101F0000CB683B4323F00403A84201D0B04205D183
:101F10004D6922F4407215438A692A434260846104
:101F2000496841630362F0BD0000014000040140C4
:101F3000F0B5026A036A23F0100303624368846900
:101F40000D6824F4E64444EA05248D6822F020025A
:101F500042EA05120F4D104EA84201D0B04206D100
:101F6000CF6822F0800242EA071222F04002A84223
:101F700001D0B04207D14D6923F4406343EA8503A1
:101F80008D6943EA85034360846149688163026225
:101F9000F0BD00000000014000040140F0B5026AFD
:101FA000036A23F4807303624368C46922F40072F5
:101FB00024F073050C68124E2C438D6842EA05220A
:101FC0000E4DA84201D0B04206D1CF6822F4006283
:101FD00042EA072222F48062A84201D0B04207D12F
:101FE0004D6923F4405343EA05138D6943EA051311
:101FF0004360C4614968C1630262F0BD00000140F2
:102000000004014030B5046A026A22F48052026280
:102010004268C3690D6823F4E64343EA05238D68EB
:1020200024F4005444EA0534084DA84202D0084D77
:10203000A84204D14D6922F4804242EA85124260EE
:10204000C36149680164046230BD000000000140C2
:102050000004014010B5036A046A24F0010404621C
:10206000846924F0F00444EA021423F00A020A43CB
:102070008461026210BD10B5036A046A24F0100482
:102080000462846923F0A00324F4704444EA023219
:1020900043EA01118261016210BD10B5806B00211D
:1020A000C185C184FFF76DF910BD01680C3151E89D
:1020B000002F22F4907241E80023002BF5D1016833
:1020C000143151E8002F22F0010241E80023002BD7
:1020D000F5D1016B012909D101680C3151E8002FBC
:1020E00022F0100241E80023002BF5D1202180F8D6
:1020F000421000210163704708B590F84210222970
:1021000001D0022008BD82684FF480539A4201D169
:10211000016921B1816A9A421BD04AB10AE0026882
:10212000816A5268C2F308020A80816A891C08E049
:10213000026972B10268526802F07F020A70816A15
:10214000491C8162C18D491E0904090CC18503D057
:102150001BE002685268F1E70168CA6822F02002B9
:10216000CA600168CA6822F48072CA6001684A695C
:1021700022F001024A61202180F8421000214163CF
:10218000026B012A03D0FFF7B1FA002008BD0163FA
:1021900001680C3151E8002F22F0100241E80023C1
:1021A000002BF5D101680A68D20602D50A68496891
:1021B0000091818DFFF7E4F8E7E7000070B5044671
:1021C00000680169E26821F440511143016121690D
:1021D000A068E26908436169114308432168CA683D
:1021E00049F20C639A430243CA6020684169A269BC
:1021F00021F440711143416131492068884202D085
:102200003049884202D1FEF79BFC01E0FEF788FCD2
:10221000E2690023192164253226B2F5004F626875
:1022200028D0A0FB0101930F9200FDF7CBFF0146E0
:10223000B0FBF5F06FF01802504301EB800006EBA5
:102240000010B0FBF5F000F0F002B1FBF5F002EB8E
:102250000012B1FBF5F06FF01803584301EB80005A
:1022600006EB0010B0FBF5F000F00F002168104401
:10227000886070BDA0FB010192185B41FDF7A2FFD1
:102280000146B0FBF5F00201B1FBF5F06FF0180369
:10229000584301EB800006EBC000B0FBF5F000F006
:1022A000F80002EB4002B1FBF5F0584301EB80006F
:1022B00006EBC000B0FBF5F000F00700D6E7000029
:1022C000001001400014014081628285C285002116
:1022D0004164222180F84210016921B10168CA6875
:1022E00042F48072CA6001684A6942F001024A61A0
:1022F0000068C16841F02001C16000207047000003
:102300000148FFF73FB80000D0000020FEE70000C2
:10231000FEB50024094F4FF4807501263819CDE928
:10232000000601230022782102950548FEF7F8F9FE
:10233000641CE4B21B2CF1D3FEBD00001800002089
:10234000340000200907090E002804DB00F1E0201A
:1023500080F80014704700F00F0000F1E02080F8D2
:10236000141D704702E008C8121F08C1002AFAD1E4
:1023700070477047002001E001C1121F002AFBD105
:1023800070470000FEF7A0FAFFF7C2FCFFF790FBD2
:10239000FFF756FCFFF7E0FBFFF7FEFBFFF788FCBB
:1023A000FFF7F2F9FFF76AFC01220E490E48FFF72A
:1023B0008FF900210D48FEF77FFF04210B48FEF73F
:1023C0007BFF0A4840F6B83102689163006841F229
:1023D00094114163064C012210212046FEF7D0F8EB
:1023E000F9E7000011000020D00000208800002044
:1023F0000000024000000000000000000102030491
:102400000607080900000000010203042C2400084C
:10241000000000203400000064230008602400084D
:1024200034000020AC050000742300080100000007
:1024300010000000000000000024F4000000000074
:1024400000000000AE001040B081FFA1A6A83FC868
:10245000D300D580D805D9F1DA12D8308D14AF0069
:040000050800018965
:00000001FF
