:020000040800F2
:10000000F00500204501000823280008712500089C
:1000100021280008AD0900089D2E000800000000FE
:100020000000000000000000000000004728000859
:10003000AF09000800000000452800084928000812
:100040005F0100085F0100085F0100085F01000810
:100050005F0100085F0100085F0100085F01000800
:100060005F0100085F0100085F0100085F010008F0
:100070005F0100085F0100085F0100085F010008E0
:100080005F0100085F0100085F0100085F010008D0
:100090005F0100085F0100085F0100085F010008C0
:1000A0005F0100085F0100085F0100085F010008B0
:1000B000F92800085F0100085F0100085F010008DF
:1000C0005F0100085F0100085F0100085F01000890
:1000D0005F010008912E00085F0100085F01000821
:1000E0005F0100085F0100085F0100085F01000870
:1000F0005F0100085F0100085F0100085F01000860
:100100005F0100085F0100085F0100085F0100084F
:100110005F0100085F0100085F0100085F0100083F
:100120005F0100085F0100085F0100085F0100082F
:10013000DFF80CD000F0CAFB004800478D370008FC
:10014000F00500200648804706480047FEE7FEE726
:10015000FEE7FEE7FEE7FEE7FEE7FEE7FEE7FEE777
:10016000B128000831010008202A04DB203A21FAD6
:1001700002F00021704721FA02F3D040C2F12002C0
:100180009140084319467047D2B201E000F8012BB4
:10019000491EFBD270470022F6E710B513460A4607
:1001A00004461946FFF7F0FF204610BDF0B480EA80
:1001B0000102D40F4200B2EB410F02D202460846C0
:1001C00011464A0042D0C30DDDB2C1F3C752AD1A89
:1001D000202D35DAC1F3160141F4000204B1524278
:1001E000C5F1200602FA06F12A411044B3EBD05FB4
:1001F00023D0C4B1012DA0EBC35009DCF0BC4FF0FB
:10020000004202EAC352DBB200F5000000F0C1B9BF
:10021000400000F1807000EBC350A0F1807040EA14
:10022000D170490009E0490841EAC071A0EBC35010
:1002300000F50000400800EBC350F0BC00F0A0B98E
:100240006142012202EB4101001BF6E7F0BC70475E
:1002500081F00041AAE780F00040A7E780EA0102B0
:1002600010B502F00043400022D04A001FD0010E1A
:1002700001EB1261C0F35600C2F3560240F40000D5
:1002800042F40002A0FB022000047F39140400D0D5
:10029000401C50EA124001D44000491EC2B20C0674
:1002A00004EBD010401C4008802A02D003E000205C
:1002B00010BD20F00100002900DA0020184310BD15
:1002C0002DE9FE4F804681EA0300C00F0C460090E6
:1002D00021F0004123F00045B8EB0200A94105D20E
:1002E0004046214690461C460B46024623F00040FD
:1002F000104347D0270DC7F30A00C3F30A510290F9
:10030000401A019040286BDAC3F3130040F4801BBD
:100310000098924620B10023D2EB030A63EB0B0B4B
:1003200001985946C0F14002504600F008F90646CF
:100330000D4650465946019A00F010F910EB08009E
:100340006141002487EA115284EAE7731A4340D0DE
:10035000009A62B3019A012A4FEA075215DC001B8A
:1003600061EB02014FF0004202EA0752CDE9004280
:10037000001C41F5801132462B4600F047F903B0CE
:10038000BDE8F08F40462146F9E7001B61EB020112
:10039000001C41F5801300185B412018A2F50017DE
:1003A00047EB030140EAD570B6196D4111E06D08C5
:1003B0004FEA360645EAC0754FEA0752001B61EB6B
:1003C0000201001C41F5801149084FEA3000001974
:1003D000514132462B4603B0BDE8F04F00F007B95B
:1003E0000098012240000023D0EB020263EBE0738F
:1003F000009821464FEAE074B8EB000061EB04017D
:10040000E9E783F000435BE781F0004158E7C10F63
:1004100080EAE0700844CA079623002100F0B9B8CA
:1004200000F0004220F00040C10DC0F3160040F47F
:1004300000007F2901DA00207047962903DCC1F112
:100440009601C84001E096398840002AF4D0404225
:10045000704700F0004230F000400AD0C10D01F5B5
:100460006071C0F3160042EA0151C208400711430F
:10047000704700200146704701F0004330B421F07E
:10048000004150EA010206D00A0DA2F56072C1F3E4
:100490001301002A02DC30BC00207047440F44EAFC
:1004A000C104C100E01830BC00EBC25000F068B8D5
:1004B00030B50B46014600202022012409E021FA34
:1004C00002F59D4205D303FA02F5491B04FA02F531
:1004D0002844151EA2F10102F1DC30BD2DE9F05FC8
:1004E0000546002092469B468846064681464024A3
:1004F0001BE02846414647462246FFF735FE534655
:100500005A46C01A914110D311461846224600F0AF
:1005100016F82D1A67EB01084F46224601200021EC
:1005200000F00DF817EB00094E41201EA4F1010464
:10053000DFDC484631462A464346BDE8F09F202A84
:1005400004DB203A00FA02F1002070479140C2F12A
:10055000200320FA03F3194390407047202A06DB5A
:10056000CB17203A41FA02F043EAE07306E041FA81
:1005700002F3D040C2F1200291400843194670476F
:100580000029A8BF7047401C490008BF20F00100A7
:10059000704710B4B0FA80FC00FA0CF050EA010485
:1005A00004BF10BC704749B1CCF1200421FA04F417
:1005B00011FA0CF118BF012121430843A3EB0C01F0
:1005C000CB1D4FEA00614FEA102042BF002010BC53
:1005D000704700EBC35010440029A4BF10BC704703
:1005E000401C490008BF20F0010010BC704710B546
:1005F000141E73F1000408DA401C41F10001921846
:100600005B411A4301D120F0010010BD2DE9F04DEE
:1006100092469B4611B1B1FA81F202E0B0FA80F243
:1006200020329046FFF78BFF04460F4640EA0A004F
:1006300041EA0B0153465A46084313D0114653EA88
:10064000010019D0C8F140025046FFF78DFD054664
:100650000E46504659464246FFF771FF084305D003
:10066000012004E020463946BDE8F08D0020054316
:1006700046EAE0762C4337430A986305E40AA0EB88
:1006800008000022FD0A44EA47540A3002D500203F
:100690000146E9E7010510196941DDE9084500193E
:1006A0006941BDE8F04DA2E72DE9FE4F81EA030460
:1006B00004F0004421F0004100944FF0000B23F0BF
:1006C000004350EA01045ED052EA03045BD0C3F356
:1006D0000A54C1F30A552C44A4F2F3340194A0FB4C
:1006E0000254C1F3130141F48011C3F3130343F423
:1006F000801301FB024400FB034E840A970A44EA7C
:10070000815447EA8357A4FB076802958D0A05FBCD
:1007100007854FEA932C04FB0C542705029D4FEAF2
:10072000065847EA1637B5EB08056EEB070C870E3F
:10073000920E47EA811742EA8312A7FB0201B6EB49
:100740000B0164EB00042B0D43EA0C335E1844EB01
:100750001C50DA465146E7FB0201C5F313044FEA89
:100760000B3343EA14534FEA0432019C43EA060375
:10077000A4F10C040294009CCDE900B4FFF746FFFD
:1007800003B0BDE8F08F00200146F9E72DE9F04DF8
:1007900081EA030404F0004B21F0004514464FF0B9
:1007A000000A23F0004150EA050220D054EA010279
:1007B0001DD0C5F30A570246C5F31303C1F3130056
:1007C000C1F30A5640F4801543F48013A7EB0608E2
:1007D000101BD64608F2FD3873EB050002D308F172
:1007E000010801E092185B41B8F1000F03DA002024
:1007F0000146BDE8F08D00204FF480110646844686
:100800000EE0171B73EB050705D3121B63EB050303
:1008100006434CEA010C49084FEA300092185B414C
:1008200050EA0107EDD152EA030012D082EA040037
:1008300083EA0501084305D0101BAB4106D2012213
:10084000002306E000224FF0004302E06FF00102B7
:1008500053101AEB06004CEB085110EB0A0041EB69
:100860000B01BDE8F04DFFF7C2BEC1F30A52C1F360
:10087000130140F2FF3341F480119A4202DA002062
:100880000146704740F233439A42A2F2334202DCFF
:100890005242FFF769BCFFF752BE000030B5041E9C
:1008A00071F1000404DB4FF00044404264EB0101AD
:1008B000141E73F1000405DB1C464FF00043524246
:1008C00063EB0403994208BF904230BD064C074DCC
:1008D00006E0E06840F0010394E807009847103410
:1008E000AC42F6D3FFF728FCD0390008F0390008F5
:1008F00070B5044600688168C943C9071CD1816886
:1009000021F00101816000F01FFC05460FE000BFEF
:1009100000F01AFC401B022809D9A06A40F0100020
:10092000A062E06A40F00100E062012070BD206832
:100930008068C043C007EBD0002070BDF8B500262A
:100940000446009600688168C943C90728D08168B9
:1009500041F001018160134813490068B0FBF1F0D8
:1009600000E0401E00900028FBD100F0EDFB0546A2
:1009700011E000BF00F0E8FB401B02280BD9A06A81
:1009800040F01000A062E06A40F00100E06284F8EC
:1009900024600120F8BD20688068C043C007E9D109
:1009A0000020F8BD5C00002040420F00FEE77047C9
:1009B00070470000F8B50024009490F824202546E4
:1009C000012A12D0012280F824204A681F23072A16
:1009D0000DD20668776B521E02EB820293409F4352
:1009E0000B6893401F43776319E00220F8BD066847
:1009F0000D2A0AD2376BD21F02EB820293409F432B
:100A00000B6893401F43376309E0F76A0D3A02EB26
:100A1000820293409F430B6893401F43F7620A682A
:100A2000072306680A2A0AD3F7680A3A02EB420249
:100A300093409F438B6893401F43F76008E03769FA
:100A400002EB420293409F438B6893401F43376100
:100A50000A68102A01D0112A20D1124B02689A424A
:100A600017D193681B0219D4936843F40003936071
:100A70000968102912D10C490C4A0968B1FBF2F13E
:100A800001EB8101490000E0491E00910029FBD1E2
:100A900004E0816A41F020018162012480F8245041
:100AA0002046F8BD002401405C00002040420F00B9
:100AB0000068C06C704700002DE9F04104004FF061
:100AC000000514D0A06A002628B9E66284F82460E4
:100AD000204600F083F82046FFF70AFFA16A01F0E4
:100AE0001001014304D0A06A40F01000A0626BE046
:100AF000A16A21F4885141F00201A16233492368BF
:100B00008B42E16904D1B1F5402F01D14FF40021AE
:100B1000E7684FF4807C41EA470261680A43A168B4
:100B2000614509D0012907D05FF00001D4F814E035
:100B3000BEF1010F02D00AE06146F7E7C7B1A76A2C
:100B400047F02007A762E76A47F00107E7625F689E
:100B500027F469470F435F60236899681C4F394049
:100B600011439960A16861450BD0012909D00CE0BF
:100B7000DFF860E0A7690EEB47370F4347F40061E9
:100B8000E5E7218A0D05A5F580152168CB6A23F4D8
:100B900070032B43CB62216889680F4B1940914247
:100BA00008D1E662A16A21F0020141F00101A162CF
:100BB000BDE8F081A06A20F0020040F01000A062C1
:100BC000E06A40F00100E0620120F1E7003C0140F2
:100BD000FDF7E1FF00E0FFFFFE0E1FFF00B585B04F
:100BE0000021009101910291039100680E49884211
:100BF00018D10E48816941F400718161816901F465
:100C000000710491816941F0040181618069694644
:100C100000F0040004900420009003200190044898
:100C200000F098F905B000BD00240140001002401A
:100C3000000801402DE9F84300260D4604460096C1
:100C400000F082FA804620688168C90508D5A06A4C
:100C500040F02000A06284F824600120BDE8F88301
:100C60004168C90503D4C06A10F4700F26D0022071
:100C700000F006FB38490968B1FBF0F7206803690A
:100C800036490B424FEA61014FEAA1121BD1C368FA
:100C90004FEA611C13EA0C0F15D103690B4221D1F5
:100CA000C06810421ED114201FE0681C06D045B356
:100CB00000F04AFAA0EB0800A84222D82068006899
:100CC0008007F2D52AE003690B4202D1C1681142C4
:100CD00006D0026922490A4206D1C068084203D1FF
:100CE000542002E0292000E0FC204743009813E054
:100CF000681C0ED02DB100F027FAA0EB0800A84226
:100D000007D9A06A40F00400A06284F824600320A0
:100D1000A4E70098401C0090B842E9D321686FF026
:100D200012000860A06A40F40070A0622068806829
:100D3000C0F3424007280CD1E06850B9A06A20F403
:100D40008070A062A06AC00403D4A06A40F00100D1
:100D5000A062002082E700005C0000202449922469
:100D60004992240070B5044690F8240001280DD063
:100D7000012084F824002046FFF7E0FD02004FF038
:100D8000000005D084F82400104670BD022070BD1C
:100D9000A16A40F20123994341F48071A1621F4D81
:100DA00023681F49AB4218D10E6816F4702F14D077
:100DB000A66A46F48016A6620E68760505D5A66A70
:100DC00026F4005646F48056A662A66AF6040AD5B2
:100DD000E66A26F00606E66206E0A66A26F48016B3
:100DE000A6625E68E9E7E06284F824006FF0020022
:100DF000186020688368C3F34243072B05D1A842DB
:100E000008D1096811F4702F04D0816841F4801171
:100E10008160B9E7816841F4A001F9E70028014049
:100E2000042401402DE9F05F90F8211000240229EC
:100E300003D004218163012485E001680A6822F05F
:100E40000E020A6001680A6822F001020A603F4E41
:100E50003E4FB215DFF8F4C0DFF8F090DFF8ECA0F9
:100E6000DFF8E8B0DFF8E4E00168783F130115022D
:100E7000ACF1640CA9F15009AAF13C0AABF1280BC2
:100E8000AEF1140E4FF48018B14227D9B9420ED0FA
:100E9000614512D049451DD0514518D0594518D04B
:100EA000714501D1424615E0294EB14201D10122DE
:100EB00010E0274E1436B14201D110220AE0244E30
:100EC0002836B14206D0224A3C32914201D11A461C
:100ED00000E02A461E49091F0A602BE0B94213D0E0
:100EE000614517D0494522D051451DD059451DD0E7
:100EF000714501D142461AE0B14202D14FF08072F1
:100F000015E0134EB14201D1012210E0104E14360B
:100F1000B14201D110220AE00D4E2836B14206D06E
:100F20000B4A3C32914201D11A4600E02A46074959
:100F300080394A60012180F82110002180F82010BA
:100F4000416B01B188472046BDE8F09F8000024018
:100F5000080402402DE9F84FDFF8B8A100220AF199
:100F6000040B144601274FF00F090BF1040E00BFCC
:100F70000B6807FA04F52B40AB4274D1DFF898C137
:100F80004E68A6EB0C0866452BD00DDC032E34D042
:100F900005DC36B3012E19D0022E2FD11BE0112E05
:100FA00016D0122E2AD119E0B8F5881F19D006DC08
:100FB000B8F5803F15D0B8F5801F1FD111E0B8F506
:100FC000001F0ED0B8F5041F18D10AE0CA6815E05A
:100FD000CA68121D12E0CA6808320FE0CA680C32F3
:100FE0000CE08A682AB1012A4FF0080203D045615B
:100FF00004E0042202E0056100E00022FF2B01D89A
:10100000064601E000F104064FEA840501D9A5F186
:101010002005D6F800C009FA05F82CEA080C02FAF7
:1010200005F54CEA050CC6F800C04D68ED006AD520
:101030003A4DAE6946F00106AE61AD6924F0030693
:1010400005F001050095364D06EB050CDCF808505F
:10105000A6074FEA167809FA08F6B543314EB042B2
:1010600002D100261AE04EE02F4EB04201D10126F7
:1010700014E02E4EB04201D102260FE02C4EB042B9
:1010800001D103260AE02B4EB04201D1042605E02F
:10109000294EB04201D1052600E0062606FA08F6E0
:1010A0002E43CCF808604D68DAF80060ED03554631
:1010B00001D51E4300E09E432E604D68AD0305D56B
:1010C000DBF800601E43CBF8006004E0DBF8005062
:1010D0009D43CBF800504D68DEF80060ED02754688
:1010E00001D51E4300E09E432E604D68AD0205D53C
:1010F000084D0C352E681E432E6004E0054E0C365C
:1011000035689D433560641C102CFFF431AFBDE899
:10111000F88F000000040140000011100010024090
:101120000000014000080140000C01400010014097
:101130000014014000180140001C01400AB1016187
:1011400070470904FBE70000014880687047000011
:101150005000002002488168027811448160704785
:1011600050000020074810B5016841F010010160EF
:10117000032000F073F8002000F006F800F024F8D7
:10118000002010BD0020024070B50D4D04464FF404
:101190007A712878B1FBF0F00A490968B1FBF0F0E8
:1011A00000F0DCFB48B9102C07D200222146501E6B
:1011B00000F034F800206C6070BD012070BD0000AC
:1011C000500000205C0000200C4808B5816941F007
:1011D00001018161816901F001010091C16941F062
:1011E0008051C161C06900F080500090044841689E
:1011F00021F0E06141F08061416008BD00100240D3
:101200000000014000F01F020121914040098000D0
:1012100000F1E020C0F8001170470000F0B40E4B60
:101220001B680C46C3F30223C3F10705042D00D944
:101230000425191D072901D2002300E0DB1E012629
:1012400006FA05F1491E214099409E40761E16403F
:101250003143F0BC01F0E6BA0CED00E0064900F0C5
:10126000070208684FF6FF03184040EA0220034ACD
:1012700010430860704700000CED00E00000FA0524
:1012800010B52CA401461DCC86B08DE81D002DA004
:101290002D4C00680490002004292FD00BDC01297C
:1012A0002FD0022928D100F091F96168C1F3813172
:1012B000491C49001EE0082920D010291CD1616872
:1012C0002268D20118D5C1F38342C9031DF8020078
:1012D00009D5616804AAC1F34041515C1B4AB2FBC5
:1012E000F1F1484301E01A4948436168490203D4D7
:1012F00040000321B0FBF1F006B010BD00F076F91C
:10130000FAE7226AC2F30121012903D1920701D52C
:10131000C803F1E7022905D1626A920702D549F6AE
:101320004040E9E70329E7D121688903E4D54FF27A
:101330002440E1E702030405060708090A0B0C0D27
:101340000E0F1010010200000010024000127A007F
:1013500000093D002DE9F84305460078354CC007EB
:1013600054D0E0690026C00008D4E06940F0805005
:10137000E061E069012600F0805000902E4801688D
:10138000C90512D40168804641F480710160FFF7FD
:10139000DBFE074605E000BFFFF7D6FEC01B642852
:1013A00023D8D8F80000C005F6D5206A10F44070A4
:1013B00021D0A98801F4407181421CD0206A1F49C4
:1013C000012220F440700A6000220A602062C007F7
:1013D00011D0FFF7B9FE074641F2883808E000BF98
:1013E000FFF7B2FEC11B414502D90320BDE8F883D7
:1013F000206A8007F4D5206A696820F440700843A9
:1014000020621EB1E06920F08050E06128788007FA
:1014100005D56068A96820F44040084360602878DA
:10142000C00605D56068696920F4800008436060E3
:101430000020DBE700100240007000404004424200
:101440002DE9F047DFF8548105460E46D8F8000034
:1014500000F00700B0420CD2D8F8001021F00701CC
:101460003143C8F80010D8F8000000F00700B0427F
:101470006FD128684A4C810712D5400703D56068B0
:1014800040F4E06060602878000703D5606840F4AD
:10149000605060606068A96820F0F00008436060F8
:1014A0002878C00744D06868012816D0216802282F
:1014B00016D0890700294CDA616821F00301014345
:1014C0006160FFF741FE6968074641F288300129F3
:1014D0000ED00229814618D026E021688903E9E769
:1014E0008901E7E7FFF730FEC11B494501D918E044
:1014F00081466068C0F381000128F3D118E000BF85
:10150000FFF722FEC11B49450BD86068C0F381007C
:101510000228F5D10CE000BFFFF716FEC11B4945BC
:1015200002D90320BDE8F087606810F00C0FF3D1FA
:10153000D8F80010404601F00701B1420BD901680C
:1015400021F0070131430160006800F00700B0425C
:1015500001D00120E6E72878400705D56068E968F2
:1015600020F4E060084360602878000706D56068D2
:10157000296920F4605040EAC100606000F036F84C
:101580006168084AC1F30311515CC840064908600C
:101590000020FFF7F9FD0020C4E700000020024012
:1015A00000100240B83900085C00002004480549DA
:1015B00000684968044AC1F30221515CC840704781
:1015C0005C00002000100240C839000804480549AA
:1015D00000684968044AC1F3C221515CC8407047A1
:1015E0005C00002000100240C839000812A185B03C
:1015F0000FC98DE80F0014A0144A006804905168C8
:10160000134801F00C03042B10D0082B0ED1C1F3AA
:101610008343C9031DF803000AD5516804AAC1F326
:101620004041515C0A4A5043B0FBF1F005B07047AD
:1016300008494843FAE700000203040506070809C1
:101640000A0B0C0D0E0F10100102000000100240DA
:1016500000127A0000093D002DE9F84F0446007899
:10166000B94DC00748D06868C0F38100012807D091
:101670006868C0F38100022809D16868C00306D5F4
:101680002868800338D5606800286FD034E060682F
:10169000B0F5803F0BD010B1B0F5A02F11D0286865
:1016A00020F480302860286820F4802002E0286838
:1016B00040F480302860606888B1FFF745FD064639
:1016C00009E0286840F480202860F0E7FFF73CFD3F
:1016D000801B642875D828688003F7D50CE0FFF7D5
:1016E00033FD064605E000BFFFF72EFD801B642892
:1016F000F0D828688003F7D42078944E80074FF004
:1017000001094FF000083BD5686810F00C0F07D0B6
:101710006868C0F38100022809D16868C00306D454
:101720002868800714D5206901281FD110E020699E
:10173000B0B1C6F80090FFF707FD074605E000BF0F
:10174000FFF702FDC01B0228C4D828688007F7D520
:101750002868616920F0F80040EAC10028600FE0C5
:10176000C6F80080FFF7F0FC074606E0E9E000BF9E
:10177000FFF7EAFCC01B022823D828688007F7D4AB
:10178000207800072CD57248A169D9B1C0F8009023
:10179000FFF7DAFC074604E0FFF7D6FCC01B02287F
:1017A0000FD8686A8007F7D56A484FF4FA51006885
:1017B000B0FBF1F0009000BF0098411E0091FAD2FA
:1017C0000EE080E0C0F80080FFF7BEFC074604E0B2
:1017D000FFF7BAFCC01B022875D8686A8007F7D4E7
:1017E0002078400760D5E8690027C00008D4E86980
:1017F00040F08050E861E869012700F080500090D7
:1018000055480168C90513D40168834641F48071C5
:101810000160FFF799FC824606E000BFFFF794FCE9
:10182000A0EB0A0064284ED8DBF80000C005F5D50F
:10183000E06801280AD008B1052813D0286A20F0F2
:1018400001002862286A20F0040002E0286A40F0C3
:1018500001002862E06841F2883B98B1FFF774FC10
:1018600082460BE0286A40F004002862EEE700BFE1
:10187000FFF76AFCA0EB0A0159455AD8286A80078D
:10188000F6D50CE0FFF760FC824605E0FFF75CFC54
:10189000A0EB0A0159454CD8286A8007F6D41FB13D
:1018A000E86920F08050E861E06988B36968C1F3B5
:1018B0008101022945D00228C6F8608004D0FFF7D4
:1018C00043FC044638E034E0FFF73EFC074604E002
:1018D000FFF73AFCC01B02282BD828688001F7D4F8
:1018E000206AB0F5803F05D16868A16820F4003017
:1018F00008436860D4E908010843696821F4741159
:1019000008436860C6F86090FFF71EFC044606E0D6
:1019100015E000BFFFF718FC001B022809D8286853
:101920008001F7D50BE000BFFFF70EFC001B02287B
:1019300002D90320BDE8F88F28688001F4D4002084
:10194000F8E70120F6E700000010024000004242E4
:10195000800442425C0000200070004010B5401E30
:10196000B0F1807F01D3012010BD4FF0E024606111
:101970000F21601700F056FF0020A06107202061B2
:10198000002010BD7047704710B590F83C20012A28
:1019900025D0012280F83C20CA688C6822F440726D
:1019A00022434C6822F4806222430C6822F40062D5
:1019B00022430C6922F4805222434C6922F40052E3
:1019C00022438C6922F48042224322F400410268BF
:1019D00000232143516480F83C30002010BD0220D8
:1019E00010BD30B590F83C20012A20D0012280F8AB
:1019F0003C20022380F83D3003685C6824F07004CA
:101A00005C6003685C680D682C435C6003689C68DC
:101A100024F080049C6003689C6849680C439C60C7
:101A200080F83D20002180F83C10084630BD02209F
:101A300030BD10B5040003D094F83D0010B107E0AC
:101A4000012010BD002084F83C00204600F00CF876
:101A5000022084F83D00211D206800F053FF012082
:101A600084F83D00002010BD08B5114A01681148F6
:101A7000914208D1816941F400618161806900F47B
:101A80000060009008BDB1F1804FFBD1C16941F009
:101A90000101C161C069002200F0010000901146FF
:101AA0001C20FFF7BBFBBDE808401C20FFF7AABBCA
:101AB000002C0140001002400168CA6842F0010297
:101AC000CA600068016841F00101016000207047B0
:101AD00070B5044690F83C00012817D0012584F821
:101AE0003C50022084F83D002068826822F0770292
:101AF00022F47F4282600868502837D00DDC20280D
:101B000059D005DC88B3102841D151E0022070BDC6
:101B1000302853D040283AD13FE060282ED070289A
:101B20000BD0B0F5805F03D0B0F5005F2FD110E08F
:101B30002068816821F0070115E0CB68D1E9012117
:101B4000206800F030FF2168886840F077008860E6
:101B50001DE0CB68D1E90121206800F024FF206856
:101B6000816841F48041816011E01EE0CA684968E3
:101B7000206800F0EDFF5021206806E0CA6849683F
:101B8000206800F0F6FF6021206800F016FF84F85E
:101B90003D50002084F83C0070BDCA684968206848
:101BA00000F0D6FF40212068EFE700212068ECE735
:101BB00010212068E9E720212068E6E7302120682D
:101BC000E3E72DE9F0410D46040003D094F83D0011
:101BD00018B108E00120BDE8F081002084F83C0045
:101BE000204600F039F8022084F83D002068816822
:101BF00021F007018160211D206800F083FE22682A
:101C000090689169166A2B68AF69034340F203300C
:101C1000814341EA0721A868EF6908434FF6FC4178
:101C20008843E96840EA0720014328692F6A0001D8
:101C300040EA0730084369686D6926F0AA0646EA5B
:101C40000515294393602268906120680162012094
:101C500084F83D000020BEE700B585B0002100916A
:101C600001910291039100680E49884218D10E48F3
:101C7000816941F400518161816901F4005104914D
:101C8000816941F0100181618069694600F01000AE
:101C90000490C0200090012002900448FFF75AF9F8
:101CA00005B000BD003401400010024000100140AA
:101CB00010B50446006891B1042904D00122002126
:101CC00000F066FE206801225FF0040100F060FE73
:101CD0002068016841F001010160002010BD01226F
:101CE0000021F3E7704770B50446006801694FF0C2
:101CF0000005C943890715D4C168C943890711D4B0
:101D0000E91E016101202077206880698007204654
:101D100002D0FFF7E7FF04E000F0CAF8204600F029
:101D20004CF9257720680169C943490717D4C16870
:101D3000C943490713D46FF00401016102202077E1
:101D40002068806910F4407F204602D0FFF7CAFF68
:101D500004E000F0ADF8204600F02FF92577206868
:101D60000169C943090716D4C168C943090712D4D8
:101D70006FF008010161042020772068C0698007A6
:101D8000204602D0FFF7AEFF04E000F091F82046B5
:101D900000F013F9257720680169C943C90617D4F3
:101DA000C168C943C90613D46FF01001016108204E
:101DB00020772068C06910F4407F204602D0FFF7EA
:101DC00091FF04E000F074F8204600F0F6F8257763
:101DD00020680169C943C90708D1C168C943C90757
:101DE00004D1891E0161204600F004F920680169D0
:101DF000C943090609D4C168C943090605D46FF06F
:101E0000800101612046FFF7BDFD20680169C943DB
:101E1000490609D4C168C943490605D46FF0400199
:101E20000161204600F060F920680169C943890614
:101E30000BD4C168C943890607D46FF02001016142
:101E40002046BDE87040FFF79EBD70BD00B585B06F
:101E5000002100910191029103910068104988428C
:101E60001BD11048816941F0400181618069694658
:101E700000F0400004904FF40070009002200190A8
:101E800003900948FFF766F80848416821F0C0014F
:101E900041F0E06141F0C001416005B000BD0000CB
:101EA000002C0140001002400018014000000140D9
:101EB000704770B5044690F83C000D4601280DD0DF
:101EC000012684F83C60022084F83D0042B1042AD7
:101ED00018D0082A2AD00C2A4DD139E0022070BD32
:101EE000206800F073FD2068816941F0080181617C
:101EF0002068816921F004018161206881692A6973
:101F0000114311E0206800F091FD2068816941F4DF
:101F1000006181612068816921F4806181612068AC
:101F200081692A6941EA0221816124E0206800F088
:101F3000B3FD2068C16941F00801C1612068C16931
:101F400021F00401C1612068C1692A69114311E0CF
:101F5000206800F0D5FD2068C16941F40061C161CD
:101F60002068C16921F48061C1612068C1692A6962
:101F700041EA0221C16184F83D60002084F83C0000
:101F800070BD10B5040003D094F83D0010B107E017
:101F9000012010BD002084F83C00204600F00CF821
:101FA000022084F83D00211D206800F0ABFC0120D8
:101FB00084F83D00002010BD7047704710B50446FE
:101FC0000068012200F0E4FC08492068884202D041
:101FD0000749884203D1416C41F4004141642068C3
:101FE000016841F001010160002010BD002C01409A
:101FF000003401402DE9F047334C344E0025608811
:10200000401C80B2608032280BD165806168B1616C
:102010002FA0726900F044FF01F00EFCB06A01F0DD
:1020200063FC60880A21B0FBF1F201FB120000287A
:1020300039D1294801684A6A284C47F23050821A3F
:10204000A261486201F056FCB069DFF89480254E29
:10205000A0F294404FF480474FF40049B0F5FA7F66
:1020600001D9A56222E0A06A00280DDA4FF0010232
:1020700039464046FFF762F8002249464046FFF7DE
:102080005DF8A06A40420CE00FDD4FF001024946C6
:102090004046FFF753F8002239464046FFF74EF816
:1020A000A06A31684863BDE8F087FCD14FF00102B7
:1020B00049464046FFF742F8002239464046FFF7BE
:1020C0003DF830684563EEE70000002090000020F6
:1020D00025642025640A00006C01002064000020B3
:1020E000000C0140EC0000207047704770B502689A
:1020F00004461068D168536910F00F0F51D003F0F7
:10210000010501F4907635435DD0C20705D0CA05BC
:1021100003D5E26B42F00102E263420705D5DA071C
:1021200003D0E26B42F00202E263820705D5DA07D0
:1021300003D0E26B42F00402E263020705D5DA073E
:1021400003D0E26B42F00802E263E26B002A34D073
:10215000800604D5880602D5204600F032FD2068AE
:102160004069E16BC0F3801001F008010143204693
:1021700024D000F018FD2068416949061AD541694C
:1021800021F040014161606BA0B11B494163606B6C
:10219000FEF748FE002810D0606B416BBDE8704030
:1021A000084783060FD58B060DD52046BDE8704045
:1021B00000F007BD2046FFF798FF70BDFFF795FFC1
:1021C0000020E06370BD030606D50B0604D520464B
:1021D000BDE8704000F0F8BD4006F3D54806F1D5E3
:1021E000D168204621F04001D160202184F83910C7
:1021F00000F0BDF970BD0000972B000870B5040019
:1022000004D094F83900002510B106E0012070BD1B
:1022100084F83850204600F023F8242084F8390050
:102220002068C16821F40051C160204600F014FD0F
:102230002068016921F4904101612068416921F021
:102240002A0141612068C16841F40051C160E56321
:10225000202084F8390084F83A00002070BD000086
:1022600030B585B000240094019402940394006872
:10227000184988422CD11848816941F48041816114
:10228000816901F480410491816941F00401816117
:102290008069124D00F0040004904FF4007000902B
:1022A000022001900320039069462846FEF752FE63
:1022B0002815CDE90004694628460294FEF74AFE37
:1022C000002211462520FEF7A9FF2520FEF79AFFE0
:1022D00005B030BD00380140001002400008014048
:1022E00090F83A30202B22D1F9B1F2B190F8383081
:1022F000012B1CD081628285C2850021C16322220C
:1023000080F83A2080F838100168CA6842F4807278
:10231000CA6001684A6942F001024A610068C16806
:1023200041F02001C1600020704701207047022069
:102330007047000070B54A4C4AA0217800F0B0FD0B
:102340002078494C4FF07E51312817D0322819D0CF
:10235000464D474E33281FD0342825D0352833D05A
:10236000362839D0434E372841D0382847D0424DFF
:10237000424E392853D0302859D069E02068FDF703
:1023800015FF02E02068FDF763FF2060FEF761F8AB
:1023900002460B463AA059E06068FEF75AF82A4612
:1023A0003346FDF78DFF06E06068FEF752F82A46D7
:1023B0003346FEF726F8FEF75FF86060FEF749F84F
:1023C00002460B4631A041E0A068FEF742F82A46DB
:1023D0003346FDF775FF06E0A068FEF73AF82A4697
:1023E0003346FEF70EF8FEF747F8A060CEE7206808
:1023F000FEF72FF82A463346FDF762FF06E0206815
:10240000FEF727F82A463346FDF7FBFFFEF734F8C0
:102410002060FEF71EF802460B461FA016E0A068DB
:10242000FEF717F82A463346FDF74AFF06E0A06894
:10243000FEF70FF82A463346FDF7E3FFFEF71CF8D8
:10244000A060FEF706F802460B4616A000F028FD35
:10245000BDE87040012202491548FFF741BF000066
:102460000100002025640A00900000209A999999A3
:102470009999B93F9999A93F7B14AE47E17A743F86
:102480004B702D3E3A252E31660A00004B642D3EDE
:102490003A252E31660A00004B642D3E3A252E3235
:1024A000660A00004B642D3E3A252E33660A000072
:1024B000AC0100202DE9F843044690F839001F468E
:1024C00016460D46202850D1A5B19EB194F838008B
:1024D00001284AD0012084F838004FF00008C4F8E1
:1024E0003C80212084F83900FEF72EFEA684814628
:1024F000E68426E00120BDE8F883E08C401EE084FD
:10250000A0684B46B0F5805F4FF000024FF08001AD
:102510002046009703D000F088FCE8B90DE000F0F9
:1025200084FCC8B928882168C0F308004860206985
:1025300008B16D1C05E0AD1C03E0216815F8010B26
:102540004860E08C0028D8D14B460022402120462C
:10255000009700F06AFC08B10320CCE7202084F843
:10256000390084F838800020C5E70220C3E77047AF
:10257000FEE700003EB500241148009401940F4985
:10258000029401600125C0E90245446105614FF4F0
:1025900060214460C161FEF78FFA08B1FEF708FAC6
:1025A0000220CDE90005694602940548FEF702FACB
:1025B000002801D0FEF7FCF93EBD000000240140D8
:1025C000BC00002070B586B000241C480094019423
:1025D00002940394816941F004018161816901F0F1
:1025E00004010491816941F008018161816901F070
:1025F00008010491816941F040018161816901F024
:1026000040010491816941F01001816180690C4EA3
:1026100000F010004CF201050490002229463046DB
:10262000FEF78CFD01200095CDE901040320039005
:1026300069463046FEF78EFC06B070BD00100240C1
:10264000000C014010B594B000240E940F94109427
:10265000119412941C2168461394FDF79CFD1C21D3
:1026600007A8FDF798FD2A48284901604721C0E9DD
:10267000011440F2E731C0E903148021C0E90541AB
:10268000FFF7D7F908B1FEF793F94FF480500E9099
:102690000EA91F48FFF71CFA08B1FEF789F91C487C
:1026A000FFF76FFC08B1FEF783F9129412A91848DE
:1026B0001394FFF796F908B1FEF77AF960200090BD
:1026C00040F2F310CDE90104039404940594002230
:1026D00069460F480694FFF7ECFB08B1FEF768F96E
:1026E0000794089409944FF400500A94CDE90B40E4
:1026F00007A907480D94FFF747F908B1FEF758F905
:102700000348FFF7A3FB14B010BD0000002C0140EC
:10271000EC00002010B586B0002417480094019406
:102720000294039404944FF0804105940160472182
:10273000C0E9011440F2E731C0E90314802181614E
:10274000FFF777F908B1FEF733F94FF480500090A6
:1027500069460948FFF7BCF908B1FEF729F9049466
:1027600004A905480594FFF73CF9002801D0FEF7BD
:102770001FF906B010BD00002C01002010B58CB070
:1027800024216846FDF707FD0024164809941449E2
:102790000A94C0E900144EF66021C0E902410461C8
:1027A000446184610320CDE900040120CDE90204E5
:1027B0000494CDE90540079469460A480894FFF758
:1027C00000FA08B1FEF7F4F8099409A905480A943B
:1027D000FFF707F9002801D0FEF7EAF80CB010BDAA
:1027E000003401406C0100200C4810B50A4901601A
:1027F0004FF4E1314160002181600C22C160C0E9E9
:1028000004128161C161FFF7F9FC002803D0BDE823
:102810001040FEF7CDB810BD00380140AC010020DB
:10282000FEE770470907090E002806DA00F00F00DE
:1028300000F1E02080F8141D704700F1E02080F8DE
:102840000014704770477047FEF784BC30B595B0F0
:1028500028216846FDF79FFC14210AA8FDF79BFC80
:1028600018210FA8FDF797FC01210804CDE90010FD
:102870000024029402250491CDE907504FF4E010A2
:1028800009906846FEF7E8FE0F20CDE90A056802C8
:10289000CDE90C4002210AA80E94FEF7D1FD4FF4B9
:1028A000404011900F950FA8FEF754FD15B030BDB4
:1028B0000D48016841F00101016041680B4A114077
:1028C000416001680A4A11400160016821F48021D9
:1028D0000160416821F4FE0141604FF41F018160F5
:1028E0000449C00308607047001002400000FFF870
:1028F000FFFFF6FE08ED00E00148FFF7F4B9000025
:102900002C010020F0B502681C4B1D4D1D4E1E4FC2
:102910001E4C4FF0804C984209D0A04207D0604531
:1029200005D0A84203D0B04201D0B84204D122F071
:10293000700E4A6842EA0E02984209D0A04207D0BF
:10294000604505D0A84203D0B04201D0B84203D1BF
:1029500022F44075CA682A4322F080054A692A4356
:1029600002608A68C2620A688262984201D0A0420C
:1029700001D10969016301214161F0BD002C0140D1
:102980000004004000080040000C004000340140FA
:1029900010B50123046A8B409C430462036A8A4099
:1029A0001343036210BD10B5846842EA032224F485
:1029B0007F440A432243826010BD826822F0700285
:1029C0000A4342F00701816070470000F0B5026AD7
:1029D00022F001020262036A42688469124E24F006
:1029E00073050C682C4323F002058B682B430D4DB7
:1029F000A84201D0B04205D123F00807CB683B4381
:102A000023F00403A84201D0B04205D14D6922F45D
:102A1000407215438A692A43426084614968416370
:102A20000362F0BD002C014000340140F0B5026AA1
:102A300022F010020262026A436884690D6824F47D
:102A4000E64444EA05248D6822F0200242EA051299
:102A50000F4D104EA84201D0B04206D1CF6822F0EF
:102A6000800242EA071222F04002A84201D0B0429E
:102A700007D14D6923F4406343EA85038D6943EA36
:102A8000850343608461496881630262F0BD000090
:102A9000002C014000340140F0B5026A22F480723B
:102AA0000262026A4368C46922F4007224F073056A
:102AB0000C68124E2C438D6842EA05220E4DA84246
:102AC00001D0B04206D1CF6822F4006242EA072268
:102AD00022F48062A84201D0B04207D14D6923F4AC
:102AE000405343EA05138D6943EA05134360C4610B
:102AF0004968C1630262F0BD002C0140003401400E
:102B000030B5026A22F480520262046A4268C369E4
:102B10000D6823F4E64343EA05238D6824F400544A
:102B200044EA0534084DA84202D0084DA84204D119
:102B30004D6922F4804242EA85124260C3614968CD
:102B40000164046230BD0000002C014000340140EB
:102B500010B5036A046A24F001040462846924F055
:102B6000F00444EA021423F00A020A438461026278
:102B700010BD10B5036A23F0100303628369046A71
:102B800023F4704343EA023224F0A00343EA011124
:102B90008261016210BD10B5406A0021C185C18407
:102BA000FFF7A3FA10BD0168CA6822F49072CA60E8
:102BB00001684A6922F001024A61202180F83A1036
:102BC000704710B590F83A10222901D0022010BDAC
:102BD0008168B1F5805F11D00169002901681FD0BB
:102BE000496801F07F03816A4A1C82620B70C18DC3
:102BF000491E0904090CC18518D02BE00269816ABD
:102C0000002A0268526805D0D2B20A80816A491C43
:102C10008162ECE7C2F308020A80816A891CF7E747
:102C20004A68816A4B1C83620A70E0E70168CA68DF
:102C300022F02002CA600168CA6822F48072CA6069
:102C400001684A6922F001024A61202180F83A10A5
:102C5000FFF770FB002010BD2DE9F041044600682D
:102C60000169E26821F44051114301612169A068C2
:102C70000843616908432168CA6841F20C639A43BA
:102C80000243CA6020684169A26921F4407111437E
:102C900041614C4920686425322688423CD1FEF7C8
:102CA00095FC00EBC00101EB001061688900B0FBEE
:102CB000F1F7FEF78BFC00EBC00101EB001061683F
:102CC000B0468900B0FBF1F0B0FBF5F06FF01801F1
:102CD000484307EB800106EB0110B0FBF5F000F074
:102CE000F006FEF773FC00EBC00101EB0010616819
:102CF0008900B0FBF1F0B0FBF5F006EB0016FEF733
:102D000065FC00EBC00101EB001061688900B0FBBD
:102D1000F1F7FEF75BFC3BE0FEF748FC00EBC0017F
:102D200001EB001061688900B0FBF1F7FEF73EFC93
:102D300000EBC00101EB00106168B0468900B0FBF8
:102D4000F1F0B0FBF5F06FF01801484307EB80019C
:102D500006EB0110B0FBF5F000F0F006FEF726FCE4
:102D600000EBC00101EB001061688900B0FBF1F0DD
:102D7000B0FBF5F006EB0016FEF718FC00EBC00107
:102D800001EB001061688900B0FBF1F7FEF70EFC63
:102D900000EBC00101EB001061688900B0FBF1F0AD
:102DA000B0FBF5F06FF01801484307EB800108EB2A
:102DB0000110B0FBF5F0216800F00F00304488608E
:102DC000BDE8F0810038014090F83910212901D088
:102DD000022070478168B1F5805F016A0BD04A1C00
:102DE0000262026809785160C18C491E0904090C0D
:102DF000C1840ED017E009880268C1F30801516050
:102E000001690029016A02D0491C0162ECE7891CB2
:102E1000FBE70168CA6822F08002CA600068C168E6
:102E200041F04001C160002070472DE9F041984613
:102E300017460E460446069D1DE0681C1BD02DB1AA
:102E4000FEF782F9A0EB0800A84214D92068C168F7
:102E500021F4D071C1602068416921F00101416114
:102E6000202084F8390084F83A00002084F83800E3
:102E70000320BDE8F0812068006836EA000004D035
:102E80000020B842D9D00020F3E70120F9E7000084
:102E90000148FFF72BB90000AC010020FEE700005D
:102EA0000FB4054B10B503A9044A029800F0CAF804
:102EB00010BC5DF814FB00007537000860000020AE
:102EC00002E008C8121F08C1002AFAD170477047F3
:102ED000002001E001C1121F002AFBD17047000051
:102EE0002DE9FF5FDDE90220010DDDF838B0024376
:102EF00018D044F61050A1F2FF3141430D140F9841
:102F0000012820D0A5EB0B00401C5FEA000A4FF01F
:102F10000004474EDFF81C91A046504616D5CAF172
:102F2000000728E00F98012443A2012808D00021BF
:102F300000980F9BC0E90021C0E90243BDE8FF9F54
:102F40006FEA0B01F4E7CBF10000DEE7074612E081
:102F5000F80707D02246334640464946FDF7A4FB12
:102F6000804689462246334610461946FDF79CFBAB
:102F700004460E467F10002FEAD1DDE90201BAF1C6
:102F8000000F42464B4602DAFDF78EFB01E0FDF7EB
:102F9000FDFB04460E460022284BFDF77FFC03D8BC
:102FA0004FF0FF30014607E00022254B2046314616
:102FB000FDF786F9FDF759FC102409E0002C0ADB27
:102FC0000A220023FDF78AFA019B30321A55641E4B
:102FD00050EA0102F2D1641C019AC4F111031444B5
:102FE0000F9A012A03D0012208430DD10AE00843B9
:102FF00004D000204FF0110B0F9080E7A3EB0B05DE
:103000006D1E0DE05B4504DD4FF0000205F101058A
:1030100004E003DA4FF00002A5F10105002AECD02C
:1030200000980F99C0E90231C0E9004586E7000029
:10303000000024400000F03F300000000000F0439A
:103040000000E03F2DE9FF4F95B09B4689460646BC
:1030500000250FE2252877D100242746F84A0121D0
:10306000059400E0044316F8013F203B01FA03F009
:103070001042F7D130782A2811D06FF02F03307822
:10308000A0F13002092A16D8059A44F0020402EB96
:10309000820203EB42021044761C0590EFE759F8D8
:1030A000042B0592002A03DA504244F400540590A0
:1030B00044F00204761C30782E2816D116F8010F41
:1030C00044F004042A280DD06FF02F023078A0F1CC
:1030D0003003092B09D807EB870302EB4303C7181A
:1030E000761CF3E759F8047B761C30786C280FD0F7
:1030F00006DC4C2817D068280DD06A2814D104E0CB
:10310000742810D07A280FD10DE044F400140AE09E
:1031100044F4801401E044F440147278824202D1F5
:1031200004F58014761C761C307866280BD013DCEE
:10313000582877D009DC002875D04528F6D04628D5
:10314000F4D047281AD19DE118E0632835D06428CF
:1031500079D0652812D195E1702873D008DC6728F2
:10316000F1D069286FD06E280DD06F2806D1B5E058
:1031700073282CD0752875D0782874D05A461799A2
:1031800090476D1C75E1C4F30250022809D0032852
:103190000DD0D9F8001004280DD00D6009F10409F4
:1031A00067E1D9F80010EA17C1E90052F6E7D9F84B
:1031B00000100D80F2E70D70F0E719F8041B8DF890
:1031C000001000208DF80100EA46012003E059F8C4
:1031D00004AB4FF0FF3061074FF0000102D40DE067
:1031E00008F101018846B9420FDA8045F8DB1AF888
:1031F00008100029F4D108E008F101018846814255
:10320000FADB1AF808100029F6D105985B46A0EB06
:10321000080721463846179A00F094FA284400EB34
:10322000080507E04DE029E10DE01AF8010B5A46C8
:1032300017999047B8F10108F7D25B462146384606
:10324000179A13E142E00A220092C4F302524FF0AF
:10325000000A022A08D059F804CB032A4FEAEC717D
:103260000AD00DE029E02AE009F1070121F0070268
:10327000F2E802C1914609E00FFA8CFC4FEAEC71CA
:10328000042A03D14FFA8CFC4FEAEC71002907DACB
:103290000A460021DCF1000C61EB02012D2202E064
:1032A000220504D52B228DF80420012203E0E20739
:1032B00001D02022F7E7904659E00A2102E01022CF
:1032C0000DE010214FF0000A00910BE010224FF0AA
:1032D000000A44F004040827009203E008224FF09B
:1032E000000A0092C4F30252022A05D059F804CB16
:1032F0000021032A08D009E009F1070121F00702A3
:10330000F2E802C1914605E01FFA8CFC042A01D1C3
:103310000CF0FF0C4FF00008220728D5702806D0CB
:10332000009B83F0100353EA0A0305D00EE040220D
:103330008DF80420012208E05CEA010206D0302268
:103340008DF804208DF8050002229046009B83F042
:10335000080353EA0A030AD15CEA010201D16207B9
:1033600005D530228DF804204FF001087F1E582823
:1033700004D034A003900EA802900DE036A0F9E727
:1033800053466046009AFDF7A9F884460398825C8C
:103390000298401E029002705CEA0100F0D102988F
:1033A00006A9081A00F1200A600702D524F4803427
:1033B00000E00127574502DDA7EB0A0000E00020EE
:1033C00000EB0A01009005984144401A0590E00383
:1033D00006D45B462146179A059800F0B3F90544D8
:1033E000002706E001A85A46C05D179990476D1C5A
:1033F0007F1C4745F6DBE0030CD55B462146179A58
:10340000059800F09FF9054404E030205A461799CA
:1034100090476D1C0099481E00900029F5DC08E0DB
:10342000029802995A460078491C029117999047D0
:103430006D1CBAF10001AAF1010AF1DC65E100009E
:10344000092801003031323334353637383961627A
:10345000636465660000000030313233343536373E
:1034600038394142434445460000000000F058F915
:103470000544761C307800287FF4ECAD19B028465E
:10348000BDE8F08F620700D4062709F1070222F099
:10349000070CFCE80223E14603F000485FEA080C51
:1034A00002D00FF2702C0DE05FEA045C02D50FF23F
:1034B000682C07E05FEAC47C02D00FF2602C01E0C8
:1034C000AFF2700C4FF0FF3823F00043CDF850C03E
:1034D00065280CD006DC452809D046281DD0472891
:1034E0003DD13DE0662818D067287ED138E0002124
:1034F000112F01DB112000E0781CCDE9000106A9A5
:103500000EA8FFF7EDFCDDE90F010E9A03910021F3
:10351000009207F1010A04914DE04FF0004000973E
:10352000CDE9011006A90EA8FFF7DAFCDDE90F02CC
:1035300003920E9B11990022DDF80CA000930492D7
:1035400011B9791C00EB010AB7EB0A0004D4C0F1F1
:10355000FF3007F1010A0490AAEB0700019044E054
:10356000012F00DA01270021112F01DD112000E0D9
:103570003846CDE9000106A90EA8FFF7B1FCDDE948
:103580000F010E9A0391002104910092BA4621077F
:103590000CD40399514500DA8A46BAF1010F05DDD2
:1035A000009AAAF10101515C302908D0B84202DA30
:1035B00010F1040F06DA0121CDE9011015E0AAF19E
:1035C0000101E9E7002805DC049901440491AAEB14
:1035D000000102E0411C514500DD8A460499401A71
:1035E000401C01904FF000400290200704D4019845
:1035F000504501DBCDF8048000208DF84F00029883
:103600000DF14F07B0F1004F25D02B200E900298FE
:103610004FF0020800280CDA404202902D200E9054
:1036200007E00A210298FCF743FF3031029007F8C7
:10363000011DB8F10001A8F10108F2DC0298002890
:10364000EFD1791E0E980870307800F0200040F01D
:10365000450007F8020D12A8C01B00F107081498D6
:10366000007800B1012000EB0A01019801EBE07144
:1036700005984144401A401E0590E00306D45B467D
:103680002146179A059800F05DF8054414980078D3
:1036900018B15A46179990476D1CE00324D55B4634
:1036A0002146179A059800F04DF805441CE004984F
:1036B000002807DBDDE90301884203DD0098405C58
:1036C000179901E0179930205A469047049805F160
:1036D0000105401C04900198401E019004D12E2049
:1036E0005A46179990476D1CBAF10001AAF1010AD8
:1036F000DDDC05E017F8010B5A46179990476D1C61
:10370000B8F10001A8F10108F4DC5B462146179AE4
:103710000598ABE62D0000002B0000002000000003
:103720002DE9F041044600251E461746880404D4BE
:1037300005E039462020B0476D1C641EF9D52846A7
:10374000BDE8F0812DE9F041044600251E46904673
:10375000C80301D5302700E02027880404D505E000
:1037600041463846B0476D1C641EF9D52846BDE871
:10377000F081000013B54FF47A73012269460248C4
:10378000FEF798FE01201CBDAC010020FDF7EAFC0D
:10379000FFF75CF8FEF716FFFEF754FFFFF724F87B
:1037A000FEF7E8FEFEF7B6FFFEF7E8FF1C4947F21A
:1037B00030500968486218211948FEF779FA00F07C
:1037C000DDF800F071F800211648FEF7F7FB012242
:1037D00015491648FEF784FD1248FEF76DF91249A7
:1037E0000122491E1148FEF77BFD0F496423472241
:1037F000C91D0E48FEF75EFE0D48FEF75DF90A4C46
:103800004FF4FA75641E0B48FDF7ACFA29460948D7
:10381000FDF710FA0748FDF74BF96060F3E7000089
:103820006C010020EC00002001000020AC01002011
:103830002C010020BC0000202DE9F041194CD4E9F6
:1038400005100D1AA0F29440B0F5FA7F02D8206955
:1038500028442061E069E561281AFCF7D8FDA168D9
:10386000FCF7FCFC07462069FCF7D1FD6168FCF71A
:10387000F5FC06462846FCF7CAFD2168FCF7EEFC7D
:103880003146FCF793FC3946FCF790FCFCF7C8FD89
:10389000A062616A884202DC216A884200DAA16281
:1038A000BDE8F081900000200B480C4A00218260A6
:1038B0004FF07C5242600A4A0260C822C0E90321EC
:1038C00040F28E52C0E90521064AC0E90712120CE7
:1038D000C0E909217047000090000020CDCCCCBD8C
:1038E0003333333F0100FFFF014948617047000057
:1038F000640000202DE9F0411F4CD4E90501451A70
:1039000004F12C008069A0F29440B0F5FA7F02D84F
:10391000206928442061D4E90301814202DC40424D
:10392000814200DA2061E069E561281AFCF76FFD49
:10393000A168FCF793FC07462069FCF768FD616805
:10394000FCF78CFC06462846FCF761FD2168FCF775
:1039500085FC3146FCF72AFC3946FCF727FCFCF7CE
:103960005FFDA062616A884202DC216A884200DA57
:10397000A162BDE8F0810000640000200A480B4A03
:10398000002182604FF080424260094A0260B42206
:10399000C0E903214161074A8161C0E9071252422F
:1039A000C0E9092170470000640000200000F0C158
:1039B0000000AA4219FCFFFF000000000000000008
:1039C00001020304060708090000000001020304C5
:1039D000F03900080000002064000000C02E00083C
:1039E000543A0008640000208C050000D02E000826
:1039F00000000000000000000D0A2A2A2A2A2A2AB4
:103A00005541525420636F6D6D75636974696F6EB3
:103A1000207573696E672049542A2A2A2A2A2A0D9A
:103A20000A506C6561736520656E74657220313073
:103A300020636861726163746572733A0D0A0000F5
:103A400001000000100000000000000000A24A0475
:043A50000000000072
:0400000508000131BD
:00000001FF
