:020000040800F2
:10000000B8090020CD01000843260008752100082A
:1000100041260008D30200086532000800000000F5
:10002000000000000000000000000000872700081A
:100030003F03000800000000852700089128000801
:10004000E7010008E7010008E7010008E7010008F0
:10005000E7010008E7010008E7010008E7010008E0
:10006000E7010008E7010008E7010008E7010008D0
:10007000FD020008E701000809030008E701000885
:10008000E7010008E7010008E7010008E7010008B0
:10009000E7010008E7010008E7010008E7010008A0
:1000A000E7010008E7010008E7010008E701000890
:1000B000E7010008E7010008E7010008E701000880
:1000C000E7010008E7010008E7010008E701000870
:1000D000E7010008413200084D320008593200089B
:1000E000E7010008E7010008E7010008E701000850
:1000F000E7010008E7010008E7010008E701000840
:10010000E7010008E7010008F5280008E7010008FA
:10011000E7010008E7010008E7010008E70100081F
:10012000E7010008E7010008E7010008E70100080F
:1001300000F002F800F03AF80AA090E8000C8244BF
:100140008344AAF10107DA4501D100F02FF8AFF29C
:10015000090EBAE80F0013F0010F18BFFB1A43F0A5
:10016000010318478C390000AC390000103A24BF55
:1001700078C878C1FAD8520724BF30C830C144BF0C
:1001800004680C607047000000230024002500264E
:10019000103A28BF78C1FBD8520728BF30C148BFEA
:1001A0000B6070471FB51FBD10B510BD00F058F8AB
:1001B0001146FFF7F7FF03F0F1F800F076F803B40B
:1001C000FFF7F2FF03BC00F07DF80000094880470C
:1001D00009480047FEE7FEE7FEE7FEE7FEE7FEE729
:1001E000FEE7FEE7FEE7FEE704480549054A064B41
:1001F00070470000F328000831010008B803002010
:10020000B8090020B8050020B80500204FF0000212
:1002100000B5134694469646203922BFA0E80C50FC
:10022000A0E80C50B1F12001BFF4F7AF090728BFD7
:10023000A0E80C5048BF0CC05DF804EB890028BF53
:1002400040F8042B08BF704748BF20F8022B11F07C
:10025000804F18BF00F8012B7047704770477047F8
:10026000754600F02BF8AE4605006946534620F06F
:100270000700854618B020B5FFF7B6FFBDE820405F
:100280004FF000064FF000074FF000084FF0000B52
:1002900021F00701AC46ACE8C009ACE8C009ACE805
:1002A000C009ACE8C0098D46704710B50446AFF3ED
:1002B00000802046BDE81040FFF781BF004870472E
:1002C0005803002001491820ABBEFEE726000200BB
:1002D0007047FEE7074810B5C06803F0BFF906494C
:1002E000086004481430C06803F0B8F90249091DD9
:1002F000086010BDD001002034040040014800F027
:10030000DDB8000014030020014800F0D7B8000059
:10031000D002002030B590F840500124AC40C56BAD
:100320006C60046863604368102B036803D09960B5
:100330000068C26030BD9A600068C16030BD70471F
:1003400072B6FEE710B590F821100022022905D000
:100350000421816380F82020012010BD01680B6812
:1003600023F00E030B6001680B6823F001030B60A0
:1003700090F84030C46B012101FA03F3636080F808
:10038000211080F82020104610BD00002DE9F05FFC
:1003900090F821100024022903D004218163012454
:1003A00085E001680A6822F00E020A6001680A68A6
:1003B00022F001020A603F4E3E4FB215DFF8F4C052
:1003C000DFF8F090DFF8ECA0DFF8E8B0DFF8E4E069
:1003D0000168783F13011502ACF1640CA9F15009D2
:1003E000AAF13C0AABF1280BAEF1140E4FF48018C1
:1003F000B14227D9B9420ED0614512D049451DD02E
:10040000514518D0594518D0714501D1424615E0E3
:10041000294EB14201D1012210E0274E1436B142DB
:1004200001D110220AE0244E2836B14206D0224AD9
:100430003C32914201D11A4600E02A461E49091F6A
:100440000A602BE0B94213D0614517D0494522D04C
:1004500051451DD059451DD0714501D142461AE084
:10046000B14202D14FF0807215E0134EB14201D17A
:10047000012210E0104E1436B14201D110220AE0E0
:100480000D4E2836B14206D00B4A3C32914201D182
:100490001A4600E02A46074980394A60012180F85F
:1004A0002110002180F82010416B01B188472046BF
:1004B000BDE8F09F80000240080402402DE9F05F93
:1004C000C16B0A6801680B68046C4FF0040808FAF5
:1004D00004F8844D844E854FDFF814C2DFF814927F
:1004E000DFF814A2DFF814B2DFF814E218EA020F02
:1004F00065D05FEA437862D50A68920603D40A6839
:1005000022F004020A60DFF8F0814FF48062016893
:1005100008F1140813011402414524D9A9420DD051
:10052000B1420FD0B9421AD0614515D0494515D016
:10053000514501D1120312E0594501D104220EE0C8
:10054000714501D140220AE06D4D1435A94206D013
:100550006B4A2832914201D11A4600E0224667498F
:10056000091F0A6029E0A94213D0B14215D0B9424F
:1005700020D061451BD049451BD0514502D14FF4D5
:10058000800217E0414502D14FF0806212E05945E8
:1005900001D104220EE0714501D140220AE0584DFC
:1005A0001435A94206D0564A2832914201D11A4642
:1005B00000E022464B4908394A60C16A71E04FF0B9
:1005C000020808FA04F818EA020F70D05FEA83788C
:1005D0006DD50A68920606D40A6822F00A020A60FB
:1005E000012180F82110DFF810814FF400720168BA
:1005F00008F1140813011402414524D9A9420DD071
:10060000B1420FD0B9421AD0614515D0494515D035
:10061000514501D1120312E0594501D102220EE0E9
:10062000714501D120220AE0354D1435A94206D08A
:10063000334A2832914201D11A4600E022462F491E
:10064000091F0A6029E0A94213D0B14215D0B9426E
:1006500020D061451BD049451BD0514502D14FF4F4
:10066000001217E0414502D14FF0007212E05945E7
:1006700001D102220EE0714501D120220AE0204D75
:100680001435A94206D01E4A2832914201D11A4699
:1006900000E02246134908394A60002180F8201002
:1006A000816A00291CD0BDE8F05F0847FFE70825F4
:1006B000A540154214D01A0712D50A6822F00E027E
:1006C0000A6090F84020C36B012101FA02F25A60DF
:1006D000816380F82110002180F82010016BE0E791
:1006E000BDE8F09F080002401C00024030000240BC
:1006F00044000240580002406C00024008040240DE
:100700001C04024030B560B11A4B026814219A42B1
:1007100009D2194B1344B3FBF1F189000164174965
:100720000AE0012030BD134B5B421344B3FBF1F1EF
:10073000890001640F490839C163022180F8211042
:10074000136843F6F0718B43F0E901142143D0E9BB
:1007500002452C43214304692143446921438469B0
:10076000214319431160002141630122427701773F
:10077000084630BD08040240F8FFFDBF00000240FB
:1007800070B5044690F82000002501280CD0012007
:1007900084F8200094F821600020012E06D084F80F
:1007A00020000225284670BD022070BD022684F874
:1007B0002160A0632068066826F0010606602046D6
:1007C000FFF7A8FDE06A00282068016802D041F028
:1007D0000E0106E021F0040101602068016841F08B
:1007E0000A0101602068016841F001010160D9E758
:1007F00070B5044600F014F90546601C02D00448A8
:100800000078044400F00CF9401BA042FAD370BDFC
:100810005C0000202DE9F84FDFF8C8910024A9F111
:10082000040B23460F2709F1040AABF1040ED1E0B3
:100830000125A54006EA0502AA4276D1DFF8A8C143
:100840004E68A6EB0C0866452BD00DDC032E34D089
:1008500005DC36B3012E19D0022E2FD11BE0112E4C
:1008600016D0122E2AD119E0B8F5881F19D006DC4F
:10087000B8F5803F15D0B8F5801F1FD111E0B8F54D
:10088000001F0ED0B8F5041F18D10AE0CB6815E0A0
:10089000CB681B1D12E0CB6808330FE0CB680C332C
:1008A0000CE08B682BB1012B4FF0080303D045619E
:1008B00004E0042302E0056100E00023FF2A01D8E0
:1008C000064601E000F104064FEA840501D9A5F1CE
:1008D0002005D6F8008007FA05FC28EA0C0803FA80
:1008E00005F548EA0508C6F800804D68ED0070D5AA
:1008F0003E4DAE6946F00106AE61AD6924F00306D7
:1009000005F0010500953A4D06EB050CDCF80850A2
:10091000A607360F07FA06F825EA0805DFF8D4809F
:10092000404503D14FF0000825E052E0DFF8C880D1
:10093000404502D14FF001081DE0DFF8C08040457E
:1009400002D14FF0020816E0DFF8B480404502D132
:100950004FF003080FE0DFF8AC80404502D14FF0C4
:10096000040808E0DFF8A080404502D14FF00508F8
:1009700001E04FF0060808FA06F848EA0508CCF846
:1009800008804D68D9F80060ED024D4601D5164348
:1009900000E096432E604D68DAF80060AD025546DF
:1009A00001D5164300E096432E604D68DBF80060E9
:1009B000AD035D4601D5164300E096432E604D68B9
:1009C000DEF80060ED03754601D5164300E096435E
:1009D0002E60641C0A681646E2407FF429AFBDE829
:1009E000F88F0000080401400000111000100240C0
:1009F0000000014000080140000C014000100140CF
:100A00000014014000180140001C014080680840AB
:100A100000D0012070470AB1016170470904FBE76B
:100A200001488068704700005C00002070B5040039
:100A300025D094F83D00002520B984F83C5020468C
:100A400000F0B8F8242084F83D002068016821F007
:100A5000010101602068016841F4004101602068E3
:100A6000016821F40041016000F0F8F94D4A616825
:100A7000914201D84C4900E04C49884201D2012002
:100A800070BD4B492368B0FBF1F15E6826F03F066C
:100A90000E435E606368934206D94FF496735943E0
:100AA0004FF47A73B1FBF3F12368491C1E6A26F0F8
:100AB0003F06314319626168914210D84900401ED7
:100AC000B0FBF1F2521CC2F30B02042A01D2042043
:100AD00022E0B0FBF1F0401CC0F30B001CE0A26868
:100AE000F2B301EBC10303EB0116431EB3FBF6F3B4
:100AF0005B1C43F480431B0549D092B301EBC10258
:100B000002EB0111401EB0FBF1F0401CC0F30B00E2
:100B100040F4804040F400402168CA694CF6FF73FD
:100B20009A431043C861D4E9071001432068026862
:100B300022F0C00211430160D4E90301014320689F
:100B4000826848F2FF339A4311438160D4E905017A
:100B500008432168CA6822F0FF021043C86001E020
:100B60000EE016E02068016841F001010160256493
:100B7000202084F83D00256384F83E50002070BD9D
:100B800001EB4106431EB3FBF6F35B1CB3E7012008
:100B9000C2E701EB4101401EB0FBF1F0401CC0F385
:100BA0000B00B7E7A086010080841E0000093D000D
:100BB00040420F0010B586B00021009101910291D2
:100BC000039100680F4988421AD10F4CA06940F088
:100BD0000800A061A069694600F008000490C020E8
:100BE000009012200190032003900848FFF712FEA6
:100BF000E06940F40010E061E06900F40010049046
:100C000006B010BD0054004000100240000C01402E
:100C10000248816802781144816070475C000020BE
:100C2000074810B5016841F010010160032000F091
:100C30006DF80F2000F006F800F024F8002010BD39
:100C40000020024070B50D4D04464FF47A712878AB
:100C5000B1FBF0F00A490968B1FBF0F000F0D4FAFA
:100C600048B9102C07D200222146501E00F02EF861
:100C700000206C6070BD012070BD00005C00002091
:100C800068000020094808B5816941F001018161CF
:100C9000816901F001010091C16941F08051C16198
:100CA000C06900F08050009008BD000000100240B4
:100CB000002809DB00F01F0201219140400980005B
:100CC00000F1E020C0F8001170470000F0B40E4BB6
:100CD0001B680C46C3F30223C3F10705042D00D99A
:100CE0000425191D072901D2002300E0DB1E01267F
:100CF00006FA05F1491E214099409E40761E164095
:100D00003143F0BC02F03ABB0CED00E0064900F0C4
:100D1000070208684FF6FF03184040EA0220034A22
:100D200010430860704700000CED00E00000FA0579
:100D30002DE9F0470F46050061D0434E306800F0C2
:100D40000700B84209D2306820F00700384330600D
:100D5000306800F00700B84251D128683B4C810749
:100D600012D5400703D5606840F4E06060602878E1
:100D7000000703D5606840F4605060606068A9684F
:100D800020F0F000084360602878C00728D0686829
:100D9000012810D02168022810D0890700292EDAF6
:100DA000616821F0030101436160FFF739FE80466D
:100DB00041F288390DE021688903EFE78901EDE709
:100DC000FFF72EFEA0EB0801494502D90320BDE83C
:100DD000F0876068696800F00C00B0EB810FEFD11C
:100DE000306800F00700B8420BD9306820F00700E7
:100DF00038433060306800F00700B84201D001206D
:100E0000E5E72878400705D56068E96820F4E060E8
:100E1000084360602878000706D56068296920F4D7
:100E2000605040EAC100606000F038F86168084A2C
:100E3000C1F30311515CC8400649086006480068C8
:100E4000FFF700FF0020C2E7002002400010024030
:100E5000D83A0008680000206000002004480549D6
:100E600000684968044AC1F30221515CC8407047D8
:100E70006800002000100240E83A000804480549D4
:100E800000684968044AC1F3C221515CC8407047F8
:100E90006800002000100240E83A00080E4A51683D
:100EA0000E4801F00C03042B11D0082B0FD10C4875
:100EB000C1F38343C903C05C0AD55168084AC1F332
:100EC0004041921E515C054A5043B0FBF1F070471F
:100ED00004494843704700000010024000127A00A5
:100EE000C83A000800093D002DE9F84F040070D011
:100EF0002078C04DC00749D06868C0F38100012840
:100F000007D06868C0F38100022809D16868C0036F
:100F100006D52868800339D560680028E7D035E019
:100F20006068B0F5803F0BD010B1B0F5A02F11D0A4
:100F3000286820F480302860286820F4802002E0AF
:100F4000286840F480302860606890B1FFF768FD41
:100F500006460AE0286840F480202860F0E700BFD9
:100F6000FFF75EFD801B642873D828688003F7D5DF
:100F70000CE0FFF755FD064605E000BFFFF750FD0A
:100F8000801B6428F0D828688003F7D420789A4E14
:100F900080074FF001094FF0000839D5686810F05C
:100FA0000C0F07D06868C0F38100022809D1686877
:100FB000C00306D42868800714D52069012808D109
:100FC00010E02069B0B1C6F80090FFF729FD074690
:100FD00005E00AE1FFF724FDC01B0228C4D82868F9
:100FE0008007F7D52868616920F0F80040EAC10061
:100FF00028600DE0C6F80080FFF712FD074604E008
:10100000FFF70EFDC01B022823D828688007F7D4FD
:10101000207800072CD57948A169D9B1C0F8009093
:10102000FFF7FEFC074604E0FFF7FAFCC01B0228AE
:101030000FD8686A8007F7D571484FF4FA510068F5
:10104000B0FBF1F0009000BF0098411E0091FAD271
:101050000EE080E0C0F80080FFF7E2FC074604E005
:10106000FFF7DEFCC01B022875D8686A8007F7D43A
:101070002078400760D5E8690027C00008D4E869F7
:1010800040F08050E861E869012700F0805000904E
:101090005C480168C90513D40168834641F4807136
:1010A0000160FFF7BDFC824606E000BFFFF7B8FC19
:1010B000A0EB0A0064284ED8DBF80000C005F5D587
:1010C000E06801280AD008B1052813D0286A20F06A
:1010D00001002862286A20F0040002E0286A40F03B
:1010E00001002862E06841F2883B98B1FFF798FC64
:1010F00082460BE0286A40F004002862EEE700BF59
:10110000FFF78EFCA0EB0A0159455AD8286A8007E0
:10111000F6D50CE0FFF784FC824605E0FFF780FC83
:10112000A0EB0A0159454CD8286A8007F6D41FB1B4
:10113000E86920F08050E861E06988B36968C1F32C
:101140008101022944D00228C6F8608004D0FFF74C
:1011500067FC044638E034E0FFF762FC074604E031
:10116000FFF75EFCC01B02282BD828688001F7D44B
:10117000206AB0F5803F05D16868A16820F400308E
:1011800008436860D4E908010843696821F47411D0
:1011900008436860C6F86090FFF742FC044606E02A
:1011A00025E000BFFFF73CFC001B022809D8286897
:1011B0008001F7D51BE000BFFFF732FC001B0228BF
:1011C00002D90320BDE8F88F28688001F4D40EE02E
:1011D0000128F7D06868226A00F48031914204D176
:1011E000616A00F47010884201D00120EAE7002013
:1011F000E8E7000000100240000042428004424242
:10120000680000200070004010B5401EB0F1807FE3
:1012100001D3012010BD4FF0E02460610F21601761
:1012200002F0ACF80020A06107202061002010BD72
:101230007047704770B590F83C20012A2CD00124EB
:1012400080F83C40022280F83D2003685A689D687F
:1012500022F070060A6832435A60104B02689A42C4
:101260000ED00F4B9A420BD0B2F1804F08D00D4BED
:101270009A4205D00C4B9A4202D00C4B9A4204D1B0
:10128000496825F080031943916080F83D400021B2
:1012900080F83C10084670BD022070BD002C014053
:1012A000003401400004004000080040000C0040F1
:1012B00010B5040003D094F83D0010B107E0012000
:1012C00010BD002084F83C00204600F01FF80220EA
:1012D00084F83D00211D206801F012FB012084F8F4
:1012E000460084F83E0084F83F0084F8400084F80B
:1012F000410084F8420084F8430084F8440084F8F4
:10130000450084F83D00002010BD000008B50068CD
:101310000B49884212D10B48C16941F00801C161F3
:10132000C069002200F00800009011463220FFF74B
:10133000CDFCBDE808403220FFF7BABC08BD000074
:10134000000C00400010024090F83D10012901D02F
:1013500001207047022180F83D100168CA6842F000
:101360000102CA6000680E4988420ED00D498842C9
:101370000BD0B0F1804F08D00B49884205D00B4903
:10138000884202D00A49884204D1816801F00701ED
:10139000062903D0016841F0010101600020704777
:1013A000002C0140003401400004004000080040CF
:1013B000000C004070B5044690F83C000025012860
:1013C00017D0012684F83C60022084F83D00206894
:1013D000826822F0770222F47F42826008685028F7
:1013E00038D00DDC20284FD005DC90B3102811D167
:1013F0004AE0022070BD302846D040280AD13BE0A8
:1014000060282FD070280DD0B0F5805F03D0B0F5E4
:10141000005F12D0012584F83D60002084F83C0074
:10142000284670BDCB68D1E90121206801F0BBFAE4
:101430002068816841F0770109E0CB68D1E901219A
:10144000206801F0B0FA2068816841F48041816031
:10145000E1E719E0CA684968206801F079FB50218A
:10146000206806E0CA684968206801F0B9FB60217D
:10147000206801F0A2FACEE7CA684968206801F046
:1014800067FB40212068F4E7226801461046F0E738
:1014900070472DE9F041054690F83C0000260C46C7
:1014A000012810D0012085F83C0072B1042A1CD01C
:1014B000082A2CD00C2A50D00126002085F83C00A8
:1014C0003046BDE8F0810220FBE7D4E90012E36872
:1014D000286801F04FFB2868816921F00C018161C7
:1014E00028688169A26811430FE0D4E90012E3681B
:1014F000286801F087FB2868816921F440618161D7
:1015000028688169A26841EA02218161D5E72868DB
:10151000D4E9002C277B036A016A21F480710162FF
:10152000C16923F4007321F0030141EA0C0121F0A9
:10153000F00C39074FF400774CEA116107EA0222F8
:101540001A43C16102622868C16921F00C01C161BE
:101550002868C169A26811432BE02868D4E90021FA
:10156000E768036AD0F820C02CF4805CC0F820C083
:10157000D0F81CC023F400532CF4407C4CEA012129
:1015800021F4704C4FF6FF7101EA07314FF4005718
:1015900041EA0C0107EA02321A43C161026228687B
:1015A000C16921F44061C1612868C169A26841EA4A
:1015B0000221C16181E710B5040003D094F83D0019
:1015C00010B107E0012010BD002084F83C00204647
:1015D00000F01EF8022084F83D00211D206801F073
:1015E0008FF9012084F8460084F83E0084F83F001B
:1015F00084F8400084F8410084F8420084F84300F5
:1016000084F8440084F8450084F83D00002010BDB3
:1016100000B585B00021009101910291039100680D
:101620001249884220D11248816941F400618161E8
:10163000816901F400610491816941F04001816197
:101640008069694600F0400004904FF480400090AB
:101650000848FFF7DFF80848416821F0C00141F071
:10166000E06141F0C001416005B000BD002C0140C7
:1016700000100240001801400000014070B504460F
:10168000006801694FF00005C943890715D4C16896
:10169000C943890711D4E91E016101202077206820
:1016A00080698007204602D0FFF7F2FE04E000F0D8
:1016B000BFF8204600F064F9257720680169C94326
:1016C000490717D4C168C943490713D46FF004010F
:1016D0000161022020772068806910F4407F204655
:1016E00002D0FFF7D5FE04E000F0A2F8204600F09B
:1016F00047F9257720680169C943090716D4C168ED
:10170000C943090712D46FF0080101610420207752
:101710002068C0698007204602D0FFF7B9FE04E0C8
:1017200000F086F8204600F02BF925772068016943
:10173000C943C90617D4C168C943C90613D46FF099
:1017400010010161082020772068C06910F4407FF3
:10175000204602D0FFF79CFE04E000F069F8204626
:1017600000F00EF9257720680169C943C90708D13F
:10177000C168C943C90704D1891E0161204600F030
:101780005BF920680169C943090609D4C168C943E6
:10179000090605D46FF0800101612046FFF748FD7E
:1017A00020680169C943490609D4C168C94349068B
:1017B00005D46FF040010161204600F0F1F9206886
:1017C0000169C94389060BD4C168C943890607D496
:1017D0006FF0200101612046BDE87040FFF729BD90
:1017E00070BD000000B585B000210091019102910B
:1017F000039100680B49884211D10B48816941F07F
:10180000040181618069694600F004000490C020F1
:1018100000900220019003900448FEF7FBFF05B002
:1018200000BD00000004004000100240000801401C
:10183000704770B5044690F83C0000260D4601281C
:101840000FD0012084F83C006AB1042A1DD0082A78
:101850002FD00C2A3FD00126002084F83C003046CF
:1018600070BD022070BD206801F0B0F82068816969
:1018700041F0080181612068816921F004018161E2
:10188000206881692A69114311E0206801F0CEF8CF
:101890002068816941F4006181612068816921F4D7
:1018A00080618161206881692A6941EA0221816140
:1018B000D2E7206801F0F0F82068C16941F0080122
:1018C000C1612068C16921F00401C1612068C1695A
:1018D0002A69114311E0206801F012F92068C169FA
:1018E00041F40061C1612068C16921F48061C16176
:1018F0002068C1692A6941EA0221C161ACE710B5DB
:10190000040003D094F83D0010B107E0012010BDA1
:10191000002084F83C00204600F01EF8022084F8E5
:101920003D00211D206800F0EBFF012084F84600F7
:1019300084F83E0084F83F0084F8400084F84100B9
:1019400084F8420084F8430084F8440084F8450099
:1019500084F83D00002010BD08B5006806498842A3
:1019600008D10648C16941F00201C161C06900F0B7
:101970000200009008BD000000040040001002407A
:101980007047000010B50446022249B104290ED068
:10199000082913D094F84100012816D0012010BD69
:1019A00094F83E000128F9D184F83E200FE094F825
:1019B0003F000128F2D184F83F2008E094F840006D
:1019C0000128EBD184F8402001E084F84120012275
:1019D000206800F0DBFF13492068134A884201D0D9
:1019E000904203D1436C43F400434364206888422F
:1019F0000DD090420BD0B0F1804F08D00B498842F7
:101A000005D00B49884202D00A49884204D1816836
:101A100001F00701062903D0016841F001010160CE
:101A2000002010BD002C01400034014000040040A3
:101A300000080040000C00402DE9F041554C606862
:101A4000401C6060012873D100236360524D534EE7
:101A50002746A8793178B446BA68A0EB010E9CF805
:101A600001C03F68521C0EF1090EBEF1120F09D8D9
:101A700095F807E0AEEB0C0E0EF1090EBEF1120F59
:101A800000D8EFB395F804E0AEEB010E0EF1090EAD
:101A9000BEF1120F0AD895F805E0AEEB0C0E0EF170
:101AA000090EBEF1120F01D8012F33D095F802E0D4
:101AB000AEEB010E0EF1090EBEF1120F0AD895F829
:101AC00003E0AEEB0C0E0EF1090EBEF1120F01D8C1
:101AD000022F26D095F800E0AEEB010E0EF1090EB4
:101AE000BEF1120F0AD895F801E0AEEB0C0C0CF128
:101AF000090CBCF1120F01D8032F1AD0A36000E02B
:101B000001E0DFB120E0A260142A17DB0120A3600E
:101B100020601CE0A260142A19DB0220A360206070
:101B200020E0A260142A1DDB0320A360206024E0D3
:101B30002BE0A260142A20DB2360A36000F082FD6A
:101B40007178E87900F0CEFD2068012807D131785E
:101B5000287900F077FD7178687900F0C3FD20687E
:101B6000022807D13178A87800F06CFD7178E87808
:101B700000F0B8FD2068032807D13178287800F0FC
:101B800061FD7178687800F0ADFDBDE8F041FEF7C9
:101B9000A1BB0000380000202C0000201E00002007
:101BA0007047704770470000F8B501680446086840
:101BB000CA684B6910F00F0F4FF0000559D003F0C1
:101BC000010602F49077374365D0C10705D0D105EF
:101BD00003D5616C41F001016164410705D5D90766
:101BE00003D0616C41F002016164810705D5D9071A
:101BF00003D0616C41F004016164010707D502F074
:101C00002001314303D0616C41F008016164616CD3
:101C100000293AD0800604D5900602D5204601F06E
:101C200035FA20684069616CC0F38010090700D460
:101C300060B3204601F0F5F920684069400621D5DF
:101C40002068143050E8001F21F0400140E80012E5
:101C5000002AF5D1E06BA8B16D494163E06BFEF756
:101C600095FB002811D0E06B416B01B0BDE8F0405E
:101C7000084783060FD593060DD52046BDE8F840EA
:101C800001F004BA2046FFF78DFFF8BD2046FFF7AC
:101C900089FF6564F8BD266B2023012E7CD1C60622
:101CA0007AD5D60678D508684868009048694FF01C
:101CB0000206400640D5E16B086840680004000C4D
:101CC000E8D0A28D8242E5D9E085886920282DD010
:101CD00020680C3050E8001F21F4807140E80012A9
:101CE000002AF5D12068143050E8001F21F00101CE
:101CF00040E80012002AF5D12068143050E8001F97
:101D000021F0400140E80012002AF5D184F8423069
:101D1000256320680C3050E8001F21F0100140E8D6
:101D20000012002AF5D1E06BFEF70CFB6663A08D74
:101D3000E18D401A81B22AE0A08DE18D401A81B276
:101D4000E08D0028A6D00029A4D022680C3252E8E9
:101D5000000F20F4907042E80007002FF5D12068B2
:101D6000143050E8002F22F0010240E80027002F35
:101D7000F5D184F84230256320680C3050E8002FFC
:101D800022F0100240E80023002BF5D166632046C4
:101D9000FFF707FFF8BDFFE705062BD5150629D588
:101DA00094F841002128F5D1A068B0F5805F01D1F9
:101DB0002069B0B1206A411C216221680078486026
:101DC000E08C401E0004000CE084E3D12068C16870
:101DD00021F08001C1602068C16841F04001C1600C
:101DE000D8E7206A0088C0F308004860206A801C99
:101DF0002062E5E74006CDD55006CBD5CA6820461F
:101E000022F04002CA6084F8413000F0B1F9C1E725
:101E10007D2F000870B5040004D094F8410000251F
:101E200010B106E0012070BD84F84050204600F05B
:101E300023F8242084F841002068C16821F400516F
:101E4000C160204601F084F92068016921F49041C5
:101E500001612068416921F02A0141612068C1685F
:101E600041F40051C1606564202084F8410084F889
:101E700042006563002070BD2DE9F04385B0002469
:101E80000094019402940394054603685A48DFF8CD
:101E900064C102210322DFF86481061510274FF088
:101EA0008009634537D1836943F480438361836943
:101EB00003F480430493836943F0040383618069DE
:101EC000039200F0040004900802CDE90001694685
:101ED0004046FEF79FFCCDE9006469464046029407
:101EE000FEF798FC474E46483060C6E90174C6E9E3
:101EF00003947461B4613046F461FEF703FC08B1E9
:101F0000FEF71EFAAE630022114625207562FEF729
:101F1000DDFE252029E0DFF8F0C063452AD1C36942
:101F200043F40033C361C36903F40033049383694A
:101F300043F0040383618069039200F0040004907D
:101F40000420CDE9000169464046FEF763FC082005
:101F5000CDE90004694640460294FEF75BFC00228E
:101F600011462620FEF7B2FE2620FEF7A1FE05B0A0
:101F7000BDE8F083DFF894C06345F8D1C36943F44A
:101F80008023C361C36903F480230493836943F00E
:101F9000080383618069CDE9006100F00800CDE9A4
:101FA00003201B4E69463046FEF734FCF014CDE9A1
:101FB0000004694630460294FEF72CFC114E10488E
:101FC000443628383060C6E90174C6E90394746168
:101FD000B4613046F461FEF795FB08B1FEF7B0F945
:101FE000AE630022114627207562FEF76FFE2720A0
:101FF000BBE700000038014000100240000801402B
:1020000044000240D002002000440040004800404C
:10201000000C014090F84230202B01D00220704784
:1020200021B11AB10023036301F0EEB8012070471B
:102030002DE9F0412D4C0227204694F801C0C168DB
:10204000027883684D1C01260020BCF1000F08D0E7
:10205000BCF1010F29D166602C2A2AD0122A2BD07C
:102060002CE066602C2A02D0122A03D004E01BB9AF
:10207000A66031E0012B02D0022B03D017E0C4E9A7
:10208000027029E05B2A04D0082910DA17481030C2
:102090001CE0A06008291FD16060012220211448A3
:1020A000FEF7B9FC6068012816D0BDE8F081A06099
:1020B00012E0002BDCD001E0012BE0D0022BF6D1A6
:1020C0005B2A06D00229F2DA0848801C4254E560F7
:1020D00002E0A060022906D0BDE8F04101220349D8
:1020E0000448FFF797BF6060DFE700001C00002096
:1020F000000C01404002002070B5044690F84100F9
:10210000202801D0022070BD49B342B32162A284CD
:10211000E28400206064212384F84130A56B114BD8
:10212000AB62A56B104BEB62A56B104B2B63A36BE3
:102130005863256813462A1DA06BFEF721FB216812
:102140006FF0400008602068143050E8001F41F034
:10215000800140E80012002AF5D1002070BD012066
:1021600070BD0000D72F0008193000088D2F00081F
:1021700070477047FEE7000070B51C4D10212846DF
:10218000FEF744FC1A4CC000202120702846FEF7C0
:102190003DFC217841EA8000207040212846FEF76E
:1021A00035FC217841EA4000207080212846FEF766
:1021B0002DFC2178084320700F280DD00A20FEF74F
:1021C00017FB20780F2807D0072807D00B2807D047
:1021D0000D2807D00E2807D0002070BD012070BD4B
:1021E000022070BD032070BD042070BD001C0140A2
:1021F0003400002070B52B4E0024224601213046C9
:10220000FEF709FCFFF7B8FF050004D0FFF7B4FFA5
:102210000028FBD12C460122114635463046FEF7F8
:10222000FAFB002202212846FEF7F5FBFFF7A4FF88
:10223000060005D0FFF7A0FF0028FBD1361DF4B241
:10224000012202212E462846FEF7E5FB002204214A
:102250003046FEF7E0FBFFF78FFF050006D000BF1A
:10226000FFF78AFF0028FBD10835ECB201220421D8
:102270003046FEF7D0FB002208213046FEF7CBFBAC
:10228000FFF77AFF050005D0FFF776FF0028FBD1A6
:102290000C35ECB2012208213046FEF7BCFB20468B
:1022A00070BD0000001C01400D4808B5416941F0B7
:1022B000010141614069002200F0010000901146D7
:1022C0000C20FEF703FD0C20FEF7F2FC0022114665
:1022D0000E20FEF7FBFCBDE808400E20FEF7E8BC30
:1022E000001002402DE9F04F85B000253F480095D1
:1022F000019502950395816941F0400181618169F1
:1023000001F040010491816941F01001816181690E
:1023100001F010010491816941F0800181618169BE
:1023200001F080010491816941F0040181618169BA
:1023300001F004010491816941F008018161806923
:102340002B4F00F00800049000220F213846FEF7C2
:1023500062FBDFF8A090002220214846FEF75BFBDD
:10236000DFF894A04FF48058002241465046FEF713
:1023700052FBDFF888B0002220215846FEF74BFBC5
:102380001820CDE900050124694602945046FEF765
:1023900041FA0F2002268DE8710069463846FEF7A3
:1023A00039FAF020CDE90005694602943846FEF777
:1023B00031FA20270097CDE9014669464846039641
:1023C000FEF728FA0320CDE90250CDE900846946E2
:1023D0005046FEF71FFACDE90074CDE90246694682
:1023E0005846FEF717FA05B0BDE8F08F001002401E
:1023F000001C01400008014000180140000C014091
:102400000D4810B50B4901600C49416000214FF4A3
:1024100080428160C0E9031241618161C161016252
:10242000FEF704FB002803D0BDE81040FDF788BF8D
:1024300010BD000000540040A4000020A086010050
:1024400010B586B0002419480594049400940194B2
:1024500002941549039401604721C0E901144FF625
:10246000FF71C0E9031444618461FFF7A4F808B167
:10247000FDF766FF049404A90C480594FEF7DAFE04
:1024800008B1FDF75DFF0120CDE9004002940C2268
:10249000694606480394FEF7FCFF002801D0FDF7CB
:1024A0004FFF06B010BD0000002C0140F8000020D6
:1024B00010B58AB0002407941C2168460894FDF7E3
:1024C000A5FE1A48184901604721C0E9011444F6E5
:1024D0001F61C0E903148461FFF711FA08B1FDF729
:1024E0002FFF079407A911480894FEF7A3FE08B12F
:1024F000FDF726FF6020CDE9000402940022694622
:102500000A480494FFF795F908B1FDF719FF042272
:1025100069460648FFF78DF908B1FDF711FF03483A
:10252000FFF760F90AB010BD000400404001002030
:1025300010B586B0002417480094019402940394C7
:1025400004941349059401604721C0E9011442F243
:102550000F71C0E9031480218161FEF7A9FE08B163
:10256000FDF7EEFE4FF48050009069460948FEF7F3
:1025700021FF08B1FDF7E4FE049404A90548059481
:10258000FEF758FE002801D0FDF7DAFE06B010BDB8
:10259000000C0040880100200C4810B50A49016079
:1025A0004FF4E1314160002181600C22C160C0E93B
:1025B00004128161C161FFF72DFC002803D0BDE842
:1025C0001040FDF7BDBE10BD00380140F8010020ED
:1025D0000C4810B50A4901604FF4E1314160002117
:1025E00081600C22C160C0E904128161C161FFF702
:1025F00011FC002803D0BDE81040FDF7A1BE10BDBE
:1026000000440040400200200C4810B50A49016017
:102610004FF4E1314160002181600C22C160C0E9CA
:1026200004128161C161FFF7F5FB002803D0BDE80A
:102630001040FDF785BE10BD004800408802002014
:10264000FEE7FEE72DE9F047204C081AD4E90378AD
:10265000276101F023F806463946E06001F020F9D1
:102660001B4D296801F046F881463146686801F043
:1026700041F804460121384601F0E7F9314601F0FE
:1026800005F9414600F082FFA96801F033F81149CD
:10269000114A06468C4201DD0C4602E0944200D904
:1026A00014462146484600F071FF314600F06EFFA7
:1026B000E96800F06BFF0949E860884202DC0849DC
:1026C000884200DAE960BDE8F087000038000020A9
:1026D000D00100200000A0400000A0C00040D14474
:1026E0000080AB442DE9F047204C081AD4E9067865
:1026F000E76100F0D3FF06463946A06101F0D0F84B
:102700001B4D296800F0F6FF81463146686800F0ED
:10271000F1FF04460121384601F097F9314601F0F6
:10272000B5F8414600F032FFA96800F0E3FF114917
:10273000114A06468C4201DD0C4602E0944200D963
:1027400014462146484600F021FF314600F01EFFA6
:10275000E96800F01BFF0949E860884202DC08498B
:10276000884200DAE960BDE8F08700003800002008
:10277000E40100200000A0400000A0C000E0E3440D
:1027800000A0C14470477047134A1368834202D1C6
:1027900053688B421ED01368834202D21068401CDB
:1027A00004E01368834202D91068401E106050682C
:1027B0008842506801D2401C03E0884202D9506828
:1027C000401E50601068054908605068091D086087
:1027D000002070470120704714000020340400409E
:1027E000134A1368834202D153688B421ED0136888
:1027F000834202D21068401C04E01368834202D96D
:102800001068401E106050688842506801D2401C19
:1028100003E0884202D95068401E506010680549A4
:1028200008605068091D086000207047012070474B
:102830000400002034040040134A1368834202D18C
:1028400053688B421ED01368834202D21068401C2A
:1028500004E01368834202D91068401E106050687B
:102860008842506801D2401C03E0884202D9506877
:10287000401E50601068054908605068091D0860D6
:1028800000207047012070470C00002034040040F5
:10289000FEF7BEB930B58FB028216846FDF7B6FC0B
:1028A00014210AA8FDF7B2FC01210804CDE90010AB
:1028B0000024029402250491CDE907504FF4E01062
:1028C00009906846FEF710FB08B172B6FEE70F20CC
:1028D000CDE90A054FF48060CDE90C4002210AA839
:1028E0000E94FEF725FA002801D072B6FEE70FB06D
:1028F00030BD70470148FEF7C1BE000088010020CE
:10290000F0B502681C4B1D4D1D4E1E4F1E4C4FF066
:10291000804C984209D0A04207D0604505D0A8421B
:1029200003D0B04201D0B84204D122F0700E4A6800
:1029300042EA0E02984209D0A04207D0604505D075
:10294000A84203D0B04201D0B84203D122F440756E
:10295000CA682A434D6922F080022A4302608A68CD
:10296000C2620A688262984201D0A04201D109691C
:10297000016301214161F0BD002C014000040040D1
:1029800000080040000C00400034014010B501F088
:102990001F030121046A99408C430462016A9A4032
:1029A0001143016210BD10B5846842EA032224F489
:1029B0007F440A432243826010BD826822F0700285
:1029C0000A4342F00701816070470000F0B5036AD6
:1029D000026A22F00102026242688469124E24F007
:1029E00073050C682C4323F002058B682B430D4DB7
:1029F000A84201D0B04205D123F00807CB683B4381
:102A000023F00403A84201D0B04205D14D6922F45D
:102A1000407215438A692A43426084614968416370
:102A20000362F0BD002C014000340140F0B5026AA1
:102A3000036A23F010030362436884690D6824F479
:102A4000E64444EA05248D6822F0200242EA051299
:102A50000F4D104EA84201D0B04206D1CF6822F0EF
:102A6000800242EA071222F04002A84201D0B0429E
:102A700007D14D6923F4406343EA85038D6943EA36
:102A8000850343608461496881630262F0BD000090
:102A9000002C014000340140F0B5026A036A23F4BF
:102AA000807303624368C46922F4007224F07305E2
:102AB0000C68124E2C438D6842EA05220E4DA84246
:102AC00001D0B04206D1CF6822F4006242EA072268
:102AD00022F48062A84201D0B04207D14D6923F4AC
:102AE000405343EA05138D6943EA05134360C4610B
:102AF0004968C1630262F0BD002C0140003401400E
:102B000030B5046A026A22F4805202624268C369E4
:102B10000D6823F4E64343EA05238D6824F400544A
:102B200044EA0534084DA84202D0084DA84204D119
:102B30004D6922F4804242EA85124260C3614968CD
:102B40000164046230BD0000002C014000340140EB
:102B500010B5036A046A24F001040462846924F055
:102B6000F00444EA021423F00A020A438461026278
:102B700010BD000070B5056A046A24F00104046207
:102B80008469124EB0420ED0114EB0420BD0B0F15B
:102B9000804F08D00F4EB04205D00F4EB04202D049
:102BA0000E4EB04203D124F00304144301E044F07C
:102BB00001041A0724F0F00444EA126225F00A0323
:102BC00001F00A0119438261016270BD002C0140CD
:102BD000003401400004004000080040000C0040A8
:102BE00010B5036A046A24F010040462846923F0B7
:102BF000A00324F4704444EA023243EA01118261E2
:102C0000016210BD30B5046A056A25F01005056241
:102C1000856925F4407545EA022222F470454FF695
:102C2000FF7202EA033224F0A0032A43A02404EA3C
:102C3000011119438261016230BD000010B51648D0
:102C4000164C0168C1B901210160217000F032F811
:102C5000134940F2F2500860091D40F29560086087
:102C6000012210491048FFF7D5F94FF4FA70FDF72B
:102C7000BFFD0E48FEF768FB0D480068002809D12B
:102C80002078012806D1BDE81040012205490648F8
:102C9000FFF7C0B910BD0000000000201D0000209B
:102CA000340400401C000020400200208801002065
:102CB0002000002070B52B482C4C294AC4602A4BB8
:102CC00000210260C0E9013129482B4C0260C0E9B3
:102CD00001312849C1602078A178A279084421797E
:102CE0001144084400F0F1FB6FF00106324600F099
:102CF0007EFE00F0BBFB05466078E178E27908448F
:102D000061791144084400F0E0FB324600F06FFEA8
:102D100000F0ACFB00226B1DB5F1050514F8121094
:102D2000994201DD491C02E0A94202DA491E04F879
:102D30001210521C042AF1DB0022431DB0F10500E1
:102D400004EB42056978994201DD491C02E08142A9
:102D500001DA491E6970521C042AF1DB70BD0000C3
:102D60000AD7233DD00100200AD7A33C0040BE442F
:102D7000E401002000A0D2442C000020054940F2CC
:102D8000F2500860091D40F2956008604FF4FA6047
:102D9000FDF72EBD34040040054940F2FA500860AA
:102DA000091D40F2A36008604FF4FA60FDF720BDF2
:102DB000340400402DE9F04140F2146640F2FE5721
:102DC00040F2BC6540F2596402E00A20FDF710FDB4
:102DD00029462046FFF7D8FC0028F6D002E00A205A
:102DE000FDF706FD29463046FFF7CEFC0028F6D059
:102DF00002E00A20FDF7FCFC39463046FFF7C4FC30
:102E00000028F6D002E00A20FDF7F2FC3946204601
:102E1000FFF7BAFC0028F6D002E00A20FDF7E8FC34
:102E200029462046FFF7B0FC0028F6D040F2956412
:102E300040F2F25521462846FFF7A6FC002803D1B0
:102E40000A20FDF7D5FCF5E7BDE8F0812DE9F0415A
:102E500040F25C5640F20D6740F21F7540F28A6402
:102E600002E00A20FDF7C4FC29462046FFF7B8FC23
:102E70000028F6D002E00A20FDF7BAFC29463046C9
:102E8000FFF7AEFC0028F6D002E00A20FDF7B0FC08
:102E900039463046FFF7A4FC0028F6D002E00A20AD
:102EA000FDF7A6FC39462046FFF79AFC0028F6D02D
:102EB00002E00A20FDF79CFC29462046FFF790FC23
:102EC0000028F6D040F2956440F2F255214628469B
:102ED000FFF786FC002803D10A20FDF789FCF5E7FF
:102EE000BDE8F0812DE9F04140F2615640F21667ED
:102EF00040F2267540F28D6402E00A20FDF778FC6E
:102F000029462046FFF798FC0028F6D002E00A2068
:102F1000FDF76EFC29463046FFF78EFC0028F6D000
:102F200002E00A20FDF764FC39463046FFF784FCD6
:102F30000028F6D002E00A20FDF75AFC3946204668
:102F4000FFF77AFC0028F6D002E00A20FDF750FCDB
:102F500029462046FFF770FC0028F6D040F2956421
:102F600040F2F25521462846FFF766FC002803D1BF
:102F70000A20FDF73DFCF5E7BDE8F08110B5406A99
:102F80000021C185C184FEF70DFE10BD70B5446AF5
:102F90002068406994F84110C0F3C0100025212931
:102FA00004D118B1E584204600F062F82068406939
:102FB00094F84210C0F38010222904D118B1E5859D
:102FC000204600F02EF8606C40F01000606420464F
:102FD000FEF7E8FD70BD10B50146406A0968096852
:102FE000890616D40021C1840168143151E8002FEC
:102FF00022F0800241E80023002BF5D101680C315A
:1030000051E8002F42F0400241E80023002BF5D1A7
:1030100010BDFFF7ADF810BD10B5406AFFF7A9F875
:1030200010BD01680C3151E8002F22F4907241E884
:103030000023002BF5D10168143151E8002F22F054
:10304000010241E80023002BF5D1016B012909D1D0
:1030500001680C3151E8002F22F0100241E80023F2
:10306000002BF5D1202180F8421000210163704728
:1030700001680C3151E8002F22F0C00241E8002322
:10308000002BF5D1202180F84110704708B590F849
:103090004210222901D0022008BD82684FF48053DB
:1030A0009A4201D1016921B1816A9A421BD04AB189
:1030B0000AE00268816A5268C2F308020A80816AE3
:1030C000891C08E0026972B10268526802F07F024E
:1030D0000A70816A491C8162C18D491E0904090C6C
:1030E000C18503D01BE002685268F1E70168CA6835
:1030F00022F02002CA600168CA6822F48072CA60A5
:1031000001684A6922F001024A61202180F84210D8
:1031100000214163026B012A03D0FEF789FF0020E2
:1031200008BD016301680C3151E8002F22F0100244
:1031300041E80023002BF5D101680A68D20602D5C8
:103140000A6849680091818DFEF72BFDE7E70000D2
:1031500070B5044600680169E26821F440511143EA
:1031600001612169A0680843616908432168CA6850
:1031700041F20C639A430243CA6020684169A26924
:1031800021F44071114341611E492068884202D1F7
:10319000FDF774FE01E0FDF761FE00EBC00101EBFD
:1031A0000012606864218000B2FBF0F3B3FBF1F31E
:1031B0006FF018067343B2FBF0F5B2FBF0F605EBC7
:1031C0008305322303EB0515B5FBF1F5B6FBF1F6EC
:1031D00005F0F00505EB0615B2FBF0F6B2FBF0F0DA
:1031E000B0FBF1F06FF01802504306EB800003EBE8
:1031F0000010B0FBF1F0216800F00F002844886057
:1032000070BD00000038014081628285C2850021C6
:103210004164222180F84210016921B10168CA6825
:1032200042F48072CA6001684A6942F001024A6150
:103230000068C16841F02001C160002070470000B3
:103240000148FEF7B1BC0000F80100200148FEF77C
:10325000ABBC0000400200200148FEF7A5BC000006
:1032600088020020FEE79200030A88541144020CF1
:103270004B708A70000EC87070478900002242545B
:1032800008448021427081707F21C1707047000026
:1032900010B5334C207800F019FA00223149FFF7BD
:1032A000E2FF607800F012FA01222E49FFF7DBFFFF
:1032B0002D4C207800F00AFA02222A49FFF7D3FFAA
:1032C000607800F003FA03222649FFF7CCFFA078CC
:1032D00000F0FCF904222349FFF7C5FFE07800F075
:1032E000F5F905221F49FFF7BEFF207900F0EEF93E
:1032F00006221C49FFF7B7FF607900F0E7F90722C3
:103300001849FFF7B0FFA07900F0E0F9082215494D
:10331000FFF7A9FFE07900F0D9F909221149FFF779
:10332000A2FF1248006800F0B9F90A220D49FFF720
:103330009AFF0F480B220B49C068FFF794FF0D4816
:103340000C220849C068FFF78EFF0D210548FFF7E2
:1033500094FFBDE81040382202490748FEF7CCBE72
:103360001E0000206C0000202C00002038000020EF
:10337000D0010020E4010020880200200907090E86
:10338000002804DB00F1E02080F80014704700F012
:103390000F0000F1E02080F8141D7047FDF740FC9D
:1033A000FFF778FAFEF79EFFFEF77EFFFFF780F843
:1033B000FFF7F2F8FFF70CF9FFF7BAF8FFF720F87C
:1033C000FFF73EF8FFF720F900212048FEF7DAFA70
:1033D00004211E48FEF7D6FA1D4940F2A460086099
:1033E000091D086001221B491B48FEF713FE02E07D
:1033F000FEF700FF0446002CFAD0082C23D2DFE8A9
:1034000004F02204090E1318221DFFF7B7FCFFF782
:103410003FFFFAE7FFF71AFDFFF73AFFFAE7FFF77A
:10342000C9FCFFF735FFFAE7FFF708FCFFF730FFAD
:10343000FAE7FFF7B1FCFFF72BFFFAE7FFF752FDC2
:10344000FFF726FFFAE7FFF723FFD6E7400100204A
:10345000340400401C0000204002002002494FF0CC
:10346000000000F092BA00BF0000F87F4FEA41036D
:103470004FEA5353A3F58063D3F11E03C8BFD3F1C2
:10348000210C0CDD4FF0004242EAC12242EA5052C8
:1034900032FA03FC8CEAE17CACEBE1707047102B54
:1034A000C4BF0020704703F5787CBCF1FF3F04D017
:1034B0006FF0004282EA2100704770B500F018F802
:1034C0004992248000207047F2E7B0FA80F310FAA6
:1034D00003F10AD0C3F11D0303F580634FEA4150A5
:1034E0004FEA035202EBD12170474FF000007047C2
:1034F0000EF1020E2EF0030E5EF8046B364205D478
:10350000012A43EB030515F5001F12D8012841EBF2
:10351000010C1CF5001F0CD80ED14FEAD17C15F51B
:10352000001F0CEB4C0C0CF1020C08BF4CEBD37CD5
:1035300004E04FF0080C01E04FEAD37C0CEB4C05A3
:1035400026FA05F606F00706B6F1040C06D20EEBD5
:10355000860CBDE870404CF0010C6047DFE80CF0D1
:10356000090B02024FF000414FF00000A1F50021CD
:1035700070BD19461046012851EB010418BFD4F55F
:10358000001484BF002001F0004170BD90EA010FDB
:1035900048BF81F0004100F18A81421A3CBF801A85
:1035A00089184FEAD0524FF07F4C1CEA410FA2EB32
:1035B000D15318BF9CEA026F00F03B804FF0004CE3
:1035C0004CEA00204CEA012121FA03FC10EB0C0C20
:1035D0001ED202F1FF325FEA1C2040EBC25038BF1E
:1035E00070471CF07F0F4FEA400C18BFBCF17F4FB3
:1035F00038BF7047C3F12003994008BF20F0010095
:10360000BCF17F4F38BF7047A0F1C04000F039B91E
:103610004FEA3C00000A40EBC25028BF1CF0FF0FED
:103620004FEA400CE6D018BFBCF17F4F38BF70475F
:10363000EAE79CEA026F05D010EA5C0F08BF00F0D1
:103640000040704710B500F0D6F800BF64FBBE3EE6
:10365000014800F09AB900BF0000C07FC10DD1F150
:103660009E0206DB4FEA002343F0004323FA02F0F8
:103670007047004207D54FEA4001B1F1FE4F02D238
:103680004FF00000704710B500F0B5F84992248063
:10369000002070476FEA20007047000010F00041E2
:1036A00048BF4042B0FA80F310FA03F2C3F19D0321
:1036B0000BD051EAC35101EB1220530638BF7047BB
:1036C00000F1010008BF20F001007047B0FA80F35C
:1036D00010FA03F2C3F19D030AD0D90501EB1220C1
:1036E000530638BF704700F1010008BF20F0010009
:1036F000704700004FF47F0C1CEAD0121EBF1CEA7A
:10370000D11392EA0C0F93EA0C0F00F0478090EA75
:10371000010F48BF42F480724FF0004C4CEA002089
:103720004CEA012102EB0302A0FB0113A2F5000207
:10373000002918BF43F001035B0028BF4FEA3303A1
:1037400042EB22425FEA132C4CEBC2502EBFBCEB83
:10375000436FB2F57C0F70474FEA036CBCF1004F2A
:1037600008BF20F00100B2F57C0F38BF70470BD5C1
:1037700082F0FF0212F5803FC8BF704700F1C040E1
:10378000D8BF00F00040704700F5000C5FEA4C0C19
:1037900048BF7047B0F1C04000F073B890EA010F25
:1037A0000CEAD11348BF42F48072624538BF6345CA
:1037B00004D280EA010000F00040704710B500F02C
:1037C0001AF800BF8900013E00F007B800F009B800
:1037D0005FEA410C5FEA1C6C08D080EA010000F04F
:1037E00050B85FEA400C5FEA1C6CF6D14FF0004025
:1037F000A0F5800070470EF1020E2EF0030E5EF869
:10380000044B244204D44FEA4102B2F17F4F11D855
:103810004FEA4003B3F17F4F0CD80ED14FEAD07C72
:10382000B2F17F4F0CEB4C0C0CF1020C08BF4CEBCF
:10383000D17C04E04FF0080C01E04FEAD17C0CEBA6
:103840004C0324FA03F404F00704B4F1040C06D288
:103850000EEB840CBDE810404CF0010C6047DFE833
:103860000CF0070802024FF00040A0F5800010BDE8
:103870000846420018BFD2F1807288BF00F00040B5
:1038800010BDFF2141EAD050C005704780F00040D4
:1038900090EA010F7FF581AE81F0004100F007B89A
:1038A00090EA010F48BF81F000413FF576AE421A21
:1038B00004D882F00042A0EB020011444FEAD0523B
:1038C0004FF07F4C1CEA410FA2EBD15318BF9CEA8A
:1038D000026F4AD04FF0004C4CEA00204CEA012124
:1038E00021FA03FCB0EB0C0C0FD412F0FE0F36D013
:1038F0005FEA4C001DD5001240EBC25038BF704744
:103900001CF03F0F18BF70470BE0A2F101025FEA05
:103910001C2040EBC25038BF70471CF07F0F18BF0F
:103920007047C3F12003994014BF401E20F00100EE
:10393000704780084FEA122308BF7047B0FA80FC36
:10394000A2EB0C02CCF1280C60FA0CF093EA122FD7
:1039500004BF00EBC25070474FEAC3707047130AB0
:103960005FEADC1008BF7047F6E79CEA026F04D0FC
:1039700010EA5C0F08BF0020704710B5FFF73BFF4F
:1039800040DFF63E81F0004070470CF00F03092B3A
:1039900008BF082000F07F800A2B0BD0082B18BF2F
:1039A000704708BF1CF0400F0AD04FF000004FF0E6
:1039B000000170471CF0400F18BF4FF000407047E7
:1039C0001CF0100F08D020F0704300F07F4242EA54
:1039D000D3014FEA4370704700F0604021F07F420E
:1039E00042EA000201F07F4040EA727070474FF0F7
:1039F000FF0C4CF4E06C1CEA11531CBF9CEA030C56
:103A00009445C2BFDA4201EB02517047002B0DD042
:103A1000BCF1000F0FD0002A01F00041A4BF41F01B
:103A2000E04141F07F614FF00000704701F000413C
:103A30004FF00000704750EA01334FF09B0C18BF65
:103A40004CF0806C7FF40AAD70474FF0FF0212EA31
:103A5000D0521CBF92F0FF038B42C2BFD14200EB99
:103A6000C1507047002A0AD0002B0BD0002900F06B
:103A70000040A4BF40F0FE4040F40000704700F05A
:103A80000040704743024FF00B0C18BF4CF0806CA5
:103A90007FF4DEAD70471CF4801F11D01CF4E02FC2
:103AA00003D06FEACC31490070474FF04050EFF33C
:103AB000008222F0704242EA000282F300887047DE
:103AC0004FF00000704701020203040506070809D1
:103AD0000A0B0C0D0E0F101000000000000000007B
:103AE00001020304060708090000000001020304A4
:103AF000103B0008000000206C0000006C01000872
:103B00007C3B00086C0000204C0900008801000884
:103B100000000000F205000095060000F20500001C
:103B200095060000F2050000950600003000000038
:103B30000100000000000000000000000000000084
:103B400000000000FF000000000000000000000076
:103B50000000000000000000000000000000000065
:103B60000000000000000000000000000100000054
:0C3B700010000000000000000024F40021
:0400000508000131BD
:00000001FF
