:020000040800F2
:1000000018080020050100086B250008CD1F000816
:10001000692500084D070008E92B000800000000D2
:10002000000000000000000000000000BB250008E8
:100030004F07000800000000B9250008A1260008AD
:100040001F0100081F0100081F0100081F01000810
:100050001F0100081F0100081F0100081F01000800
:100060001F0100081F0100081F0100081F010008F0
:100070001F0100081F0100081F0100081F010008E0
:100080001F0100081F0100081F0100081F010008D0
:100090001F0100081F0100081F0100081F010008C0
:1000A0001F0100081F0100081F0100081F010008B0
:1000B000052700081F0100081F0100081F01000894
:1000C0001F0100081F0100081F0100081F01000890
:1000D0001F010008D12B0008DD2B00081F010008BC
:1000E0001F0100081F0100081F010008DFF810D0E1
:1000F00000F068FA00480047D5320008AFF30080EE
:10010000180800200648804706480047FEE7FEE73B
:10011000FEE7FEE7FEE7FEE7FEE7FEE7FEE7FEE7B7
:1001200003270008ED000008202A04DB203A21FA0A
:1001300002F00021704721FA02F3D040C2F1200200
:100140009140084319467047D2B201E000F8012BF4
:10015000491EFBD270470022F6E710B513460A4647
:1001600004461946FFF7F0FF204610BD2DE9FE4F6B
:10017000804681EA0300C00F0C46009021F0004148
:1001800023F00045B8EB0200A94105D240462146C4
:1001900090461C460B46024623F00040104347D0D1
:1001A000270DC7F30A00C3F30A510290401A0190C9
:1001B00040286BDAC3F3130040F4801B009892468A
:1001C00020B10023D2EB030A63EB0B0B01985946D5
:1001D000C0F14002504600F03FF906460D46504639
:1001E0005946019A00F047F910EB080061410024DC
:1001F00087EA115284EAE7731A4340D0009A62B347
:10020000019A012A4FEA075215DC001B61EB02013B
:100210004FF0004202EA0752CDE90042001C41F5CE
:10022000801132462B4600F07EF903B0BDE8F08F16
:1002300040462146F9E7001B61EB0201001C41F535
:10024000801300185B412018A2F5001747EB03014B
:1002500040EAD570B6196D4111E06D084FEA3606D7
:1002600045EAC0754FEA0752001B61EB0201001C12
:1002700041F5801149084FEA3000001951413246DA
:100280002B4603B0BDE8F04F00F03EB900980122C4
:1002900040000023D0EB020263EBE073009821469C
:1002A0004FEAE074B8EB000061EB0401E9E783F08A
:1002B00000435BE781F0004158E72DE9FE4F81EAFA
:1002C000030404F0004421F0004100944FF0000BBF
:1002D00023F0004350EA01045ED052EA03045BD0ED
:1002E000C3F30A54C1F30A552C44A4F2F334019425
:1002F000A0FB0254C1F3130141F48011C3F31303B3
:1003000043F4801301FB024400FB034E840A970A66
:1003100044EA815447EA8357A4FB076802958D0A93
:1003200005FB07854FEA932C04FB0C542705029D1F
:100330004FEA065847EA1637B5EB08056EEB070C8F
:10034000870E920E47EA811742EA8312A7FB020149
:10035000B6EB0B0164EB00042B0D43EA0C335E1883
:1003600044EB1C50DA465146E7FB0201C5F3130487
:100370004FEA0B3343EA14534FEA0432019C43EA39
:100380000603A4F10C040294009CCDE900B400F033
:10039000CAF803B0BDE8F08F00200146F9E70EB5BA
:1003A000C10F80EAE0700844CA07002140F23343DD
:1003B0008DE80E000A460B4600F0B5F803B000BD0C
:1003C00030B5041E71F1000404DB4FF000444042DC
:1003D00064EB0101141E73F1000405DB1C464FF0B1
:1003E0000043524263EB04038B4208BF824230BD9C
:1003F00030B5041E71F1000404DB4FF000444042AC
:1004000064EB0101141E73F1000405DB1C464FF080
:100410000043524263EB0403994208BF904230BD4F
:1004200001F0004330B421F0004150EA010206D04F
:100430000A0DA2F56072C1F31301002A02DC30BC80
:1004400000207047440F44EAC104C100E01830BCEA
:1004500000EBC25000F021B8202A04DB203A00FA59
:1004600002F1002070479140C2F1200320FA03F30B
:10047000194390407047202A06DBCB17203A41FAF7
:1004800002F043EAE07306E041FA02F3D040C2F121
:10049000200291400843194670470029A8BF7047C1
:1004A000401C490008BF20F00100704710B4B0FAAA
:1004B00080FC00FA0CF050EA010404BF10BC704745
:1004C00049B1CCF1200421FA04F411FA0CF118BF5F
:1004D000012121430843A3EB0C01CB1D4FEA00612E
:1004E0004FEA102042BF002010BC704700EBC35001
:1004F00010440029A4BF10BC7047401C490008BF2D
:1005000020F0010010BC704710B5141E73F10004F8
:1005100008DA401C41F1000192185B411A4301D1F5
:1005200020F0010010BD2DE9F04D92469B4611B11F
:10053000B1FA81F202E0B0FA80F220329046FFF781
:100540008BFF04460F4640EA0A0041EA0B0153467E
:100550005A46084313D0114653EA010019D0C8F196
:1005600040025046FFF7E0FD05460E46504659460C
:100570004246FFF771FF084305D0012004E0204602
:100580003946BDE8F08D0020054346EAE0762C436D
:1005900037430A986305E40AA0EB08000022FD0A2D
:1005A00044EA47540A3002D500200146E9E7010534
:1005B00010196941DDE9084500196941BDE8F04DB0
:1005C000A2E70000064C074D06E0E06840F001039A
:1005D00094E8070098471034AC42F6D3FFF78AFD41
:1005E00048360008683600082DE9F04D81EA03041A
:1005F00004F0004B21F0004514464FF0000A23F0B0
:10060000004150EA050220D054EA01021DD0C5F392
:100610000A570246C5F31303C1F31300C1F30A5688
:1006200040F4801543F48013A7EB0608101BD64650
:1006300008F2FD3873EB050002D308F1010801E070
:1006400092185B41B8F1000F03DA00200146BDE8C3
:10065000F08D00204FF48011064684460EE0171BF3
:1006600073EB050705D3121B63EB050306434CEA46
:10067000010C49084FEA300092185B4150EA01072B
:10068000EDD152EA030012D082EA040083EA0501A8
:10069000084305D0101BAB4106D20122002306E01F
:1006A00000224FF0004302E06FF0010253101AEBFA
:1006B00006004CEB085110EB0A0041EB0B01BDE8C2
:1006C000F04DFFF721BF70B521F0004303430CD07C
:1006D000C1F30A550024D5EB040564EB0403D617D7
:1006E000AD1AB34102DB0020014670BD201841EB7A
:1006F000025170BD0EB540F2334102910021CDE9A7
:1007000000110A460B46FFF70EFF03B000BD70B59F
:10071000C1F30A5201F000450024C1F3130140F275
:10072000FF3341F480119A4201DA002070BD40F29B
:1007300033439A42A2F2334203DC5242FFF7F4FC05
:1007400000E090402C43F1D0404270BDFEE770477E
:1007500072B6FEE70870020A4A70020C8A70000E38
:10076000C870704710B590F821100022022905D0FA
:100770000421816380F82020012010BD01680B68EE
:1007800023F00E030B6001680B6823F001030B607C
:1007900090F84030C46B012101FA03F3636080F8E4
:1007A000211080F82020104610BD000010B590F8F0
:1007B00021100024022903D00421816301243DE09B
:1007C00001680A6822F00E020A6001680A6822F0D5
:1007D00001020A601A4A0168914201D1012121E017
:1007E000174A1432914201D110211BE0144A2832D9
:1007F000914201D1891515E0114A3C32914201D153
:1008000089140FE00E4A5032914202D14FF48031E8
:1008100008E00B4A6432914202D14FF4801101E0AA
:100820004FF08071064A083A5160012180F821108A
:10083000002180F82010416B01B18847204610BD8F
:100840000800024070B5044600F004F90546601C3B
:1008500002D004480078044400F0FCF8401BA04299
:10086000FAD370BD9C0000202DE9F84FDFF8B89155
:100870000024A9F1040B23460F2709F1040AABF168
:10088000040EC9E00125A5402A40AA427DD1674E49
:10089000D1F804C0ACEB0608B44532D014DCBCF18E
:1008A000030F3AD009DCBCF1000F2AD0BCF1010FD4
:1008B0001CD0BCF1020F31D11DE0BCF1110F17D0DB
:1008C000BCF1120F2AD119E0B8F5881F19D006DC47
:1008D000B8F5803F15D0B8F5801F1FD111E0B8F5ED
:1008E000001F0ED0B8F5041F18D10AE0CB6815E040
:1008F000CB681B1D12E0CB6808330FE0CB680C33CC
:100900000CE08B682BB1012B4FF0080303D045613D
:1009100004E0042302E0056100E00023FF2A01D87F
:10092000064601E000F104064FEA840501D9A5F16D
:100930002005D6F8008007FA05FC28EA0C0803FA1F
:1009400005F548EA0508C6F800804D68ED0062D557
:10095000374DAE6946F00106AE61AD6924F003067D
:1009600005F001050095334D06EB050CDCF8085049
:10097000A607360F07FA06F825EA0805DFF8B8805B
:10098000404503D14FF0000817E044E0DFF8AC80A9
:10099000404502D14FF001080FE0DFF8A480404548
:1009A00002D14FF0020808E0DFF89880404502D1FC
:1009B0004FF0030801E04FF0040808FA06F848EA8F
:1009C0000508CCF808804D68D9F80060ED024D4666
:1009D00001D5164300E096432E604D68DAF80060BA
:1009E000AD02554601D5164300E096432E604D6892
:1009F000DBF80060AD035D4601D5164300E0964389
:100A00002E604D68DEF80060ED03754601D5164393
:100A100000E096432E60641C0D682A46E5407FF492
:100A200031AFBDE8F88F000008040140000011104C
:100A3000001002400000014000080140000C01408D
:100A400000100140001401400AB10161704709041F
:100A5000FBE7000001488068704700009C00002010
:100A600070B5040025D094F83D00002520B984F825
:100A70003C50204600F050F9242084F83D002068C6
:100A8000016821F0010101602068016841F4004122
:100A900001602068016821F40041016000F0A2FAC1
:100AA0004D4A6168914201D84C4900E04C49884266
:100AB00001D2012070BD4B492368B0FBF1F15E68A3
:100AC00026F03F060E435E606368934206D94FF4FA
:100AD000967359434FF47A73B1FBF3F12368491CC1
:100AE0001E6A26F03F06314319626168914210D8B0
:100AF0004900401EB0FBF1F2521CC2F30B02042A63
:100B000001D2042022E0B0FBF1F0401CC0F30B0046
:100B10001CE0A268F2B301EBC10303EB0116431E14
:100B2000B3FBF6F35B1C43F480431B0549D092B33F
:100B300001EBC10202EB0111401EB0FBF1F0401CC1
:100B4000C0F30B0040F4804040F400402168CA69C3
:100B50004CF6FF739A431043C861D4E90710014370
:100B60002068026822F0C00211430160D4E9030149
:100B700001432068826848F2FF339A431143816041
:100B8000D4E9050108432168CA6822F0FF02104336
:100B9000C86001E00EE016E02068016841F0010144
:100BA00001602564202084F83D00256384F83E50D0
:100BB000002070BD01EB4106431EB3FBF6F35B1C46
:100BC000B3E70120C2E701EB4101401EB0FBF1F0A9
:100BD000401CC0F30B00B7E7A086010080841E0014
:100BE00000093D0040420F002DE9FF4F83B09A46B7
:100BF000DDE9119793460446DDF84080FFF72AFFB0
:100C0000054694F83D0020287FD119230122404950
:100C10002046009501F072FA002876D194F83C0045
:100C2000012872D0012084F83C0020680168C907BF
:100C300003D1016841F0010101602068016821F4DD
:100C400000610160212084F83D00402084F83E00CE
:100C500000262664C4F82480A4F82A90608D20859C
:100C60002C48E062CDE9007553465A462046049967
:100C700001F0C4F970B930E02A463946204601F047
:100C8000E3FA58B1206C042804D12068016841F4CB
:100C900000710160012007B0BDE8F08F606A216833
:100CA00000780861606A401C6062218D491E89B22B
:100CB0002185628D521E628522685369DB435B0782
:100CC0000BD469B100781061606A401C6062208DAD
:100CD000401E2085608D401E6085208D0028CBD170
:100CE0002A463946204601F0DDF90028CAD154F8D9
:100CF0003D0B016841F400710160202004F81E09D9
:100D0000E67766770020C6E7FFE70220C3E700002A
:100D1000020010000000FFFF10B586B00021009116
:100D200001910291039100681349884222D1134C2A
:100D3000A06940F00800A061A069694600F00800C1
:100D400004904FF440700090122001900320039013
:100D50000B48FFF789FD0B48416841F0E06141F025
:100D600002014160E06940F40010E061E06900F4D4
:100D70000010049006B010BD005400400010024066
:100D8000000C0140000001400248816802781144D3
:100D9000816070479C000020074810B5016841F051
:100DA00010010160032000F075F80F2000F006F834
:100DB00000F024F8002010BD0020024070B50D4D59
:100DC00004464FF47A712878B1FBF0F00A490968BB
:100DD000B1FBF0F000F0DCFA48B9102C07D2002289
:100DE0002146501E00F036F800206C6070BD0120D6
:100DF00070BD00009C000020A80000200C4808B531
:100E0000816941F001018161816901F00101009175
:100E1000C16941F08051C161C06900F0805000900B
:100E20000448416821F0E06141F00071416008BD73
:100E30000010024000000140002809DB00F01F0202
:100E4000012191404009800000F1E020C0F800112C
:100E500070470000F0B40E4B1B680C46C3F302232E
:100E6000C3F10705042D00D90425191D072901D256
:100E7000002300E0DB1E012606FA05F1491E214091
:100E800099409E40761E16403143F0BC01F0DCBE16
:100E90000CED00E0064900F0070208684FF6FF037A
:100EA000184040EA0220034A1043086070470000DF
:100EB0000CED00E00000FA052DE9F0470F460500B3
:100EC00061D0434E306800F00700B84209D2306864
:100ED00020F0070038433060306800F00700B84267
:100EE00051D128683B4C810712D5400703D5606873
:100EF00040F4E06060602878000703D5606840F443
:100F0000605060606068A96820F0F000084360608D
:100F10002878C00728D06868012810D021680228E6
:100F200010D0890700292EDA616821F003010143FE
:100F30006160FFF78FFD804641F288390DE021683E
:100F40008903EFE78901EDE7FFF784FDA0EB0801D6
:100F5000494502D90320BDE8F0876068696800F060
:100F60000C00B0EB810FEFD1306800F00700B84201
:100F70000BD9306820F0070038433060306800F04B
:100F80000700B84201D00120E5E72878400705D5E1
:100F90006068E96820F4E060084360602878000732
:100FA00006D56068296920F4605040EAC10060609D
:100FB00000F038F86168084AC1F30311515CC84079
:100FC0000649086006480068FFF7F8FE0020C2E7FF
:100FD00000200240001002400E350008A80000204A
:100FE000A00000200448054900684968044AC1F38C
:100FF0000221515CC8407047A80000200010024048
:101000001E3500080448054900684968044AC1F3D0
:10101000C221515CC8407047A80000200010024067
:101020001E3500080E4A51680E4801F00C03042BCF
:1010300011D0082B0FD10C48C1F38343C903C05C06
:101040000AD55168084AC1F34041921E515C054AD5
:101050005043B0FBF1F0704704494843704700002B
:101060000010024000127A00FE34000800093D0022
:101070002DE9F84F040070D02078C04DC00749D04A
:101080006868C0F38100012807D06868C0F3810058
:10109000022809D16868C00306D52868800339D5BD
:1010A00060680028E7D035E06068B0F5803F0BD07D
:1010B00010B1B0F5A02F11D0286820F4803028603E
:1010C000286820F4802002E0286840F480302860FE
:1010D000606890B1FFF7BEFC06460AE0286840F45D
:1010E00080202860F0E700BFFFF7B4FC801B642875
:1010F00073D828688003F7D50CE0FFF7ABFC0646F1
:1011000005E000BFFFF7A6FC801B6428F0D8286824
:101110008003F7D420789A4E80074FF001094FF0F2
:10112000000839D5686810F00C0F07D06868C0F364
:101130008100022809D16868C00306D428688007A6
:1011400014D52069012808D110E02069B0B1C6F893
:101150000090FFF77FFC074605E00AE1FFF77AFC05
:10116000C01B0228C4D828688007F7D528686169A1
:1011700020F0F80040EAC10028600DE0C6F80080C9
:10118000FFF768FC074604E0FFF764FCC01B022879
:1011900023D828688007F7D4207800072CD5794811
:1011A000A169D9B1C0F80090FFF754FC074604E0EC
:1011B000FFF750FCC01B02280FD8686A8007F7D5DC
:1011C00071484FF4FA510068B0FBF1F0009000BF95
:1011D0000098411E0091FAD20EE080E0C0F8008035
:1011E000FFF738FC074604E0FFF734FCC01B022879
:1011F00075D8686A8007F7D42078400760D5E86919
:101200000027C00008D4E86940F08050E861E86930
:10121000012700F0805000905C480168C90513D494
:101220000168834641F480710160FFF713FC824638
:1012300006E000BFFFF70EFCA0EB0A0064284ED8C2
:10124000DBF80000C005F5D5E06801280AD008B138
:10125000052813D0286A20F001002862286A20F0AF
:10126000040002E0286A40F001002862E06841F2D0
:10127000883B98B1FFF7EEFB82460BE0286A40F00E
:1012800004002862EEE700BFFFF7E4FBA0EB0A01D1
:1012900059455AD8286A8007F6D50CE0FFF7DAFBE3
:1012A000824605E0FFF7D6FBA0EB0A0159454CD872
:1012B000286A8007F6D41FB1E86920F08050E86101
:1012C000E06988B36968C1F38101022944D002282A
:1012D000C6F8608004D0FFF7BDFB044638E034E078
:1012E000FFF7B8FB074604E0FFF7B4FBC01B02287A
:1012F0002BD828688001F7D4206AB0F5803F05D14B
:101300006868A16820F4003008436860D4E90801E7
:101310000843696821F4741108436860C6F8609056
:10132000FFF798FB044606E025E000BFFFF792FBBD
:10133000001B022809D828688001F7D51BE000BFF0
:10134000FFF788FB001B022802D90320BDE8F88FB5
:1013500028688001F4D40EE00128F7D06868226A7A
:1013600000F48031914204D1616A00F47010884227
:1013700001D00120EAE70020E8E700000010024069
:101380000000424280044242A80000200070004059
:1013900010B5401EB0F1807F01D3012010BD4FF089
:1013A000E02460610F21601701F04EFC0020A06175
:1013B00007202061002010BD7047704770B590F87D
:1013C0003C20012A26D0012480F83C40022280F8EB
:1013D0003D2003685A689D6822F070060A6832430F
:1013E0005A600D4B02689A4208D0B2F1804F05D086
:1013F0000A4B9A4202D00A4B9A4204D1496825F01E
:1014000080031943916080F83D40002180F83C1032
:10141000084670BD022070BD002C01400004004051
:101420000008004010B5040003D094F83D0010B14E
:1014300007E0012010BD002084F83C00204600F0A9
:101440001FF8022084F83D00211D206801F060F99A
:10145000012084F8460084F83E0084F83F0084F8B8
:10146000400084F8410084F8420084F8430084F886
:10147000440084F8450084F83D00002010BD0000C1
:1014800008B501681048B1F1804F0BD00F4A914266
:1014900007D1C16941F00201C161C06900F00200D9
:1014A000009008BDC16941F00101C161C06900221D
:1014B00000F00100009011461C20FFF7CBFCBDE8B6
:1014C00008401C20FFF7B8BC001002400004004098
:1014D00090F83D10012901D001207047022180F8C9
:1014E0003D100168CA6842F00102CA6000680B49F9
:1014F000884208D0B0F1804F05D00949884202D017
:101500000849884204D1816801F00701062903D007
:10151000016841F00101016000207047002C01408A
:10152000000400400008004070B5044690F83C00FC
:101530000025012817D0012684F83C60022084F899
:101540003D002068826822F0770222F47F428260A8
:101550000868502838D00DDC20284FD005DC90B327
:10156000102811D14AE0022070BD302846D0402812
:101570000AD13BE060282FD070280DD0B0F5805FF5
:1015800003D0B0F5005F12D0012584F83D60002043
:1015900084F83C00284670BDCB68D1E90121206861
:1015A00001F0F9F82068816841F0770109E0CB6823
:1015B000D1E90121206801F0EEF82068816841F44A
:1015C00080418160E1E719E0CA684968206801F05C
:1015D00097F95021206806E0CA684968206801F040
:1015E000A0F96021206801F0E0F8CEE7CA684968F8
:1015F000206801F085F940212068F4E7226801465F
:101600001046F0E7704770B50446006801694FF076
:101610000005C943890715D4C168C943890711D496
:10162000E91E01610120207720688069800720463B
:1016300002D0FFF7E7FF04E000F0D0F8204600F00A
:1016400062F9257720680169C943490717D4C16841
:10165000C943490713D46FF00401016102202077C8
:101660002068806910F4407F204602D0FFF7CAFF4F
:1016700004E000F0B3F8204600F045F92577206833
:101680000169C943090716D4C168C943090712D4BF
:101690006FF008010161042020772068C06980078D
:1016A000204602D0FFF7AEFF04E000F097F8204696
:1016B00000F029F9257720680169C943C90617D4C4
:1016C000C168C943C90613D46FF010010161082035
:1016D00020772068C06910F4407F204602D0FFF7D1
:1016E00091FF04E000F07AF8204600F00CF925772D
:1016F00020680169C943C90708D1C168C943C9073E
:1017000004D1891E0161204600F04CF9206801696E
:10171000C943090609D4C168C943090605D46FF055
:10172000800101612046FFF747FE20680169C94337
:10173000490609D4C168C943490605D46FF0400180
:101740000161204600F02FF920680169C94389062C
:101750000BD4C168C943890607D46FF02001016129
:101760002046BDE87040FFF728BE70BD10B586B0BA
:101770000021009101910291039100681349884270
:1017800021D11348816941F004018161816901F02F
:1017900004010491816941F008018161806902249A
:1017A00000F008000490C020CDE900046946094813
:1017B0000394FFF759F80320CDE900046946064871
:1017C0000394FFF751F806B010BD0000000400407C
:1017D0000010024000080140000C0140704770B545
:1017E000044690F83C0000260D4601280FD0012049
:1017F00084F83C006AB1042A1DD0082A2FD00C2A94
:101800003FD00126002084F83C00304670BD022005
:1018100070BD206800F0D2FF2068816941F00801A6
:1018200081612068816921F00401816120688169FA
:101830002A69114311E0206800F0E8FF20688169FF
:1018400041F4006181612068816921F480618161D6
:10185000206881692A6941EA02218161D2E7206812
:1018600001F000F82068C16941F00801C1612068F9
:10187000C16921F00401C1612068C1692A6911436D
:1018800011E0206801F01AF82068C16941F4006194
:10189000C1612068C16921F48061C1612068C169AA
:1018A0002A6941EA0221C161ACE710B5040003D006
:1018B00094F83D0010B107E0012010BD002084F82D
:1018C0003C00204600F01EF8022084F83D00211D57
:1018D000206800F01DFF012084F8460084F83E00D7
:1018E00084F83F0084F8400084F8410084F8420006
:1018F00084F8430084F8440084F8450084F83D00EF
:10190000002010BD7047704710B50446022249B14F
:1019100004290ED0082913D094F84100012816D0CC
:10192000012010BD94F83E000128F9D184F83E2032
:101930000FE094F83F000128F2D184F83F2008E03E
:1019400094F840000128EBD184F8402001E084F8AD
:1019500041200122206800F011FF0F4920688842D1
:1019600003D1426C42F4004242642068884208D0AD
:10197000B0F1804F05D00949884202D00849884219
:1019800004D1816801F00701062903D0016841F004
:1019900001010160002010BD002C01400004004046
:1019A00000080040704770477047704710F8411FAB
:1019B0004078084370470000F8B50168044608689D
:1019C000CA684B6910F00F0F4FF0000559D003F0B3
:1019D000010602F49077374365D0C10705D0D105E1
:1019E00003D5616C41F001016164410705D5D90758
:1019F00003D0616C41F002016164810705D5D9070C
:101A000003D0616C41F004016164010707D502F065
:101A10002001314303D0616C41F008016164616CC5
:101A200000293AD0800604D5900602D5204600F061
:101A3000B9FF20684069616CC0F38010090700D4C9
:101A400060B3204600F087FF20684069400621D53A
:101A50002068143050E8001F21F0400140E80012D7
:101A6000002AF5D1E06BA8B16D494163E06BFEF748
:101A70009DFE002811D0E06B416B01B0BDE8F04045
:101A8000084783060FD593060DD52046BDE8F840DC
:101A900000F088BF2046FFF788FFF8BD2046FFF71B
:101AA00084FF6564F8BD266B2023012E7CD1C60619
:101AB0007AD5D60678D508684868009048694FF00E
:101AC0000206400640D5E16B086840680004000C3F
:101AD000E8D0A28D8242E5D9E085886920282DD002
:101AE00020680C3050E8001F21F4807140E800129B
:101AF000002AF5D12068143050E8001F21F00101C0
:101B000040E80012002AF5D12068143050E8001F88
:101B100021F0400140E80012002AF5D184F842305B
:101B2000256320680C3050E8001F21F0100140E8C8
:101B30000012002AF5D1E06BFEF714FE6663A08D5B
:101B4000E18D401A81B22AE0A08DE18D401A81B268
:101B5000E08D0028A6D00029A4D022680C3252E8DB
:101B6000000F20F4907042E80007002FF5D12068A4
:101B7000143050E8002F22F0010240E80027002F27
:101B8000F5D184F84230256320680C3050E8002FEE
:101B900022F0100240E80023002BF5D166632046B6
:101BA000FFF702FFF8BDFFE705062BD5150629D57F
:101BB00094F841002128F5D1A068B0F5805F01D1EB
:101BC0002069B0B1206A411C216221680078486018
:101BD000E08C401E0004000CE084E3D12068C16862
:101BE00021F08001C1602068C16841F04001C160FE
:101BF000D8E7206A0088C0F308004860206A801C8B
:101C00002062E5E74006CDD55006CBD5CA68204610
:101C100022F04002CA6084F8413000F0D6F9C1E7F2
:101C20004729000870B5040004D094F8410000254D
:101C300010B106E0012070BD84F84050204600F04D
:101C400023F8242084F841002068C16821F4005161
:101C5000C160204600F008FF2068016921F490412E
:101C600001612068416921F02A0141612068C16851
:101C700041F40051C1606564202084F8410084F87B
:101C800042006563002070BD30B585B0002400942B
:101C9000019402940394324D0368324802210322D6
:101CA000AB422ED1836943F480438361836903F49B
:101CB00080430493836943F00803836180692A4D5C
:101CC00000F0080004904020CDE90001039269462D
:101CD0002846FEF7C9FD8020CDE900046946284664
:101CE0000294FEF7C1FD2148416841F0E06141F0F6
:101CF00004014160002211462520FFF7ABF82520A2
:101D000029E01B4DAB4228D1C36943F40033C361C2
:101D1000C36903F400330493836943F004038361CC
:101D20008069144D00F0040004900420CDE9000106
:101D3000039269462846FEF797FD0820CDE9000486
:101D4000694628460294FEF78FFD002211462620A0
:101D5000FFF780F82620FFF76FF805B030BD0000D0
:101D60000038014000100240000C0140000001401A
:101D7000004400400008014090F84230202B01D080
:101D80000220704721B11AB10023036300F0C8BEDE
:101D9000012070472DE9F05F5749824600680968C5
:101DA000564C0026884258D12078411C2170FF28CB
:101DB00006D326704FF480715148FEF7CCF94CE001
:101DC0005048A568A17841556D1CA5600A293ED1EF
:101DD000022700226760C4E9042283466D1E13E0D7
:101DE0001BF807003038FEF7DAFA80468946D4E956
:101DF00004010022444BFEF760FA42464B46FEF7D0
:101E0000B5F9C4E904017F1CAF42E9DBC4E90176FE
:101E10009BF801103A291AD19BF8000045280BD0F5
:101E200004DC41280CD0422811D10BE0542805D005
:101E300057280CD1354A06E0354A04E0354A02E01D
:101E4000354A00E0354AD4E90401C2E900014FF403
:101E500080712B48FEF77FF9267031498A453ED1C3
:101E60003048314D637802782888304F0146401C55
:101E700080B213B1012B0FD005E0C1F30E017A54EB
:101E80002880012060702888C72820D9C8212748C9
:101E9000FEF761F92E8022E07A542880C72805D900
:101EA000C8212248FEF757F92E8000E018B917F82C
:101EB000010C0A2813D12888C821384410F8020CD4
:101EC000E0702E801948FEF746F9667007E06078EA
:101ED000022804D12E80C8211448FEF73CF90122C3
:101EE00010490F48FFF748FFBDE8F05F03490122A2
:101EF000891C0148FFF740BFDC0100206000002082
:101F000024020020240300200000244020000020A0
:101F10002800002050000020380000204000002051
:101F2000940100209A000020980000205003002017
:101F30002DE9F843044690F841001F4616460D4629
:101F4000202802D00220BDE8F8837DB176B10020C0
:101F50006064212084F84100FEF77CFDA684804661
:101F6000E684A068B0F5805F02D003E00120EAE7D4
:101F7000206910B12E4600250EE000260CE08021DD
:101F8000204600F0E8FDA0B9AEB116F8010B2168BB
:101F90004860E08C401EE084E08C43464FF0000235
:101FA00000970028EBD14FF04001204600F0D3FD10
:101FB00030B10320C7E735F8020BC0F30800E6E7AD
:101FC000202084F841000020BDE77047FEE701684B
:101FD0004A69D24352050FD46FF480624A610021EE
:101FE00040F8301F202242738173026942F00402DC
:101FF0000261017301207047002070472DE9F8430A
:10200000044600680D46DDE90897016898461646C3
:1020100041F4807101604B4600224FF001112046CF
:10202000009700F06BF848B120680068C00502D541
:102030004FF4007020640320BDE8F883216805F0A8
:10204000FE0008613B464A461549204600F09EF8CE
:1020500088B920684169806900903A46494620461F
:1020600000F0F2F848B1206C042804D1206801681F
:1020700041F4007101600120DEE7F5B2B8F1010F13
:1020800009D02168300A08613A464946204600F0E6
:10209000DBF80028E7D1206805610020CCE70000CC
:1020A0000200010070B516460D4604461EE02046AB
:1020B000FFF78DFF08B1012070BD681C16D0FEF738
:1020C000C9FC801BA84200D885B920684069C0437C
:1020D00040070BD5002044F8300F20216173A07316
:1020E000216941F0200121612073E4E72068406903
:1020F000C0434007DBD4002070BD00002DE9F0474D
:10210000984617460D460446C1F30746DDF8209071
:102110002AE000BFB8F1FF3F26D0FEF79BFCA0EB02
:102120000901414502D8B8F1000F1DD12068012EE8
:1021300016D0806925EA00000004000C12D00020AF
:10214000B84211D1002044F8300F20216173A073F0
:10215000216941F02001216120730120BDE8F08751
:102160004069E7E70120EBE72068012E0AD080698B
:1021700025EA00000004000C06D00020B842C9D0B7
:102180000020EBE74069F3E70120F7E72DE9F0478E
:10219000984616460D4604464FF000094FF0200AB7
:1021A000C1F3074723E020684069C043400515D4C8
:1021B0002068016841F40071016021686FF480605B
:1021C0004861C4F8309084F83DA084F83E90216CBA
:1021D00041F00401216484F83C9021E0701C06D099
:1021E000FEF738FCA0EB0800B04203D816B1012F6F
:1021F0001FD021E02068012F15D0806925EA00005A
:102200000004000C18D000BF44F8309F84F80DA0E3
:1022100084F80E90216941F02001216184F80C902E
:102220000120BDE8F087406925EA00000004000CA9
:10223000EAD12068406901E02068806925EA000051
:102240000004000CAFD1ECE770B516460D4604460D
:102250001EE02046FFF7BBFE08B1012070BD681CE0
:1022600016D0FEF7F7FB801BA84200D885B920687E
:102270004069C04300060BD5002044F8300F2021F0
:102280006173A073216941F0200121612073E4E7AB
:1022900020684069C0430006DBD4002070BD000008
:1022A0002DE9F04385B00024334800940194029452
:1022B0000394816941F010018161816901F010018D
:1022C0000491816941F020018161816901F020015F
:1022D0000491816941F004018161816901F0040187
:1022E0000491816941F0080181618069DFF88C8087
:1022F00000F008004FF400550490002229464046A3
:10230000FEF7A2FBDFF878904FF4704700223946C1
:102310004846FEF799FB0095022601250396CDE974
:10232000015469464046FEF79FFA4FF44060009022
:10233000122001900320039069464846FEF794FA64
:1023400000970396CDE9015469464846FEF78CFA9A
:102350004FF450608DE831000A4D69462846FEF77B
:1023600083FA6815CDE90004694628460294FEF711
:102370007BFA05B0BDE8F083001002400010014078
:10238000000C0140000801400D4810B50B490160E8
:102390000C49416000214FF480428160C0E9031282
:1023A00041618161C1610162FEF75AFB002803D0DF
:1023B000BDE81040FEF7CCB910BD0000005400404D
:1023C000B0000020A086010010B586B00024174898
:1023D000009401940294039404944FF08041059476
:1023E000016040F2CF21C0E9011444F61F61C0E949
:1023F000031480218161FFF715F808B1FEF7A8F9F1
:102400004FF48050009069460848FFF78DF808B1F6
:10241000FEF79EF9049404A904480594FEF7CEFF44
:10242000002801D0FEF794F906B010BD0401002089
:1024300010B58EB000240794089409940A940B9464
:102440001C2168460C94FDF786FE2A482849016045
:102450000B21C0E9011442F20F71C0E90314846139
:10246000FEF7E0FF08B1FEF773F94FF480500790D4
:1024700007A92048FFF758F808B1FEF769F91D4889
:10248000FFF713FA08B1FEF763F90B940BA919488B
:102490000C94FEF793FF08B1FEF75AF96020CDE9DE
:1024A000000402940022694612480494FFF797F949
:1024B00008B1FEF74DF9042269460E48FFF78FF97F
:1024C00008B1FEF745F9082269460A48FFF787F97F
:1024D00008B1FEF73DF90C2269460648FFF77FF97F
:1024E00008B1FEF735F90348FFF740F90EB010BD0B
:1024F000000400404C0100200C4810B50A4901605E
:102500004FF461414160002181600C22C160C0E94B
:1025100004128161C161FFF785FB002803D0BDE88B
:102520001040FEF715B910BD00380140940100209D
:102530000C4810B50A4901604FF4E13141600021B7
:1025400081600C22C160C0E904128161C161FFF7A2
:1025500069FB002803D0BDE81040FEF7F9B810BDB4
:1025600000440040DC010020FEE7FEE710B5C82073
:10257000FEF768F9BDE8104000F038BB0948016873
:10258000094841600949C969016000218160C16051
:1025900001614FF07E514161054981610549C16189
:1025A0007047000058000020300300207800002011
:1025B00000002841CDCC4C3D70477047F8B5064629
:1025C0000A460020009069461046FEF7C3F84FF611
:1025D000FF752B46012269463046FFF7A9FC3046BD
:1025E000FFF7E4F92128FAD06C462B460122304649
:1025F000611CFFF79DFC3046FFF7D8F92128FAD07F
:102600002B460122A11C3046FFF792FC3046FFF713
:10261000CDF92128FAD02B460122E11C3046FFF7E4
:1026200087FC3046FFF7C2F92128FAD0F8BD000038
:10263000F8B5064619A04FF6FF75006800902B46C6
:10264000012269463046FFF773FC3046FFF7AEF9CA
:102650002128FAD06C462B4601223046611CFFF738
:1026600067FC3046FFF7A2F92128FAD02B46012259
:10267000A11C3046FFF75CFC3046FFF797F9212894
:10268000FAD02B460122E11C3046FFF751FC3046C0
:10269000FFF78CF92128FAD0F8BD00000000807FF8
:1026A000FEF772BB30B58FB028216846FDF753FDA9
:1026B00014210AA8FDF74FFD01210804CDE90010FF
:1026C0000024029402250491CDE907504FF4E01054
:1026D00009906846FEF7CCFC08B172B6FEE70F2001
:1026E000CDE90A054FF48060CDE90C4002210AA82B
:1026F0000E94FEF7E1FB002801D072B6FEE70FB0A2
:1027000030BD70470148FEF77EBF00000401002085
:10271000F0B50268164B174C174D4FF080479842A2
:1027200005D0B84203D0A04201D0A84203D122F084
:1027300070064A683243984205D0B84203D0A0429E
:1027400001D0A84203D122F44074CA6822434C69E4
:1027500022F08002224302608A68C2620A688262B2
:10276000984201D10969016301214161F0BD000076
:10277000002C0140000400400008004010B501F0AA
:102780001F030121046A99408C430462016A9A4044
:102790001143016210BD10B5846842EA032224F49B
:1027A0007F440A432243826010BD826822F0700297
:1027B0000A4342F0070181607047000030B5036AA8
:1027C000026A22F0010202624268846924F0730501
:1027D0000C682C4323F002058B682B430A4DA8425A
:1027E0000BD123F00805CB6822F440722B434D69CE
:1027F00023F0040315438A692A43426084614968CF
:102800004163036230BD0000002C014030B5026A14
:10281000036A23F010030362436884690D6824F49B
:10282000E64444EA05248D6822F0200242EA0512BB
:102830000B4DA8420ED1CD6822F0800242EA05126B
:102840004D6923F4406343EA85038D6922F0400219
:1028500043EA85034360846149688163026230BD55
:10286000002C014030B5036A026A22F480720262D1
:102870004268C46923F4007324F073050C682C4388
:102880008D6843EA05230C4DA8420ED1CD6823F490
:10289000006343EA05234D6922F4405242EA0512DF
:1028A0008D6923F4806342EA05124260C46149687D
:1028B000C163036230BD0000002C014030B5046AE2
:1028C000026A22F4805202624268C3690D6823F4EE
:1028D000E64343EA05238D6824F4005444EA0534B2
:1028E000064DA84204D14D6922F4804242EA851285
:1028F0004260C36149680164046230BD002C01403C
:1029000010B5036A046A24F001040462846924F0A7
:10291000F00444EA021423F00A020A4384610262CA
:1029200010BD10B5036A046A24F0100404628469BF
:1029300023F0A00324F4704444EA023243EA011174
:102940008261016210BD10B5406A0021C185C18459
:10295000FFF72BF810BD01680C3151E8002F22F46D
:10296000907241E80023002BF5D10168143151E841
:10297000002F22F0010241E80023002BF5D1016B6A
:10298000012909D101680C3151E8002F22F0100211
:1029900041E80023002BF5D1202180F842100021CE
:1029A0000163704708B590F84210222901D0022037
:1029B00008BD82684FF480539A4201D1016921B168
:1029C000816A9A421BD04AB10AE00268816A526861
:1029D000C2F308020A80816A891C08E0026972B1A8
:1029E0000268526802F07F020A70816A491C8162A3
:1029F000C18D491E0904090CC18503D01BE0026882
:102A00005268F1E70168CA6822F02002CA600168D2
:102A1000CA6822F48072CA6001684A6922F0010221
:102A20004A61202180F8421000214163026B012A93
:102A300003D0FFF7AFF9002008BD016301680C3136
:102A400051E8002F22F0100241E80023002BF5D1BD
:102A500001680A68D20602D50A6849680091818D2A
:102A6000FEF7A2FFE7E7000070B5044600680169C1
:102A7000E26821F44051114301612169A0680843D3
:102A8000616908432168CA6841F20C639A430243B2
:102A9000CA6020684169A26921F440711143416113
:102AA0001E492068884202D1FEF7ACFA01E0FEF729
:102AB00099FA00EBC00101EB00126068642180000C
:102AC000B2FBF0F3B3FBF1F36FF018067343B2FB04
:102AD000F0F5B2FBF0F605EB8305322303EB0515A9
:102AE000B5FBF1F5B6FBF1F605F0F00505EB0615C3
:102AF000B2FBF0F6B2FBF0F0B0FBF1F06FF01802B1
:102B0000504306EB800003EB0010B0FBF1F02168AE
:102B100000F00F002844886070BD000000380140BC
:102B200081628285C28500214164222180F84210A1
:102B3000016921B10168CA6842F48072CA60016803
:102B40004A6942F001024A610068C16841F020010F
:102B5000C160002070472DE9F041984617460E46A7
:102B60000446069D27E0681C25D02DB1FDF772FFB5
:102B7000A0EB0800A8421ED920680C3050E8001FC6
:102B800021F4D07140E80012002AF5D120681430F9
:102B900050E8001F21F0010140E80012002AF5D1A1
:102BA000202084F8410084F84200002084F840008E
:102BB0000320BDE8F0812068006836EA000004D0F8
:102BC0000020B842CFD00020F3E70120F9E7000051
:102BD0000148FEF7F1BE0000940100200148FEF715
:102BE000EBBE0000DC010020FEE70000FEB5002483
:102BF000094F4FF4807501263819CDE900060123ED
:102C00000022782102950548FDF7EEFF641CE4B22E
:102C10001B2CF1D3FEBD000000000020B0000020FE
:102C2000490050EAC12018BF04204A0D18BF40F0E7
:102C3000010040F2FF72B2EB515F08BF40F00200AA
:102C4000012808BF052070470907090E002804DB8A
:102C500000F1E02080F80014704700F00F0000F150
:102C6000E02080F8141D70472DE9F74F144694B00A
:102C70000021C4E902111599079121F00045C949C5
:102C80008D4206DC1599C4E9000117B00020BDE8AB
:102C9000F08FC549DFF814A3A9423CDD0799C44E63
:102CA0000029C44FC44A1599534619DDFDF7FFFAB0
:102CB000554506D0C14AC24BFDF7F9FAC4E90001F7
:102CC0000AE04FF0D352BE4BFDF7F1FA32463B46D5
:102CD000FDF7EDFAC4E9000117B00120BDE8F08F5F
:102CE000FDF744FA554506D0B44AB54BFDF73EFA18
:102CF000C4E900010AE04FF0D352B14BFDF736FAB8
:102D000032463B46FDF732FAC4E9000117B04FF0F6
:102D1000FF30BDE8F08FAB49A942159978DB21F06F
:102D2000004183468846A84AA84BFDF7C6FA002210
:102D3000A74BFDF71BFAFDF7EAFC0990FDF72FFB07
:102D400006460F469C4A5346FDF7B7FA43465A4695
:102D5000FDF7B0FA80468A46984A994B3046394684
:102D6000FDF7ABFA2A0D01250B9242465346FDF7BB
:102D7000A1FA032DC4E9000139D00B98C1F30A511F
:102D8000401A05EB45111139814230DA9148C346AA
:102D9000784400EB0510CDF80CA00C90D0E900238E
:102DA00030463946FDF789FA02460B4604910690F3
:102DB00058460399FDF77BFA80468A4602460B4641
:102DC00058460399FDF773FA049B069AFDF76FFACC
:102DD00083460C9803913946D0E902233046FDF72B
:102DE0006CFA5A46039BFDF762FA6D1CBDE7079823
:102DF0000028A2BF099817B0BDE8F08F616881F084
:102E000000416160099817B04042BDE8F08FFFE7CC
:102E100084461598C1F31301C0F30A50A0F2F530AF
:102E20004FEA601800F01F06C6F120001390002042
:102E30000690079041F4801E05206D4676B1664AE3
:102E400008EB00017A4452F8213002EB8101B340D3
:102E50004A68139922FA01F1194305E05F4908EB2A
:102E60000002794451F82210A1FB0E27A1FB0C139C
:102E70001A449A4234BF0123002303EB070A05EBEF
:102E80008003D3E901B70F448F4234BF01210021F1
:102E900093448B4411B1934502D903E0934501D289
:102EA000012100E00021C3E901B7514445F8201099
:102EB000011EA0F10100C1DC0298059F00F1005045
:102EC000800F12900298DDE903568000FDF767FA43
:102ED000834628460D91FDF70DFC6FF01D02FDF7AE
:102EE000F2FBCDE90E013046FDF704FC6FF03D0228
:102EF000FDF7E9FB80468A463846FDF7FBFB6FF09D
:102F00005D02FDF7E0FB0746424653461191FDF78F
:102F10002DF9DDE90E23FDF729F95A460D9BFDF742
:102F200025F900250E465A4628460D9BFDF7BFF9A8
:102F3000DDE90E23FDF7BBF942465346FDF7B7F92D
:102F40003A46119BFDF7B6F9DFF898A0244A53469C
:102F5000FDF7B3F907468846234A244B31462846F5
:102F6000FDF7ABF93A464346FDF700F907468846B8
:102F70004FF0A842534631462846FDF79EF93A469F
:102F80004346FDF7F3F8159A12F0004F04D0129A59
:102F900081F0004152421292C4E90001129817B028
:102FA000BDE8F08FFB21E93F7CD90240FB21F93FCE
:102FB0007370032E8A19A33B000040543163621AD8
:102FC00061B4D03DFB21394183C8C96D305FE43F16
:102FD0000000E03FC4070000400700002207000097
:102FE000182D4454FB21F93D3326A611460B113C04
:102FF0002DE9FF4D21F0004807460C46B8F1795FF6
:1030000008DAFDF784FB002801BF0020324904B034
:10301000BDE8F08D3A46234610461946FDF74DF9B6
:10302000054602462D480E460B460621784400F020
:103030005DF82A463346FDF740F9DDE90223824672
:103040008B4638462146FDF738F904460F4652466E
:103050005B4628463146FDF730F922463B46FDF7F0
:1030600026F907468A464FF0FF3228463146FDF7DB
:103070002AFB1B4A90450ADA3A465346FDF717F9F0
:1030800004B00022BDE8F04D134BFDF713B9154A0B
:103090004245A8BFA8F500154FF00004B8BF124D77
:1030A00022462B46FDF703F90646884622462B4664
:1030B00000200949FDF7FBF804460D463A46534601
:1030C00030464146FDF7F3F804B022462B46BDE8F2
:1030D000F04DFDF7EFB800000000F03FF8040000ED
:1030E0003333D33F0000E93F0000D23F2DE9F041E8
:1030F0004F1E00EBC7010446D1E9000115461E46EC
:1031000037F006020DD02A463346FDF7D6F87F1E6B
:1031100004EBC703D3E90023FDF728F837F00602D4
:10312000F1D1022F25D0042F13D0062F18BFBDE8F0
:10313000F0812A463346FDF7C0F8D4E90A23FDF7AB
:1031400015F82A463346FDF7B8F8D4E90823FDF709
:103150000DF82A463346FDF7B0F8D4E90623FDF70B
:1031600005F82A463346FDF7A8F8D4E90423FCF70E
:10317000FDFF2A463346FDF7A0F8D4E90223FCF709
:10318000F5FF2A463346FDF798F8D4E90023BDE859
:10319000F041FCF7EBBF00002DE9FF4D054621F0A3
:1031A000004084B00C46B0F1795F0BDA2846FFF797
:1031B00037FD042808BF00F06FF8284608B0214604
:1031C000BDE8F08D2A460B461046FDF776F8064618
:1031D0000F462A462346FDF770F8804626488A4661
:1031E00032463B4605217844FFF780FF834610981E
:1031F000029160B3214A224B40465146FDF75DF8EB
:10320000CDE900015A4640465146029BFDF755F86C
:1032100082468846DDE906014FF0FF32FDF753FA9A
:1032200052464346FDF743F832463B46FDF745F824
:10323000DDE90623FDF73BF8DDE90023FDF737F86C
:1032400008B02A462346BDE8F04DFDF733B80B46DB
:103250005A4630463946FDF730F8084A084BFCF725
:1032600085FF42465346FDF728F808B02A46234614
:10327000BDE8F04DFCF77ABF3604000049555555BE
:103280005555C5BF0122FDF71EBA00221346104650
:103290001146FDF7A9B90000024A00201107FDF709
:1032A00012BA000001FDFFFF02E008C8121F08C1AA
:1032B000002AFAD170477047002001E001C1121FB7
:1032C000002AFBD1704700000149086070470000E8
:1032D000AC000020FDF760FDFFF7E4F9FEF7E0FF2A
:1032E000FFF772F8FFF7A4F8FFF722F9FFF74CF8A1
:1032F000FFF702F9FFF73AF9FFF740F901222F49EA
:103300002F48FEF739FD01222E492F48FEF734FDE4
:103310002E496FF00100096808612C48FEF7D8F8C3
:1033200000212B48FEF7F0FA04212948FEF7ECFAB9
:1033300008212748FEF7E8FA0C212548FEF7E4FAB1
:10334000244C002001462DE004F128000FC8FDF7B1
:103350004FF802D80020C4E90A00D4E90A01D4E9F0
:103360000423FCF7AAFF00F03BF8D4E90623FCF79E
:10337000A4FFC4E90001D4E90A01D4E90423FCF75D
:103380009CFF00F02DF8D4E90823FCF796FFC4E970
:1033900002010D4800F074F8D4E90A010E4A0F4BFF
:1033A000FCF7E4FEC4E90A01D4E90C23FDF708F8B0
:1033B000CAD3054800F064F8C3E700009A00002073
:1033C0009401002062000020DC01002004010020A4
:1033D0004C010020200000207B14AE47E17A843F9E
:1033E00000B5254B21F0004287B09A4203DC002251
:1033F000134600922BE0214B9A4208D140B94FF07E
:103400000100FFF761FFFFF740FF07B000BD03DBDE
:10341000FFF738FF07B000BD02AAFFF725FC10F048
:1034200003014FF001000DD0012914D002291AD058
:103430000DF1080C9CE80F00FFF7DAFD07B081F0F2
:10344000004100BD0DF1080C00909CE80F00FFF753
:10345000A3FE07B000BD0DF1080C9CE80F00FFF7BC
:10346000C7FD07B000BD0DF1080C00909CE80F00EF
:10347000FFF792FEE2E70000FB21E93F0000F07F4A
:1034800010B519490446D1E90001FCF7C9FF01460E
:103490002046FFF793F81549D1E90001FCF7C0FF7A
:1034A00001462046FFF78AF81149D1E90001FCF7EF
:1034B000B7FF01462046FFF781F80E49D1E9000128
:1034C000FCF7AEFF01462046FFF778F80A49D1E93C
:1034D0000001FCF7A5FF01462046FFF76FF82046E4
:1034E000BDE81040FFF7A4B83800002040000020DD
:1034F00050000020200000202800002001020203CC
:103500000405060708090A0B0C0D0E0F1010000029
:103510000000000000000102030406070809000083
:1035200000000102030400004C5555555555A53FB8
:103530007751C1166CC156BF9015CB19A001FA3E48
:10354000AD529C804F7E92BEC4B1B4BD9EEE213E72
:10355000D43888BEE9FAA8BD00004054FB21F93FE9
:103560003163621A61B4D03D0000601A61B4D03D8D
:103570007370032E8A19A33B0000002E8A19A33B07
:10358000C14920259A837B3900000000000000001B
:103590006E83F9A22915444ED15727FCC0DD34F5BE
:1035A000999562DB4190433CAB6351FE61C5BBDE44
:1035B0003A6E24B7E0D24D42EA2E49061C92D10958
:1035C0001CEB1DFE3EA729B1F53582E88444BB2ED5
:1035D00026709CE9417E5FB439D69139F439538322
:1035E0008B5F849C3B28F9BDFF97F81F0F9805DE81
:1035F0008B112FEF1F6D0A5ACF7E366DB709CB277F
:10360000663F464F2DEA5F9EC7BA27757BF1E5EB13
:10361000F739073DEA92528AB15FFB6B085D8D1F57
:10362000A6F810111111813FD561C119A0012ABF5F
:103630007DFEB157E31DC73EEB9C2B8AE6E55ABEE3
:103640007CD5CF5A3AD9E53D683600080000002005
:10365000B0000000A832000818370008B0000020B1
:1036600068070000B8320008AE001040B081FFA12A
:10367000A6A83FC8D300D580D805D9F1DA12D83032
:103680008D14AF0000000000000000000000244086
:1036900000000000000024406F1283C0CA210940CE
:1036A000000000000000004000000000000010408A
:1036B00000000000000000001F85EB51B81E1940FB
:1036C00000000000000000000000000000000000FA
:1036D00000000000000000000000000000000000EA
:1036E00000000000000000000000000000000000DA
:1036F00000000000000000000000000000000000CA
:1037000000000000010000001000000000000000A8
:083710000024F4000000000099
:04000005080000ED02
:00000001FF
