:020000040800F2
:10000000D8060020A10100080F240008CF1B00081B
:100010000D240008D9020008952D000800000000FA
:10002000000000000000000000000000DD250008C6
:10003000DB02000800000000B5240008D1260008FB
:10004000BB010008BB010008BB010008BB010008A0
:10005000BB010008BB010008BB010008BB01000890
:10006000BB010008BB010008BB010008BB01000880
:10007000BB010008BB010008BB010008BB01000870
:10008000BB010008BB010008BB010008BB01000860
:10009000BB010008BB010008BB010008BB01000850
:1000A0007D270008A1270008952700088927000858
:1000B000AD270008B9270008C5270008BB010008C4
:1000C000BB010008BB010008BB010008BB01000820
:1000D000BB010008BB010008892D0008BB01000816
:1000E000BB010008BB010008BB010008BB01000800
:1000F000BB010008BB010008BB010008BB010008F0
:10010000BB010008BB010008BB010008BB010008DF
:10011000BB010008BB010008BB010008BB010008CF
:10012000BB010008BB010008BB010008BB010008BF
:10013000BB010008BB010008BB010008BB010008AF
:10014000BB010008BB010008BB010008BB0100089F
:10015000BB010008BB010008BB010008BB0100088F
:10016000BB010008BB010008BB010008BB0100087F
:10017000BB010008BB010008BB0100080000000033
:10018000BB010008BB010008DFF810D000F092F8B6
:100190000048004701300008AFF30080D806002077
:1001A0000648804706480047FEE7FEE7FEE7FEE711
:1001B000FEE7FEE7FEE7FEE7FEE7FEE76D27000845
:1001C000890100082DE9F05F0546002092469B4614
:1001D00088460646814640241BE02846414647465D
:1001E000224600F057F853465A46C01A914110D3A0
:1001F00011461846224600F03EF82D1A67EB01081A
:100200004F4622460120002100F035F817EB000987
:100210004E41201EA4F10104DFDC484631462A4647
:100220004346BDE8F09FD2B201E000F8012B491E21
:10023000FBD270470022F6E710B513460A46044683
:100240001946FFF7F0FF204610BD30B50B460146BA
:1002500000202022012409E021FA02F59D4205D365
:1002600003FA02F5491B04FA02F52844151EA2F10F
:100270000102F1DC30BD202A04DB203A00FA02F151
:10028000002070479140C2F1200320FA03F3194384
:1002900090407047202A04DB203A21FA02F0002126
:1002A000704721FA02F3D040C2F120029140084386
:1002B00019467047064C074D06E0E06840F0010320
:1002C00094E8070098471034AC42F6D3FFF760FF7C
:1002D0000C6B00082C6B0008FEE7704772B6FEE757
:1002E00010EE101A01700A0A42700A0C8270090E90
:1002F000C17070472DE9F0410446876D00F066F942
:10030000064694F835000025022806D08020606556
:1003100084F834500120BDE8F0812068016821F0A4
:10032000160101602068416921F080014161206C63
:1003300008B9A06C20B12068016821F008010160B3
:100340002068016821F0010101600CE000F03EF935
:10035000801B052807D920206065032084F835001C
:1003600084F83450D7E720680068C007EED194F8CD
:100370005C103F208840B860012084F8350084F884
:1003800034500020C7E790F83510022903D08021AF
:10039000416501207047052180F83510006801682B
:1003A00021F00101016000207047000070B5044693
:1003B00000F00CF90546601C02D0044800780444A3
:1003C00000F004F9401BA042FAD370BD00000020E9
:1003D0002DE9F84FDFF8BCA10022012503264FF0DC
:1003E0000F090AF1040BAAF1040E00BF0B6805FA0D
:1003F00002F42340A34270D10F7907F00307012FC5
:1004000001D0022F16D187684FEA420806FA08FC8D
:1004100027EA0C07D1F80CC00CFA08FC4CEA070CD0
:10042000C0F808C04768A7430C79C4F3001494408F
:100430003C4344600C79E443A4070AD0C4684FEA03
:10044000420C06FA0CF7BC438F6807FA0CF72743F7
:10045000C7600C7904F00304022C12D1D40800EB1D
:10046000840CDCF820405707FF0E09FA07F824EA4D
:100470000804D1F8108008FA07F848EA0408CCF814
:10048000208004684FEA420C06FA0CF7BC430F794F
:1004900007F0030707FA0CF7274307604C6814F4CA
:1004A000403F70D03C4C276847F480472760246861
:1004B00022F0030704F480440094384C07EB040C4A
:1004C000DCF8084897074FEA177809FA08F7BC43A1
:1004D000334FB84202D1002724E054E0314FB842F4
:1004E00001D101271EE0304FB84201D1022719E0A7
:1004F0002E4FB84201D1032714E02D4FB84201D14D
:1005000004270FE02B4FB84201D105270AE02A4FFC
:10051000B84201D1062705E0284FB84201D107278C
:1005200000E0082707FA08F72743CCF80878DAF83C
:1005300000405746D1F804C09C435FEACC2C00D55C
:100540001C433C60DBF800405F46D1F804C09C438C
:100550005FEA8C2C00D51C433C60DEF800407746F7
:10056000D1F804C09C435FEA8C3C00D51C433C603E
:10057000084F083F3C68D1F804C09C435FEACC3C7C
:1005800000D51C433C60521C102AFFF42FAFBDE87D
:10059000F88F0000083C0140443802400030014020
:1005A000000002400004024000080240000C02402B
:1005B000001002400014024000180240001C0240DB
:1005C0000AB1816170470904FBE7000001488068B7
:1005D0007047000000000020024881680278114442
:1005E00081607047000000200B4810B5016841F49D
:1005F00000710160016841F480610160016841F4AB
:1006000080710160032000F06FF80F2000F006F801
:1006100000F024F8002010BD003C024070B50D4DE4
:1006200004464FF47A712878B1FBF0F00A49096862
:10063000B1FBF0F000F055FC48B9102C07D20022B5
:100640002146501E00F030F800206C6070BD012083
:1006500070BD0000000000200C0000200A4808B512
:10066000016841F480410160006800F4804000901E
:100670000548001F016841F080510160006800F0EA
:100680008050009008BD000044380240002809DB7B
:1006900000F01F02012191404009800000F1E0209C
:1006A000C0F8001170470000F0B40E4B1B680C46F8
:1006B000C3F30223C3F10705042D00D90425191D36
:1006C000072901D2002300E0DB1E012606FA05F10E
:1006D000491E214099409E40761E16403143F0BC91
:1006E00002F06EBB0CED00E0064900F0070208685E
:1006F0004FF6FF03184040EA0220034A1043086007
:10070000704700000CED00E00000FA052DE9F0470D
:100710000E46050065D0DFF81481D8F80000F7B266
:1007200000F00700B04207D288F80070D8F8000047
:1007300000F00700B04254D128683D4C810712D523
:10074000400703D5206840F4E05020602878000777
:1007500003D5206840F4604020602068A96820F03C
:10076000F000084320602878C0072DD03049686821
:100770000839012812D0022813D0032811D00968A3
:10078000890700292DDA216821F003010143216046
:10079000FFF71CFF814641F2883A0EE009688903A1
:1007A000EFE709688901ECE7FFF710FFA0EB09010B
:1007B000514502D90320BDE8F0872068696800F040
:1007C0000C00B0EB810FEFD1D8F80010404601F0DB
:1007D0000701B14207D90770006800F00700B04276
:1007E00001D00120E7E72878400705D52068E968AF
:1007F00020F4E050084320602878000706D52068E0
:10080000296920F4604040EAC100206000F038F817
:100810002168084AC1F30311515CC84006490860C9
:1008200006480068FFF7FAFE0020C4E7003C0240DB
:1008300008380240D83100080C00002004000020D5
:100840000448054900680968044AC1F38221515CE3
:10085000C84070470C00002008380240E83100080A
:100860000448054900680968044AC1F34231515CF3
:10087000C84070470C00002008380240E8310008EA
:10088000154810B5006810F00C02144813D0144934
:10089000042A0FD0082A0ED10F4C241F2268236887
:1008A00002F03F025B0207D52068C0F38810A0FB6E
:1008B000010106E0084610BD2168C1F38811A1FBC3
:1008C00000010023FFF77EFC2168C1F30141491CB0
:1008D0004900B0FBF1F010BD083802400024F400DC
:1008E00040787D012DE9F84F04006ED02078DFF8C4
:1008F0004C93C007A9F104054AD009F1040001682E
:10090000C1F38101012908D00068C0F381000228E9
:100910000AD1D9F80000400206D52868800337D5EF
:1009200060680028E1D033E06068B0F5803F10D007
:10093000B0F5A02F286810D020F4803028602868F7
:1009400020F4802028606068A8B1FFF73FFE0646CB
:100950000DE0286840F48030F4E740F480202860FF
:10096000F7E700BFFFF732FE801B642873D82868C2
:100970008003F7D50CE0FFF729FE064605E000BF2F
:10098000FFF724FE801B6428F0D828688003F7D482
:100990002078DFF8AC8280074FF0000A3ED5A748E8
:1009A000001D016811F00C0F08D00068C0F3810031
:1009B00002280BD1D9F80000400207D4286880072C
:1009C00016D5E068012800D112E033E1E068B8B143
:1009D0000120C8F80000FFF7F9FD064605E000BF5A
:1009E000FFF7F4FD801B0228C0D828688007F7D5E0
:1009F0002868216920F0F80040EAC10028600DE075
:100A0000C8F800A0FFF7E2FD064604E0FFF7DEFDB0
:100A1000801B02281FD828688007F7D42078000799
:100A200022D5864F87486169703771B10121016015
:100A3000FFF7CCFD064604E0FFF7C8FD801B022847
:100A400009D838688007F7D50EE0C0F800A0FFF796
:100A5000BDFD064605E082E0FFF7B8FD801B0228D9
:100A60007DD838688007F7D42078400768D5DFF84C
:100A7000CCB100270BF13C0BDBF80000C0000BD41D
:100A8000DBF8001041F08051CBF80010DBF80000DB
:100A9000012700F0805000906B4E3068C00510D4E4
:100AA000306840F480703060FFF790FD009005E002
:100AB000FFF78CFD0099401A022850D83068C00515
:100AC000F6D55E4EA0686C3601280FD00528306838
:100AD00010D020F001003060306820F00400306059
:100AE000A068B8B1FFF772FD00900FE0306840F0E9
:100AF0000100F4E740F004003060F7E7FFF766FD1F
:100B00000099411A41F28830814266D830688007E6
:100B1000F4D50EE0FFF75AFD009007E0FFF756FD11
:100B20000099411A41F28830814256D830688007D6
:100B3000F4D42FB1DBF8001021F08051CBF8001075
:100B4000A069C8B33D49091D0968C1F381010229A3
:100B50004AD00228504607D0C8F8600000E03CE0C8
:100B6000FFF734FD04463BE04746C8F86000FFF756
:100B70002DFD064605E000BFFFF728FD801B02287B
:100B80002BD828688001F7D4D4E907010843A16A6B
:100B90002E4A490802EB0141626A41EA8211084388
:100BA00094F82C1040EA0161C9F800100120386661
:100BB000FFF70CFD044606E03EE000BFFFF706FD30
:100BC000001B022809D828688001F7D534E000BF4F
:100BD000FFF7FCFC001B022802D90320BDE8F88FB8
:100BE00028688001F4D427E00128F7D0D9F8000064
:100BF000E26900F4800191421CD1226A00F03F01B9
:100C0000914217D147F6C071626A0140B1EB821F71
:100C100010D1A26A4FF0FF3300F4403103EB5202CF
:100C2000B1EB024F06D194F82C1000F07060B0EBDD
:100C3000016F01D00120D1E70020CFE70438024046
:100C400000004742800E4742007000400000FFFF56
:100C500070B5040009D0606A002540B12561656166
:100C6000A56294F8510040B10CE0012070BD6068AD
:100C7000B0F5827FF4D0E561F2E784F85050204669
:100C800000F044F8022084F851002068016821F047
:100C900040010160A088218900F4827001F40441C0
:100CA0000843A18901F400610843217C01F002019D
:100CB0000843217D01F001010843218B01F40071FB
:100CC0000843217F01F03801084394F8201001F017
:100CD00080010843218D01F4005108432168086018
:100CE000A069042101EA104094F8241001F01001D9
:100CF0000843216848602068C16921F40061C1612E
:100D00006565012084F85100002070BD10B586B0E3
:100D1000044614216846FFF78DFA1349206888427B
:100D200020D112480021026842F48052026000681B
:100D300000F4805005900D481438026842F001021A
:100D40000260006800F001000590E02000900220A1
:100D5000CDE9010103200390052004906946044871
:100D6000FFF736FB06B010BD0030014044380240AA
:100D7000000002402DE9F84F044690F8500000268C
:100D8000984615468A4601280CD0012784F85070F1
:100D9000FFF71CFC814694F85100B346012804D0AB
:100DA00002269AE00220BDE8F88FBAF1000F6FD05A
:100DB000002D6DD0032084F85100C4F854B0C4F85D
:100DC00030A0A586E586C4F838B0A4F83CB0A4F8F5
:100DD0003EB0C4F844B0C4F840B0A068B0F5004FCD
:100DE00009D12068016821F0400101602068016894
:100DF00041F48041016020680168490603D401681C
:100E000041F040010160E068B0F5006F606803D018
:100E100058B3012D29D049E008B1012D1FD1206B15
:100E200021680088C86006E020688168890709D5C4
:100E3000216B0988C160206B801C2063E08E401EFE
:100E4000E0860CE0FFF7C2FBA0EB0901414503D3AC
:100E5000B8F1FF3F03D006E0B8F1000F03D0E08EF9
:100E60000028E1D125E0032635E0206B21680078D9
:100E7000087306E02068816889070AD5216B097824
:100E80000173206B401C2063E08E401EE0860DE065
:100E90001FE0FFF79BFBA0EB0901414503D3B8F12D
:100EA000FF3F03D0DFE7B8F1000FDCD0E08E002871
:100EB000E0D14A464146204601F0FEFA08B1202022
:100EC0006065A06818B92068C16880680090606D8E
:100ED00008B1012601E084F8517084F850B0304622
:100EE00061E710B5401EB0F1807F01D3012010BD35
:100EF0004FF0E02460610F21601701F061FF0020D6
:100F0000A06107202061002010BD704770470000DD
:100F100070B590F83C20012A32D0012480F83C4082
:100F2000022280F83D2003685A689D6822F070060E
:100F30000A6832435A60134B02689A4214D0B2F1E5
:100F4000804F11D0104B9A420ED0104B9A420BD0CA
:100F50000F4B9A4208D00F4B9A4205D00E4B9A4243
:100F600002D00E4B9A4204D1496825F08003194300
:100F7000916080F83D40002180F83C10084670BD2B
:100F8000022070BD00000140000400400008004045
:100F9000000C0040000401400040014000180040E7
:100FA00010B5040003D094F83D0010B107E0012013
:100FB00010BD002084F83C00204600F01FF80220FD
:100FC00084F83D00211D206801F002FC012084F816
:100FD000460084F83E0084F83F0084F8400084F81E
:100FE000410084F8420084F8430084F8440084F807
:100FF000450084F83D00002010BD000008B50168E0
:101000001448B1F1804F14D0134A914220D10168A5
:1010100041F0040101600068002200F0040000902B
:1010200011461E20FFF740FB1E20BDE80840FFF7D9
:101030002DBB016841F0010101600068002200F051
:101040000100009011461C20FFF72EFB1C20ECE74E
:1010500008BD0000403802400008004090F83D10F4
:10106000012901D001207047022180F83D1001685C
:10107000CA6842F00102CA6000681149884214D06F
:10108000B0F1804F11D00F4988420ED00E498842EE
:101090000BD00E49884208D00D49884205D00D4931
:1010A000884202D00C49884204D1816801F00701CE
:1010B000062903D0016841F001010160002070475A
:1010C000000001400004004000080040000C004007
:1010D00000040140004001400018004070B5044683
:1010E00090F83C000025012817D0012684F83C60C8
:1010F000022084F83D002068826822F0770222F402
:101100007F4282600868502838D00DDC20284FD0FC
:1011100005DC90B3102811D14AE0022070BD3028C0
:1011200046D040280AD13BE060282FD070280DD04F
:10113000B0F5805F03D0B0F5005F12D0012584F8D0
:101140003D60002084F83C00284670BDCB68D1E9A2
:101150000121206801F0B5FB2068816841F077012A
:1011600009E0CB68D1E90121206801F0AAFB2068E1
:10117000816841F480418160E1E719E0CA6849680B
:10118000206801F073FC5021206806E0CA684968B5
:10119000206801F07CFC6021206801F09CFBCEE718
:1011A000CA684968206801F061FC40212068F4E7C2
:1011B000226801461046F0E72DE9F0410D46040093
:1011C00003D094F83D0018B108E00120BDE8F0819B
:1011D000002084F83C00204600F040F8022084F80B
:1011E0003D002068816844F2070291438160211D1F
:1011F000206801F0EDFA226890689169166A2B6800
:10120000AF69034340F20330814341EA0721A868F4
:10121000EF6908434FF6FC418843E96840EA07203C
:10122000014328692F6A000140EA073008436968D2
:101230006D6926F0AA0646EA0515294393602268DF
:10124000906154F8460B0162012004F81F09E07513
:101250002076E0762077A0750020B7E710B586B03D
:10126000044614216846FEF7E5FF2268354C00214C
:1012700035480223A2423CD1334A1432146844F068
:1012800001041460126802F001020592026842F043
:1012900010020260006800F0100005904FF420601A
:1012A0000090CDE901310120CDE9031069462748BE
:1012B000FFF78EF8002211461820FFF7F5F91820E5
:1012C000FFF7E4F9002211461920FFF7EDF9192084
:1012D000FFF7DCF9002211461A20FFF7E5F91A2082
:1012E000FFF7D4F9002211461B20FFF7DDF91B2080
:1012F00024E0174CA24223D1134A1032146844F060
:1013000002041460126802F002020592026842F0C0
:1013100002020260006800F0020005903020009098
:10132000CDE90131CDE9031369460A48FFF750F8CA
:10133000002211461D20FFF7B7F91D20FFF7A6F97F
:1013400006B010BD000001403038024000100240DD
:10135000000400400004024070472DE9F0410446BB
:101360000068C66805694FF00007A90713D5B107E3
:1013700011D5F91E0161012020772068806980075E
:10138000204602D0FFF7E8FF04E000F0A9F820466D
:1013900000F03BF92777680716D5700714D5216848
:1013A0006FF004000861022020772068806910F443
:1013B000407F204602D0FFF7CFFF04E000F090F816
:1013C000204600F022F92777280715D5300713D5D6
:1013D00021686FF008000861042020772068C06948
:1013E0008007204602D0FFF7B7FF04E000F078F84E
:1013F000204600F00AF92777E80616D5F00614D53E
:1014000021686FF010000861082020772068C0690B
:1014100010F4407F204602D0FFF79EFF04E000F06A
:101420005FF8204600F0F1F82777E80708D0F007CA
:1014300006D021686FF001000861204600F04AF9EB
:10144000280608D5300606D521686FF080000861AF
:101450002046FFF75AFD680608D5700606D52168B4
:101460006FF040000861204600F04CF9A8060AD54C
:10147000B00608D521686FF0200008612046BDE85D
:10148000F041FFF743BDBDE8F081000010B586B024
:10149000044614216846FEF7CDFE0E4920688842B6
:1014A00015D10D480021026842F002020260006876
:1014B00000F0020005904FF4407000900220CDE94A
:1014C0000101CDE9031069460448FEF781FF06B02B
:1014D00010BD000000080040303802400004024007
:1014E000704770B5044690F83C0000260D46012870
:1014F0000FD0012084F83C006AB1042A1DD0082ACC
:101500002FD00C2A3FD00126002084F83C00304622
:1015100070BD022070BD206801F0E6F92068816985
:1015200041F0080181612068816921F00401816135
:10153000206881692A69114311E0206801F004FAEA
:101540002068816941F4006181612068816921F42A
:1015500080618161206881692A6941EA0221816193
:10156000D2E7206801F026FA2068C16941F008013D
:10157000C1612068C16921F00401C1612068C169AD
:101580002A69114311E0206801F048FA2068C16916
:1015900041F40061C1612068C16921F48061C161C9
:1015A0002068C1692A6941EA0221C161ACE710B52E
:1015B000040003D094F83D0010B107E0012010BDF5
:1015C000002084F83C00204600F01EF8022084F839
:1015D0003D00211D206801F0FBF8012084F8460041
:1015E00084F83E0084F83F0084F8400084F841000D
:1015F00084F8420084F8430084F8440084F84500ED
:1016000084F83D00002010BD7047704710B50446B7
:10161000022249B104290ED0082913D094F84100C0
:10162000012816D0012010BD94F83E000128F9D100
:1016300084F83E200FE094F83F000128F2D184F8AE
:101640003F2008E094F840000128EBD184F84020C6
:1016500001E084F841200122206801F025F91649B3
:101660002068164A884201D0904203D1436C43F46B
:10167000004343642068884213D0B0F1804F10D0FB
:101680000F4988420DD00F4988420AD00E4988423E
:1016900007D0904205D00D49884202D00C498842BB
:1016A00004D1816801F00701062903D0016841F0E7
:1016B00001010160002010BD000001400004014054
:1016C0000004004000080040000C004000400140C1
:1016D0000018004010B50068B0F1804F0ED101F045
:1016E000EFFC074C00EE100AA060F8EEC00A94ED83
:1016F000010AB8EEC00A00F08BFEE06010BD0000E9
:101700001000002070477047704710F8411F407864
:1017100008437047F8B5016804460868CA684B6911
:1017200010F00F0F4FF0000559D003F0010602F43E
:101730009077374365D0C10705D0D10503D5616CDB
:1017400041F001016164410705D5D90703D0616CFF
:1017500041F002016164810705D5D90703D0616CAE
:1017600041F004016164010707D502F02001314313
:1017700003D0616C41F008016164616C00293AD0CA
:10178000800604D5900602D5204601F0C1F92068F4
:101790004069616CC0F38010090700D460B3204633
:1017A00001F08FF920684069400621D52068143087
:1017B00050E8001F21F0400140E80012002AF5D156
:1017C000E06BA8B16E490165E06BFEF7DCFD002817
:1017D00011D0E06B016D01B0BDE8F0400847830611
:1017E0000FD593060DD52046BDE8F84001F090B91D
:1017F0002046FFF789FFF8BD2046FFF785FF6564A7
:10180000F8BD266B2023012E7DD1C6067BD5D606DA
:1018100079D508684868009048694FF0020640068C
:1018200041D5E16B086840680004000CE8D0A28D47
:101830008242E5D9E085C869B0F5807F2DD0206867
:101840000C3050E8001F21F4807140E80012002A9B
:10185000F5D12068143050E8001F21F0010140E864
:101860000012002AF5D12068143050E8001F21F042
:10187000400140E80012002AF5D184F84230256387
:1018800020680C3050E8001F21F0100140E80012E1
:10189000002AF5D1E06BFEF72DFD6663A08DE18D8A
:1018A000401A81B22AE0A08DE18D401A81B2E08D0C
:1018B0000028A5D00029A3D022680C3252E8000FDE
:1018C00020F4907042E80007002FF5D12068143012
:1018D00050E8002F22F0010240E80027002FF5D148
:1018E00084F84230256320680C3050E8002F22F045
:1018F000100240E80023002BF5D166632046FFF775
:1019000002FFF8BDFFE705062BD5150629D594F88B
:1019100041002128F5D1A068B0F5805F01D1206990
:10192000B0B1206A411C2162216800784860E08CD7
:10193000401E0004000CE084E3D12068C16821F05F
:101940008001C1602068C16841F04001C160D8E7F2
:10195000206A0088C0F308004860206A801C20626A
:10196000E5E74006CDD55006CBD5CA68204622F023
:101970004002CA6084F8413000F028F9C1E7000055
:10198000B32A000870B5040004D094F84100002583
:1019900010B106E0012070BD84F84050204600F0F0
:1019A00023F8242084F841002068C16821F4005104
:1019B000C160204601F00EF92068016921F49041D0
:1019C00001612068416921F02A0141612068C168F4
:1019D00041F40051C1606564202084F8410084F81E
:1019E00042006563002070BDF0B587B00446142145
:1019F0006846FEF71FFC364A266800213548022358
:101A00000324072596421AD1324A1432166846F04A
:101A100010061660126802F010020592026842F089
:101A200001020260006802AA00F00100059082E84D
:101A300032006002CDE900036946274844E0254AA8
:101A4000264F1032BE4223D1166846F40036166087
:101A5000126802F400320592026842F00802026045
:101A6000006802AE00F00800059086E832006020B1
:101A7000CDE9000369461A48FEF7AAFC0022114688
:101A80002620FEF711FE2620FEF700FE07B0F0BD6F
:101A9000144FBE42FAD1166846F4802616601268CA
:101AA00002F480220592026842F00202026000689D
:101AB00002AE00F00200059086E832004FF440606C
:101AC000CDE9000369460848FEF782FCDEE7000026
:101AD0000010014030380240000002400044004045
:101AE000000C0240004800400004024090F84230E0
:101AF000202B01D00220704721B11AB100230363CB
:101B000001F0EEB801207047064901F110030A7890
:101B10004878303A1A54401C487001220248FFF7B6
:101B2000E5BF000010000020200200202DE9F8434E
:101B3000044690F84100984616460D46202802D0EB
:101B40000220BDE8F88385B17EB1002060642120C9
:101B500084F84100FEF73AFDA6848146E684A06839
:101B60002027B0F5805F02D003E00120E9E720697B
:101B700010B12E4600250EE000260CE08021204604
:101B800001F0C9F8A8B9C6B116F8010B2168486080
:101B9000E08C401EE084E08C4B464FF00002CDF814
:101BA00000800028EAD14FF04001204601F0B3F850
:101BB00040B184F841700320C3E735F8020BC0F34D
:101BC0000800E3E784F841700020BAE77047FEE7B9
:101BD0002DE9F04107461C4615460E462A2000F026
:101BE000F1F9BF1CB8B200F0E2F9AD1CA8B200F0E8
:101BF000DEF92B2000F0E6F9761CB0B200F0D7F940
:101C0000641CA0B200F0D3F9BDE8F0412C2000F034
:101C1000D9B910B514460B460246FFF7D9FF204646
:101C2000BDE8104000F0C3B92DE9F04780461F46DB
:101C3000581E83B21646501E82B20C464046DDF84E
:101C40002090FFF7C5FF0AE0454604E0484600F053
:101C5000AEF96D1CADB2B542F8D3641CA4B2BC425F
:101C6000F2D3BDE8F087000010B57E4C00220421BD
:101C70002046FEF7A5FC6420FEF798FB0122042114
:101C80002046FEF79DFC6420FEF790FB0122022116
:101C90002046FEF795FC6420FEF788FB112000F03B
:101CA00091F97820FEF782FBB12000F08BF9052036
:101CB00000F09CF93C2000F099F93C2000F096F9E6
:101CC000B22000F07FF9052000F090F93C2000F0F0
:101CD0008DF93C2000F08AF9B32000F073F905205B
:101CE00000F084F93C2000F081F93C2000F07EF9FE
:101CF000052000F07BF93C2000F078F93C2000F052
:101D000075F9B42000F05EF9032000F06FF9C020EF
:101D100000F058F9282000F069F9082000F066F971
:101D2000042000F063F9C12000F04CF9C02000F05D
:101D30005DF9C22000F046F90D2000F057F90020AF
:101D400000F054F9C32000F03DF98D2000F04EF969
:101D50002A2000F04BF9C42000F034F98D2000F067
:101D600045F9EE2000F042F9C52000F02BF91A20C9
:101D700000F03CF9362000F025F9C02000F036F9DB
:101D8000E02000F01FF9042000F030F9222000F0DC
:101D90002DF9072000F02AF90A2000F027F92E205B
:101DA00000F024F9302000F021F9252000F01EF980
:101DB0002A2000F01BF9282000F018F9262000F056
:101DC00015F92E2000F012F93A2000F00FF900204A
:101DD00000F00CF9012000F009F9032000F006F9E9
:101DE000132000F003F9E12000F0ECF8042000F0EB
:101DF000FDF8162000F0FAF8062000F0F7F80D20A4
:101E000000F0F4F82D2000F0F1F8262000F0EEF8B4
:101E1000232000F0EBF8272000F0E8F8272000F05E
:101E2000E5F8252000F0E2F82D2000F0DFF83B2057
:101E300000F0DCF8002000F0D9F8012000F0D6F81E
:101E4000042000F0D3F8132000F0D0F83A2000F07E
:101E5000B9F8052000F0CAF8BDE81040292000F0CC
:101E6000B1B80000000002402DE9FF4F81B00446E8
:101E7000DDF83C9000904FEA59074FF000087807D2
:101E800000D0012000EBD70000FB09FB203AD0B2C4
:101E90000390029802994844401E83B2E019401E04
:101EA00082B22046FFF794FE002553E0B9F10C0FF3
:101EB0002AD0B9F1100F2ED0B9F1180F2ED0B9F1E8
:101EC000200F49D12749039801EB8010002610F814
:101ED00005A0109800284FF0010000FA06F000EA73
:101EE0000A0022D020B12046049A0299FFF791FE01
:101EF000641C0098A4B2201AB84225D10298009C14
:101F0000401C80B2029023E00398174900EB400088
:101F100001EB8000DAE71549039803E003981449C0
:101F200000EB400001EB0010D0E708B1049800E09E
:101F30000E9800F03CF808F10100C0B2B0FBF7F1D8
:101F4000804607FB118050B1761CF6B2082EC0D334
:101F50006D1CADB25D45A9D305B0BDE8F08F4FF063
:101F60000008F5E7244E0008F03100086436000848
:101F7000543C00082DE9FE4F9946DDE90D671446F3
:101F80008A460546DDF830800CE0CDF800804B46EF
:101F900051462846CDE90167FFF766FF05EB56007D
:101FA00085B2641C2278002AEFD1BDE8FE8F10B5FF
:101FB0000446000A00F01AF8E0B2BDE8104000F054
:101FC00015B8000070B5084C0546002208212046CF
:101FD000FEF7F6FA284600F009F82046BDE8704002
:101FE00001220821FEF7ECBA0000024031B5094C8D
:101FF000002210212046FEF7E3FA4FF47A73012203
:1020000069460548FEF7B6FE012210212046FEF77C
:10201000D7FA38BD00000240600000202DE9F043EF
:1020200087B014216846FEF705F93E480024016890
:1020300041F010010160016801F010010591016893
:1020400041F004010160016801F00401059101689B
:1020500041F080010160016801F080010591016893
:1020600041F001010160016801F001010591016881
:1020700041F002010160016801F00201059101686F
:1020800041F040010160016801F0400105910168E3
:1020900041F0080101600068234F00F0080005903E
:1020A00000223C213846FEF78BFA0122DFF87C90B3
:1020B000560331464846FEF783FADFF87480002263
:1020C0001F214046FEF77CFA3C2000900125CDE917
:1020D0000154694638460394FEF77AF90096CDE933
:1020E0000154694648460394FEF772F91F20009098
:1020F000CDE90154694640460394FEF769F904208E
:10210000CDE9000469460B480294FEF761F980208E
:10211000CDE90004694648460294FEF759F907B034
:10212000BDE8F08330380240001002400008024051
:102130000000024000180240104810B50E4901602E
:102140004FF48271416000218160C1604FF40072E0
:102150000161C0E905120822C0E9072141628162DC
:102160000A21C162FEF774FD002803D0BDE81040CB
:10217000FEF7B4B810BD0000003001406000002040
:1021800010B58CB024216846FEF754F80024164898
:10219000099414490A94C0E900144FF6FF71C0E98C
:1021A00002410461446184610320CDE900040120FF
:1021B000CDE902040494CDE90540079469460A4834
:1021C0000894FEF7F9FF08B1FEF788F8099409A909
:1021D00005480A94FEF79CFE002801D0FEF77EF821
:1021E0000CB010BD00000140B800002010B586B052
:1021F00000241648009401940294039404944FF030
:10220000804105940160A721C0E9011442F20F71D9
:10221000C0E903148461FEF7C3FE08B1FEF75EF85F
:102220004FF48050009069460848FEF757FF08B108
:10223000FEF754F8049404A904480594FEF768FED8
:10224000002801D0FEF74AF806B010BD00010020BA
:1022500010B58CB024216846FDF7ECFF0024164829
:10226000099414490A94C0E900144FF6FF71C0E9BB
:102270000241046184610320CDE900040120CDE91D
:1022800002040494CDE90540079469460A4808947D
:10229000FEF792FF08B1FEF721F8099409A9064854
:1022A0000A94FEF735FE002801D0FEF717F80CB0AF
:1022B00010BD0000000400404801002010B58EB0A1
:1022C00000240794089409940A940B941C216846EE
:1022D0000C94FDF7AFFF224820490160A721C0E917
:1022E000011440F2E731C0E903148461FEF758FE9F
:1022F00008B1FDF7F3FF4FF48050079007A9184885
:10230000FEF7ECFE08B1FDF7E9FF1548FFF74FF9BE
:1023100008B1FDF7E3FF0B940BA911480C94FEF7ED
:10232000F7FD08B1FDF7DAFF6020CDE90004029463
:10233000082269460A480494FFF7D3F808B1FDF76C
:10234000CDFF0C2269460648FFF7CBF808B1FDF730
:10235000C5FF0348FFF79AF80EB010BD0008004013
:10236000900100200C4810B50A4901604FF4E1319A
:102370004160002181600C22C160C0E904128161CA
:10238000C161FFF7FFFA002803D0BDE81040FDF758
:10239000A5BF10BD00100140D80100200C4810B5A9
:1023A0000A4901604FF416514160002181600C22FE
:1023B000C160C0E904128161C161FFF7E3FA00283E
:1023C00003D0BDE81040FDF789BF10BD00440040B8
:1023D000200200200C4810B50A4901604FF4E13199
:1023E0004160002181600C22C160C0E9041281615A
:1023F000C161FFF7C7FA002803D0BDE81040FDF720
:102400006DBF10BD0048004068020020FEE7FEE7F7
:102410001D4830EE600A90ED001AC16800EE901A77
:102420001A49F8EEE00A70EE600A61EE201AC1ED7A
:10243000001AD0ED010A60EE800AC1ED010AC268FF
:10244000520001EE102A0269B8EEC11A30EE412A9C
:1024500001EE102A71EEA00AB8EEC11A32EE011A8E
:1024600090ED022A21EE021A81ED021A70EE810A25
:10247000C1680161BDEEC00A10EE101AC160BDEE68
:10248000E00A10EE100A7047B00200204000002061
:1024900006480021C16001619FED050A80ED000A38
:1024A00080ED010A80ED020A70470000B0020020B2
:1024B0000000000070470000F8B515460E460B46B8
:1024C000009204460122022100F02CF8A0B9134822
:1024D00013490068B0FBF1F04FF47A714843009063
:1024E0006068B0F5827F0DD13346002280212046FE
:1024F000009500F017F870B1606D40F02000606545
:102500000320F8BD009830B1401E0090206880681C
:10251000C0430006F6D50020F8BD00000C000020E6
:1025200000366E012DE9F8431E4691468846044662
:10253000089DFEF74BF8401B351AFEF747F8074693
:1025400025480068C0F3CB30684338E0701C37D0B2
:10255000FEF73CF8C01BA84203D215B1009860B347
:102560002CE02068416821F0E00141606068B0F52E
:10257000827F0BD1A068B0F5004F02D0B0F5806F1C
:1025800004D12068016821F040010160A06AB0F523
:10259000005F09D12068016821F4005101602068C2
:1025A000016841F400510160012084F851000020CD
:1025B00084F850000320BDE8F8830025401E0090F9
:1025C0002068816838EA010004D000214945BDD166
:1025D0000020F0E70121F9E70C0000207047F8B572
:1025E0000646002000906846FDF77AFE4FF6FF751C
:1025F0002B46012269463046FFF798FA3046FFF72E
:1026000084F82128FAD06C462B4601223046611C02
:10261000FFF78CFA3046FFF778F82128FAD02B46DE
:102620000122A11C3046FFF781FA3046FFF76DF812
:102630002128FAD02B460122E11C3046FFF776FA1A
:102640003046FFF762F82128FAD0F8BDF8B5064603
:1026500019A04FF6FF75006800902B4601226946CD
:102660003046FFF763FA3046FFF74FF82128FAD0DB
:102670006C462B4601223046611CFFF757FA304664
:10268000FFF743F82128FAD02B460122A11C30463F
:10269000FFF74CFA3046FFF738F82128FAD02B46DE
:1026A0000122E11C3046FFF741FA3046FFF72DF8D2
:1026B0002128FAD0F8BD00000000807F034880ED9B
:1026C000000AC0ED010A80ED021A7047B002002036
:1026D000FDF782BF30B593B030216846FDF7AAFD03
:1026E00014210CA8FDF7A6FD1E480025016841F045
:1026F00080510160006800F0805011901A48016814
:1027000041F4804101600068022400F4804011908F
:1027100001200090000401908001CDE906401920BD
:1027200008904FF4A870CDE9090404200B90684686
:10273000FEF7D8F808B172B6FEE70CA90F2081E8C1
:1027400031004FF4A0500F904FF4805010900521AD
:102750000CA8FDF7DBFF002801D072B6FEE713B02E
:1027600030BD00004038024000700040024801685F
:1027700041F470010160704788ED00E00148FEF708
:10278000ECBD0000B80000200148FEF7E6BD0000E7
:10279000B80000200148FEF7E0BD0000B8000020AE
:1027A0000148FEF7DABD0000B80000200148FEF73E
:1027B000D4BD0000000100200148FEF7CEBD00009E
:1027C000480100200148FEF7C8BD0000900100202C
:1027D000F0B50268294C2A4D2A4E2B4F2B4B4FF057
:1027E000804CA04209D0604507D0A84205D0B04235
:1027F00003D0B84201D0984204D122F0700E4A684A
:1028000042EA0E02A0421BD0604519D0A84217D060
:10281000B04215D0B84213D0984211D01C4DA842F6
:102820000ED01C4DA8420BD01B4DA84208D01B4D0A
:10283000A84205D01A4DA84202D01A4DA84203D191
:1028400022F44075CA682A434D6922F080022A4367
:1028500002608A68C2620A688262A04201D098421D
:1028600001D109690163012141610169C90703D0EF
:10287000016921F001010161F0BD0000000001408B
:102880000004004000080040000C0040000401402B
:102890000040014000440140004801400018004051
:1028A000001C00400020004010B501F01F03012172
:1028B000046A99408C430462016A9A4011430162A0
:1028C00010BD10B5846842EA032224F47F440A4311
:1028D0002243826010BD826822F070020A4342F0F7
:1028E0000701816070470000F0B5036A026A22F0B8
:1028F0000102026242688469124E24F073050C687A
:102900002C4323F002058B682B430D4DA84201D0C8
:10291000B04205D123F00807CB683B4323F0040302
:10292000A84201D0B04205D14D6922F4407215434E
:102930008A692A4342608461496841630362F0BD49
:102940000000014000040140F0B5026A036A23F070
:1029500010030362436884690D6824F4E64444EA82
:1029600005248D6822F0200242EA05120F4D104E18
:10297000A84201D0B04206D1CF6822F0800242EADC
:10298000071222F04002A84201D0B04207D14D699F
:1029900023F4406343EA85038D6943EA850343607A
:1029A0008461496881630262F0BD0000000001405B
:1029B00000040140F0B5026A036A23F480730362E5
:1029C0004368C46922F4007224F073050C68124E47
:1029D0002C438D6842EA05220E4DA84201D0B04238
:1029E00006D1CF6822F4006242EA072222F4806214
:1029F000A84201D0B04207D14D6923F4405343EAC5
:102A000005138D6943EA05134360C4614968C163D6
:102A10000262F0BD000001400004014030B5046ACC
:102A2000026A22F4805202624268C3690D6823F48C
:102A3000E64343EA05238D6824F4005444EA053450
:102A4000084DA84202D0084DA84204D14D6922F495
:102A5000804242EA85124260C361496801640462AF
:102A600030BD0000000001400004014010B5036AC1
:102A7000046A24F001040462846924F0F00444EA46
:102A8000021423F00A020A438461026210BD10B5E9
:102A9000036A046A24F010040462846923F0A0032A
:102AA00024F4704444EA023243EA01118261016273
:102AB00010BD10B5806B0021C185C184FEF724FED6
:102AC00010BD01680C3151E8002F22F4907241E8EA
:102AD0000023002BF5D10168143151E8002F22F0BA
:102AE000010241E80023002BF5D1016B012909D136
:102AF00001680C3151E8002F22F0100241E8002358
:102B0000002BF5D1202180F842100021016370478D
:102B100008B590F84210222901D0022008BD826831
:102B20004FF480539A4201D1016921B1816A9A42DE
:102B30001BD04AB10AE00268816A5268C2F30802F7
:102B40000A80816A891C08E0026972B102685268D1
:102B500002F07F020A70816A491C8162C18D491EA0
:102B60000904090CC18503D01BE002685268F1E733
:102B70000168CA6822F02002CA600168CA6822F4AB
:102B80008072CA6001684A6922F001024A6120210C
:102B900080F8421000214163026B012A03D0FEF746
:102BA000B3FF002008BD016301680C3151E8002F1C
:102BB00022F0100241E80023002BF5D101680A68D9
:102BC000D20602D50A6849680091818DFEF79BFD07
:102BD000E7E7000070B5044600680169E26821F487
:102BE0004051114301612169A068E26908436169AC
:102BF000114308432168CA6849F20C639A430243AF
:102C0000CA6020684169A26921F4407111434161A1
:102C100031492068884202D03049884202D1FDF70C
:102C20001FFE01E0FDF70CFEE26900231921642577
:102C30003226B2F5004F626828D0A0FB0101930F45
:102C40009200FDF7BFFA0146B0FBF5F06FF01802F5
:102C5000504301EB800006EB0010B0FBF5F000F0F4
:102C6000F002B1FBF5F002EB0012B1FBF5F06FF0F2
:102C70001803584301EB800006EB0010B0FBF5F0A1
:102C800000F00F0021681044886070BDA0FB0101B6
:102C900092185B41FDF796FA0146B0FBF5F0020190
:102CA000B1FBF5F06FF01803584301EB800006EB21
:102CB000C000B0FBF5F000F0F80002EB4002B1FB01
:102CC000F5F0584301EB800006EBC000B0FBF5F0D7
:102CD00000F00700D6E7000000100140001401409A
:102CE00081628285C28500214164222180F84210E0
:102CF000016921B10168CA6842F48072CA60016842
:102D00004A6942F001024A610068C16841F020014D
:102D1000C160002070472DE9F843984617460D46DC
:102D20000446089E24E0701C22D0FDF74FFCA0EB67
:102D30000800B0421AD8CEB12068C168490717D53B
:102D4000802D15D0402D13D00168C94309070FD439
:102D500001680025406800902046FFF7B2FE082079
:102D6000606484F840500120BDE8F8830320FBE74D
:102D70002068006835EA000004D00020B842D2D0B4
:102D80000020F1E70120F9E70148FEF7C3BC00008D
:102D900020020020FEE700000FB4084B10B504A984
:102DA00002AA039800F02CF8044602A9002000F0C3
:102DB000D1F8204610BC5DF814FB0000552F000828
:102DC0000907090E002804DB00F1E02080F8001458
:102DD000704700F00F0000F1E02080F8141D7047EC
:102DE00002E008C8121F08C1002AFAD170477047D4
:102DF000002001E001C1121F002AFBD17047000032
:102E00002DE9FF4F89B09B460446002506E02528A2
:102E10000BD05A460B999047641C6D1C20780028F3
:102E2000F5D10DB02846BDE8F08F0027B846012245
:102E3000474900E0074314F8013F203B02FA03F042
:102E40000842F7D120782E2819D114F8010F47F045
:102E500004072A280ED06FF02F022078A0F130014D
:102E600009290CD808EB880102EB410100EB0108AD
:102E7000641CF2E70A98641C50F8048B0A902078CE
:102E80000028CED0642808D0692806D075281ED026
:102E90005A460B9990476D1C58E00A994FF00A0961
:102EA00001C90A91002802DA40422D2102E03905C9
:102EB00004D52B218DF82010012103E0F90704D05F
:102EC0002021F7E78A4608AE0DE00021FAE70A99CB
:102ED0004FF00A0901C90A91F7E74946FDF7B5F92C
:102EE000303106F8011D0028F7D1ADEB060000F1E6
:102EF0002009780701D44FF00108C84502DDA8EB8E
:102F0000090000E000208046002706E008A85A4695
:102F1000C05D0B9990476D1C7F1C5745F6DB04E0A4
:102F200030205A460B9990476D1CB8F10001A8F16A
:102F30000108F5DC05E016F8010B5A460B9990479D
:102F40006D1CB9F10001A9F10109F4DC641C65E70D
:102F5000092801000A68531C0B60107070470000BC
:102F6000FEB5194819A102681B48FFF715FF002498
:102F700010254FF6FF76CDE900453346164A214627
:102F800020460294FEF7F6FF144815A10268124885
:102F9000FFF702FFCDE9004533460F4A102100201C
:102FA0000294FEF7E7FF124812A102680A48FFF7F1
:102FB000F3FECDE900453346074A20210020029464
:102FC000FEF7D8FFFEBD0000180000207370656595
:102FD000643A2564202020004C0000201C000020C2
:102FE00073706565645F6F75743A256420202000F6
:102FF000C402002073746F703A2564202020000002
:1030000008B5FDF7F1FAFFF765FBFFF707F8FFF7E3
:1030100093F8FFF7A7F9FFF7C1F9FFF7DBF9FFF71F
:10302000AFF8FFF715F9FFF749F9FFF7DFF81B488D
:10303000FEF714F81A48FEF711F81A48FEF70EF8D2
:103040001948FEF70BF808211748FEF7DFFA0C21A4
:103050001548FEF7DBFAFEF707FE0020A0238022CA
:1030600001460090FEF7E0FD012210491048FEF7EE
:103070003DFDFFF70DFA9FED0F1ADFED0F0AB3EEDE
:103080000E0AFFF71BFB0D4800F08AF8FFF768FFF8
:1030900000F064F800F03CF8F5E7000000010020C3
:1030A000B8000020480100209001002010000020FE
:1030B00020020020000000000000A0426802002062
:1030C00030B510480368586A0F49104C48602268B0
:1030D000526A00258A605D6223685D624EF6602454
:1030E0004FF6FF73A04201DD181A4860A24201DDCD
:1030F000981A8860D1E90102104400EBD0704010AA
:10310000C86030BD48010020C4020020B800002083
:103110000F4910B501200860024641030D48FDF734
:103120004FFA0D4C002204212046FDF749FA0022F7
:1031300008212046FDF744FA002210212046FDF721
:103140003FFA20460022BDE810402021FDF738BAA2
:10315000C402002000080240001002400D49002275
:103160000878032810D10C480378012B0CD1437840
:10317000022B09D18078094B10B1012803D003E05C
:103180000120186000E01A600A701E210248FDF755
:1031900051B800001100002020000020C4020020CF
:1031A00010B504460A4890ED000A2046B8EEC00A61
:1031B000FFF715FA074890ED000A2046B8EEC00A5E
:1031C000FFF70DFA2046BDE81040FFF73FBA0000B8
:1031D000180000201C00002000000000000000007B
:1031E00001020304060708090000000001020304AD
:1031F00000000000000000000000000000000404C7
:10320000040404000004000014140A00000000007C
:103210000000000000000A0A1F0A0A1F0A0A000034
:1032200000040E1505060C14150E040000001215FE
:103230000D152E2C2A1200000000040A0A3615155E
:10324000291600000202010000000000000000003A
:103250001008080404040404080810000204040808
:10326000080808080404020000000004150E0E15EA
:103270000400000000000008083E080800000000EC
:103280000000000000000000020201000000000039
:10329000003F0000000000000000000000000000EF
:1032A00000020000002010100808040402020100BF
:1032B00000000E1111111111110E00000000040682
:1032C00004040404040E000000000E11110804029E
:1032D000011F000000000E11100C1010110E000054
:1032E0000000080C0C0A091F081C000000001F0148
:1032F000010F1110110E000000000C12010D13112E
:10330000110E000000001E10080804040404000050
:1033100000000E11110E1111110E000000000E110F
:10332000111916100906000000000000040000003A
:10333000000400000000000000040000000404007D
:103340000000100804020204081000000000000041
:103350003F003F00000000000000020408101008B9
:103360000402000000000E11110804040004000013
:1033700000001C22292D2D1D221C00000000040429
:103380000C0A0A1E1233000000000F12120E121255
:10339000120F000000001E1101010101110E0000BA
:1033A00000000F1212121212120F000000001F1262
:1033B0000A0E0A02121F000000001F120A0E0A0263
:1033C0000207000000001C1201013911120C00005C
:1033D00000003312121E12121233000000001F04EC
:1033E00004040404041F000000003E080808080844
:1033F00008080907000037120A060A1212370000EF
:103400000000070202020202223F000000003B1BF4
:103410001B1B15151535000000003B1216161A1A55
:103420001217000000000E1111111111110E0000F1
:1034300000000F12120E02020207000000000E111F
:1034400011111117190E180000000F12120E0A1296
:103450001237000000001E1101060810110F0000B5
:1034600000001F1504040404040E000000003312C1
:1034700012121212120C000000003312120A0A0C6F
:10348000040400000000151515150E0A0A0A0000B4
:1034900000001B0A0A04040A0A1B000000001B0AA1
:1034A0000A0A0404040E000000001F0908040402B4
:1034B000121F00001C0404040404040404041C007F
:1034C0000002020404040808081010000E0808088E
:1034D0000808080808080E00040A000000000000A0
:1034E0000000000000000000000000000000003F9D
:1034F00002040000000000000000000000000000C6
:10350000000C121C123C000000030202020E1212F8
:10351000120E000000000000001C1202120C00003D
:1035200000181010101C1212123C000000000000C5
:10353000000C121E021C000000182404041E0404C7
:10354000041E000000000000003C120C021C221CA3
:1035500000030202020E12121237000000040400DF
:1035600000060404040E000000080800000C08080F
:103570000808080700030202021A0A060A130000DC
:103580000007040404040404041F000000000000F9
:10359000000F15151515000000000000000F121295
:1035A0001237000000000000000C1212120C000084
:1035B00000000000000F1212120E020700000000AF
:1035C000001C1212121C103800000000001B060222
:1035D0000207000000000000001E020C101E000088
:1035E00000000004041E0404041C0000000000008D
:1035F000001B1212123C000000000000001B0A0A0F
:1036000004040000000000000015150E0A0A000066
:1036100000000000001B0A040A1B0000000000005C
:10362000003312120C08040300000000001E0804FE
:10363000041E000018080808080C080808081800EC
:103640000808080808080808080808080604040408
:103650000408040404040600160900000000000029
:10366000000000000000000000000000000000005A
:103670000000000000000008080808080808000012
:103680001818000000486C24120000000000000020
:10369000000000000000002424247F1212127F1278
:1036A000121200000000081C2A2A0A0C1828282AD6
:1036B0002A1C080800000022251515152A58545404
:1036C000542200000000000C1212120A7625291163
:1036D000916E0000000606040300000000000000D8
:1036E000000000000040201010080808080808101A
:1036F00010204000000204080810101010101008DC
:10370000080402000000000008086B1C1C6B08087D
:103710000000000000000000080808087F080808F2
:103720000800000000000000000000000000000091
:10373000060604030000000000000000FE00000078
:103740000000000000000000000000000000000079
:1037500006060000000080404020201010080804E9
:103760000402020000000018244242424242424247
:1037700024180000000000080E08080808080808BF
:10378000083E00000000003C424242202010080495
:10379000427E00000000003C42422018204040428F
:1037A000221C0000000000203028242422227E2039
:1037B000207800000000007E0202021A26404042EB
:1037C000221C0000000000382402021A2642424255
:1037D000241800000000007E2222101008080808AB
:1037E000080800000000003C4242422418244242E3
:1037F000423C00000000001824424242645840400D
:10380000241C000000000000000018180000000048
:103810001818000000000000000000080000000070
:1038200000080804000000402010080402040810EA
:10383000204000000000000000007F0000007F002A
:1038400000000000000000020408102040201008C2
:10385000040200000000003C4242464020101000DC
:10386000181800000000001C225A555555552D42CD
:10387000221C00000000000808181414243C2242F6
:1038800042E700000000001F2222221E2242424284
:10389000221F00000000007C4242010101010142A0
:1038A000221C00000000001F2242424242424242CB
:1038B000221F00000000003F4212121E121202429C
:1038C000423F00000000003F4212121E121202028C
:1038D000020700000000003C2222010101712122A8
:1038E000221C0000000000E7424242427E42424267
:1038F00042E700000000003E080808080808080821
:10390000083E00000000007C101010101010101075
:103910001010110F0000007722120A0E0A12122254
:1039200022770000000000070202020202020202E7
:10393000427F000000000077363636362A2A2A2ACF
:103940002A6B0000000000E346464A4A5252526287
:10395000624700000000001C2241414141414141B9
:10396000221C00000000003F424242423E0202028E
:10397000020700000000001C2241414141414D531B
:10398000321C60000000003F4242423E12122222DE
:1039900042C700000000007C42420204182040425E
:1039A000423E00000000007F490808080808080897
:1039B000081C0000000000E74242424242424242EC
:1039C000423C0000000000E7424222242414141864
:1039D000080800000000006B494949495555362246
:1039E00022220000000000E7422424181818242492
:1039F00042E700000000007722221414080808089B
:103A0000081C00000000007E212010100804044261
:103A1000423F00000078080808080808080808085D
:103A200008087800000002020404080808101020AA
:103A300020204040001E1010101010101010101008
:103A400010101E00003844000000000000000000BC
:103A50000000000000000000000000000000000066
:103A6000000000FF00060800000000000000000049
:103A700000000000000000000000003C42784442CA
:103A800042FC0000000000030202021A26424242E9
:103A9000261A000000000000000000384402020264
:103AA00044380000000000604040407844424242F8
:103AB00064D80000000000000000003C427E0202CA
:103AC000423C0000000000F08808087E0808080852
:103AD000083E0000000000000000007C22221C02C2
:103AE0003C42423C000000030202023A464242428B
:103AF00042E700000000000C0C00000E0808080857
:103B0000083E000000000030300000382020202057
:103B10002020221E0000000302020272120A161266
:103B2000227700000000000E0808080808080808AE
:103B3000083E0000000000000000007F9292929278
:103B400092B70000000000000000003B46424242E5
:103B500042E70000000000000000003C42424242F8
:103B6000423C0000000000000000001B26424242D0
:103B7000221E02070000000000000078444242427A
:103B8000447840E000000000000000774C0404048A
:103B9000041F0000000000000000007C42023C40C6
:103BA000423E0000000000000008083E0808080827
:103BB0000830000000000000000000634242424262
:103BC00062DC000000000000000000E74224241432
:103BD0000808000000000000000000EB49495555AE
:103BE00022220000000000000000007624181818AF
:103BF000246E000000000000000000E742242414AE
:103C000018080807000000000000007E22100808C5
:103C1000447E000000C020202020201020202020F2
:103C20002020C000101010101010101010101010D4
:103C300010101010000608080808081008080808E6
:103C4000080806000C32C20000000000000000005E
:103C50000000000000000000000000000000000064
:103C60000000000000000000000000000000000054
:103C70000000000000000000000000000000000044
:103C80000000000000000000000000006000600074
:103C900060006000600060006000400020002000C4
:103CA00020000000000000006000600060000000D4
:103CB000000000000000000060066006300398016C
:103CC0008800440000000000000000000000000028
:103CD00000000000000000000000000000000000E4
:103CE00000000000000000000000000010021002B0
:103CF00010021002FE07FE07080208010801080171
:103D00000801FE07FE07040104010401040100008C
:103D10000000000000000000000040004000F00132
:103D200058034C03CC034C0058007000E000C00165
:103D3000C00140034C035C034C034801F000400009
:103D40004000000000000000000000000E010A0119
:103D5000910091009100510051003A00AE03A00281
:103D600050045004480448044804840284030000BA
:103D700000000000000000000000000038006C009F
:103D80006C006C006C006C002C0098071C011A0180
:103D9000330133016301E300C308C6093C07000097
:103DA00000000000000000000C001C0010001000CB
:103DB00008000400000000000000000000000000F7
:103DC00000000000000000000000000000000000F3
:103DD000000000000000000000040002000180005C
:103DE0008000400040002000200020002000200033
:103DF0002000200040004000800080000001000200
:103E00000004000000000000020004000800100090
:103E10001000200020004000400040004000400012
:103E200040004000200020001000100008000400A6
:103E30000200000000000000000000000000000080
:103E40004000C0004000460C4E0FD001F0015E0F54
:103E5000460C400040004000000000000000000050
:103E60000000000000000000000000000000000052
:103E7000000040004000400040004000FE0F4000B5
:103E80004000400040004000000000000000000032
:103E90000000000000000000000000000000000022
:103EA0000000000000000000000000000000000012
:103EB00000000000000000000C001C0010001000BA
:103EC00008000400000000000000000000000000E6
:103ED000000000000000000000000000FE070000DD
:103EE00000000000000000000000000000000000D2
:103EF00000000000000000000000000000000000C2
:103F000000000000000000000000000000000000B1
:103F100000000000000000001C001C001C0000004D
:103F20000000000000000000000400060002000382
:103F3000000100018000800040004000600020007F
:103F4000200010001000080008000C00040006000B
:103F50000200000000000000000000000000F0006F
:103F600098010C030C03060606060606060606065E
:103F70000606060606060C030C039801F000000076
:103F800000000000000000000000000000004000F1
:103F90007C00600060006000600060006000600005
:103FA000600060006000600060006000FC030000D2
:103FB0000000000000000000000000000000F80009
:103FC0008401020306030603000300018001C00010
:103FD000600020001000080204020602FE03000038
:103FE0000000000000000000000000000000780059
:103FF000C6008601860180018001C000700080013A
:10400000000100030003060306038601F800000018
:10401000000000000000000000000000000080011F
:104020008001C001A001A0019001880188018401E4
:104030008201FE0F8001800180018001E007000005
:104040000000000000000000000000000000FC0371
:1040500004000400040004000400F4008C010403C4
:10406000000300030603060382018401F800000038
:104070000000000000000000000000000000E0015F
:1040800018030C030C0004000600E60116030E06DC
:1040900006060606060604060C021803F0000000D9
:1040A0000000000000000000000000000000F80711
:1040B0000C060402040100010001800080004000A1
:1040C0004000400060006000600060006000000090
:1040D0000000000000000000000000000000F801E7
:1040E0000C030606060606060C021C03F000C801B7
:1040F0000C0306060606060606060C03F001000081
:104100000000000000000000000000000000F000BF
:104110000C010C03060206060606060606078C06B8
:1041200078060006000300030C018C0178000000F3
:10413000000000000000000000000000000000007F
:104140000000000000000000E000E000E0000000CF
:104150000000000000000000E000E000E0000000BF
:10416000000000000000000000000000000000004F
:10417000000000000000000060006000000000007F
:10418000000000000000000000006000600040002F
:1041900020002000000000000000000000040002D9
:1041A000000180004000200010000800040008000A
:1041B0001000200040008000000100020004000008
:1041C00000000000000000000000000000000000EF
:1041D0000000000000000000FE07000000000000DA
:1041E000FE070000000000000000000000000000CA
:1041F00000000000000000000000000004000800B3
:1042000010002000400080000001000200040002B5
:1042100000018000400020001000080004000000A1
:104220000000000000000000000000000000E003AB
:104230001806040C040C0C0C0C0C00078001400048
:104240004000400000000000E000E000E00000004E
:10425000000000000000000000000000E000180363
:104260000C02CC0564056605A605B604B604B604C2
:10427000B604B602E4010C040C021803F0000000BE
:1042800000000000000000000000000000006000CE
:1042900060005000D0009000900088008801080164
:1042A000F801040304030402020202060F0F0000D7
:1042B0000000000000000000000000000000FE0000
:1042C0008C030C030C030C030C038C01FC000C038B
:1042D0000C020C060C060C060C060C03FE0100007A
:1042E0000000000000000000000000000000E003EB
:1042F00018030C060C040404060006000600060061
:104300000600060006040C040C021803F00000006E
:1043100000000000000000000000000000007F001E
:104320008C010C030C030C060C060C060C060C0688
:104330000C060C060C060C030C038C017F0000001D
:104340000000000000000000000000000000FF036B
:10435000060306040604060086008600FE008600AA
:10436000860086000600060406040602FF0300001D
:104370000000000000000000000000000000FF033B
:10438000060306040604060086008600FE0086007A
:104390008600860006000600060006001F000000DA
:1043A0000000000000000000000000000000F0001D
:1043B00018010C020C0204020600060006000600AA
:1043C000C60F060306030C030C031803F0000000DD
:1043D00000000000000000000000000000000F0FBF
:1043E000060606060606060606060606FE07060674
:1043F0000606060606060606060606060F0F000057
:104400000000000000000000000000000000FC03AD
:10441000600060006000600060006000600060009C
:10442000600060006000600060006000FC0300004D
:104430000000000000000000000000000000F8077D
:10444000C000C000C000C000C000C000C000C0006C
:10445000C000C000C000C000C000C000C000C60056
:1044600066003C0000000000000000000000CF03D8
:104470008601C60046002600160036002E006E009B
:104480004600C60086008601060106038F0700006D
:1044900000000000000000000000000000001F00FD
:1044A00006000600060006000600060006000600DC
:1044B000060006000600060406040602FF030000CC
:1044C00000000000000000000000000000000707DE
:1044D000860386038E038E034E034E034A035A035C
:1044E0005A033A03320332033203120387070000F0
:1044F00000000000000000000000000000008E0F1F
:104500000C021C021C0234023402640264024402E3
:10451000C402840284038403040304031F02000012
:104520000000000000000000000000000000F0009B
:1045300098010C030C020606060606060606060689
:104540000606060606060C020C039801F0000000A1
:104550000000000000000000000000000000FF005C
:104560000603060606060606060606068603FE007F
:104570000600060006000600060006001F000000F8
:104580000000000000000000000000000000F0003B
:1045900098010C030C020606060606060606060629
:1045A0000606060676064C02CC039801F00080074A
:1045B0000003000000000000000000000000FF01F8
:1045C000060306060606060606060603FE00460065
:1045D000C600860086010603060306060F0E0000CD
:1045E0000000000000000000000000000000F802D1
:1045F0000C030602060206000E003C00F800E00371
:10460000800300070206020606060C03F001000004
:104610000000000000000000000000000000FE0795
:104620006204610861086000600060006000600072
:10463000600060006000600060006000F801000041
:1046400000000000000000000000000000001E0745
:104650000C020C020C020C020C020C020C020C02EA
:104660000C020C020C020C020C021801F0000000FB
:1046700000000000000000000000000000000F0724
:104680000602040104010C010C0188008800980056
:104690009800500050007000300020002000000002
:1046A0000000000000000000000000000000F70E05
:1046B000620442044604460464026402E402E40222
:1046C0009C029C01980198018801880088000000E4
:1046D00000000000000000000000000000009E0735
:1046E0000C01080118019000B0006000200060007B
:1046F0006000D00090008801080104038E070000CC
:1047000000000000000000000000000000000F0F8B
:10471000060404020C0208011801B800B000700081
:10472000600060006000600060006000F801000050
:104730000000000000000000000000000000FC0776
:104740000C020603020180018000400040002000AE
:1047500020001000180008040C040402FE030000EE
:104760000000000000000000E00320002000200006
:104770002000200020002000200020002000200039
:104780002000200020002000200020002000200029
:10479000E00300000000000000000000040004002E
:1047A0000800080010001000100020002000400049
:1047B0004000C000800080000001000100020002F3
:1047C00000020004000000007C00400040004000A7
:1047D00040004000400040004000400040004000D9
:1047E00040004000400040004000400040004000C9
:1047F0007C00000000006000900008010000000044
:1048000000000000000000000000000000000000A8
:104810000000000000000000000000000000000098
:104820000000000000000000000000000000000088
:104830000000000000000000000000000000000078
:104840000000000000000000000000000000000068
:104850000000FF0F000000001800600000000000D2
:104860000000000000000000000000000000000048
:104870000000000000000000000000000000000038
:104880000000000000000000000000000000000028
:104890000000000000000000F0010C030C03000306
:1048A000E0031C030E03060306038E0B7C0E0000C0
:1048B00000000000000000000000000008000E00E2
:1048C0000C000C000C000C00CC013C031C060C0678
:1048D0000C060C060C060C060C021C03E40100007E
:1048E00000000000000000000000000000000000C8
:1048F0000000000000000000F0008C018C01860127
:1049000006000600060006020C020C01F000000082
:104910000000000000000000000000000002C003D2
:10492000000300030003000378038C030C03060359
:10493000060306030603060304038C077801000040
:104940000000000000000000000000000000000067
:104950000000000000000000E001180308020C063F
:104960000C06FC070C000C0018041802E001000003
:104970000000000000000000000000000000C00374
:104980006006300630003000FE013000300030009C
:10499000300030003000300030003000FC010000FA
:1049A0000000000000000000000000000000000007
:1049B0000000000000000000F007D8068C018C0108
:1049C0008C019801F8000C00FC00CC0306030603E0
:1049D0008E03F800000000000000000008000E0038
:1049E0000C000C000C000C00EC011C030C030C036D
:1049F0000C030C030C030C030C030C039E070000B8
:104A00000000000000000000000000000000600046
:104A100060000000000040007C006000600060005A
:104A2000600060006000600060006000FC03000047
:104A30000000000000000000000000000000C001B5
:104A4000C001000000000001F00180018001800130
:104A5000800180018001800180018001800180014E
:104A6000CC007C00000000000000000008000E00E8
:104A70000C000C000C000C008C038C008C004C0013
:104A80006C005C008C008C010C010C039E07000084
:104A900000000000000000000000000040007C005A
:104AA0006000600060006000600060006000600006
:104AB000600060006000600060006000FC030000B7
:104AC00000000000000000000000000000000000E6
:104AD00000000000000000003707EE0666066606CC
:104AE000660666066606660666066606FF0F000030
:104AF00000000000000000000000000000000000B6
:104B00000000000000000000EE011C030C030C0379
:104B10000C030C030C030C030C030C039E07000096
:104B20000000000000000000000000000000000085
:104B30000000000000000000F00098010C030606D1
:104B400006060606060606060C030C03F000000027
:104B50000000000000000000000000000000000055
:104B60000000000000000000EE011C030C060C0613
:104B70000C060C060C060C060C031C03EC010C00C6
:104B80000C003E00000000000000000000000000DB
:104B9000000000000000000078028C030C030603F4
:104BA000060306030603060304038C0378030003CD
:104BB0000003C0070000000000000000000000002B
:104BC00000000000000000009F035806380618008F
:104BD000180018001800180018001800FF00000046
:104BE00000000000000000000000000000000000C5
:104BF0000000000000000000F0031C030C020C0287
:104C00003800F000C003040304038C03FC0100001F
:104C10000000000000000000000000000000000094
:104C20002000200030003000FE0130003000300055
:104C3000300030003000300030023002E00100006F
:104C40000000000000000000000000000000000064
:104C500000000000000008028E030C030C030C038C
:104C60000C030C030C030C030C039C0778010000DD
:104C70000000000000000000000000000000000034
:104C800000000000000000001E070C0208010801DF
:104C900018019000B000B00060006000200000002B
:104CA0000000000000000000000000000000000004
:104CB0000000000000000000F70E620446046402D9
:104CC0006402EC029C019801980198010800000020
:104CD00000000000000000000000000000000000D4
:104CE0000000000000000000BC0718011001B00027
:104CF00060006000E0009000080108039E070000CB
:104D000000000000000000000000000000000000A3
:104D100000000000000000009E07080108010801D3
:104D200090009000B0006000600060002000200053
:104D300024001C0000000000000000000000000033
:104D40000000000000000000FC018401C4004400D9
:104D5000600020003000180208020C03FC01000073
:104D600000000000000000000003800080008000C0
:104D70008000800080008000800040002000400013
:104D80008000800080008000800080008000800023
:104D90000003000040004000400040004000400090
:104DA0004000400040004000400040004000400003
:104DB00040004000400040004000400040004000F3
:104DC00040004000000000000C0010001000100027
:104DD0001000100010001000100020004000200003
:104DE0001000100010001000100010001000100043
:104DF0000C00000000001C002204C204800300001C
:104E000000000000000000000000000000000000A2
:104E10000000000000000000000000000000000092
:104E20000000000000000000000000000000000082
:104E30000000000000000000000000000000000072
:104E40000000000000000000000000000000000062
:104E50000000000000000000000000000000000052
:104E60000000000000000000000000000000C00181
:104E7000C001C001C001C001C001C00180008000AC
:104E800080008000800080008000000000000000A2
:104E900000008001C003C00380010000000000008A
:104EA00000000000000000000000E01CE01CF01EFC
:104EB000700E38071803080184000000000000008D
:104EC00000000000000000000000000000000000E2
:104ED00000000000000000000000000000000000D2
:104EE00000000000000000000000000000000000C2
:104EF00020102010201020102010FE7FFE7F1008B0
:104F0000100810081008100810081008FE7FFE7F17
:104F10000804080408040804080400000000000055
:104F2000000000000000000000000000000100017F
:104F3000C00760191031183118391839380170015B
:104F4000E001C0038007000F001D003900311C3153
:104F50001C310C310C11180DE0070001000100019B
:104F60000000000000000000000000000000000041
:104F70001C1036186308630C630463046302630245
:104F80006301361D9C378022806340634063206349
:104F90002063306310221836081C00000000000057
:104FA0000000000000000000000000000000000001
:104FB000F00098018C018C018C018C018C00CC00DC
:104FC0007800183E1C083608320863046304C304E2
:104FD000C303834306438E26781C000000000000B4
:104FE000000000000000000000001C003C003C002D
:104FF0003000300010000C0006000000000000002F
:1050000000000000000000000000000000000000A0
:105010000000000000000000000000000000000090
:105020000000000000000000000000400020001010
:105030000008000C000400060003000300038001C8
:1050400080018001800180018001800180010003D6
:105050000003000300060006000C000800100020FA
:1050600000400000000000000000020004000800F2
:105070001000300020006000C000C000C0008001AF
:105080008001800180018001800180018001C000D9
:10509000C000C00060006000300010000800040084
:1050A00002000000000000000000000000000000FE
:1050B0000000000000018003800300011C713C79A6
:1050C000783DC0070001C007783D3C791C710001A4
:1050D0008003800380010000000000000000000049
:1050E00000000000000000000000000000000000C0
:1050F00000000000000000010001000100010001AB
:1051000000010001FC7F000100010001000100011D
:10511000000100010000000000000000000000008D
:10512000000000000000000000000000000000007F
:10513000000000000000000000000000000000006F
:10514000000000000000000000000000000000005F
:10515000000000001C003C003C003000300010004B
:105160000C0006000000000000000000000000002D
:10517000000000000000000000000000000000002F
:1051800000000000FE7F00000000000000000000A2
:10519000000000000000000000000000000000000F
:1051A00000000000000000000000000000000000FF
:1051B00000000000000000000000000000000000EF
:1051C00000000000000000000000000000000000DF
:1051D000000018003C003C00180000000000000027
:1051E00000000000000000000000004000600020FF
:1051F0000030001000180008000C00040006000237
:105200000003000180018000C00040006000200019
:1052100030001000180008000C0004000600020016
:10522000000000000000000000000000000000007E
:10523000C007600C30181830183018200C600C6053
:105240000C600C600C600C600C600C600C60182032
:10525000183018303018600CC00700000000000043
:10526000000000000000000000000000000000003E
:1052700000018001F801800180018001800180012E
:105280008001800180018001800180018001800116
:10529000800180018001C003F81F000000000000B1
:1052A00000000000000000000000000000000000FE
:1052B000E007101C0818043004300C300C300030AB
:1052C00000180008000400020001800040002020B7
:1052D000102008200430FC1FFC1F0000000000000C
:1052E00000000000000000000000000000000000BE
:1052F000E003180E0C0C0C180C180C180018000CFD
:105300000006C003000E00180010003000300C3002
:105310000C300C100C18180CE0030000000000000A
:10532000000000000000000000000000000000007D
:10533000000C000E000E000F800E800E400E600E5E
:10534000200E100E100E080E040E040EFE7F000E2E
:10535000000E000E000E000E000EC07F00000000C8
:10536000000000000000000000000000000000003D
:10537000F03FF03F10001000100008000800C807C0
:10538000280C1818081000300030003000300C30A5
:105390000C3004180418080CF00300000000000092
:1053A00000000000000000000000000000000000FD
:1053B000800FC010203010301800180008000C00BA
:1053C0008C0F6C183C301C600C600C600C600C6026
:1053D0001860182030306018C0070000000000007E
:1053E00000000000000000000000000000000000BD
:1053F000F83FF83F1C100C080408040400040002E5
:105400000002000100010001800080008000C00057
:10541000C000C000C000C000C000000000000000CC
:10542000000000000000000000000000000000007C
:10543000E007300C18180C300C300C301C303818C9
:105440007008E007B007180E0C1C0638063006304E
:10545000063006300C18180CE003000000000000B5
:10546000000000000000000000000000000000003C
:10547000E00318040C080C1806100630063006303D
:10548000063006380C3C1836F03100300018001891
:1054900000180C0C0C060C03F001000000000000CA
:1054A00000000000000000000000000000000000FC
:1054B000000000000000000000000000000080016B
:1054C000C003C003800100000000000000000000D5
:1054D00000008001C003C003800100000000000044
:1054E00000000000000000000000000000000000BC
:1054F0000000000000000000000000000000C000EC
:10550000C0000000000000000000000000000000DB
:10551000000000000000C000C000800080004000CB
:10552000400000000000000000000000000000201B
:10553000001000080004000600038001C0006000A5
:10554000300018000C00180030006000C00080011E
:105550000003000600040008001000200000000006
:10556000000000000000000000000000000000003B
:105570000000000000000000000000000000FE7FAE
:1055800000000000000000000000FE7F000000009E
:10559000000000000000000000000000000000000B
:1055A00000000000000000000000000000000400F7
:1055B0000800100020006000C00080010003000609
:1055C000000C001800300018000C000600038001D9
:1055D000C00060002000100008000400000000006F
:1055E0000000000000000000000000000000C007F4
:1055F0003018083008600C601C601C601C600030B3
:10560000001C000600018000800080008000000077
:1056100000008001C003C003800100000000000002
:10562000000000000000000000000000000000007A
:10563000C0076018103018200C2F8C4D864CC64CBB
:10564000C64C664C66446644662666266615CC1CC7
:105650000C40082018303018C0070000000000007F
:105660000000000000000000000000000000000139
:10567000C001C001C00140016003200320032003DA
:105680003006100610061006F80F080C080C080C5F
:105690000C0C0418041806181F7C00000000000001
:1056A00000000000000000000000000000000000FA
:1056B000FE07181C18381830183018301830181811
:1056C000180CF8071818183018201860186018609F
:1056D0001860186018301818FE0F00000000000055
:1056E00000000000000000000000000000000000BA
:1056F000C0276038103018200C400C400400060011
:1057000006000600060006000600060006000C4023
:105710000C400C2018303018C007000000000000BA
:105720000000000000000000000000000000000079
:10573000FE03180E1818183018301830186018604A
:1057400018601860186018601860186018601830C9
:10575000183018101818180EFE0300000000000082
:105760000000000000000000000000000000000039
:10577000FE3F183018201860184018001808180844
:10578000180CF80F180C1808180818001800180042
:105790001840184018201830FE3F0000000000009C
:1057A00000000000000000000000000000000000F9
:1057B000FE7F1870184018C01880180018101810B4
:1057C0001818F81F181818101810180018001800CA
:1057D00018001800180018007E00000000000000EB
:1057E00000000000000000000000000000000000B9
:1057F000C013701C101018100C200C2004000600A0
:10580000060006000600060006FC063006300C30D6
:105810000C30183018303008C007000000000000BD
:105820000000000000000000000000000000000078
:105830003F7E0C180C180C180C180C180C180C18AF
:105840000C180C18FC1F0C180C180C180C180C1841
:105850000C180C180C180C183F7E000000000000FB
:105860000000000000000000000000000000000038
:10587000F81F80018001800180018001800180018A
:105880008001800180018001800180018001800110
:105890008001800180018001F81F000000000000ED
:1058A00000000000000000000000000000000000F8
:1058B000E07F00060006000600060006000600065F
:1058C00000060006000600060006000600060006A8
:1058D0000006000600060006000600060E060E037F
:1058E0008E01FC000000000000000000000000002D
:1058F0007E7C181818081804180618021801980158
:105900009801D801B803380318071806180E180CA8
:10591000181C1818183018307EFC00000000000019
:105920000000000000000000000000000000000077
:105930007E00180018001800180018001800180041
:105940001800180018001800180018001800180097
:105950001840184018201830FE3F000000000000DA
:105960000000000000000000000000000000000037
:105970001FF81C381C381C381C3C34343434343484
:10598000343674326432643264326431C431C431C6
:10599000C431C430C43084309FFC000000000000DB
:1059A00000000000000000000000000000000000F7
:1059B0001F7C1C103C103410341074106410E41060
:1059C000C410C41184118413041304170416041E94
:1059D000041C041C041C04181F1800000000000014
:1059E00000000000000000000000000000000000B7
:1059F000C003300C181808100C300C30066006601C
:105A000006600660066006600660066006600C20A0
:105A10000C3008101818300CC00300000000000003
:105A20000000000000000000000000000000000076
:105A3000FE0F181818301860186018601860186089
:105A400018301818F80F180018001800180018005F
:105A500018001800180018007E0000000000000068
:105A60000000000000000000000000000000000036
:105A7000C003300C18180C100C300C2006600660A7
:105A80000660066006600660066006600660E46107
:105A90002C331C321816300EC007004C007C003826
:105AA00000000000000000000000000000000000F6
:105AB000FE07181C1838183018301830183018180D
:105AC000180CF80798031803180718061806180E7C
:105AD000180C180C181C18187E7800000000000024
