:020000040800F2
:10000000700C002089010008532D0008FF2600080D
:10001000512D0008B503000851340008000000000D
:10002000000000000000000000000000272F000872
:10003000B703000800000000252F0008292F000842
:10004000A3010008A3010008A3010008A301000800
:10005000A3010008A3010008A3010008A3010008F0
:10006000A3010008A3010008A3010008A3010008E0
:10007000A3010008A3010008A3010008A3010008D0
:10008000A3010008A3010008D5020008A30100088D
:10009000A3010008A3010008A3010008A3010008B0
:1000A000A92F0008CD2F0008C12F0008B52F000888
:1000B000D92F0008E52F0008F12F0008A301000840
:1000C000A3010008A3010008A3010008A301000880
:1000D000A3010008A3010008A3010008453400089B
:1000E000A3010008A3010008A301000800F002F822
:1000F00000F03AF80AA090E8000C82448344AAF188
:100100000107DA4501D100F02FF8AFF2090EBAE885
:100110000F0013F0010F18BFFB1A43F0010318473B
:100120001848000038480000103A24BF78C878C149
:10013000FAD8520724BF30C830C144BF04680C60ED
:10014000704700000023002400250026103A28BF35
:1001500078C1FBD8520728BF30C148BF0B60704739
:100160001FB51FBD10B510BD00F07AF81146FFF79E
:10017000F7FF03F0CBF900F098F803B4FFF7F2FFB4
:1001800003BC00F09FF80000094880470948004779
:10019000FEE7FEE7FEE7FEE7FEE7FEE7FEE7FEE737
:1001A000FEE7FEE704480549054A064B7047000094
:1001B000A52F0008ED00000870060020700C00203C
:1001C00070080020700800204FF000020429C0F0E1
:1001D000128010F0030C00F01B80CCF1040CBCF179
:1001E000020F18BF00F8012BA8BF20F8022BA1EBCB
:1001F0000C0100F00DB85FEAC17C24BF00F8012BB0
:1002000000F8012B48BF00F8012B70474FF00002A7
:1002100000B5134694469646203922BFA0E80C50FC
:10022000A0E80C50B1F12001BFF4F7AF090728BFD7
:10023000A0E80C5048BF0CC05DF804EB890028BF53
:1002400040F8042B08BF704748BF20F8022B11F07C
:10025000804F18BF00F8012B7047704770477047F8
:10026000754600F02BF8AE4605006946534620F06F
:100270000700854618B020B5FFF794FFBDE8204081
:100280004FF000064FF000074FF000084FF0000B52
:1002900021F00701AC46ACE8C009ACE8C009ACE805
:1002A000C009ACE8C0098D46704710B50446AFF3ED
:1002B00000802046BDE81040FFF75FBF0048704750
:1002C0001006002001491820ABBEFEE72600020000
:1002D00070470000014800F061B90000E400002010
:1002E00070B5044600688168C943C90717D18168A1
:1002F00021F00101816000F063FC05460AE000BFC7
:1003000000F05EFC401B022804D920688068C043CE
:10031000C00706D020688068C043C007F0D0002026
:1003200070BDA06A40F01000A062E06A40F00100D9
:10033000E062012070BD0000F8B50026044600967A
:1003400000688168C943C9072DD0816841F0010167
:100350008160164816490068B0FBF1F000E0401ECD
:1003600000900028FBD100F02BFC054616E000BFF2
:1003700000F026FC401B022810D920688068C0438A
:10038000C0070BD0A06A40F01000A062E06A40F005
:100390000100E06284F824600120F8BD20688068D4
:1003A000C043C007E4D10020F8BD000028000020B1
:1003B00040420F00FEE7704772B6FEE7F8B5002531
:1003C0000446009590F8240001280BD0012084F801
:1003D00024002046FFF784FF2046FFF7ADFF06000C
:1003E00002D050E00220F8BDA06A20F4885040F00E
:1003F0000200A062022000F015FE25490968B1FB49
:10040000F0F0400000E0401E00900028FBD1206882
:10041000816841F00801816000F0D2FB074608E0E6
:1004200000F0CEFBC01B0A2803D9206880680007B3
:1004300015D4206880680007F2D42068816841F0F4
:100440000401816000F0BCFB074612E000F0B8FB3D
:10045000C01B0A280DD920688068400709D5A06A0A
:1004600020F0020040F01000A06284F82450012027
:10047000F8BD206880684007E8D4A06A20F0020038
:1004800040F00100A06284F824503046F8BD00001E
:100490002800002070470000F8B50024009490F870
:1004A00024202546012A12D0012280F824204A68FF
:1004B0001F23072A0DD20668776B521E02EB8202B9
:1004C00093409F430B6893401F43776319E00220DA
:1004D000F8BD06680D2A0AD2376BD21F02EB8202E2
:1004E00093409F430B6893401F43376309E0F76ACB
:1004F0000D3A02EB820293409F430B6893401F43E7
:10050000F7620A68072306680A2A0AD3F7680A3AD4
:1005100002EB420293409F438B6893401F43F76076
:1005200008E0376902EB420293409F438B68934097
:100530001F4337610A68102A01D0112A20D1124BBB
:1005400002689A4217D193681B0219D4936843F446
:10055000000393600968102912D10C490C4A0968FC
:10056000B1FBF2F101EB8101490000E0491E00916D
:100570000029FBD104E0816A41F02001816201245D
:1005800080F824502046F8BD0024014028000020B7
:1005900040420F0070470068C06C704770B5044659
:1005A000006806684568A90625D5B10723D5A16A64
:1005B000C90603D4A16A41F40071A1628168C1F344
:1005C0004241072910D1217B71B9416821F02001F6
:1005D0004160A06A20F48070A062A06AC00403D4C5
:1005E000A06A40F00100A0622046FFF7D3FF216817
:1005F0006FF01200086028062ED570072CD5A06A6F
:10060000C00603D4A06A40F40050A062206881684C
:10061000C1F30231072909D04168490515D4816821
:10062000C1F34241072910D1217B71B9416821F002
:1006300080014160A06A20F48050A062A06AC005D9
:1006400003D4A06A40F00100A0622046FFF722FF19
:1006500021686FF00C00086068060CD5F0070AD01E
:10066000A06A40F48030A062204600F093F8216830
:100670006FF00100086070BD2DE9F0414FF00007F8
:1006800004003D467ED0A06A002628B9E66284F8C0
:100690002460204600F080F82046FFF721FEA16A82
:1006A000C90600D420B1A06A40F01000A06269E041
:1006B000A16A21F4885141F00201A1626268E169F6
:1006C000237B0A4347EA43010A43A1684FF480773A
:1006D000B94209D0012907D05FF0000194F814C095
:1006E000BCF1010F02D00AE03946F7E7F3B1A36A83
:1006F00043F02003A362E36A43F00103E36223684B
:10070000D3F804C02CF4694C4CEA010CC3F804C0C3
:1007100021688B68DFF870C003EA0C0313438B6019
:10072000A168B9420BD0012909D00CE0DFF85CC008
:10073000A3690CEB43330B4343F40061DFE7218AE9
:100740000D05A5F580152168CB6A23F470032B43B2
:10075000CB62216889680E4B1940914208D1E6624C
:10076000A16A21F0020141F00101A162BDE8F0811E
:10077000A06A20F0020040F01000A062E06A40F0A1
:100780000100E0620120F1E7FDF7E1FF00E0FFFF7B
:10079000FE0E1FFF7047000000B585B000210091DC
:1007A00001910291039100681249884220D11248B8
:1007B000816941F400718161816901F400710491E2
:1007C000816941F0040181618069694600F004009B
:1007D00004900C20009003200190084800F0F2F8EB
:1007E00000221146122000F0EBFB122000F0DAFB91
:1007F00005B000BD00240140001002400008014087
:1008000070B5044690F8240001280DD0012084F82A
:1008100024002046FFF790FD02004FF0000005D0B5
:1008200084F82400104670BD022070BDA16A40F219
:100830000123994341F48071A1621F4D23681F4930
:10084000AB4218D10E6816F4702F14D0A66A46F485
:100850008016A6620E68760505D5A66A26F40056AF
:1008600046F48056A662A66AF6040AD5E66A26F021
:100870000606E66206E0A66A26F48016A6625E68B0
:10088000E9E7E06284F824006FF002001860206855
:100890008368C3F34243072B05D1A84208D10968F6
:1008A00011F4702F04D0816841F480118160B9E7A0
:1008B000816841F4A001F9E70028014004240140C7
:1008C00010B590F821100022022905D0042181637F
:1008D00080F82020012010BD01680B6823F00E0372
:1008E0000B6001680B6823F001030B6090F8403047
:1008F000C46B012101FA03F3636080F8211080F8D2
:100900002020104610BD000010B590F821100024E2
:10091000022903D00421816301243DE001680A68B3
:1009200022F00E020A6001680A6822F001020A60E1
:100930001A4A0168914201D1012121E0174A14327B
:10094000914201D110211BE0144A2832914201D179
:10095000891515E0114A3C32914201D189140FE00A
:100960000E4A5032914202D14FF4803108E00B4AD6
:100970006432914202D14FF4801101E04FF0807156
:10098000064A083A5160012180F82110002180F8C0
:100990002010416B01B18847204610BD080002407D
:1009A00070B5044600F00CF90546601C02D00448FE
:1009B0000078044400F004F9401BA042FAD370BD53
:1009C0001C0000202DE9F84FDFF8B8910024A9F1B0
:1009D000040B23460F2709F1040AABF1040EC9E00A
:1009E0000125A5402A40AA427DD1674ED1F804C016
:1009F000ACEB0608B44532D014DCBCF1030F3AD09E
:100A000009DCBCF1000F2AD0BCF1010F1CD0BCF1F5
:100A1000020F31D11DE0BCF1110F17D0BCF1120F44
:100A20002AD119E0B8F5881F19D006DCB8F5803F47
:100A300015D0B8F5801F1FD111E0B8F5001F0ED0FA
:100A4000B8F5041F18D10AE0CB6815E0CB681B1D70
:100A500012E0CB6808330FE0CB680C330CE08B68F6
:100A60002BB1012B4FF0080303D0456104E00423B0
:100A700002E0056100E00023FF2A01D8064601E0FC
:100A800000F104064FEA840501D9A5F12005D6F846
:100A9000008007FA05FC28EA0C0803FA05F548EA85
:100AA0000508C6F800804D68ED0062D5374DAE6987
:100AB00046F00106AE61AD6924F0030605F00105BC
:100AC0000095334D06EB050CDCF80850A607360FF1
:100AD00007FA06F825EA0805DFF8B880404503D193
:100AE0004FF0000817E044E0DFF8AC80404502D149
:100AF0004FF001080FE0DFF8A480404502D14FF02D
:100B0000020808E0DFF89880404502D14FF0030862
:100B100001E04FF0040808FA06F848EA0508CCF8A6
:100B200008804D68D9F80060ED024D4601D51643A6
:100B300000E096432E604D68DAF80060AD0255463D
:100B400001D5164300E096432E604D68DBF8006047
:100B5000AD035D4601D5164300E096432E604D6817
:100B6000DEF80060ED03754601D5164300E09643BC
:100B70002E60641C0D682A46E5407FF431AFBDE865
:100B8000F88F00000804014000001110001002401E
:100B90000000014000080140000C0140001001402D
:100BA00000140140C26821EA02030A4043EA0241FC
:100BB000016170470AB1016170470904FBE7000059
:100BC00001488068704700001C00002070B50400D8
:100BD00025D094F83D00002520B984F83C502046EB
:100BE00000F050F9242084F83D002068016821F0CD
:100BF000010101602068016841F400410160206842
:100C0000016821F40041016000F06AFB4D4A61680F
:100C1000914201D84C4900E04C49884201D2012060
:100C200070BD4B492368B0FBF1F15E6826F03F06CA
:100C30000E435E606368934206D94FF4967359433E
:100C40004FF47A73B1FBF3F12368491C1E6A26F056
:100C50003F06314319626168914210D84900401E35
:100C6000B0FBF1F2521CC2F30B02042A01D20420A1
:100C700022E0B0FBF1F0401CC0F30B001CE0A268C6
:100C8000F2B301EBC10303EB0116431EB3FBF6F312
:100C90005B1C43F480431B0549D092B301EBC102B6
:100CA00002EB0111401EB0FBF1F0401CC0F30B0041
:100CB00040F4804040F400402168CA694CF6FF735C
:100CC0009A431043C861D4E90710014320680268C1
:100CD00022F0C00211430160D4E9030101432068FE
:100CE000826848F2FF339A4311438160D4E90501D9
:100CF00008432168CA6822F0FF021043C86001E07F
:100D00000EE016E02068016841F0010101602564F1
:100D1000202084F83D00256384F83E50002070BDFB
:100D200001EB4106431EB3FBF6F35B1CB3E7012066
:100D3000C2E701EB4101401EB0FBF1F0401CC0F3E3
:100D40000B00B7E7A086010080841E0000093D006B
:100D500040420F002DE9FF4F83B09A46DDE911971D
:100D600093460446DDF84080FFF72AFF054694F8D5
:100D70003D0020287FD119230122404920460095BB
:100D800001F056FD002876D194F83C00012872D07D
:100D9000012084F83C0020680168C90703D101687C
:100DA00041F0010101602068016821F400610160E7
:100DB000212084F83D00402084F83E00002626646F
:100DC000C4F82480A4F82A90608D20852C48E06225
:100DD000CDE9007553465A462046049901F0A8FC17
:100DE00070B930E02A463946204601F0C7FD58B1B7
:100DF000206C042804D12068016841F4007101606E
:100E0000012007B0BDE8F08F606A216800780861B2
:100E1000606A401C6062218D491E89B22185628D05
:100E2000521E628522685369DB435B070BD469B1AC
:100E300000781061606A401C6062208D401E208531
:100E4000608D401E6085208D0028CBD12A46394612
:100E5000204601F0C1FC0028CAD154F83D0B0168BE
:100E600041F400710160202004F81E09E6776677DE
:100E70000020C6E7FFE70220C3E7000002001000E1
:100E80000000FFFF10B586B0002100910191029192
:100E9000039100681349884222D1134CA06940F0A5
:100EA0000800A061A069694600F0080004904FF4B2
:100EB0004070009012200190032003900B48FFF730
:100EC00081FD0B48416841F0E06141F00201416061
:100ED000E06940F40010E061E06900F40010049063
:100EE00006B010BD0054004000100240000C01404C
:100EF0000000014002488168027811448160704717
:100F00001C000020074810B5016841F01001016085
:100F1000032000F075F80F2000F006F800F024F828
:100F2000002010BD0020024070B50D4D04464FF466
:100F30007A712878B1FBF0F00A490968B1FBF0F04A
:100F400000F0A4FB48B9102C07D200222146501E05
:100F500000F036F800206C6070BD012070BD00000C
:100F60001C000020280000200C4808B5816941F0D1
:100F700001018161816901F001010091C16941F0C4
:100F80008051C161C06900F0805000900448416800
:100F900021F0E06141F00071416008BD00100240A5
:100FA00000000140002809DB00F01F0201219140F0
:100FB0004009800000F1E020C0F8001170470000F7
:100FC000F0B40E4B1B680C46C3F30223C3F10705B4
:100FD000042D00D90425191D072901D2002300E0A2
:100FE000DB1E012606FA05F1491E214099409E406C
:100FF000761E16403143F0BC02F02BBA0CED00E037
:10100000064900F0070208684FF6FF03184040EA5F
:101010000220034A10430860704700000CED00E016
:101020000000FA0510B501460020234C012922D00A
:10103000022939D010291DD161682268D20119D541
:101040001E48C1F38342C903805C0AD561681B4A0C
:10105000C1F34041921E515C194AB2FBF1F1484381
:1010600001E0184948436168490203D44000032164
:10107000B0FBF1F010BD226AC2F30121012903D1B6
:10108000920701D5C80310BD022905D1626A9207F3
:1010900002D549F6404010BD0329FCD121688903DF
:1010A000F9D54FF2244010BD00F02AF96168C1F370
:1010B0008131491C4900DBE700100240064100086D
:1010C00000127A0000093D002DE9F843054600783A
:1010D000354CC00754D0E0690026C00008D4E06950
:1010E00040F08050E061E069012600F080500090FF
:1010F0002E480168C90512D40168804641F4807108
:101100000160FFF75DFD074605E000BFFFF758FDF2
:10111000C01B642823D8D8F80000C005F6D5206A83
:1011200010F4407021D0A98801F4407181421CD094
:10113000206A1F49012220F440700A6000220A60E0
:101140002062C00711D0FFF73BFD074641F2883807
:1011500008E000BFFFF734FDC11B414502D9032061
:10116000BDE8F883206A8007F4D5206A696820F416
:101170004070084320621EB1E06920F08050E061B9
:101180002878800705D56068A96820F440400843A6
:1011900060602878C00605D56068E96820F48000A2
:1011A000084360600020DBE7001002400070004050
:1011B000400442422DE9F0470F46050061D0434EFE
:1011C000306800F00700B84209D2306820F007000C
:1011D00038433060306800F00700B84251D12868C9
:1011E0003B4C810712D5400703D5606840F4E060AE
:1011F00060602878000703D5606840F46050606044
:101200006068A96820F0F000084360602878C00793
:1012100028D06868012810D02168022810D08907DA
:1012200000292EDA616821F0030101436160FFF7B4
:10123000C7FC804641F288390DE021688903EFE759
:101240008901EDE7FFF7BCFCA0EB0801494502D995
:101250000320BDE8F0876068696800F00C00B0EB1F
:10126000810FEFD1306800F00700B8420BD9306829
:1012700020F0070038433060306800F00700B842C3
:1012800001D00120E5E72878400705D56068E968C6
:1012900020F4E060084360602878000706D56068A5
:1012A000296920F4605040EAC100606000F038F81D
:1012B0006168084AC1F30311515CC84006490860DF
:1012C00006480068FFF730FE0020C2E70020024019
:1012D00000100240164100082800002020000020D5
:1012E0000448054900684968044AC1F30221515C79
:1012F000C840704728000020001002402641000826
:101300000448054900684968044AC1F3C221515C98
:10131000C840704728000020001002402641000805
:101320000E4A51680E4801F00C03042B11D0082B13
:101330000FD10C48C1F38343C903C05C0AD551687F
:10134000084AC1F34041921E515C054A5043B0FB2C
:10135000F1F0704704494843704700000010024014
:1013600000127A00F440000800093D002DE9F84F12
:10137000040070D02078C04DC00749D06868C0F321
:101380008100012807D06868C0F38100022809D1D4
:101390006868C00306D52868800339D560680028CE
:1013A000E7D035E06068B0F5803F0BD010B1B0F504
:1013B000A02F11D0286820F480302860286820F4FD
:1013C000802002E0286840F480302860606890B196
:1013D000FFF7F6FB06460AE0286840F48020286004
:1013E000F0E700BFFFF7ECFB801B642873D8286888
:1013F0008003F7D50CE0FFF7E3FB064605E000BFEE
:10140000FFF7DEFB801B6428F0D828688003F7D440
:1014100020789A4E80074FF001094FF0000839D527
:10142000686810F00C0F07D06868C0F381000228CC
:1014300009D16868C00306D42868800714D52069DC
:10144000012808D110E02069B0B1C6F80090FFF77C
:10145000B7FB074605E00AE1FFF7B2FBC01B022815
:10146000C4D828688007F7D52868616920F0F8009B
:1014700040EAC10028600DE0C6F80080FFF7A0FB3D
:10148000074604E0FFF79CFBC01B022823D828680E
:101490008007F7D4207800072CD57948A169D9B105
:1014A000C0F80090FFF78CFB074604E0FFF788FBCD
:1014B000C01B02280FD8686A8007F7D571484FF41F
:1014C000FA510068B0FBF1F0009000BF0098411E97
:1014D0000091FAD20EE080E0C0F80080FFF770FBC8
:1014E000074604E0FFF76CFBC01B022875D8686A4A
:1014F0008007F7D42078400760D5E8690027C0004E
:1015000008D4E86940F08050E861E869012700F0FC
:10151000805000905C480168C90513D40168834677
:1015200041F480710160FFF74BFB824606E000BF8B
:10153000FFF746FBA0EB0A0064284ED8DBF800005A
:10154000C005F5D5E06801280AD008B1052813D0F8
:10155000286A20F001002862286A20F0040002E0D6
:10156000286A40F001002862E06841F2883B98B1A7
:10157000FFF726FB82460BE0286A40F00400286251
:10158000EEE700BFFFF71CFBA0EB0A0159455AD854
:10159000286A8007F6D50CE0FFF712FB824605E0CB
:1015A000FFF70EFBA0EB0A0159454CD8286A8007CB
:1015B000F6D41FB1E86920F08050E861E06988B393
:1015C0006968C1F38101022944D00228C6F860800D
:1015D00004D0FFF7F5FA044638E034E0FFF7F0FAFC
:1015E000074604E0FFF7ECFAC01B02282BD8286856
:1015F0008001F7D4206AB0F5803F05D16868A16802
:1016000020F4003008436860D4E9080108436968A1
:1016100021F4741108436860C6F86090FFF7D0FAAF
:10162000044606E025E000BFFFF7CAFA001B0228C7
:1016300009D828688001F7D51BE000BFFFF7C0FA82
:10164000001B022802D90320BDE8F88F286880011A
:10165000F4D40EE00128F7D06868226A00F48031E3
:10166000914204D1616A00F47010884201D00120D7
:10167000EAE70020E8E700000010024000004242D4
:1016800080044242280000200070004010B5401E37
:10169000B0F1807F01D3012010BD4FF0E0246061E4
:1016A0000F21601701F0D5FE0020A0610720206106
:1016B000002010BD7047704710B590F83C20012AFB
:1016C00022D0012280F83C20CA688C6822F4407243
:1016D00022434C6822F4806222430C6822F40062A8
:1016E00022430C6922F4805222434C6922F40052B6
:1016F0002243C969002322F480420A4301684A64F4
:1017000080F83C30002010BD022010BD70B590F86C
:101710003C20012A26D0012480F83C40022280F897
:101720003D2003685A689D6822F070060A683243BB
:101730005A600D4B02689A4208D0B2F1804F05D032
:101740000A4B9A4202D00A4B9A4204D1496825F0CA
:1017500080031943916080F83D40002180F83C10DF
:10176000084670BD022070BD002C014000040040FE
:101770000008004010B5040003D094F83D0010B1FB
:1017800007E0012010BD002084F83C00204600F056
:101790001FF8022084F83D00211D206801F02EFC76
:1017A000012084F8460084F83E0084F83F0084F865
:1017B000400084F8410084F8420084F8430084F833
:1017C000440084F8450084F83D00002010BD00006E
:1017D00008B52A4A01682A48914226D1816941F414
:1017E000006181618069002200F400600090114670
:1017F0001820FFF7E5FB1820FFF7D4FB0022114665
:101800001920FFF7DDFB1920FFF7CCFB0022114662
:101810001A20FFF7D5FB1A20FFF7C4FB0022114660
:101820001B20FFF7CDFB1B2022E0164A91420ED170
:10183000C16941F00201C161C069002200F00200EB
:10184000009011461D20FFF7BBFB1D2010E00E4A43
:10185000914211D1C16941F00401C161C069002206
:1018600000F00400009011461E20FFF7A9FB1E2087
:10187000BDE80840FFF796BB08BD0000002C014002
:1018800000100240000400400008004090F83D10A5
:10189000012901D001207047022180F83D10006825
:1018A0000B49884208D0B0F1804F05D009498842E1
:1018B00002D00949884204D1816801F00701062954
:1018C00003D0016841F00101016000207047000071
:1018D000002C0140000400400008004090F83D103A
:1018E000012901D001207047022180F83D100168D4
:1018F000CA6842F00102CA6000680B49884208D0F9
:10190000B0F1804F05D00949884202D00849884289
:1019100004D1816801F00701062903D0016841F074
:101920000101016000207047002C014000040040CC
:101930000008004070B5044690F83C0000250128DE
:1019400017D0012684F83C60022084F83D0020680E
:10195000826822F0770222F47F4282600868502871
:1019600038D00DDC20284FD005DC90B3102811D1E1
:101970004AE0022070BD302846D040280AD13BE022
:1019800060282FD070280DD0B0F5805F03D0B0F55F
:10199000005F12D0012584F83D60002084F83C00EF
:1019A000284670BDCB68D1E90121206801F069FBB0
:1019B0002068816841F0770109E0CB68D1E9012115
:1019C000206801F05EFB2068816841F480418160FD
:1019D000E1E719E0CA684968206801F007FC502176
:1019E000206806E0CA684968206801F010FC6021A0
:1019F000206801F050FBCEE7CA684968206801F012
:101A0000F5FB40212068F4E7226801461046F0E724
:101A10002DE9F0410D46040003D094F83D0018B1C3
:101A200008E00120BDE8F081002084F83C00204659
:101A300000F040F8022084F83D002068816844F2FC
:101A4000070291438160211D206801F0D7FA2268C6
:101A500090689169166A2B68AF69034340F20330BE
:101A6000814341EA0721A868EF6908434FF6FC412A
:101A70008843E96840EA0720014328692F6A00018A
:101A800040EA0730084369686D6926F0220646EA95
:101A90000515294393602268906154F8460B016252
:101AA000012004F81F09E0752076E0762077A07504
:101AB0000020B7E700B585B00021009101910291A7
:101AC00003910068B0F1804F1ED11048C16941F008
:101AD0000101C161C16901F001010491816941F015
:101AE000040181618069694600F0040004900320CC
:101AF00000900748FEF766FF002211461C20FFF702
:101B00005FFA1C20FFF74EFA05B000BD001002403E
:101B10000008014070B590F83E60044690F83F50D0
:101B200090F8423090F84320022021B104290ED0D1
:101B3000012E1BD114E0012E18D1012B16D184F8EF
:101B40003E0084F8420001220021206820E0012D9F
:101B50000CD1012A0AD184F83F0084F8430014E034
:101B6000012D03D1012B01D1012A01D0012070BD2B
:101B700084F83E0084F83F0084F8420084F8430073
:101B800001220021206801F06FFA0122042120685F
:101B900001F06AFA2068016841F00101016000204B
:101BA00070BD704770B50446006801694FF00005CC
:101BB000C943890715D4C168C943890711D4E91EEF
:101BC000016101202077206880698007204602D0CB
:101BD000FFF7E7FF04E000F0BFF8204600F051F9FE
:101BE000257720680169C943490717D4C168C943EB
:101BF000490713D46FF004010161022020772068A7
:101C0000806910F4407F204602D0FFF7CAFF04E04D
:101C100000F0A2F8204600F034F925772068016929
:101C2000C943090716D4C168C943090712D46FF024
:101C300008010161042020772068C06980072046E0
:101C400002D0FFF7AEFF04E000F086F8204600F077
:101C500018F9257720680169C943C90617D4C168F6
:101C6000C943C90613D46FF0100101610820207721
:101C70002068C06910F4407F204602D0FFF791FF32
:101C800004E000F069F8204600F0FBF825772068B2
:101C90000169C943C90708D1C168C943C90704D14B
:101CA000891E0161204600F03BF920680169C943A3
:101CB000090609D4C168C943090605D46FF080013B
:101CC00001612046FFF7F6FC20680169C943490617
:101CD00009D4C168C943490605D46FF040010161C8
:101CE000204600F03FFB20680169C94389060BD4F8
:101CF000C168C943890607D46FF0200101612046FD
:101D0000BDE87040FFF7D7BC70BD000000B585B0DE
:101D10000021009101910291039100680B498842D2
:101D200012D10B48816941F00401816180696946E3
:101D300000F0040004904FF48070009002200190A5
:101D400003900448FEF73EFE05B000BD002C0140A4
:101D50000010024000080140704770B5044690F83A
:101D60003C0000260D4601280FD0012084F83C00DD
:101D70006AB1042A1DD0082A2FD00C2A3FD0012690
:101D8000002084F83C00304670BD022070BD206801
:101D900001F08AF92068816941F0080181612068B9
:101DA000816921F004018161206881692A691143F8
:101DB00011E0206801F0A0F92068816941F4006118
:101DC00081612068816921F4806181612068816975
:101DD0002A6941EA02218161D2E7206801F0B8F95D
:101DE0002068C16941F00801C1612068C16921F022
:101DF0000401C1612068C1692A69114311E02068AA
:101E000001F0D2F92068C16941F40061C161206824
:101E1000C16921F48061C1612068C1692A6941EA10
:101E20000221C161ACE710B5040003D094F83D0075
:101E300010B107E0012010BD002084F83C002046CE
:101E400000F01EF8022084F83D00211D206801F0FA
:101E5000D5F8012084F8460084F83E0084F83F005D
:101E600084F8400084F8410084F8420084F843007C
:101E700084F8440084F8450084F83D00002010BD3B
:101E80007047704710B50446022249B104290ED0AC
:101E9000082913D094F84100012816D0012010BD64
:101EA00094F83E000128F9D184F83E200FE094F820
:101EB0003F000128F2D184F83F2008E094F8400068
:101EC0000128EBD184F8402001E084F84120012270
:101ED000206801F0C9F80F492068884203D1426C9C
:101EE00042F4004242642068884208D0B0F1804F3A
:101EF00005D00949884202D00849884204D1816846
:101F000001F00701062903D0016841F001010160D9
:101F1000002010BD002C01400004004000080040DB
:101F20002DE9F84F81460068F54988420DD1F54901
:101F30006FF0010009680861F3480168A1B300214E
:101F40000160F2480168491C0160F149D9F80000BC
:101F50000026F04DF04FDFF8C4A34FF0010888428F
:101F600072D1DAF838005446401CCAF83800DAF862
:101F70003C00401CCAF83C00DAF84400401CCAF897
:101F80004400E74801F076FAE64901F071FF01F0FC
:101F90001BFF606101F0B8FB83466063A246A06B43
:101FA000E14C052803D01BE0FFE70121C8E72068CA
:101FB00001F046FF0090DAF84010ABEB010001F0B1
:101FC0003FFF009901F0C4FB01F086FDD74AD84BD2
:101FD00001F09AFD01F0F6FBD6490860CAF83860B6
:101FE000DAF83C00322844D1D3480068406ACAF885
:101FF0004800DAF84C205146821AC1E91302CF4B4F
:10200000521C032A00D2186047F24812904201DAAB
:10201000CE6201E0CA6A12B940F676522260A0F59B
:10202000E6423D3A40F2E73C624506D240F6815234
:102030002260C1F82C80C1F8308047F61811884220
:1020400003DDCAF8306003E061E0DAF8300010B96F
:1020500040F68A502060186801F0F2FE834654462C
:10206000DAF80C0001F0ECFE594601F01FFAC4E961
:102070000F60DAF810105046022903D0B049096801
:10208000012944D1AF4A8168126811433FD1A94C5C
:10209000AD492268A2F500028A4201D3226801E01C
:1020A000AA4A226002F1FF428A4201D2A849216075
:1020B000DAF8240008B1012829D12068B0F5000F12
:1020C0000FDB012211032846FEF774FD00224FF4B6
:1020D00000512846FEF76EFD206801F091FE396838
:1020E0004863206810F1FF4F11D300224FF4805154
:1020F0002846FEF75FFD012251032846FEF75AFDF0
:10210000206880F0004001F07BFE39684863914907
:10211000D9F8000088427DD187480168486ACAF82A
:102120000C00496A544647F23052511ACAF8281036
:10213000B0F5FA4F06DD216A012903D1C4F81C80ED
:10214000C4F8108046F67811884206DA216A01291F
:1021500003D1C4F81880C4F81080A0F5E24040F222
:10216000CF714938884201D2A661E6617548A168FD
:10217000006808434ED1206940F2A77A401C2FD155
:10218000DFF8D4914FF4C87BD9F80000401CC9F89F
:10219000000078280DD100224FF480512846FEF728
:1021A00009FD012251032846FEF704FD3968C1F8F4
:1021B00034B0D9F80000F0280DD1012211032846CF
:1021C000FEF7F8FC00224FF400512846FEF7F2FC1F
:1021D0003968C1F834B0D9F80010B1F5B47F02D035
:1021E000206918B12FE02661C9F80060606BA0F18A
:1021F0006501632903D3A0F65531632901D2C4F8E0
:102200001080A0F241604FF4967950450AD2A0693F
:10221000C8B900E071E0012211032846FEF7CAFCAC
:10222000002208E0E06970B900224FF4805128468E
:10223000FEF7C0FC01224FF400512846FEF7BAFC1D
:102240003968C1F8349020694FF0AA09012824D1D7
:10225000606BA0F6B341C72901D202212161A0F22F
:102260004160504508D2A069B8B90122110328463F
:10227000FEF7A0FC002208E0E06970B900224FF4EC
:1022800080512846FEF796FC01224FF40051284663
:10229000FEF790FC3968C1F8349030480068012896
:1022A0001ED1606BA0F24160504508D2A069B8B958
:1022B000012211032846FEF77DFC002208E0E069B8
:1022C00070B900224FF480512846FEF773FC0122BA
:1022D0004FF400512846FEF76DFC3968C1F8349080
:1022E0006068401C6060642805D14FF400511C48B0
:1022F000FEF758FC6660C4F82080BDE8F88F000047
:102300000008004040020020040000200C000020D3
:1023100000040040000C014068010020440000203F
:10232000E400002000007A44E00000209A99999986
:102330009999E93FCC000020B0010020DC0000208A
:1023400014000020000000200000A04100002042F6
:10235000000020C2002C01400800002010000020D6
:10236000001001407047704770470000F8B50168E1
:1023700004460868CA684B6910F00F0F4FF000055B
:1023800059D003F0010602F49077374365D0C107B6
:1023900005D0D10503D5616C41F0010161644107AD
:1023A00005D5D90703D0616C41F002016164810752
:1023B00005D5D90703D0616C41F0040161640107C0
:1023C00007D502F02001314303D0616C41F00801D0
:1023D0006164616C00293AD0800604D5900602D56C
:1023E000204600F055FF20684069616CC0F3801002
:1023F000090700D460B3204600F023FF206840693D
:10240000400621D52068143050E8001F21F040011B
:1024100040E80012002AF5D1E06BA8B16D49416394
:10242000E06BFEF771FA002811D0E06B416B01B050
:10243000BDE8F040084783060FD593060DD520462A
:10244000BDE8F84000F024BF2046FFF78DFFF8BD3F
:102450002046FFF789FF6564F8BD266B2023012E17
:102460007CD1C6067AD5D60678D50868486800902B
:1024700048694FF00206400640D5E16B08684068A5
:102480000004000CE8D0A28D8242E5D9E08588697D
:1024900020282DD020680C3050E8001F21F48071D6
:1024A00040E80012002AF5D12068143050E8001FDF
:1024B00021F0010140E80012002AF5D12068143013
:1024C00050E8001F21F0400140E80012002AF5D139
:1024D00084F84230256320680C3050E8001F21F05A
:1024E000100140E80012002AF5D1E06BFEF7E8F990
:1024F0006663A08DE18D401A81B22AE0A08DE18D46
:10250000401A81B2E08D0028A6D00029A4D022680C
:102510000C3252E8000F20F4907042E80007002FC0
:10252000F5D12068143050E8002F22F0010240E875
:102530000027002FF5D184F84230256320680C3045
:1025400050E8002F22F0100240E80023002BF5D1C4
:1025500066632046FFF707FFF8BDFFE705062BD5AA
:10256000150629D594F841002128F5D1A068B0F5C9
:10257000805F01D12069B0B1206A411C21622168CD
:1025800000784860E08C401E0004000CE084E3D139
:102590002068C16821F08001C1602068C16841F0F5
:1025A0004001C160D8E7206A0088C0F30800486095
:1025B000206A801C2062E5E74006CDD55006CBD5C9
:1025C000CA68204622F04002CA6084F8413000F018
:1025D00095F8C1E73332000870B5040004D094F8D0
:1025E0004100002510B106E0012070BD84F8405084
:1025F000204600F023F8242084F841002068C168B8
:1026000021F40051C160204600F0A4FE2068016959
:1026100021F4904101612068416921F02A01416162
:102620002068C16841F40051C1606564202084F8CD
:10263000410084F842006563002070BD30B585B06C
:10264000002400940194029403940068184988427D
:102650002CD11848C16941F48021C161C16901F4DC
:1026600080210491816941F0080181618069124DE6
:1026700000F0080004904FF4806000900220019068
:102680000320039069462846FEF79CF9E814CDE93B
:102690000004694628460294FEF794F900220121BD
:1026A0002720FEF78DFC2720FEF77CFC05B030BD0F
:1026B0000048004000100240000C014090F84230F9
:1026C000202B01D00220704721B11AB100230363EF
:1026D00000F09CBE012070470549064B0A784878F7
:1026E000303A1A54401C487001220348FFF7E6BFF5
:1026F00044000020D0020020880200207047FEE73E
:1027000001684A69D24352050FD46FF480624A616E
:10271000002140F8301F202242738173026942F089
:10272000040202610173012070470020704700001D
:102730002DE9F843044600680D46DDE90897016875
:102740009846164641F4807101604B4600224FF0D6
:1027500001112046009700F06BF848B1206800682E
:10276000C00502D54FF4007020640320BDE8F88353
:10277000216805F0FE0008613B464A46154920469F
:1027800000F09EF888B920684169806900903A4657
:102790004946204600F0F2F848B1206C042804D1E4
:1027A0002068016841F4007101600120DEE7F5B2A4
:1027B000B8F1010F09D02168300A08613A4649464C
:1027C000204600F0DBF80028E7D1206805610020F2
:1027D000CCE700000200010070B516460D46044625
:1027E0001EE02046FFF78CFF08B1012070BD681C79
:1027F00016D0FEF7E5F9801BA84200D885B92068FD
:102800004069C04340070BD5002044F8300F202119
:102810006173A073216941F0200121612073E4E715
:1028200020684069C0434007DBD4002070BD000031
:102830002DE9F047984617460D460446C1F3074672
:10284000DDF820902AE000BFB8F1FF3F26D0FEF768
:10285000B7F9A0EB0901414502D8B8F1000F1DD12D
:102860002068012E16D0806925EA00000004000CC3
:1028700012D00020B84211D1002044F8300F20219E
:102880006173A073216941F020012161207301204F
:10289000BDE8F0874069E7E70120EBE72068012EFB
:1028A0000AD0806925EA00000004000C06D0002050
:1028B000B842C9D00020EBE74069F3E70120F7E711
:1028C0002DE9F047984616460D4604464FF000099C
:1028D0004FF0200AC1F3074723E020684069C04356
:1028E000400515D42068016841F400710160216839
:1028F0006FF480604861C4F8309084F83DA084F89B
:102900003E90216C41F00401216484F83C9021E068
:10291000701C06D0FEF754F9A0EB0800B04203D8B3
:1029200016B1012F1FD021E02068012F15D080693A
:1029300025EA00000004000C18D000BF44F8309FC6
:1029400084F80DA084F80E90216941F020012161E6
:1029500084F80C900120BDE8F087406925EA00006A
:102960000004000CEAD12068406901E02068806919
:1029700025EA00000004000CAFD1ECE770B5164664
:102980000D4604461EE02046FFF7BAFE08B10120BE
:1029900070BD681C16D0FEF713F9801BA84200D842
:1029A00085B920684069C04300060BD5002044F873
:1029B000300F20216173A073216941F02001216152
:1029C0002073E4E720684069C0430006DBD40020A0
:1029D00070BD00003EB5002411480094019402949B
:1029E0000E498460016004730475012505614FF48C
:1029F00060214460C161FDF73FFE08B1FDF7DCFCDA
:102A00000220CDE90005694602940548FDF744FD22
:102A1000002801D0FDF7D0FC3EBD0000002401409D
:102A2000E40000202DE9F04385B0002428480094FC
:102A3000019402940394816941F0100181618169DC
:102A400001F010010491816941F0200181618169E7
:102A500001F020010491816941F0040181618169E3
:102A600001F004010491816941F0080181618069EC
:102A7000012200F00800DFF85C805503049029462D
:102A80004046FEF797F8DFF850904FF44357002286
:102A900039464846FEF78EF8009502260125039632
:102AA000CDE9015469464046FDF78CFF0097039637
:102AB000CDE9015469464846FDF784FF18208DE8AA
:102AC000310069464846FDF77DFF05B0BDE8F0835B
:102AD0000010024000100140000C01400D4810B5EC
:102AE0000B4901600C49416000214FF48042816034
:102AF000C0E9031241618161C1610162FEF766F8BC
:102B0000002803D0BDE81040FDF756BC10BD000002
:102B10000054004014010020A086010010B596B0BA
:102B200000240F9410941194129413941C2108A85B
:102B30001494FDF76BFB20216846FDF767FB2848DE
:102B4000264901604721C0E9011440F2E731C0E99C
:102B5000031444618461FEF70DFE08B1FDF72CFCFF
:102B60004FF480500F900FA91D48FEF7E3FE08B107
:102B7000FDF722FC1A48FFF756F908B1FDF71CFCD7
:102B8000139413A916481494FEF7C0FD08B1FDF77D
:102B900013FC6020CDE908040A940B940C940D9466
:102BA000002208A90E480E94FFF7D7F808B1FDF7E8
:102BB00003FC00944FF40050CDE9044002940194CA
:102BC0000394694606480794FEF776FD08B1FDF7C1
:102BD000F3FB0348FFF79AF816B010BD002C014034
:102BE0006801002010B58CB024216846FDF70EFB6B
:102BF0000024154809944FF080410A94C0E900145C
:102C00004FF6FF71C0E90241046184610320CDE900
:102C100000040120CDE902040494CDE905400794A5
:102C2000694609480894FEF7F3FE08B1FDF7C4FBB6
:102C3000099409A904480A94FEF768FD002801D008
:102C4000FDF7BAFB0CB010BDB001002010B586B086
:102C500000241648009401940294039404941249A9
:102C6000059401604721C0E901146321C0E9031400
:102C70008461FEF77FFD08B1FDF79EFB4FF48050A5
:102C8000009069460948FEF755FE08B1FDF794FB30
:102C9000049404A905480594FEF738FD002801D0E6
:102CA000FDF78AFB06B010BD00040040F8010020CB
:102CB00010B586B000241748009401940294039440
:102CC000049413490594016040F2D121C0E9011434
:102CD00040F2DB51C0E903148461FEF74BFD08B1FB
:102CE000FDF76AFB4FF48050009069460948FEF7F3
:102CF00021FE08B1FDF760FB049404A90548059482
:102D0000FEF704FD002801D0FDF756FB06B010BD0C
:102D100000080040400200200C4810B50A4901603C
:102D20004FF416514160002181600C22C160C0E95E
:102D300004128161C161FFF74FFC002803D0BDE898
:102D40001040FDF739BB10BD00480040880200204C
:102D5000FEE7FEE770B5002404F1B000C0B200F059
:102D6000BDF8002000F0BAF8102000F0B7F80025F8
:102D7000002000F0C5F86D1CEDB2802DF8D3641C66
:102D8000E4B2082CE8D370BD70B5C820FDF708FE8A
:102D9000044D0024285D00F0A1F8641CE4B2172C57
:102DA000F8D370BD2C00002010B50446B031C8B275
:102DB00000F094F8102040EA141000F08FF804F0AE
:102DC0000F00BDE8104000F089B800002DE9F04781
:102DD000203A0024089E0F468146D5B27F2803D9A9
:102DE00000208F1C8146FFB2102B394612D0FFF70E
:102DF000DBFF1B4905EB450001EB4005285D0EB1EB
:102E0000C043C0B200F07CF8641CE4B2062CF5D3D9
:102E1000BDE8F087FFF7C8FFDFF8488004EB051135
:102E200018F801000EB1C043C0B200F069F8641C8C
:102E3000E4B2082CF2D37F1CF9B24846FFF7B4FF86
:102E40000024474604EB05103844007A0EB1C04315
:102E5000C0B200F055F8641CE4B2082CF2D3D7E7F6
:102E60002E410008564300082DE9FF4F81B000268F
:102E7000DDE90EA91D469346804634464FEA5A07BF
:102E800027E0281B401EC1B20A2000F059FCBBFB02
:102E9000F0F00A21B0FBF1F201FB120026B9691E25
:102EA0008C4201DA48B101263030C2B207FB0480FF
:102EB000C0B25346CDF8009006E007FB0480C0B2D4
:102EC00053462022CDF800900299FFF77FFF641C43
:102ED000E4B2AC42D5D305B0BDE8F08F01B584B003
:102EE00001214FF4807204A88DE807000B460022F0
:102EF00078210248FDF72EFF05B000BD1401002027
:102F000001B584B001214FF4807204A88DE8070058
:102F10000B46402278210248FDF71CFF05B000BD9A
:102F20001401002070477047FDF7E4BF30B593B03F
:102F300028216846FDF76AF914210AA8FDF766F909
:102F4000002501200F9510951195010412958DE82B
:102F5000230004904FF4E010CDE9081002240794F8
:102F60006846FEF703FA08B172B6FEE70AA90F2019
:102F700081E831004FF48060CDE90D0502210AA8F7
:102F8000FEF718F908B172B6FEE74FF40040119051
:102F90000F940FA8FEF798F8002801D072B6FEE74C
:102FA00013B030BD704700000148FEF7FBBD0000C4
:102FB000680100200148FEF7F5BD0000680100200F
:102FC0000148FEF7EFBD0000680100200148FEF750
:102FD000E9BD0000680100200148FEF7E3BD0000E4
:102FE000B00100200148FEF7DDBD0000F80100201F
:102FF0000148FEF7D7BD000040020020F0B502688E
:10300000164B174C174D4FF08047984205D0B842E9
:1030100003D0A04201D0A84203D122F070064A6832
:103020003243984205D0B84203D0A04201D0A84212
:1030300003D122F44074CA6822434C6922F0800212
:10304000224302608A68C2620A688262984201D1A1
:103050000969016301214161F0BD0000002C0140BC
:10306000000400400008004010B501F01F030121DA
:10307000046A99408C430462016A9A4011430162D8
:1030800010BD10B5846842EA032224F47F440A4349
:103090002243826010BD826822F070020A4342F02F
:1030A000070181607047000030B5036A026A22F0B0
:1030B000010202624268846924F073050C682C43A3
:1030C00023F002058B682B430A4DA8420BD123F055
:1030D0000805CB6822F440722B434D6923F00403AA
:1030E00015438A692A4342608461496841630362E7
:1030F00030BD0000002C014030B5026A036A23F0A5
:1031000010030362436884690D6824F4E64444EACA
:1031100005248D6822F0200242EA05120B4DA842D8
:103120000ED1CD6822F0800242EA05124D6923F4E7
:10313000406343EA85038D6922F0400243EA850338
:103140004360846149688163026230BD002C0140A4
:1031500030B5036A026A22F4807202624268C4696E
:1031600023F4007324F073050C682C438D6843EA44
:1031700005230C4DA8420ED1CD6823F4006343EA29
:1031800005234D6922F4405242EA05128D6923F469
:10319000806342EA05124260C4614968C163036208
:1031A00030BD0000002C014030B5046A026A22F4F0
:1031B000805202624268C3690D6823F4E64343EA21
:1031C00005238D6824F4005444EA0534064DA842D2
:1031D00004D14D6922F4804242EA85124260C36103
:1031E00049680164046230BD002C014010B5036AD7
:1031F000046A24F001040462846924F0F00444EABF
:10320000021423F00A020A438461026210BD10B561
:10321000036A046A24F010040462846923F0A003A2
:1032200024F4704444EA023243EA011182610162EB
:1032300010BD10B5406A0021C185C184FFF794F824
:1032400010BD01680C3151E8002F22F4907241E862
:103250000023002BF5D10168143151E8002F22F032
:10326000010241E80023002BF5D1016B012909D1AE
:1032700001680C3151E8002F22F0100241E80023D0
:10328000002BF5D1202180F8421000210163704706
:1032900008B590F84210222901D0022008BD8268AA
:1032A0004FF480539A4201D1016921B1816A9A4257
:1032B0001BD04AB10AE00268816A5268C2F3080270
:1032C0000A80816A891C08E0026972B1026852684A
:1032D00002F07F020A70816A491C8162C18D491E19
:1032E0000904090CC18503D01BE002685268F1E7AC
:1032F0000168CA6822F02002CA600168CA6822F424
:103300008072CA6001684A6922F001024A61202184
:1033100080F8421000214163026B012A03D0FFF7BD
:10332000DBF9002008BD016301680C3151E8002F72
:1033300022F0100241E80023002BF5D101680A6851
:10334000D20602D50A6849680091818DFFF70BF813
:10335000E7E7000070B5044600680169E26821F4FF
:103360004051114301612169A06808436169084324
:103370002168CA6841F20C639A430243CA6020681C
:103380004169A26921F44071114341611E492068DD
:10339000884202D1FDF7B4FF01E0FDF7A1FF00EB89
:1033A000C00101EB0012606864218000B2FBF0F301
:1033B000B3FBF1F36FF018067343B2FBF0F5B2FB09
:1033C000F0F605EB8305322303EB0515B5FBF1F5AC
:1033D000B6FBF1F605F0F00505EB0615B2FBF0F6CD
:1033E000B2FBF0F0B0FBF1F06FF01802504306EBC7
:1033F000800003EB0010B0FBF1F0216800F00F003B
:103400002844886070BD00000038014081628285D8
:10341000C28500214164222180F84210016921B156
:103420000168CA6842F48072CA6001684A6942F061
:1034300001024A610068C16841F02001C1600020BA
:10344000704700000148FEF791BF0000880200208D
:10345000FEE70907090E002804DB00F1E02080F8F0
:103460000014704700F00F0000F1E02080F8141DF8
:103470007047000010B50446FDF7C2F92046FDF77D
:103480008AF800F029FB064A064B00F03DFB0022BB
:10349000054B00F0C9F9BDE8104000F093B90000F9
:1034A000CDCCCCCCCCCC0C4000FEAF4070B500F005
:1034B000ABFD134C05462946E061606A00F022FC32
:1034C00060622846216A00F09FFDA063E16800F079
:1034D000CFFC06462946A06800F0CAFC314600F041
:1034E00011FC08492562A062884202DC0649884234
:1034F00000D9A162A06ABDE8704000F065BC000080
:10350000A00000200000FA430000FAC31CB5FDF73C
:10351000F9FCFFF70BFDFFF785FAFFF75BFAFFF702
:10352000FDFAFFF7DBFAFFF7F7FBFFF75BFBFFF7AF
:103530008DFBFFF7BDFBFFF727FCFFF70BFC5F4898
:10354000FEF7CCF95D48FEF7A1F95D48FEF7C6F934
:103550005B48FEF79BF95B48FEF7C0F95948FEF758
:1035600095F900215548FEF78DFC5748FDF748F9BD
:103570005548FCF723FF012254495548FFF79EF8B0
:103580003C215448FEF7C6FA524C47F230502168AD
:1035900048624D48FFF76EFF4F4900F069FC00F0AC
:1035A00013FC4E4908602068416A4D484D4E4E4F0D
:1035B000DFF838A1DFF83891DFF838814FF0010BE0
:1035C00001601025CDE9005B00215C460A23084616
:1035D0003268FFF749FC386800F012FCCDE900546E
:1035E0000246062302210020FFF73EFC306800F06F
:1035F00027FC396800F008FD00F002FCCDE900541A
:103600000246062304210020FFF72EFCDAF8000012
:1036100010F1FF4F0BD380F0004000F0F1FBCDE93B
:1036200000540246062304212820FFF71DFCCDE9A3
:10363000005406234D4619460020D9F80020FFF714
:1036400013FC2D490878032823D32C48027802BBA9
:103650004278F2B9807830B101280CD002280DD020
:10366000032826D00FE0264A0020C8F8004010604A
:103670005060906007E02248046001E02048446008
:103680000020C8F80000002008701E211B48FCF72D
:103690009BFDD8F80000012893D11A4C01030022A9
:1036A0002046FDF787FA002261142046FDF782FAD2
:1036B00087E74FF0FF302860E2E700006801002054
:1036C000F801002040020020E40000204400002017
:1036D00088020020B00100200000C84258000020ED
:1036E000500000207800002084000020C800002046
:1036F000540000204C00002045000020D002002093
:1037000010000020000C01400B4910B50A464B6820
:103710001268642B07DA094C44F8230010445B1C40
:10372000C1E9000305E0642392FBF3F4121B10448B
:10373000086090FBF3F010BD98000020F00200201C
:103740000246012000E05043491EC9B2FBD2704737
:103750002DE9F04100F058FC174C05460146206168
:10376000A06900F0CFFA1549A061884202DC144933
:10377000884200D9A1612846616900F045FC606378
:103780000646A169206B00F073FB0746304661686E
:1037900000F06EFB06462946206800F069FB3146C2
:1037A00000F0B0FA394600F0ADFA6561E062BDE8BC
:1037B000F04100F009BB0000A000002000007A44A6
:1037C00000007AC421F00042A2F16052B2F5801FDD
:1037D00001F0004328BFD2F17F6C0BD95FEA001CD7
:1037E00043EAC20242EB507018BF704728BF20F076
:1037F00001007047B2F5801FBCBF184670474FEA02
:10380000410C1CF5001F02D2084600F0F8BB70B551
:1038100000F024FA00000089FFF7F6BF4FF00040E7
:10382000A0F58000704700002DE9C04130B4DFF8FA
:10383000A0C23CEA111418BF3CEA131400F0EC805B
:1038400081EA03051CEA111444EAD57418BF1CEA86
:10385000131500F0C780A4EB05044FF0004545EABE
:10386000C12145EAC32341EA505143EA525304F1CE
:103870007F74994204F500344FEAC0204FEAC22217
:1038800008BF904200F09C804FEA13650FF240168B
:10389000765D4FEA134506FB05F7C7F1807706FB17
:1038A00007F74FEAD737A7FB03687642C8F5803899
:1038B000A7FB06CE38BFA8F1010807FB08E64FF0CA
:1038C000000EA6FB028CE6FB03CEDCF1000CCEF171
:1038D000004E38BFAEF1010EA6FB0C584FF00007AA
:1038E0004FF00005E6FB0E87A1FB08C6A0FB07CE44
:1038F00016EB0E0645F10005E1FB076515F1E04EFC
:103900007EBFA4F580345FEA46066D4116F180075C
:1039100045F100054FEA17274FEA066647EA0567B3
:10392000A6F1DE46B6F1805F4FEA15251FD938466D
:1039300024F0010C05EBC471BCF1FE6F01EB0C111E
:1039400002D8F0BCBDE8008124425CBF01F5801EB6
:103950009EEAC47F02D4F0BCBDE80081244238D482
:10396000F0BCA1F1C041BDE8004100F0C5B94FEA8B
:10397000D22242EA43524FEAD323A7FB02864FEA00
:10398000D02040EA415007FB03661EEA0E0F4FEAC3
:10399000D12105FB026658BFA6EB0056B6EB0056D8
:1039A0004FEA520E4EEAC37E18EB0E0E56EB530E44
:1039B000BDD518EB02085E417F1C55F10005B6E746
:1039C0004FF480154FF000074FF000064FF000084D
:1039D000ADE7F0BC4FF0000001F1C04101F0004143
:1039E000BDE8008111EA0C1F0CEA131500D00CE0B1
:1039F00013EA0C1F00F025804FF00000F0BC81EAB4
:103A0000030101F00041BDE80081F0BCBDE80041C8
:103A100081EA030100F070B9F0BCBDE8004170B567
:103A200000F01CF9097EFC3E00F007B881EA0301B2
:103A30004FF0000001F00041704781EA030100F0FF
:103A40005BB9F0BCBDE800414FF000002149704770
:103A5000FFFDFBF9F7F5F4F2F0EEEDEBE9E8E6E453
:103A6000E3E1E0DEDDDBDAD8D7D5D4D3D1D0CFCDDA
:103A7000CCCBCAC8C7C6C5C4C2C1C0BFBEBDBCBB13
:103A8000BAB9B8B7B6B5B4B3B2B1B0AFAEADACAB0E
:103A9000AAA9A8A8A7A6A5A4A3A3A2A1A09F9F9EE8
:103AA0009D9C9C9B9A99999897979695959493939A
:103AB000929191908F8F8E8E8D8C8C8B8B8A898931
:103AC00088888787868585848483838282818180B4
:103AD0000000FF070000F87F10F0004248BF40429E
:103AE000B0FA80F310FA03F10AD0C3F11D0303F515
:103AF00080634FEA415002EB035202EBD121704741
:103B00004FF0000070470000DFF848C170B51CEAB4
:103B1000111E1EBF1CEA13159EEA0C0F95EA0C0F2E
:103B200000F06F8081EA030423EA4C134EEAD47E4E
:103B300021EA4C1141F4801143F48013AE44A1FBFF
:103B4000024CA0FB0365AEF17F7E361955EB0C05E8
:103B5000A1FB034C4CF10003A0FB021C16EB0C066E
:103B6000654153F10003094218BF46F0010613F402
:103B7000007F0BD14FEA03314FEA0530340341EAAD
:103B8000155140EA16506FF003020AE04FEAC321D4
:103B90004FEAC520F40241EA555140EA56506FF011
:103BA000020202EB2E4201EB025585EACE710AD0E9
:103BB0005FEA440C18BF24F0004450F1000041F1CA
:103BC000000120EAD47040F2FE7C624500D270BD54
:103BD000A84214BF4FF080444FF04044002E08BF6D
:103BE0000024BEF1806FA8BFA1F1C041BDE87040C4
:103BF00080F282804FF0000001F1C04101F00041ED
:103C000070479EEA0C0F0CEA131518BF95EA0C0FCB
:103C100006D04FF0000081EA030E0EF0004170BDA7
:103C200000F01CF88900013E00F007B800F009B868
:103C30004FEA430C5FEA5C5C08D081EA030100F0C4
:103C40005BB84FEA410C5FEA5C5CF6D14FF00000D4
:103C5000014970470000FF070000F87F0EF1020ED7
:103C60002EF0030E5EF8046B364205D4012A43EBB6
:103C7000030515F5001F12D8012841EB010C1CF5B6
:103C8000001F0CD80ED14FEAD17C15F5001F0CEBAC
:103C90004C0C0CF1020C08BF4CEBD37C04E04FF051
:103CA000080C01E04FEAD37C0CEB4C0526FA05F634
:103CB00006F00706B6F1040C06D20EEB860CBDE842
:103CC00070404CF0010C6047DFE80CF0090B020279
:103CD0004FF000414FF00000A1F5002170BD1946E2
:103CE0001046012851EB010418BFD4F5001484BF1D
:103CF000002001F0004170BD0808A0F500114FEA56
:103D00003101704790EA010F48BF81F0004100F196
:103D10008281421A3CBF801A89184FEAD0524FF074
:103D20007F4C1CEA410FA2EBD15318BF9CEA026FF3
:103D300000F03B804FF0004C4CEA00204CEA01219F
:103D400021FA03FC10EB0C0C1ED202F1FF325FEAE9
:103D50001C2040EBC25038BF70471CF07F0F4FEA69
:103D6000400C18BFBCF17F4F38BF7047C3F1200330
:103D7000994008BF20F00100BCF17F4F38BF704769
:103D8000A0F1C04000F03BB94FEA3C00000A40EB14
:103D9000C25028BF1CF0FF0F4FEA400CE6D018BFFE
:103DA000BCF17F4F38BF7047EAE79CEA026F05D04D
:103DB00010EA5C0F08BF00F00040704710B500F03B
:103DC000D8F800BF64FBBE3E41000B0ED3F19E024B
:103DD00008D950F400034FEA032323FA02F048BF46
:103DE0004042704710B500F0C4F800BF49922480EB
:103DF000002070476FF0004282EA20007047000008
:103E0000C10DD1F19E0206DB4FEA002343F00043CF
:103E100023FA02F07047004207D54FEA4001B1F1A2
:103E2000FE4F02D24FF00000704710B500F0A1F82D
:103E300049922480002070476FEA200070470000FC
:103E400010F0004148BF4042B0FA80F310FA03F28C
:103E5000C3F19D030BD051EAC35101EB122053066D
:103E600038BF704700F1010008BF20F00100704723
:103E70004FF47F0C1CEAD0121EBF1CEAD11392EA49
:103E80000C0F93EA0C0F00F0478090EA010F48BF37
:103E900042F480724FF0004C4CEA00204CEA0121C1
:103EA00002EB0302A0FB0113A2F50002002918BFD8
:103EB00043F001035B0028BF4FEA330342EB224289
:103EC0005FEA132C4CEBC2502EBFBCEB436FB2F534
:103ED0007C0F70474FEA036CBCF1004F08BF20F025
:103EE0000100B2F57C0F38BF70470BD582F0FF029E
:103EF00012F5803FC8BF704700F1C040D8BF00F046
:103F00000040704700F5000C5FEA4C0C48BF70475A
:103F1000B0F1C04000F073B890EA010F0CEAD11381
:103F200048BF42F48072624538BF634504D280EADC
:103F3000010000F00040704710B500F01AF800BF13
:103F40008900013E00F007B800F009B85FEA410CB3
:103F50005FEA1C6C08D080EA010000F050B85FEA0C
:103F6000400C5FEA1C6CF6D14FF00040A0F58000D9
:103F700070470EF1020E2EF0030E5EF8044B244241
:103F800004D44FEA4102B2F17F4F11D84FEA400307
:103F9000B3F17F4F0CD80ED14FEAD07CB2F17F4FF6
:103FA0000CEB4C0C0CF1020C08BF4CEBD17C04E088
:103FB0004FF0080C01E04FEAD17C0CEB4C0324FAE3
:103FC00003F404F00704B4F1040C06D20EEB840CE5
:103FD000BDE810404CF0010C6047DFE80CF007082A
:103FE00002024FF00040A0F5800010BD08464200DC
:103FF00018BFD2F1807288BF00F0004010BDFF21D1
:1040000041EAD050C005704790EA010F48BF81F0E7
:1040100000413FF57EAE421A04D882F00042A0EB88
:10402000020011444FEAD0524FF07F4C1CEA410F7E
:10403000A2EBD15318BF9CEA026F4AD04FF0004C5C
:104040004CEA00204CEA012121FA03FCB0EB0C0CF5
:104050000FD412F0FE0F36D05FEA4C001DD50012CF
:1040600040EBC25038BF70471CF03F0F18BF70477D
:104070000BE0A2F101025FEA1C2040EBC25038BF06
:1040800070471CF07F0F18BF7047C3F120039940A1
:1040900014BF401E20F00100704780084FEA122331
:1040A00008BF7047B0FA80FCA2EB0C02CCF1280CE0
:1040B00060FA0CF093EA122F04BF00EBC250704775
:1040C0004FEAC3707047130A5FEADC1008BF7047FD
:1040D000F6E79CEA026F04D010EA5C0F08BF0020EC
:1040E000704710B5FFF745FF40DFF63E81F0004016
:1040F0007047010202030405060708090A0B0C0DAC
:104100000E0F1010010202030405060708090A0B2E
:104110000C0D0E0F10100000000000000000010246
:104120000304060708090000000001020304000060
:10413000000000000000002F000000000700070042
:1041400000147F147F1400242A7F2A12006264085E
:1041500013230036495522500000050300000000DB
:104160001C224100000041221C000014083E0814DB
:104170000008083E0808000000A0600000080808C9
:104180000808000060600000002010080402003EE3
:104190005149453E0000427F40000042615149467E
:1041A000002141454B31001814127F10002745456E
:1041B0004539003C4A494930000171090503003680
:1041C0004949493600064949291E00003636000093
:1041D0000000563600000008142241000014141498
:1041E0001414000041221408000201510906003293
:1041F0004959513E007C1211127C007F49494936D1
:10420000003E41414122007F4141221C007F49493B
:104210004941007F09090901003E4149497A007F6F
:104220000808087F0000417F4100002040413F0115
:10423000007F08142241007F40404040007F020C74
:10424000027F007F0408107F003E4141413E007F15
:1042500009090906003E4151215E007F09192946DE
:104260000046494949310001017F0101003F4040BA
:10427000403F001F2040201F003F4038403F006368
:10428000140814630007087008070061514945438A
:1042900000007F41410000552A552A550000414148
:1042A0007F00000402010204004040404040000042
:1042B00001020400002054545478007F48444438DC
:1042C00000384444442000384444487F0038545463
:1042D000541800087E0901020018A4A4A47C007FE1
:1042E000080404780000447D4000004080847D0084
:1042F000007F102844000000417F4000007C04182B
:104300000478007C0804047800384444443800FCF5
:10431000242424180018242418FC007C0804040811
:1043200000485454542000043F444020003C404086
:10433000207C001C2040201C003C4030403C0044BD
:1043400028102844001CA0A0A07C004464544C44C5
:1043500014141414141400000000000000000000E5
:10436000000000000000000000F800000000000055
:1043700000333000000000100C06100C0600000096
:1043800000000000000040C07840C0784000043FBA
:1043900004043F040400007088FC0830000000188A
:1043A00020FF211E0000F008F000E01800000021AE
:1043B0001C031E211E0000F00888700000001E2152
:1043C00023241927211010160E0000000000000001
:1043D000000000000000000000E0180402000000DF
:1043E00000071820400000020418E0000000004010
:1043F000201807000000404080F08040400002028A
:10440000010F01020200000000F0000000000101A5
:10441000011F01010100000000000000000080B049
:10442000700000000000000000000000000000011B
:104430000101010101010000000000000000003046
:1044400030000000000000000000806018040060E0
:1044500018060100000000E010080810E000000F3E
:10446000102020100F00001010F8000000000020A5
:10447000203F2020000000700808088870000030ED
:104480002824222130000030088888483000001895
:10449000202020110E000000C02010F800000007AE
:1044A0000424243F240000F8088888080800001924
:1044B000212020110E0000E0108888180000000F55
:1044C000112020110E0000380808C838080000002C
:1044D000003F000000000070880808887000001C81
:1044E000222121221C0000E010080810E00000003A
:1044F000312222110F00000000C0C00000000000A7
:1045000000303000000000000080000000000000CB
:1045100080600000000000008040201008000001C2
:104520000204081020004040404040404000040485
:10453000040404040400000810204080000000204F
:10454000100804020100007048080808F00000008C
:10455000003036010000C030C828E810E00007181D
:10456000272423140B000000C038E0000000203C8A
:1045700023020227382008F8888888700000203F2E
:10458000202020110E00C030080808083800071845
:1045900020202010080008F808080810E000203F3C
:1045A000202020100F0008F88888E8081000203F1D
:1045B00020202320180008F88888E8081000203FF1
:1045C000200003000000C030080808380000071869
:1045D0002020221E020008F808000008F808203FEA
:1045E000210101213F20000808F8080800000020F0
:1045F000203F2020000000000808F8080800C080C4
:1046000080807F00000008F888C028180800203F3C
:1046100020012638200008F8080000000000203F94
:1046200020202020300008F8F800F8F80800203F8B
:10463000003F003F200008F830C00008F808203F85
:10464000200007183F00E01008080810E0000F10D5
:10465000202020100F0008F808080808F000203F6C
:10466000210101010000E01008080810E0000F1807
:10467000242438504F0008F8888888887000203F2C
:104680002000030C3020007088080808380000382B
:10469000202121221C00180808F808081800000032
:1046A000203F2000000008F808000008F808001F5C
:1046B000202020201F000878880000C8380800004B
:1046C00007380E010000F80800F80008F800033C65
:1046D0000700073C0300081868808068180820302D
:1046E0002C03032C30200838C800C838080000000C
:1046F000203F2000000010080808C83808002038B3
:10470000262120201800000000FE02020200000006
:10471000007F40404000000C30C00000000000005E
:1047200000010638C00000020202FE000000004046
:1047300040407F000000000004020202040000006C
:104740000000000000000000000000000000808069
:104750008080808080800002020400000000000051
:104760000000000000000000808080800000001930
:10477000242222223F2008F8008080000000003F11
:10478000112020110E000000008080800000000E2B
:10479000112020201100000000808088F800000E09
:1047A000112020103F200000808080800000001F2A
:1047B000222222221300008080F08888881800209E
:1047C000203F202000000000808080808000006B5F
:1047D00094949493600008F8008080800000203F4B
:1047E000210000203F200080989800000000002059
:1047F000203F20200000000000809898000000C0AA
:104800008080807F000008F8000080808000203FCA
:1048100024022D302000000808F8000000000020CD
:10482000203F202000008080808080808000203F0A
:1048300020003F20003F8080008080800000203FDB
:10484000210000203F200000808080800000001FA9
:10485000202020201F00808000808000000080FF3A
:10486000A12020110E000000008080808000000E3A
:10487000112020A0FF808080800080808000202088
:104880003F212000010000008080808080000033F4
:10489000242424241900008080E08080000000008F
:1048A000001F202000008080000000808000001F8A
:1048B000202020103F208080800000808080000128
:1048C0000E300806010080800080008080800F305C
:1048D0000C030C300F0000808000808080000020DE
:1048E000312E0E3120008080800000808080808109
:1048F0008E7018060100008080808080800000217A
:10490000302C2221300000000000807C02020000D8
:104910000000003F40400002027C80000000004098
:10492000403F0000000000000000FF000000000009
:104930000000FF00000000005849000800000020AF
:10494000E4000000280100083C4A0008E4000020C0
:104950008C0B000044010008000000000000000073
:104960000000000000000000000000000000000047
:104970000000000001000000100000000000000026
:104980000024F400AED580A83FD30040A1C8DA12BD
:1049900081CFD9F1DB40A4A68D14AF000000000048
:1049A00000000000000000003075000044FFFFFF21
:1049B000FFFFFFFF000000000000000000000000FB
:1049C00000000000000000000100000001000000E5
:1049D00000000000000000000000000000000000D7
:1049E00000000000000000000000000000000000C7
:1049F00000000000000000006666C6418FC20D4145
:104A0000CDCCCC3C00000000000000000000000005
:104A10000000000000000000000000000000000096
:104A20000000000000000000000000000000000086
:0C4A30000000000030750000800D000048
:04000005080000ED02
:00000001FF
