:020000040800F2
:100000003008002091010008F72A00087D2500082B
:10001000F52A0008F105000855320008000000002C
:10002000000000000000000000000000CB2C0008D1
:10003000F305000800000000C92C0008CD2C0008C2
:10004000AB010008AB010008AB010008AB010008E0
:10005000AB010008AB010008AB010008AB010008D0
:10006000AB010008AB010008AB010008AB010008C0
:10007000AB010008AB010008AB010008AB010008B0
:10008000AB010008AB01000811050008AB01000836
:10009000AB010008AB010008AB010008AB01000890
:1000A0004D2D0008712D0008652D0008592D000800
:1000B0007D2D0008AB010008AB010008AB01000872
:1000C000AB010008AB010008AB010008AB01000860
:1000D000AB010008AB010008AB0100084932000881
:1000E000AB010008AB010008AB01000800F002F80A
:1000F00000F03FF80AA090E8000C82448344AAF183
:100100000107DA4501D100F034F8AFF2090EBAE880
:100110000F0013F0010F18BFFB1A43F0010318473B
:100120006442000084420000103A24BF78C878C1BD
:10013000FAD8520724BF30C830C144BF04680C60ED
:10014000704700000023002400250026103A28BF35
:1001500078C1FBD8520728BF30C148BF0B60704739
:10016000642900F07D80002070471FB51FBD10B5C9
:1001700010BD00F092F91146FFF7F7FF03F094F875
:1001800000F0B0F903B4FFF7F2FF03BC00F0B8F9D8
:100190000948804709480047FEE7FEE7FEE7FEE71B
:1001A000FEE7FEE7FEE7FEE7FEE7FEE70448054957
:1001B000054A064B70470000492D0008ED00000875
:1001C00030020020300800203004002030040020DD
:1001D0000FB41CB5074B06AA7B44694600900598EE
:1001E00000F043F90020694600F052F91CBC5DF8AC
:1001F00014FB0000B50200002DE9F0410E46044654
:10020000002020622046E168884730B3252805D0C9
:10021000D4E901219047206A401CF2E7E1682046BA
:1002200000278847050018D0A5F14100192802D8F9
:1002300020354FF400673246294620462760FFF7F5
:100240008FFF40B1012804D0F61D26F007060836BE
:10025000D8E7361DD6E72846DAE7206ABDE8F08100
:100260002DE9F0410646002410687529314616A58F
:1002700010D0AFF30080002802DA404213A507E057
:1002800031688A0701D512A502E0490704D511A5F6
:10029000012401E0AFF3008000210A2206F12407C7
:1002A00009E0B0FBF2FCB0FBF2F302FB1C003030C3
:1002B00078541846491C0028F3D123462A46304674
:1002C000BDE8F04100F073B8000000002D00000010
:1002D0002B0000002000000010B5431C02E010F8C5
:1002E000011B71B18107FAD14FF0013202C88C1A9B
:1002F0008C4314EAC211F9D0C01A0A0603D0C01EFA
:1003000010BDC01A10BD0A0401D0801E10BD090224
:10031000FCD0401E10BD4FF000020429C0F0128036
:1003200010F0030C00F01B80CCF1040CBCF1020FA8
:1003300018BF00F8012BA8BF20F8022BA1EB0C017D
:1003400000F00DB85FEAC17C24BF00F8012B00F873
:10035000012B48BF00F8012B70474FF0000200B599
:10036000134694469646203922BFA0E80C50A0E8D8
:100370000C50B1F12001BFF4F7AF090728BFA0E886
:100380000C5048BF0CC05DF804EB890028BF40F852
:10039000042B08BF704748BF20F8022B11F0804F94
:1003A00018BF00F8012B70477047704770472DE960
:1003B000F0470D4699469246044600F1240801682C
:1003C000880604D5E06921F01001216000E00120D9
:1003D000A84201DD471B00E00027A1697A1902EB62
:1003E0000900081AA0612078C00602D42046AFF3A5
:1003F0000080002608E0D4E901211AF806009047A1
:10040000206A401C761C20624E45F4DB2078C00632
:100410000AD52046AFF3008006E0D4E90121302060
:100420009047206A401C2062381EA7F10107F4DCC7
:1004300007E0D4E9012118F805009047206A401C24
:100440002062281EA5F10105F3DC2046AFF30080F1
:100450002078000602D50220BDE8F0870120FBE7E6
:1004600001694A1C02610878704700B58FB0CDE978
:1004700001310021059105497944CDE90310114668
:100480006846FFF7B9FE0FB000BD0000E5FFFFFFB3
:100490000A6802F8010B0A607047754600F02CF8F4
:1004A000AE4605006946534620F00700854618B061
:1004B00020B5FFF77BFEBDE820404FF000064FF06F
:1004C00000074FF000084FF0000B21F00701AC4689
:1004D000ACE8C009ACE8C009ACE8C009ACE8C009A8
:1004E0008D46704710B50446AFF300802046BDE846
:1004F0001040FFF747BE000000487047CC010020C5
:1005000001491820ABBEFEE726000200704700003C
:10051000014800F061B900005000002070B50446A9
:1005200000688168C943C90717D1816821F00101BA
:10053000816000F063FC05460AE000BF00F05EFC4D
:10054000401B022804D920688068C043C00706D039
:1005500020688068C043C007F0D0002070BDA06A4A
:1005600040F01000A062E06A40F00100E06201206B
:1005700070BD0000F8B5002604460096006881684A
:10058000C943C9072DD0816841F001018160164837
:1005900016490068B0FBF1F000E0401E0090002812
:1005A000FBD100F02BFC054616E000BF00F026FC56
:1005B000401B022810D920688068C043C0070BD0B8
:1005C000A06A40F01000A062E06A40F00100E06222
:1005D00084F824600120F8BD20688068C043C0070B
:1005E000E4D10020F8BD00002400002040420F00AC
:1005F000FEE7704772B6FEE7F8B5002504460095A1
:1006000090F8240001280BD0012084F82400204613
:10061000FFF784FF2046FFF7ADFF060002D050E051
:100620000220F8BDA06A20F4885040F00200A062C9
:10063000022000F015FE25490968B1FBF0F04000EA
:1006400000E0401E00900028FBD12068816841F046
:100650000801816000F0D2FB074608E000F0CEFB05
:10066000C01B0A2803D920688068000715D42068B9
:1006700080680007F2D42068816841F0040181603D
:1006800000F0BCFB074612E000F0B8FBC01B0A28D4
:100690000DD920688068400709D5A06A20F00200C3
:1006A00040F01000A06284F824500120F8BD2068BA
:1006B00080684007E8D4A06A20F0020040F0010002
:1006C000A06284F824503046F8BD000024000020C9
:1006D00070470000F8B50024009490F824202546C7
:1006E000012A12D0012280F824204A681F23072AF9
:1006F0000DD20668776B521E02EB820293409F4335
:100700000B6893401F43776319E00220F8BD066829
:100710000D2A0AD2376BD21F02EB820293409F430D
:100720000B6893401F43376309E0F76A0D3A02EB09
:10073000820293409F430B6893401F43F7620A680D
:10074000072306680A2A0AD3F7680A3A02EB42022C
:1007500093409F438B6893401F43F76008E03769DD
:1007600002EB420293409F438B6893401F433761E3
:100770000A68102A01D0112A20D1124B02689A422D
:1007800017D193681B0219D4936843F40003936054
:100790000968102912D10C490C4A0968B1FBF2F121
:1007A00001EB8101490000E0491E00910029FBD1C5
:1007B00004E0816A41F020018162012480F8245024
:1007C0002046F8BD002401402400002040420F00D4
:1007D00070470068C06C704770B5044600680668D2
:1007E0004568A90625D5B10723D5A16AC90603D452
:1007F000A16A41F40071A1628168C1F342410729F5
:1008000010D1217B71B9416821F020014160A06ABB
:1008100020F48070A062A06AC00403D4A06A40F0F3
:100820000100A0622046FFF7D3FF21686FF012009D
:10083000086028062ED570072CD5A06AC00603D400
:10084000A06A40F40050A06220688168C1F30231C0
:10085000072909D04168490515D48168C1F342418F
:10086000072910D1217B71B9416821F080014160D5
:10087000A06A20F48050A062A06AC00503D4A06AD8
:1008800040F00100A0622046FFF722FF21686FF0D0
:100890000C00086068060CD5F0070AD0A06A40F486
:1008A0008030A062204600F093F821686FF00100CC
:1008B000086070BD2DE9F0414FF0000704003D468F
:1008C0007ED0A06A002628B9E66284F8246020461B
:1008D00000F080F82046FFF721FEA16AC90600D487
:1008E00020B1A06A40F01000A06269E0A16A21F482
:1008F000885141F00201A1626268E169237B0A43E9
:1009000047EA43010A43A1684FF48077B94209D00E
:10091000012907D05FF0000194F814C0BCF1010F69
:1009200002D00AE03946F7E7F3B1A36A43F02003A7
:10093000A362E36A43F00103E3622368D3F804C0CF
:100940002CF4694C4CEA010CC3F804C021688B6894
:10095000DFF870C003EA0C0313438B60A168B9424F
:100960000BD0012909D00CE0DFF85CC0A3690CEBC7
:1009700043330B4343F40061DFE7218A0D05A5F5FE
:1009800080152168CB6A23F470032B43CB62216866
:1009900089680E4B1940914208D1E662A16A21F0A4
:1009A000020141F00101A162BDE8F081A06A20F0DE
:1009B000020040F01000A062E06A40F00100E06236
:1009C0000120F1E7FDF7E1FF00E0FFFFFE0E1FFF52
:1009D0007047000000B585B000210091019102919F
:1009E000039100681249884220D11248816941F47C
:1009F00000718161816901F400710491816941F0A4
:100A0000040181618069694600F0040004900420BB
:100A1000009003200190084800F0F2F800221146EF
:100A2000122000F0EBFB122000F0DAFB05B000BD55
:100A300000240140001002400008014070B5044647
:100A400090F8240001280DD0012084F824002046CD
:100A5000FFF790FD02004FF0000005D084F824005D
:100A6000104670BD022070BDA16A40F20123994377
:100A700041F48071A1621F4D23681F49AB4218D118
:100A80000E6816F4702F14D0A66A46F48016A6627B
:100A90000E68760505D5A66A26F4005646F48056FB
:100AA000A662A66AF6040AD5E66A26F00606E6629B
:100AB00006E0A66A26F48016A6625E68E9E7E062B0
:100AC00084F824006FF00200186020688368C3F384
:100AD0004243072B05D1A84208D1096811F4702FB1
:100AE00004D0816841F480118160B9E7816841F4E4
:100AF000A001F9E7002801400424014010B590F856
:100B000021100022022905D00421816380F82020D1
:100B1000012010BD01680B6823F00E030B60016813
:100B20000B6823F001030B6090F84030C46B012187
:100B300001FA03F3636080F8211080F8202010464A
:100B400010BD000010B590F821100024022903D038
:100B50000421816301243DE001680A6822F00E024D
:100B60000A6001680A6822F001020A601A4A0168F4
:100B7000914201D1012121E0174A1432914201D161
:100B800010211BE0144A2832914201D1891515E049
:100B9000114A3C32914201D189140FE00E4A503281
:100BA000914202D14FF4803108E00B4A6432914205
:100BB00002D14FF4801101E04FF08071064A083AEB
:100BC0005160012180F82110002180F82010416B34
:100BD00001B18847204610BD0800024070B50446A8
:100BE00000F00CF90546601C02D00448007804446B
:100BF00000F004F9401BA042FAD370BD1800002099
:100C00002DE9F84FDFF8B8910024A9F1040B234631
:100C10000F2709F1040AABF1040EC9E00125A54034
:100C20002A40AA427DD1674ED1F804C0ACEB060839
:100C3000B44532D014DCBCF1030F3AD009DCBCF16E
:100C4000000F2AD0BCF1010F1CD0BCF1020F31D132
:100C50001DE0BCF1110F17D0BCF1120F2AD119E021
:100C6000B8F5881F19D006DCB8F5803F15D0B8F567
:100C7000801F1FD111E0B8F5001F0ED0B8F5041F7A
:100C800018D10AE0CB6815E0CB681B1D12E0CB68D9
:100C900008330FE0CB680C330CE08B682BB1012BD1
:100CA0004FF0080303D0456104E0042302E005612E
:100CB00000E00023FF2A01D8064601E000F1040607
:100CC0004FEA840501D9A5F12005D6F8008007FA7E
:100CD00005FC28EA0C0803FA05F548EA0508C6F8F9
:100CE00000804D68ED0062D5374DAE6946F00106D3
:100CF000AE61AD6924F0030605F001050095334DA2
:100D000006EB050CDCF80850A607360F07FA06F8C4
:100D100025EA0805DFF8B880404503D14FF0000808
:100D200017E044E0DFF8AC80404502D14FF0010805
:100D30000FE0DFF8A480404502D14FF0020808E040
:100D4000DFF89880404502D14FF0030801E04FF0F2
:100D5000040808FA06F848EA0508CCF808804D6847
:100D6000D9F80060ED024D4601D5164300E09643E8
:100D70002E604D68DAF80060AD02554601D5164385
:100D800000E096432E604D68DBF80060AD035D46E1
:100D900001D5164300E096432E604D68DEF80060F2
:100DA000ED03754601D5164300E096432E60641CA2
:100DB0000D682A46E5407FF431AFBDE8F88F0000AA
:100DC0000804014000001110001002400000014022
:100DD00000080140000C01400010014000140140D7
:100DE000C26821EA02030A4043EA024101617047F6
:100DF0000AB1016170470904FBE7000001488068FF
:100E0000704700001800002070B5040025D094F849
:100E10003D00002520B984F83C50204600F050F9F0
:100E2000242084F83D002068016821F00101016060
:100E30002068016841F4004101602068016821F4E4
:100E40000041016000F06AFB4D4A6168914201D89F
:100E50004C4900E04C49884201D2012070BD4B4909
:100E60002368B0FBF1F15E6826F03F060E435E603A
:100E70006368934206D94FF4967359434FF47A73DB
:100E8000B1FBF3F12368491C1E6A26F03F0631438B
:100E900019626168914210D84900401EB0FBF1F21E
:100EA000521CC2F30B02042A01D2042022E0B0FB40
:100EB000F1F0401CC0F30B001CE0A268F2B301EBA0
:100EC000C10303EB0116431EB3FBF6F35B1C43F4B3
:100ED00080431B0549D092B301EBC10202EB011123
:100EE000401EB0FBF1F0401CC0F30B0040F480400A
:100EF00040F400402168CA694CF6FF739A431043DE
:100F0000C861D4E9071001432068026822F0C002DA
:100F100011430160D4E9030101432068826848F26B
:100F2000FF339A4311438160D4E9050108432168E6
:100F3000CA6822F0FF021043C86001E00EE016E02C
:100F40002068016841F0010101602564202084F8D7
:100F50003D00256384F83E50002070BD01EB410642
:100F6000431EB3FBF6F35B1CB3E70120C2E701EBC2
:100F70004101401EB0FBF1F0401CC0F30B00B7E78D
:100F8000A086010080841E0000093D0040420F0041
:100F90002DE9FF4F83B09A46DDE911979346044649
:100FA000DDF84080FFF72AFF054694F83D00202831
:100FB0007FD11923012240492046009501F076FB9C
:100FC000002876D194F83C00012872D0012084F8E2
:100FD0003C0020680168C90703D1016841F00101A4
:100FE00001602068016821F400610160212084F81B
:100FF0003D00402084F83E0000262664C4F824808A
:10100000A4F82A90608D20852C48E062CDE9007517
:1010100053465A462046049901F0C8FA70B930E0A8
:101020002A463946204601F0E7FB58B1206C0428D7
:1010300004D12068016841F400710160012007B00B
:10104000BDE8F08F606A216800780861606A401C22
:101050006062218D491E89B22185628D521E628592
:1010600022685369DB435B070BD469B100781061D8
:10107000606A401C6062208D401E2085608D401E8D
:101080006085208D0028CBD12A463946204601F0C4
:10109000E1FA0028CAD154F83D0B016841F400710F
:1010A0000160202004F81E09E67766770020C6E775
:1010B000FFE70220C3E70000020010000000FFFF6E
:1010C00010B586B000210091019102910391006852
:1010D0001349884222D1134CA06940F00800A06156
:1010E000A069694600F0080004904FF44070009039
:1010F00012200190032003900B48FFF781FD0B485D
:10110000416841F0E06141F002014160E06940F472
:101110000010E061E06900F40010049006B010BD1A
:101120000054004000100240000C0140000001404B
:1011300002488168027811448160704718000020DD
:10114000074810B5016841F010010160032000F06C
:1011500075F80F2000F006F800F024F8002010BD0C
:101160000020024070B50D4D04464FF47A71287886
:10117000B1FBF0F00A490968B1FBF0F000F0A4FB04
:1011800048B9102C07D200222146501E00F036F834
:1011900000206C6070BD012070BD000018000020B0
:1011A000240000200C4808B5816941F001018161EB
:1011B000816901F001010091C16941F08051C16173
:1011C000C06900F0805000900448416821F0E0615F
:1011D00041F00071416008BD001002400000014074
:1011E000002809DB00F01F02012191404009800026
:1011F00000F1E020C0F8001170470000F0B40E4B81
:101200001B680C46C3F30223C3F10705042D00D964
:101210000425191D072901D2002300E0DB1E012649
:1012200006FA05F1491E214099409E40761E16405F
:101230003143F0BC02F00FB80CED00E0064900F0BD
:10124000070208684FF6FF03184040EA0220034AED
:1012500010430860704700000CED00E00000FA0544
:1012600010B501460020234C012922D0022939D093
:1012700010291DD161682268D20119D51E48C1F319
:101280008342C903805C0AD561681B4AC1F34041AF
:10129000921E515C194AB2FBF1F1484301E0184932
:1012A00048436168490203D440000321B0FBF1F0D8
:1012B00010BD226AC2F30121012903D1920701D591
:1012C000C80310BD022905D1626A920702D549F60A
:1012D000404010BD0329FCD121688903F9D54FF2A4
:1012E000244010BD00F02AF96168C1F38131491C26
:1012F0004900DBE700100240543B000800127A006E
:1013000000093D002DE9F84305460078354CC0073B
:1013100054D0E0690026C00008D4E06940F0805055
:10132000E061E069012600F0805000902E480168DD
:10133000C90512D40168804641F480710160FFF74D
:101340005DFD074605E000BFFFF758FDC01B6428A0
:1013500023D8D8F80000C005F6D5206A10F44070F4
:1013600021D0A98801F4407181421CD0206A1F4914
:10137000012220F440700A6000220A602062C00747
:1013800011D0FFF73BFD074641F2883808E000BF67
:10139000FFF734FDC11B414502D90320BDE8F883A6
:1013A000206A8007F4D5206A696820F440700843F9
:1013B00020621EB1E06920F08050E061287880074B
:1013C00005D56068A96820F440400843606028782B
:1013D000C00605D56068E96820F4800008436060B5
:1013E0000020DBE700100240007000404004424251
:1013F0002DE9F0470F46050061D0434E306800F0FC
:101400000700B84209D2306820F007003843306046
:10141000306800F00700B84251D128683B4C810782
:1014200012D5400703D5606840F4E060606028781A
:10143000000703D5606840F4605060606068A96888
:1014400020F0F000084360602878C00728D0686862
:10145000012810D02168022810D0890700292EDA2F
:10146000616821F0030101436160FFF7C7FC80461A
:1014700041F288390DE021688903EFE78901EDE742
:10148000FFF7BCFCA0EB0801494502D90320BDE8E9
:10149000F0876068696800F00C00B0EB810FEFD155
:1014A000306800F00700B8420BD9306820F0070020
:1014B00038433060306800F00700B84201D00120A6
:1014C000E5E72878400705D56068E96820F4E06022
:1014D000084360602878000706D56068296920F411
:1014E000605040EAC100606000F038F86168084A66
:1014F000C1F30311515CC840064908600648006802
:10150000FFF730FE0020C2E700200240001002403A
:10151000643B0008240000201C000020044805490A
:1015200000684968044AC1F30221515CC840704711
:101530002400002000100240743B000804480549C4
:1015400000684968044AC1F3C221515CC840704731
:101550002400002000100240743B00080E4A51682D
:101560000E4801F00C03042B11D0082B0FD10C48AE
:10157000C1F38343C903C05C0AD55168084AC1F36B
:101580004041921E515C054A5043B0FBF1F0704758
:1015900004494843704700000010024000127A00DE
:1015A000423B000800093D002DE9F84F040070D0CF
:1015B0002078C04DC00749D06868C0F38100012879
:1015C00007D06868C0F38100022809D16868C003A9
:1015D00006D52868800339D560680028E7D035E053
:1015E0006068B0F5803F0BD010B1B0F5A02F11D0DE
:1015F000286820F480302860286820F4802002E0E9
:10160000286840F480302860606890B1FFF7F6FBEE
:1016100006460AE0286840F480202860F0E700BF12
:10162000FFF7ECFB801B642873D828688003F7D58C
:101630000CE0FFF7E3FB064605E000BFFFF7DEFB2B
:10164000801B6428F0D828688003F7D420789A4E4D
:1016500080074FF001094FF0000839D5686810F095
:101660000C0F07D06868C0F38100022809D16868B0
:10167000C00306D42868800714D52069012808D142
:1016800010E02069B0B1C6F80090FFF7B7FB07463D
:1016900005E00AE1FFF7B2FBC01B0228C4D82868A6
:1016A0008007F7D52868616920F0F80040EAC1009A
:1016B00028600DE0C6F80080FFF7A0FB074604E0B5
:1016C000FFF79CFBC01B022823D828688007F7D4AB
:1016D000207800072CD57948A169D9B1C0F80090CD
:1016E000FFF78CFB074604E0FFF788FBC01B0228CE
:1016F0000FD8686A8007F7D571484FF4FA5100682F
:10170000B0FBF1F0009000BF0098411E0091FAD2AA
:101710000EE080E0C0F80080FFF770FB074604E0B1
:10172000FFF76CFBC01B022875D8686A8007F7D4E6
:101730002078400760D5E8690027C00008D4E86930
:1017400040F08050E861E869012700F08050009087
:101750005C480168C90513D40168834641F480716F
:101760000160FFF74BFB824606E000BFFFF746FB38
:10177000A0EB0A0064284ED8DBF80000C005F5D5C0
:10178000E06801280AD008B1052813D0286A20F0A3
:1017900001002862286A20F0040002E0286A40F074
:1017A00001002862E06841F2883B98B1FFF726FB10
:1017B00082460BE0286A40F004002862EEE700BF92
:1017C000FFF71CFBA0EB0A0159455AD8286A80078D
:1017D000F6D50CE0FFF712FB824605E0FFF70EFBA3
:1017E000A0EB0A0159454CD8286A8007F6D41FB1EE
:1017F000E86920F08050E861E06988B36968C1F366
:101800008101022944D00228C6F8608004D0FFF785
:10181000F5FA044638E034E0FFF7F0FA074604E052
:10182000FFF7ECFAC01B02282BD828688001F7D4F8
:10183000206AB0F5803F05D16868A16820F40030C7
:1018400008436860D4E908010843696821F4741109
:1018500008436860C6F86090FFF7D0FA044606E0D7
:1018600025E000BFFFF7CAFA001B022809D8286844
:101870008001F7D51BE000BFFFF7C0FA001B02286C
:1018800002D90320BDE8F88F28688001F4D40EE067
:101890000128F7D06868226A00F48031914204D1AF
:1018A000616A00F47010884201D00120EAE700204C
:1018B000E8E700000010024000004242800442427B
:1018C000240000200070004010B5401EB0F1807F61
:1018D00001D3012010BD4FF0E02460610F2160179B
:1018E00001F0B9FC0020A06107202061002010BD9C
:1018F0007047704710B590F83C20012A22D0012291
:1019000080F83C20CA688C6822F4407222434C68FC
:1019100022F4806222430C6822F4006222430C69A4
:1019200022F4805222434C6922F400522243C969B6
:10193000002322F480420A4301684A6480F83C3064
:10194000002010BD022010BD70B590F83C20012A87
:1019500026D0012480F83C40022280F83D20036814
:101960005A689D6822F070060A6832435A600D4B2F
:1019700002689A4208D0B2F1804F05D00A4B9A42D1
:1019800002D00A4B9A4204D1496825F080031943DA
:10199000916080F83D40002180F83C10084670BD01
:1019A000022070BD002C01400004004000080040EF
:1019B00010B5040003D094F83D0010B107E00120F9
:1019C00010BD002084F83C00204600F01FF80220E3
:1019D00084F83D00211D206801F0D6F9012084F82B
:1019E000460084F83E0084F83F0084F8400084F804
:1019F000410084F8420084F8430084F8440084F8ED
:101A0000450084F83D00002010BD000008B50068C6
:101A1000174988422AD11748816941F400618161E0
:101A20008069002200F40060009011461820FFF742
:101A3000E5FB1820FFF7D4FB002211461920FFF721
:101A4000DDFB1920FFF7CCFB002211461A20FFF71F
:101A5000D5FB1A20FFF7C4FB002211461B20FFF71D
:101A6000CDFBBDE808401B20FFF7BABB08BD000056
:101A7000002C01400010024090F83D10012901D0D7
:101A800001207047022180F83D1000680B49884210
:101A900008D0B0F1804F05D00949884202D00949E9
:101AA000884204D1816801F00701062903D001684A
:101AB00041F001010160002070470000002C01404E
:101AC000000400400008004090F83D10012901D0BA
:101AD00001207047022180F83D100168CA6842F079
:101AE0000102CA6000680B49884208D0B0F1804FFB
:101AF00005D00949884202D00849884204D181684A
:101B000001F00701062903D0016841F001010160DD
:101B100000207047002C01400004004000080040F5
:101B200070B5044690F83C000025012817D0012626
:101B300084F83C60022084F83D002068826822F02E
:101B4000770222F47F4282600868502838D00DDC8A
:101B500020284FD005DC90B3102811D14AE0022094
:101B600070BD302846D040280AD13BE060282FD0F5
:101B700070280DD0B0F5805F03D0B0F5005F12D0B3
:101B8000012584F83D60002084F83C00284670BDA3
:101B9000CB68D1E90121206801F039F9206881681A
:101BA00041F0770109E0CB68D1E90121206801F01B
:101BB0002EF92068816841F480418160E1E719E0F5
:101BC000CA684968206801F0D7F95021206806E00A
:101BD000CA684968206801F0E0F96021206801F0D6
:101BE00020F9CEE7CA684968206801F0C5F94021AC
:101BF0002068F4E7226801461046F0E72DE9F0413D
:101C00000D46040003D094F83D0018B108E001200F
:101C1000BDE8F081002084F83C00204600F040F848
:101C2000022084F83D002068816844F20702914355
:101C30008160211D206801F0A7F8226890689169F1
:101C4000166A2B68AF69034340F20330814341EACF
:101C50000721A868EF6908434FF6FC418843E9680B
:101C600040EA0720014328692F6A000140EA073053
:101C7000084369686D6926F0220646EA051529437E
:101C800093602268906154F8460B0162012004F8C9
:101C90001F09E0752076E0762077A0750020B7E771
:101CA00000B585B000210091019102910391006877
:101CB000B0F1804F1ED11048C16941F00101C161EE
:101CC000C16901F001010491816941F00401816160
:101CD0008069694600F004000490032000900748E2
:101CE000FEF78EFF002211461C20FFF787FA1C200A
:101CF000FFF776FA05B000BD001002400008014071
:101D000070B590F83E60044690F83F5090F842302D
:101D100090F84320022021B104290ED0012E1BD1BE
:101D200014E0012E18D1012B16D184F83E0084F85E
:101D3000420001220021206820E0012D0CD1012A5F
:101D40000AD184F83F0084F8430014E0012D03D148
:101D5000012B01D1012A01D0012070BD84F83E0081
:101D600084F83F0084F8420084F8430001220021F7
:101D7000206801F03FF801220421206801F03AF8C0
:101D80002068016841F001010160002070BD7047CA
:101D900070B50446006801694FF00005C943890722
:101DA00015D4C168C943890711D4E91E0161012016
:101DB0002077206880698007204602D0FFF7E7FF80
:101DC00004E000F0BFF8204600F051F925772068C4
:101DD0000169C943490717D4C168C943490713D4E6
:101DE0006FF004010161022020772068806910F4FF
:101DF000407F204602D0FFF7CAFF04E000F0A2F8BF
:101E0000204600F034F9257720680169C9430907A5
:101E100016D4C168C943090712D46FF008010161E3
:101E2000042020772068C0698007204602D0FFF791
:101E3000AEFF04E000F086F8204600F018F92577A0
:101E400020680169C943C90617D4C168C943C906D6
:101E500013D46FF010010161082020772068C06959
:101E600010F4407F204602D0FFF791FF04E000F01D
:101E700069F8204600F0FBF8257720680169C9431E
:101E8000C90708D1C168C943C90704D1891E0161C6
:101E9000204600F03BF920680169C943090609D4CE
:101EA000C168C943090605D46FF08001016120466D
:101EB000FFF71EFD20680169C943490609D4C168BE
:101EC000C943490605D46FF040010161204600F086
:101ED0003BF920680169C94389060BD4C168C9432D
:101EE000890607D46FF0200101612046BDE87040EB
:101EF000FFF7FFBC70BD000000B585B00021009168
:101F000001910291039100680B49884212D10B485C
:101F1000816941F0040181618069694600F0040033
:101F200004904FF4807000900220019003900448C8
:101F3000FEF766FE05B000BD002C01400010024017
:101F400000080140704770B5044690F83C00002638
:101F50000D4601280FD0012084F83C006AB1042A04
:101F60001DD0082A2FD00C2A3FD00126002084F84B
:101F70003C00304670BD022070BD206800F05AFF62
:101F80002068816941F0080181612068816921F040
:101F900004018161206881692A69114311E0206888
:101FA00000F070FF2068816941F400618161206860
:101FB000816921F480618161206881692A6941EA2F
:101FC00002218161D2E7206800F088FF2068C169A2
:101FD00041F00801C1612068C16921F00401C161BB
:101FE0002068C1692A69114311E0206800F0A2FF4E
:101FF0002068C16941F40061C1612068C16921F4B0
:102000008061C1612068C1692A6941EA0221C16118
:10201000ACE710B5040003D094F83D0010B107E020
:10202000012010BD002084F83C00204600F01EF87E
:10203000022084F83D00211D206800F0A5FE01204B
:1020400084F8460084F83E0084F83F0084F840009D
:1020500084F8410084F8420084F8430084F8440086
:1020600084F8450084F83D00002010BD704770479B
:1020700010B50446022249B104290ED0082913D014
:1020800094F84100012816D0012010BD94F83E00BC
:102090000128F9D184F83E200FE094F83F00012890
:1020A000F2D184F83F2008E094F840000128EBD1F9
:1020B00084F8402001E084F841200122206800F0EB
:1020C00099FE0F492068884203D1426C42F40042D5
:1020D00042642068884208D0B0F1804F05D0094999
:1020E000884202D00849884204D1816801F0070182
:1020F000062903D0016841F001010160002010BDF4
:10210000002C0140000400400008004010B50068A9
:10211000094988420FD109480068406A084CA0600C
:102120006068401C6060642805D149140548FEF7CA
:1021300057FE0020606010BD002C01401C010020F3
:1021400040000020001001407047704770470000B9
:10215000F8B5016804460868CA684B6910F00F0FAB
:102160004FF0000559D003F0010602F49077374391
:1021700065D0C10705D0D10503D5616C41F00101DF
:102180006164410705D5D90703D0616C41F00201B4
:102190006164810705D5D90703D0616C41F0040162
:1021A0006164010707D502F02001314303D0616C5F
:1021B00041F008016164616C00293AD0800604D5C1
:1021C000900602D5204600F029FF20684069616C26
:1021D000C0F38010090700D460B3204600F0F7FE7A
:1021E00020684069400621D52068143050E8001F5F
:1021F00021F0400140E80012002AF5D1E06BA8B1BF
:102200006D494163E06BFEF79DFC002811D0E06B47
:10221000416B01B0BDE8F040084783060FD5930637
:102220000DD52046BDE8F84000F0F8BE2046FFF787
:102230008DFFF8BD2046FFF789FF6564F8BD266B6A
:102240002023012E7CD1C6067AD5D60678D508681B
:102250004868009048694FF00206400640D5E16B9F
:10226000086840680004000CE8D0A28D8242E5D9DD
:10227000E085886920282DD020680C3050E8001FA8
:1022800021F4807140E80012002AF5D12068143052
:1022900050E8001F21F0010140E80012002AF5D1AA
:1022A0002068143050E8001F21F0400140E800127F
:1022B000002AF5D184F84230256320680C3050E8BC
:1022C000001F21F0100140E80012002AF5D1E06B58
:1022D000FEF714FC6663A08DE18D401A81B22AE0FE
:1022E000A08DE18D401A81B2E08D0028A6D0002992
:1022F000A4D022680C3252E8000F20F4907042E81B
:102300000007002FF5D12068143050E8002F22F08C
:10231000010240E80027002FF5D184F84230256300
:1023200020680C3050E8002F22F0100240E8002313
:10233000002BF5D166632046FFF707FFF8BDFFE7E6
:1023400005062BD5150629D594F841002128F5D18D
:10235000A068B0F5805F01D12069B0B1206A411C4E
:102360002162216800784860E08C401E0004000C67
:10237000E084E3D12068C16821F08001C160206859
:10238000C16841F04001C160D8E7206A0088C0F30D
:1023900008004860206A801C2062E5E74006CDD531
:1023A0005006CBD5CA68204622F04002CA6084F8A5
:1023B000413000F0E2F8C1E7BF2F000870B504001B
:1023C00004D094F84100002510B106E0012070BD52
:1023D00084F84050204600F023F8242084F841007F
:1023E0002068C16821F40051C160204600F078FEE9
:1023F0002068016921F4904101612068416921F060
:102400002A0141612068C16841F40051C1606564DE
:10241000202084F8410084F842006563002070BDEC
:1024200030B585B0002400940194029403940068B0
:10243000184988422CD11848C16941F48021C161F2
:10244000C16901F480210491816941F00801816131
:102450008069124D00F0080004904FF480600090F5
:10246000022001900320039069462846FEF7C8FB2E
:10247000E814CDE90004694628460294FEF7C0FB43
:10248000002211462720FEF7B9FE2720FEF7A8FEFE
:1024900005B030BD0048004000100240000C014073
:1024A00090F84230202B01D00220704721B11AB1A0
:1024B0000023036300F070BE012070470549064BFE
:1024C0000A784878303A1A54401C48700122034870
:1024D000FFF7E6BF40000020AC01002064010020AF
:1024E0002DE9F843044690F841001F4616460D4674
:1024F000202802D00220BDE8F8837DB176B100200B
:102500006064212084F84100FEF778FCA6848046B0
:10251000E684A068B0F5805F02D003E00120EAE71E
:10252000206910B12E4600250EE000260CE0802127
:10253000204600F04CFEA0B9AEB116F8010B2168A0
:102540004860E08C401EE084E08C43464FF000027F
:1025500000970028EBD14FF04001204600F037FEF5
:1025600030B10320C7E735F8020BC0F30800E6E7F7
:10257000202084F841000020BDE77047FEE7016895
:102580004A69D24352050FD46FF480624A61002138
:1025900040F8301F202242738173026942F0040226
:1025A0000261017301207047002070472DE9F84354
:1025B000044600680D46DDE908970168984616460E
:1025C00041F4807101604B4600224FF0011120461A
:1025D000009700F06BF848B120680068C00502D58C
:1025E0004FF4007020640320BDE8F883216805F0F3
:1025F000FE0008613B464A461549204600F09EF819
:1026000088B920684169806900903A464946204669
:1026100000F0F2F848B1206C042804D12068016869
:1026200041F4007101600120DEE7F5B2B8F1010F5D
:1026300009D02168300A08613A464946204600F030
:10264000DBF80028E7D1206805610020CCE7000016
:102650000200010070B516460D4604461EE02046F5
:10266000FFF78DFF08B1012070BD681C16D0FEF782
:10267000C5FB801BA84200D885B920684069C043CB
:1026800040070BD5002044F8300F20216173A07360
:10269000216941F0200121612073E4E7206840694D
:1026A000C0434007DBD4002070BD00002DE9F04797
:1026B000984617460D460446C1F30746DDF82090BC
:1026C0002AE000BFB8F1FF3F26D0FEF797FBA0EB52
:1026D0000901414502D8B8F1000F1DD12068012E33
:1026E00016D0806925EA00000004000C12D00020FA
:1026F000B84211D1002044F8300F20216173A0733B
:10270000216941F02001216120730120BDE8F0879B
:102710004069E7E70120EBE72068012E0AD08069D5
:1027200025EA00000004000C06D00020B842C9D001
:102730000020EBE74069F3E70120F7E72DE9F047D8
:10274000984616460D4604464FF000094FF0200A01
:10275000C1F3074723E020684069C043400515D412
:102760002068016841F40071016021686FF48060A5
:102770004861C4F8309084F83DA084F83E90216C04
:1027800041F00401216484F83C9021E0701C06D0E3
:10279000FEF734FBA0EB0800B04203D816B1012FBE
:1027A0001FD021E02068012F15D0806925EA0000A4
:1027B0000004000C18D000BF44F8309F84F80DA02E
:1027C00084F80E90216941F02001216184F80C9079
:1027D0000120BDE8F087406925EA00000004000CF4
:1027E000EAD12068406901E02068806925EA00009C
:1027F0000004000CAFD1ECE770B516460D46044658
:102800001EE02046FFF7BBFE08B1012070BD681C2A
:1028100016D0FEF7F3FA801BA84200D885B92068CD
:102820004069C04300060BD5002044F8300F20213A
:102830006173A073216941F0200121612073E4E7F5
:1028400020684069C0430006DBD4002070BD000052
:102850003EB5002411480094019402940E4984600E
:10286000016004730475012505614FF46021446023
:10287000C161FEF71FF808B1FDF7BCFE0220CDE9EB
:102880000005694602940548FDF724FF002801D0A1
:10289000FDF7B0FE3EBD00000024014050000020C6
:1028A0002DE9F04385B0002425480094019402945A
:1028B0000394816941F010018161816901F0100187
:1028C0000491816941F020018161816901F0200159
:1028D0000491816941F004018161816901F0040181
:1028E0000491816941F0080181618069012200F051
:1028F0000800DFF850805503049029464046FEF753
:1029000077FADFF844904FF443570022394648469F
:10291000FEF76EFA0095022601250396CDE90154D3
:1029200069464046FEF76CF900970396CDE90154DD
:1029300069464846FEF764F905B0BDE8F08300003B
:102940000010024000100140000C01400D4810B57D
:102950000B4901600C49416000214FF480428160C5
:10296000C0E9031241618161C1610162FEF74CFA65
:10297000002803D0BDE81040FDF73CBE10BD0000AC
:102980000054004080000020A086010010B596B0E1
:1029900000240F9410941194129413941C2108A8ED
:1029A0001494FDF7DAFC20216846FDF7D6FC284890
:1029B000264901604721C0E9011442F20F71C0E9C4
:1029C000031444618461FEF7F3FF08B1FDF712FEC2
:1029D0004FF480500F900FA91D48FFF7A1F808B1E0
:1029E000FDF708FE1A48FFF714FB08B1FDF702FED9
:1029F000139413A916481494FEF7A6FF08B1FDF727
:102A0000F9FD6020CDE908040A940B940C940D9410
:102A1000002208A90E480E94FFF795FA08B1FDF7B9
:102A2000E9FD00944FF40050CDE904400294019474
:102A30000394694606480794FEF75CFF08B1FDF76A
:102A4000D9FD0348FFF758FA16B010BD002C01401D
:102A5000D400002010B58CB024216846FDF77DFC21
:102A60000024154809944FF080410A94C0E90014ED
:102A70004FF6FF71C0E90241046184610320CDE992
:102A800000040120CDE902040494CDE90540079437
:102A9000694609480894FFF7B1F808B1FDF7AAFDA7
:102AA000099409A904480A94FEF74EFF002801D0B2
:102AB000FDF7A0FD0CB010BD1C0100200C4810B5A6
:102AC0000A4901604FF416514160002181600C22D7
:102AD000C160C0E904128161C161FFF76FFC002889
:102AE00003D0BDE81040FDF785BD10BD0048004093
:102AF00064010020FEE7FEE770B5002404F1B00099
:102B0000C0B200F0BDF8002000F0BAF8102000F0CC
:102B1000B7F80025002000F0C5F86D1CEDB2802D3F
:102B2000F8D3641CE4B2082CE8D370BD70B5C8209B
:102B3000FEF754F8044D0024285D00F0A1F8641C51
:102B4000E4B2172CF8D370BD2800002010B504465D
:102B5000B031C8B200F094F8102040EA141000F030
:102B60008FF804F00F00BDE8104000F089B80000B5
:102B70002DE9F047203A0024089E0F468146D5B241
:102B80007F2803D900208F1C8146FFB2102B3946C5
:102B900012D0FFF7DBFF1B4905EB450001EB4005B9
:102BA000285D0EB1C043C0B200F07CF8641CE4B2F2
:102BB000062CF5D3BDE8F087FFF7C8FFDFF84880A3
:102BC00004EB051118F801000EB1C043C0B200F0CB
:102BD00069F8641CE4B2082CF2D37F1CF9B24846B1
:102BE000FFF7B4FF0024474604EB05103844007A91
:102BF0000EB1C043C0B200F055F8641CE4B2082C1A
:102C0000F2D3D7E77C3B0008A43D00082DE9FF4F35
:102C100081B00026DDE90EA91D4693468046344664
:102C20004FEA5A0727E0281B401EC1B20A2000F0D5
:102C3000CFFCBBFBF0F00A21B0FBF1F201FB12006C
:102C400026B9691E8C4201DA48B101263030C2B281
:102C500007FB0480C0B25346CDF8009006E007FBA6
:102C60000480C0B253462022CDF800900299FFF7AD
:102C70007FFF641CE4B2AC42D5D305B0BDE8F08F51
:102C800001B584B001214FF4807204A88DE80700DB
:102C90000B46002278210248FEF77AF905B000BD04
:102CA0008000002001B584B001214FF4807204A897
:102CB0008DE807000B46402278210248FEF768F9AC
:102CC00005B000BD8000002070477047FEF730BAA5
:102CD00030B593B028216846FDF73FFB14210AA8C0
:102CE000FDF73BFB002501200F9510951195010480
:102CF00012958DE8230004904FF4E010CDE9081000
:102D0000022407946846FEF74FFC08B172B6FEE74E
:102D10000AA90F2081E831004FF48060CDE90D054C
:102D200002210AA8FEF764FB08B172B6FEE74FF471
:102D3000004011900F940FA8FEF7E4FA002801D08C
:102D400072B6FEE713B030BD704700000148FFF7D0
:102D50001FB80000D40000200148FFF719B8000098
:102D6000D40000200148FFF713B80000D400002071
:102D70000148FFF70DB80000D40000200148FFF71C
:102D800007B800001C010020F0B50268164B174C74
:102D9000174D4FF08047984205D0B84203D0A0426B
:102DA00001D0A84203D122F070064A68324398420B
:102DB00005D0B84203D0A04201D0A84203D122F4EA
:102DC0004074CA6822434C6922F0800222430260A8
:102DD0008A68C2620A688262984201D10969016305
:102DE00001214161F0BD0000002C014000040040C1
:102DF0000008004010B501F01F030121046A99404A
:102E00008C430462016A9A401143016210BD10B5FF
:102E1000846842EA032224F47F440A432243826006
:102E200010BD826822F070020A4342F007018160FF
:102E30007047000030B5036A026A22F001020262A4
:102E40004268846924F073050C682C4323F0020562
:102E50008B682B430A4DA8420BD123F00805CB68A1
:102E600022F440722B434D6923F0040315438A6911
:102E70002A434260846149684163036230BD0000B7
:102E8000002C014030B5026A036A23F0100303628C
:102E9000436884690D6824F4E64444EA05248D6897
:102EA00022F0200242EA05120B4DA8420ED1CD6855
:102EB00022F0800242EA05124D6923F4406343EA9E
:102EC00085038D6922F0400243EA850343608461F3
:102ED00049688163026230BD002C014030B5036A4D
:102EE000026A22F4807202624268C46923F40073A9
:102EF00024F073050C682C438D6843EA05230C4DC0
:102F0000A8420ED1CD6823F4006343EA05234D693E
:102F100022F4405242EA05128D6923F4806342EAAA
:102F200005124260C4614968C163036230BD00009C
:102F3000002C014030B5046A026A22F48052026219
:102F40004268C3690D6823F4E64343EA05238D68AC
:102F500024F4005444EA0534064DA84204D14D69D6
:102F600022F4804242EA85124260C36149680164EA
:102F7000046230BD002C014010B5036A046A24F0DD
:102F800001040462846924F0F00444EA021423F08A
:102F90000A020A438461026210BD10B5036A046A22
:102FA00024F010040462846923F0A00324F4704424
:102FB00044EA023243EA01118261016210BD10B598
:102FC000406A0021C185C184FFF7C0F810BD0168C7
:102FD0000C3151E8002F22F4907241E80023002BBD
:102FE000F5D10168143151E8002F22F0010241E8C7
:102FF0000023002BF5D1016B012909D101680C31A7
:1030000051E8002F22F0100241E80023002BF5D1F7
:10301000202180F8421000210163704708B590F824
:103020004210222901D0022008BD82684FF480534B
:103030009A4201D1016921B1816A9A421BD04AB1F9
:103040000AE00268816A5268C2F308020A80816A53
:10305000891C08E0026972B10268526802F07F02BE
:103060000A70816A491C8162C18D491E0904090CDC
:10307000C18503D01BE002685268F1E70168CA68A5
:1030800022F02002CA600168CA6822F48072CA6015
:1030900001684A6922F001024A61202180F8421049
:1030A00000214163026B012A03D0FFF707FA0020D9
:1030B00008BD016301680C3151E8002F22F01002B5
:1030C00041E80023002BF5D101680A68D20602D539
:1030D0000A6849680091818DFFF737F8E7E700003B
:1030E00070B5044600680169E26821F4405111435B
:1030F00001612169A0680843616908432168CA68C1
:1031000041F20C639A430243CA6020684169A26994
:1031100021F44071114341611E492068884202D167
:10312000FEF70CFA01E0FEF7F9F900EBC00101EB44
:103130000012606864218000B2FBF0F3B3FBF1F38E
:103140006FF018067343B2FBF0F5B2FBF0F605EB37
:103150008305322303EB0515B5FBF1F5B6FBF1F65C
:1031600005F0F00505EB0615B2FBF0F6B2FBF0F04A
:10317000B0FBF1F06FF01802504306EB800003EB58
:103180000010B0FBF1F0216800F00F0028448860C7
:1031900070BD00000038014081628285C285002137
:1031A0004164222180F84210016921B10168CA6896
:1031B00042F48072CA6001684A6942F001024A61C1
:1031C0000068C16841F02001C160002070472DE90E
:1031D000F041984617460E460446069D27E0681CB7
:1031E00025D02DB1FDF70AFEA0EB0800A8421ED99C
:1031F00020680C3050E8001F21F4D07140E8001224
:10320000002AF5D12068143050E8001F21F0010198
:1032100040E80012002AF5D1202084F8410084F80B
:103220004200002084F840000320BDE8F0812068BF
:10323000006836EA000004D00020B842CFD0002059
:10324000F3E70120F9E700000148FEF781BF000025
:1032500064010020FEE70907090E002804DB00F1E5
:10326000E02080F80014704700F00F0000F1E0202B
:1032700080F8141D7047000010B50446FDF7DEFB12
:103280002046FDF7A6FA00F0E5F94FF06632054B4F
:1032900000F0F8F96FF00B0200F00CFCBDE81040F4
:1032A00000F09EB966660A4086B0FDF749FFFFF759
:1032B0000FFDFFF7F5FAFFF7CBFAFFF767FBFFF714
:1032C00045FBFFF7FBFBFFF7C5FBFFF72FFCFFF705
:1032D00013FCAC48FEF7F8FBAA48FEF7CDFB002133
:1032E000A848FEF7C5FEA848FDF7A8FBA648FDF7CD
:1032F00083F90122A549A648FFF7D2F83C21A54849
:10330000FEF7FEFCA34947F2305009684862DFF837
:103310008882A24CDFF888A2102649F2704B4FF049
:1033200001099948FFF7A8FF9E4900F0C5FA00F08F
:10333000A7FACDE90069024600214D460A23084656
:10334000FFF764FCCDE90065062347460221002013
:10335000D8F80020FFF75AFCCDE9006506230421C8
:1033600000202269FFF752FCCDE9006506231946CB
:1033700000206269FFF74AFC8348FFF77DFF8A4916
:1033800000F09AFA00F07CFAA0603968594500DD37
:10339000256145F6C052914200DA6561A1F5E2412E
:1033A00040F2CF724939914202D20021216161611C
:1033B0007E4D21682A68114363D1616879BB411E43
:1033C0009F2910D2E16800290DDDA0290BDA401AEF
:1033D00057D56069E0BB764F012211033846FDF7EF
:1033E00007FD002211E0AA2856DDE168AA2953DD75
:1033F000401A002845DD206950BB6D4F00224FF474
:1034000080513846FDF7F4FC01224FF40051384654
:10341000FDF7EEFC5B4942F21C50096848636068A6
:1034200001282ED1A168A1F11F00952811D2E068D2
:103430001E280EDDB4280CDA081A22D55C4F0122B2
:1034400011033846FDF7D4FC00227914384611E008
:1034500017E0B42920DDE068B4281DDD081A002833
:1034600005DD00224FF480515148FDF7C1FC0122D7
:1034700051034F48FDF7BCFC4FF4FA60414909681D
:103480004863A068E0609AF800005746032867D3B5
:103490004848017811B163E00020EFE74178002946
:1034A0005ED14448807888B92068012852D1010350
:1034B00000223F48FDF79CFC012251033C48FDF7E8
:1034C00097FC304941F28830096848633948807870
:1034D000012812D1206801283CD10103012234487F
:1034E000FDF786FC00224FF400513148FDF780FCC7
:1034F000244941F28830096848632E4880780228C0
:1035000010D1286898B100222BA168462A60FCF7E8
:103510005FFE6846FCF7E0FE82B2322369461C4833
:10352000FEF7DEFF23488078032802D012E0012254
:10353000EAE7206820B3002222A168462260FCF757
:1035400047FE6846FCF7C8FE82B23223694610483F
:10355000FEF7C6FF002038701E211648FCF7DBFE80
:10356000286801287FF4DDAE114D010300222846B2
:10357000FDF73EFC002269142846FDF739FCD0E631
:103580000122D9E7D4000020500000204000002094
:10359000640100201C0100204800002000000020E1
:1035A0004100002000401C460000C8424C000020A2
:1035B000000C0140AC01002073746F703D25640D58
:1035C0000A000000696E69743D25640D0A00000060
:1035D0000246012000E05043491EC9B2FBD27047A9
:1035E00021F00042A2F16052B2F5801F01F00043C9
:1035F00028BFD2F17F6C0BD95FEA001C43EAC202FC
:1036000042EB507018BF704728BF20F00100704790
:10361000B2F5801FBCBF184670474FEA410C1CF53D
:10362000001F02D2084600F00EBA70B500F0D4F8C0
:1036300000000089FFF7F6BF4FF00040A0F58000C2
:103640007047000002494FF0000000F001BA00BFCF
:103650000000F87F10F0004248BF4042B0FA80F30B
:1036600010FA03F10AD0C3F11D0303F580634FEA9A
:10367000415002EB035202EBD12170474FF00000A2
:1036800070470000DFF848C170B51CEA111E1EBF6C
:103690001CEA13159EEA0C0F95EA0C0F00F06F80E0
:1036A00081EA030423EA4C134EEAD47E21EA4C114A
:1036B00041F4801143F48013AE44A1FB024CA0FB03
:1036C0000365AEF17F7E361955EB0C05A1FB034C6B
:1036D0004CF10003A0FB021C16EB0C06654153F1F4
:1036E0000003094218BF46F0010613F4007F0BD116
:1036F0004FEA03314FEA0530340341EA155140EAFD
:1037000016506FF003020AE04FEAC3214FEAC520CA
:10371000F40241EA555140EA56506FF0020202EBC2
:103720002E4201EB025585EACE710AD05FEA440CC5
:1037300018BF24F0004450F1000041F1000120EADC
:10374000D47040F2FE7C624500D270BDA84214BF26
:103750004FF080444FF04044002E08BF0024BEF1DB
:10376000806FA8BFA1F1C041BDE8704080F28280A7
:103770004FF0000001F1C04101F0004170479EEAA6
:103780000C0F0CEA131518BF95EA0C0F06D04FF07A
:10379000000081EA030E0EF0004170BD00F01CF83D
:1037A0008900013E00F007B800F009B84FEA430C69
:1037B0005FEA5C5C08D081EA030100F05BB84FEA85
:1037C000410C5FEA5C5CF6D14FF0000001497047A4
:1037D0000000FF070000F87F0EF1020E2EF0030E2E
:1037E0005EF8046B364205D4012A43EB030515F558
:1037F000001F12D8012841EB010C1CF5001F0CD84A
:103800000ED14FEAD17C15F5001F0CEB4C0C0CF1DE
:10381000020C08BF4CEBD37C04E04FF0080C01E035
:103820004FEAD37C0CEB4C0526FA05F606F00706AA
:10383000B6F1040C06D20EEB860CBDE870404CF0DD
:10384000010C6047DFE80CF0090B02024FF0004169
:103850004FF00000A1F5002170BD19461046012867
:1038600051EB010418BFD4F5001484BF002001F00F
:10387000004170BD0808A0F500114FEA3101704702
:1038800041000B0ED3F19E0208D950F400034FEA19
:10389000032323FA02F048BF4042704710B500F0FE
:1038A0008CF800BF49922480002070476FF00042DE
:1038B00082EA2000704700004FF47F0C1CEAD0120F
:1038C0001EBF1CEAD11392EA0C0F93EA0C0F00F012
:1038D000478090EA010F48BF42F480724FF0004CDD
:1038E0004CEA00204CEA012102EB0302A0FB011389
:1038F000A2F50002002918BF43F001035B0028BFB6
:103900004FEA330342EB22425FEA132C4CEBC250E6
:103910002EBFBCEB436FB2F57C0F70474FEA036CD0
:10392000BCF1004F08BF20F00100B2F57C0F38BF9A
:1039300070470BD582F0FF0212F5803FC8BF704779
:1039400000F1C040D8BF00F00040704700F5000C07
:103950005FEA4C0C48BF7047B0F1C04000F073B84C
:1039600090EA010F0CEAD11348BF42F4807262451D
:1039700038BF634504D280EA010000F00040704780
:1039800010B500F01AF800BF8900013E00F007B83A
:1039900000F009B85FEA410C5FEA1C6C08D080EACD
:1039A000010000F050B85FEA400C5FEA1C6CF6D1F1
:1039B0004FF00040A0F5800070470EF1020E2EF08F
:1039C000030E5EF8044B244204D44FEA4102B2F1E4
:1039D0007F4F11D84FEA4003B3F17F4F0CD80ED17F
:1039E0004FEAD07CB2F17F4F0CEB4C0C0CF1020C87
:1039F00008BF4CEBD17C04E04FF0080C01E04FEA2B
:103A0000D17C0CEB4C0324FA03F404F00704B4F16A
:103A1000040C06D20EEB840CBDE810404CF0010CF7
:103A20006047DFE80CF0070802024FF00040A0F505
:103A3000800010BD0846420018BFD2F1807288BFD6
:103A400000F0004010BDFF2141EAD050C005704792
:103A50000CF00F03092B08BF082000F059800A2B37
:103A60000BD0082B18BF704708BF1CF0400F0AD0BE
:103A70004FF000004FF0000170471CF0400F18BFDE
:103A80004FF0004070471CF0100F08D020F070433A
:103A900000F07F4242EAD3014FEA4370704700F0E2
:103AA000604021F07F4242EA000201F07F4040EA9C
:103AB000727070474FF0FF0C4CF4E06C1CEA11532D
:103AC0001CBF9CEA030C9445C2BFDA4201EB0251D1
:103AD0007047002B0DD0BCF1000F0FD0002A01F071
:103AE0000041A4BF41F0E04141F07F614FF0000090
:103AF000704701F000414FF00000704750EA013379
:103B00004FF09B0C18BF4CF0806C7FF49BAD70475E
:103B10001CF4801F11D01CF4E02F03D06FEACC31CD
:103B2000490070474FF04050EFF3008222F070429E
:103B300042EA000282F3008870474FF000007047AD
:103B4000010202030405060708090A0B0C0D0E0FFB
:103B50001010010202030405060708090A0B0C0DE8
:103B60000E0F10100000000000000000010203040E
:103B7000060708090000000001020304000000001D
:103B800000000000002F00000000070007000014E4
:103B90007F147F1400242A7F2A12006264081323F2
:103BA00000364955225000000503000000001C2289
:103BB0004100000041221C000014083E08140008C7
:103BC000083E0808000000A0600000080808080877
:103BD000000060600000002010080402003E51490F
:103BE000453E0000427F40000042615149460021AD
:103BF00041454B31001814127F10002745454539C7
:103C0000003C4A4949300001710905030036494921
:103C1000493600064949291E0000363600000000DA
:103C20005636000000081422410000141414141425
:103C300000004122140800020151090600324959CE
:103C4000513E007C1211127C007F49494936003EEA
:103C500041414122007F4141221C007F49494941A5
:103C6000007F09090901003E4149497A007F08089F
:103C7000087F0000417F4100002040413F01007F5C
:103C800008142241007F40404040007F020C027F28
:103C9000007F0408107F003E4141413E007F09093A
:103CA0000906003E4151215E007F09192946004660
:103CB000494949310001017F0101003F4040403F37
:103CC000001F2040201F003F4038403F0063140881
:103CD000146300070870080700615149454300005C
:103CE0007F41410000552A552A55000041417F007F
:103CF0000004020102040040404040400000010274
:103D00000400002054545478007F4844443800385C
:103D10004444442000384444487F003854545418E4
:103D200000087E0901020018A4A4A47C007F0804F6
:103D300004780000447D4000004080847D00007FC6
:103D4000102844000000417F4000007C04180478E3
:103D5000007C0804047800384444443800FC2424DF
:103D600024180018242418FC007C080404080048C7
:103D70005454542000043F444020003C4040207CE8
:103D8000001C2040201C003C4030403C00442810D7
:103D90002844001CA0A0A07C004464544C4414148B
:103DA00014141414000000000000000000000000C3
:103DB00000000000000000F80000000000000033D8
:103DC0003000000000100C06100C0600000000007F
:103DD0000000000040C07840C0784000043F040468
:103DE0003F040400007088FC08300000001820FF29
:103DF000211E0000F008F000E018000000211C0364
:103E00001E211E0000F00888700000001E212324DF
:103E10001927211010160E000000000000000000FD
:103E200000000000000000E018040200000000078D
:103E30001820400000020418E00000000040201894
:103E400007000000404080F0804040000202010F67
:103E500001020200000000F0000000000101011F4B
:103E600001010100000000000000000080B07000AF
:103E7000000000000000000000000000000101013F
:103E800001010101000000000000000000303000CE
:103E900000000000000000008060180400601806A8
:103EA0000100000000E010080810E000000F1020E2
:103EB00020100F00001010F8000000000020203F2C
:103EC00020200000007008080888700000302824B6
:103ED0002221300000300888884830000018202057
:103EE00020110E000000C02010F80000000704247C
:103EF000243F240000F808888808080000192120C1
:103F000020110E0000E0108888180000000F11201A
:103F100020110E0000380808C83808000000003FD3
:103F2000000000000070880808887000001C222132
:103F300021221C0000E010080810E00000003122DF
:103F400022110F00000000C0C0000000000000307F
:103F500030000000000000800000000000008060D1
:103F60000000000000008040201008000001020452
:103F70000810200040404040404040000404040439
:103F800004040400000810204080000000201008F5
:103F900004020100007048080808F000000000302A
:103FA00036010000C030C828E810E00007182724B8
:103FB00023140B000000C038E0000000203C230266
:103FC0000227382008F8888888700000203F2020C9
:103FD00020110E00C03008080808380007182020FB
:103FE0002010080008F808080810E000203F2020F2
:103FF00020100F0008F88888E8081000203F2020D3
:104000002320180008F88888E8081000203F2000C6
:1040100003000000C03008080838000007182020FE
:10402000221E020008F808000008F808203F2101BD
:1040300001213F20000808F8080800000020203F68
:104040002020000000000808F8080800C0808080D8
:104050007F00000008F888C028180800203F2001D1
:104060002638200008F8080000000000203F20202B
:104070002020300008F8F800F8F80800203F003F42
:10408000003F200008F830C00008F808203F20005A
:1040900007183F00E01008080810E0000F1020206B
:1040A00020100F0008F808080808F000203F210140
:1040B00001010000E01008080810E0000F18242497
:1040C00038504F0008F8888888887000203F20000A
:1040D000030C3020007088080808380000382021C0
:1040E00021221C00180808F8080818000000203FCA
:1040F0002000000008F808000008F808001F202031
:1041000020201F000878880000C838080000073801
:104110000E010000F80800F80008F800033C070052
:10412000073C0300081868808068180820302C03BA
:10413000032C30200838C800C83808000000203F91
:104140002000000010080808C83808002038262180
:1041500020201800000000FE020202000000007F84
:1041600040404000000C30C0000000000000000192
:104170000638C00000020202FE000000004040407D
:104180007F000000000004020202040000000000A2
:10419000000000000000000000000000808080801F
:1041A0008080808000020204000000000000000007
:1041B00000000000000080808080000000192422A0
:1041C00022223F2008F8008080000000003F1120DC
:1041D00020110E000000008080800000000E1120E1
:1041E00020201100000000808088F800000E1120BF
:1041F00020103F200000808080800000001F2222CD
:1042000022221300008080F0888888180020203F38
:10421000202000000000808080808000006B94944B
:104220009493600008F8008080800000203F210007
:1042300000203F2000809898000000000020203FD0
:1042400020200000000000809898000000C08080BE
:10425000807F000008F8000080808000203F24025A
:104260002D302000000808F8000000000020203F4A
:10427000202000008080808080808000203F2000FF
:104280003F20003F8080008080800000203F210090
:1042900000203F200000808080800000001F202040
:1042A00020201F00808000808000000080FFA1206F
:1042B00020110E000000008080808000000E112080
:1042C00020A0FF80808080008080800020203F210F
:1042D00020000100000080808080800000332424C2
:1042E00024241900008080E0808000000000001F6E
:1042F000202000008080000000808000001F20201F
:1043000020103F20808080000080808000010E30DF
:104310000806010080800080008080800F300C0340
:104320000C300F0000808000808080000020312E43
:104330000E312000808080000080808080818E701F
:104340001806010000808080808080000021302CD1
:104350002221300000000000807C020200000000EA
:10436000003F40400002027C800000000040403FCF
:104370000000000000000000FF000000000000003E
:10438000FF000000A44300080000002050000000CF
:1043900028010008F443000850000020E007000056
:1043A00044010008010000000000000000000000BF
:1043B00000000000000000000000000001000000FC
:1043C00010000000000000000024F400AED580A81A
:1043D0003FD30040A1C8DA1281CFD9F1DB40A4A6B7
:1043E0008D14AF000000000000000000020000007B
:0443F00000000000C9
:04000005080000ED02
:00000001FF
