:020000040800F2
:10000000C80B0020890100087B2400082F1E00086F
:1000100079240008D3020008692B000800000000C2
:100020000000000000000000000000004F26000853
:10003000D5020008000000004D26000851260008E7
:10004000A3010008A3010008A3010008A301000800
:10005000A3010008A3010008A3010008A3010008F0
:10006000A3010008A3010008A3010008A3010008E0
:10007000A3010008A3010008A3010008A3010008D0
:10008000A3010008A3010008A3010008A3010008C0
:10009000A3010008A3010008A3010008A3010008B0
:1000A000B5260008D9260008CD260008C12600087C
:1000B000E5260008F1260008FD260008A301000837
:1000C000A3010008A3010008A3010008A301000880
:1000D000A3010008A3010008512B00085D2B0008B4
:1000E000A3010008A3010008A301000800F002F822
:1000F00000F03AF80AA090E8000C82448344AAF188
:100100000107DA4501D100F02FF8AFF2090EBAE885
:100110000F0013F0010F18BFFB1A43F0010318473B
:10012000A43A0000C43A0000103A24BF78C878C14D
:10013000FAD8520724BF30C830C144BF04680C60ED
:10014000704700000023002400250026103A28BF35
:1001500078C1FBD8520728BF30C148BF0B60704739
:100160001FB51FBD10B510BD00F07AF81146FFF79E
:10017000F7FF02F0D5FD00F098F803B4FFF7F2FFA7
:1001800003BC00F09FF80000094880470948004779
:10019000FEE7FEE7FEE7FEE7FEE7FEE7FEE7FEE737
:1001A000FEE7FEE704480549054A064B7047000094
:1001B000B3260008ED000008C8050020C80B002089
:1001C000C8070020C80700204FF000020429C0F033
:1001D000128010F0030C00F01B80CCF1040CBCF179
:1001E000020F18BF00F8012BA8BF20F8022BA1EBCB
:1001F0000C0100F00DB85FEAC17C24BF00F8012BB0
:1002000000F8012B48BF00F8012B70474FF00002A7
:1002100000B5134694469646203922BFA0E80C50FC
:10022000A0E80C50B1F12001BFF4F7AF090728BFD7
:10023000A0E80C5048BF0CC05DF804EB890028BF53
:1002400040F8042B08BF704748BF20F8022B11F07C
:10025000804F18BF00F8012B7047704770477047F8
:10026000754600F02BF8AE4605006946534620F06F
:100270000700854618B020B5FFF794FFBDE8204081
:100280004FF000064FF000074FF000084FF0000B52
:1002900021F00701AC46ACE8C009ACE8C009ACE805
:1002A000C009ACE8C0098D46704710B50446AFF3ED
:1002B00000802046BDE81040FFF75FBF0048704750
:1002C0006405002001491820ABBEFEE726000200AD
:1002D0007047FEE7704772B6FEE710B590F8211040
:1002E0000022022905D00421816380F8202001200A
:1002F00010BD01680B6823F00E030B6001680B68EA
:1003000023F001030B6090F84030C46B012101FA27
:1003100003F3636080F8211080F82020104610BDA0
:1003200010B590F821100024022903D00421816324
:1003300001243DE001680A6822F00E020A600168AB
:100340000A6822F001020A601A4A0168914201D14A
:10035000012121E0174A1432914201D110211BE002
:10036000144A2832914201D1891515E0114A3C32D4
:10037000914201D189140FE00E4A5032914202D1CC
:100380004FF4803108E00B4A6432914202D14FF4BD
:10039000801101E04FF08071064A083A5160012156
:1003A00080F82110002180F82010416B01B18847AE
:1003B000204610BD0800024070B5044600F00CF95C
:1003C0000546601C02D004480078044400F004F99B
:1003D000401BA042FAD370BD000000202DE9F84F69
:1003E000DFF8B8910024A9F1040B23460F2709F187
:1003F000040AABF1040EC9E00125A5402A40AA4237
:100400007DD1674ED1F804C0ACEB0608B44532D0BC
:1004100014DCBCF1030F3AD009DCBCF1000F2AD088
:10042000BCF1010F1CD0BCF1020F31D11DE0BCF1B9
:10043000110F17D0BCF1120F2AD119E0B8F5881F9F
:1004400019D006DCB8F5803F15D0B8F5801F1FD154
:1004500011E0B8F5001F0ED0B8F5041F18D10AE05E
:10046000CB6815E0CB681B1D12E0CB6808330FE0AA
:10047000CB680C330CE08B682BB1012B4FF00803D9
:1004800003D0456104E0042302E0056100E000239D
:10049000FF2A01D8064601E000F104064FEA840570
:1004A00001D9A5F12005D6F8008007FA05FC28EA55
:1004B0000C0803FA05F548EA0508C6F800804D68FF
:1004C000ED0062D5374DAE6946F00106AE61AD690B
:1004D00024F0030605F001050095334D06EB050CED
:1004E000DCF80850A607360F07FA06F825EA0805D3
:1004F000DFF8B880404503D14FF0000817E044E032
:10050000DFF8AC80404502D14FF001080FE0DFF882
:10051000A480404502D14FF0020808E0DFF898803F
:10052000404502D14FF0030801E04FF0040808FAFB
:1005300006F848EA0508CCF808804D68D9F800604C
:10054000ED024D4601D5164300E096432E604D68FE
:10055000DAF80060AD02554601D5164300E0964337
:100560002E604D68DBF80060AD035D4601D5164393
:1005700000E096432E604D68DEF80060ED0375469E
:1005800001D5164300E096432E60641C0D682A4690
:10059000E5407FF431AFBDE8F88F0000080401406A
:1005A000000011100010024000000140000801404E
:1005B000000C01400010014000140140C26821EA13
:1005C00002030A4043EA0241016170470AB1016136
:1005D00070470904FBE7000001488068704700008D
:1005E0000000002070B5040025D094F83D000025DF
:1005F00020B984F83C50204600F050F9242084F8BB
:100600003D002068016821F0010101602068016857
:1006100041F4004101602068016821F4004101605B
:1006200000F0A2FA4D4A6168914201D84C4900E0BD
:100630004C49884201D2012070BD4B492368B0FB70
:10064000F1F15E6826F03F060E435E6063689342F8
:1006500006D94FF4967359434FF47A73B1FBF3F113
:100660002368491C1E6A26F03F06314319626168FF
:10067000914210D84900401EB0FBF1F2521CC2F367
:100680000B02042A01D2042022E0B0FBF1F0401C4E
:10069000C0F30B001CE0A268F2B301EBC10303EB53
:1006A0000116431EB3FBF6F35B1C43F480431B05AA
:1006B00049D092B301EBC10202EB0111401EB0FB25
:1006C000F1F0401CC0F30B0040F4804040F40040C7
:1006D0002168CA694CF6FF739A431043C861D4E994
:1006E000071001432068026822F0C0021143016034
:1006F000D4E9030101432068826848F2FF339A433A
:1007000011438160D4E9050108432168CA6822F0D9
:10071000FF021043C86001E00EE016E020680168A7
:1007200041F0010101602564202084F83D0025632B
:1007300084F83E50002070BD01EB4106431EB3FB20
:10074000F6F35B1CB3E70120C2E701EB4101401E59
:10075000B0FBF1F0401CC0F30B00B7E7A08601002E
:1007600080841E0000093D0040420F002DE9FF4F2C
:1007700083B09A46DDE9119793460446DDF8408040
:10078000FFF72AFF054694F83D0020287FD1192362
:10079000012240492046009501F0E2FB002876D175
:1007A00094F83C00012872D0012084F83C002068B5
:1007B0000168C90703D1016841F0010101602068A7
:1007C000016821F400610160212084F83D0040208F
:1007D00084F83E0000262664C4F82480A4F82A90F9
:1007E000608D20852C48E062CDE9007553465A465D
:1007F0002046049901F034FB70B930E02A463946AE
:10080000204601F053FC58B1206C042804D1206824
:10081000016841F400710160012007B0BDE8F08F6C
:10082000606A216800780861606A401C6062218DFE
:10083000491E89B22185628D521E628522685369E4
:10084000DB435B070BD469B100781061606A401C20
:100850006062208D401E2085608D401E6085208D49
:100860000028CBD12A463946204601F04DFB00280E
:10087000CAD154F83D0B016841F400710160202099
:1008800004F81E09E67766770020C6E7FFE7022036
:10089000C3E70000020010000000FFFF10B586B0A3
:1008A000002100910191029103910068134988424F
:1008B00022D1134CA06940F00800A061A0696946EC
:1008C00000F0080004904FF4407000901220019056
:1008D000032003900B48FFF781FD0B48416841F06E
:1008E000E06141F002014160E06940F40010E06124
:1008F000E06900F40010049006B010BD0054004000
:1009000000100240000C01400000014002488168D4
:10091000027811448160704700000020074810B53C
:10092000016841F010010160032000F075F80F200C
:1009300000F006F800F024F8002010BD002002406E
:1009400070B50D4D04464FF47A712878B1FBF0F084
:100950000A490968B1FBF0F000F0DCFA48B9102C44
:1009600007D200222146501E00F036F800206C60AD
:1009700070BD012070BD0000000000200C000020B0
:100980000C4808B5816941F001018161816901F07C
:1009900001010091C16941F08051C161C06900F05D
:1009A000805000900448416821F0E06141F00071FE
:1009B000416008BD0010024000000140002809DB32
:1009C00000F01F02012191404009800000F1E02069
:1009D000C0F8001170470000F0B40E4B1B680C46C5
:1009E000C3F30223C3F10705042D00D90425191D03
:1009F000072901D2002300E0DB1E012606FA05F1DB
:100A0000491E214099409E40761E16403143F0BC5D
:100A100002F04AB90CED00E0064900F00702086850
:100A20004FF6FF03184040EA0220034A10430860D3
:100A3000704700000CED00E00000FA052DE9F047DA
:100A40000F46050061D0434E306800F00700B84201
:100A500009D2306820F0070038433060306800F079
:100A60000700B84251D128683B4C810712D5400796
:100A700003D5606840F4E06060602878000703D523
:100A8000606840F4605060606068A96820F0F00021
:100A9000084360602878C00728D06868012810D013
:100AA0002168022810D0890700292EDA616821F018
:100AB000030101436160FFF78FFD804641F28839F1
:100AC0000DE021688903EFE78901EDE7FFF784FD79
:100AD000A0EB0801494502D90320BDE8F087606812
:100AE000696800F00C00B0EB810FEFD1306800F0C6
:100AF0000700B8420BD9306820F007003843306057
:100B0000306800F00700B84201D00120E5E72878FE
:100B1000400705D56068E96820F4E060084360603C
:100B20002878000706D56068296920F4605040EAFB
:100B3000C100606000F038F86168084AC1F3031131
:100B4000515CC8400649086006480068FFF7F8FE97
:100B50000020C2E70020024000100240A433000839
:100B60000C00002004000020044805490068496882
:100B7000044AC1F30221515CC84070470C000020B8
:100B800000100240B4330008044805490068496871
:100B9000044AC1F3C221515CC84070470C000020D8
:100BA00000100240B43300080E4A51680E4801F0AC
:100BB0000C03042B11D0082B0FD10C48C1F3834335
:100BC000C903C05C0AD55168084AC1F34041921E6E
:100BD000515C054A5043B0FBF1F07047044948436B
:100BE000704700000010024000127A0094330008A1
:100BF00000093D002DE9F84F040070D02078C04D69
:100C0000C00749D06868C0F38100012807D0686830
:100C1000C0F38100022809D16868C00306D528689E
:100C2000800339D560680028E7D035E06068B0F50A
:100C3000803F0BD010B1B0F5A02F11D0286820F460
:100C400080302860286820F4802002E0286840F482
:100C500080302860606890B1FFF7BEFC06460AE06D
:100C6000286840F480202860F0E700BFFFF7B4FC5C
:100C7000801B642873D828688003F7D50CE0FFF741
:100C8000ABFC064605E000BFFFF7A6FC801B64280E
:100C9000F0D828688003F7D420789A4E80074FF068
:100CA00001094FF0000839D5686810F00C0F07D023
:100CB0006868C0F38100022809D16868C00306D4BF
:100CC0002868800714D52069012808D110E0206920
:100CD000B0B1C6F80090FFF77FFC074605E00AE1D7
:100CE000FFF77AFCC01B0228C4D828688007F7D514
:100CF0002868616920F0F80040EAC10028600DE032
:100D0000C6F80080FFF768FC074604E0FFF764FCC4
:100D1000C01B022823D828688007F7D42078000752
:100D20002CD57948A169D9B1C0F80090FFF754FCDF
:100D3000074604E0FFF750FCC01B02280FD8686A82
:100D40008007F7D571484FF4FA510068B0FBF1F015
:100D5000009000BF0098411E0091FAD20EE080E0A2
:100D6000C0F80080FFF738FC074604E0FFF734FCCA
:100D7000C01B022875D8686A8007F7D4207840071E
:100D800060D5E8690027C00008D4E86940F08050C9
:100D9000E861E869012700F0805000905C48016834
:100DA000C90513D40168834641F480710160FFF7DF
:100DB00013FC824606E000BFFFF70EFCA0EB0A0022
:100DC00064284ED8DBF80000C005F5D5E06801289E
:100DD0000AD008B1052813D0286A20F00100286243
:100DE000286A20F0040002E0286A40F0010028622E
:100DF000E06841F2883B98B1FFF7EEFB82460BE0DA
:100E0000286A40F004002862EEE700BFFFF7E4FB29
:100E1000A0EB0A0159455AD8286A8007F6D50CE09C
:100E2000FFF7DAFB824605E0FFF7D6FBA0EB0A01ED
:100E300059454CD8286A8007F6D41FB1E86920F0DC
:100E40008050E861E06988B36968C1F381010229D3
:100E500044D00228C6F8608004D0FFF7BDFB0446EA
:100E600038E034E0FFF7B8FB074604E0FFF7B4FBD7
:100E7000C01B02282BD828688001F7D4206AB0F55F
:100E8000803F05D16868A16820F40030084368609D
:100E9000D4E908010843696821F4741108436860C3
:100EA000C6F86090FFF798FB044606E025E000BF17
:100EB000FFF792FB001B022809D828688001F7D5AC
:100EC0001BE000BFFFF788FB001B022802D90320AC
:100ED000BDE8F88F28688001F4D40EE00128F7D02F
:100EE0006868226A00F48031914204D1616A00F49A
:100EF0007010884201D00120EAE70020E8E70000F6
:100F00000010024000004242800442420C000020D7
:100F10000070004010B5401EB0F1807F01D3012069
:100F200010BD4FF0E02460610F21601701F0BCFE9E
:100F30000020A06107202061002010BD704770478D
:100F400010B590F83C20012A22D0012280F83C20E4
:100F5000CA688C6822F4407222434C6822F4806292
:100F600022430C6822F4006222430C6922F480526E
:100F700022434C6922F400522243C969002322F41F
:100F800080420A4301684A6480F83C30002010BD6A
:100F9000022010BD70B590F83C20012A26D0012413
:100FA00080F83C40022280F83D2003685A689D6822
:100FB00022F070060A6832435A600D4B02689A426A
:100FC00008D0B2F1804F05D00A4B9A4202D00A4BAA
:100FD0009A4204D1496825F080031943916080F852
:100FE0003D40002180F83C10084670BD022070BDD5
:100FF000002C0140000400400008004010B504002F
:1010000003D094F83D0010B107E0012010BD00208E
:1010100084F83C00204600F01FF8022084F83D00D0
:10102000211D206801F070FB012084F8460084F83F
:101030003E0084F83F0084F8400084F8410084F8C2
:10104000420084F8430084F8440084F8450084F8A2
:101050003D00002010BD000008B52A4A01682A485A
:10106000914226D1816941F4006181618069002249
:1010700000F40060009011461820FFF7ADFC182026
:10108000FFF79CFC002211461920FFF7A5FC192050
:10109000FFF794FC002211461A20FFF79DFC1A204E
:1010A000FFF78CFC002211461B20FFF795FC1B204C
:1010B00022E0164A91420ED1C16941F00201C1619C
:1010C000C069002200F00200009011461D20FFF7C9
:1010D00083FC1D2010E00E4A914211D1C16941F0FC
:1010E0000401C161C069002200F0040000901146B3
:1010F0001E20FFF771FC1E20BDE80840FFF75EBC14
:1011000008BD0000002C0140001002400004004017
:101110000008004090F83D10012901D001207047DF
:10112000022180F83D1000680B49884208D0B0F1D8
:10113000804F05D00949884202D00949884204D12C
:10114000816801F00701062903D0016841F001011F
:101150000160002070470000002C014000040040A6
:101160000008004090F83D10012901D0012070478F
:10117000022180F83D100168CA6842F00102CA608D
:1011800000680B49884208D0B0F1804F05D009496A
:10119000884202D00849884204D1816801F00701E1
:1011A000062903D0016841F0010101600020704769
:1011B000002C0140000400400008004070B50446C7
:1011C00090F83C000025012817D0012684F83C60E7
:1011D000022084F83D002068826822F0770222F421
:1011E0007F4282600868502838D00DDC20284FD01C
:1011F00005DC90B3102811D14AE0022070BD3028E0
:1012000046D040280AD13BE060282FD070280DD06E
:10121000B0F5805F03D0B0F5005F12D0012584F8EF
:101220003D60002084F83C00284670BDCB68D1E9C1
:101230000121206801F0ABFA2068816841F0770154
:1012400009E0CB68D1E90121206801F0A0FA20680B
:10125000816841F480418160E1E719E0CA6849682A
:10126000206801F049FB5021206806E0CA684968FF
:10127000206801F052FB6021206801F092FACEE76D
:10128000CA684968206801F037FB40212068F4E70C
:10129000226801461046F0E72DE9F0410D460400B2
:1012A00003D094F83D0018B108E00120BDE8F081BA
:1012B000002084F83C00204600F040F8022084F82A
:1012C0003D002068816844F2070291438160211D3E
:1012D000206801F019FA226890689169166A2B68F3
:1012E000AF69034340F20330814341EA0721A86814
:1012F000EF6908434FF6FC418843E96840EA07205C
:10130000014328692F6A000140EA073008436968F1
:101310006D6926F0220646EA051529439360226886
:10132000906154F8460B0162012004F81F09E07532
:101330002076E0762077A0750020B7E700B585B06D
:10134000002100910191029103910068B0F1804F5A
:101350001ED11048C16941F00101C161C16901F0AC
:1013600001010491816941F004018161806969464C
:1013700000F004000490032000900748FFF72EF8C7
:10138000002211461C20FFF727FB1C20FFF716FB4D
:1013900005B000BD001002400008014070B590F893
:1013A0003E60044690F83F5090F8423090F8432059
:1013B000022021B104290ED0012E1BD114E0012EF0
:1013C00018D1012B16D184F83E0084F84200012286
:1013D0000021206820E0012D0CD1012A0AD184F8D7
:1013E0003F0084F8430014E0012D03D1012B01D10B
:1013F000012A01D0012070BD84F83E0084F83F002E
:1014000084F8420084F8430001220021206801F0A2
:10141000B1F901220421206801F0ACF920680168CB
:1014200041F001010160002070BD704770B50446B5
:10143000006801694FF00005C943890715D4C168E8
:10144000C943890711D4E91E016101202077206872
:1014500080698007204602D0FFF7E7FF04E000F034
:10146000BFF8204600F051F9257720680169C9438B
:10147000490717D4C168C943490713D46FF0040161
:101480000161022020772068806910F4407F2046A7
:1014900002D0FFF7CAFF04E000F0A2F8204600F0F7
:1014A00034F9257720680169C943090716D4C16852
:1014B000C943090712D46FF00801016104202077A5
:1014C0002068C0698007204602D0FFF7AEFF04E025
:1014D00000F086F8204600F018F9257720680169A9
:1014E000C943C90617D4C168C943C90613D46FF0EC
:1014F00010010161082020772068C06910F4407F46
:10150000204602D0FFF791FF04E000F069F8204682
:1015100000F0FBF8257720680169C943C90708D1A5
:10152000C168C943C90704D1891E0161204600F082
:101530003BF920680169C943090609D4C168C94358
:10154000090605D46FF0800101612046FFF7F6FC23
:1015500020680169C943490609D4C168C9434906DD
:1015600005D46FF040010161204600F023FA2068A5
:101570000169C94389060BD4C168C943890607D4E8
:101580006FF0200101612046BDE87040FFF7D7BC35
:1015900070BD000000B585B000210091019102915D
:1015A000039100680B49884212D10B48816941F0D0
:1015B000040181618069694600F0040004904FF4E1
:1015C000407000900220019003900448FEF706FF4F
:1015D00005B000BD002C0140001002400008014091
:1015E000704770B5044690F83C0000260D4601286F
:1015F0000FD0012084F83C006AB1042A1DD0082ACB
:101600002FD00C2A3FD00126002084F83C00304621
:1016100070BD022070BD206801F0CCF8206881699F
:1016200041F0080181612068816921F00401816134
:10163000206881692A69114311E0206801F0E2F80D
:101640002068816941F4006181612068816921F429
:1016500080618161206881692A6941EA0221816192
:10166000D2E7206801F0FAF82068C16941F008016A
:10167000C1612068C16921F00401C1612068C169AC
:101680002A69114311E0206801F014F92068C1694A
:1016900041F40061C1612068C16921F48061C161C8
:1016A0002068C1692A6941EA0221C161ACE710B52D
:1016B000040003D094F83D0010B107E0012010BDF4
:1016C000002084F83C00204600F01EF8022084F838
:1016D0003D00211D206801F017F8012084F8460024
:1016E00084F83E0084F83F0084F8400084F841000C
:1016F00084F8420084F8430084F8440084F84500EC
:1017000084F83D00002010BD7047704710B50446B6
:10171000022249B104290ED0082913D094F84100BF
:10172000012816D0012010BD94F83E000128F9D1FF
:1017300084F83E200FE094F83F000128F2D184F8AD
:101740003F2008E094F840000128EBD184F84020C5
:1017500001E084F841200122206801F00BF80F49D4
:101760002068884203D1426C42F4004242642068FF
:10177000884208D0B0F1804F05D00949884202D094
:101780000849884204D1816801F00701062903D085
:10179000016841F001010160002010BD002C0140F2
:1017A00000040040000800402DE9F05F0746006893
:1017B0007649DFF8DC91DFF8DC810025764C884241
:1017C0002AD1606A401C6062A06A012824DBD8F834
:1017D000000001F085FC01F077FA01F045FCE063C0
:1017E000D9F8000001F07CFC0646606D01F078FC41
:1017F000314601F0BBF901F073FC6060E06B01F071
:101800006FFC0646A06D01F06BFC314601F0FCF95F
:1018100001F066FCA562A060604938680126884234
:1018200030D1A06ADFF878B1401CA062E06A401CA9
:10183000E062206B401C2063A16B491C8A46A163B7
:10184000616B491C616301280CDB206950B9554963
:10185000606801F0E5FA01F023FCDBF80010886312
:1018600026622563BAF1010F0CDB606950B94E485E
:10187000A16801F019FD01F013FCDBF800104863CA
:10188000A56325624949386888427CD1206D401C97
:101890002065E16A491CE1620A2810DBD9F8007072
:1018A000A06C381A01F01CFCA7642064D8F8007002
:1018B000E06C381A01F014FC6064C4E91375E06848
:1018C0002923012813D06A22022814D0B221032828
:1018D00015D03C23042815D0052816D0062817D08B
:1018E000072818D0082819D009281CD01DE032205C
:1018F000C4E9150319E02D20C4E9152015E0C4E959
:10190000151312E0C4E915320FE06265A2650CE020
:10191000C4E9151209E0C4E9153106E07E206065CE
:101920009B20A06501E06165A165D9F80000616DAB
:10193000411A881C052802D22661656000E02561F5
:10194000D8F80000A26D801A821C052A02D26661B6
:10195000A56000E065610931132901D2A66100E0AC
:10196000A5610930132802D2E66101E00BE0E561D0
:101970002068401C2060642805D14FF400510C48B9
:10198000FEF71CFE2560BDE8F09F00000008004047
:10199000F0000020F4000020280000200004004097
:1019A00050010020000082440000BE44002C014091
:1019B000001001407047704770470000F8B501689B
:1019C00004460868CA684B6910F00F0F4FF0000515
:1019D00059D003F0010602F49077374365D0C10770
:1019E00005D0D10503D5616C41F001016164410767
:1019F00005D5D90703D0616C41F00201616481070C
:101A000005D5D90703D0616C41F004016164010779
:101A100007D502F02001314303D0616C41F0080189
:101A20006164616C00293AD0800604D5900602D525
:101A3000204600F0B3FF20684069616CC0F380105D
:101A4000090700D460B3204600F081FF2068406998
:101A5000400621D52068143050E8001F21F04001D5
:101A600040E80012002AF5D1E06BA8B16D4941634E
:101A7000E06BFEF755FC002811D0E06B416B01B024
:101A8000BDE8F040084783060FD593060DD52046E4
:101A9000BDE8F84000F082BF2046FFF78DFFF8BD9B
:101AA0002046FFF789FF6564F8BD266B2023012ED1
:101AB0007CD1C6067AD5D60678D5086848680090E5
:101AC00048694FF00206400640D5E16B086840685F
:101AD0000004000CE8D0A28D8242E5D9E085886937
:101AE00020282DD020680C3050E8001F21F4807190
:101AF00040E80012002AF5D12068143050E8001F99
:101B000021F0010140E80012002AF5D120681430CC
:101B100050E8001F21F0400140E80012002AF5D1F2
:101B200084F84230256320680C3050E8001F21F013
:101B3000100140E80012002AF5D1E06BFEF7CDFB62
:101B40006663A08DE18D401A81B22AE0A08DE18DFF
:101B5000401A81B2E08D0028A6D00029A4D02268C6
:101B60000C3252E8000F20F4907042E80007002F7A
:101B7000F5D12068143050E8002F22F0010240E82F
:101B80000027002FF5D184F84230256320680C30FF
:101B900050E8002F22F0100240E80023002BF5D17E
:101BA00066632046FFF707FFF8BDFFE705062BD564
:101BB000150629D594F841002128F5D1A068B0F583
:101BC000805F01D12069B0B1206A411C2162216887
:101BD00000784860E08C401E0004000CE084E3D1F3
:101BE0002068C16821F08001C1602068C16841F0AF
:101BF0004001C160D8E7206A0088C0F3080048604F
:101C0000206A801C2062E5E74006CDD55006CBD582
:101C1000CA68204622F04002CA6084F8413000F0D1
:101C200005F9C1E73F29000870B5040004D094F815
:101C30004100002510B106E0012070BD84F840503D
:101C4000204600F023F8242084F841002068C16871
:101C500021F40051C160204600F002FF20680169B4
:101C600021F4904101612068416921F02A0141611C
:101C70002068C16841F40051C1606564202084F887
:101C8000410084F842006563002070BD30B585B026
:101C9000002400940194029403942E4D03682E486E
:101CA00002210322AB4227D1C36943F40033C3614D
:101CB000C36903F400330493836943F0040383612D
:101CC0008069264D00F0040004900420CDE9000155
:101CD000039269462846FEF781FB0820CDE90004FF
:101CE000694628460294FEF779FB00221146262019
:101CF000FEF772FE262029E0194DAB4228D1C369B8
:101D000043F48023C361C36903F48023049383698C
:101D100043F0080383618069039200F00800049097
:101D20002815CDE900010F4D69462846FEF756FB00
:101D3000E814CDE90004694628460294FEF74EFBFC
:101D4000002201212720FEF747FE2720FEF736FE5E
:101D500005B030BD004400400010024000080140C2
:101D600000480040000C014090F84230202B01D088
:101D70000220704721B11AB10023036300F0CCBEEA
:101D8000012070472DE9F041224988423AD1234889
:101D9000234C214D037820882F780146401C214A8E
:101DA00080B2002617B1012F0ED004E05354401C1E
:101DB0002080012028702088C7281AD9C8211948F6
:101DC000FEF702FA26801DE05354208018B912F85D
:101DD000011C122916D11044134910F8030C303895
:101DE00008602680C8210F48FEF7EEF9022028700F
:101DF00002E02878022805D12680C8210948FEF78C
:101E0000E3F92E70BDE8F041012204490148FFF7D3
:101E1000ABBF0000B8020020EC000020FA00002058
:101E2000F80000209C040020340000207047FEE7EA
:101E300001684A69D24352050FD46FF480624A6147
:101E4000002140F8301F202242738173026942F062
:101E500004020261017301207047002070470000F6
:101E60002DE9F843044600680D46DDE9089701684E
:101E70009846164641F4807101604B4600224FF0AF
:101E800001112046009700F06BF848B12068006807
:101E9000C00502D54FF4007020640320BDE8F8832C
:101EA000216805F0FE0008613B464A461549204678
:101EB00000F09EF888B920684169806900903A4630
:101EC0004946204600F0F2F848B1206C042804D1BD
:101ED0002068016841F4007101600120DEE7F5B27D
:101EE000B8F1010F09D02168300A08613A46494625
:101EF000204600F0DBF80028E7D1206805610020CB
:101F0000CCE700000200010070B516460D460446FD
:101F10001EE02046FFF78CFF08B1012070BD681C51
:101F200016D0FEF759FB801BA84200D885B920685F
:101F30004069C04340070BD5002044F8300F2021F2
:101F40006173A073216941F0200121612073E4E7EE
:101F500020684069C0434007DBD4002070BD00000A
:101F60002DE9F047984617460D460446C1F307464B
:101F7000DDF820902AE000BFB8F1FF3F26D0FEF741
:101F80002BFBA0EB0901414502D8B8F1000F1DD190
:101F90002068012E16D0806925EA00000004000C9C
:101FA00012D00020B84211D1002044F8300F202177
:101FB0006173A073216941F0200121612073012028
:101FC000BDE8F0874069E7E70120EBE72068012ED4
:101FD0000AD0806925EA00000004000C06D0002029
:101FE000B842C9D00020EBE74069F3E70120F7E7EA
:101FF0002DE9F047984616460D4604464FF0000975
:102000004FF0200AC1F3074723E020684069C0432E
:10201000400515D42068016841F400710160216811
:102020006FF480604861C4F8309084F83DA084F873
:102030003E90216C41F00401216484F83C9021E041
:10204000701C06D0FEF7C8FAA0EB0800B04203D817
:1020500016B1012F1FD021E02068012F15D0806913
:1020600025EA00000004000C18D000BF44F8309F9F
:1020700084F80DA084F80E90216941F020012161BF
:1020800084F80C900120BDE8F087406925EA000043
:102090000004000CEAD12068406901E020688069F2
:1020A00025EA00000004000CAFD1ECE770B516463D
:1020B0000D4604461EE02046FFF7BAFE08B1012097
:1020C00070BD681C16D0FEF787FA801BA84200D8A6
:1020D00085B920684069C04300060BD5002044F84C
:1020E000300F20216173A073216941F0200121612B
:1020F0002073E4E720684069C0430006DBD4002079
:1021000070BD00002DE9F04385B0002428480094FC
:10211000019402940394816941F010018161816905
:1021200001F010010491816941F020018161816910
:1021300001F020010491816941F00401816181690C
:1021400001F004010491816941F008018161806915
:10215000012200F00800DFF85C8055030490294656
:102160004046FEF733FADFF850904FF44357002211
:1021700039464846FEF72AFA0095022601250396BD
:10218000CDE9015469464046FEF728F900970396C9
:10219000CDE9015469464846FEF720F918208DE83C
:1021A000310069464846FEF719F905B0BDE8F083ED
:1021B0000010024000100140000C01400D4810B515
:1021C0000B4901600C49416000214FF4804281605D
:1021D000C0E9031241618161C1610162FEF702FA47
:1021E000002803D0BDE81040FEF775B810BD000010
:1021F00000540040FC000020A086010010B596B0FD
:1022000000240F9410941194129413941C21684686
:102210001494FDF7FBFF202107A8FDF7F7FF2C48DA
:102220002A4901604721C0E9011442F20F71C0E957
:10223000031444618461FEF7E1FE08B1FEF74BF838
:102240004FF480500F900FA92148FEF7B7FF08B157
:10225000FEF741F81E48FFF72AFA08B1FEF73BF8EF
:10226000139413A91A481494FEF794FE08B1FEF7CC
:1022700032F86020CDE9000402940394049405949C
:102280000022694612480694FFF7ABF908B1FEF741
:1022900022F8042269460E48FFF7A3F908B1FEF7B9
:1022A0001AF80794089409944FF400500A94CDE961
:1022B0000B4007A906480E94FEF742FE08B1FEF750
:1022C0000AF80348FFF766F916B010BD002C01406C
:1022D0005001002010B58CB024216846FDF796FF10
:1022E0000024154809944FF080410A94C0E9001475
:1022F0004FF6FF71C0E90241046184610320CDE91A
:1023000000040120CDE902040494CDE905400794BE
:10231000694609480894FEF7BFFF08B1FDF7DBFFE7
:10232000099409A904480A94FEF734FE002801D054
:10233000FDF7D1FF0CB010BD9801002010B586B09C
:1023400000241748009401940294039404941349C0
:102350000594016040F2CF21C0E9011441F26F7190
:10236000C0E903148461FEF749FE08B1FDF7B3FF2D
:102370004FF48050009069460948FEF71FFF08B1EE
:10238000FDF7A9FF049404A905480594FEF702FE91
:10239000002801D0FDF79FFF06B010BD00040040EB
:1023A000E001002010B586B0002416480094019486
:1023B0000294039404941249059401604721C0E9F2
:1023C00001146321C0E903148461FEF717FE08B10C
:1023D000FDF781FF4FF48050009069460948FEF7F1
:1023E000EDFE08B1FDF777FF049404A905480594B4
:1023F000FEF7D0FD002801D0FDF76DFF06B010BD3F
:1024000000080040280200200C4810B50A4901606D
:102410004FF416514160002181600C22C160C0E977
:1024200004128161C161FFF7FFFB002803D0BDE802
:102430001040FDF750BF10BD004400407002002066
:102440000C4810B50A4901604FF416514160002153
:1024500081600C22C160C0E904128161C161FFF793
:10246000E3FB002803D0BDE81040FDF734BF10BDEA
:1024700000480040B8020020FEE7FEE770B50024E7
:1024800004F1B000C0B200F0BDF8002000F0BAF8CE
:10249000102000F0B7F80025002000F0C5F86D1CF2
:1024A000EDB2802DF8D3641CE4B2082CE8D370BDE3
:1024B00070B5C820FDF780FF044D0024285D00F0B2
:1024C000A1F8641CE4B2172CF8D370BD10000020F2
:1024D00010B50446B031C8B200F094F8102040EABC
:1024E000141000F08FF804F00F00BDE8104000F069
:1024F00089B800002DE9F047203A0024089E0F46D5
:102500008146D5B27F2803D900208F1C8146FFB2B7
:10251000102B394612D0FFF7DBFF1B4905EB4500B6
:1025200001EB4005285D0EB1C043C0B200F07CF85D
:10253000641CE4B2062CF5D3BDE8F087FFF7C8FFB2
:10254000DFF8488004EB051118F801000EB1C04314
:10255000C0B200F069F8641CE4B2082CF2D37F1C0E
:10256000F9B24846FFF7B4FF0024474604EB0510D4
:102570003844007A0EB1C043C0B200F055F8641C74
:10258000E4B2082CF2D3D7E7BC330008E4350008E6
:102590002DE9FF4F81B00026DDE90EA91D469346C7
:1025A000804634464FEA5A0727E0281B401EC1B236
:1025B0000A2000F02DFCBBFBF0F00A21B0FBF1F289
:1025C00001FB120026B9691E8C4201DA48B10126CE
:1025D0003030C2B207FB0480C0B25346CDF8009041
:1025E00006E007FB0480C0B253462022CDF80090DD
:1025F0000299FFF77FFF641CE4B2AC42D5D305B06B
:10260000BDE8F08F01B584B001214FF4807204A8B9
:102610008DE807000B46002278210248FEF7A6F855
:1026200005B000BDFC00002001B584B001214FF4CD
:10263000807204A88DE807000B46402278210248EA
:10264000FEF794F805B000BDFC000020704770470D
:10265000FEF75CB930B58FB028216846FDF7D6FD8E
:1026600014210AA8FDF7D2FD01210804CDE90010CC
:102670000024029402250491CDE907504FF4E010A4
:1026800009906846FEF7B6FA08B172B6FEE70F2069
:10269000CDE90A054FF48060CDE90C4002210AA87B
:1026A0000E94FEF7CBF9002801D072B6FEE70FB00A
:1026B00030BD70470148FEF7B9BE00005001002050
:1026C0000148FEF7B3BE0000500100200148FEF7AC
:1026D000ADBE0000500100200148FEF7A7BE00007B
:1026E000500100200148FEF7A1BE00009801002023
:1026F0000148FEF79BBE0000E00100200148FEF704
:1027000095BE000028020020F0B50268164B174C59
:10271000174D4FF08047984205D0B84203D0A042F1
:1027200001D0A84203D122F070064A683243984291
:1027300005D0B84203D0A04201D0A84203D122F470
:102740004074CA6822434C6922F08002224302602E
:102750008A68C2620A688262984201D1096901638B
:1027600001214161F0BD0000002C01400004004047
:102770000008004010B501F01F030121046A9940D0
:102780008C430462016A9A401143016210BD10B586
:10279000846842EA032224F47F440A43224382608D
:1027A00010BD826822F070020A4342F00701816086
:1027B0007047000030B5036A026A22F0010202622B
:1027C0004268846924F073050C682C4323F00205E9
:1027D0008B682B430A4DA8420BD123F00805CB6828
:1027E00022F440722B434D6923F0040315438A6998
:1027F0002A434260846149684163036230BD00003E
:10280000002C014030B5026A036A23F01003036212
:10281000436884690D6824F4E64444EA05248D681D
:1028200022F0200242EA05120B4DA8420ED1CD68DB
:1028300022F0800242EA05124D6923F4406343EA24
:1028400085038D6922F0400243EA85034360846179
:1028500049688163026230BD002C014030B5036AD3
:10286000026A22F4807202624268C46923F400732F
:1028700024F073050C682C438D6843EA05230C4D46
:10288000A8420ED1CD6823F4006343EA05234D69C5
:1028900022F4405242EA05128D6923F4806342EA31
:1028A00005124260C4614968C163036230BD000023
:1028B000002C014030B5046A026A22F480520262A0
:1028C0004268C3690D6823F4E64343EA05238D6833
:1028D00024F4005444EA0534064DA84204D14D695D
:1028E00022F4804242EA85124260C3614968016471
:1028F000046230BD002C014010B5036A046A24F064
:1029000001040462846924F0F00444EA021423F010
:102910000A020A438461026210BD10B5036A046AA8
:1029200024F010040462846923F0A00324F47044AA
:1029300044EA023243EA01118261016210BD10B51E
:10294000406A0021C185C184FFF736F810BD0168D7
:102950000C3151E8002F22F4907241E80023002B43
:10296000F5D10168143151E8002F22F0010241E84D
:102970000023002BF5D1016B012909D101680C312D
:1029800051E8002F22F0100241E80023002BF5D17E
:10299000202180F8421000210163704708B590F8AB
:1029A0004210222901D0022008BD82684FF48053D2
:1029B0009A4201D1016921B1816A9A421BD04AB180
:1029C0000AE00268816A5268C2F308020A80816ADA
:1029D000891C08E0026972B10268526802F07F0245
:1029E0000A70816A491C8162C18D491E0904090C63
:1029F000C18503D01BE002685268F1E70168CA682C
:102A000022F02002CA600168CA6822F48072CA609B
:102A100001684A6922F001024A61202180F84210CF
:102A200000214163026B012A03D0FFF7ABF90020BC
:102A300008BD016301680C3151E8002F22F010023B
:102A400041E80023002BF5D101680A68D20602D5BF
:102A50000A6849680091818DFEF7ADFFE7E7000045
:102A600070B5044600680169E26821F440511143E1
:102A700001612169A0680843616908432168CA6847
:102A800041F20C639A430243CA6020684169A2691B
:102A900021F44071114341611E492068884202D1EE
:102AA000FEF772F801E0FEF75FF800EBC00101EB02
:102AB0000012606864218000B2FBF0F3B3FBF1F315
:102AC0006FF018067343B2FBF0F5B2FBF0F605EBBE
:102AD0008305322303EB0515B5FBF1F5B6FBF1F6E3
:102AE00005F0F00505EB0615B2FBF0F6B2FBF0F0D1
:102AF000B0FBF1F06FF01802504306EB800003EBDF
:102B00000010B0FBF1F0216800F00F00284488604D
:102B100070BD00000038014081628285C2850021BD
:102B20004164222180F84210016921B10168CA681C
:102B300042F48072CA6001684A6942F001024A6147
:102B40000068C16841F02001C160002070470000AA
:102B50000148FEF733BF0000700200200148FEF775
:102B60002DBF0000B8020020FEE700002DE9F04173
:102B700000F09AFB1C4C05460146E060606900F0DD
:102B80004FF91A496061884202DC1949884200D92C
:102B900061612846216900F087FB0646606415489C
:102BA0006169006800F0B4FA1349074630460968C5
:102BB00000F0AEFA064611482946006800F0A8FA6F
:102BC000314600F02DF9394600F02AF90C4925610B
:102BD0006063884202D80B49884200DD6163606B04
:102BE000BDE8F04100F040BA9C0000200000FA432C
:102BF0000000FAC3880000208C0000208400002020
:102C0000000048C4000048442DE9F04700F04CFBA8
:102C10001F4C064601466062E06A00F001F91D4D56
:102C2000DFF87480E062A84201DDE56203E0404520
:102C300001D9C4F82C803046A16A00F035FB074664
:102C4000E0641648E16A006800F062FA14498146BF
:102C50003846096800F05CFA0746124831460068B9
:102C600000F056FA394600F0DBF8494600F0D8F893
:102C7000A662E063404502D9C4F83C8002E0A84265
:102C800000DDE563E06BBDE8F04700F0EDB9000062
:102C90009C0000200000FA430000FAC394000020CA
:102CA00098000020900000200907090E002804DB8E
:102CB00000F1E02080F80014704700F00F0000F1F0
:102CC000E02080F8141D704770B506460020104DB6
:102CD000044600BF05EB8401496845F8241000F064
:102CE0009FF8641C032CF5DB34460A49EE6000F0C3
:102CF000F9F80146204600F0D7FA0749884202DC7D
:102D00000649884201D9A86870BD204670BD000000
:102D10000C030020000040400000A0410000A0C1C2
:102D20001CB5FDF7FBFDFFF795FCFFF7EBF9FFF78F
:102D300065FAFFF743FAFFF783FBFFF7CBFAFFF7DC
:102D4000FDFAFFF72FFBFFF75FFBFFF7B1FBFFF784
:102D500095FB2648FEF706FA2448FEF7DBF92448DF
:102D6000FEF700FA2248FEF7D5F92248FEF7FAF9F5
:102D70002048FEF7CFF91D484FF47A71026891633D
:102D8000006840F2DC51416300211848FEF7BEFCA8
:102D900004211648FEF7BAFC012217491748FEF72E
:102DA000E3FF3C211648FEF7F9FA0124154E164FB1
:102DB000DFF858801025CDE9005400210523327832
:102DC0000846FFF7E5FBCDE9005405233A780221D8
:102DD0000020FFF7DDFBCDE9005402230421002091
:102DE000D8F80020FFF7D4FBE5E7000050010020F1
:102DF000E001002028020020FA000020B802002094
:102E000098010020F0000020F40000203400002091
:102E10000246012000E05043491EC9B2FBD2704770
:102E200090EA010F48BF81F0004100F14482421A4C
:102E30003CBF801A89184FEAD0524FF07F4C1CEAF1
:102E4000410FA2EBD15318BF9CEA026F00F03B8008
:102E50004FF0004C4CEA00204CEA012121FA03FC1F
:102E600010EB0C0C1ED202F1FF325FEA1C2040EB8B
:102E7000C25038BF70471CF07F0F4FEA400C18BF9C
:102E8000BCF17F4F38BF7047C3F12003994008BFA2
:102E900020F00100BCF17F4F38BF7047A0F1C04067
:102EA00000F0FDB94FEA3C00000A40EBC25028BFD9
:102EB0001CF0FF0F4FEA400CE6D018BFBCF17F4F6B
:102EC00038BF7047EAE79CEA026F05D010EA5C0F52
:102ED00008BF00F00040704710B500F09AF900BF3D
:102EE00064FBBE3E4FF47F0C1CEAD0121EBF1CEAEE
:102EF000D11392EA0C0F93EA0C0F00F0858090EA50
:102F0000010F48BF42F4807240F4000C41F400000D
:102F10002CF07F4120F07F4000B58142A2EB0302FC
:102F20000FF2081CACEB504EC0F100009EF800E020
:102F30004FEA4E0E00FB0EFC38BF49004FEA2C1C36
:102F400002F5FA020CFB0EF34FEACE1E4FEA112CEB
:102F50004FEAC1210EEB635E42EB22420EFB0CFCFA
:102F60004FEA1C5300FB03114FEA112C4FEA0131C9
:102F70000EFB0CFC4FEADC4C00FB0C11C14228BFDD
:102F800009184CEB03335DF804EB10EB410143EB04
:102F9000C250B2F57C0F38BF704729D512F0F00F40
:102FA0001CBF00F1C04000F00040704700818283E8
:102FB0008485868788898B8C8D8E8F919293959648
:102FC00097999A9C9D9FA0A2A3A5A7A8AAACAEB0D2
:102FD000B2B3B5B7B9BCBEC0C2C5C7C9CCCED1D4D7
:102FE000D7D9DCDFE2E6E9ECF0F3F7FAFE00000007
:102FF0004FEA400C0CF1807CBCF17E4F28BF70473B
:10300000B0F1C04000F04BB990EA010F0CEAD113C7
:1030100048BF42F48072624538BF634507D213F45B
:103020007F0F16D080EA010000F00040704710B515
:1030300000F0EFF8097EFC3E00F005B880EA0100E0
:1030400000F00040704780EA010000F0004000F00E
:1030500026B912F47F0F04BF0248704780EA0100CE
:1030600000F01DB90000C07F41000B0ED3F19E029D
:1030700008D950F400034FEA032323FA02F048BFB3
:103080004042704710B500F0C4F800BF4992248058
:10309000002070476FF0004282EA20007047000075
:1030A000C10DD1F19E0206DB4FEA002343F000433D
:1030B00023FA02F07047004207D54FEA4001B1F110
:1030C000FE4F02D24FF00000704710B500F0A1F89B
:1030D00049922480002070476FEA2000704700006A
:1030E00010F0004148BF4042B0FA80F310FA03F2FA
:1030F000C3F19D030BD051EAC35101EB12205306DB
:1031000038BF704700F1010008BF20F00100704790
:103110004FF47F0C1CEAD0121EBF1CEAD11392EAB6
:103120000C0F93EA0C0F00F0478090EA010F48BFA4
:1031300042F480724FF0004C4CEA00204CEA01212E
:1031400002EB0302A0FB0113A2F50002002918BF45
:1031500043F001035B0028BF4FEA330342EB2242F6
:103160005FEA132C4CEBC2502EBFBCEB436FB2F5A1
:103170007C0F70474FEA036CBCF1004F08BF20F092
:103180000100B2F57C0F38BF70470BD582F0FF020B
:1031900012F5803FC8BF704700F1C040D8BF00F0B3
:1031A0000040704700F5000C5FEA4C0C48BF7047C8
:1031B000B0F1C04000F073B890EA010F0CEAD113EF
:1031C00048BF42F48072624538BF634504D280EA4A
:1031D000010000F00040704710B500F01AF800BF81
:1031E0008900013E00F007B800F009B85FEA410C21
:1031F0005FEA1C6C08D080EA010000F050B85FEA7A
:10320000400C5FEA1C6CF6D14FF00040A0F5800046
:1032100070470EF1020E2EF0030E5EF8044B2442AE
:1032200004D44FEA4102B2F17F4F11D84FEA400374
:10323000B3F17F4F0CD80ED14FEAD07CB2F17F4F63
:103240000CEB4C0C0CF1020C08BF4CEBD17C04E0F5
:103250004FF0080C01E04FEAD17C0CEB4C0324FA50
:1032600003F404F00704B4F1040C06D20EEB840C52
:10327000BDE810404CF0010C6047DFE80CF0070897
:1032800002024FF00040A0F5800010BD0846420049
:1032900018BFD2F1807288BF00F0004010BDFF213E
:1032A00041EAD050C005704790EA010F48BF81F055
:1032B00000413FF5BCAD421A04D882F00042A0EBB9
:1032C000020011444FEAD0524FF07F4C1CEA410FEC
:1032D000A2EBD15318BF9CEA026F4AD04FF0004CCA
:1032E0004CEA00204CEA012121FA03FCB0EB0C0C63
:1032F0000FD412F0FE0F36D05FEA4C001DD500123D
:1033000040EBC25038BF70471CF03F0F18BF7047EA
:103310000BE0A2F101025FEA1C2040EBC25038BF73
:1033200070471CF07F0F18BF7047C3F1200399400E
:1033300014BF401E20F00100704780084FEA12239E
:1033400008BF7047B0FA80FCA2EB0C02CCF1280C4D
:1033500060FA0CF093EA122F04BF00EBC2507047E2
:103360004FEAC3707047130A5FEADC1008BF70476A
:10337000F6E79CEA026F04D010EA5C0F08BF002059
:10338000704710B5FFF745FF40DFF63E81F0004083
:103390007047010202030405060708090A0B0C0D19
:1033A0000E0F1010000000000000000001020304D6
:1033B00006070809000000000102030400000000E5
:1033C00000000000002F00000000070007000014AC
:1033D0007F147F1400242A7F2A12006264081323BA
:1033E00000364955225000000503000000001C2251
:1033F0004100000041221C000014083E081400088F
:10340000083E0808000000A060000008080808083E
:10341000000060600000002010080402003E5149D6
:10342000453E0000427F4000004261514946002174
:1034300041454B31001814127F100027454545398E
:10344000003C4A49493000017109050300364949E9
:10345000493600064949291E0000363600000000A2
:1034600056360000000814224100001414141414ED
:103470000000412214080002015109060032495996
:10348000513E007C1211127C007F49494936003EB2
:1034900041414122007F4141221C007F494949416D
:1034A000007F09090901003E4149497A007F080867
:1034B000087F0000417F4100002040413F01007F24
:1034C00008142241007F40404040007F020C027FF0
:1034D000007F0408107F003E4141413E007F090902
:1034E0000906003E4151215E007F09192946004628
:1034F000494949310001017F0101003F4040403FFF
:10350000001F2040201F003F4038403F0063140848
:103510001463000708700807006151494543000023
:103520007F41410000552A552A55000041417F0046
:10353000000402010204004040404040000001023B
:103540000400002054545478007F48444438003824
:103550004444442000384444487F003854545418AC
:1035600000087E0901020018A4A4A47C007F0804BE
:1035700004780000447D4000004080847D00007F8E
:10358000102844000000417F4000007C04180478AB
:10359000007C0804047800384444443800FC2424A7
:1035A00024180018242418FC007C0804040800488F
:1035B0005454542000043F444020003C4040207CB0
:1035C000001C2040201C003C4030403C004428109F
:1035D0002844001CA0A0A07C004464544C44141453
:1035E000141414140000000000000000000000008B
:1035F00000000000000000F80000000000000033A0
:103600003000000000100C06100C06000000000046
:103610000000000040C07840C0784000043F04042F
:103620003F040400007088FC08300000001820FFF0
:10363000211E0000F008F000E018000000211C032B
:103640001E211E0000F00888700000001E212324A7
:103650001927211010160E000000000000000000C5
:1036600000000000000000E0180402000000000755
:103670001820400000020418E0000000004020185C
:1036800007000000404080F0804040000202010F2F
:1036900001020200000000F0000000000101011F13
:1036A00001010100000000000000000080B0700077
:1036B0000000000000000000000000000001010107
:1036C0000101010100000000000000000030300096
:1036D0000000000000000000806018040060180670
:1036E0000100000000E010080810E000000F1020AA
:1036F00020100F00001010F8000000000020203FF4
:10370000202000000070080808887000003028247D
:10371000222130000030088888483000001820201E
:1037200020110E000000C02010F800000007042443
:10373000243F240000F80888880808000019212088
:1037400020110E0000E0108888180000000F1120E2
:1037500020110E0000380808C83808000000003F9B
:10376000000000000070880808887000001C2221FA
:1037700021221C0000E010080810E00000003122A7
:1037800022110F00000000C0C00000000000003047
:103790003000000000000080000000000000806099
:1037A000000000000000804020100800000102041A
:1037B0000810200040404040404040000404040401
:1037C00004040400000810204080000000201008BD
:1037D00004020100007048080808F00000000030F2
:1037E00036010000C030C828E810E0000718272480
:1037F00023140B000000C038E0000000203C23022E
:103800000227382008F8888888700000203F202090
:1038100020110E00C03008080808380007182020C2
:103820002010080008F808080810E000203F2020B9
:1038300020100F0008F88888E8081000203F20209A
:103840002320180008F88888E8081000203F20008E
:1038500003000000C03008080838000007182020C6
:10386000221E020008F808000008F808203F210185
:1038700001213F20000808F8080800000020203F30
:103880002020000000000808F8080800C0808080A0
:103890007F00000008F888C028180800203F200199
:1038A0002638200008F8080000000000203F2020F3
:1038B0002020300008F8F800F8F80800203F003F0A
:1038C000003F200008F830C00008F808203F200022
:1038D00007183F00E01008080810E0000F10202033
:1038E00020100F0008F808080808F000203F210108
:1038F00001010000E01008080810E0000F1824245F
:1039000038504F0008F8888888887000203F2000D1
:10391000030C302000708808080838000038202187
:1039200021221C00180808F8080818000000203F91
:103930002000000008F808000008F808001F2020F8
:1039400020201F000878880000C8380800000738C9
:103950000E010000F80800F80008F800033C07001A
:10396000073C0300081868808068180820302C0382
:10397000032C30200838C800C83808000000203F59
:103980002000000010080808C83808002038262148
:1039900020201800000000FE020202000000007F4C
:1039A00040404000000C30C000000000000000015A
:1039B0000638C00000020202FE0000000040404045
:1039C0007F0000000000040202020400000000006A
:1039D00000000000000000000000000080808080E7
:1039E00080808080000202040000000000000000CF
:1039F0000000000000008080808000000019242268
:103A000022223F2008F8008080000000003F1120A3
:103A100020110E000000008080800000000E1120A8
:103A200020201100000000808088F800000E112086
:103A300020103F200000808080800000001F222294
:103A400022221300008080F0888888180020203F00
:103A5000202000000000808080808000006B949413
:103A60009493600008F8008080800000203F2100CF
:103A700000203F2000809898000000000020203F98
:103A800020200000000000809898000000C0808086
:103A9000807F000008F8000080808000203F240222
:103AA0002D302000000808F8000000000020203F12
:103AB000202000008080808080808000203F2000C7
:103AC0003F20003F8080008080800000203F210058
:103AD00000203F200000808080800000001F202008
:103AE00020201F00808000808000000080FFA12037
:103AF00020110E000000008080808000000E112048
:103B000020A0FF80808080008080800020203F21D6
:103B10002000010000008080808080000033242489
:103B200024241900008080E0808000000000001F35
:103B3000202000008080000000808000001F2020E6
:103B400020103F20808080000080808000010E30A7
:103B50000806010080800080008080800F300C0308
:103B60000C300F0000808000808080000020312E0B
:103B70000E312000808080000080808080818E70E7
:103B80001806010000808080808080000021302C99
:103B90002221300000000000807C020200000000B2
:103BA000003F40400002027C800000000040403F97
:103BB0000000000000000000FF0000000000000006
:103BC000FF000000E43B000800000020FC000000B3
:103BD00028010008E03C0008FC000020CC0A00009E
:103BE0004401000801000000100000000000000077
:103BF0000024F400AED580A83FD30040A1C8DA125B
:103C000081CFD9F1DB40A4A68D14AF0000000000E5
:103C1000000000000000000005000000000000009F
:103C20000000000000000000000000000000000094
:103C30000000000000000000000000000000000084
:103C40000000000000000000000000000000000074
:103C50000000000000000000000000000000000064
:103C60000000000000000000000000400000803E56
:103C700033334B42000000400000803E3333634248
:103C80000000000000000000000000000000000034
:103C90000000000000000000000000000000000024
:103CA0000000000000000000000000000000000014
:103CB0000000000000000000000000000000000004
:103CC00000000000000000000000000000000000F4
:103CD00000000000000000000000000000000000E4
:04000005080000ED02
:00000001FF
