:020000040800F2
:10000000600400200101000845030008F502000813
:10001000F902000849010008830D000800000000F3
:10002000000000000000000000000000A105000822
:100030004D01000800000000890400088D0600083A
:100040001B0100081B0100081B0100081B01000820
:100050001B0100081B0100081B0100081B01000810
:100060001B0100081B0100081B0100081B01000800
:100070001B0100081B0100081B0100081B010008F0
:100080001B0100081B0100081B0100081B010008E0
:100090001B0100081B0100081B0100081B010008D0
:1000A0001B0100081B0100081B0100081B010008C0
:1000B000F10600081B0100081B0100081B010008D5
:1000C0001B0100081B0100081B0100081B010008A0
:1000D0001B010008550A00081B0100086D0B0008F1
:1000E0001B0100081B0100081B010008DFF80CD0F1
:1000F00000F018F800480047210E000860040020B6
:100100000648804706480047FEE7FEE7FEE7FEE7B1
:10011000FEE7FEE7FEE7FEE7FEE7FEE791060008E2
:10012000ED000008064C074D06E0E06840F00103D2
:1001300094E8070098471034AC42F6D3FFF7DAFF93
:100140005C0F00087C0F000800BFFEE770472DE938
:10015000F04102460025002600200023002400274D
:1001600091F803C00CF00F0591F803C00CF0100CCF
:10017000BCF1000F03D091F802C04CEA050591F8DC
:1001800000C0BCF1000F31D0146800202BE04FF00C
:10019000010C0CFA00F3B1F800C00CEA03069E4211
:1001A00020D183004FF00F0C0CFA03F7BC4305FA83
:1001B00003FC4CEA040491F803C0BCF1280F06D1FB
:1001C0004FF0010C0CFA00FCC2F814C00AE091F8E0
:1001D00003C0BCF1480F05D14FF0010C0CFA00FC34
:1001E000C2F810C0401C0828D1D31460B1F800C078
:1001F000BCF1FF0F34DD546800202EE000F1080C44
:100200004FF0010808FA0CF3B1F800C00CEA03063D
:100210009E4221D183004FF00F0C0CFA03F7BC4330
:1002200005FA03FC4CEA040491F803C0BCF1280F62
:1002300005D100F1080C08FA0CF8C2F8148091F806
:1002400003C0BCF1480F07D100F1080C4FF00108C2
:1002500008FA0CF8C2F81080401C0828CED354606D
:10026000BDE8F081F0B50A460023002400210025F6
:1002700000F00046B6F1004F02D11D4EF16901E0D9
:100280001B4E7168C0F3034583B200F44016B6F507
:10029000401F08D121F07061154E766826F0706617
:1002A000134F7E6012E000F48016B6F5801F06D171
:1002B000032606FA05F4A14341F0706106E0460DFD
:1002C000360103FA06F6B14341F0706122B1460DE2
:1002D000360103FA06F6314300F00046B6F1004F4E
:1002E00002D1034EF16101E0014E7160F0BD0000EA
:1002F0000000014000BFFEE700BFFEE708B5012196
:100300000D2000F0D3F810208DF80300C002ADF8E6
:10031000000003208DF8020069460848FFF717FF28
:1003200010208DF803003820ADF8000003208DF870
:10033000020069460248FFF70AFF08BD00080140B5
:10034000000C01407047000070B5002100230F220F
:10035000C47804B3154C246804F4E064C4F5E06484
:10036000210AC1F10403CA40447804FA03F18478F5
:100370001440214309010E4C0678A155047804F07D
:100380001F050124AC4005786D11AD0005F1E02595
:10039000C5F8004109E0047804F01F050124AC40D1
:1003A000044D0678761145F8264070BD0CED00E04E
:1003B00000E400E080E100E002490143024A1160EC
:1003C000704700000000FA050CED00E030B589B080
:1003D00004460D46012140F6050000F067F818209C
:1003E0008DF823004FF4E060ADF8200003208DF875
:1003F000220008A92248FFF7AAFE05A800F020FB6A
:100400000020ADF81A00ADF81600ADF81850ADF8A0
:10041000144005A91B4800F0C1FA6020ADF80400A3
:100420000020ADF80C000120ADF806000020ADF86A
:100430000A0001A9134800F0A1F901A9114800F030
:10044000F3F901A90F4800F04FFA01210D4800F01F
:1004500075F908210B4800F0DDF90821094800F082
:1004600035FA0821074800F08FFA0121054800F00D
:100470004AF90121034800F055F909B030BD0000E8
:1004800000080140002C01407047000029B1064AD5
:10049000D2690243044BDA6104E0034AD269824321
:1004A000014BDA61704700000010024029B1064A92
:1004B00092690243044B9A6104E0034A92698243C1
:1004C000014B9A61704700000010024030B50021D6
:1004D0000022002400232D4D6D6805F00C0121B190
:1004E000042905D0082923D105E0294D056022E023
:1004F000274D05601FE0254D6D6805F47012234DF2
:100500006D6805F48034022505EB92421CB9214D3B
:10051000554305600BE01D4D6D6805F400351DB1B8
:100520001C4D5543056002E0194D5543056002E03E
:10053000174D056000BF00BF144D6D6805F0F00158
:100540000909154D6B5C0568DD4045600F4D6D6810
:1005500005F4E061090A104D6B5C4568DD4085607B
:100560000A4D6D6805F46051C90A0B4D6B5C456816
:10057000DD40C560054D6D6805F44041890B074DB0
:100580006B5CC568B5FBF3F5056130BD001002403A
:1005900000127A0000093D00000000201000002039
:1005A000704710B500F002F810BD00000CB5002037
:1005B000019000903348006840F480303149086071
:1005C00000BF3048006800F4003000900198401CE3
:1005D0000190009818B90198B0F5A06FF1D12948A1
:1005E000006800F4003010B10120009001E000200C
:1005F00000900098012843D12348006840F0100083
:10060000214908600846006820F003000860084699
:10061000006840F0020008601A48406819494860C4
:100620000846406848600846406840F4806048607A
:100630000846406820F47C1048600846406840F452
:10064000E81048600846006840F08070086000BF0D
:100650000C48006800F000700028F9D00948406894
:1006600020F00300074948600846406840F0020057
:10067000486000BF0348406800F00C000828F9D12A
:100680000CBD000000100240002002407047000036
:1006900010B51348006840F0010011490860084691
:1006A0004068104908400E494860084600680E49F5
:1006B00008400B4908600846006820F48020086064
:1006C0000846406820F4FE0048604FF41F00886030
:1006D000FFF767FF4FF000600449086010BD00009D
:1006E000001002400000FFF8FFFFF6FE08ED00E0FA
:1006F00010B50121880700F030F818B101218807F2
:1007000000F00DF810BD21B1028842F08002028095
:1007100004E002884FF67F731A4002807047CA4394
:100720000282704721B1028842F00102028004E097
:1007300002884FF6FE731A400280704731B1B0F85C
:10074000442042F40042A0F8442005E0B0F84420E0
:10075000C2F30E02A0F84420704730B502460020D4
:1007600000230024158A05EA0103958905EA01049E
:1007700013B10CB1012000E0002030BD70B50024A1
:1007800000220023058C4FF6FE7635400584028C4E
:100790008388048B4FF68F752C40B51E2C400D8836
:1007A0002C43751E2A400D892A434D882A43144D37
:1007B000A8420BD0134DA84208D0134DA84205D033
:1007C000124DA84202D0124DA84213D14FF6F77530
:1007D0002A404D892A434FF6FB752A408D882A43CB
:1007E0004FF6FF652B404FF6FF552B408D892B436D
:1007F000CD892B4383800483CD888586028470BD98
:10080000002C014000340140004001400044014000
:10081000004801400A460021018B4FF6F77319404A
:10082000114301837047000070B5002400220023AB
:10083000058C4FF6EF7635400584028C8388048B57
:1008400048F6FF752C404FF6FF452C400D884FF6BB
:10085000FF7606EA05252C434FF6DF752A400D8901
:1008600006EA05152A434D8806EA05152A43154D63
:10087000A84202D0144DA8421DD14FF67F752A40E0
:100880004D894FF6FF7606EA05152A434FF6BF75E8
:100890002A408D8806EA05152A434FF6FF352B407E
:1008A0004FF2FF752B408D8906EA85052B43CD89D4
:1008B00006EA85052B4383800483CD88058702845F
:1008C00070BD0000002C0140003401400A460021A8
:1008D000018B4FF2FF7319404FF6FF7303EA0223B7
:1008E000194301837047000070B5002400220023E3
:1008F000058C4FF6FF6635400584028C8388848B17
:100900004FF68F752C404FF6FC752C400D882C430C
:100910004FF6FF552A400D894FF6FF7606EA05256A
:100920002A434D8806EA05252A43154DA84202D0E0
:10093000144DA8421DD14FF2FF752A404D894FF644
:10094000FF7606EA05252A434FF6FF352A408D88B3
:1009500006EA05252A434EF6FF752B404DF6FF7536
:100960002B408D8906EA05152B43CD8906EA05152E
:100970002B4383808483CD888587028470BD0000EB
:10098000002C0140003401400A460021818B4FF6C3
:10099000F7731940114381837047000000220288D9
:1009A0001D4B98420ED01D4B98420BD0B0F1804F9A
:1009B00008D01B4B984205D01A4B984202D01A4BD4
:1009C000984204D14FF68F731A404B881A43174B45
:1009D000984207D0164B984204D04FF6FF431A4076
:1009E000CB881A4302808B8883850B8803850A4B4A
:1009F00098420BD0094B984208D00E4B984205D034
:100A00000D4B984202D00D4B984201D10B7A0386D0
:100A10000123838270470000002C01400034014014
:100A20000004004000080040000C0040001000409E
:100A300000140040004001400044014000480140D3
:100A40004FF6FF71818000210180C18041800172D9
:100A50007047000010B540F225511D4800F0CCF859
:100A600010B31B4800F084F9C4B21A48007800F0B3
:100A70008000C8B91748007800F0400060B10A2C27
:100A800003D000201349087020E01248007840F09D
:100A900080001049087019E00D2C06D10D4800782F
:100AA00040F040000B49087010E00A48007800F060
:100AB0003F0009490C5407480078401C054908705C
:100AC000084600783F2801DD0020087010BD0000B6
:100AD000003801401C0000202000002010B586B026
:100AE000044601210820FFF7E1FC01218804FFF7FB
:100AF000CDFC4FF40060ADF8140004208DF8170011
:100B000005A91848FFF723FB4FF48060ADF81400E7
:100B100003208DF8160018208DF8170005A911483C
:100B2000FFF715FB01940020ADF80800ADF80A00AE
:100B3000ADF80C00ADF810000C20ADF80E0001A9C6
:100B4000094800F0A9F8012240F22551064800F0BA
:100B50007DF800F023F80121034800F041F806B0C9
:100B600010BD0000000C01400048004010B540F2EC
:100B70002551094800F040F838B1074800F0F8F86E
:100B8000C4B22146044800F0F8F840F2255102486A
:100B900000F017F810BD00000048004008B52720FD
:100BA0008DF8000001208DF803008DF801008DF80C
:100BB00002004FF4A060FFF7FFFB6846FFF7C4FB9D
:100BC00008BD10B50022002340F66A14A14200D1EE
:100BD00000BF0A1201249440A3B2DC43048010BD7C
:100BE00021B1828942F40052828104E082894DF66B
:100BF000FF731A408281704770B5024600240023BB
:100C00000025002040F66A16B14200D100BFC1F3B2
:100C1000421501F01F03012606FA03F3012D02D14C
:100C20009689334006E0022D02D1168A334001E056
:100C3000968A33400C12012606FA04F416883440D2
:100C400013B10CB1012000E0002070BDF0B50346E7
:100C5000002400260025002040F66A17B94200D182
:100C600000BF1846C1F3421401F01F06012707FA1E
:100C700006F5012C01D10C3004E0022C01D110301A
:100C800000E014301AB107682F43076002E00768DC
:100C9000AF430760F0BD00002DE9F04786B0054680
:100CA0000E460024A24600BFA1460027B08900B12D
:100CB00000BF2F462C8A4CF6FF700440F088044396
:100CC0002C82AC894EF6F3100440B0883189084379
:100CD000718908430443AC81AC8A4FF6FF4004405D
:100CE000B0890443AC8201A8FFF7F0FB1F4887429C
:100CF00002D1DDF810A001E0DDF80CA0A88900F415
:100D0000004040B10AEBCA0000EB0A10316849000C
:100D1000B0FBF1F807E00AEBCA0000EB0A103168FB
:100D20008900B0FBF1F86420B8FBF0F00401200961
:100D3000642101FB1089A88900F4004040B13220F1
:100D400000EBC900B0FBF1F000F00700044308E03D
:100D5000322000EB09106421B0FBF1F000F00F002D
:100D600004432C8106B0BDE8F08700000038014044
:100D700001468888C0F308007047C1F308028280EA
:100D8000704700BFFEE702E008C8121F08C1002A32
:100D9000FAD170477047002001E001C1121F002AFC
:100DA000FBD170474FF0E021096921F004014FF0B9
:100DB000E0221161C21700EB5272C2F3C702074B67
:100DC0001A701946097801EB4102C2EBC1114FF6C6
:100DD000FF7202EAC101024A11807047140000202C
:100DE0001600002001460D4A12784A434FF0E023D6
:100DF0005A6100229A6101221A6100BF4FF0E0227D
:100E0000106900F001021AB100F48032002AF5D016
:100E100000224FF0E0231A619A617047140000200D
:100E20004820FFF7BFFF4FF4E130FFF757FEFFF711
:100E300065FA41F61F410020FFF7C8FA0121434837
:100E4000FFF710FA81E00120414908600020414984
:100E5000C1F890013E49083908603F49C1F8BC011A
:100E60004FF4FA70FFF7BEFF0120394908600020F7
:100E7000091F08600120091F086000203649C1F8D9
:100E8000BC014FF4FA70FFF7ADFF00203049086055
:100E9000091F08600120091F086000202E49C1F8C1
:100EA000BC014FF4FA70FFF79DFF0020284908604D
:100EB0000120091F0860091F086000202649C1F8A9
:100EC000BC014FF4FA70FFF78DFF00202049086045
:100ED0000120091F08600020091F08601E49C1F891
:100EE000BC014FF4FA70FFF77DFF0020184908603D
:100EF0000120091F08600020091F08600120164911
:100F0000C1F8BC014FF4FA70FFF76CFF00201049E4
:100F10000860091F0860091F086001200E49C1F818
:100F2000BC014FF4FA70FFF75DFF0120084908602B
:100F30000020091F0860091F086001200649C1F848
:100F4000BC014FF4FA70FFF74DFF7CE70002300060
:100F50009481214200802142000021427C0F000840
:100F60000000002020000000860D00089C0F0008F3
:100F70002000002040040000960D00080000000042
:100F8000010203040102030406070809020406081B
:0C0F900000000000000000000000000055
:04000005080000ED02
:00000001FF
