:020000040800F2
:1000000018080020A9010008C519000845180008B3
:10001000ED18000879150008172A000800000000F4
:10002000000000000000000000000000F11E0008B9
:100030007D15000800000000891C0008452000080C
:10004000C3010008C3010008C3010008C301000880
:10005000C3010008C3010008C3010008C301000870
:10006000C3010008C3010008C3010008C301000860
:10007000C3010008C3010008C3010008C301000850
:10008000C3010008C3010008C3010008C301000840
:10009000C3010008C3010008C3010008C301000830
:1000A000C3010008E9220008C3010008C3010008D9
:1000B000C3010008C301000865240008C30100084B
:1000C000C3010008C3010008C3010008C301000800
:1000D000C3010008F5270008C3010008C301000898
:1000E00081150008C3010008C301000800F002F8F0
:1000F00000F04AF80AA090E8000C82448344AAF178
:100100000107DA4501D100F03FF8AFF2090EBAE875
:100110000F0013F0010F18BFFB1A43F0010318473B
:10012000B8350000D8350000103A24BF78C878C12F
:10013000FAD8520724BF30C830C144BF04680C60ED
:10014000704700000023002400250026103A28BF35
:1001500078C1FBD8520728BF30C148BF0B60704739
:10016000662903F06C82642900F0808000207047CB
:100170001FB500F035FB04000020002102F070FDE7
:10018000E0601FBD10B510BD00F046FC1146FFF742
:10019000EFFF02F0E9FC00F064FC03B4FFF7F2FFAC
:1001A00003BC02F063FC000009488047094800478F
:1001B000FEE7FEE7FEE7FEE7FEE7FEE7FEE7FEE717
:1001C000FEE7FEE704480549054A064B7047000074
:1001D00049200008ED00000818020020180800203F
:1001E0001804002018040020704700000FB40449D0
:1001F00010B503AA029800F0E1FA10BC5DF814FBF8
:10020000180000202DE9F0410E460446002020622F
:100210002046E168884730B3252805D0D4E901217C
:100220009047206A401CF2E7E16820460027884793
:10023000050018D0A5F14100192802D820354FF447
:1002400000673246294620462760FFF789FF40B104
:10025000012804D0F61D26F007060836D8E7361D1B
:10026000D6E72846DAE7206ABDE8F0812DE9F041BB
:100270000646002410687529314616A510D0AFF344
:100280000080002802DA404213A507E031688A079F
:1002900001D512A502E0490704D511A5012401E00A
:1002A000AFF3008000210A2206F1240709E0B0FB29
:1002B000F2FCB0FBF2F302FB1C003030785418461D
:1002C000491C0028F3D123462A463046BDE8F041B8
:1002D00000F00CB8000000002D0000002B00000012
:1002E0002000000070477047704770472DE9F047C5
:1002F0000D4699469246044600F124080168880696
:1003000004D5E06921F01001216000E00120A8423D
:1003100001DD471B00E00027A1697A1902EB090003
:10032000081AA0612078C00602D42046AFF30080EE
:10033000002608E0D4E901211AF806009047206A57
:10034000401C761C20624E45F4DB2078C0060AD59E
:100350002046AFF3008006E0D4E901213020904729
:10036000206A401C2062381EA7F10107F4DC07E078
:10037000D4E9012118F805009047206A401C20624A
:10038000281EA5F10105F3DC2046AFF3008020789C
:10039000000602D50220BDE8F0870120FBE7704788
:1003A0002DE9FF4F0C461E464FF0FF378BB0D2E9C8
:1003B0000001DDF860800A908A46C1F30A5505B94C
:1003C0003D46002108464FF00000BAF1000F00F44E
:1003D000400005DA00EB80004FF4400101EA5000D4
:1003E0004FEA9059B9F1010F00DDB9460A9850EA79
:1003F0004A000ED044F61050A5F2FF3545432F14A5
:10040000B8F1000F1ED07542291E1EDDC9F1000291
:100410001CE0B8F1010F4FF0000001D0302103E0E3
:10042000F24305E02154401CB042FBDB3046002281
:10043000002121540B99C1F80880C1E900200FB0B8
:10044000BDE8F08FBD1B6D1CDEE74A4600DA69424D
:1004500006A800F067FA06AB93E8070003AB83E851
:10046000070050460A9900F045FB8DE80700A0F50B
:1004700000501F3800900398002D0ADD42F21F0142
:100480004A460844002303A90390684600F0AEFDE5
:1004900009E0A0F500504A461F38002303A9039045
:1004A000684600F0B8FD8DE807000004000C03D09A
:1004B0004FF0FF30410800E01046B8F1000F03D0C4
:1004C0000022009215461EE0751E05D400F08CF93E
:1004D000303262556D1EF9D5B3460122084302D071
:1004E00000227F1C04E02078302801D100227F1EEA
:1004F000002A099784D01DE0112D07DA00F074F965
:10050000303262556D1C50EA0102F5D1084302D029
:100510000098C8B10EE00021681E05E0235C625C13
:1005200063542254401E491C8142F7DBAB46A81B92
:10053000401E0990002004F80B000B98099AC0F89F
:100540000880C0E9002B7AE711264FF0000857E732
:100550002DE9F04F88460446D21D22F0070191B0E4
:10056000D1E90001CDE90A0102F06CFA02460B98CC
:10057000C00F01D02D2007E02068810701D52B2076
:1005800002E0202101EAC000032A099001D0072AD5
:1005900005DB03464146204600F084F90BE1207854
:1005A000800601D5E06900E00620B8F1650F8146BC
:1005B00006D0B8F1660F18D0B8F1670F70D131E0EE
:1005C0000020B9F1110F009001DB112301E009F1C6
:1005D00001030AAA01A90CA8FFF7E2FEDDE90C70ED
:1005E000002609F10105834647E001204B460090B3
:1005F0004FF000470AAA01A90CA8FFF7D1FEDDE9D8
:100600000DB00C995D46002610B909F101000D18D6
:10061000B9EB050003D4C0F1FF3609F10105A5EBE4
:1006200009002BE0B9F1010F01DA4FF001090020B8
:10063000B9F1110F0090484601DD112300E0034697
:100640000AAA01A90CA8FFF7ABFEDDE90C704D4624
:1006500000268346207800070AD4AB4500DA5D46C1
:1006600001A8012D04DD411911F8011C302907D022
:100670004F4502DA17F1040F04DA012082460FE039
:100680006D1EEEE7002F02DCED1B3E4403E0781CFC
:10069000A84200DD7D1CB81B00F1010A4FF00047A5
:1006A0002078000703D4AA4501DB4FF0FF3A002170
:1006B000B7F1004F0DF143088DF8431024D002200C
:1006C0002B23002F01DA7F422D230A21021EA0F1E5
:1006D000010000DC5FB197FBF1FC97FBF1F201FB3D
:1006E0001C7C17460CF1300C08F801CDEEE7A8F1A0
:1006F000010003702188090501D5452100E065212D
:10070000A0F1010800F8011C09980FA9A1EB080746
:10071000FF1D00B10120411901EBEA70A1693844C5
:10072000081A401EA0612078C00602D42046AFF30C
:100730000080099828B1D4E901219047206A401C23
:1007400020622078C00622D52046AFF300801EE04C
:10075000002E04DBB34502DD01A8805D00E03020FF
:10076000D4E901219047206A401C2062761CAAF13E
:1007700001005FEA000A0AD100F032F8C06801689F
:10078000405CD4E901219047206A401C2062281E69
:10079000A5F10105DCDC07E0D4E9012118F8010B23
:1007A0009047206A401C2062381EA7F10107F3DC45
:1007B0002046AFF30080032011B041E6074B70B52F
:1007C0000D467B4400F05BF80446284600F01CF917
:1007D00010B14FF0FF3070BD204670BD8723000080
:1007E00000487047D801002030B5B0F10A024FEA46
:1007F000900E71F100034EEA817EB0EB0E0061EBCA
:1008000091014FEA101E4EEA017E10EB0E0041EB03
:1008100011114FEA102E4EEA016E10EB0E0041EB63
:1008200011214FEA104E4EEA014E10EB0E0041EB43
:100830001141401841F100014FEAD00040EA4170F7
:100840004FEAD10110EB80054FEA810444EA90742D
:1008500044EB01046D1944EB0404521BA3414FF017
:10086000000348BF0A3200D530BD401C41F10001F1
:1008700030BD000001694A1C02610878704700B56C
:100880008FB0CDE901310021059105497944CDE9C9
:10089000031011466846FFF7B5FC0FB000BD00001D
:1008A000E5FFFFFF2DE9F0411F46044603260168DE
:1008B000072A01F4006004DB08B116A505E016A5BF
:1008C00003E008B115A500E015A521F01000206097
:1008D000A069C01EA0610FB1401EA0612046AFF309
:1008E00000804FB1D4E9012138469047206A401C6E
:1008F0002062C01C206206E0206AFAE7D4E90121E8
:1009000015F8010B9047761EF8D22046AFF3008011
:10091000BDE8F0814E414E006E616E00494E4600CA
:10092000696E66002DE9F047814616468AB0354863
:1009300078440DC88DE80D0032487844801C03AC23
:100940000DC884E80D0041F69B300844372190FB28
:10095000F1F290FBF1F5A5F1800501FB12041B3CBF
:1009600002D56442012000E00020DFF898A0804614
:100970000027FA44AAF1BE0A0EE0E0070AD0324688
:10098000684607EB470101230AEB810100F043FBB6
:100990008DE8070064107F1C002CEED1194F7F44B6
:1009A000AE3F19E0E80715D007EB04100DF1180A67
:1009B00090E80E008AE80E00C068F04201D1981954
:1009C00008903246012306A903A800F024FB03ABDC
:1009D00083E807006D10641C002DE3D14FF0010384
:1009E00032466946B8F1000F03A802D000F0FEFAC3
:1009F00001E000F010FBC9E90001C9F808200AB0C5
:100A0000BDE8F0878C2D0000007B00F0800070476F
:100A100000487047B80100207546FFF7F9FFAE4661
:100A200005006946534620F00700854618B020B5FA
:100A3000FFF7C8FBBDE820404FF000064FF000076D
:100A40004FF000084FF0000B21F00701AC46ACE876
:100A5000C009ACE8C009ACE8C009ACE8C0098D46E3
:100A6000704710B50446AFF300802046BDE8104043
:100A7000FFF793BB4FF0013C50F8042B51F8043BB7
:100A80009A4221D1A2EB0C03934313EACC1317D162
:100A900050F8042B51F8043B9A4215D1A2EB0C03F9
:100AA000934313EACC130BD150F8042B51F8043BB9
:100AB0009A4209D1A2EB0C03934313EACC13DBD087
:100AC0004FF00000704700BFD01A01BAB1FA81F1AF
:100AD00001F0180122FA01F0CB40C1F12001DBB294
:100AE000C0B2C01A2CFA01F3D11A914311EAC31112
:100AF000E6D170475FEA400C08BF91F0000F4FEA63
:100B00008C234FEAC12243EA51514FEA1C5018BFCF
:100B100000F5F0404FEA300018BF41F000415FEAB5
:100B20006C5C00F02980BCF1FF3F08BF40F08040C2
:100B30007047130C06BF12044FF0100C4FF0000C5E
:100B4000130E04BF12020CF1080C130F04BF1201A4
:100B50000CF1040C930F04BF92000CF1020CD30FA4
:100B600004BF52000CF1010C11464FF00002A0F13D
:100B70001F00A0EB0C00704711F0004F08BF70473A
:100B800031F000413FF4D5AF0B0C06BF09044FF024
:100B9000100C4FF0000C0B0E04BF09020CF1080CF6
:100BA0000B0F04BF09010CF1040C8B0F04BF89006B
:100BB0000CF1020CCB0F04BF49000CF1010CCCF17D
:100BC0002003A0EB0C0022FA03F302FA0CF241EA34
:100BD000030100F10100704720F07F4C80EA030020
:100BE00023F07F47ACEB070303F57C5300F0004094
:100BF00003F1FF032DE980494FEA154B09B44FEA91
:100C0000144325EA0B4E24EA03480FF2042606EBB0
:100C1000132749083E785FEA320203FB0667C7F5EF
:100C2000000707FB06F64FEA54374FEAD64606F1AF
:100C3000020607FB066CCCF1005C4FEA1C472CEA6D
:100C4000074C07FB06F40CFB06F504EB15464FEAD0
:100C5000961634BF00204FF000404FEAD13706FB14
:100C600007FC4FEA1C4C0CFB0BF7D21B03FB0CF7E9
:100C700061EB07010CFB0EF7B0EB074072EB17427C
:100C80000CFB08F734BFA2EB0742B2EB074261EB63
:100C900017414FEA0C444FEA910706FB07FC4FEA65
:100CA0001C4C0CFB0BF7B0EBC74072EB573203FB4D
:100CB0000CF734BFA2EBC742B2EBC74261EB57312E
:100CC0000CFB0EF7B0EBC70072EB57720CFB08F78A
:100CD00034BFA2EBC702B2EBC70261EB5771039FAF
:100CE0004FEA816141EA921104EBCC044FEAD1371B
:100CF0004FEA826206FB07FC42EA90124FEA8060EC
:100D00004FEA1C4C0CFB0BF7D21B03FB0CF761EBFF
:100D100007010CFB0EF7B0EB074072EB17420CFB20
:100D200008F734BFA2EB0742B2EB074261EB174171
:100D30004FEA8C554FEA910704EB9C2406FB07FC15
:100D40004FEA1C4C0CFB0BF7B0EBC74072EB573271
:100D500003FB0CF734BFA2EBC742B2EBC74261EB17
:100D600057310CFB0EF7B0EBC70072EB57720CFB60
:100D700008F734BFA2EBC702B2EBC70261EB5771B1
:100D800015EB4C254FEA816141EA92114FEA8262EC
:100D90004FEAD13742EA901206FB07FC44F1000407
:100DA0004FEA80604FEA1C4C0CFB0BF7D21B03FB95
:100DB0000CF761EB07010CFB0EF7B0EB074072EB91
:100DC00017420CFB08F734BFA2EB0742B2EB074215
:100DD00061EB174115EB1C154FEA813141EA924155
:100DE0004FEA823242EA90424FEA80304FEA0C7674
:100DF00044F1000448EA03434EEA0B484FF0000E6A
:100E0000B2EB080C71EB030724BF624639464EEB88
:100E10000E0E4FF0000B0018524149414BEB0B0BEB
:100E2000B2EB080C71EB03077BF1000B24BF6246A9
:100E300039464EEB0E0E4FF0000B0018524149415F
:100E40004BEB0B0BB2EB080C71EB03077BF1000BC8
:100E500024BF624639464EEB0E0E51EA020718BF18
:100E600046F0010616EB0E7655F1000254F1000132
:100E700003D5BDE88901BDE80088BDE88901BDE86A
:100E80000048B619524141EB0101A3F1010370473B
:100E900080807F7E7D7C7B7A7978777676757473B7
:100EA000727171706F6E6E6D6C6C6B6A6A69686876
:100EB000676666656464636362616160605F5F5E0C
:100EC0005E5D5D5C5C5B5B5A5A5959585857575682
:100ED00056555555545453535252525151505050E7
:100EE0004F4F4F4E4E4D4D4D4C4C4C4B4B4B4A4A39
:100EF0004A4949494848484747474746464645457D
:100F000045444444444343434342424242414141B5
:100F1000002B9C4630D477002BD01CB54FEA370706
:100F200003B44FF010004FF01001BAF1000F06D0DB
:100F3000BCF1000FDCBF40F0080040F008014FF0AA
:100F400000000FBCBDE810400BF1010BBBF1010F1D
:100F500008BF5FEA170722BF12F1010211F1010178
:100F60004FF0004143F1000300F0004043EA00006D
:100F70007047F9D35708D0E746EA064613F1400F09
:100F80004FEA16461FDD13F1200FDFBF16430A4656
:100F9000002120335B42BED0C3F1200746EA06465B
:100FA00002FA07F74FEA164646EA0706C3F120079A
:100FB00022FA03F201FA07F721FA03F14FF00003D6
:100FC00042EA0702A7E746EA020646EA06464FEA71
:100FD000164646EA0106BCBF46EA0646360C4FF006
:100FE00000034FF000024FF0000194E72DE9804C20
:100FF0009A46934670B491E8380007C831EA400C2D
:1010000048BF34EA430C03D5FFF7E6FDFFF780FF46
:10101000F0BCBDE8008C2DE9804C9A46934670B434
:1010200091E8380007C810F0804F08BF13F0804FD8
:1010300003D100F005F8FFF76BFFF0BCBDE8008CB2
:1010400020F07F4780EA030023F07F4C07EB0C037E
:10105000A3F57C5300F00040A3F1FE0392F0000FD3
:1010600000F0B38095F0000F00F077802DE9014982
:101070004FEA11404FEA144621EA004800FB06FC03
:1010800024EA064708FB06F607FB08F800FB07F70B
:1010900018EB06484CEB164C4FEA124B18EB07487E
:1010A0004FEA15464CEB174022EA0B4E0BFB06FCB1
:1010B00025EA06470EFB06F607FB0EFE0BFB07F7BD
:1010C0001EEB064E4CEB164C4FF000061EEB074E87
:1010D0004CEB174B18EB0B0840F1000018EB0E0B14
:1010E00058EB000840F100008F1A4FF000013CBFA0
:1010F000C943661B14BFB5EB040C00213CBFC943B8
:10110000F61B4FEA17444EEA8E0E27EA04454FEAD3
:101110001C4704FB07622CEA074C05FB07F70CFB96
:1011200005F604FB0CFC16EB074642EB174216EBE8
:101130000C4642EB1C421BEB060658EB02024141F7
:1011400046EA9E0601D5BDE80189B619524141EB38
:101150000101A3F10103BDE801894FEA14454FEAFB
:10116000114724EA054621EA074C05FB07F406FB74
:1011700007F70CFB06F105FB0CFC11EB074144EBF8
:1011800017444FEA124711EB0C4144EB1C4422EA8E
:10119000074C05FB07F206FB07F70CFB06F605FB01
:1011A0000CFC16EB074642EB174216EB0C4642EBE3
:1011B0001C456A1854F1000148BF7047B6195241E6
:1011C00041EB0101A3F10103704795F0000F37D007
:1011D0004FEA11424FEA144721EA024624EA074C3B
:1011E00002FB07F106FB07F70CFB06F402FB0CFC05
:1011F00014EB074441EB17414FEA154714EB0C443D
:1012000041EB1C4125EA074C02FB07F506FB07F7FB
:101210000CFB06F602FB0CFC16EB074645EB1745EC
:1012200016EB0C4645EB1C42121951F1000148BF68
:101230007047B619524141EB0101A3F10103704718
:101240004FEA14454FEA114724EA054621EA074CC4
:1012500005FB07F106FB07F70CFB06F24FF0000653
:1012600005FB0CFC12EB074241EB174112EB0C4261
:1012700051EB1C4148BF7047921841EB0101A3F1AB
:101280000103704721B1826842F00102826003E0ED
:10129000826822F0010282607047000010B50446A7
:1012A0001248844208D10121401500F089FD002137
:1012B000601500F085FD17E00D48844208D101213A
:1012C000001500F07DFD0021201500F079FD0BE0F8
:1012D0000848844208D10121C80300F071FD0021B3
:1012E0004FF4004000F06CFD10BD000000240140F0
:1012F00000280140003C0140014600208A6802F0BD
:1013000004020AB1012000E0002070470146C86CC9
:1013100080B270470246002013680B400BB10120D9
:1013200000E000207047014600208A6802F00802B1
:101330000AB1012000E000207047000030B50246ED
:101340000020002350680F4C20400D790C6844EABF
:1013500005242043506090680B4C2040D1E9025492
:101360002C434D7944EA450420439060D06A20F430
:1013700070000C7C641EE4B2234340EA0350D06248
:1013800030BD0000FFFEF0FFFDF7F1FFF0B50446B1
:101390000D4600200021092D11DDE068A5F10A06A7
:1013A00006EB4607072606FA07F18843A5F10A0669
:1013B00006EB460603FA06F10843E0600CE02069FC
:1013C00005EB4507072606FA07F1884305EB4506B6
:1013D00003FA06F108432061072A0FDA606B561EF4
:1013E00006EB86071F2606FA07F18843561E06EB12
:1013F000860605FA06F10843606322E00D2A0FDA3B
:10140000206BD61F06EB86071F2606FA07F18843D6
:10141000D61F06EB860605FA06F10843206310E0A6
:10142000E06AA2F10D0606EB86071F2606FA07F111
:101430008843A2F10D0606EB860605FA06F108437D
:10144000E062F0BD816841F008018160704721B120
:10145000826842F4A002826003E0826822F4A00263
:1014600082607047816841F004018160704700002C
:1014700000B587B001214FF4017000F091FC4FF4EA
:10148000004000F071FC4820ADF8040000208DF809
:10149000070001A9174800F0D3F81748FFF7FEFE30
:1014A000002002908DF80C008DF80D004FF46020A4
:1014B00004900020059001208DF8180002A90E4824
:1014C000FFF73CFF01210C48FFF7DCFE0A48FFF75D
:1014D000B9FF00BF0848FFF726FF0028FAD10648E9
:1014E000FFF7C0FF00BF0448FFF706FF0028FAD14E
:1014F00007B000BD00080140002401402DE9F04183
:1015000004461649204602F025F81549086015489A
:1015100001681348006802F01DF813490860134879
:1015200001681148006801F049FF06460C4801684F
:101530000F48006801F042FF0746314601F094FE73
:10154000054601F0F3FE0B490860054800680549AF
:10155000086008480068BDE8F0810000007041455F
:10156000400000204400002048000020A40000208B
:10157000A00000204C00002000BFFEE770470000E4
:1015800010B5034800684FF4804000F003F810BD28
:1015900038012242014908607047000014040140EC
:1015A00000B587B00121042000F0EAFB01210820EA
:1015B00000F0F6FBC020ADF8000004208DF8030019
:1015C00069461D4800F03CF804A801F0DBF8002053
:1015D000ADF810004FF6FF70ADF814000020ADF824
:1015E0001600ADF8120004A9144801F079F80023A0
:1015F0001A460321114800F05FFF01A800F0E4FF44
:101600000A20ADF80C0001A90C4800F087FF012169
:101610000A4800F03FFF01221146084800F0DDFFB4
:1016200042F21071054801F02CF80121034800F046
:1016300037FF07B000BD0000000C0140000800406B
:101640002DE9F04102460025002600200023002459
:10165000002791F803C00CF00F0591F803C00CF0BF
:10166000100CBCF1000F03D091F802C04CEA050544
:1016700091F800C0BCF1000F31D0146800202BE0BD
:101680004FF0010C0CFA00F3B1F800C00CEA0306AD
:101690009E4220D183004FF00F0C0CFA03F7BC439D
:1016A00005FA03FC4CEA040491F803C0BCF1280FCE
:1016B00006D14FF0010C0CFA00FCC2F814C00AE08D
:1016C00091F803C0BCF1480F05D14FF0010C0CFAA2
:1016D00000FCC2F810C0401C0828D1D31460B1F837
:1016E00000C0BCF1FF0F34DD546800202EE000F193
:1016F000080C4FF0010808FA0CF3B1F800C00CEA2E
:1017000003069E4221D183004FF00F0C0CFA03F721
:10171000BC4305FA03FC4CEA040491F803C0BCF195
:10172000280F05D100F1080C08FA0CF8C2F8148053
:1017300091F803C0BCF1480F07D100F1080C4FF03D
:10174000010808FA0CF8C2F81080401C0828CED313
:101750005460BDE8F0810246002093680B400BB155
:10176000012000E000207047416170470AB101612B
:1017700000E041617047000010B50446062C06D118
:101780000723012221460D48FFF700FE07E0032C46
:1017900005D10023012221460848FFF7F7FD01216A
:1017A0000648FFF754FE00BF02210448FFF7B2FDD0
:1017B0000028F9D00148FFF7A9FD10BD0024014021
:1017C0002DE9F04107460C460025002608E0384682
:1017D000FFF7D2FF0544C82001F092F9701CC6B291
:1017E000A642F4DBB5FBF4F080B2BDE8F081000066
:1017F00070B510480068401C0E490860052817DDC8
:101800000D4801680D48006801F0A4FE064601F08D
:101810008DFD054600F042F8044601F0A3FD08499D
:101820000860064800680449086000200149086013
:1018300070BD000080000020840000209C0000207B
:101840007000002000BFFEE708B50121102000F065
:10185000A7FA4FF48040ADF8000048208DF803004F
:1018600069460248FFF7ECFE08BD00000010014089
:1018700008B50121102000F093FA10208DF8030024
:10188000C002ADF8000003208DF80200694602484E
:10189000FFF7D6FE08BD00000010014070B50346FA
:1018A0000022012108E0104830F81150481E0E4E69
:1018B00026F81050481CC1B20429F4DB18B20A4DB6
:1018C000E880002105E0084830F911000244481C76
:1018D000C1B20429F7DB1046D51702EB9575AD10A0
:1018E0002CB2204670BD0000D800002000BFFEE7EB
:1018F00008B50121082000F053FA4FF44050ADF82C
:10190000000010208DF8030003208DF802006946C6
:101910000448FFF795FE4FF440510248FFF724FFBB
:1019200008BD0000000C014030B589B005460C46EA
:10193000FFF7DEFF0121022000F022FA012108203A
:1019400000F02EFA0220ADF8200018208DF82300B8
:1019500003208DF8220008A91848FFF771FEADF8A2
:101960001850ADF814400120ADF81A000020ADF871
:10197000160005A9124800F0B3FE6020ADF804007F
:101980000120ADF806000020ADF80A00ADF80C000B
:101990004FF40070ADF8120001A9094800F026FECE
:1019A0000821074800F060FE0121054800F066FDAF
:1019B0000121034800F074FD09B030BD000C014066
:1019C000000400407047000070B5002100230F2282
:1019D000C47804B3154C246804F4E064C4F5E064EE
:1019E000210AC1F10403CA40447804FA03F184785F
:1019F0001440214309010E4C0678A155047804F0E7
:101A00001F050124AC4005786D11AD0005F1E025FE
:101A1000C5F8004109E0047804F01F050124AC403A
:101A2000044D0678761145F8264070BD0CED00E0B7
:101A300000E400E080E100E002490143024A116055
:101A4000704700000000FA050CED00E070B50024BE
:101A50000EE00021204600F0E6F8002504E000201A
:101A600000F002F9681CC5B2802DF8DB601CC4B21E
:101A7000082CEEDB70BD000008B50121082000F045
:101A80008FF914208DF8030003208DF802004FF425
:101A90008070ADF8000069460A48FFF7D1FD4FF4A9
:101AA0000070ADF8000069460648FFF7C9FD012245
:101AB00011020448FFF75AFE012251020148FFF7C4
:101AC00055FE08BD000C014070B50546002415E028
:101AD0008020204100EA05024FF400710E48FFF714
:101AE00045FE012211020C48FFF740FE00224FF490
:101AF00080710948FFF73AFE601CC4B2082CE7DB8E
:101B0000012211020448FFF731FE00224FF48071D8
:101B10000148FFF72BFE70BD000C014010B50122FB
:101B200051020A48FFF722FE012211020748FFF77F
:101B30001DFE00224FF400710448FFF717FE00223B
:101B40004FF480710148FFF711FE10BD000C0140F9
:101B500010B500224FF400710648FFF707FE01227E
:101B600011020448FFF702FE012251020148FFF76B
:101B7000FDFD10BD000C014070B5002406E00025FD
:101B800000E06D1CB5F57A7FFBD3641CB4F57A7F59
:101B9000F5D3FFF771FFAE2000F056F8D52000F026
:101BA00053F8802000F050F8A82000F04DF83F20B6
:101BB00000F04AF8D32000F047F8002000F044F885
:101BC000402000F041F8A12000F03EF8C82000F0CD
:101BD0003BF8DA2000F038F8122000F035F88120C8
:101BE00000F032F8CF2000F02FF8D92000F02CF8C8
:101BF000F12000F029F8DB2000F026F8302000F07A
:101C000023F8A42000F020F8A62000F01DF88D2075
:101C100000F01AF8142000F017F8AF2000F014F8C4
:101C2000FFF714FF70BD70B505460C4645F0B000D7
:101C300000F00AF8102141EA141000F005F804F051
:101C40000F0000F001F870BD10B50446FFF766FF05
:101C50007820FFF739FF0020FFF736FF2046FFF717
:101C600033FFFFF775FF10BD10B50446FFF756FFB1
:101C70007820FFF729FF4020FFF726FF2046FFF7D7
:101C800023FFFFF765FF10BD704700002DE9FC47FB
:101C900082462A490968AAEB010001F063FB284942
:101CA00008602848006801F0B3FA0446264A274B2A
:101CB00001F0C6F8064600F0E9FF22490860204816
:101CC000006801F0A5FA06461F4A214B01F0B8F85A
:101CD00004460D461B48006801F09AFA80462246E9
:101CE0002B4601F005F8CDE9000100F0CFFF1549C2
:101CF0000860184801681348006801F02BFC164979
:101D000008601048006813490860144801681248C8
:101D1000006801F053FB0446114801680948006857
:101D200001F04CFB0546214601F09EFA0D49086082
:101D30000846006801F0FAFABDE8FC879000002030
:101D400060000020580000209A9999999999E93FDC
:101D50009999C93F540000205C000020AC0000208D
:101D6000A80000205000002001460020034A5068CF
:101D700020F44040084350607047000000100240CB
:101D800029B1064AD2690243044BDA6104E0034AEE
:101D9000D2698243014BDA617047000000100240B3
:101DA00029B1064A92690243044B9A6104E0034A4E
:101DB00092698243014B9A61704700000010024013
:101DC00029B1064AD2680243044BDA6004E0034AB0
:101DD000D2688243014BDA60704700000010024075
:101DE00030B500210022002400232D4D6D6805F040
:101DF0000C0121B1042905D0082923D105E0294D82
:101E0000056022E0274D05601FE0254D6D6805F453
:101E10007012234D6D6805F48034022505EB924263
:101E20001CB9214D554305600BE01D4D6D6805F44F
:101E300000351DB11C4D5543056002E0194D554359
:101E4000056002E0174D056000BF00BF144D6D68CE
:101E500005F0F0010909154D6B5C0568DD40456032
:101E60000F4D6D6805F4E061090A104D6B5C456823
:101E7000DD4085600A4D6D6805F46051C90A0B4D5F
:101E80006B5C4568DD40C560054D6D6805F44041FB
:101E9000890B074D6B5CC568B5FBF3F5056130BD7B
:101EA0000010024000127A0000093D0000000020EE
:101EB000100000200146022904D0032907D004297C
:101EC0000DD108E04FF08042928C10B209E0064A32
:101ED000128810B205E0054A128810B201E0002015
:101EE00000BF00BF704700002404004024080040E9
:101EF000704710B500F002F810BD00000CB50020CE
:101F0000019000903348006840F480303149086007
:101F100000BF3048006800F4003000900198401C79
:101F20000190009818B90198B0F5A06FF1D1294837
:101F3000006800F4003010B10120009001E00020A2
:101F400000900098012843D12348006840F0100019
:101F5000214908600846006820F003000860084630
:101F6000006840F0020008601A484068194948605B
:101F70000846406848600846406840F48060486011
:101F80000846406820F47C1048600846406840F4E9
:101F9000E81048600846006840F08070086000BFA4
:101FA0000C48006800F000700028F9D0094840682B
:101FB00020F00300074948600846406840F00200EE
:101FC000486000BF0348406800F00C000828F9D1C1
:101FD0000CBD0000001002400020024000B5024687
:101FE000002A07DA01200A49086000200949C1F8DF
:101FF000B40106E000200649086001200549C1F847
:10200000B401104600F0D4FD0349088000BD000073
:10201000B08121420080214240040040042808D1C0
:102020004FF0E021096941F004014FF0E022116115
:1020300007E04FF0E021096921F004014FF0E022B0
:10204000116170477047000010B51348006840F0F8
:1020500001001149086008464068104908400E49CF
:102060004860084600680E4908400B490860084669
:10207000006820F4802008600846406820F4FE00D4
:1020800048604FF41F008860FFF733FF4FF0006097
:102090000449086010BD0000001002400000FFF875
:1020A000FFFFF6FE08ED00E0F0B50C4615460022F5
:1020B0000021068C4FF6FE773E400684028B018C91
:1020C0004FF60C7632407E1C06EA03162E4332434E
:1020D000104EB0420ED0104EB0420BD0B0F1804F37
:1020E00008D00E4EB04205D00D4EB04202D00D4E7B
:1020F000B04206D14FF6FD76314044F0010631433F
:1021000005E04FF6F576314044F001063143028395
:102110000184F0BD002C0140003401400004004067
:1021200000080040000C0040F0B50C4615460022A7
:1021300000210026078C4FF6EF7C07EA0C07078486
:10214000028B018C4FF6FF7707EA041640F6FF4733
:102150003A404FF6FF7707EA03373A434FF6FF77E7
:1021600007EA05273A43114FB8420ED0104FB84244
:102170000BD0B0F1804F08D00E4FB84205D00E4FB3
:10218000B84202D00D4FB84206D14FF6DF77394042
:1021900046F01007394305E04FF65F77394044F0C9
:1021A0001007394302830184F0BD0000002C014078
:1021B000003401400004004000080040000C0040D2
:1021C000F0B50C461546002200210026078C4FF67C
:1021D000FF6C07EA0C070784828B018C4FF6FF77B0
:1021E00007EA04264FF60C773A404FF6FF7707EAE6
:1021F00003172F433A43114FB8420ED0104FB84245
:102200000BD0B0F1804F08D00E4FB84205D00E4F22
:10221000B84202D00D4FB84206D14FF6FF573940B1
:1022200046F48077394305E04FF2FF57394044F4D4
:102230008077394382830184F0BD0000002C014087
:10224000003401400004004000080040000C004041
:10225000F0B50C461546002200210026078C4EF6EC
:10226000FF7C07EA0C070784828B018C4FF6FF770F
:1022700007EA043640F6FF473A404FF6FF7707EA91
:1022800005273A434FF6FF7707EA03373A43114FE2
:10229000B8420ED0104FB8420BD0B0F1804F08D0EA
:1022A0000E4FB84205D00E4FB84202D00D4FB84283
:1022B00006D14DF6FF77394046F48057394305E0A3
:1022C00047F6FF57394044F48057394382830184ED
:1022D000F0BD0000002C014000340140000400402B
:1022E00000080040000C004070B50121464800F095
:1022F00004F900287ED00121434800F0CEF80420E4
:10230000FFF7D8FD414908600A210320FFF758FA7A
:10231000044601F03FF83E490860FFF769FA3B4880
:10232000006842F61861884201DD012000E00020CB
:102330003649096842F20802914201DA012100E0BF
:102340000021084328B10020FFF748FE0120314951
:10235000087030480078002837D12D480068FFF712
:10236000CDF82D4908602D480078401CC0B22B499B
:102370000870042808DD25480068FFF787FC284915
:10238000086000202549087023480068244909682E
:10239000401A244908602048016823A0FDF726FF61
:1023A0002348006800F034FF044622460B4621A073
:1023B000FDF71CFF1B48016821A0FDF717FF00F087
:1023C0002DFB18480068FFF709FE4FF480412048B4
:1023D000FFF7C1F970B9642000F06CFB1D491E487D
:1023E000006800F041FF1C4908600846006800F0E2
:1023F0000FFF00E005E0044622460B4617A0FDF75C
:10240000F5FE002070BD0000002C01408C00002073
:102410009C00002068000020340000203C000020C8
:1024200038000020940000206A2E2564202000003F
:1024300050000020772E256620202020000000007C
:102440006D6F746FA3BA25642020200D0A00000070
:10245000001001400000A040AC00002025662020B4
:1024600000000000044800880348008820F00100B4
:1024700001490880704700001008004021B102881F
:1024800042F08002028004E002884FF67F731A4017
:1024900002807047CA4302827047CA430282704773
:1024A00021B1028842F00102028004E002884FF666
:1024B000FE731A4002807047F0B50C4615461E4662
:1024C0000021002200230189028B038C4FF6F8774C
:1024D000394021434FF6FC473A4040F201173A4356
:1024E0004FF6DD773B404FF6FF7707EA06172F439D
:1024F0003B43018102830384F0BD30B502460020D6
:1025000000230024158A05EA0103958905EA0104E0
:1025100013B10CB1012000E0002030BD70B50546BC
:102520000C46244885420ED0234885420BD0B5F195
:10253000804F08D02148854205D02148854202D0ED
:102540002048854200D100E000BF208850B923898F
:10255000A28861882846FFF7A7FDE188284600F099
:1025600092F825E0208804280AD12389A28861886E
:102570002846FFF7D9FDE188284600F08DF817E0DE
:10258000208808280AD12389A28861882846FFF775
:1025900017FEE188284600F08CF809E02389A2881C
:1025A00061882846FFF754FEE188284600F08AF843
:1025B00070BD0000002C01400034014000040040C8
:1025C00000080040000C00400021018041800121F2
:1025D00081800021C180018170471AB183890B433A
:1025E000838102E083898B438381704770B5002229
:1025F00000230024058C4EF6FF7635400584038CBD
:102600008488828B48F6FF752A404FF6FF452A40A2
:102610000D884FF6FF7606EA05252A434DF6FF752D
:102620002B400D8906EA05352B434D8806EA053512
:102630002B430B4DA84202D00A4DA84208D14BF6BD
:10264000FF752C408D894FF6FF7606EA85152C43E1
:1026500084808283CD88A0F84050038470BD000040
:10266000002C0140003401400A460021818B4FF2CA
:10267000FF7319404FF6FF7303EA02231943818366
:10268000704781847047028B4FF6F3731A400283C0
:10269000028B0A4302837047028B4FF2FF331A40CA
:1026A0000283028B4FF6FF7303EA01231A4302836E
:1026B0007047828B4FF6F3731A408283828B0A43F2
:1026C00082837047828B4FF2FF331A408283828B62
:1026D0004FF6FF7303EA01231A4382837047000019
:1026E000002202881D4B98420ED01D4B98420BD001
:1026F000B0F1804F08D01B4B984205D01A4B98423E
:1027000002D01A4B984204D14FF68F731A404B886F
:102710001A43174B984207D0164B984204D04FF6F5
:10272000FF431A40CB881A4302808B8883850B882D
:1027300003850A4B98420BD0094B984208D00E4BA8
:10274000984205D00D4B984202D00D4B984201D1D2
:102750000B7A03860123838270470000002C01401E
:10276000003401400004004000080040000C00401C
:1027700000100040001400400040014000440140AF
:10278000004801404FF6FF71818000210180C18027
:1027900041800172704700007FB505460C4601215B
:1027A000C802FFF7FDFAADF80850ADF8044000206C
:1027B000ADF80A00ADF8060001A90D48FFF790FF3B
:1027C000012211460A48FFF708FF19208DF8000082
:1027D00001208DF803008DF8010003208DF8020020
:1027E0006846FFF7F1F801210148FFF759FE7FBD68
:1027F000002C014010B540F225511D4800F04AF868
:1028000010B31B4800F002F9C4B21A48008800F463
:102810000040C8B91748008800F4804060B10A2C15
:1028200003D000201349088020E01248008840F4BB
:1028300000401049088019E00D2C06D10D48008891
:1028400040F480400B49088010E00A480088C0F33B
:102850000D0009490C5407480088401C05490880B0
:1028600008460088C72801DD0020088010BD000050
:10287000003801401C000020F000002021B18289B6
:1028800042F40052828104E082894DF6FF731A40BF
:102890008281704770B50246002400230025002085
:1028A00040F66A16B14200D100BFC1F3421501F0F3
:1028B0001F03012606FA03F3012D02D19689334046
:1028C00006E0022D02D1168A334001E0968A334099
:1028D0000C12012606FA04F41688344013B10CB128
:1028E000012000E0002070BDF0B503460024002662
:1028F0000025002040F66A17B94200D100BF1846F3
:10290000C1F3421401F01F06012707FA06F5012C56
:1029100001D10C3004E0022C01D1103000E0143061
:102920001AB107682F43076002E00768AF430760EA
:10293000F0BD00002DE9F04786B005460E460024A4
:10294000A24600BFA1460027B08900B100BF2F46B4
:102950002C8A4CF6FF700440F08804432C82AC892A
:102960004EF6F3100440B08831890843718908435A
:102970000443AC81AC8A4FF6FF400440B089044365
:10298000AC8201A8FFF72CFA1F48874202D1DDF87C
:1029900010A001E0DDF80CA0A88900F4004040B1CF
:1029A0000AEBCA0000EB0A1031684900B0FBF1F8ED
:1029B00007E00AEBCA0000EB0A1031688900B0FB9F
:1029C000F1F86420B8FBF0F004012009642101FB58
:1029D0001089A88900F4004040B1322000EBC90002
:1029E000B0FBF1F000F00700044308E0322000EBF8
:1029F00009106421B0FBF1F000F00F0004432C81BA
:102A000006B0BDE8F0870000003801400146888824
:102A1000C0F30800704700BFFEE7000040F6B83082
:102A2000074909684242914202DA4142044A116070
:102A300003490968814201DD0149086070470000CF
:102A400094000020490050EAC12018BF04204A0D1C
:102A500018BF40F0010040F2FF72B2EB515F08BFB7
:102A600040F00200012808BF0520704700BF7047F2
:102A700010B56FF00400FFF7D1FA0A4800680A4960
:102A8000B0FBF1F0094908700846007800EB4001FE
:102A9000C1EBC0104FF6FF7101EAC0000449088085
:102AA00010BD00002000002000127A001400002059
:102AB000160000200146114A12884A434FF0E023D5
:102AC0005A6100229A611A46126942F001021A61A3
:102AD00000BF4FF0E022106900F001021AB100F4CB
:102AE0008032002AF5D04FF0E022126922F0010274
:102AF0004FF0E0231A6100229A617047160000200F
:102B00000146114A12784A434FF0E0235A610022ED
:102B10009A611A46126942F001021A6100BF4FF031
:102B2000E022106900F001021AB100F48032002A9C
:102B3000F5D04FF0E022126922F001024FF0E023BD
:102B40001A6100229A6170471400002000BF054AF4
:102B5000128802F04002002AF9D0C2B2014B1B1DBC
:102B60001A807047003801404FF4A060FEF764FF00
:102B7000FFF77EFF4FF47A70FFF79CFFFEF778FEB9
:102B8000FEF762FEFEF7F8FF4FF4E13000F018F8B0
:102B9000002141F61F40FEF7C7FEFEF701FDFEF7DC
:102BA00067FC41F61F413120FFF7F6FD00BFFEE74D
:102BB0000146002901DA484200E00846704700005B
:102BC00010B586B00446012144F20400FFF7E8F88E
:102BD0004FF40070ADF8140003208DF81600182093
:102BE0008DF8170005A91C48FEF72AFD4FF48060F8
:102BF000ADF8140004208DF8170005A91648FEF75B
:102C00001FFD25208DF8000003208DF801008DF8B0
:102C1000020001208DF803006846FEF7D5FE0194FE
:102C20000020ADF80800ADF80A00ADF80C00ADF8D2
:102C300010000C20ADF80E0001A90848FFF77AFE3D
:102C4000012240F225510548FFF74EFE01210348BD
:102C5000FFF714FE06B010BD000801400038014027
:102C600010B500290AD00878002807D00548784414
:102C7000FDF700FF002801D0002010BD0248784475
:102C800010BD00008A0A0000820A000021F0004204
:102C9000A2F16052B2F5801F01F0004328BFD2F1CB
:102CA0007F6C0BD95FEA001C43EAC20242EB507012
:102CB00018BF704728BF20F001007047B2F5801F91
:102CC000BCBF184670474FEA410C1CF5001F02D2EA
:102CD000084600F03ABC70B500F05CF900000089CD
:102CE000FFF7F6BF4FF00040A0F5800070470000EE
:102CF00010B591EA030F48BF83F0004300F1A681AD
:102D0000841A71EB030C05D2121943EB0C03001B60
:102D100061EB0C01DFF824E14FEA1154A4EB135CE2
:102D20001EEA430F18BF9EEA445F73D023EA0E03E6
:102D3000DCF1200E21EA045143F4801332D322FA4D
:102D40000CFE10EB0E0023FA0CFE41EB0E01CCF151
:102D5000200E03FA0EFE10EB0E0051F10001B1F54A
:102D6000801FCCF1200E32D201EB045112FA0EF288
:102D7000BDE8104058BF7047401C38BF5FEA4202B0
:102D800018BF7047002814BF20F0010041F1000176
:102D90004FEA410313F5001F38BF7047A1F1C0414E
:102DA00000F046B9012A43EB0302ACF1200CDCF140
:102DB0001F0E32BF4FF0000E23FA0CF310EB03008E
:102DC00041EB0451B4EB115FD0D0A1EB045101F5FC
:102DD000801149085FEA300001EB04510ED350F135
:102DE000000038BF12FA0EFE08D1BDE81040C9E756
:102DF000401C38BF5FEA4202CAD1C3E7BDE81040B9
:102E00004FEA410313F5001F38BF7047A1F1C041DD
:102E100000F00EB99EEA445F08D011EA5E0FBDE8EB
:102E2000104004BF01F0004100207047BDE8104091
:102E300070B500F0AFF800BF64FBBE3E0000E0FFDD
:102E4000DFF848C170B51CEA111E1EBF1CEA13153D
:102E50009EEA0C0F95EA0C0F00F06F8081EA0304E4
:102E600023EA4C134EEAD47E21EA4C1141F480113E
:102E700043F48013AE44A1FB024CA0FB0365AEF10A
:102E80007F7E361955EB0C05A1FB034C4CF100037A
:102E9000A0FB021C16EB0C06654153F1000309422E
:102EA00018BF46F0010613F4007F0BD14FEA03313F
:102EB0004FEA0530340341EA155140EA16506FF0ED
:102EC00003020AE04FEAC3214FEAC520F40241EAB7
:102ED000555140EA56506FF0020202EB2E4201EBD0
:102EE000025585EACE710AD05FEA440C18BF24F07F
:102EF000004450F1000041F1000120EAD47040F29A
:102F0000FE7C624500D270BDA84214BF4FF08044E1
:102F10004FF04044002E08BF0024BEF1806FA8BFD0
:102F2000A1F1C041BDE8704080F282804FF0000006
:102F300001F1C04101F0004170479EEA0C0F0CEA1C
:102F4000131518BF95EA0C0F06D04FF0000081EA68
:102F5000030E0EF0004170BD00F01CF88900013E28
:102F600000F007B800F009B84FEA430C5FEA5C5C78
:102F700008D081EA030100F05BB84FEA410C5FEA38
:102F80005C5CF6D14FF00000014970470000FF077C
:102F90000000F87F0EF1020E2EF0030E5EF8046BB7
:102FA000364205D4012A43EB030515F5001F12D85C
:102FB000012841EB010C1CF5001F0CD80ED14FEA83
:102FC000D17C15F5001F0CEB4C0C0CF1020C08BF6A
:102FD0004CEBD37C04E04FF0080C01E04FEAD37CCB
:102FE0000CEB4C0526FA05F606F00706B6F1040CC4
:102FF00006D20EEB860CBDE870404CF0010C604729
:10300000DFE80CF0090B02024FF000414FF0000026
:10301000A1F5002170BD19461046012851EB0104AD
:1030200018BFD4F5001484BF002001F0004170BD2A
:103030000808A0F500114FEA3101704710B591EA78
:10304000030F48BF83F000433FF55AAE841A71EB7B
:10305000030C07D212198CF0004C43EB0C03001B3D
:1030600061EB0C01DFF8A4E14FEA1154A4EB135C0F
:103070001EEA430F18BF9EEA445F00F0B08023EAC7
:103080006E03524221EA0451C3EB6E0338BF5B1E4C
:10309000DCF1200E25D322FA0CFE10EB0E0043FAD1
:1030A0000CFE41EB0E01CCF1200E03FA0EFE10EBEC
:1030B0000E0051F10001CCF1200E29D412FA0EF2CB
:1030C00001EB0451BDE8104058BF7047401C1CBFC5
:1030D000B2F1004F704700280CBF491C20F00100DE
:1030E000704712EB020E43EB030218BF4FF0010EC4
:1030F0004EEA4202ACF1200CDCF11E0E54D943FA28
:103100000CFE10EB0E0051F1FF31CCF11E0ED5D5A7
:103110000EF1010E12FA0EFE404141EB010101EBEE
:10312000445C5FEA5C5C10D910EBDE7001EB04518B
:1031300038BFBEF1004FBDE8104018BF70470028EF
:103140000CBF491C20F00100704730D24FEAD42C4C
:1031500011F5001124F400641BD0B1FA81F20B3A8E
:10316000A41AA41ED2F12003914030FA03F31943AC
:10317000904001EBCC71002C01EB0451BDE81040F4
:10318000A8BF704701F1C0414FF0000001F00041BD
:103190007047B0FA80F310FA03F100D110BDE41AC1
:1031A000173C4805C90AE4E701EB045110BD49107A
:1031B00001EB0451BDE810404FEA300002E04FF04F
:1031C000000170474A0008BF0042F8D0B2F5001F66
:1031D00028BF704701F000414FF0000070479EEAA1
:1031E000445F07D011EA5E0FBDE8104004BF002124
:1031F00000207047BDE8104070B5FFF7CBFE00BF60
:1032000040DFF63E83F00041104670470000E0FFCB
:1032100043004FEAD30C4FEA3C0C43401FBF40072A
:103220000CF1605113F0FE4F70471CF0006F03D19A
:1032300000200CF0004170470CF0004343EA50704E
:1032400010B540EACC0000F03AF900BF000000924F
:103250004FEA0001FFF7ECBE4FF000414FF00000D5
:10326000A1F500217047000090EA010F48BF81F0EE
:10327000004100F17681421A3CBF801A89184FEA5A
:10328000D0524FF07F4C1CEA410FA2EBD15318BF34
:103290009CEA026F00F03B804FF0004C4CEA0020AB
:1032A0004CEA012121FA03FC10EB0C0C1ED202F1B6
:1032B000FF325FEA1C2040EBC25038BF70471CF061
:1032C0007F0F4FEA400C18BFBCF17F4F38BF7047EB
:1032D000C3F12003994008BF20F00100BCF17F4FEB
:1032E00038BF7047A0F1C04000F02FB94FEA3C0052
:1032F000000A40EBC25028BF1CF0FF0F4FEA400C01
:10330000E6D018BFBCF17F4F38BF7047EAE79CEAB0
:10331000026F05D010EA5C0F08BF00F00040704754
:1033200010B500F0CCF800BF64FBBE3E41000B0EB0
:10333000D3F19E0208D950F400034FEA032323FA85
:1033400002F048BF4042704710B500F0B8F800BF27
:1033500049922480002070476FF0004282EA2000EA
:103360007047000010F0004148BF4042B0FA80F3BF
:1033700010FA03F2C3F19D030BD051EAC35101EBE4
:103380001220530638BF704700F1010008BF20F03B
:1033900001007047B0FA80F310FA03F2C3F19D0305
:1033A0000AD0D90501EB1220530638BF704700F14F
:1033B000010008BF20F00100704700004FF47F0CAF
:1033C0001CEAD0121EBF1CEAD11392EA0C0F93EA3A
:1033D0000C0F00F0478090EA010F48BF42F4807262
:1033E0004FF0004C4CEA00204CEA012102EB0302B2
:1033F000A0FB0113A2F50002002918BF43F001034E
:103400005B0028BF4FEA330342EB22425FEA132CF2
:103410004CEBC2502EBFBCEB436FB2F57C0F704734
:103420004FEA036CBCF1004F08BF20F00100B2F579
:103430007C0F38BF70470BD582F0FF0212F5803F3A
:10344000C8BF704700F1C040D8BF00F000407047CF
:1034500000F5000C5FEA4C0C48BF7047B0F1C0406B
:1034600000F073B890EA010F0CEAD11348BF42F4A0
:103470008072624538BF634504D280EA010000F0E3
:103480000040704710B500F01AF800BF8900013EF7
:1034900000F007B800F009B85FEA410C5FEA1C6C65
:1034A00008D080EA010000F050B85FEA400C5FEA03
:1034B0001C6CF6D14FF00040A0F5800070470EF173
:1034C000020E2EF0030E5EF8044B244204D44FEAA1
:1034D0004102B2F17F4F11D84FEA4003B3F17F4F61
:1034E0000CD80ED14FEAD07CB2F17F4F0CEB4C0CD4
:1034F0000CF1020C08BF4CEBD17C04E04FF0080C3F
:1035000001E04FEAD17C0CEB4C0324FA03F404F005
:103510000704B4F1040C06D20EEB840CBDE8104095
:103520004CF0010C6047DFE80CF0070802024FF096
:103530000040A0F5800010BD0846420018BFD2F13F
:10354000807288BF00F0004010BDFF2141EAD050DA
:10355000C005704790EA010F48BF81F000413FF578
:103560008AAE421A04D882F00042A0EB0200114455
:103570004FEAD0524FF07F4C1CEA410FA2EBD153DF
:1035800018BF9CEA026F4AD04FF0004C4CEA002072
:103590004CEA012121FA03FCB0EB0C0C0FD412F021
:1035A000FE0F36D05FEA4C001DD5001240EBC25032
:1035B00038BF70471CF03F0F18BF70470BE0A2F1F7
:1035C00001025FEA1C2040EBC25038BF70471CF07C
:1035D0007F0F18BF7047C3F12003994014BF401EEE
:1035E00020F00100704780084FEA122308BF70479F
:1035F000B0FA80FCA2EB0C02CCF1280C60FA0CF0C3
:1036000093EA122F04BF00EBC25070474FEAC37019
:103610007047130A5FEADC1008BF7047F6E79CEAC0
:10362000026F04D010EA5C0F08BF0020704710B58D
:10363000FFF745FF40DFF63E81F000407047FCF7A2
:1036400087BF000002400000000000A00000000052
:1036500005400000000000C8000000000C40000011
:103660000000409C00000000194000000020BCBE8B
:103670000000000034400000BFC91B8E00000004A1
:10368000B5400000504BCFD06607E2CF01000000EC
:103690006C4100003E8251AADFEEA7340100000019
:1036A000D9420000DCB5A0E23A301F97FFFFFFFFD0
:1036B000B4450000FD25A0C8E9A3C14FFFFFFFFFEF
:1036C000FF3F00000000008000000000FF3F0000FE
:1036D00000000080000000001437000800000020F7
:1036E000F00000002801000804380008F000002065
:1036F00028070000440100081C00000043000000EF
:10370000F8FFFFFF0C0000000E0000000F0000009B
:103710002E00000000000000010203040102030467
:103720000607080902040608000000000000000067
:103730000000000000A24A04000000000000000099
:103740000102030406070809000000000000000051
:103750000001000000000000000000000000000068
:103760000000000000000000000000000000000059
:103770000000000000000000000000000000010048
:103780000000000000000000000000000000000039
:103790000000000000000000000000000000000029
:1037A00000000000102700000000000000000000E2
:1037B000000000000000B4430000B443000070416A
:1037C000000048430000803F0000A0400000A041EE
:1037D0000000803F000020410000000000000000C9
:1037E00000000000000000000000000000000000D9
:1037F00000000000000000000000000000000000C9
:0438000000000000C4
:04000005080000ED02
:00000001FF
