:020000040800F2
:1000000018090020A1010008572400082D2200082B
:1000100055240008B10C0008812A000800000000E7
:10002000000000000000000000000000372500086C
:10003000B30C000800000000352500083925000831
:10004000BB010008BB010008BB010008BB010008A0
:10005000BB010008BB010008BB010008BB01000890
:10006000BB010008BB010008BB010008BB01000880
:10007000BB010008BB010008BB010008BB01000870
:10008000BB010008BB010008BB010008BB01000860
:10009000BB010008BB010008BB010008BB01000850
:1000A000BB010008BB010008BB010008BB01000840
:1000B000BB0100089D250008BB010008BB0100082A
:1000C000BB010008BB010008BB010008BB01000820
:1000D000BB010008692A0008752A0008BB01000856
:1000E000BB010008BB010008BB01000800F002F8DA
:1000F00000F047F80AA090E8000C82448344AAF17B
:100100000107DA4501D100F03CF8AFF2090EBAE878
:100110000F0013F0010F18BFFB1A43F0010318473B
:10012000582A0000782A0000103A24BF78C878C105
:10013000FAD8520724BF30C830C144BF04680C60ED
:10014000704700000023002400250026103A28BF35
:1001500078C1FBD8520728BF30C148BF0B60704739
:10016000642900F07D80002070471FB59DE80300E2
:1001700000F070FB00F062F91FBD10B500F0C7F988
:1001800010BD00F02AFA1146FFF7EFFF02F096FCCF
:1001900000F02EFB03B4FFF7F0FF03BC00F0ECFC13
:1001A0000948804709480047FEE7FEE7FEE7FEE70B
:1001B000FEE7FEE7FEE7FEE7FEE7FEE70448054947
:1001C000054A064B704700009B250008ED0000081B
:1001D0001803002018090020180500201805002029
:1001E0000FB4044910B503AA029800F0F9F810BC46
:1001F0005DF814FB0C0200202DE9F0410E46044688
:10020000002020622046E168884730B3252805D0C9
:10021000D4E901219047206A401CF2E7E1682046BA
:1002200000278847050018D0A5F14100192802D8F9
:1002300020354FF400673246294620462760FFF7F5
:100240008FFF40B1012804D0F61D26F007060836BE
:10025000D8E7361DD6E72846DAE7206ABDE8F08100
:100260002DE9F0410646002410687529314616A58F
:1002700010D0AFF30080002802DA404213A507E057
:1002800031688A0701D512A502E0490704D511A5F6
:10029000012401E0AFF3008000210A2206F12407C7
:1002A00009E0B0FBF2FCB0FBF2F302FB1C003030C3
:1002B00078541846491C0028F3D123462A46304674
:1002C000BDE8F04100F032B8000000002D00000051
:1002D0002B000000200000004FF0000200B5134684
:1002E00094469646203922BFA0E80C50A0E80C5056
:1002F000B1F12001BFF4F7AF090728BFA0E80C5007
:1003000048BF0CC05DF804EB890028BF40F8042BFF
:1003100008BF704748BF20F8022B11F0804F18BF6C
:1003200000F8012B70477047704770472DE9F04780
:100330000D4699469246044600F124080168880655
:1003400004D5E06921F01001216000E00120A842FD
:1003500001DD471B00E00027A1697A1902EB0900C3
:10036000081AA0612078C00602D42046AFF30080AE
:10037000002608E0D4E901211AF806009047206A17
:10038000401C761C20624E45F4DB2078C0060AD55E
:100390002046AFF3008006E0D4E9012130209047E9
:1003A000206A401C2062381EA7F10107F4DC07E038
:1003B000D4E9012118F805009047206A401C20620A
:1003C000281EA5F10105F3DC2046AFF3008020785C
:1003D000000602D50220BDE8F0870120FBE70000FF
:1003E000074B70B50D467B4400F011F804462846D3
:1003F00000F020F810B14FF0FF3070BD204670BD06
:10040000BB26000001694A1C02610878704700B5EC
:100410008FB0CDE901310021059105497944CDE93D
:10042000031011466846FFF7E7FE0FB000BD00005D
:10043000E5FFFFFF007B00F08000704710B54248E9
:100440005421FFF749FF41485421FFF745FF404839
:100450005421FFF741FF3F493B483C4A3F4B08606E
:100460003D490A603A491960531C0365481C1065F0
:10047000012008653B48344A39A1784400F01CF952
:1004800020B9384878440A3800F0BBF937482F4A79
:1004900035A1784400F010F920B9344878440A387E
:1004A00000F0AFF932482A4A2FA1784400F004F94D
:1004B00020B92F4878440A3800F0A3F94023224895
:1004C000DC000021224600F0D4F820B12548784411
:1004D000543800F096F91D4822464023002100F0D0
:1004E000C8F820B121487844543800F08AF91848F7
:1004F00022461023002100F0BCF8002806D01C483A
:100500007844BDE81040563800F07BB910BD104863
:1005100070B5006D20F001040B4800F043F90B4862
:1005200000F040F90A4800F03DF909E0206D20F0A4
:100530000105204600F036F9204600F073F82C46FD
:10054000002CF3D170BD0000B80100200C02002087
:1005500060020020180000201C0000202000002065
:1005600072000000EC26000077000000D826000092
:10057000C42600000EB5CDE9000100F0DDFA0290BE
:1005800069460120ABBE0EBD08B569460090022049
:10059000ABBE08BD1FB58DE8070069460520ABBEA0
:1005A00004B010BD1FB58DE80F0069460620ABBE34
:1005B000F6E708B5694600900920ABBE08BD1CB53A
:1005C000CDE9000169460A20ABBE1CBD704708B5E5
:1005D000694600900C20ABBE08BD754600F018F9C6
:1005E000AE4605006946534620F00700854618B020
:1005F00020B5FFF7E3FDBDE820404FF000064FF0C7
:1006000000074FF000084FF0000B21F00701AC4647
:10061000ACE8C009ACE8C009ACE8C009ACE8C00966
:100620008D46704770B50446051F00F0F7F8006866
:10063000002C14BF446870BD002C18BFAC423CBFF6
:1006400020466468F8D301680A18AA4218BF4560BA
:1006500003D12A6805461144016028684119A14266
:100660001CBF6C6070BD61686960216808442860C7
:1006700070BD70B5C468A50713D0650211D4B2F57A
:10068000807F09D0B2F5007F06D0B2F5806F08D127
:10069000012300F1240106E05D1E6FF07F46B542A4
:1006A00001D3012070BD0161C361416024F4706118
:1006B0001143C160002070BD2DE9F0410C46074692
:1006C0001646104600F06EF82078611C61280AD0AA
:1006D000722802D077283CD102E00125002405E0F1
:1006E0000225042402E0082448F2020511F8010B57
:1006F0002B2806D0622809D011F8010C74280AD0E2
:100700000BE045F0030544F00204EFE745F0040573
:1007100044F00104EAE744F0100438462146FFF7AC
:1007200029FF411C15D00021316171604FF4007127
:10073000F560F1617061200704D530460222002186
:1007400000F0E6F8306D40F0010030653046BDE85D
:10075000F0810020FBE72DE9F0410D460646104CE4
:10076000206DC10704D0410804D020F00104F7E750
:1007700022460EE0542000F09CF807000ED0206DB9
:1007800047F001010843542120653846FFF7A4FDD6
:100790003A4629463046BDE8F0418DE70020D6E7CD
:1007A000B80100202DE9F04704464FF000094FF052
:1007B000FF37C568D4E90486A80707D0204600F0B3
:1007C00057F93046FFF7E0FE002802DA3846BDE868
:1007D000F087280502D54046FFF724FF4C2120462C
:1007E000FFF77AFD206D20F0010020654846EEE716
:1007F00010B50446AFF300802046BDE81040FFF777
:10080000C9BC10B500F07EF9BDE8104000F074B925
:1008100000487047B402002070470000004870474D
:10082000BC020020704770477047704738B50446D7
:100830000A4600206946AFF30080002808BF38BD93
:1008400002460099204600F0A4F9012038BD01209D
:1008500000F0F3B9F8B5AFF30080054600200C4670
:10086000102000BF0646A819A0420DD9324669469D
:100870000020AFF30080070008BF00F0DEF9009809
:10088000A04218BF0546C419FFF7C8FF0560074618
:10089000F01D20F007004619284600F073F9B44215
:1008A00008BFF8BDA21B31463868BDE8F84000F02B
:1008B00070B970B50646FFF7B1FF056806F10B0089
:1008C00020F00704B4429CBF002070BD2B466A682C
:1008D000BAB11068A04210D304F1080188423CBFAD
:1008E0005068586007D35168101941601168091B9E
:1008F000016058601460101D70BD13465268002AD4
:10090000E7D121462846FFF791FF0028DED170BDD0
:100910002DE9F041044616460D464769007B8007E5
:100920002ED03846FFF745FE50BB3EB3012E02D015
:10093000022E25D104E0204600F045F905441DE0D3
:100940003846FFF744FEE168002841F01001E160FD
:1009500005DA204600F058F80120BDE8F081C9030F
:100960000BD56268E16A914200D81146A269114430
:100970002269891A814200DD08460544002D01DA0A
:100980000220EAE7E16A6068E268814206D29103E8
:10099000E06203D522F4003141F01002A66900277D
:1009A000AE4213DCE16A814201D90B4600E0034606
:1009B00003EB060C2369ACEB030CAC4506DD81426E
:1009C00001D98C4600E084469C4505D1A76027608C
:1009D00042F02000A5620DE0AD1BE669AE1B81422E
:1009E000A66000D90846C01A281A2060581960600D
:1009F00022F0200003490840E060002084F848709D
:100A0000ABE70000BFCFD7FFC16821F4001141F070
:100A10008001C16000218160016070472DE9F047CD
:100A2000814614460E464FF0FF383248D568576964
:100A3000054209D03846A169FFF7C1FD002811DB46
:100A40002C48C0430540E5602B46324649463846AF
:100A5000FFF7A0FDA16920F00042B21A114400285E
:100A6000A16103D02046FFF7CFFF4046BDE8F087E5
:100A700070B504460569C06A6168884200D80846B6
:100A8000E16821F42011E160C90312D5A84208D021
:100A90002246411B2846FFF7C1FF10B14FF0FF303F
:100AA00070BD0020E562C4E90150E06820F48030A8
:100AB000E060002070BD10B50446C06820F0200042
:100AC000E060A16AA06988420DD02046FFF7D0FF00
:100AD000E06820F4405040F01000E060A06AA0619F
:100AE0002069E062606044F24001E0688843E060B1
:100AF00010BD000010000200002801D000F03CB83A
:100B00007047000010B5014602A000F07DF80120FA
:100B100010BD000053494752545245443A20526593
:100B20006469726563743A2063616E2774206F7024
:100B3000656E3A200000000010B5431C02E010F87A
:100B4000011B71B18107FAD14FF0013202C88C1A32
:100B50008C4314EAC211F9D0C01A0A0603D0C01E91
:100B600010BDC01A10BD0A0401D0801E10BD0902BC
:100B7000FCD0401E10BD000001491820ABBEFEE7AE
:100B80002600020000210160C0E90110704710201A
:100B90007047034640688C46002818BF88423CBF17
:100BA00003464068F8D318681844884207D00CF10F
:100BB000030020F00700001D411A521A0146081DCB
:100BC0000A60FFF72FBD10B50146C268900703D039
:100BD000900607D5886A0AE000F03EF8012101601E
:100BE000881E10BD8B69486818440B69C01A91F8BB
:100BF00048301BB191F84910401A10BD1103FCD5C3
:100C00000028FADD401E10BD70B505460C460A20CE
:100C100000E06D1C00F018F835B128780028F8D1F4
:100C200002E0641C00F010F814B120780028F8D11C
:100C3000BDE870400A2000F007B810B500F010F8C9
:100C4000BDE81040FFF758BF08B569468DF80000B1
:100C50000320ABBE08BD000000487047B40200206E
:100C600010B5012805D0002103A0FFF7CDFF01201A
:100C700010BD09A1F8E7000053494752544D454DB6
:100C80003A204F7574206F662068656170206D652D
:100C90006D6F7279000000003A2048656170206D28
:100CA000656D6F727920636F727275707465640020
:100CB000FEE7704772B6FEE710B590F821100022EB
:100CC000022905D00421816380F82020012010BD75
:100CD00001680B6823F00E030B6001680B6823F0BA
:100CE00001030B6090F84030C46B012101FA03F35B
:100CF000636080F8211080F82020104610BD0000AD
:100D000010B590F821100024022903D0042181633A
:100D100001243DE001680A6822F00E020A600168C1
:100D20000A6822F001020A601A4A0168914201D160
:100D3000012121E0174A1432914201D110211BE018
:100D4000144A2832914201D1891515E0114A3C32EA
:100D5000914201D189140FE00E4A5032914202D1E2
:100D60004FF4803108E00B4A6432914202D14FF4D3
:100D7000801101E04FF08071064A083A516001216C
:100D800080F82110002180F82010416B01B18847C4
:100D9000204610BD0800024070B5044600F00CF972
:100DA0000546601C02D004480078044400F004F9B1
:100DB000401BA042FAD370BD080000202DE9F84F77
:100DC000DFF8B8910024A9F1040B23460F2709F19D
:100DD000040AABF1040EC9E00125A5402A40AA424D
:100DE0007DD1674ED1F804C0ACEB0608B44532D0D3
:100DF00014DCBCF1030F3AD009DCBCF1000F2AD09F
:100E0000BCF1010F1CD0BCF1020F31D11DE0BCF1CF
:100E1000110F17D0BCF1120F2AD119E0B8F5881FB5
:100E200019D006DCB8F5803F15D0B8F5801F1FD16A
:100E300011E0B8F5001F0ED0B8F5041F18D10AE074
:100E4000CB6815E0CB681B1D12E0CB6808330FE0C0
:100E5000CB680C330CE08B682BB1012B4FF00803EF
:100E600003D0456104E0042302E0056100E00023B3
:100E7000FF2A01D8064601E000F104064FEA840586
:100E800001D9A5F12005D6F8008007FA05FC28EA6B
:100E90000C0803FA05F548EA0508C6F800804D6815
:100EA000ED0062D5374DAE6946F00106AE61AD6921
:100EB00024F0030605F001050095334D06EB050C03
:100EC000DCF80850A607360F07FA06F825EA0805E9
:100ED000DFF8B880404503D14FF0000817E044E048
:100EE000DFF8AC80404502D14FF001080FE0DFF899
:100EF000A480404502D14FF0020808E0DFF8988056
:100F0000404502D14FF0030801E04FF0040808FA11
:100F100006F848EA0508CCF808804D68D9F8006062
:100F2000ED024D4601D5164300E096432E604D6814
:100F3000DAF80060AD02554601D5164300E096434D
:100F40002E604D68DBF80060AD035D4601D51643A9
:100F500000E096432E604D68DEF80060ED037546B4
:100F600001D5164300E096432E60641C0D682A46A6
:100F7000E5407FF431AFBDE8F88F00000804014080
:100F80000000111000100240000001400008014064
:100F9000000C01400010014000140140C26821EA29
:100FA00002030A4043EA0241016170470AB101614C
:100FB00070470904FBE700000148806870470000A3
:100FC0000800002070B5040025D094F83D000025ED
:100FD00020B984F83C50204600F0B8F8242084F86A
:100FE0003D002068016821F001010160206801686E
:100FF00041F4004101602068016821F40041016072
:1010000000F01EFA4D4A6168914201D84C4900E057
:101010004C49884201D2012070BD4B492368B0FB86
:10102000F1F15E6826F03F060E435E60636893420E
:1010300006D94FF4967359434FF47A73B1FBF3F129
:101040002368491C1E6A26F03F0631431962616815
:10105000914210D84900401EB0FBF1F2521CC2F37D
:101060000B02042A01D2042022E0B0FBF1F0401C64
:10107000C0F30B001CE0A268F2B301EBC10303EB69
:101080000116431EB3FBF6F35B1C43F480431B05C0
:1010900049D092B301EBC10202EB0111401EB0FB3B
:1010A000F1F0401CC0F30B0040F4804040F40040DD
:1010B0002168CA694CF6FF739A431043C861D4E9AA
:1010C000071001432068026822F0C002114301604A
:1010D000D4E9030101432068826848F2FF339A4350
:1010E00011438160D4E9050108432168CA6822F0F0
:1010F000FF021043C86001E00EE016E020680168BE
:1011000041F0010101602564202084F83D00256341
:1011100084F83E50002070BD01EB4106431EB3FB36
:10112000F6F35B1CB3E70120C2E701EB4101401E6F
:10113000B0FBF1F0401CC0F30B00B7E7A086010044
:1011400080841E0000093D0040420F0030B585B08C
:10115000002100910191029103911E4D03681E4CE4
:10116000122103221D48AB4216D1A36943F00803A4
:10117000A361A369039203F008030493C023CDE99C
:1011800000316946FFF71AFEE06940F40010E061A3
:10119000E06900F4001019E0114DAB4217D1A369CA
:1011A00043F00803A361A369039203F008030493C7
:1011B0004FF44063CDE900316946FFF7FFFDE06978
:1011C00040F48000E061E06900F48000049005B024
:1011D00030BD00000054004000100240000C0140EF
:1011E00000580040024881680278114481607047CD
:1011F00008000020074810B5016841F010010160A7
:10120000032000F075F80F2000F006F800F024F835
:10121000002010BD0020024070B50D4D04464FF473
:101220007A712878B1FBF0F00A490968B1FBF0F057
:1012300000F0DCFA48B9102C07D200222146501EDB
:1012400000F036F800206C6070BD012070BD000019
:1012500008000020140000200C4808B5816941F006
:1012600001018161816901F001010091C16941F0D1
:101270008051C161C06900F080500090044841680D
:1012800021F0E06141F00071416008BD00100240B2
:1012900000000140002809DB00F01F0201219140FD
:1012A0004009800000F1E020C0F800117047000004
:1012B000F0B40E4B1B680C46C3F30223C3F10705C1
:1012C000042D00D90425191D072901D2002300E0AF
:1012D000DB1E012606FA05F1491E214099409E4079
:1012E000761E16403143F0BC01F0CBBB0CED00E0A4
:1012F000064900F0070208684FF6FF03184040EA6D
:101300000220034A10430860704700000CED00E023
:101310000000FA052DE9F0470F46050061D0434E65
:10132000306800F00700B84209D2306820F00700AA
:1013300038433060306800F00700B84251D1286867
:101340003B4C810712D5400703D5606840F4E0604C
:1013500060602878000703D5606840F460506060E2
:101360006068A96820F0F000084360602878C00732
:1013700028D06868012810D02168022810D0890779
:1013800000292EDA616821F0030101436160FFF753
:1013900013FE804641F288390DE021688903EFE7AA
:1013A0008901EDE7FFF708FEA0EB0801494502D9E6
:1013B0000320BDE8F0876068696800F00C00B0EBBE
:1013C000810FEFD1306800F00700B8420BD93068C8
:1013D00020F0070038433060306800F00700B84262
:1013E00001D00120E5E72878400705D56068E96865
:1013F00020F4E060084360602878000706D5606844
:10140000296920F4605040EAC100606000F038F8BB
:101410006168084AC1F30311515CC840064908607D
:1014200006480068FFF7F8FE0020C2E700200240EF
:1014300000100240522B0008140000200C00002075
:101440000448054900684968044AC1F30221515C17
:10145000C84070471400002000100240622B0008B2
:101460000448054900684968044AC1F3C221515C37
:10147000C84070471400002000100240622B000892
:101480000E4A51680E4801F00C03042B11D0082BB2
:101490000FD10C48C1F38343C903C05C0AD551681E
:1014A000084AC1F34041921E515C054A5043B0FBCB
:1014B000F1F07047044948437047000000100240B3
:1014C00000127A00422B000800093D002DE9F84F78
:1014D000040070D02078C04DC00749D06868C0F3C0
:1014E0008100012807D06868C0F38100022809D173
:1014F0006868C00306D52868800339D5606800286D
:10150000E7D035E06068B0F5803F0BD010B1B0F5A2
:10151000A02F11D0286820F480302860286820F49B
:10152000802002E0286840F480302860606890B134
:10153000FFF742FD06460AE0286840F48020286054
:10154000F0E700BFFFF738FD801B642873D82868D8
:101550008003F7D50CE0FFF72FFD064605E000BF3E
:10156000FFF72AFD801B6428F0D828688003F7D491
:1015700020789A4E80074FF001094FF0000839D5C6
:10158000686810F00C0F07D06868C0F3810002286B
:1015900009D16868C00306D42868800714D520697B
:1015A000012808D110E02069B0B1C6F80090FFF71B
:1015B00003FD074605E00AE1FFF7FEFCC01B022819
:1015C000C4D828688007F7D52868616920F0F8003A
:1015D00040EAC10028600DE0C6F80080FFF7ECFC8F
:1015E000074604E0FFF7E8FCC01B022823D8286860
:1015F0008007F7D4207800072CD57948A169D9B1A4
:10160000C0F80090FFF7D8FC074604E0FFF7D4FCD1
:10161000C01B02280FD8686A8007F7D571484FF4BD
:10162000FA510068B0FBF1F0009000BF0098411E35
:101630000091FAD20EE080E0C0F80080FFF7BCFC19
:10164000074604E0FFF7B8FCC01B022875D8686A9B
:101650008007F7D42078400760D5E8690027C000EC
:1016600008D4E86940F08050E861E869012700F09B
:10167000805000905C480168C90513D40168834616
:1016800041F480710160FFF797FC824606E000BFDD
:10169000FFF792FCA0EB0A0064284ED8DBF80000AC
:1016A000C005F5D5E06801280AD008B1052813D097
:1016B000286A20F001002862286A20F0040002E075
:1016C000286A40F001002862E06841F2883B98B146
:1016D000FFF772FC82460BE0286A40F004002862A3
:1016E000EEE700BFFFF768FCA0EB0A0159455AD8A6
:1016F000286A8007F6D50CE0FFF75EFC824605E01D
:10170000FFF75AFCA0EB0A0159454CD8286A80071C
:10171000F6D41FB1E86920F08050E861E06988B331
:101720006968C1F38101022944D00228C6F86080AB
:1017300004D0FFF741FC044638E034E0FFF73CFCFE
:10174000074604E0FFF738FCC01B02282BD82868A6
:101750008001F7D4206AB0F5803F05D16868A168A0
:1017600020F4003008436860D4E908010843696840
:1017700021F4741108436860C6F86090FFF71CFC00
:10178000044606E025E000BFFFF716FC001B022818
:1017900009D828688001F7D51BE000BFFFF70CFCD3
:1017A000001B022802D90320BDE8F88F28688001B9
:1017B000F4D40EE00128F7D06868226A00F4803182
:1017C000914204D1616A00F47010884201D0012076
:1017D000EAE70020E8E70000001002400000424273
:1017E00080044242140000200070004010B5401EEA
:1017F000B0F1807F01D3012010BD4FF0E024606183
:101800000F21601701F03DF90020A0610720206141
:10181000002010BD7047704770B590F83C20012A39
:1018200026D0012480F83C40022280F83D20036845
:101830005A689D6822F070060A6832435A600D4B60
:1018400002689A4208D0B2F1804F05D00A4B9A4202
:1018500002D00A4B9A4204D1496825F0800319430B
:10186000916080F83D40002180F83C10084670BD32
:10187000022070BD002C0140000400400008004020
:1018800010B5040003D094F83D0010B107E001202A
:1018900010BD002084F83C00204600F01FF8022014
:1018A00084F83D00211D206800F07EFE012084F8B0
:1018B000460084F83E0084F83F0084F8400084F835
:1018C000410084F8420084F8430084F8440084F81E
:1018D000450084F83D00002010BD000008B50068F8
:1018E0000B49884212D10B48C16941F00201C16124
:1018F000C069002200F00200009011461D20FFF791
:10190000D7FCBDE808401D20FFF7C4BC08BD00009F
:10191000000400400010024070B5044690F83C00FE
:101920000025012817D0012684F83C60022084F8A5
:101930003D002068826822F0770222F47F428260B4
:101940000868502838D00DDC20284FD005DC90B333
:10195000102811D14AE0022070BD302846D040281E
:101960000AD13BE060282FD070280DD0B0F5805F01
:1019700003D0B0F5005F12D0012584F83D6000204F
:1019800084F83C00284670BDCB68D1E9012120686D
:1019900000F04DFE2068816841F0770109E0CB68D6
:1019A000D1E90121206800F042FE2068816841F4FD
:1019B00080418160E1E719E0CA684968206800F069
:1019C000EBFE5021206806E0CA684968206800F0F4
:1019D000F4FE6021206800F034FECEE7CA68496852
:1019E000206800F0D9FE40212068F4E72268014613
:1019F0001046F0E7704770B50446006801694FF083
:101A00000005C943890715D4C168C943890711D4A2
:101A1000E91E016101202077206880698007204647
:101A200002D0FFF7E7FF04E000F0D0F8204600F016
:101A300062F9257720680169C943490717D4C1684D
:101A4000C943490713D46FF00401016102202077D4
:101A50002068806910F4407F204602D0FFF7CAFF5B
:101A600004E000F0B3F8204600F045F9257720683F
:101A70000169C943090716D4C168C943090712D4CB
:101A80006FF008010161042020772068C069800799
:101A9000204602D0FFF7AEFF04E000F097F82046A2
:101AA00000F029F9257720680169C943C90617D4D0
:101AB000C168C943C90613D46FF010010161082041
:101AC00020772068C06910F4407F204602D0FFF7DD
:101AD00091FF04E000F07AF8204600F00CF9257739
:101AE00020680169C943C90708D1C168C943C9074A
:101AF00004D1891E0161204600F04CF9206801697B
:101B0000C943090609D4C168C943090605D46FF061
:101B1000800101612046FFF77DFE20680169C9430D
:101B2000490609D4C168C943490605D46FF040018C
:101B30000161204600F02FF920680169C943890638
:101B40000BD4C168C943890607D46FF02001016135
:101B50002046BDE87040FFF75EBE70BD10B586B090
:101B6000002100910191029103910068134988427C
:101B700021D11348816941F004018161816901F03B
:101B800004010491816941F00801816180690224A6
:101B900000F0080004908020CDE90004694609485F
:101BA0000394FFF70BF90120CDE9000469460648CC
:101BB0000394FFF703F906B010BD000000040040D5
:101BC0000010024000080140000C0140704770B551
:101BD000044690F83C0000260D4601280FD0012055
:101BE00084F83C006AB1042A1DD0082A2FD00C2AA0
:101BF0003FD00126002084F83C00304670BD022012
:101C000070BD206800F026FD2068816941F0080160
:101C100081612068816921F0040181612068816906
:101C20002A69114311E0206800F03CFD20688169B9
:101C300041F4006181612068816921F480618161E2
:101C4000206881692A6941EA02218161D2E720681E
:101C500000F054FD2068C16941F00801C1612068AD
:101C6000C16921F00401C1612068C1692A69114379
:101C700011E0206800F06EFD2068C16941F4006148
:101C8000C1612068C16921F48061C1612068C169B6
:101C90002A6941EA0221C161ACE710B5040003D012
:101CA00094F83D0010B107E0012010BD002084F839
:101CB0003C00204600F01EF8022084F83D00211D63
:101CC000206800F071FC012084F8460084F83E0092
:101CD00084F83F0084F8400084F8410084F8420012
:101CE00084F8430084F8440084F8450084F83D00FB
:101CF000002010BD7047704710B50446022249B15C
:101D000004290ED0082913D094F84100012816D0D8
:101D1000012010BD94F83E000128F9D184F83E203E
:101D20000FE094F83F000128F2D184F83F2008E04A
:101D300094F840000128EBD184F8402001E084F8B9
:101D400041200122206800F065FC0F49206888428C
:101D500003D1426C42F4004242642068884208D0B9
:101D6000B0F1804F05D00949884202D00849884225
:101D700004D1816801F00701062903D0016841F010
:101D800001010160002010BD002C01400004004052
:101D9000000800407047704770477047F8B5016809
:101DA00004460868CA684B6910F00F0F4FF0000531
:101DB00059D003F0010602F49077374365D0C1078C
:101DC00005D0D10503D5616C41F001016164410783
:101DD00005D5D90703D0616C41F002016164810728
:101DE00005D5D90703D0616C41F004016164010796
:101DF00007D502F02001314303D0616C41F00801A6
:101E00006164616C00293AD0800604D5900602D541
:101E1000204600F013FD20684069616CC0F380101B
:101E2000090700D460B3204600F0E1FC2068406957
:101E3000400621D52068143050E8001F21F04001F1
:101E400040E80012002AF5D1E06BA8B16D4941636A
:101E5000E06BFEF755FF002811D0E06B416B01B03D
:101E6000BDE8F040084783060FD593060DD5204600
:101E7000BDE8F84000F0E2BC2046FFF78EFFF8BD59
:101E80002046FFF78AFF6564F8BD266B2023012EEC
:101E90007CD1C6067AD5D60678D508684868009001
:101EA00048694FF00206400640D5E16B086840687B
:101EB0000004000CE8D0A28D8242E5D9E085886953
:101EC00020282DD020680C3050E8001F21F48071AC
:101ED00040E80012002AF5D12068143050E8001FB5
:101EE00021F0010140E80012002AF5D120681430E9
:101EF00050E8001F21F0400140E80012002AF5D10F
:101F000084F84230256320680C3050E8001F21F02F
:101F1000100140E80012002AF5D1E06BFEF7CCFE7C
:101F20006663A08DE18D401A81B22AE0A08DE18D1B
:101F3000401A81B2E08D0028A6D00029A4D02268E2
:101F40000C3252E8000F20F4907042E80007002F96
:101F5000F5D12068143050E8002F22F0010240E84B
:101F60000027002FF5D184F84230256320680C301B
:101F700050E8002F22F0100240E80023002BF5D19A
:101F800066632046FFF708FFF8BDFFE705062BD57F
:101F9000150629D594F841002128F5D1A068B0F59F
:101FA000805F01D12069B0B1206A411C21622168A3
:101FB00000784860E08C401E0004000CE084E3D10F
:101FC0002068C16821F08001C1602068C16841F0CB
:101FD0004001C160D8E7206A0088C0F3080048606B
:101FE000206A801C2062E5E74006CDD55006CBD59F
:101FF000CA68204622F04002CA6084F8413000F0EE
:1020000014F9C1E7DF27000870B5040004D094F884
:102010004100002510B106E0012070BD84F8405059
:10202000204600F023F8242084F841002068C1688D
:1020300021F40051C160204600F062FC2068016973
:1020400021F4904101612068416921F02A01416138
:102050002068C16841F40051C1606564202084F8A3
:10206000410084F842006563002070BD70B586B001
:10207000002400940194029403942E4E03682E4988
:10208000022003222D4DB34226D18B6943F48043B5
:102090008B618B6903F4804304938B6943F00403E1
:1020A0008B618969039201F0040104910102CDE979
:1020B000001069462846FEF781FE2815CDE9000488
:1020C000694628460294FEF779FE00221146252033
:1020D000FFF7EEF8252028E0194EB34227D1CB694F
:1020E00043F40033CB61CB6903F4003304938B6971
:1020F00043F004038B618969039201F004010491A8
:102100000421CDE9001069462846FEF757FE082055
:10211000CDE90004694628460294FEF74FFE0022EE
:1021200011462620FFF7C4F82620FFF7B3F806B0C3
:1021300070BD00000038014000100240000801405E
:102140000044004090F84230202B01D0022070471C
:1021500021B11AB10023036300F02EBC01207047A7
:1021600010B500680749884203D10748407800F05D
:1021700073F905490122BDE81040491C0348FFF7E7
:10218000E1BF000000440040060000207001002074
:102190002DE9F843044690F841001F4616460D46C7
:1021A000202802D00220BDE8F8837DB176B100205E
:1021B0006064212084F84100FEF7FEFEA68480467C
:1021C000E684A068B0F5805F02D003E00120EAE772
:1021D000206910B12E4600250EE000260CE080217B
:1021E000204600F004FCA0B9AEB116F8010B21683E
:1021F0004860E08C401EE084E08C43464FF00002D3
:1022000000970028EBD14FF04001204600F0EFFB93
:1022100030B10320C7E735F8020BC0F30800E6E74A
:10222000202084F841000020BDE77047FEE7000051
:1022300070B586B000241C48009401940294039465
:10224000816941F010018161816901F010010491FF
:10225000816941F020018161816901F020010491CF
:10226000816941F004018161816901F004010491F7
:10227000816941F0080181618069012200F0080054
:102280000A4E5503049029463046FEF78FFE012082
:102290000095CDE901040220039069463046FEF71F
:1022A0008DFD06B070BD000000100240001001401E
:1022B0000D4810B50B4901600C49416000214FF4F5
:1022C00080428160C0E9031241618161C1610162A4
:1022D000FEF778FE002803D0BDE81040FEF7EABC08
:1022E00010BD00000054004038000020801A060095
:1022F0000D4810B50B4901600C49416000214FF4B5
:1023000080428160C0E9031241618161C161016263
:10231000FEF758FE002803D0BDE81040FEF7CABC07
:1023200010BD0000005800408C000020801A0600FC
:1023300010B58EB000240794089409940A940B9465
:102340001C2168460C94FDF7C7FF2548234901600E
:1023500040F2CF21C0E9011440F2CF71C0E903146B
:1023600080218161FFF78CFA08B1FEF7A3FC4FF4DE
:102370008050079007A91A48FFF7CEFA08B1FEF778
:1023800099FC1748FFF789FC08B1FEF793FC0B9402
:102390000BA913480C94FFF73FFA08B1FEF78AFC2B
:1023A0006020CDE900040294042269460C4804949C
:1023B000FFF70DFC08B1FEF77DFC4FF4FA700190B9
:1023C000082269460648FFF702FC08B1FEF772FCD6
:1023D0000348FFF7C3FB0EB010BD0000000400402F
:1023E000E00000200C4810B50A4901604FF4E131CB
:1023F0004160002181600C22C160C0E9041281614A
:10240000C161FFF701FE002803D0BDE81040FEF7D0
:1024100051BC10BD00380140280100200C4810B507
:102420000A4901604FF4E1314160002181600C22D2
:10243000C160C0E904128161C161FFF7E5FD0028B8
:1024400003D0BDE81040FEF735BC10BD004400408D
:1024500070010020FEE7FEE770B5304C304D21469C
:10246000667909794A1CD3B2002236B1012E0AD00E
:10247000022E1BD0032E3ED007E02C2805D10120D0
:1024800060712C200EE0122809D0627122710020A8
:1024900025F81020401CC0B20A28F9D370BD0220D4
:1024A0006071122025F81100237170BD25F811000C
:1024B00023710A2B01D25B28F7D10320607105EB51
:1024C000430010F80A1D2170827862700279A270B0
:1024D0008079E07013A0FDF783FE617811A0FDF70D
:1024E0007FFEA1780FA0FDF77BFEE178BDE870408C
:1024F0000EA0FDF775BE05EB410030F8020C5B281D
:1025000009D062712271002025F81020401CC0B251
:102510000A28F9D370BD2271627170BD00000020DD
:102520002400002025640D202020000025640D0AD1
:102530000000000070477047FEF754BE30B58FB002
:1025400028216846FDF7C8FE14210AA8FDF7C4FE3D
:1025500001210804CDE90010002402940225049111
:10256000CDE907504FF4E01009906846FEF7AEFF42
:1025700008B172B6FEE70F20CDE90A054FF480607E
:10258000CDE90C4002210AA80E94FEF7C3FE0028F4
:1025900001D072B6FEE70FB030BD70470148FFF7BB
:1025A0002ABA0000E0000020F0B50268164B174C74
:1025B000174D4FF08047984205D0B84203D0A04253
:1025C00001D0A84203D122F070064A6832439842F3
:1025D00005D0B84203D0A04201D0A84203D122F4D2
:1025E0004074CA6822434C6922F080022243026090
:1025F0008A68C2620A688262984201D109690163ED
:1026000001214161F0BD0000002C014000040040A8
:102610000008004010B501F01F030121046A994031
:102620008C430462016A9A401143016210BD10B5E7
:10263000846842EA032224F47F440A4322438260EE
:1026400010BD826822F070020A4342F007018160E7
:102650007047000030B5036A026A22F0010202628C
:102660004268846924F073050C682C4323F002054A
:102670008B682B430A4DA8420BD123F00805CB6889
:1026800022F440722B434D6923F0040315438A69F9
:102690002A434260846149684163036230BD00009F
:1026A000002C014030B5026A036A23F01003036274
:1026B000436884690D6824F4E64444EA05248D687F
:1026C00022F0200242EA05120B4DA8420ED1CD683D
:1026D00022F0800242EA05124D6923F4406343EA86
:1026E00085038D6922F0400243EA850343608461DB
:1026F00049688163026230BD002C014030B5036A35
:10270000026A22F4807202624268C46923F4007390
:1027100024F073050C682C438D6843EA05230C4DA7
:10272000A8420ED1CD6823F4006343EA05234D6926
:1027300022F4405242EA05128D6923F4806342EA92
:1027400005124260C4614968C163036230BD000084
:10275000002C014030B5046A026A22F48052026201
:102760004268C3690D6823F4E64343EA05238D6894
:1027700024F4005444EA0534064DA84204D14D69BE
:1027800022F4804242EA85124260C36149680164D2
:10279000046230BD002C014010B5036A046A24F0C5
:1027A00001040462846924F0F00444EA021423F072
:1027B0000A020A438461026210BD10B5036A046A0A
:1027C00024F010040462846923F0A00324F470440C
:1027D00044EA023243EA01118261016210BD10B580
:1027E000406A0021C185C184FFF7D7FA10BD016896
:1027F0000C3151E8002F22F4907241E80023002BA5
:10280000F5D10168143151E8002F22F0010241E8AE
:102810000023002BF5D1016B012909D101680C318E
:1028200051E8002F22F0100241E80023002BF5D1DF
:10283000202180F8421000210163704708B590F80C
:102840004210222901D0022008BD82684FF4805333
:102850009A4201D1016921B1816A9A421BD04AB1E1
:102860000AE00268816A5268C2F308020A80816A3B
:10287000891C08E0026972B10268526802F07F02A6
:102880000A70816A491C8162C18D491E0904090CC4
:10289000C18503D01BE002685268F1E70168CA688D
:1028A00022F02002CA600168CA6822F48072CA60FD
:1028B00001684A6922F001024A61202180F8421031
:1028C00000214163026B012A03D0FFF749FC00207D
:1028D00008BD016301680C3151E8002F22F010029D
:1028E00041E80023002BF5D101680A68D20602D521
:1028F0000A6849680091818DFFF74EFAE7E700000A
:1029000070B5044600680169E26821F44051114342
:1029100001612169A0680843616908432168CA68A8
:1029200041F20C639A430243CA6020684169A2697C
:1029300021F44071114341611E492068884202D14F
:10294000FEF78EFD01E0FEF77BFD00EBC00101EB21
:102950000012606864218000B2FBF0F3B3FBF1F376
:102960006FF018067343B2FBF0F5B2FBF0F605EB1F
:102970008305322303EB0515B5FBF1F5B6FBF1F644
:1029800005F0F00505EB0615B2FBF0F6B2FBF0F032
:10299000B0FBF1F06FF01802504306EB800003EB40
:1029A0000010B0FBF1F0216800F00F0028448860AF
:1029B00070BD00000038014081628285C28500211F
:1029C0004164222180F84210016921B10168CA687E
:1029D00042F48072CA6001684A6942F001024A61A9
:1029E0000068C16841F02001C160002070472DE9F6
:1029F000F041984617460E460446069D27E0681C9F
:102A000025D02DB1FEF7D8FAA0EB0800A8421ED9B8
:102A100020680C3050E8001F21F4D07140E800120B
:102A2000002AF5D12068143050E8001F21F0010180
:102A300040E80012002AF5D1202084F8410084F8F3
:102A40004200002084F840000320BDE8F0812068A7
:102A5000006836EA000004D00020B842CFD0002041
:102A6000F3E70120F9E700000148FFF797B90000FC
:102A7000280100200148FFF791B9000070010020F3
:102A8000FEE70907090E002804DB00F1E02080F8CA
:102A90000014704700F00F0000F1E02080F8141DD2
:102AA0007047000013B54FF0FF330122694602481A
:102AB000FFF76EFB00981CBD28010020FEF79AFB73
:102AC000FFF73CFDFFF7B4FBFFF7F2FBFFF710FC4D
:102AD000FFF788FCFFF72CFCFFF7A0FC012213494D
:102AE0001348FFF72FFB11490122491E1148FFF738
:102AF00029FB04211048FFF7FFF808210E48FFF7D3
:102B0000FBF80D4C3225DFF8349082264FF47A77AB
:102B10004FF40058206885632068C6633846FEF786
:102B20003BF941464846FEF739FAF3E70700002033
:102B30007001002028010020E0000020001001406A
:102B4000010202030405060708090A0B0C0D0E0F0B
:102B5000101000000000000000000102030406073E
:102B6000080900000000010203043A7474003A747A
:102B700074003A7474000000982B000800000020D4
:102B80002400000028010008BC2B000824000020BD
:102B9000F4080000440100080000000000000000EC
:102BA0000100000010000000000000000024F400FC
:0C2BB00000000000000000000000000019
:04000005080000ED02
:00000001FF
