:020000040800F2
:10000000400A0020A10100080B330008BD260008AB
:1000100009330008C1070008A13D000800000000E6
:10002000000000000000000000000000353600085D
:10003000C307000800000000FD3500081537000860
:10004000BB010008BB010008BB010008BB010008A0
:10005000BB010008BB010008BB010008BB01000890
:10006000BB010008BB010008BB010008BB01000880
:10007000BB010008BB010008BB010008BB01000870
:10008000BB010008BB010008BB010008BB01000860
:10009000BB010008BB010008BB010008BB01000850
:1000A000BB010008BB010008BB010008BB01000840
:1000B000C1370008BB010008BB010008BB010008F4
:1000C000BB010008BB010008BB010008BB01000820
:1000D000BB0100087D3D0008893D0008953D0008F2
:1000E000BB010008BB010008BB010008BB01000800
:1000F000BB010008BB010008BB010008BB010008F0
:10010000BB010008BB010008BB010008BB010008DF
:10011000BB010008BB010008BB010008BB010008CF
:10012000BB010008BB010008BB010008BB010008BF
:10013000BB010008BB010008BB010008BB010008AF
:10014000BB010008BB010008BB010008BB0100089F
:10015000BB010008BB010008BB010008BB0100088F
:10016000BB010008BB010008BB010008BB0100087F
:10017000BB010008BB010008BB0100080000000033
:10018000BB010008BB010008DFF810D000F066FAE0
:1001900000480047493E0008AFF30080400A0020B5
:1001A0000648804706480047FEE7FEE7FEE7FEE711
:1001B000FEE7FEE7FEE7FEE7FEE7FEE7B1370008F1
:1001C000890100082DE9F05F0546002092469B4614
:1001D00088460646814640241BE02846414647465D
:1001E000224600F084F953465A46C01A914110D372
:1001F00011461846224600F06BF92D1A67EB0108EC
:100200004F4622460120002100F062F917EB000959
:100210004E41201EA4F10104DFDC484631462A4647
:100220004346BDE8F09FD2B201E000F8012B491E21
:10023000FBD270470022F6E710B513460A46044683
:100240001946FFF7F0FF204610BD2DE9FE4F80460E
:1002500081EA0300C00F0C46009021F0004123F01A
:100260000045B8EB0200A94105D240462146904620
:100270001C460B46024623F00040104347D0270D92
:10028000C7F30A00C3F30A510290401A01904028B4
:100290006BDAC3F3130040F4801B0098924620B140
:1002A0000023D2EB030A63EB0B0B01985946C0F114
:1002B0004002504600F00CF906460D46504659469D
:1002C000019A00F024F910EB08006141002487EA4C
:1002D000115284EAE7731A4340D0009A62B3019A3C
:1002E000012A4FEA075215DC001B61EB02014FF0B7
:1002F000004202EA0752CDE90042001C41F580119C
:1003000032462B4600F05BF903B0BDE8F08F404663
:100310002146F9E7001B61EB0201001C41F5801347
:1003200000185B412018A2F5001747EB030140EAD3
:10033000D570B6196D4111E06D084FEA360645EAF1
:10034000C0754FEA0752001B61EB0201001C41F52A
:10035000801149084FEA30000019514132462B46BE
:1003600003B0BDE8F04F00F01BB900980122400037
:100370000023D0EB020263EBE073009821464FEAC2
:10038000E074B8EB000061EB0401E9E783F000439F
:100390005BE781F0004158E72DE9F04D81EA030465
:1003A00004F0004B21F0004514464FF0000A23F002
:1003B000004150EA050220D054EA01021DD0C5F3E5
:1003C0000A570246C5F31303C1F31300C1F30A56DB
:1003D00040F4801543F48013A7EB0608101BD646A3
:1003E00008F2FD3873EB050002D308F1010801E0C3
:1003F00092185B41B8F1000F03DA00200146BDE816
:10040000F08D00204FF48011064684460EE0171B45
:1004100073EB050705D3121B63EB050306434CEA98
:10042000010C49084FEA300092185B4150EA01077D
:10043000EDD152EA030012D082EA040083EA0501FA
:10044000084305D0101BAB4106D20122002306E071
:1004500000224FF0004302E06FF0010253101AEB4C
:1004600006004CEB085110EB0A0041EB0B01BDE814
:10047000F04D00F095B80EB5C10F80EAE070084469
:10048000CA07002140F233438DE80E000A460B46AE
:1004900000F095F803B000BD01F0004330B421F046
:1004A000004150EA010206D00A0DA2F56072C1F3C4
:1004B0001301002A02DC30BC00207047440F44EADC
:1004C000C104C100E01830BC00EBC25000F031B8EC
:1004D000202A04DB203A00FA02F100207047914004
:1004E000C2F1200320FA03F3194390407047202AF9
:1004F00004DB203A21FA02F00021704721FA02F3CE
:10050000D040C2F120029140084319467047202A8A
:1005100006DBCB17203A41FA02F043EAE07306E02B
:1005200041FA02F3D040C2F120029140084319463B
:1005300070470029A8BF7047401C490008BF20F041
:100540000100704710B4B0FA80FC00FA0CF050EAD9
:10055000010404BF10BC704749B1CCF1200421FA5A
:1005600004F411FA0CF118BF012121430843A3EB55
:100570000C01CB1D4FEA00614FEA102042BF002062
:1005800010BC704700EBC35010440029A4BF10BC3E
:100590007047401C490008BF20F0010010BC7047A4
:1005A00010B5141E73F1000408DA401C41F100017B
:1005B00092185B411A4301D120F0010010BD2DE9D2
:1005C000F04D92469B4611B1B1FA81F202E0B0FAC9
:1005D00080F220329046FFF77BFF04460F4640EA48
:1005E0000A0041EA0B0153465A46084313D011460C
:1005F00053EA010019D0C8F140025046FFF777FFD7
:1006000005460E46504659464246FFF761FF0843ED
:1006100005D0012004E020463946BDE8F08D0020D9
:10062000054346EAE0762C4337430A986305E40A1B
:10063000A0EB08000022FD0A44EA47540A3002D524
:1006400000200146E9E7010510196941DDE9084587
:1006500000196941BDE8F04DA2E70000064C074DC6
:1006600006E0E06840F0010394E807009847103482
:10067000AC42F6D3FFF78CFD2868000848680008F4
:10068000464910B54A6822F440324A604A684368D5
:100690001A434A6001684A6822F480724A6001681D
:1006A0004A68036942EA03224A6001684A6822F004
:1006B00040724A6001684A6883681A434A60016868
:1006C0008A6822F400628A6001688A68C3681A43F3
:1006D0008A60816A6FF07062D14201688A6822F094
:1006E00070628A6001688A680CD0836A1A438A60E3
:1006F00001688A6822F040528A6001688A68C36A89
:100700001A4301E022F040528A6001688A6822F0B0
:1007100002028A6001688A68037E42EA43028A60B4
:1007200090F82010002901684A680FD042F4006256
:100730004A6001684A6822F460424A6001684A6877
:10074000174C436A04EB43331A4301E022F400627E
:100750004A600168CA6A22F47002CA620168CA6A01
:10076000838B104C04EB03531A43CA6201688A68F6
:1007700022F400728A6001688A6890F8303042EA98
:1007800043228A6001688A6822F480628A60016874
:100790008A68406942EA8020886010BD00230140D9
:1007A00000E0FFFF0000F0FF044842F21C51026825
:1007B0009163006842F2AC61016470475404002008
:1007C000FEE7704772B6FEE710EE101A01700A0AD3
:1007D00042700A0C8270090EC1707047044842F2E0
:1007E0001C5102685163006842F2AC61C1637047FA
:1007F0005404002078B50024009490F83C20012A8D
:1008000019D0012280F83C200A6807230568092ACC
:1008100013D9EE680A3A02EB420293409E43EE601F
:100820000B788A680A3B03EB43039A400368DD6850
:100830002A43DA6010E0022078BD2E6902EB420202
:1008400093409E432E610B788A6803EB43039A40E2
:1008500003681D692A431A614A681F23072A13D2B5
:1008600005686E6B521E02EB820293409E436E63DC
:100870000B790A885B1E92B203EB83039A400368EC
:100880005D6B2A435A6327E005680D2A12D22E6B4E
:10089000D21F02EB820293409E432E630B790A889B
:1008A000DB1F92B203EB83039A4003681D6B2A435C
:1008B0001A6311E0EE6A0D3A02EB820293409E4306
:1008C000EE620B790A880D3B92B203EB83039A40E8
:1008D0000368DD6A2A43DA62164B0568144A9D42B2
:1008E00006D10D68122D03D1556845F48005556079
:1008F00005689D4218D10B68102B01D0112B13D124
:10090000536843F400035360096810290CD10A4965
:100910000A4A0968B1FBF2F101EB8101490000E0EC
:10092000491E00910029FBD180F83C40002078BD91
:1009300000230140002001405C00002040420F00E5
:1009400070B504004FF0000503D0206C002610B1F4
:1009500007E0012070BD204600F01CF8666484F8B2
:100960003C60206CC00610D4206C20F4885040F00D
:10097000020020642046FFF783FE6664206C20F0AE
:10098000020040F00100206400E0012584F83C6092
:10099000284670BD10B586B0044614216846FFF79E
:1009A00049FC1149206888421CD110480021026886
:1009B00042F480720260006800F4807005900B4879
:1009C0001438026842F001020260006800F0010081
:1009D0000590C02000900320CDE90101694604483C
:1009E00000F076F806B010BD002001404438024007
:1009F000000002402DE9F0410446876D00F072F9D5
:100A0000064694F835000025022806D0802060654F
:100A100084F834500120BDE8F0812068016821F09D
:100A2000160101602068416921F080014161206C5C
:100A300008B9A06C20B12068016821F008010160AC
:100A40002068016821F0010101600CE000F04AF922
:100A5000801B052807D920206065032084F8350015
:100A600084F83450D7E720680068C007EED194F8C6
:100A70005C103F208840B860012084F8350084F87D
:100A800034500020C7E790F83510022903D08021A8
:100A9000416501207047052180F835100068016824
:100AA00021F00101016000207047000070B504468C
:100AB00000F018F90546601C02D004480078044490
:100AC00000F010F9401BA042FAD370BD5000002086
:100AD0002DE9F84FDFF8BCA10022012503264FF0D5
:100AE0000F090AF1040BAAF1040E00BF0B6805FA06
:100AF00002F42340A34270D10F7907F00307012FBE
:100B000001D0022F16D187684FEA420806FA08FC86
:100B100027EA0C07D1F80CC00CFA08FC4CEA070CC9
:100B2000C0F808C04768A7430C79C4F30014944088
:100B30003C4344600C79E443A4070AD0C4684FEAFC
:100B4000420C06FA0CF7BC438F6807FA0CF72743F0
:100B5000C7600C7904F00304022C12D1D40800EB16
:100B6000840CDCF820405707FF0E09FA07F824EA46
:100B70000804D1F8108008FA07F848EA0408CCF80D
:100B8000208004684FEA420C06FA0CF7BC430F7948
:100B900007F0030707FA0CF7274307604C6814F4C3
:100BA000403F70D03C4C276847F48047276024685A
:100BB00022F0030704F480440094384C07EB040C43
:100BC000DCF8084897074FEA177809FA08F7BC439A
:100BD000334FB84202D1002724E054E0314FB842ED
:100BE00001D101271EE0304FB84201D1022719E0A0
:100BF0002E4FB84201D1032714E02D4FB84201D146
:100C000004270FE02B4FB84201D105270AE02A4FF5
:100C1000B84201D1062705E0284FB84201D1072785
:100C200000E0082707FA08F72743CCF80878DAF835
:100C300000405746D1F804C09C435FEACC2C00D555
:100C40001C433C60DBF800405F46D1F804C09C4385
:100C50005FEA8C2C00D51C433C60DEF800407746F0
:100C6000D1F804C09C435FEA8C3C00D51C433C6037
:100C7000084F083F3C68D1F804C09C435FEACC3C75
:100C800000D51C433C60521C102AFFF42FAFBDE876
:100C9000F88F0000083C0140443802400030014019
:100CA000000002400004024000080240000C024024
:100CB000001002400014024000180240001C0240D4
:100CC0000069084000D001207047426921EA020310
:100CD0000A4043EA0241816170470AB1816170476D
:100CE0000904FBE7014880687047000050000020BD
:100CF00070B5040025D094F83D00002520B984F893
:100D00003C50204600F050F9242084F83D00206833
:100D1000016821F0010101602068016841F400418F
:100D200001602068016821F40041016000F0E4FAEC
:100D30004D4A6168914201D84C4900E04C498842D3
:100D400001D2012070BD4B492368B0FBF1F15E6810
:100D500026F03F060E435E606368934206D94FF467
:100D6000967359434FF47A73B1FBF3F12368491C2E
:100D70001E6A26F03F06314319626168914210D81D
:100D80004900401EB0FBF1F2521CC2F30B02042AD0
:100D900001D2042022E0B0FBF1F0401CC0F30B00B4
:100DA0001CE0A268F2B301EBC10303EB0116431E82
:100DB000B3FBF6F35B1C43F480431B0549D092B3AD
:100DC00001EBC10202EB0111401EB0FBF1F0401C2F
:100DD000C0F30B0040F4804040F400402168CA6931
:100DE0004CF6FF739A431043C861D4E907100143DE
:100DF0002068026822F0C00211430160D4E90301B7
:100E000001432068826848F2FF339A4311438160AE
:100E1000D4E9050108432168CA6822F0FF021043A3
:100E2000C86001E00EE016E02068016841F00101B1
:100E300001602564202084F83D00256384F83E503D
:100E4000002070BD01EB4106431EB3FBF6F35B1CB3
:100E5000B3E70120C2E701EB4101401EB0FBF1F016
:100E6000401CC0F30B00B7E7A086010080841E0081
:100E700000093D0040420F002DE9FF4F83B09A4624
:100E8000DDE9119793460446DDF84080FFF72AFF1D
:100E9000054694F83D0020287FD1192301224049BE
:100EA0002046009501F09CFC002876D194F83C0087
:100EB000012872D0012084F83C0020680168C9072D
:100EC00003D1016841F0010101602068016821F44B
:100ED00000610160212084F83D00402084F83E003C
:100EE00000262664C4F82480A4F82A90608D20850A
:100EF0002C48E062CDE9007553465A4620460499D5
:100F000001F0F4FB70B930E02A463946204601F082
:100F1000E6FC58B1206C042804D12068016841F433
:100F200000710160012007B0BDE8F08F606A2168A0
:100F300000780861606A401C6062218D491E89B298
:100F40002185628D521E628522685369DB435B07EF
:100F50000BD469B100781061606A401C6062208D1A
:100F6000401E2085608D401E6085208D0028CBD1DD
:100F70002A463946204601F00DFC0028CAD154F813
:100F80003D0B016841F400710160202004F81E0946
:100F9000E67766770020C6E7FFE70220C3E7000098
:100FA000020010000000FFFF2DE9F04186B004466A
:100FB00014216846FFF73EF92F4A2168DFF8BC800C
:100FC00000242E4812250326042708F11008914218
:100FD0001CD1016841F002010160006802AA00F022
:100FE00002000590C020CDE9000582E8D0006946E6
:100FF0002348FFF76DFDD8F8001041F40011C8F840
:101000000010D8F8000000F4001031E01D4A9142B1
:101010002FD1016841F004010160016801F0040171
:101020000591016841F0010101600068694600F026
:10103000010005905015CDE9000502AA124882E88A
:10104000D000FFF745FD4FF48070CDE9000502AAFE
:10105000694682E8D0000D48FFF73AFDD8F8001045
:1010600041F40001C8F80010D8F8000000F40000B6
:10107000059006B0BDE8F0810054004030380240D1
:1010800000040240005C00400008024000000240F2
:101090000248816802781144816070475000002046
:1010A0000B4810B5016841F400710160016841F41A
:1010B00080610160016841F480710160032000F0EB
:1010C0006FF80F2000F006F800F024F8002010BDA3
:1010D000003C024070B50D4D04464FF47A712878FB
:1010E000B1FBF0F00A490968B1FBF0F000F00AFB2F
:1010F00048B9102C07D200222146501E00F030F8CB
:1011000000206C6070BD012070BD00005000002008
:101110005C0000200A4808B5016841F48041016084
:10112000006800F4804000900548001F016841F00D
:1011300080510160006800F08050009008BD000000
:1011400044380240002809DB00F01F0201219140D1
:101150004009800000F1E020C0F800117047000055
:10116000F0B40E4B1B680C46C3F30223C3F1070512
:10117000042D00D90425191D072901D2002300E000
:10118000DB1E012606FA05F1491E214099409E40CA
:10119000761E16403143F0BC02F01EBE0CED00E09E
:1011A000064900F0070208684FF6FF03184040EABE
:1011B0000220034A10430860704700000CED00E075
:1011C0000000FA052DE9F0470E46050065D0DFF86E
:1011D0001481D8F80000F7B200F00700B04207D23F
:1011E00088F80070D8F8000000F00700B04254D131
:1011F00028683D4C810712D5400703D5206840F48C
:10120000E05020602878000703D5206840F4604053
:1012100020602068A96820F0F0000843206028784A
:10122000C0072DD0304968680839012812D002283B
:1012300013D0032811D00968890700292DDA216805
:1012400021F0030101432160FFF74CFD814641F28B
:10125000883A0EE009688903EFE709688901ECE73D
:10126000FFF740FDA0EB0901514502D90320BDE87D
:10127000F0872068696800F00C00B0EB810FEFD1B7
:10128000D8F80010404601F00701B14207D90770B5
:10129000006800F00700B04201D00120E7E728789D
:1012A000400705D52068E96820F4E0500843206035
:1012B0002878000706D52068296920F4604040EAB4
:1012C000C100206000F038F82168084AC1F303111A
:1012D000515CC8400649086006480068FFF7FAFEFE
:1012E0000020C4E7003C02400838024010680008B3
:1012F0005C0000205400002004480549006809688B
:10130000044AC1F38221515CC84070475C00002050
:101310000838024020680008044805490068096848
:10132000044AC1F34231515CC84070475C00002060
:101330000838024020680008154810B5006810F011
:101340000C02144813D04110042A0FD0082A0ED1E1
:101350000F4C241F2268236802F03F025B0207D56E
:101360002068C0F38810A0FB010106E0084610BD0C
:101370002168C1F38811A1FB00010023FEF722FFC1
:101380002168C1F30141491C4900B0FBF1F010BDD7
:10139000083802400024F4002DE9F84F04006ED014
:1013A0002078DFF84C93C007A9F104054AD009F171
:1013B00004000168C1F38101012908D00068C0F36D
:1013C000810002280AD1D9F80000400206D5286819
:1013D000800337D560680028E1D033E06068B0F55D
:1013E000803F10D0B0F5A02F286810D020F48030B6
:1013F0002860286820F4802028606068A8B1FFF782
:1014000071FC06460DE0286840F48030F4E740F4B3
:1014100080202860F7E700BFFFF764FC801B64288A
:1014200073D828688003F7D50CE0FFF75BFC06460D
:1014300005E000BFFFF756FC801B6428F0D8286841
:101440008003F7D42078DFF8AC8280074FF0000AE1
:101450003ED5A748001D016811F00C0F08D00068A8
:10146000C0F3810002280BD1D9F80000400207D454
:101470002868800716D5E068012800D112E033E122
:10148000E068B8B10120C8F80000FFF72BFC064661
:1014900005E000BFFFF726FC801B0228C0D82868A3
:1014A0008007F7D52868216920F0F80040EAC100DC
:1014B00028600DE0C8F800A0FFF714FC064604E021
:1014C000FFF710FC801B02281FD828688007F7D47C
:1014D0002078000722D5864F87486169703771B13F
:1014E00001210160FFF7FEFB064604E0FFF7FAFB6F
:1014F000801B022809D838688007F7D50EE0C0F8AD
:1015000000A0FFF7EFFB064605E082E0FFF7EAFBED
:10151000801B02287DD838688007F7D420784007E0
:1015200068D5DFF8CCB100270BF13C0BDBF80000ED
:10153000C0000BD4DBF8001041F08051CBF8001054
:10154000DBF80000012700F0805000906B4E3068FF
:10155000C00510D4306840F480703060FFF7C2FBE3
:10156000009005E0FFF7BEFB0099401A022850D812
:101570003068C005F6D55E4EA0686C3601280FD0E5
:101580000528306810D020F001003060306820F06D
:1015900004003060A068B8B1FFF7A4FB00900FE032
:1015A000306840F00100F4E740F004003060F7E7F5
:1015B000FFF798FB0099411A41F28830814266D8C2
:1015C00030688007F4D50EE0FFF78CFB009007E051
:1015D000FFF788FB0099411A41F28830814256D8C2
:1015E00030688007F4D42FB1DBF8001021F080516F
:1015F000CBF80010A069C8B33D49091D0968C1F3C3
:10160000810102294AD00228504607D0C8F860005C
:1016100000E03CE0FFF766FB04463BE04746C8F8C5
:101620006000FFF75FFB064605E000BFFFF75AFBCF
:10163000801B02282BD828688001F7D4D4E9070141
:101640000843A16A2E4A490802EB0141626A41EA55
:101650008211084394F82C1040EA0161C9F8001087
:1016600001203866FFF73EFB044606E03EE000BF7F
:10167000FFF738FB001B022809D828688001F7D53E
:1016800034E000BFFFF72EFB001B022802D9032025
:10169000BDE8F88F28688001F4D427E00128F7D04E
:1016A000D9F80000E26900F4800191421CD1226A5D
:1016B00000F03F01914217D147F6C071626A0140C4
:1016C000B1EB821F10D1A26A4FF0FF3300F440311A
:1016D00003EB5202B1EB024F06D194F82C1000F04C
:1016E0007060B0EB016F01D00120D1E70020CFE79F
:1016F0000438024000004742800E4742007000401C
:101700000000FFFF10B5401EB0F1807F01D3012023
:1017100010BD4FF0E02460610F21601702F05CFB08
:101720000020A06107202061002010BD7047704795
:1017300070B590F83C20012A32D0012480F83C405A
:10174000022280F83D2003685A689D6822F07006E6
:101750000A6832435A60134B02689A4214D0B2F1BD
:10176000804F11D0104B9A420ED0104B9A420BD0A2
:101770000F4B9A4208D00F4B9A4205D00E4B9A421B
:1017800002D00E4B9A4204D1496825F080031943D8
:10179000916080F83D40002180F83C10084670BD03
:1017A000022070BD0000014000040040000800401D
:1017B000000C0040000401400040014000180040BF
:1017C00010B5040003D094F83D0010B107E00120EB
:1017D00010BD002084F83C00204600F01FF80220D5
:1017E00084F83D00211D206801F0F0FF012084F8FD
:1017F000460084F83E0084F83F0084F8400084F8F6
:10180000410084F8420084F8430084F8440084F8DE
:10181000450084F83D00002010BD000008B50168B7
:101820001048B1F1804F0BD00F4A914207D10168A7
:1018300041F002010160006800F00200009008BD64
:10184000016841F0010101600068002200F0010020
:10185000009011461C20FFF783FCBDE808401C20C7
:10186000FFF770BC403802400004004090F83D1083
:10187000012901D001207047022180F83D10006845
:101880001149884214D0B0F1804F11D00F498842DD
:101890000ED00F4988420BD00E49884208D00E491D
:1018A000884205D00D49884202D00D49884204D1B2
:1018B000816801F00701062903D0016841F00101A8
:1018C000016000207047000000000140000400405B
:1018D00000080040000C00400004014000400140AE
:1018E0000018004090F83D10012901D001207047F8
:1018F000022180F83D100168CA6842F00102CA6006
:1019000000681149884214D0B0F1804F11D00F49BE
:1019100088420ED00E4988420BD00E49884208D02A
:101920000D49884205D00D49884202D00C498842B1
:1019300004D1816801F00701062903D0016841F054
:1019400001010160002070470000014000040040D8
:1019500000080040000C004000040140004001402D
:101960000018004001680A6A41F211131A4207D1B7
:101970000A6A9B101A4203D10A6822F001020A6027
:10198000012180F83D100020704770B5044690F8A2
:101990003C000025012817D0012684F83C60022075
:1019A00084F83D002068826822F0770222F47F42AA
:1019B00082600868502838D00DDC20284FD005DC24
:1019C00090B3102811D14AE0022070BD302846D0D3
:1019D00040280AD13BE060282FD070280DD0B0F508
:1019E000805F03D0B0F5005F12D0012584F83D6020
:1019F000002084F83C00284670BDCB68D1E9012165
:101A0000206801F054FF2068816841F0770109E007
:101A1000CB68D1E90121206801F049FF2068816885
:101A200041F480418160E1E719E0CA6849682068B3
:101A300002F012F85021206806E0CA684968206860
:101A400002F01BF86021206801F03BFFCEE7CA6876
:101A50004968206802F000F840212068F4E7226815
:101A600001461046F0E72DE9F0410D46040003D091
:101A700094F83D0018B108E00120BDE8F081002095
:101A800084F83C00204600F041F8022084F83D0034
:101A90002068816844F2070291438160211D20681B
:101AA00001F094FE226890689169166A2B68AF690C
:101AB000034340F20330814341EA0721A868EF69FC
:101AC00008434FF6FC418843E96840EA0720014398
:101AD00028692F6A000140EA0730084369686D6988
:101AE00026F0AA0646EA051529439360226890610C
:101AF00054F8460B0162012004F81F09E0752076B6
:101B0000E0762077A0750020B7E7000070B586B0BA
:101B1000044614216846FEF78DFB20481E4E2568BA
:101B200000231E49103802220124B54216D10D6847
:101B300045F004050D60096801F004010591016894
:101B400041F0080101600068694600F00800059056
:101B50004FF440508DE81500114817E0114EB54282
:101B600018D10D6845F008050D60096801F00801FD
:101B70000591016841F0010101600068694600F0CB
:101B80000100059003208DE815000748CDE90332D8
:101B9000FEF79EFF06B070BD0008004040380240CE
:101BA000000C0240000C004000000240704770B57D
:101BB0000446006801694FF00005C943890715D440
:101BC000C168C943890711D4E91E0161012020774A
:101BD000206880698007204602D0FFF7E7FF04E015
:101BE00000F0C0F8204600F052F92577206801691E
:101BF000C943490717D4C168C943490713D46FF0D3
:101C000004010161022020772068806910F4407F80
:101C1000204602D0FFF7CAFF04E000F0A3F82046F8
:101C200000F035F9257720680169C943090716D402
:101C3000C168C943090712D46FF00801016104208B
:101C400020772068C0698007204602D0FFF7AEFFEA
:101C500004E000F087F8204600F019F925772068A5
:101C60000169C943C90617D4C168C943C90613D459
:101C70006FF010010161082020772068C06910F41E
:101C8000407F204602D0FFF791FF04E000F06AF8A1
:101C9000204600F0FCF8257720680169C943C90790
:101CA00008D1C168C943C90704D1891E0161204612
:101CB00000F052F920680169C943090609D4C168D6
:101CC000C943090605D46FF0800101612046FFF782
:101CD0002DFD20680169C943490609D4C168C9437B
:101CE000490605D46FF040010161204600F042F939
:101CF00020680169C94389060BD4C168C9438906B4
:101D000007D46FF0200101612046BDE87040FFF765
:101D10000EBD70BD10B586B0044614216846FEF7AE
:101D200089FA0D492068884214D10C4800210268C4
:101D300042F002020260006800F0020005900320F9
:101D400000900220CDE90101CDE903106946044865
:101D5000FEF7BEFE06B010BD000400403038024061
:101D600000040240704770B5044690F83C0000261D
:101D70000D4601280FD0012084F83C006AB1042AE6
:101D80001DD0082A2FD00C2A3FD00126002084F82D
:101D90003C00304670BD022070BD206801F09AFD05
:101DA0002068816941F0080181612068816921F022
:101DB00004018161206881692A69114311E020686A
:101DC00001F0B8FD2068816941F4006181612068FB
:101DD000816921F480618161206881692A6941EA11
:101DE00002218161D2E7206801F0DAFD2068C16933
:101DF00041F00801C1612068C16921F00401C1619D
:101E00002068C1692A69114311E0206801F0FCFDD6
:101E10002068C16941F40061C1612068C16921F491
:101E20008061C1612068C1692A6941EA0221C161FA
:101E3000ACE710B5040003D094F83D0010B107E002
:101E4000012010BD002084F83C00204600F01EF860
:101E5000022084F83D00211D206801F0B7FC01201C
:101E600084F8460084F83E0084F83F0084F840007F
:101E700084F8410084F8420084F8430084F8440068
:101E800084F8450084F83D00002010BD704770477D
:101E900010B50446022249B104290ED0082913D0F6
:101EA00094F84100012816D0012010BD94F83E009E
:101EB0000128F9D184F83E200FE094F83F00012872
:101EC000F2D184F83F2008E094F840000128EBD1DB
:101ED00084F8402001E084F841200122206801F0CC
:101EE000D9FC16492068164A884201D0904203D195
:101EF000436C43F4004343642068884213D0B0F13C
:101F0000804F10D00F4988420DD00F4988420AD027
:101F10000E49884207D0904205D00D49884202D030
:101F20000C49884204D1816801F00701062903D0D9
:101F3000016841F001010160002010BD0000014076
:101F4000000401400004004000080040000C004074
:101F500000400140001800400449884204D14FF479
:101F600000510348FEF7B1BE704700000C0400208A
:101F70000008024070477047704710F83D1F4078D6
:101F800008437047F8B5016804460868CA684B6999
:101F900010F00F0F4FF0000559D003F0010602F4C6
:101FA0009077374365D0C10705D0D10503D5216CA3
:101FB00041F001012164410705D5D90703D0216C07
:101FC00041F002012164810705D5D90703D0216CB6
:101FD00041F004012164010707D502F020013143DB
:101FE00003D0216C41F008012164216C00293AD012
:101FF000800604D5900602D5204601F07FFD2068BA
:102000004069216CC0F38010090700D460B32046FA
:1020100001F04DFD20684069400621D5206814304C
:1020200050E8001F21F0400140E80012002AF5D1DD
:10203000A06BA8B16C490165A06BFEF724FD0028D8
:1020400011D0A06B016D01B0BDE8F04008478306D8
:102050000FD593060DD52046BDE8F84001F04EBDE2
:102060002046FFF789FFF8BD2046FFF785FF25646E
:10207000F8BD266B2023012E79D1C60677D5D6066A
:1020800075D50868486800904869400640D5A16B3E
:10209000086840680004000CEAD0A28D8242E7D9AB
:1020A000E085C869B0F5807F2DD020680C3050E8FD
:1020B000001F21F4807140E80012002AF5D1206849
:1020C000143050E8001F21F0010140E80012002AFE
:1020D000F5D12068143050E8001F21F0400140E89D
:1020E0000012002AF5D184F83E30256320680C30B8
:1020F00050E8001F21F0100140E80012002AF5D13D
:10210000A06BFEF777FCA08DE18D401A81B229E02B
:10211000A08DE18D401A81B2E08D0028A8D0002961
:10212000A6D020680C3050E8002F22F4907240E8CE
:102130000026002EF5D12068143050E8002F22F040
:10214000010240E80026002EF5D184F83E302563D8
:1021500020680C3050E8002F22F0100240E80023E5
:10216000002BF5D12046FFF706FFF8BDFFE7050677
:102170002BD5150629D594F83D002128F5D1A06866
:10218000B0F5805F01D12069B0B1206A411C2162A5
:10219000216800784860E08C401E0004000CE08458
:1021A000E3D12068C16821F08001C1602068C16866
:1021B00041F04001C160D8E7206A0088C0F3080000
:1021C0004860206A801C2062E5E74006CDD55006B5
:1021D000CBD5CA68204622F04002CA6084F83D3060
:1021E00000F06BFAC1E700009F3A000870B50400E8
:1021F00004D094F83D00002510B106E0012070BD28
:1022000084F83C50204600F023F8242084F83D0058
:102210002068C16821F40051C160204601F0CEFC65
:102220002068016921F4904101612068416921F031
:102230002A0141612068C16841F40051C1602564F0
:10224000202084F83D0084F83E00002070BD00008E
:10225000F0B587B0044614216846FDF7EBFF276808
:102260004D494C4C00224C4B1439022503264B4857
:102270004FF0070CA7421FD11C6844F010041C60EB
:102280001B6803F0100305930B6843F001030B6018
:10229000096802AC01F0010105917102CDE9001558
:1022A00084E844106946FEF713FC002211462520FD
:1022B000FEF756FF252024E0374CDFF8E4E0241F2A
:1022C000774522D1236843F400332360236803F465
:1022D000003305930B6843F001030B60096802AB00
:1022E00001F0010105910C21CDE9001583E84410AE
:1022F0006946FEF7EDFB002211462620FEF730FF6F
:102300002620FEF71FFF07B0F0BD2648874221D1E7
:10231000206840F480202060206800F48020059030
:10232000086840F008000860086802AB00F0080088
:1023300005904FF44070CDE9000583E844106946EC
:102340001948FEF7C5FB002211462720FEF708FFBB
:102350002720D6E715488742D5D1186840F02000DD
:102360001860186800F020000590086840F004002C
:1023700008600868029200F004000590C020CDE9D2
:1023800000050820CDE9036069460948FEF7A0FB77
:10239000B9E700000010014044380240000002404C
:1023A0000044004000480040000C0240001401407E
:1023B0000008024090F83E30202B0ED159B152B1A6
:1023C00090F83C30012B08D0012380F83C300023EA
:1023D000036301F079BC01207047022070470000C0
:1023E0002DE9F0477849074600680968774C0025D1
:1023F000884246D1A2784FF48071501CA070FF2A09
:1024000004D3A5707248FDF715FF3AE0714A2069C0
:10241000637A1354401C20610A2B2ED102239FEDB6
:102420006E0AE36084ED050AF2EE040A401E0CE039
:10243000D65CF0EE401A303E01EE106A5B1CB8EE3E
:10244000C11AB0EE410A01EEA00A8342F0DB84ED2E
:10245000050AC4E9033550783A280ED1107861286E
:1024600004D0622806D0742807D101E05B4802E05E
:102470005B4800E05B4880ED000A5548FDF7DAFE56
:10248000A57059484FF00109874241D15748584E2D
:10249000237802783088DFF85C810146401C80B2E6
:1024A00013B1012B10D006E0C1F30E0108F8012092
:1024B000308084F800903088C72821D9C8214D4841
:1024C000FDF7B8FE358023E008F801203080C728EA
:1024D00005D9C8214748FDF7ADFE358000E018B9A1
:1024E00018F8010C0A2813D131884248414411F8E8
:1024F000021CE1703580C821FDF79CFE257007E0C5
:102500002078022804D13580C8213A48FDF792FE90
:102510003948874246D13948394E63780278308845
:10252000384F411C89B213B1012B07D015E0C0F31D
:102530000E003A54318084F801900EE03A54318014
:10254000C72904D9C8212F48FDF774FE358031888A
:10255000781810F8012C0A2A08D03088C72819D911
:10256000C8212848FDF766FE35801BE0102919D9DF
:1025700010F8061D2171417861718178A171C178CF
:10258000E171007920723580C8211E48FDF752FEA6
:10259000657007E06078022804D13580C8211948A9
:1025A000FDF748FE012211490F48FFF703FF0749D5
:1025B000012209310448FFF7FDFEBDE8F047012282
:1025C0000E490D48FFF7F6BE7005002020000020E0
:1025D00048010020480200200000000044000020C4
:1025E00048000020400000202C05002002000020B0
:1025F0000000002060000020B40500203C00002006
:102600003A000020540200202DE9F843044690F8D7
:102610003D001F4616460D4620284CD1C5B1BEB11F
:1026200094F83C00012846D0012084F83C004FF08B
:102630000008C4F84080212084F83D00FEF752FBDA
:10264000A6848146E684A068B0F5805F03D004E0EC
:102650000120BDE8F883206928B12E465FF000050F
:1026600084F83C800EE00026FAE78021204601F045
:1026700048FBA0B9AEB116F8010B21684860E08CA8
:10268000401EE084E08C4B464FF00002009700288B
:10269000EBD14FF04001204601F033FB30B1032075
:1026A000D7E735F8020BC0F30800E6E7202084F8EE
:1026B0003D000020CDE70220CBE77047FEE7016830
:1026C0004A69D24352050FD46FF480624A610021F7
:1026D00040F8301F202242738173026942F00402E5
:1026E0000261017301207047002070472DE9F84313
:1026F000044600680D46DDE90897016898461646CD
:1027000041F4807101604B4600224FF001112046D8
:10271000009700F065F848B120680068C00502D550
:102720004FF4007020640320BDE8F883216805F0B1
:10273000FE0008613B464A461549204600F084F8F1
:1027400088B920684169806900903A464946204628
:1027500000F0C5F848B1206C042804D12068016855
:1027600041F4007101600120DEE7F5B2B8F1010F1C
:1027700009D02168300A08613A464946204600F0EF
:10278000AEF80028E7D1206805610020CCE7000002
:102790000200010070B516460D4604460DE02046C5
:1027A000FFF78DFF08B1012070BD681C05D0FEF752
:1027B00099FA801BA84207D835B120684069C04308
:1027C0004007ECD4002070BD002044F8300F2021D9
:1027D0006173A073216941F0200121612073E2E758
:1027E0002DE9F0471E4690460D460446C1F30747C3
:1027F000DDF8209008E0701C06D0FEF773FAA0EB1D
:102800000900B0420FD876B12068012F18D0806936
:1028100025EA00000004000C14D000214145EAD054
:102820000020BDE8F087002044F8300F20216173BC
:10283000A073216941F02001216120730120F0E79C
:102840004069E5E70121E9E72DE9F0479A4691461D
:102850000E46044600254FF02008C1F3074725E047
:1028600020684069C043400514D42068016841F4E1
:102870000071016021686FF480604861256384F80D
:102880003D8084F83E50206C40F00400206484F8C1
:102890003C501FE0B9F1FF3F08D0FEF723FAA0EB50
:1028A0000A0149450CD8B9F1000F09D02068012F61
:1028B00013D0806926EA00000004000C0BD0CFE79B
:1028C00044F8305F84F80D80A573206940F0200043
:1028D000206125730120BDE8F0874069EAE770B503
:1028E00016460D4604460DE02046FFF7E8FE08B107
:1028F000012070BD681C05D0FEF7F4F9801BA842CA
:1029000007D835B120684069C0430006ECD40020E8
:1029100070BD002044F8300F20216173A07321693D
:1029200041F0200121612073E2E70000044800210A
:1029300002685163006842F21C51C1637047000095
:102940005404002008B56B4602224121682000F0A3
:10295000E7F9BDF8000040BA00B2FDF78CFD9FED2D
:102960000D1B53EC112BFDF717FD9FED0C1B53ECCA
:10297000112BFDF76AFCFDF78FFD00EE100ADFED6D
:10298000090A20EE200ABDEEC00A10EE100A00B2BD
:1029900008BD00000000000000407540A4703D0A22
:1029A000D74342400000C84270B5134D4FF4006455
:1029B000002221462846FEF790F9022001F02CFA69
:1029C0000122960231462846FEF787F9022001F0DF
:1029D00023FA002231462846FEF77FF9022001F053
:1029E0001BFA012221462846FEF777F9BDE8704020
:1029F000022001F011BA00000004024010B586B0B8
:102A000014216846FDF716FC1448016841F00201E4
:102A10000160016801F002010591016841F00201C5
:102A2000016000680E4C00F0020005904FF48060D9
:102A300000900120019002900220039069462046F8
:102A4000FEF746F8E01400901120019069462046F8
:102A5000FEF73EF800F0B0F806B010BD3038024086
:102A60000004024070B50E4C0122D1022046FEF750
:102A700034F9022001F0D0F90122950229462046BE
:102A8000FEF72BF9022001F0C7F900222946204663
:102A9000FEF723F9BDE87040022001F0BDB9000047
:102AA000000402402DE9F0470024174E80462546D9
:102AB0004FF400694FF480676006040E0122394626
:102AC0003046FEF70AF9022001F0A6F949463046E1
:102AD000FEF7F6F808B1641CE4B20022394630462D
:102AE000FEF7FBF8022001F097F96D1CEDB2082DFE
:102AF000E2D3B8F1000F04D0FFF756FF2046BDE83F
:102B0000F087FFF7AFFFF9E7000402402DE9F0413D
:102B1000154F002405464FF400683E15280601D5E0
:102B2000012200E0002241463846FEF7D6F8022096
:102B300001F072F9012231463846FEF7CEF8022044
:102B400001F06AF9002231463846FEF7C6F86806F9
:102B5000641C050EE4B2082CE0D341463846BDE8BB
:102B6000F0410122FEF7B9B80004024070B501221D
:102B7000104DD40221462846FEF7AFF801229602F6
:102B800031462846FEF7A9F8022001F045F9002257
:102B900021462846FEF7A1F8022001F03DF9002267
:102BA00031462846FEF799F8BDE87040022001F052
:102BB00033B900000004024070B50E4D4FF40064BC
:102BC000002221462846FEF788F8022001F024F969
:102BD000012291022846FEF780F8022001F01CF93C
:102BE000012221462846FEF778F8BDE87040022011
:102BF00001F012B9000402402DE9F0410122174E04
:102C00000024D702254639463046FEF766F80220F2
:102C100001F002F94FF48068012241463046FEF788
:102C20005CF8022001F0F8F807E0641CE4B2FA2C2A
:102C300003D9FFF7C1FF012505E039463046FEF70D
:102C40003FF80028F1D1002241463046FEF745F812
:102C5000022001F0E1F82846BDE8F08100040240BE
:102C600010B50122D1021E48FEF737F8FFF7C6FE65
:102C700080216B2000F0C3F86420FDF717FF0021CE
:102C80006B2000F0BCF8032000F085F8002000F075
:102C90007DF8322000F09CF80021382000F0AFF8D9
:102CA00000216A2000F0ABF80021232000F0A7F8F3
:102CB0008021372000F0A3F8752000F013F8682871
:102CC00001D0012010BD01216B2000F098F80021F7
:102CD0006C2000F094F8322000F07AF8002010BD4B
:102CE0000004024010B50446FFF740FFD020FFF774
:102CF0000DFFFFF781FF2046FFF708FFFFF77CFF7E
:102D0000FFF734FFD120FFF701FFFFF775FF002029
:102D1000FFF7C8FE0446FFF74FFF204610BD000036
:102D20002DE9F0411D4614460F460646FFF71EFFEB
:102D30007006000EFFF7EAFEFFF75EFF20B1FFF717
:102D40003BFF0120BDE8F0813846FFF7DFFEFFF7CB
:102D500053FFFFF70BFF012000EB4600C0B2FFF767
:102D6000D5FEFFF749FF09E0012C0DD05FF001000F
:102D7000FFF798FE641E05F8010BE4B2002CF3D1B6
:102D8000FFF71AFF0020DDE70020F1E7C006010E83
:102D90001C2000F034B8C006010E1B2000F02FB834
:102DA000BC2801D3012110E0622801D302210CE0EC
:102DB0002A2801D3032108E0142801D3042104E0C8
:102DC0000A2801D3052100E006211A2000F017B8D7
:102DD00010B504464FF47A70844201D9044602E0EB
:102DE000042C00D20424B0FBF4F0401EC1B2192020
:102DF00000F005F86008BDE81040FFF7D1BF70B5DE
:102E00000C460546FFF7B2FED020FFF77FFEFFF726
:102E1000F3FE50B92846FFF779FEFFF7EDFE204696
:102E2000FFF774FEFFF7E8FE18B1FFF7C5FE0120BB
:102E300070BDFFF7C1FE002070BD00007FB500240B
:102E400015480094019402941249039401604FF4D0
:102E50008031C0E901140461047680F820400F49F4
:102E6000C0E90A140125C561C46080F8304045619D
:102E7000FDF766FD08B1FDF7A5FC0620CDE90005CC
:102E8000694602940448FDF7B5FC002801D0FDF71F
:102E900099FC7FBD002001401C0300200100000FB1
:102EA0002DE9F04786B014216846FDF7C3F9404884
:102EB0000024016841F080010160016801F0800197
:102EC0000591016841F004010160016801F004010D
:102ED0000591016841F001010160016801F0010103
:102EE0000591016841F002010160016801F00201F1
:102EF0000591016841F010010160016801F01001C5
:102F00000591016841F0080101600068DFF8A480C4
:102F100000F00800059000220F214046FDF7DDFE7D
:102F2000DFF894904FF44067002239464846FDF799
:102F3000D4FEDFF888A00022F0215046FDF7CDFE38
:102F40000F2601250096CDE90154694640460394B9
:102F5000FDF7BEFD4FF4FF40CDE900046946184877
:102F60000294FDF7B5FD0097CDE901546946484646
:102F70000394FDF7ADFD009669465046CDE9014545
:102F8000FDF7A6FD7020CDE900050220CDE9020481
:102F900069465046FDF79CFD80200090CDE9015424
:102FA000694650460394FDF793FD06B0BDE8F087EF
:102FB000303802400008024000040240000C024089
:102FC000001002400D4810B50B4901600C494160EA
:102FD00000214FF480428160C0E9031241618161A8
:102FE000C1610162FDF784FE002803D0BDE81040F6
:102FF000FDF7E8BB10BD0000005400406403002052
:10300000A08601000D4810B50B4901600C494160D4
:1030100000214FF480428160C0E903124161816167
:10302000C1610162FDF764FE002803D0BDE81040D5
:10303000FDF7C8BB10BD0000005C0040B8030020D5
:10304000A086010010B586B00024164800940194B3
:103050000294039404944FF080410594016053213D
:10306000C0E901144FF6FF71C0E903148461FEF753
:10307000A7FB08B1FDF7A6FB4FF48050009069460E
:103080000848FEF782FC08B1FDF79CFB049404A9F4
:1030900004480594FEF74CFB002801D0FDF792FB95
:1030A00006B010BD0C04002010B58EB000240794AB
:1030B000089409940A940B941C2168460C94FDF71B
:1030C000B9F82248204901604721C0E9011442F2C1
:1030D0000F71C0E903148461FEF772FB08B1FDF7BC
:1030E00071FB4FF48050079007A91848FEF74DFC7C
:1030F00008B1FDF767FB1548FEF79BFE08B1FDF729
:1031000061FB0B940BA911480C94FEF711FB08B15D
:10311000FDF758FB6020CDE90004029408226946BF
:103120000A480494FEF71FFE08B1FDF74BFB0C2282
:1031300069460648FEF717FE08B1FDF743FB034852
:10314000FEF7E8FD0EB010BD00040040540400205E
:1031500010B58CB024216846FDF76CF800241648A1
:10316000099414490A94C0E9001444F62061C0E9A6
:103170000241046184610320CDE900040120CDE90E
:1031800002040494CDE90540079469460A4808946E
:10319000FEF769FC08B1FDF715FB099409A906487B
:1031A0000A94FEF7C5FA002801D0FDF70BFB0CB01E
:1031B00010BD0000000800409C04002010B58CB039
:1031C00024216846FDF736F800241648099414496E
:1031D0000A94C0E9001444F62061C0E90241046188
:1031E00084610320CDE900040120CDE902040494A8
:1031F000CDE90540079469460A480894FEF733FC78
:1032000008B1FDF7DFFA099409A906480A94FEF708
:103210008FFA002801D0FDF7D5FA0CB010BD0000E0
:10322000000C0040E40400200C4810B50A4901607D
:103230004FF461414160002181600C22C160C0E90E
:1032400004128161C161FEF7D1FF002803D0BDE8FF
:103250001040FDF7B7BA10BD001001402C0500204A
:103260000C4810B50A4901604FF4E131416000217A
:1032700081600C22C160C0E904128161C161FEF766
:10328000B5FF002803D0BDE81040FDF79BBA10BD84
:1032900000440040700500200C4810B50A49016048
:1032A0004FF416514160002181600C22C160C0E9D9
:1032B00004128161C161FEF799FF002803D0BDE8C7
:1032C0001040FDF77FBA10BD00480040B405002053
:1032D0000C4810B50A4901604FF4E131416000210A
:1032E00081600C22C160C0E904128161C161FEF7F6
:1032F0007DFF002803D0BDE81040FDF763BA10BD84
:1033000000140140F8050020FEE7FEE770B5002438
:1033100004F1B000C0B200F023F9002000F020F961
:10332000102000F01DF90025002000F02BF96D1C85
:10333000EDB2802DF8D3641CE4B2082CE8D370BD44
:1033400010B5C820FDF7B2FBBDE8104000F02ABD63
:1033500010B50446B031C8B200F002F9102040EABE
:10336000141000F0FDF804F00F00BDE8104000F06C
:10337000F7B800002DE9F041203A00240D468046C0
:10338000D6B27F2803D900208D1C8046EDB2102BC9
:1033900029460FD0FFF7DCFF164906EB460001EB8C
:1033A0004005285D00F0EEF8641CE4B2062CF8D36A
:1033B000BDE8F081FFF7CCFF0F4F00BF04EB061014
:1033C000385C00F0DFF8641CE4B2082CF6D36D1C06
:1033D000E9B24046FFF7BCFF5FF0000404EB0610C3
:1033E0003844007A00F0CEF8641CE4B2082CF5D31F
:1033F000DEE7000008410008304300082DE9F05FD7
:103400000026DDF828901D4692468B4680463446BD
:103410004FEA590723E0281B401EC1B20A2000F0E2
:103420004BFEBAFBF0F00A21B0FBF1F201FB1200F7
:1034300026B9691E8C4201DA38B101263030C2B299
:1034400007FB0480C0B24B4604E007FB0480C0B217
:103450004B4620225946FFF78DFF641CE4B2AC4274
:10346000D9D3BDE8F09F2DE9FF5F05462DED020B96
:10347000002499462DED028BB0EE408A1298BDEEE5
:10348000C80A16464FF00A0A10EE108A470825E0CF
:10349000301B401EC1B20A2000F00EFEB8FBF0F156
:1034A000B1FBFAF20AFB1210BBF1000F05D1711E3D
:1034B0008C4202DA40B14FF0010B3030C2B207FB50
:1034C0000450C0B2129B04E007FB0450129BC0B230
:1034D00020220599FFF74EFF641CE4B2B442D7D313
:1034E00007FB0650C0B22E22129B0599FFF742FF40
:1034F00049460A2000F0E0FD00EE100A00246D1D90
:10350000F8EE400A00EE108AB8EEC00A38EE400A23
:1035100020EE800ABDEEC00A10EE108A18E0A9EB7A
:103520000400401EC1B20A2000F0C6FDB8FBF0F155
:10353000B1FBFAF20AFB1211A01907FB005030315F
:10354000CAB2C0B2129B0599FFF714FF641CE4B223
:103550004C45E4D3BDEC028B06B0BDE8F09F000003
:1035600001B584B001214FF4807204A88DE80700F2
:103570000B46002278210248FDF77EFC05B000BD15
:103580006403002001B584B001214FF4807204A8C7
:103590008DE807000B46402278210248FDF76CFCBD
:1035A00005B000BD640300200F48114990ED000AEA
:1035B0000E4880ED010A91ED000A80ED000A9FEDB2
:1035C0000D0A80ED020A80ED030A80ED040AB7EED1
:1035D000000A80ED050AB2EE050A80ED060A9FEDAD
:1035E000060A80ED070A70474800002028010020E5
:1035F0004400002000000000CDCC4C3D704700008E
:103600000548002102685163026891630268D16332
:10361000006801647047000054040020044842F22E
:1036200048610268516300680021C163704700006F
:10363000540400207047F8B5064600200090684604
:10364000FDF7C2F84FF6FF752B460122694630465A
:10365000FEF7DAFF3046FEF790FC2128FAD06C46E0
:103660002B4601223046611CFEF7CEFF3046FEF7A6
:1036700084FC2128FAD02B460122A11C3046FEF7FB
:10368000C3FF3046FEF779FC2128FAD02B460122F1
:10369000E11C3046FEF7B8FF3046FEF76EFC2128ED
:1036A000FAD0F8BDF8B5064619A04FF6FF750068C8
:1036B00000902B46012269463046FEF7A5FF3046B2
:1036C000FEF75BFC2128FAD06C462B4601223046DF
:1036D000611CFEF799FF3046FEF74FFC2128FAD017
:1036E0002B460122A11C3046FEF78EFF3046FEF726
:1036F00044FC2128FAD02B460122E11C3046FEF77B
:1037000083FF3046FEF739FC2128FAD0F8BD0000CF
:103710000000807FFDF7BCBC30B593B03021684617
:10372000FCF788FD14210CA8FCF784FD1E48002539
:10373000016841F080510160006800F080501190F4
:103740001A48016841F4804101600068022400F4D5
:103750008040119001200090000401908001CDE98B
:103760000640082008904FF4A870CDE90904042011
:103770000B906846FDF710FE08B172B6FEE70CA983
:103780000F2081E831004FF4A0500F904FF480508B
:10379000109005210CA8FDF715FD002801D072B688
:1037A000FEE713B030BD000040380240007000401A
:1037B0000248016841F470010160704788ED00E043
:1037C0000148FEF7F4B900000C040020F0B50268CF
:1037D000254C264D264E274F274B4FF0804CA042BC
:1037E00009D0604507D0A84205D0B04203D0B84206
:1037F00001D0984204D122F0700E4A6842EA0E02CB
:10380000A0421BD0604519D0A84217D0B04215D0B5
:10381000B84213D0984211D0184DA8420ED0184D7E
:10382000A8420BD0174DA84208D0174DA84205D08A
:10383000164DA84202D0164DA84203D122F440757D
:10384000CA682A434D6922F080022A4302608A68CE
:10385000C2620A688262A04201D0984201D109691D
:10386000016301214161F0BD0000014000040040FE
:1038700000080040000C00400004014000400140EE
:10388000004401400048014000180040001C004076
:103890000020004010B501F01F030121046A994087
:1038A0008C430462016A9A401143016210BD10B555
:1038B000846842EA032224F47F440A43224382605C
:1038C00010BD826822F070020A4342F00701816055
:1038D00070470000F0B5026A22F001020262036A3A
:1038E00042688469124E24F073050C682C4323F05F
:1038F00002058B682B430D4DA84201D0B04205D183
:1039000023F00807CB683B4323F00403A84201D00F
:10391000B04205D14D6922F4407215438A692A43A9
:1039200042608461496841630362F0BD0000014068
:1039300000040140F0B5026A22F010020262026A3D
:10394000436884690D6824F4E64444EA05248D68DC
:1039500022F0200242EA05120F4D104EA84201D07B
:10396000B04206D1CF6822F0800242EA071222F06C
:103970004002A84201D0B04207D14D6923F4406310
:1039800043EA85038D6943EA85034360846149689E
:1039900081630262F0BD00000000014000040140AC
:1039A000F0B5026A22F480720262026A4368C46956
:1039B00022F4007224F073050C68124E2C438D68BB
:1039C00042EA05220E4DA84201D0B04206D1CF688E
:1039D00022F4006242EA072222F48062A84201D067
:1039E000B04207D14D6923F4405343EA05138D6972
:1039F00043EA05134360C4614968C1630262F0BDD4
:103A0000000001400004014030B5026A22F48052F7
:103A10000262046A4268C3690D6823F4E64343EA1C
:103A200005238D6824F4005444EA0534084DA84267
:103A300002D0084DA84204D14D6922F4804242EAE6
:103A400085124260C36149680164046230BD0000B0
:103A5000000001400004014010B5036A046A24F02C
:103A600001040462846924F0F00444EA021423F09F
:103A70000A020A438461026210BD10B5036A23F092
:103A8000100303628369046A23F4704343EA023239
:103A900024F0A00343EA01118261016210BD10B558
:103AA000806B0021C185C184FEF766FA10BD0168F4
:103AB0000C3151E8002F22F4907241E80023002BD2
:103AC000F5D10168143151E8002F22F0010241E8DC
:103AD0000023002BF5D1016B012909D101680C31BC
:103AE00051E8002F22F0100241E80023002BF5D10D
:103AF000202180F83E1000210163704708B590F83E
:103B00003E10222901D0022008BD82684FF4805364
:103B10009A4201D1016921B1816A9A421BD04AB10E
:103B20000AE00268816A5268C2F308020A80816A68
:103B3000891C08E0026972B10268526802F07F02D3
:103B40000A70816A491C8162C18D491E0904090CF1
:103B5000C18503D019E002685268F1E70168CA68BC
:103B600022F02002CA600168CA6822F48072CA602A
:103B700001684A6922F001024A61202180F83E1062
:103B8000016B012903D0FEF72BFC002008BD0021AA
:103B9000016301680C3151E8002F22F0100241E866
:103BA0000023002BF5D101680A68D20602D50A6805
:103BB00049680091818DFEF7DEF9E6E770B50446AD
:103BC00000680169E26821F44051114301612169F3
:103BD000A068E26908436169114308432168CA6823
:103BE00049F20C639A430243CA6020684169A269A2
:103BF00021F440711143416131492068884202D06B
:103C00003049884202D1FDF787FB01E0FDF774FBE4
:103C1000E2690023192164253226B2F5004F62685B
:103C200028D0A0FB0101930F9200FCF7CBFA0146CC
:103C3000B0FBF5F06FF01802504301EB800006EB8B
:103C40000010B0FBF5F000F0F002B1FBF5F002EB74
:103C50000012B1FBF5F06FF01803584301EB800040
:103C600006EB0010B0FBF5F000F00F0021681044E7
:103C7000886070BDA0FB010192185B41FCF7A2FABD
:103C80000146B0FBF5F00201B1FBF5F06FF018034F
:103C9000584301EB800006EBC000B0FBF5F000F0EC
:103CA000F80002EB4002B1FBF5F0584301EB800055
:103CB00006EBC000B0FBF5F000F00700D6E700000F
:103CC000001001400014014081628285C2850021FC
:103CD0000164222280F83E2080F83C10016921B165
:103CE0000168CA6842F48072CA6001684A6942F099
:103CF00001024A610068C16841F02001C1600020F2
:103D000070472DE9F041984617460E460446069D39
:103D100027E0681C25D02DB1FCF7E4FFA0EB0800DC
:103D2000A8421ED920680C3050E8001F21F4D07141
:103D300040E80012002AF5D12068143050E8001F36
:103D400021F0010140E80012002AF5D1202084F87A
:103D50003D0084F83E00002084F83C000320BDE8CC
:103D6000F0812068006836EA000004D00020B842E4
:103D7000CFD00020F3E70120F9E700000148FEF76B
:103D800001B900002C0500200148FEF7FBB8000037
:103D9000700500200148FEF7F5B80000B4050020CA
:103DA000FEE70000FEB50024094F4FF480750126A0
:103DB0003819CDE900060123002278210295054833
:103DC000FDF75AF8641CE4B21B2CF1D3FEBD0000D1
:103DD00003000020640300200907090E002804DB0B
:103DE00000F1E02080F80014704700F00F0000F1AF
:103DF000E02080F8141D704702E008C8121F08C1B7
:103E0000002AFAD170477047002001E001C1121F5B
:103E1000002AFBD17047000070B54FF6FA75094EC5
:103E2000281A84B2306844623046FDF71FFD3068BE
:103E300001E0416A8CB2AC42FBD3BDE8704001485E
:103E4000FDF790BD0C04002008B5FDF729F9FFF738
:103E500063FCFFF725F8FFF7B5F8FFF7F3F8FFF776
:103E600023F9FFF7E1F9FFF7FBF9FFF715FAFEF782
:103E7000E5FFFFF7C7F8FFF76BF9FFF79FF9FFF7CB
:103E800027FAFEF7EDFEFFF75BFAFFF78DFB012245
:103E90007C497D48FEF78EFA01227C497C48FEF77A
:103EA00089FA7C496FF00100096808617948FDF7DB
:103EB00019FD7948FDF716FD00217748FDF7E8FF69
:103EC00004217548FDF7E4FF08217348FDF7E0FF82
:103ED0000C217148FDF7DCFFFFF718FA1024DFF81A
:103EE000BCA1DFF8BC81DFF8BCB16F4DDFF8BC913D
:103EF000A7020122102156465046FCF7EEFE012291
:103F000020213046FCF7E9FE012240213046FCF733
:103F1000E4FEFEF717FD00EE100A00214646B8EE5B
:103F2000C00A0123022288ED000A0094287800EEDE
:103F3000100A0846B8EE400AFFF795FA00949BF87D
:103F40000000022200EE100A01231146B8EE400ADA
:103F50000020FFF788FA56480094012300780222D7
:103F600000EE100A04210020B8EE400AFFF77BFAA9
:103F700000940123042296ED000A02214820FFF755
:103F800072FA39464E464846FCF79AFE024601232D
:103F9000062100200094FFF731FA4FF4005130461B
:103FA000FCF78EFE0246012306210C200094FFF749
:103FB00025FA4FF480513046FCF782FE0246012379
:103FC000062118200094FFF719FA4FF400613046DB
:103FD000FCF776FE02460123062124200094FFF719
:103FE0000DFA4FF480613046FCF76AFE0246012369
:103FF000062130200094FFF701FA4FF4007130469B
:10400000FCF75EFE0246012306213C200094FFF7E8
:10401000F5F94FF480713046FCF752FE0246012359
:10402000062148200094FFF7E9F980213046FCF78B
:1040300047FE02460123062154200094FFF7DEF9D3
:104040002878752801D1FCF7C9FB28786C2801D1A4
:10405000FEF76CFC2878722801D1FFF7DFFA287888
:10406000642801D1FCF7A0FB2878302801D1FFF7A4
:10407000C7FA39463046FCF723FE0E4800F024F814
:1040800037E70000020000202C0500203C00002043
:10409000B40500200C04002054040020000C024051
:1040A0004C000020380000202300002000100240B7
:1040B00039000020700500200246012000E0504336
:1040C000491EC9B2FBD2704710B504460B4890EDAB
:1040D000000A2046FFF7AFFA094890ED000A204693
:1040E000FFF7A9FA074890ED000A2046FFF7A3FA68
:1040F0002046BDE81040FFF7D5BA0000440000207C
:1041000048000020400000200000000000000000E7
:10411000002F000000000700070000147F147F1428
:1041200000242A7F2A1200626408132300364955AE
:10413000225000000503000000001C224100000086
:1041400041221C000014083E08140008083E08081C
:10415000000000A060000008080808080000606077
:104160000000002010080402003E5149453E0000B6
:10417000427F4000004261514946002141454B3198
:10418000001814127F10002745454539003C4A4964
:1041900049300001710905030036494949360006D6
:1041A0004949291E0000363600000000563600003E
:1041B00000081422410000141414141400004122B9
:1041C000140800020151090600324959513E007C91
:1041D0001211127C007F49494936003E414141227B
:1041E000007F4141221C007F49494941007F090964
:1041F0000901003E4149497A007F0808087F000014
:10420000417F4100002040413F01007F08142241CE
:10421000007F40404040007F020C027F007F040886
:10422000107F003E4141413E007F09090906003EE2
:104230004151215E007F091929460046494949310B
:104240000001017F0101003F4040403F001F20402E
:10425000201F003F4038403F0063140814630007EC
:104260000870080700615149454300007F41410043
:1042700000552A552A55000041417F0000040201E3
:1042800002040040404040400000010204000020C1
:1042900054545478007F48444438003844444420FF
:1042A00000384444487F00385454541800087E09AC
:1042B00001020018A4A4A47C007F08040478000074
:1042C000447D4000004080847D00007F1028440031
:1042D0000000417F4000007C04180478007C080442
:1042E000047800384444443800FC2424241800187E
:1042F000242418FC007C080404080048545454206A
:1043000000043F444020003C4040207C001C2040F2
:10431000201C003C4030403C004428102844001C35
:10432000A0A0A07C004464544C441414141414142D
:10433000000000000000000000000000000000007D
:10434000000000F800000000000000333000000012
:1043500000100C06100C0600000000000000000019
:1043600040C07840C0784000043F04043F0404008B
:10437000007088FC08300000001820FF211E00009B
:10438000F008F000E018000000211C031E211E00B0
:1043900000F00888700000001E2123241927211036
:1043A00010160E00000000000000000000000000D9
:1043B000000000E018040200000000071820400080
:1043C00000020418E0000000004020180700000070
:1043D000404080F0804040000202010F01020200D4
:1043E000000000F0000000000101011F01010100B8
:1043F000000000000000000080B07000000000001D
:1044000000000000000000000001010101010101A5
:10441000000000000000000000303000000000003C
:104420000000000080601804006018060100000011
:1044300000E010080810E000000F102020100F000E
:10444000001010F8000000000020203F2020000095
:1044500000700808088870000030282422213000ED
:1044600000300888884830000018202020110E00F5
:104470000000C02010F8000000070424243F24009E
:1044800000F80888880808000019212020110E0073
:1044900000E0108888180000000F112020110E0085
:1044A00000380808C83808000000003F000000007D
:1044B0000070880808887000001C222121221C003E
:1044C00000E010080810E0000000312222110F0067
:1044D000000000C0C00000000000003030000000FC
:1044E000000000800000000000008060000000006C
:1044F0000000804020100800000102040810200085
:1045000040404040404040000404040404040400CF
:104510000008102040800000002010080402010064
:10452000007048080808F000000000303601000064
:10453000C030C828E810E0000718272423140B0017
:104540000000C038E0000000203C23020227382091
:1045500008F8888888700000203F202020110E0075
:10456000C03008080808380007182020201008006C
:1045700008F808080810E000203F202020100F0055
:1045800008F88888E8081000203F20202320180021
:1045900008F88888E8081000203F20000300000089
:1045A000C03008080838000007182020221E02002A
:1045B00008F808000008F808203F210101213F20E9
:1045C000000808F8080800000020203F2020000014
:1045D00000000808F8080800C08080807F00000004
:1045E00008F888C028180800203F2001263820003D
:1045F00008F8080000000000203F202020203000A4
:1046000008F8F800F8F80800203F003F003F2000BD
:1046100008F830C00008F808203F200007183F00C5
:10462000E01008080810E0000F10202020100F00F4
:1046300008F808080808F000203F210101010000E7
:10464000E01008080810E0000F18242438504F002C
:1046500008F8888888887000203F2000030C3020EC
:1046600000708808080838000038202121221C002A
:10467000180808F8080818000000203F2000000073
:1046800008F808000008F808001F202020201F005C
:104690000878880000C83808000007380E010000BC
:1046A000F80800F80008F800033C0700073C030086
:1046B000081868808068180820302C03032C3020EC
:1046C0000838C800C83808000000203F200000005B
:1046D00010080808C83808002038262120201800B3
:1046E000000000FE020202000000007F4040400087
:1046F000000C30C000000000000000010638C000BF
:1047000000020202FE000000004040407F00000066
:10471000000004020202040000000000000000008B
:104720000000000000000000808080808080808089
:104730000002020400000000000000000000000071
:1047400000008080808000000019242222223F2067
:1047500008F8008080000000003F112020110E00AA
:104760000000008080800000000E11202020110039
:10477000000000808088F800000E112020103F20EB
:104780000000808080800000001F2222222213006F
:10479000008080F0888888180020203F20200000BA
:1047A0000000808080808000006B9494949360006F
:1047B00008F8008080800000203F210000203F207A
:1047C00000809898000000000020203F202000007A
:1047D000000000809898000000C08080807F00006A
:1047E00008F8000080808000203F24022D30200047
:1047F000000808F8000000000020203F20200000F2
:104800008080808080808000203F20003F20003F0B
:104810008080008080800000203F210000203F2019
:104820000000808080800000001F202020201F00CA
:10483000808000808000000080FFA12020110E00F9
:104840000000008080808000000E112020A0FF80EA
:10485000808080008080800020203F212000010097
:1048600000008080808080000033242424241900EC
:10487000008080E0808000000000001F20200000F9
:104880008080000000808000001F202020103F203A
:10489000808080000080808000010E3008060100CA
:1048A00080800080008080800F300C030C300F006F
:1048B00000808000808080000020312E0E3120009A
:1048C000808080000080808080818E7018060100CA
:1048D00000808080808080000021302C22213000E8
:1048E00000000000807C020200000000003F404009
:1048F0000002027C800000000040403F00000000F9
:1049000000000000FF00000000000000FF000000A9
:10491000000080E0F83840707CEC60A0606000002F
:104920000000000000000000000000000000000087
:104930000001001F3F00040E303F3F00000E040046
:104940000000000000000000000000000000000067
:1049500000808080F8F8C0C01090D8F8B898800027
:104960000000000000000000000000000000000047
:104970000001010B0D060F181111393F0000010055
:104980000000000000000000000000000000000027
:104990000000000000000000000000000000000017
:1049A0000000000000000000000000000000000007
:1049B0000000005878000000000000000000000027
:1049C00000000000000000000000000000000000E7
:1049D000000020B0D8C800F8F8A8ECFC880000005F
:1049E00000000000000000000000000000000000C7
:1049F0000002033F3F00003F3F1B060D0D0C080067
:104A000000000000000000000000000000000000A6
:104A10000000203030F0D0DCBCF05010101000004E
:104A20000000000000000000000000000000000086
:104A30000000003E3E021E1F1D0D25793F0E0000A6
:104A40000000000000000000000000000000000066
:104A50000000002060E01830B0C0F8B8908000007E
:104A60000000000000000000000000000000000046
:104A700000000203131F0D0501051D191903020093
:104A80000000000000000000000000000000000026
:104A9000000000F8F838E8E80CFCF800000000001E
:104AA0000000000000000000000000000000000006
:104AB000000010190D0F071F1E31303030381C0058
:104AC00000000000000000000000000000000000E6
:104AD000000080C8F8B8D848C800E000FCF8000022
:104AE00000000000000000000000000000000000C6
:104AF00000001010161F0F0A080003103F3F0000AF
:104B000000000000000000000000000000000000A5
:104B1000000080E0F83840707CEC60A0606000002D
:104B20000000000000000000000000000000000085
:104B30000001001F3F00040E303F3F00000E040044
:104B40000000000000000000000000000000000065
:104B5000000000F8F8000000000000000000000065
:104B60000000000000000000000000000000000045
:104B70000000001B1B0000000000000000000000FF
:104B80000000000000000000000000000000000025
:104B90001010F01F10F000808282E2928A8680005E
:104BA0000000000000000000000000000000000005
:104BB000402215081661000040807F0000000000C0
:104BC00000000000000000000000000000000000E5
:104BD0001010D0FF901000FE020202FE0000000044
:104BE00000000000000000000000000000000000C5
:104BF000040300FF0083601F0000003F4040780076
:104C000000000000000000000000000000000000A4
:104C10004040202050484443444850202040400019
:104C20000000000000000000000000000000000084
:104C3000000242E2524A464242425262C20200002E
:104C40000000000000000000000000000000000064
:104C500088681FC80810C85452D1129408D0100098
:104C60000000000000000000000000000000000044
:104C7000091909FF0500FF1292FF005F807F000005
:104C80000000000000000000000000000000000024
:104C9000000000000001E21CE00000000000000035
:104CA0000000000000000000000000000000000004
:104CB000804020100C03000000030C304080800076
:104CC00000000000000000000000000000000000E4
:104CD000108C4404E40495A64424148444940C00E9
:104CE00000000000000000000000000000000000C4
:104CF00002027A414143427E42424243F8000000B0
:104D000000000000000000000000000000000000A3
:104D10000484E45C44C40002F2828282FE8080004B
:104D20000000000000000000000000000000000083
:104D300002017F10103F00080808084888403F0023
:104D40000000000000000000000000000000000063
:104D500080828282FE8282828282FE8282828000C1
:104D60000000000000000000000000000000000043
:104D7000008040300F0000000000FF000000000035
:104D80000000000000000000000000000000000023
:104D90001010D0FF901000FE020202FE0000000082
:104DA0000000000000000000000000000000000003
:104DB000040300FF0083601F0000003F40407800B4
:104DC00000000000000000000000000000000000E3
:104DD00000FC848484FC001010101010FF101000E0
:104DE00000000000000000000000000000000000C3
:104DF000003F1010103F0000010640807F000000BF
:104E000000000000000000000000000000000000A2
:104E100000F8010600F0121212F2020202FE000077
:104E20000000000000000000000000000000000082
:104E300000FF0000001F1111111F0040807F0000C3
:104E40000000000000000000000000000000000062
:104E5000000000FE92929292929292FE0000000058
:104E60000000000000000000000000000000000042
:104E700040424458407F4040407F405048464000B8
:104E80000000000000000000000000000000000022
:104E900040404242424242C24242424242404000BC
:104EA0000000000000000000000000000000000002
:104EB000201008060040807F000000020408300037
:104EC00000000000000000000000000000000000E2
:104ED000000000FE929292FE929292FE000000006C
:104EE00000000000000000000000000000000000C2
:104EF00008080484621E010001FE02040408080080
:104F000000000000000000000000000000000000A1
:104F10000202E22222F22E2222E22222E2020200F7
:104F20000000000000000000000000000000000081
:104F30000000FF40407F4949497F4040FF0000009A
:104F40000000000000000000000000000000000061
:104F500090523410FF10345280708F0808F8080007
:104F60000000000000000000000000000000000041
:104F7000829A566322528E008040330C3340800068
:104F80000000000000000000000000000000000021
:104F90001010FF109000FE929292F292929E80006A
:104FA0000000000000000000000000000000000001
:104FB00042827F0180601F00FC44474444FC0000A3
:104FC00000000000000000000000000000000000E1
:104FD0000080609F0808F80000FF1020408000005B
:104FE00000000000000000000000000000000000C1
:104FF000814020130C132020405F4040404140007E
:1050000000000000000000000000000000000000A0
:10501000048484FC848400FE9292FE9292FE00003E
:105020000000000000000000000000000000000080
:105030002060201F1010404444447F4444444000FA
:105040000000000000000000000000000000000060
:10505000404042CC0040404040FF40404040400083
:105060000000000000000000000000000000000040
:105070000000007F2010000000FF00000000000082
:105080000000000000000000000000000000000020
:105090000804F3525652525054535256F202020030
:1050A0000000000000000000000000000000000000
:1050B000101097553D1515151515FD1517101000F5
:1050C00000000000000000000000000000000000E0
:1050D00080809E9292929EE0809EB2D2929E8000AC
:1050E00000000000000000000000000000000000C0
:1050F0000808F4949292F10001F2929494F8080056
:10510000000000000000000000000000000000009F
:10511000404042CC0040A09E8282829EA02020007F
:10512000000000000000000000000000000000007F
:105130000000003F908840432C10284641808000AA
:10514000000000000000000000000000000000005F
:10515000001715D55557557D555755D515170000CE
:10516000000000000000000000000000000000003F
:105170004040407F555555555555557F404040005E
:10518000000000000000000000000000000000001F
:1051900000FC848484FC001010101010FF1010001C
:1051A00000000000000000000000000000000000FF
:1051B000003F1010103F0000010640807F000000FB
:1051C00000000000000000000000000000000000DF
:1051D00000F8010600F0121212F2020202FE0000B4
:1051E00000000000000000000000000000000000BF
:1051F00000FF0000001F1111111F0040807F000000
:10520000000000000000000000000000000000009E
:105210001010D0FF9010804828090E0828488800F8
:10522000000000000000000000000000000000007E
:10523000040300FF00018080432C102C4380800079
:10524000000000000000000000000000000000005E
:1052500000020CE04020F84F4849FE48484808004A
:10526000000000000000000000000000000000003E
:1052700004047F000000FF2222223F22222220007D
:10528000000000000000000000000000000000001E
:1052900000F8012220222AF22222222202FE00000D
:1052A00000000000000000000000000000000000FE
:1052B00000FF00001F01017F09110F40807F0000E7
:1052C00000000000000000000000000000000000DE
:1052D00020102CE7242400F01010FF1010F0000024
:1052E00000000000000000000000000000000000BE
:1052F0000101017F211100070202FF0202070000E5
:10530000000000000000000000000000000000009D
:1053100000FC040404FC040404FC040404FC000079
:10532000000000000000000000000000000000007D
:10533000007F28242320202020212222227F0000F9
:10534000000000000000000000000000000000005D
:1053500000FE0202F20202FE0000F80000FF000060
:10536000000000000000000000000000000000003D
:105370008047201807081027C0000F40807F0000DA
:10538000000000000000000000000000000000001D
:10539000404042CC00202222A26222222220000091
:1053A00000000000000000000000000000000000FD
:1053B0000040201F20444E4544444445464C400094
:1053C00000000000000000000000000000000000DD
:1053D0000804F3525652525054535256F2020200ED
:1053E00000000000000000000000000000000000BD
:1053F000101097553D1515151515FD1517101000B2
:10540000000000000000000000000000000000009C
:10541000404042CC00808888FF8888FF88888000D0
:10542000000000000000000000000000000000007C
:105430000040201F2040504C4340405F404040000F
:10544000000000000000000000000000000000005C
:1054500040504E4848FF48484840F80000FF0000D0
:10546000000000000000000000000000000000003C
:1054700000003E0202FF12221E000F40807F00004B
:10548000000000000000000000000000000000001C
:10549000C8B88FE88888404848E85F4848484000D6
:1054A00000000000000000000000000000000000FC
:1054B000081808FF040400020B1222D20A0600009A
:1054C00000000000000000000000000000000000DC
:1054D000101010FF902010E82724E4342CE0000086
:1054E00000000000000000000000000000000000BC
:1054F0000242817F00848447241C071C24478400C7
:10550000000000000000000000000000000000009B
:105510000000C038E0000000203C230202273820B1
:10552000000000000000000000000000000000007B
:10553000000000000000000000000000000000006B
:10554000000000000000000000000000000000005B
:1055500008F808080810E000203F202020100F0065
:10556000000000000000000000000000000000003B
:10557000000000000000000000000000000000002B
:10558000000000000000000000000000000000001B
:10559000C03008080808380007182020201008002C
:1055A00000000000000000000000000000000000FB
:1055B00000000000000000000000000000000000EB
:1055C00000000000000000000000000000000000DB
:1055D0000000F888888888FF88888888F80000009C
:1055E00000000000000000000000000000000000BB
:1055F00000001F080808087F888888889F80F000BE
:10560000000000000000000000000000000000009A
:105610000000FE0282828282FA82828282820200FC
:10562000000000000000000000000000000000007A
:1056300080601F40404040407F4040445840400010
:10564000000000000000000000000000000000005A
:10565000008060F80704E4A4A4BFA4A4E40400004C
:10566000000000000000000000000000000000003A
:10567000010000FF40407F4A4A4A4A4A7F404000BA
:10568000000000000000000000000000000000001A
:105690004040424458C0407F40C0504846404000CF
:1056A00000000000000000000000000000000000FA
:1056B0008080402018070000003F404040407800B4
:1056C00000000000000000000000000000000000DA
:1056D00008F714549414F40480708F0808F8080034
:1056E00000000000000000000000000000000000BA
:1056F0001D13115599513F914120130C33408000E7
:105700000000000000000000000000000000000099
:105710000000F888888888FF88888888F80000005A
:105720000000000000000000000000000000000079
:1057300000001F080808087F888888889F80F0007C
:105740000000000000000000000000000000000059
:1057500000FE0222DA0600FE22222222FE000000C3
:105760000000000000000000000000000000000039
:1057700000FF08100847407F424242427F404000FD
:105780000000000000000000000000000000000019
:1057900000040474545455565454547404040000C2
:1057A00000000000000000000000000000000000F9
:1057B000848341211D05050505057D818185E30063
:1057C00000000000000000000000000000000000D9
:1057D00002028272020202FE0202824232020200CF
:1057E00000000000000000000000000000000000B9
:1057F00080814020100C0300030C102040808000AA
:105800000000000000000000000000000000000098
:1058100040445465C664544400FC4444C4424000BF
:105820000000000000000000000000000000000078
:1058300020124A827F020A92601F0000FF000000CF
:105840000000000000000000000000000000000058
:1058500000F80C0B0808F840308F080808F8000022
:105860000000000000000000000000000000000038
:10587000007F212121217F0000004380403F000064
:105880000000000000000000000000000000000018
:10589000108C4404E40495A64424148444940C001D
:1058A00000000000000000000000000000000000F8
:1058B00002027A414143427E42424243F8000000E4
:1058C00000000000000000000000000000000000D8
:1058D0000484E45C44C40002F2828282FE80800080
:1058E00000000000000000000000000000000000B8
:1058F00002017F10103F00080808084888403F0058
:105900000000000000000000000000000000000097
:105910004042CC0000445454547F545454444000FA
:105920000000000000000000000000000000000077
:1059300000007F201000FF15151555957F00000011
:105940000000000000000000000000000000000057
:1059500088681FC80810C85452D1129408D010008B
:105960000000000000000000000000000000000037
:10597000091909FF0500FF1292FF005F807F0000F8
:105980000000000000000000000000000000000017
:10599000000000000001E21CE00000000000000028
:1059A00000000000000000000000000000000000F7
:1059B000804020100C03000000030C304080800069
:1059C00000000000000000000000000000000000D7
:1059D00000FC848484FC001010101010FF101000D4
:1059E00000000000000000000000000000000000B7
:1059F000003F1010103F0000010640807F000000B3
:105A00000000000000000000000000000000000096
:105A100000F8010600F0121212F2020202FE00006B
:105A20000000000000000000000000000000000076
:105A300000FF0000001F1111111F0040807F0000B7
:105A40000000000000000000000000000000000056
:105A50000000000000000000000000000000000046
:105A60000000000000000000000000000000000036
:105A70000000000000000000000000000000000026
:105A80000000000000000000000000000000000016
:105A900000000808080808080808080808000000AE
:105AA00000000000000000000000000000000000F6
:105AB00010101010101010101010101010101000F6
:105AC00000000000000000000000000000000000D6
:105AD000404042CC00808888FF8888FF888880000A
