:020000040800F2
:10000000780D0020A10100081D430008C937000831
:10001000194300087D0500089D55000800000000F8
:1000200000000000000000000000000085440008FF
:10003000AB0600080000000021430008014B000847
:10004000BB010008BB010008BB010008BB010008A0
:10005000BB010008BB010008BB010008BB01000890
:10006000BB010008BB010008BB010008BB01000880
:10007000BB010008BB010008BB010008BB01000870
:10008000BB010008BB010008BB010008BB01000860
:10009000BB010008BB010008BB010008BB01000850
:1000A000BB010008BB010008BB010008BB01000840
:1000B000D54B0008BB010008BB010008BB010008CC
:1000C000BB010008BB010008BB010008BB01000820
:1000D000BB0100086D5500087D5500088D550008CE
:1000E000BB010008BB010008BB010008BB01000800
:1000F000BB010008BB010008BB010008BB010008F0
:10010000BB010008BB010008E54B0008BB0100086B
:10011000BB010008BB010008BB010008BB010008CF
:10012000BB010008BB01000881050008BB010008F5
:10013000BB010008BB010008BB010008BB010008AF
:10014000BB010008BB010008BB010008BB0100089F
:10015000BB010008BB01000891050008BB010008B5
:10016000BB010008BB010008BB010008BB0100087F
:10017000BB010008BB010008BB0100080000000033
:10018000BB010008BB010008DFF810D000F0E4F963
:1001900000480047615A0008AFF30080780D002046
:1001A0000648804706480047FEE7FEE7FEE7FEE711
:1001B000FEE7FEE7FEE7FEE7FEE7FEE7C14B0008CD
:1001C000890100082DE9F05F0546002092469B4614
:1001D00088460646814640241BE02846414647465D
:1001E000224600F0C4F853465A46C01A914110D333
:1001F00011461846224600F0ABF82D1A67EB0108AD
:100200004F4622460120002100F0A2F817EB00091A
:100210004E41201EA4F10104DFDC484631462A4647
:100220004346BDE8F09F40EA01039B0703D009E085
:1002300008C9121F08C0042AFAD203E011F8013BD2
:1002400000F8013B521EF9D27047D2B201E000F82B
:10025000012B491EFBD270470022F6E710B513466A
:100260000A4604461946FFF7F0FF204610BD0EB5BA
:10027000C10F80EAE0700844CA07002140F233430E
:100280008DE80E000A460B4600F0C7F803B000BD2B
:1002900000F0004230F000400AD0C10D01F560715D
:1002A000C0F3160042EA0151C208400711437047EB
:1002B000002001467047000030B5041E71F10004B3
:1002C00004DB4FF00044404264EB0101141E73F163
:1002D000000405DB1C464FF00043524263EB04036D
:1002E0008B4208BF824230BD30B5041E71F100045C
:1002F00004DB4FF00044404264EB0101141E73F133
:10030000000405DB1C464FF00043524263EB04033C
:10031000994208BF904230BD01F0004330B421F053
:10032000004150EA010206D00A0DA2F56072C1F345
:100330001301002A02DC30BC00207047440F44EA5D
:10034000C104C100E01830BC00EBC25000F01FB87F
:10035000202A04DB203A00FA02F100207047914085
:10036000C2F1200320FA03F3194390407047202A7A
:1003700004DB203A21FA02F00021704721FA02F34F
:10038000D040C2F12002914008431946704700292D
:10039000A8BF7047401C490008BF20F0010070470B
:1003A00010B4B0FA80FC00FA0CF050EA010404BF6B
:1003B00010BC704749B1CCF1200421FA04F411FAC1
:1003C0000CF118BF012121430843A3EB0C01CB1D05
:1003D0004FEA00614FEA102042BF002010BC704776
:1003E00000EBC35010440029A4BF10BC7047401C50
:1003F000490008BF20F0010010BC704710B5141E62
:1004000073F1000408DA401C41F1000192185B41CD
:100410001A4301D120F0010010BD2DE9F04D9246A4
:100420009B4611B1B1FA81F202E0B0FA80F22032BB
:100430009046FFF78DFF04460F4640EA0A0041EA66
:100440000B0153465A46084313D0114653EA0100A4
:1004500019D0C8F140025046FFF789FF05460E4605
:10046000504659464246FFF773FF084305D0012026
:1004700004E020463946BDE8F08D0020054346EAF9
:10048000E0762C4337430A986305E40AA0EB0800A2
:100490000022FD0A44EA47540A3002D500200146F2
:1004A000E9E7010510196941DDE9084500196941CD
:1004B000BDE8F04DA2E72DE9F04D00231A461B1AC6
:1004C0008A4103DB00200146BDE8F08DC1F30A52EA
:1004D000C1F3130141F480154FF0000BD10702D195
:1004E00000186D41521E0027044640F2FF113846A5
:1004F00001EB620A3E468046024600204FF480111E
:10050000FFF735FFC2197141BB1846EB0100B4EB90
:10051000030C75EB000C04D3E41A65EB00051746D9
:100520000E46241908F101006D4180463428E3DDB0
:10053000F91946EB0600091BA84103D24FF0FF3220
:10054000134601E0002213461BEB070046EB0A515D
:10055000BDE8F04DFFF752BF064C074D06E0E068DE
:1005600040F0010394E8070098471034AC42F6D3FA
:10057000FFF70EFED4970008F497000800BFFEE7CF
:1005800010B5024800F000F910BD0000740300200F
:1005900010B5024800F0F8F810BD0000D4030020A8
:1005A0000146087810381823B0FBF3F20848805C45
:1005B000C865032A05D908686FF30900001D88651E
:1005C00003E008686FF309008865886D70470000D4
:1005D000705E0008014600208A6A8B69CBB932B18F
:1005E000012A0DD0022A03D0032A10D10EE000BF49
:1005F000CB6A03F08073B3F1807F00D1012007E064
:10060000CB6AB3F1C07F00D1012001E000E000BF60
:1006100034E08B69B3F5005F1AD132B1012A07D0FB
:10062000022A03D0032A11D10AE000BF01200EE004
:10063000CB6A03F08073B3F1807F00D1012006E024
:10064000CB6AB3F1C07F00D1012000E000BF15E00C
:1006500032B1012A05D0022A04D0032A0CD103E0CA
:1006600000BF00BF012008E0CB6A03F08073B3F144
:10067000807F00D1012000E000BF00BF704730B58F
:100680000468246824F4802405682C60046863608E
:100690008468402C04D10468A2600468E16003E02F
:1006A0000468A1600468E26030BD704772B600BFA4
:1006B000FEE770B50446A56D00F064FB064694F8AD
:1006C0003500022808D08020606500BF002084F833
:1006D000340000BF012070BD2068006820F01600C3
:1006E000216808602068406920F080002168486126
:1006F000206C08B9A06C28B12068006820F00800C0
:10070000216808602068006820F001002168086006
:1007100010E000F037FB801B05280BD92020606516
:10072000032084F8350000BF002084F8340000BFA7
:100730000320D0E72068006800F001000028E8D11D
:1007400094F85C103F208840A860012084F83500B0
:1007500000BF002084F8340000BF00BFBBE70146A3
:1007600091F83500022803D08020486501207047A9
:10077000052081F835000868006820F001000A684B
:1007800010600020F3E70000F8B504460020009058
:100790008C4800684FF41651B0FBF1F7A56D2E6838
:1007A00094F85C1008208840304098B120680068B8
:1007B00000F0040070B12068006820F00400216897
:1007C000086094F85C1008208840A860606D40F0D4
:1007D0000100606594F85C1001208840304068B1E9
:1007E0002068406900F0800040B194F85C1001205E
:1007F0008840A860606D40F00200606594F85C106D
:1008000004208840304068B12068006800F0020091
:1008100040B194F85C1004208840A860606D40F0FE
:100820000400606594F85C1010208840304078B374
:100830002068006800F0080050B394F85C101020A5
:100840008840A8602068006800F4802080B120689B
:10085000006800F4002028B9206CC8B12046216C43
:10086000884715E0A06C98B12046A16C88470FE03E
:100870002068006800F4807028B92068006820F0C3
:10088000080021680860206C10B12046216C884760
:1008900094F85C10202088403040002865D0206803
:1008A000006800F0100000285FD094F85C10202051
:1008B0008840A86094F83500052828D12068006891
:1008C00020F01600216808602068406920F0800050
:1008D00021684861206C08B9A06C28B120680068C4
:1008E00020F008002168086094F85C103F208840E0
:1008F000A860012084F8350000BF002084F834008F
:1009000000BF206D10B12046216D8847F8BD2068DA
:10091000006800F4802080B12068006800F40020A6
:1009200028B9606C10B12046616C88471DE0E06B0F
:10093000D8B12046E16B884717E02068006800F4D2
:10094000807068B92068006820F010002168086095
:10095000012084F8350000BF002084F8340000BF77
:10096000E06B10B12046E16B8847606D38B3606D75
:1009700000F00100F0B1052084F83500206800681F
:1009800020F001002168086000BF0098401C009022
:10099000B84200D905E02068006800F00100002896
:1009A000F3D100BF012084F8350000BF002084F897
:1009B000340000BFE06C10B12046E16C884700BFF6
:1009C000A4E700000C0000202DE9F04104460025BA
:1009D00000F0D8F9074614B90120BDE8F081606A3B
:1009E00000B100BF022084F8350000BF002084F869
:1009F000340000BF2068006820F001002168086012
:100A00000AE000F0BFF9C01B052805D92020606569
:100A1000032084F83500E0E72068006800F001005A
:100A20000028EED12068056821480540D4E901017D
:100A30000843E16808432169084361690843A169E3
:100A40000843E1690843216A08430543606A0428B2
:100A500003D1D4E90B0108430543206805602068F1
:100A6000456925F00705606A0543606A04280DD1D1
:100A7000A06A0543E06A48B12046FFF7ABFD28B104
:100A800040206065012084F83500A6E720684561B4
:100A90002046FFF785FD064694F85C103F2088400D
:100AA000B06000206065012084F83500002094E7E4
:100AB0003F8010F02DE9F04704460D4616461F46CC
:100AC0004FF00008D4F8589000BF94F83400012883
:100AD00002D10220BDE8F087012084F8340000BF75
:100AE00094F83500012825D1022084F83500002033
:100AF00060653B46324629462046FFF7C0FD94F824
:100B00005C103F208840C9F808002068006840F069
:100B1000160021680860206C28B12068006840F049
:100B20000800216808602068006840F00100216822
:100B3000086006E000BF002084F8340000BF4FF0DA
:100B400002084046C6E7000070B5044600F01AF9F6
:100B500006462546681C10B104480078054400BFCD
:100B600000F010F9801BA842FAD370BD08000020E5
:100B7000F8B502460B460025002400200021D6E0EF
:100B8000012606FA01F51E6806EA0504AC4274D196
:100B90001E7906F00306012E04D01E7906F0030626
:100BA000022E13D190684F000326BE40B0434F0081
:100BB000DE68BE4030439060506801268E40B043EE
:100BC0001E79C6F300168E40304350601E7906F041
:100BD0000306032E09D0D0684F000326BE40B04361
:100BE0004F009E68BE403043D0601E7906F0030679
:100BF000022E13D1CF0802F1200656F827004E0727
:100C0000F70E0F26BE40B0434F07FF0E1E69BE40D1
:100C10003043CF0802F1200646F8270010684F0045
:100C20000326BE40B0431E7906F003064F00BE40C7
:100C3000304310605E6806F44036002E76D000BF68
:100C4000002600963C4E366846F480463A4F3E6099
:100C50003E46366806F48046009600BF00BF374E19
:100C60008F0856F827008E07370F0F26BE40B04377
:100C7000334EB24202D1002624E057E0314EB24258
:100C800001D101261EE0304EB24201D1022619E008
:100C90002E4EB24201D1032614E02D4EB24201D1B4
:100CA00004260FE02B4EB24201D105260AE02A4E5F
:100CB000B24201D1062605E0284EB24201D10726F4
:100CC00000E008268F073F0FBE4030431B4E8F08C1
:100CD00046F82700224E3068A0435E6806F480166E
:100CE00006B120431E4E3060361D3068A0435E685A
:100CF00006F4001606B12043194E361D3060184E1A
:100D0000361F3068A0435E6806F4003606B1204303
:100D1000134E361F3060361F3068A0435E6806F4FD
:100D2000803606B120430E4E083E3060491C102923
:100D3000FFF426AFF8BD00004438024008380140F7
:100D4000000002400004024000080240000C024083
:100D5000001002400014024000180240001C024033
:100D6000083C014010B5426921EA020302EA01048D
:100D700043EA0443836110BD0AB1816101E00B04C1
:100D80008361704701480068704700000000002040
:100D9000034800680349097808440149086070471E
:100DA000000000200800002010B50D48006840F445
:100DB00000700B4908600846006840F480600860D5
:100DC0000846006840F480700860032000F0A6F830
:100DD0000F2000F007F800F02BF8002010BD0000F5
:100DE000003C024070B504460E4800784FF47A711A
:100DF000B1FBF0F00C490968B1FBF0F5284600F0B2
:100E0000B5FD08B1012070BD102C07D2002221468B
:100E1000501E00F045F80548046001E00120F2E7AB
:100E20000020F0E7080000200C0000200400002053
:100E300008B500BF002000900E48006840F48040D4
:100E40000C4908600846006800F48040009000BF2C
:100E500000BF00BF00200090081F006840F08050D5
:100E6000091F08600846006800F08050009000BF2D
:100E700000BF08BD443802400146084600280DDB8B
:100E800000BF00BF00F01F0301229A4043099B00EE
:100E900003F1E023C3F8002100BF00BF00BF70478B
:100EA0002DE9F05F80460D461646002704F078FBDA
:100EB000074639462A46334601F00700C0F1070AC3
:100EC000BAF1040F02D94FF0040A01E0C0F1070A99
:100ED000D14600F1040ABAF1070F02D24FF0000A1E
:100EE00001E0A0F1030AD4464FF0010A0AFA09FA18
:100EF000AAF1010A0AEA020A0AFA0CFA4FF0010BF7
:100F00000BFA0CFBABF1010B0BEA030B4AEA0B04E7
:100F10002146404604F04CFBBDE8F09F00BF00F0C6
:100F20000702064B19684FF6FF031940044B0B43A9
:100F300043EA0221014B196000BF70470CED00E04D
:100F40000000FA0570B504460D460CB9012070BDCD
:100F50005848006800F00700A84209D255490D70B2
:100F60000846006800F00700A84201D00120EEE723
:100F7000207800F0020002281DD1207800F0040043
:100F8000042805D14C48006840F4E0504A49086004
:100F9000207800F00800082805D14748006840F490
:100FA0006040454908604448006820F0F000A168AE
:100FB000084341490860207800F00100A8B3606848
:100FC000012807D13C4808380068C0F34040B8B950
:100FD0000120BCE76068022802D06068032807D1BE
:100FE000354808380068C0F3406048B90120AEE7D2
:100FF000314808380068C0F3400008B90120A6E76E
:101000002D48006820F00300616808432A49086001
:10101000FFF7B8FE064609E0FFF7B4FE801B41F279
:101020008831884202D9032091E707E0224800680E
:1010300000F00C006168B0EB810FEDD11D48006835
:1010400000F00700A84209D91A490D700846006847
:1010500000F00700A84201D0012078E7207800F0D6
:101060000400042807D11448006820F4E050E16827
:10107000084311490860207800F00800082808D1CA
:101080000D48006820F46040216940EAC1000A4927
:10109000086000F03FF808490968C1F30311074AE6
:1010A000515CC8400649086006480068FFF79AFE90
:1010B00000204CE7003C024008380240785E0008FF
:1010C0000C00002004000020014800687047000068
:1010D0000C00002000B5FFF7F7FF04490968C1F3D1
:1010E0008221034A515CC84000BD0000083802401C
:1010F000885E000800B5FFF7E7FF04490968C1F3FF
:101100004231034A515CC84000BD0000083802402B
:10111000885E00082DE9F047002400250026A1463E
:101120002548006800F00C0020B1042805D00828EC
:101130003AD105E0DFF8849039E0DFF8849036E0BA
:101140001D48001F006800F03F041B48001F006896
:1011500000F4800078B11A481749091F0968C1F3E3
:101160008811A0FB01700146224600233846FFF794
:1011700029F805460EE011480F49091F0968C1F317
:101180008811A0FB01700146224600233846FFF774
:1011900019F805460848001F0068C0F30140401CCC
:1011A0004600B5FBF6F902E0DFF8109000BF00BF83
:1011B0004846BDE8F0870000083802400024F400EB
:1011C00040787D01F8B504460CB90120F8BD2078BF
:1011D00000F00100002874D0F948006800F00C000D
:1011E00004280DD0F648006800F00C00082813D140
:1011F000F348001F006800F48000B0F5800F0BD1A9
:10120000EF4808380068C0F34040002859D06068B3
:10121000002856D10120D9E700BF6068B0F5803FB3
:1012200008D1E7480838006840F48030E4490839BC
:1012300008601EE06068B0F5A02F0DD1E0480838C6
:10124000006840F48020DE490839086008460068DC
:1012500040F4803008600CE0D9480838006820F479
:101260008030D749083908600846006820F480209B
:10127000086000BF606890B1FFF784FD054606E096
:10128000FFF780FD401B642801D903209EE7CC486E
:1012900008380068C0F340400028F1D011E0FFF7A3
:1012A00071FD054606E0FFF76DFD401B642801D97E
:1012B00003208BE7C24808380068C0F3404000288C
:1012C000F1D1207800F0020002285FD1BC4800680C
:1012D00000F00C0058B1BA48006800F00C00082873
:1012E0001CD1B748001F006800F48000B0B9B448B2
:1012F00008380068C0F3400020B1E068012801D040
:10130000012063E7AE480838006820F0F800216942
:1013100040EAC100AA490839086037E0E06800B334
:101320000120A8490860FFF72DFD054606E0FFF7FC
:1013300029FD401B022801D9032047E7A0480838AF
:101340000068C0F340000028F1D09D4808380068CC
:1013500020F0F800216940EAC10099490839086085
:1013600014E0002097490860FFF70CFD054606E0F1
:10137000FFF708FD401B022801D9032026E790480B
:1013800008380068C0F340000028F1D1207800F050
:10139000080008282CD16069A8B101208A4908609A
:1013A000FFF7F0FC054606E0FFF7ECFC401B0228C7
:1013B00001D903200AE782486C300068C0F340007E
:1013C0000028F1D014E000207F490860FFF7DAFC24
:1013D000054606E0FFF7D6FC401B022801D9032092
:1013E000F4E677486C300068C0F340000028F1D183
:1013F000207800F00400042870D1002770483830AD
:10140000006800F0805090B900BF002000906C4848
:101410003830006840F0805069493831086008462B
:10142000006800F08050009000BF00BF01276748AF
:10143000006800F48070B0B96448006840F48070BF
:1014400062490860FFF79EFC054606E0FFF79AFC3C
:10145000401B022801D90320B8E65C48006800F46C
:1014600080700028F2D000BFA068012808D154483D
:101470006830006840F001005149683108601DE0A3
:10148000A06805280DD14E486830006840F004007F
:101490004B49683108600846006840F00100086068
:1014A0000CE047486830006820F00100444968318A
:1014B00008600846006820F00400086000BFA068CB
:1014C000A8B1FFF75FFC054609E0FFF75BFC401B96
:1014D00041F28831884202D9032077E626E0384875
:1014E00068300068C0F340000028EED013E0FFF73A
:1014F00049FC054608E0FFF745FC401B41F28831F6
:10150000884201D9032061E62D4868300068C0F3A5
:1015100040000028EFD1012F07D12948383000685A
:1015200020F0805026493831086000BFA0690028AB
:1015300045D02348006800F00C0008285DD0A06961
:10154000022845D100201F490866FFF71BFC05460D
:1015500006E0FFF717FC401B022801D9032035E6FF
:10156000174808380068C0F340600028F1D1D4E97A
:1015700007010843616A40EA81110122A06AC2EBB7
:10158000500041EA00412C20005D41EA00600C4916
:10159000091F086001200B490866FFF7F3FB0546A9
:1015A00006E0FFF7EFFB401B022801D903200DE600
:1015B000034808380068C0F340600028F1D049E0D3
:1015C0000838024000004742800E47420070004049
:1015D000002021490866FFF7D5FB054606E0FFF726
:1015E000D1FB401B022801D90320EFE51B4800680E
:1015F000C0F340600028F2D12CE0A069012800D19E
:10160000E4E51648001D0668A069012820D006F40C
:101610008001E06981421BD106F03F01206A8142CE
:1016200016D147F6C0703040616AB0EB811F0FD110
:1016300006F440310122A06AC2EB5000B1EB004F2A
:1016400006D106F070612C20005DB1EB006F01D077
:101650000120BBE50020B9E5000047420038024008
:1016600010B504460CB9012010BD606A38B9606835
:10167000B0F5827F00D105E00021E16102E00021A8
:10168000216161610021A16294F8510028B9002014
:1016900084F85000204600F047F8022084F85100FA
:1016A0002068006820F0400021680860A08800F4ED
:1016B0008270218901F404410843A18901F4006189
:1016C0000843217C01F002010843217D01F0010162
:1016D0000843218B01F400710843217F01F0380198
:1016E00008432021095D01F080010843218D01F4A8
:1016F00000510843216808600421A06901EA1040F4
:1017000094F8241001F01001084321684860206813
:10171000C06920F400602168C86100206065012074
:1017200084F8510000209FE710B586B004461421CC
:1017300001A8FEF791FD1B49206888422FD100BF08
:10174000002000901848006840F480501649086056
:101750000846006800F48050009000BF00BF00BF42
:101760000020009010481438006840F001000E4935
:10177000143908600846006800F00100009000BFBE
:1017800000BFE0200190022002900020039003207F
:1017900004900520059001A90448FFF7E9F906B077
:1017A00010BD0000003001404438024000000240FB
:1017B0002DE9F84F0446884616461D464FF0000AAC
:1017C00000BF94F85000012802D10220BDE8F88F34
:1017D000012084F8500000BFFFF7D4FA0746B14655
:1017E00094F85100012802D04FF0020AB7E0B8F196
:1017F000000F00D016B94FF0010AB0E0032084F8C2
:10180000510000206065C4F83080A686E686A0639B
:10181000A087E08760642064A068B0F5004F0BD11A
:101820002068006820F04000216808602068006897
:1018300040F48040216808602068006800F04000A3
:10184000402805D02068006840F04000216808600A
:10185000E068B0F5006F32D1606810B1B9F1010FE6
:1018600009D1206B00882168C860206B801C206330
:10187000E08E401EE0861EE02068806800F00200D6
:1018800002280AD1206B00882168C860206B801C68
:101890002063E08E401EE0860DE0FFF773FAC01B68
:1018A000A84201D3681C00B92DB94FF0030A0120EA
:1018B00084F8510053E0E08E0028DDD131E060680B
:1018C00010B1B9F1010F09D1206B007821680873BC
:1018D000206B401C2063E08E401EE0861EE02068E6
:1018E000806800F0020002280AD1206B007821688D
:1018F0000873206B401C2063E08E401EE0860DE0E4
:10190000FFF740FAC01BA84201D3681C00B92DB9EB
:101910004FF0030A012084F8510020E0E08E0028F7
:10192000DDD13A462946204602F0FCFC08B12020D1
:101930006065A06850B900BF002000902068C068B2
:10194000009020688068009000BF00BF606D10B1FB
:101950004FF0010A02E0012084F8510000BF00BFEF
:10196000002084F8500000BF50462FE770B50446B1
:101970002546681EB0F1807F01D301200FE0681E6C
:101980004FF0E02148610F214FF0FF3003F010FECF
:1019900000204FF0E021886107200861002070BD21
:1019A0007047704730B502460B4600BF92F83C00C6
:1019B000012801D1022030BD012082F83C0000BF87
:1019C000022082F83D00106844681068816824F0A5
:1019D00070041868044310684460184D1068A842E9
:1019E0001BD01068B0F1804F17D0154D1068A84279
:1019F00013D0144D1068A8420FD0134D1068A842A0
:101A00000BD0124D1068A84207D0114D1068A842A3
:101A100003D0104D1068A84205D121F0800158680C
:101A2000014310688160012082F83D0000BF002062
:101A300082F83C0000BF00BFBDE70000000001408D
:101A40000004004000080040000C00400004014079
:101A5000004001400018004010B504460CB90120B8
:101A600010BD94F83D0028B9002084F83C002046C1
:101A700000F026F8022084F83D00211D206803F0C4
:101A8000B9F8012084F8460000BF84F83E00012127
:101A90003F200155402001554120015500BF00BFA6
:101AA000012084F84200432001554420015545207F
:101AB000015500BF012084F83D000020D0E7000060
:101AC00038B504462068B0F1804F18D100BF00201F
:101AD00000902348006840F0010021490860084652
:101AE000006800F00100009000BF00BF0022114616
:101AF0001C20FFF7D5F91C20FFF7BEF92FE019498C
:101B0000206888420FD100BF002000901448006870
:101B100040F00400124908600846006800F0040024
:101B2000009000BF1BE010492068884217D100BF19
:101B3000002000900A48006840F00800084908604A
:101B40000846006800F00800009000BF00BF0022B7
:101B500011463220FFF7A4F93220FFF78DF938BD86
:101B60004038024000080040000C0040014691F857
:101B70003D00012801D001207047022081F83D007E
:101B80000868C06840F001000B68D8601A4B08680C
:101B900098421BD00868B0F1804F17D0174B0868E7
:101BA000984213D0164B086898420FD0154B08681E
:101BB00098420BD0144B0868984207D0134B086822
:101BC000984203D0124B086898420CD1086880688C
:101BD00000F00702062A0CD00868006840F00100F7
:101BE0000B68186005E00868006840F001000B68A9
:101BF00018600020C0E70000000001400004004021
:101C000000080040000C004000040140004001407A
:101C1000001800402DE9F04104460D46002700BFA2
:101C200094F83C00012802D10220BDE8F081012097
:101C300084F83C0000BF022084F83D0020688668DC
:101C400026F0770626F47F462068866028685028AC
:101C500033D00CDC202850D004DC00284BD01028D6
:101C600051D149E0302849D040284CD139E0602892
:101C70002DD0702807D0B0F5805F03D0B0F5005F9D
:101C800041D10DE041E0D5E902136A68206803F014
:101C900036F82068866846F077062068866034E06B
:101CA000D5E902136A68206803F029F82068806883
:101CB00040F480402168886027E0EA68696820680D
:101CC00003F00EF95021206803F024F81DE0EA68C3
:101CD0006968206803F017F96021206803F01AF89A
:101CE00013E0EA686968206803F0FAF84021206888
:101CF00003F010F809E000BF00BF00BF29682068AA
:101D000003F008F801E0012700BF00BF012084F8BC
:101D10003D0000BF002084F83C0000BF384684E747
:101D20002DE9F04104460D4614B90120BDE8F081CB
:101D300094F83D0028B9002084F83C00204600F0CB
:101D400053F8022084F83D002068806844F20701BF
:101D5000884321688860211D206802F04BFF2068BD
:101D6000D0F80880206886692068076A286840EAF9
:101D7000080840F203308643A969A86840EA0120B8
:101D8000064340F60C4086434FF2F0008643E96973
:101D9000E86840EA0120064328690001296A40EA10
:101DA0000130064327F0220727F088076969686831
:101DB00040EA011007432068C0F808802068866167
:101DC00020680762012084F8460084F83E00012163
:101DD0003F200155012084F8420043200155012095
:101DE00084F83D000020A1E710B586B00446142118
:101DF00001A8FEF731FA36492068884230D100BF89
:101E0000002000903348006840F00100314908602C
:101E10000846006800F00100009000BF00BF00BF4E
:101E2000002000902B481438006840F01000294929
:101E3000143908600846006800F01000009000BFE8
:101E400000BF4FF420600190022002900020039018
:101E500004900120059001A91F48FEF789FE34E097
:101E60001E492068884230D100BF002000901948E8
:101E7000001F006840F002001649091F086008466C
:101E8000006800F00200009000BF00BF00BF00200B
:101E9000009010481438006840F002000D491439D1
:101EA00008600846006800F00200009000BF00BF14
:101EB0003020019002200290002003900490022024
:101EC000059001A90648FEF753FE06B010BD0000BC
:101ED000000001404438024000100240000400406D
:101EE000000402402DE9F04304460D4694F83E609C
:101EF0003F20075D94F84280432010F804906DB9AC
:101F0000012E02D1B8F1010F02D00120BDE8F0830B
:101F1000022084F83E0084F8420025E0042D0CD114
:101F2000012F02D1B9F1010F01D00120EEE702210A
:101F30003F2001554320015516E0012E07D1012F06
:101F400005D1B8F1010F02D1B9F1010F01D0012083
:101F5000DCE7022084F83E0002213F2001550220E8
:101F600084F842004320015515B1042D0CD105E041
:101F700001220021206802F0B1FE10E001220421BC
:101F8000206802F0ABFE0AE001220021206802F086
:101F9000A5FE01220421206802F0A0FE00BF00BFC0
:101FA0002068006840F00100216808600020ADE76B
:101FB000704770B504462068C5682068066906F059
:101FC0000200022819D105F00200022815D1401F95
:101FD00021680861012020772068806900F00300F3
:101FE00018B12046FFF7E4FF05E0204600F0CAF8EC
:101FF000204600F07EF90020207706F00400042837
:1020000019D105F00400042815D1C04321680861E6
:10201000022020772068806900F4407018B12046C3
:10202000FFF7C6FF05E0204600F0ACF8204600F0C0
:1020300060F90020207706F00800082819D105F083
:102040000800082815D1C0432168086104202077C2
:102050002068C06900F0030018B12046FFF7A8FF10
:1020600005E0204600F08EF8204600F042F90020FE
:10207000207706F01000102819D105F01000102864
:1020800015D1C04321680861082020772068C06905
:1020900000F4407018B12046FFF78AFF05E02046A3
:1020A00000F070F8204600F024F90020207706F0B8
:1020B000010048B105F0010030B16FF00100216866
:1020C0000861204600F09CF906F08000802809D1C4
:1020D00005F08000802805D1C043216808612046B2
:1020E000FFF75EFC06F04000402809D105F04000F3
:1020F000402805D1C04321680861204600F048FE11
:1021000006F02000202809D105F02000202805D164
:10211000C043216808612046FFF743FC70BD000002
:1021200010B586B00446142101A8FEF795F81249AF
:10213000206888421DD100BF002000900F48006831
:1021400040F002000D4908600846006800F00200F7
:10215000009000BF00BF4FF4407001900220029039
:102160000020039004900220059001A90448FEF786
:10217000FFFC06B010BD00000008004030380240EF
:102180000004024070472DE9F04104460D46164612
:10219000002700BF94F83C00012802D10220BDE8CE
:1021A000F081012084F83C0000BF36B1042E1BD022
:1021B000082E31D00C2E5ED145E02946206802F071
:1021C000B3FD2068806940F00800216888612068BC
:1021D000806920F00400216888612068806929698D
:1021E00008432168886148E02946206802F0D4FD50
:1021F0002068806940F400602168886120688069F7
:1022000020F480602168886120688069296940EA3B
:1022100001202168886130E02946206802F0FAFD3B
:102220002068C06940F008002168C8612068C06962
:1022300020F004002168C8612068C069296908434A
:102240002168C86119E02946206802F01FFE206855
:10225000C06940F400602168C8612068C06920F44A
:1022600080602168C8612068C069296940EA01204E
:102270002168C86101E0012700BF00BF00BF002046
:1022800084F83C0000BF384689E710B504460CB915
:10229000012010BD94F83D0028B9002084F83C00CE
:1022A000204600F025F8022084F83D00211D20681A
:1022B00002F0A0FC012084F8460000BF84F83E0034
:1022C00001213F200155402001554120015500BF0B
:1022D00000BF012084F842004320015544200155ED
:1022E0004520015500BF012084F83D000020D0E7C3
:1022F0007047704770B504460D4615B994F83E0016
:102300000BE0042D02D13F20005D06E0082D02D134
:102310004020005D01E04120005D012801D0012046
:1023200070BD1DB9022084F83E000EE0042D03D1DB
:1023300002213F20015508E0082D03D10221402051
:10234000015502E002214120015501222946206861
:1023500002F0C4FC23492068884203D02249206847
:10236000884201D1012000E0002028B12068406CA3
:1023700040F40040216848641A49206888421BD014
:102380002068B0F1804F17D018492068884213D0D8
:102390001749206888420FD01649206888420BD020
:1023A00011492068884207D013492068884203D029
:1023B0001249206888420CD12068806800F0070626
:1023C000062E0CD02068006840F0010021680860EB
:1023D00005E02068006840F00100216808600020E6
:1023E0009EE700000000014000040140000400409E
:1023F00000080040000C0040004001400018004070
:1024000010B52DED048B96B004462068B0F1804FD6
:102410007ED1FE48006801287BD1FD4890ED000A7E
:10242000B5EEC00AF1EE10FA73D0FA4890ED000A4A
:10243000B5EEC00AF1EE10FAF6D0F74800680028B1
:1024400061D1B6EE001ADFEDF50A9FEDF50A0EA890
:1024500001F0BCF9B6EE001ADFEDF00A9FEDF00ACC
:1024600006A801F0B3F9EF48D0ED000AEE4890ED70
:10247000000A0EA801F0C8F9EC4880ED000AE54812
:10248000D0ED000AE24890ED000A06A801F0BCF980
:10249000E74880ED000AE54890ED000AF2EE040AF4
:1024A000B4EEE00AF1EE10FA03DDB2EE040A80EDBC
:1024B000000ADE4890ED000AFAEE040AB4EEE00AE3
:1024C000F1EE10FA03D2BAEE040A80ED000AD84801
:1024D00090ED000AF2EE040AB4EEE00AF1EE10FA12
:1024E00003DDB2EE040A80ED000AD14890ED000A47
:1024F000FAEE040AB4EEE00AF1EE10FA03D2BAEEF4
:10250000040A80ED000AC4480068012801DB01E0EC
:102510002BE1A1E00220C74991ED000ABDEEC00AFF
:10252000C549D1ED000AFDEEE00AC44991ED001A5B
:10253000BDEEC11A8DED011ACDED020A8DED030A33
:102540000490BF4890ED000ABDEEC00A8DED000A70
:10255000BC4890ED000ABDEEC00A10EE103ABA4831
:1025600090ED000ABDEEC00A10EE102AAE4890EDC4
:10257000000ABDEEC00A10EE101AA54890ED000A40
:10258000BDEEC00A10EE100A03F000F9B6EE001A14
:10259000DFEDA20A9FEDA10A0EA801F017F9B6EE31
:1025A000001ADFED9E0A9FED9D0A06A801F00EF9C4
:1025B0009C48D0ED000AA54890ED000AB8EEC00A8C
:1025C0000EA801F021F9994880ED000A9148D0ED5C
:1025D000000A9F4890ED000AB8EEC00A06A801F074
:1025E00013F9934880ED000A904890ED000AF2EE4E
:1025F000000AB4EEE00AF1EE10FA03DDB2EE000AD2
:1026000080ED000A894890ED000AFAEE000AB4EE67
:10261000E00AF1EE10FA03D2BAEE000A80ED000AE9
:10262000834890ED000AF2EE000AB4EEE00AF1EE03
:1026300010FA03DDB2EE000A80ED000A7C4890ED4E
:10264000000AFAEE000AB4EEE00AF1EE10FA03D244
:10265000BAEE000A80ED000A6C48006803287DD1BC
:102660007C4890ED000AB5EEC00AF1EE10FA7BD07E
:10267000684890ED000AB5EEC00AF1EE10FA73D08A
:10268000754890ED000ABDEEC00A10EE101A7148B0
:1026900090ED000ABDEEC00A10EE100A02F0F8FF3D
:1026A000B6EE001ADFED5D0A9FED6C0A0EA801F090
:1026B0008DF8B6EE001ADFED590A9FED680A06A8FC
:1026C00001F084F85748D0ED000A634890ED000A05
:1026D0000EA801F099F8554880ED000A4D48D0ED5C
:1026E000000A5C4890ED000A06A801F08DF85048F9
:1026F00080ED000A4D4890ED000AF2EE040AB4EEB7
:10270000E00AF1EE10FA03DDB2EE040A80ED000AF1
:10271000464890ED000AFAEE040AB4EEE00AF1EE43
:1027200010FA03D2BAEE040A80ED000A404890ED98
:10273000000AF2EE040AB4EEE00AF1EE10FA03DD4C
:10274000B2EE040A80ED000A394890ED000AFAEE74
:10275000040AB4EEE00AF1EE10FA00E004E003D25D
:10276000BAEE040A80ED000A00BF3D4920688842A5
:102770007CD12648006803281ED1364890ED000A17
:10278000B5EEC00AF1EE10FA16D0224890ED000A1C
:10279000B5EEC00AF1EE10FA0ED0D0ED001A2D48B9
:1027A00090ED001A1F48D0ED000A2B4890ED000A6A
:1027B00006A90EA801F068FE14480068022801D19D
:1027C00002F0DAF81148006801287DD12548006838
:1027D0000028FAD10E4890ED000AB5EEC00AF1EEDD
:1027E00010FA71D00B4890ED000AB5EEC00AF1EE78
:1027F00010FAF6D008480068C8BB0648D0ED001AA9
:10280000194890ED000AB8EEC01A31E078000020B7
:102810001400002058000020880000200000000064
:10282000CDCCCC3D5C0000201800002044000020EE
:10283000400000203800002034000020300000203C
:102840002C0000202800002024000020840000200C
:10285000800000204C000020500000200AD7233CBC
:10286000000C00407C000020B800002080E242E024
:10287000FE48D0ED000AFE4890ED000AB8EEC00A0E
:1028800006A90EA801F000FEFA480068FDF700FD59
:1028900041EC190BB0EE490AF0EE690A02F09CFE19
:1028A000B0EE408AF0EE608A9FEDF30B53EC102BF4
:1028B00051EC180BFDF700FD1DD8F1480068FDF73D
:1028C000E7FC41EC190B00E051E2B0EE490AF0EEF2
:1028D000690A02F081FEB0EE408AF0EE608A9FED58
:1028E000E60B53EC102B51EC180BFDF7E5FC02D86E
:1028F0000120E4490860E348006801287ED1E248ED
:102900000068E2490968401AE149096890FBF1F062
:10291000E0490968DD4A126800FB0120DE490860D1
:10292000DE480068D2490968401AD949096890FB15
:10293000F1F1D8480068CE4A126801FB0020D8495E
:102940000860D848D0ED001AD34890ED000AB8EEE0
:10295000C01AC648D0ED000A084690ED000AB8EE4D
:10296000C00A06A90EA801F08FFDCD4890ED000A1F
:10297000B8EEC00ABD48D0ED000A30EE600A10EE95
:10298000101A0846FDF784FC41EC190BB0EE490A19
:10299000F0EE690A02F020FEB0EE408AF0EE608AA6
:1029A0009FEDB50B53EC102B51EC180BFDF784FC8D
:1029B0002AD8B94890ED000AB8EEC00AB948D0ED5F
:1029C000000A30EE600A10EE101A0846FDF760FCAF
:1029D00041EC190BB0EE490AF0EE690A02F0FCFD79
:1029E000B0EE408AF0EE608A9FEDA30B53EC102B03
:1029F00051EC180BFDF760FC06D200E010E0A54892
:102A00000068401CA3490860A2480068A049096802
:102A1000884205DD00209F4908600220994908602E
:102A200098480068022878D19F480068964909684C
:102A3000401A9749096890FBF1F096490968924A53
:102A4000126800FB01209449086098480068934987
:102A50000968401A8E49096890FBF1F08D490968B0
:102A60008E4A126800FB01208D4908608D48D0ED28
:102A7000001A894890ED000AB8EEC01A7B48D0EDE4
:102A8000000A084690ED000AB8EEC00A06A90EA892
:102A900001F0FAFC77480068FDF7FAFB41EC190BEE
:102AA000B0EE490AF0EE690A02F096FDB0EE408AF7
:102AB000F0EE608A9FED700B53EC102B51EC180B6D
:102AC000FDF7FAFB1DD86E480068FDF7E1FB41EC0D
:102AD000190BB0EE490AF0EE690A02F07DFDB0EE86
:102AE000408AF0EE608A9FED640B53EC102B51ECA2
:102AF000180BFDF7E1FB04D866480068401C6549E7
:102B000008606448006862490968884205DD002061
:102B10006049086003205B4908605A480068032840
:102B200078D16348006860490968401A58490968C3
:102B300090FBF1F0574909685B4A126800FB0120DD
:102B4000554908605B48006858490968401A50496F
:102B5000096890FBF1F04F490968544A126800FB7C
:102B600001204F4908604F48D0ED001A4A4890EDC7
:102B7000000AB8EEC01A3D48D0ED000A084690EDB4
:102B8000000AB8EEC00A06A90EA801F07DFC39487B
:102B90000068FDF77DFB41EC190BB0EE490AF0EE41
:102BA000690A02F019FDB0EE408AF0EE608A9FEDEE
:102BB000320B53EC102B51EC180BFDF77DFB1DD89D
:102BC0002F480068FDF764FB41EC190BB0EE490A91
:102BD000F0EE690A02F000FDB0EE408AF0EE608A85
:102BE0009FED250B53EC102B51EC180BFDF764FBFC
:102BF00004D828480068401C264908602548006819
:102C000023490968884205DD002022490860042024
:102C10001C4908601B48006804287DD11B480068D7
:102C200023490968401A1A49096890FBF1F01949CB
:102C300009681F4A126800FB0120174908600C4808
:102C400000681C490968401A1149096890FBF1F0B5
:102C500010490968174A126800FB012010490860F2
:102C60001048D0ED001A0C4826E000005C0000205F
:102C7000BC000020440000200000000000000840CC
:102C80004000002088000020C0000020B800002084
:102C90008C0000209000002080000020C400002054
:102CA0008400002058000020C8000020CC00002034
:102CB000D0000020D400002090ED000AB8EEC01A29
:102CC0002D48D0ED000A084690ED000AB8EEC00A83
:102CD00006A90EA801F0D8FB28480068FDF7D8FA2D
:102CE00041EC190BB0EE490AF0EE690A02F074FCEF
:102CF000B0EE408AF0EE608A1FED210B53EC102BF2
:102D000051EC180BFDF7D8FA1FD81D480068FDF7E5
:102D1000BFFA41EC190B00E023E0B0EE490AF0EEF7
:102D2000690A02F059FCB0EE408AF0EE608A1FEDAD
:102D30002E0B53EC102B51EC180BFDF7BDFA04D8F9
:102D400010480068401C0F4908600E4800680E4992
:102D50000968884205DD00200A49086005200B4902
:102D600008600A480068052801D101F0F7FD00BF9E
:102D700016B0BDEC048B10BD5C00002044000020A8
:102D800040000020900000208C00002088000020DF
:102D900070477047704700002DE9F84F04462068DF
:102DA00005682068C668206847694FF00009CA4670
:102DB00005F00F09B9F1000F0AD105F0200038B174
:102DC00006F0200020B1204602F0A8F9BDE8F88FF7
:102DD000B9F1000F7CD007F0010018B906F490702B
:102DE000002875D005F0010030B106F4807018B1EC
:102DF000606C40F00100606405F0040030B107F041
:102E0000010018B1606C40F00200606405F002003F
:102E100030B107F0010018B1606C40F0040060644C
:102E200005F0080048B106F0200010B907F00100D5
:102E300018B1606C40F008006064606C002846D0F7
:102E400005F0200028B106F0200010B1204602F065
:102E500065F920684069C0F3801A606C00F00800D2
:102E600010B9BAF1000F2DD0204602F0FEF820680C
:102E7000406900F04000402820D100BF00BF216819
:102E8000143151E8001F21F040002168143141E85D
:102E90000002002AF3D100BFE06B50B17748E16B2C
:102EA0000865E06BFDF75BFC88B1E06B016D88475E
:102EB0000DE02046FFF76EFF09E009E02046FFF72E
:102EC00069FF04E02046FFF765FF002060647DE7AE
:102ED000206B012878D105F01000002874D006F08E
:102EE00010000028FAD000BF002000902068006881
:102EF000009020684068009000BF00BF20684069D3
:102F000000F04000402860D1E06B006840681FFA84
:102F100080F8B8F1000F56D0A08D404553DDA4F8DD
:102F20002E80E06BC069B0F5807F43D000BF00BF4A
:102F300021680C3151E8001F21F4807021680C31A8
:102F400041E80002002AF3D100BF00BF00BF2168A2
:102F5000143151E8001F21F001002168143141E8CB
:102F60000002002AF3D100BF00BF00BF2168143166
:102F700051E8001F21F040002168143141E80002AF
:102F8000002AF3D100BF202084F8420000202063F3
:102F900000BF00BF21680C3151E8001F21F0100074
:102FA00021680C3141E80002002AF3D100BFE06B38
:102FB000FDF77FFB02206063A08DE28D801A81B255
:102FC0002046FFF7E6FE01E742E0A08DE18D401AC2
:102FD0001FFA80F8E08DD0B3B8F1000F37D000BFF2
:102FE00000BF21680C3151E8001F21F49070216866
:102FF0000C3141E80002002AF3D100BF00BF00BF3E
:103000002168143151E8001F21F0010021681431BA
:1030100041E80002002AF3D100BF202084F84200DA
:103020000020206300BF00BF21680C3151E8001F61
:1030300021F0100021680C3141E80002002AF3D190
:1030400000BF0220606341462046FFF7A2FEBDE6B6
:1030500005F0800030B106F0800018B1204602F083
:1030600055FAB3E605F0400030B106F0400018B163
:10307000204602F030F8A9E600BFA7E62F4F00086F
:1030800010B504460CB9012010BDA06900B100E0E4
:1030900000BF94F8410028B9002084F84000204681
:1030A00000F02AF8242084F841002068C06820F449
:1030B00000502168C860204602F0AEF82068006920
:1030C00020F49040216808612068406920F02A00BF
:1030D000216848612068C06840F400502168C860D9
:1030E00000206064202084F8410084F84200002021
:1030F000606300BFC8E7000010B586B00446142125
:1031000001A8FDF7A9F88149206888427DD100BF58
:10311000002000907E48006840F010007C49086064
:103120000846006800F01000009000BF00BF00BF1C
:103130000020009076481438006840F0010074497F
:10314000143908600846006800F00100009000BFD4
:1031500000BF4FF4C0600190022002900020039055
:10316000032004900720059001A96A48FDF700FD9F
:1031700069486A4908604FF000604860002167486C
:103180008160C1604FF48061016100214161816112
:103190004FF48071C1610902016200214162FDF7B3
:1031A00013FC08B1FDF782FA00BF5C48E06384635A
:1031B00000BF594878305A4908604FF000604860B5
:1031C0004021574881600021C1604FF48061016156
:1031D000002141618161C1614FF4803101620021B0
:1031E0004162FDF7F1FB08B1FDF760FA00BF4C4802
:1031F000A063846300BF002211462520FDF750FE26
:103200002520FDF739FE7EE0FFE746492068884229
:103210003AD100BF002000903D48001F006840F4F4
:1032200000303B49091F08600846006800F4003080
:10323000009000BF00BF00BF002000903448143849
:10324000006840F0080032491439086008460068F8
:1032500000F00800009000BF00BF60200190022035
:10326000029000200390032004900720059001A9FC
:103270002D48FDF77DFC002211462620FDF710FEAB
:103280002620FDF7F9FD3EE02849206888423AD122
:1032900000BF002000901E48001F006840F48020FE
:1032A0001B49091F08600846006800F48020009050
:1032B00000BF00BF00BF0020009015481438006810
:1032C00040F002001249143908600846006800F016
:1032D0000200009000BF00BF4FF440600190022048
:1032E000029000200390032004900720059001A97C
:1032F0000F48FDF73DFC002211462720FDF7D0FDC9
:103300002720FDF7B9FD06B010BD000000100140F8
:103310004438024000000240406402407403002030
:10332000D403002000440040000C0240004800404C
:103330000004024070B504460D46164694F842005B
:1033400020280BD105B10EB9012070BD00202063EB
:1033500032462946204602F075F8F6E70220F4E7E7
:1033600010B50446FB4884427DD1FB4890ED000A2D
:10337000FA48D0ED000AB4EE600AF1EE10FA0DD171
:10338000F74890ED000AF748D0ED000AB4EE600A65
:10339000F1EE10FA02D10120F3490860F3480078F9
:1033A000F3490870F3490870EF48006800287CD1A1
:1033B000F148007868B9ED4800781A2809D1EB483F
:1033C0000078EE49EE4A128888540120EA490870D4
:1033D000B7E0E9480078012811D1E44800782B28AB
:1033E0000DD1E2480178E64802880088401CE44B91
:1033F0001880E24881540220DF490870A1E0DE48CD
:10340000007802287ED1D9480178DD4802880088FA
:10341000401CDB4B1880D948815418460088401E58
:10342000D649085C3C286ED1184600880938085CEB
:1034300000EE100AB8EE400AF2EE040A30EE200A5E
:10344000C54880ED000A184600880838085C00EE80
:10345000100AB8EE400AC24880ED000A18460088FB
:10346000C01F085C00E06EE100EE100AB8EE400AF2
:10347000F2EE040A30EE200AC24880ED000A184637
:103480000088801F085C00EE100AB8EE400ABE48B3
:1034900080ED000A18460088401F085C00EE100A04
:1034A000B8EE400AF2EE040A00E058E030EE200ADE
:1034B000B64880ED000A18460088001F085C00EE40
:1034C000100AB8EE400AB24880ED000A184600889B
:1034D000C01E085C00EE100AB8EE400AF2EE040AC4
:1034E00030EE200AAB4880ED000A18460088801EA6
:1034F000085C00EE100AB8EE400AA74880ED000A0A
:10350000954801E00FE01CE090ED000A934880ED43
:10351000000A934890ED000A924880ED000A0320CB
:10352000954908700DE094480078032809D10020DF
:1035300093490880C8219148FCF78EFE00208E49EF
:1035400008708F480088C72809DD00208C49088052
:10355000C8218A48FCF780FE0020874908708F4800
:10356000007868B9834800782B2809D18148007811
:103570008B498C4A128888540120884908705AE087
:1035800086480078012811D17A4800782C280DD17E
:1035900078480178834802880088401C814B188055
:1035A0007F48815402207D49087044E07B480078C0
:1035B000022832D16F4802787A4801880088401C7E
:1035C000784B18807648425418460088401E74494B
:1035D000085C25282FD118460088C01E085C00EE24
:1035E000100AB8EE400AF0EE000A20EE200A6E48FB
:1035F00080ED000A18460088801E085C00EE100A64
:10360000B8EE400AF0EE000A20EE200A674880ED8E
:10361000000A0320614908700DE060480078032823
:1036200009D100205F490880C8215D48FCF714FEDD
:1036300000205A4908705B480088C72809DD00202F
:1036400058490880C8215648FCF706FE0020534917
:1036500008705748007868B9454800783A2809D179
:10366000434800785349544A1288885401205049ED
:1036700008705AE04E480078012811D13C48007883
:103680004C280DD13A4802784B4801880088401CEC
:10369000494B18804748425402204549087044E08D
:1036A00043480078022832D13148027842480188E4
:1036B0000088401C404B18803E4842541846008801
:1036C000401E3C49085C5D282FD118460088C01E6A
:1036D000085C00EE100AB8EE400AF0EE000A20EE98
:1036E000200A364880ED000A18460088801E085CD3
:1036F00000EE100AB8EE400AF0EE000A20EE200AB2
:103700002F4880ED000A0320294908700DE0284861
:103710000078032809D1002027490880C8212548BE
:10372000FCF79AFD00202249087023480088C7282A
:1037300009DD002020490880C8211E48FCF78CFDC7
:1037400000201B490870012208490248FFF7F2FDDA
:1037500010BD00009C020020140000201C0000206E
:1037600018000020200000203C0000201200002053
:10377000560000204A0000201300002034040020DE
:103780001000002024000020280000202C00002031
:103790003000002034000020380000204B000020C2
:1037A000FC040020480000204C00002050000020B5
:1037B00057000020C40500205400002058000020BD
:1037C0005C0000207047704700BFFEE780ED000AF4
:1037D000C0ED010A80ED021ADFED0A1AC0ED031AEE
:1037E000DFED081AC0ED041ADFED061AC0ED051A68
:1037F000DFED041AC0ED061ADFED021AC0ED071A5C
:103800007047000000000000B0EE401AF0EE601AB1
:1038100031EE610A80ED050A90ED000A90ED053A5F
:1038200020EE030AF0EE402A90ED070A90ED053AEB
:1038300030EE030A80ED070A90ED010A90ED073A99
:1038400020EE030AF0EE400AB1EE040AF4EEC00ADC
:10385000F1EE10FA04DDB1EE040AF0EE400A0AE0DF
:10386000B9EE040AF4EEC00AF1EE10FA03D2B9EE92
:10387000040AF0EE400A90ED050A90ED063A30EEAB
:10388000430A90ED023A20EE032A32EEA00A30EE0F
:10389000020A90ED043A30EE430A90ED033A30EE1E
:1038A000030A80ED030A90ED050A80ED060A90ED0B
:1038B000030A80ED040A90ED030A7047F0EE400A17
:1038C00090ED000A90ED021A30EE010A80ED000A38
:1038D00090ED000A90ED031A30EE010A90ED001A07
:1038E000C1EE001AC0ED011A90ED040A90ED011A24
:1038F000D0ED041A70EEE11A01EE210A80ED040AFF
:1039000090ED010AB7EE001A31EE400A90ED001A70
:1039100020EE010A80ED000A90ED040A70472DE9BF
:10392000F04104460D4616461F462A2000F050FA84
:10393000A11C88B200F03DFAB11C88B200F039FA3F
:103940002B2000F045FA691C88B200F032FA791C8D
:1039500088B200F02EFA2C2000F03AFABDE8F0818F
:1039600070B504460D4616462B462246294620468B
:10397000FFF7D5FF304600F01CFA70BD2DE9F04787
:1039800006460F4614461D46DDF820A0681E83B289
:10399000601E82B239463046FFF7C1FFB8460EE0DE
:1039A000B14606E0504600F004FA09F101001FFAA2
:1039B00080F9A145F6DB08F101001FFA80F8A8455F
:1039C000EEDBBDE8F087000010B5002204217C4842
:1039D000FDF7D2F96420FDF7B7F8012204217848F9
:1039E000FDF7CAF96420FDF7AFF8012202217448FF
:1039F000FDF7C2F96420FDF7A7F8112000F0E8F9FF
:103A00007820FDF7A1F8B12000F0E2F9052000F0E0
:103A1000D9F93C2000F0D6F93C2000F0D3F9B220CF
:103A200000F0D6F9052000F0CDF93C2000F0CAF9ED
:103A30003C2000F0C7F9B32000F0CAF9052000F0DF
:103A4000C1F93C2000F0BEF93C2000F0BBF9052094
:103A500000F0B8F93C2000F0B5F93C2000F0B2F9D4
:103A6000B42000F0B5F9032000F0ACF9C02000F05C
:103A7000AFF9282000F0A6F9082000F0A3F90420EF
:103A800000F0A0F9C12000F0A3F9C02000F09AF9DD
:103A9000C22000F09DF90D2000F094F9002000F004
:103AA00091F9C32000F094F98D2000F08BF92A20C1
:103AB00000F088F9C42000F08BF98D2000F082F925
:103AC000EE2000F07FF9C52000F082F91A2000F006
:103AD00079F9362000F07CF9C02000F073F9E0207D
:103AE00000F076F9042000F06DF9222000F06AF968
:103AF000072000F067F90A2000F064F92E2000F09A
:103B000061F9302000F05EF9252000F05BF92A20F1
:103B100000F058F9282000F055F9262000F052F95D
:103B20002E2000F04FF93A2000F04CF9002000F070
:103B300049F9012000F046F9032000F043F9132071
:103B400000F040F9E12000F043F9042000F03AF9D8
:103B5000162000F037F9062000F034F90D2000F0AF
:103B600031F92D2000F02EF9262000F02BF923202A
:103B700000F028F9272000F025F9272000F022F98D
:103B8000252000F01FF92D2000F01CF93B2000F04B
:103B900019F9002000F016F9012000F013F90420B3
:103BA00000F010F9132000F00DF93A2000F010F9A0
:103BB000052000F007F9292000F00AF910BD0000E7
:103BC000000002402DE9FF5F80468A4617469B466B
:103BD0000F9D00200290CDF80080284605EBD071A3
:103BE000C1F347042046E21704EB5272D21021467B
:103BF000E31704EB5373DB10A4EBC3030BB10123F6
:103C000000E000231A446A4392B20192A7F1200017
:103C1000C7B20AEB0500401E83B208EB0400401E49
:103C200082B251464046FFF77AFE002669E00C2D2D
:103C300007D107EB4700354901EB8000805D039019
:103C40001BE0102D05D1324800EB0710805D03907A
:103C500013E0182D07D107EB47002E4901EB0010A8
:103C6000805D039009E0202D05D12B4800EB8710E3
:103C7000805D039001E0BDE8FF9F4FF000093AE04E
:103C80001098C8B9012000FA09F00399084018B14A
:103C9000584600F08EF802E00E9800F08AF802987C
:103CA000401CC0B20290029890FBF4F104FB11009A
:103CB000E8B90020029021E0012000FA09F0039900
:103CC000084020B15A4651464046FFF749FE08F1E8
:103CD00001001FFA80F80098A8EB0000A04206D16E
:103CE000DDF800800AF101001FFA80FA06E009F110
:103CF000010000F0FF09B9F1080FC1DB00BF701C23
:103D000086B20198864292DB00BFB4E7905E00085D
:103D100004630008F4680008C47A00082DE9FF4F26
:103D200085B0074691461D46DDE913A600200490A4
:103D3000304606EBD071C1F3470B002434E0281B5A
:103D4000401EC1B20A2002F081F8B9FBF0F00A214E
:103D5000B0FBF1F201FB12080498A0B9681EA04262
:103D600011DDB8F1000F0CD1002004FB0B71CDE97F
:103D700000A6029088B22022129B0699FFF722FF2C
:103D800010E001200490002008F13001CAB204FBC9
:103D90000B71CDE900A6029088B2129B0699FFF73D
:103DA00011FF00BF601CC4B2AC42C8DB09B0BDE863
:103DB000F08F10B50446201200F01CF8E0B200F0BD
:103DC00019F810BD10B50446204600F013F810BDD8
:103DD00010B50446002208210548FCF7CDFF204617
:103DE00000F008F8012208210148FCF7C5FF10BDCA
:103DF0000000024001B5002210210848FCF7BCFF7A
:103E00004FF47A73012269460548FDF7D1FC01227F
:103E100010210248FCF7B0FF08BD0000000002407E
:103E2000DC00002008B500BF002000900E480068AC
:103E300040F480000C4908600846006800F48000E7
:103E4000009000BF00BF002211463A20FDF728F87D
:103E50003A20FDF711F8002211464620FDF720F820
:103E60004620FDF709F808BD3038024000B587B09C
:103E7000142102A8FCF7F0F900BF0020019045488A
:103E8000006840F01000434908600846006800F0F0
:103E90001000019000BF00BF00BF00200190084645
:103EA000006840F0040008600846006800F0040064
:103EB000019000BF00BF00BF0020019008460068CD
:103EC00040F0800008600846006800F08000019023
:103ED00000BF00BF00BF002001900846006840F00E
:103EE000010008600846006800F00100019000BF72
:103EF00000BF00BF002001900846006840F00200AB
:103F000008600846006800F00200019000BF00BF92
:103F100000BF002001900846006840F008000860DB
:103F20000846006800F00800019000BF00BF0022B2
:103F30003C211948FCF720FF012251031748FCF7E8
:103F40001BFF00221F211648FCF716FF3C200290A1
:103F50000120039000200490059002A90E48FCF770
:103F600007FE4FF4005002900120039000200490BF
:103F7000059002A90948FCF7FBFD1F2002900120D3
:103F8000039000200490059002A90548FCF7F0FD7D
:103F900007B000BD30380240001002400008024067
:103FA0000000024010B50E480E4908604FF48270C0
:103FB000486000210B488160C160016141614FF49C
:103FC000007181610821C161002101624162816249
:103FD0000A21C162FDF744FB08B1FCF767FB10BD85
:103FE00000300140DC00002000B58BB0242102A885
:103FF000FCF732F900200090019018481849086039
:10400000002048600021164881604FF6FF71C160B2
:104010000021016141618161032002900020039031
:104020000120049000200590069007900120089040
:10403000002009900A9002A90948FDF771FE08B115
:10404000FCF734FB00200090019069460448FDF71E
:10405000A9FC08B1FCF72AFB0BB000BD0000014031
:104060003401002000B587B0002003900490059033
:104070000690019002904FF0804014490860532050
:10408000486000211148816044F61F61C160002131
:10409000016180218161FDF7DFFC08B1FCF706FBBF
:1040A0004FF48050039003A90848FDF7B3FD08B111
:1040B000FCF7FCFA00200190029001A90348FDF7EB
:1040C00071FC08B1FCF7F2FA07B000BD7C010020DA
:1040D00000B58BB0242102A8FCF7BEF800200090A8
:1040E00001901848184908600020486000211648CF
:1040F00081604FF6FF71C160002101618161032081
:10410000029000200390012004900020059006906A
:10411000079001200890002009900A9002A90A48FF
:10412000FDF7FEFD08B1FCF7C1FA002000900190F8
:1041300069460548FDF736FC08B1FCF7B7FA0BB045
:1041400000BD000000040040C401002000B58DB097
:10415000002009900A900B900C90079008901C2169
:104160006846FCF779F8244824490860A72048608D
:1041700000212248816041F28831C1600021016143
:104180008161FDF769FC08B1FCF790FA4FF48050AB
:10419000099009A91948FDF73DFD08B1FCF786FA19
:1041A0001648FEF772F808B1FCF780FA0020079075
:1041B000089007A91148FDF7F5FB08B1FCF776FA5E
:1041C000602000900020019002900490082269462F
:1041D0000A48FDF7D8FF08B1FCF768FA0C226946D7
:1041E0000648FDF7D0FF08B1FCF760FA0348FDF779
:1041F00097FF0DB000BD0000000800400C02002039
:1042000000B587B0002003900490059006900190BF
:104210000290154815490860532048600021134852
:10422000816042F21071C1600021016180218161D1
:10423000FDF712FC08B1FCF739FA4FF480500390F7
:1042400003A90A48FDF7E6FC08B1FCF72FFA0020A5
:104250000190029001A90548FDF7A4FB08B1FCF705
:1042600025FA07B000BD0000000C004054020020F9
:1042700010B50B480B4908604FF4E130486000214D
:1042800008488160C16001610C21416100218161A8
:10429000C161FEF7F5FE08B1FCF708FA10BD000099
:1042A000001001409C02002010B50B480B4908602B
:1042B0004FF416504860002108488160C1600161D8
:1042C0000C21416100218161C161FEF7D9FE08B175
:1042D000FCF7ECF910BD000000440040E4020020AF
:1042E00010B50B480B4908604FF4E13048600021DD
:1042F00008488160C16001610C2141610021816138
:10430000C161FEF7BDFE08B1FCF7D0F910BD000099
:10431000004800402C03002000BFFEE700BFFEE77E
:10432000704700007CB504460E4615463346012210
:1043300002212046009500F039F828B1606D40F068
:104340002000606503207CBD164800681821B0FB82
:10435000F1F01549B0FBF1F04FF47A714843019048
:104360006068B0F5827F0DD133460022802120465F
:10437000009500F01BF898B1606D40F0200060657A
:104380000320E0E700BF019800B908E00198401E53
:10439000019020688068C0F3C0100028F3D100BFEE
:1043A0000020D0E70C00002040420F002DE9F84F1C
:1043B00004460D4690461E46DDF82890FCF7E2FCC8
:1043C000A0EB0900371AFCF7DDFC82462C48006898
:1043D000C0F3CB307843009045E0701C002842D0F9
:1043E000FCF7D0FCA0EB0A00B84200D2A7BB2068C3
:1043F000406820F0E000216848606068B0F5827F86
:104400000DD1A068B0F5004F03D0A068B0F5806F63
:1044100005D12068006820F0400021680860A06A8B
:10442000B0F5005F0DD100BF2068006820F4005097
:10443000216808602068006840F400502168086026
:1044400000BF012084F8510000BF002084F8500014
:1044500000BF0320BDE8F88FFFE7009800B90027F0
:104460000098401E0090206880682840A84201D132
:10447000012000E000204045AFD10020EAE7000025
:104480000C0000207047000070B52DED088B86B041
:1044900005460E46F0EE409AF0EE608AB0EE419A84
:1044A000B0EE618AFE48006803287DD1FD4890ED9A
:1044B000000AB5EEC00AF1EE10FA75D0FA4890ED98
:1044C000000AB5EEC00AF1EE10FAF6D0B5EEC09AC9
:1044D000F1EE10FAF1D0B5EEC08AF1EE10FAECD0A0
:1044E000F2480068401CF14908601422F04901A814
:1044F000FBF799FE01ACEB4890ED000A2046FFF770
:10450000DDF9EC4880ED000AE74890ED000A20460E
:10451000FFF7D4F9E84880ED000AE44800680C2869
:104520007DD1BDEEC80AE54880ED000ABDEEE80A7F
:10453000E34880ED000ADB4890ED000AB5EEC00AC2
:10454000F1EE10FA08DDDF4890ED000AF7EE000A00
:1045500030EE600A80ED000AD24890ED000AB5EE18
:10456000C00AF1EE10FA08D2D64890ED000AF7EE34
:10457000000A30EE200A80ED000ACB4890ED000AD8
:10458000B5EEC00AF1EE10FA08DDCF4890ED000A52
:10459000F7EE000A30EE200A80ED000AC24890EDE6
:1045A000000AB5EEC00A00E08FE0F1EE10FA08D282
:1045B000C54890ED000AF7EE000A30EE600A80ED83
:1045C000000AB8480068FBF763FE41EC1B0BB0EE35
:1045D0004B0AF0EE6B0A00F0FFFFB0EE40AAF0EEDF
:1045E00060AA9FEDBA0B53EC102B51EC1A0BFBF7A2
:1045F0007BFE0DD2B34991ED000AAE49D1ED000A20
:1046000030EE600ABDEEC00A10EE100A01F022FA88
:10461000A5480068FBF73CFE41EC1B0B00E023E0E3
:10462000B0EE4B0AF0EE6B0A00F0D6FFB0EE40AAF7
:10463000F0EE60AA9FEDA50B53EC102B51EC1A0B7A
:10464000FBF752FE0DD2A04991ED000A9A49D1ED37
:10465000000A30EE200ABDEEC00A10EE100A01F08A
:1046600001FC002091490860974890ED000ADFEDB9
:10467000990AB4EEE00AF1EE10FA08DC90ED000AB7
:10468000DFED950AB4EEE00AF1EE10FA04D29FEDE8
:10469000930A8D4880ED000A8A4890ED000ADFED0C
:1046A000900AB4EEE00AF1EE10FA08D390ED000A99
:1046B000DFED8C0AB4EEE00AF1EE10FA04DD9FEDB6
:1046C0008A0A804880ED000A00BF7548006801280A
:1046D0007ED1744890ED000AB5EEC00AF1EE10FAF2
:1046E00076D0714890ED000AB5EEC00AF1EE10FAEE
:1046F000F6D0B5EEC09AF1EE10FAF1D0B5EEC08A60
:10470000F1EE10FAECD069480068401C6749086077
:1047100014226749143101A8FBF785FD01AC6148FB
:1047200090ED000A2046FFF7C9F8624880ED000AC4
:104730005D4890ED000A2046FFF7C0F85E4880ED26
:10474000000A5A48006808287DD181026748FCF7B2
:1047500009FBBDEEC80A594880ED000ABDEEE80A23
:10476000574880ED000A4F4890ED000AB5EEC00AA8
:10477000F1EE10FA08DD534890ED000AF7EE000A5A
:1047800030EE600A80ED000A464890ED000AB5EE72
:10479000C00AF1EE10FA08D24A4890ED000AF7EE8E
:1047A000000A30EE200A80ED000A3F4890ED000A32
:1047B000B5EEC00AF1EE10FA08DD434890ED000AAC
:1047C000F7EE000A30EE200A80ED000A364800E0DD
:1047D000BCE090ED000AB5EEC00AF1EE10FA08D286
:1047E000394890ED000AF7EE000A30EE600A80EDDD
:1047F000000A2C480068FBF74BFD41EC1B0BB0EEA8
:104800004B0AF0EE6B0A00F0E7FEB0EE40AAF0EEC5
:1048100060AA9FED2E0B53EC102B51EC1A0BFBF7FB
:1048200063FD0DD2274991ED000A2249D1ED000A1E
:1048300030EE600ABDEEC00A10EE100A01F00AF96F
:104840001948006800E027E0FBF722FD41EC1B0B54
:10485000B0EE4B0AF0EE6B0A00F0BEFEB0EE40AADE
:10486000F0EE60AA9FED190B53EC102B51EC1A0BD4
:10487000FBF73AFD0DD2144991ED000A0E49D1ED36
:10488000000A30EE200ABDEEC00A10EE100A01F058
:10489000E9FA0020054908600B4890ED000A27E07E
:1048A0007800002040000020440000209C000020F0
:1048B000AC970008B0000020B4000020A800002041
:1048C000AC000020A0000020A40000200000000098
:1048D0000000F03F00C028440000AA430080D443F9
:1048E0000000FA4300002A4400C0144400080240BB
:1048F0005FED080AB4EEE00AF1EE10FA08DC90ED84
:10490000000A5FED0B0AB4EEE00AF1EE10FA04D2F1
:104910001FED0E0A0F4880ED000A0F4890ED000AC7
:104920005FED110AB4EEE00AF1EE10FA08D390ED53
:10493000000A5FED140AB4EEE00AF1EE10FA04DDAD
:104940001FED170A044880ED000A00BF06B0BDEC59
:10495000088B70BDA4000020A000002040F2492078
:1049600004490968C86340F2A9100249096808644B
:10497000704700000C02002000B54FF4257340F290
:10498000A9125D480068012828D100BF40F2F91241
:104990001AE05A48006847F23051884204D15B1E41
:1049A000521E002055490860B2F5F87F01DA40F246
:1049B000EF12104601F056FA184601F04BF84F4836
:1049C0000068401C4D490860B3F5037FE1DC40F20C
:1049D0000D20834202DC02204749086046480068F7
:1049E000022828D140F20D2340F2EF121AE043488A
:1049F000006847F23051884204D15B1C521E0020EF
:104A00003E49086040F21220834200DB034618460C
:104A100001F020F8104601F025FA38480068401CE3
:104A200036490860B2F5BF7FE1DAB2F5BF7F02DC3C
:104A300003203149086030480068032828D140F23B
:104A400012234FF4BF721AE02C48006847F230512D
:104A5000884204D15B1C521E002028490860B2F530
:104A6000B47F01DA4FF4B472184600F0F3FF104639
:104A700001F0F8F921480068401C2049086040F224
:104A80009E208342E0DD834202DB04201A49086055
:104A900019480068042828D140F29E234FF4B472CC
:104AA0001AE01648006847F23051884204D15B1E74
:104AB000521C002011490860B3F5257F01DC4FF43A
:104AC0002573184600F0C6FF104601F0CBF90B48DD
:104AD0000068401C09490860B2F5FD7FE1DBB2F5D2
:104AE000FC7F02DD052004490860034800680528B2
:104AF00001D1FFF733FF00BD980000209C0000208B
:104B000010B5FCF745F910BD00B593B0302107A8EA
:104B1000FBF7A2FB142102A8FBF79EFB00BF0020BD
:104B200001902548006840F08050234908600846FD
:104B3000006800F08050019000BF00BF00BF00205F
:104B400001901E48006840F480401C4908600846F7
:104B5000006800F48040019000BF00BF0220079071
:104B600001200A9010200B9002200D9000210E9140
:104B700008210F91A8211091022111910421129175
:104B800007A8FCF71FFB08B1FBF790FD0F20029070
:104B900002200390002004904FF4A05005904FF4A1
:104BA00080500690052102A8FCF7CCF908B1FBF76C
:104BB0007DFD13B000BD0000403802400070004091
:104BC0000348006840F47000014908607047000025
:104BD00088ED00E010B50248FDF7EBF910BD0000CC
:104BE0007C01002010B50248FDF7E3F910BD00007C
:104BF0005402002010B502682D4B98420ED0B0F13F
:104C0000804F0BD02B4B984208D02B4B984205D0AD
:104C10002A4B984202D02A4B984203D122F07002CC
:104C20004B681A43224B984220D0B0F1804F1DD0E0
:104C3000204B98421AD0204B984217D01F4B9842D5
:104C400014D01F4B984211D01E4B98420ED01E4BD1
:104C500098420BD01D4B984208D01D4B984205D06E
:104C60001C4B984202D01C4B984203D122F4407254
:104C7000CB681A4322F080034C6943EA04020260C5
:104C80008B68C3620B688362094B984202D00C4B5D
:104C9000984201D10B69036301234361036903F067
:104CA00001031BB1036923F00103036110BD000080
:104CB000000001400004004000080040000C0040DB
:104CC0000004014000400140004401400048014010
:104CD00000180040001C00400020004030B501F0EA
:104CE0001F05012404FA05F3046A9C430462046A64
:104CF00001F01F0502FA05F52C43046230BD30B502
:104D00000C46816821F47F4142EA0325254329436B
:104D1000816030BD0A46816821F0700142F00703CE
:104D2000194381607047000030B5026A056A25F0BA
:104D3000010505624368846924F0700424F00304CB
:104D40000D682C4322F002028D682A43104DA842C0
:104D500000D103E00F4DA84206D100BF22F00802A7
:104D6000CD682A4322F00402094DA84202D0094D21
:104D7000A84207D123F4807323F400734D692B43B9
:104D80008D692B43436084614D684563026230BD89
:104D9000000001400004014030B5026A056A25F0B8
:104DA000100505624368846924F4E04424F44074E7
:104DB0000D6844EA052422F020028D6842EA0512BB
:104DC000124DA84200D103E0114DA84207D100BF07
:104DD00022F08002CD6842EA051222F040020B4D1B
:104DE000A84202D00A4DA84209D123F4806323F4DB
:104DF00000634D6943EA85038D6943EA8503436097
:104E000084614D688563026230BD0000000001408E
:104E10000004014030B5026A056A25F48075056218
:104E20004368C46924F0700424F003040D682C4323
:104E300022F400728D6842EA0522124DA84200D188
:104E400003E0114DA84207D100BF22F40062CD68F3
:104E500042EA052222F480620A4DA84202D00A4D9D
:104E6000A84209D123F4805323F400534D6943EA47
:104E700005138D6943EA05134360C4614D68C5633A
:104E8000026230BD000001400004014030B5036AF9
:104E9000056A25F4805505624468C26922F4E0423F
:104EA00022F440720D6842EA052223F400538D6813
:104EB00043EA0533084DA84202D0084DA84204D168
:104EC00024F480444D6944EA85144460C2614D680D
:104ED0000564036230BD0000000001400004014091
:104EE00030B50B461446026A056A25F001050562D5
:104EF000816921F0F00141EA041122F00A021A430B
:104F00008161026230BD30B50B461446026A056A03
:104F100025F010050562816921F4704141EA0431F0
:104F200022F0A00242EA03128161026230BD70B534
:104F30000546AC6B0020E085E0842046FDF72AFFA3
:104F400070BD70B506460025B46B20684069C0F39B
:104F5000C01594F84100212805D125B10020E08436
:104F6000204600F0C8F820684069C0F3801594F826
:104F70004200222805D125B10020E085204600F01E
:104F800074F8606C40F0100060642046FDF702FF8A
:104F900070BD70B50546AC6B2868006800F4807081
:104FA000002842D1E08500BF00BF21680C3151E8E4
:104FB000001F21F4807021680C3141E80002002AB2
:104FC000F3D100BF00BF00BF2168143151E8001FBA
:104FD00021F001002168143141E80002002AF3D1D8
:104FE00000BF00BF00BF2168143151E8001F21F04D
:104FF00040002168143141E80002002AF3D100BFCB
:10500000202084F84200206B01280ED100BF00BF91
:1050100021680C3151E8001F21F0100021680C318B
:1050200041E80002002AF3D100BF00206063206B3A
:10503000012804D1A18D2046FDF7ABFE02E02046F9
:10504000FEF78EF970BD70B50546AC6B012060634C
:10505000206B012805D1A08D41082046FDF799FE5F
:1050600002E02046FEF7AEFB70BD00BF00BF026845
:105070000C3252E8002F22F4907102680C3242E8A0
:105080000013002BF3D100BF00BF00BF0268143231
:1050900052E8002F22F001010268143242E80013A6
:1050A000002BF3D100BF016B01290ED100BF00BF5F
:1050B00002680C3252E8002F22F0100102680C3214
:1050C00042E80013002BF3D100BF202180F84210EA
:1050D00000210163704710B504462068C06820F0C5
:1050E00040002168C860202084F841002046FEF777
:1050F0006AFB002010BD00BF00BF02680C3252E8FE
:10510000002F22F0C00102680C3242E80013002B8D
:10511000F3D100BF202180F841107047F8B5044654
:1051200094F84200222875D1A068B0F5805F0CD1B8
:10513000206950B90025A66A20684068C0F30800BD
:105140003080A06A801CA06215E0A56A0026A068D5
:10515000B0F5805F03D0A06828B9206918B920682D
:105160004068287004E02068406800F07F002870E4
:10517000A06A401CA062E08D401E80B2E08500283D
:1051800046D12068C06820F020002168C8602068EF
:10519000C06820F480702168C8602068406920F0F1
:1051A000010021684861202084F8420000206063EB
:1051B000206B012826D10020206300BF00BF21689A
:1051C0000C3151E8001F21F0100021680C3141E83A
:1051D0000002002AF3D100BF2068006800F0100030
:1051E00010280AD100BF00200090206800680090BD
:1051F00020684068009000BF00BFA18D2046FDF7E9
:10520000C8FD02E02046FEF7ABF80020F8BD01E043
:105210000020FBE70220F9E72DE9F84F044620685B
:10522000006920F44050E168084321680861216961
:10523000A068084361690843E16908430090206859
:10524000C06849F20C618843009908432168C8602E
:105250002068406920F44070A169084321684861D2
:1052600076492068884203D075492068884203D176
:10527000FBF740FF814602E0FBF72CFF8146E06927
:10528000B0F5004F6CD102206168A0FB01500346CD
:105290001920A9FB007001462A463846FAF792FF0A
:1052A0006421B0FBF1F04FEA001A02206168A0FB14
:1052B00001510B461920A9FB00712A463846FAF71E
:1052C00081FF834602206168A0FB0150034619203C
:1052D000A9FB00712A463846FAF774FF6421B0FB37
:1052E000F1F000EBC00101EB0010ABEB80003221CC
:1052F00001EBC0006421B0FBF1F000F0F8000AEB14
:10530000400A02206168A0FB015003461920A9FB56
:10531000007001462A463846FAF754FF83460220B9
:105320006168A0FB015003461920A9FB00712A46C1
:105330003846FAF747FF6421B0FBF1F000EBC001FB
:1053400001EB0010ABEB8000322101EBC0006421C7
:10535000B0FBF1F000F007005044216888606AE07B
:1053600004206168A0FB015003461920A9FB0070CE
:1053700001462A463846FAF725FF8246042061682E
:10538000A0FB015003461920A9FB007001462A46E4
:105390003846FAF717FF6421B0FBF1F000EBC001CB
:1053A00001EB0010AAEB8000322101EB0010642118
:1053B000B0FBF1F000F0F00A04206168A0FB01707E
:1053C00003461920A9FB00513A462846FAF7FAFE8F
:1053D0006421B0FBF1F00AEB001A04206168A0FB25
:1053E00001510B461920A9FB00712A463846FAF7ED
:1053F000E9FE834604206168A0FB015003461920A2
:10540000A9FB007001462A463846FAF7DBFE642104
:10541000B0FBF1F000EBC00101EB0010ABEB800042
:10542000322101EB00106421B0FBF1F000F00F001D
:10543000504421688860BDE8F88F000000100140EA
:105440000014014077B581B0044615460298A06269
:10545000A58500206064222084F842002848E16B82
:10546000C8632848E16B08642748E16BC8640020E2
:10547000E16B086502AE32682368191D2B46E06BAC
:10548000FBF718FB00BF0020009020680068009028
:1054900020684068009000BF00BF206970B100BF65
:1054A00000BF21680C3151E8001F41F48070216871
:1054B0000C3141E80002002AF3D100BF00BF00BF59
:1054C0002168143151E8001F41F0010021681431B6
:1054D00041E80002002AF3D100BF00BF00BF2168ED
:1054E000143151E8001F41F040002168143141E8B7
:1054F0000002002AF3D100BF002004B070BD0000FC
:10550000934F000847500008434F0008014691F8A8
:105510004100212828D18868B0F5805F0BD1086947
:1055200048B90A6A1088C0F308000B685860086A16
:10553000801C086205E00B6A581C086218780B682A
:105540005860C88C401E80B2C88458B90868C068CA
:1055500020F080000B68D8600868C06840F0400008
:105560000B68D860002070470220FCE710B50248A5
:10557000FDF712FC10BD00009C02002010B502488F
:10558000FDF70AFC10BD0000E402002010B502483F
:10559000FDF702FC10BD00002C03002000BFFEE759
:1055A00002480068C0F30220704700000CED00E0E4
:1055B00010B5002804DB0A07130E054A135406E051
:1055C0000A07140E034A00F00F031B1FD45410BD2A
:1055D00000E400E018ED00E02DED020B019820F052
:1055E000004001909DED000B02B0704700B52DED1D
:1055F000048BB0EE409AF0EE609A83B051EC190B38
:10560000FAF759FF41EC180B18EE100A18EE901A31
:105610008DED008B002818BF0120084320F00040CA
:10562000C0F17F6000F1E040C00F14D019EE101AF5
:1056300019EE900A8DED009B002918BF0121084347
:1056400020F00040C0F17F6000F1E040C00F04BFD7
:10565000012000F017F8B0EE480A03B0F0EE680A37
:10566000BDEC048B00BD02E008C8121F08C1002A6F
:10567000FAD170477047002001E001C1121F002AD3
:10568000FBD170470149086070470000D800002036
:105690002DE9F0412DED048B04460D463648006897
:1056A000002840DD34480068401E344951F820602D
:1056B00031480068401E324951F82070A01BFAF7AB
:1056C000D6FD41EC190BB0EE490AF0EE690AFFF77E
:1056D00083FFB0EE408AF0EE608A9FED2A0B53EC18
:1056E000102B51EC180BFAF7E7FD1BD2E81BFAF769
:1056F000BEFD41EC190BB0EE490AF0EE690AFFF766
:105700006BFFB0EE408AF0EE608A9FED1E0B53EC0B
:10571000102B51EC180BFAF7CFFD03D2BDEC048B24
:10572000BDE8F08100BF144800680A2813DB0020A0
:105730000CE0124A411C52F8211042F82010104A85
:10574000411C52F8211042F82010401C0928F0DBBF
:1057500009200949086009480749096840F82140BB
:1057600007480549096840F8215003480068401C73
:105770000149086000BFD1E79400002028090020FB
:105780005009002000000000000008402DE9F04F03
:105790002DED108B89B004460D4616461F46DDE9F7
:1057A00024ABDDE922899DED268A301B00EE100A2C
:1057B000B8EEC00AF0EE40AA781B00EE100AB8EE70
:1057C000C00AF0EE408AA8EB060000EE100AB8EE20
:1057D000C00AB0EE40BAA9EB070000EE100AB8EE1E
:1057E000C00AB0EE409AAAEB080000EE100AB8EE2C
:1057F000C00AF0EE40BAABEB090000EE100AB8EEBA
:10580000C00AF0EE409AA4EB0A0000EE100AB8EECF
:10581000C00AB0EE40DAA5EB0B0000EE100AB8EEBD
:10582000C00AB0EE40AA2AEEAA0A08EEA80A10EEB4
:10583000101A0846FAF72CFDCDE900019DED000B8A
:10584000FFF7D4FEB0EE40CAF0EE60CA51EC1C0B7C
:10585000FAF762FD0DEE900A2BEE0B0A09EE090A2B
:1058600010EE101A0846FAF713FDCDE900019DED80
:10587000000BFFF7BBFEB0EE40CAF0EE60CA51EC81
:105880001C0BFAF749FD0EEE100A2BEEAB0A09EEDF
:10589000A90A10EE101A0846FAF7FAFCCDE9000141
:1058A0009DED000BFFF7A2FEB0EE40CAF0EE60CA1D
:1058B00051EC1C0BFAF730FD0EEE900A2DEE0D0A9E
:1058C0000AEE0A0A10EE101A0846FAF7E1FCCDE9D2
:1058D00000019DED000BFFF789FEB0EE40CAF0EE2F
:1058E00060CA51EC1C0BFAF717FD0FEE100AB1EE6F
:1058F000680AC0EE2D0AF0EE60FA8AEEAD0A8DED70
:10590000080AB1EE490AC0EE0E0ACDED070A8BEE89
:105910000E0A8DED060AB1EE690AC0EE2E0ACDED33
:10592000050A8BEEAE0A8DED040AB1EE4A0AC0EE0E
:105930000F0ACDED030A8DEE0F0A8DED020A00EE7F
:10594000104AB8EEC00AF8EEC80A00EEAF0ABDEE83
:10595000C00A384880ED000A00EE105AB8EEC00ABE
:10596000B8EEC81ADDED080A01EE200ABDEEC00A45
:10597000314880ED000A00EE106AB8EEC00AB8EEB9
:10598000C81ADDED070A01EE200ABDEEC00A2B4859
:1059900080ED000A00EE107AB8EEC00AB8EEC81A20
:1059A000DDED060A01EE200ABDEEC00A244880EDB6
:1059B000000A00EE108AB8EEC00AB8EEC81ADDED93
:1059C000050A01EE200ABDEEC00A1E4880ED000A5D
:1059D00000EE109AB8EEC00AB8EEC81ADDED040A5F
:1059E00001EE200ABDEEC00A174880ED000A00EE65
:1059F00010AAB8EEC00AB8EEC81ADDED030A01EE2F
:105A0000200ABDEEC00A114880ED000A00EE10BA6F
:105A1000B8EEC00AB8EEC81ADDED020A01EE200A9F
:105A2000BDEEC00A0A4880ED000A09B0BDEC108B3B
:105A3000BDE8F08FB8000020BC000020C0000020AE
:105A4000C4000020C8000020CC000020D0000020AE
:105A5000D400002001490968C86370470C02002087
:105A60002DED048B84B0FBF79FF9FFF74DF8FEF79F
:105A7000FDF9FEF7D7F9FEF795FAFEF7F9FBFEF709
:105A800013FCFEF72DFCFEF7AFFAFEF721FBFEF745
:105A90005DFBFEF7E7FAFEF7B3FB3C21D248FCF7CB
:105AA00021FA3C21D148FCF71DFA43F69820CE4953
:105AB00009684862CD49096848620821CC48FCF76A
:105AC00019FC0C21CA48FCF715FCFDF77DFF0020EE
:105AD000A023802201460090FDF750FF0122C54916
